{
  "contractName": "NewDemoTest",
  "abi": [
    {
      "inputs": [
        {
          "internalType": "uint256",
          "name": "",
          "type": "uint256"
        }
      ],
      "name": "materialArr",
      "outputs": [
        {
          "internalType": "address",
          "name": "supplier",
          "type": "address"
        },
        {
          "internalType": "string",
          "name": "materialID",
          "type": "string"
        },
        {
          "internalType": "string",
          "name": "materialName",
          "type": "string"
        },
        {
          "internalType": "string",
          "name": "materialStrength",
          "type": "string"
        },
        {
          "internalType": "string",
          "name": "materialForm",
          "type": "string"
        },
        {
          "internalType": "uint256",
          "name": "createdAmount",
          "type": "uint256"
        },
        {
          "internalType": "uint256",
          "name": "unitCost",
          "type": "uint256"
        }
      ],
      "stateMutability": "view",
      "type": "function",
      "constant": true
    },
    {
      "inputs": [
        {
          "internalType": "string",
          "name": "x",
          "type": "string"
        },
        {
          "internalType": "string",
          "name": "y",
          "type": "string"
        }
      ],
      "name": "strComp",
      "outputs": [
        {
          "internalType": "bool",
          "name": "",
          "type": "bool"
        }
      ],
      "stateMutability": "pure",
      "type": "function",
      "constant": true
    },
    {
      "inputs": [
        {
          "internalType": "address",
          "name": "_participant",
          "type": "address"
        }
      ],
      "name": "verifyParticipant",
      "outputs": [],
      "stateMutability": "nonpayable",
      "type": "function"
    },
    {
      "inputs": [
        {
          "internalType": "address",
          "name": "_participant",
          "type": "address"
        }
      ],
      "name": "unverifyParticipant",
      "outputs": [],
      "stateMutability": "nonpayable",
      "type": "function"
    },
    {
      "inputs": [
        {
          "internalType": "address",
          "name": "_participant",
          "type": "address"
        }
      ],
      "name": "isVerfied",
      "outputs": [
        {
          "internalType": "bool",
          "name": "",
          "type": "bool"
        }
      ],
      "stateMutability": "view",
      "type": "function",
      "constant": true
    },
    {
      "inputs": [
        {
          "internalType": "string",
          "name": "_id",
          "type": "string"
        },
        {
          "internalType": "string",
          "name": "_name",
          "type": "string"
        },
        {
          "internalType": "string",
          "name": "_pForm",
          "type": "string"
        }
      ],
      "name": "addProduct",
      "outputs": [],
      "stateMutability": "nonpayable",
      "type": "function"
    },
    {
      "inputs": [
        {
          "internalType": "string",
          "name": "_productID",
          "type": "string"
        },
        {
          "internalType": "string",
          "name": "_name",
          "type": "string"
        },
        {
          "internalType": "string",
          "name": "_type",
          "type": "string"
        },
        {
          "internalType": "string",
          "name": "_strength",
          "type": "string"
        },
        {
          "internalType": "string",
          "name": "_form",
          "type": "string"
        },
        {
          "internalType": "uint256",
          "name": "_amount",
          "type": "uint256"
        }
      ],
      "name": "addProductSpecs",
      "outputs": [],
      "stateMutability": "nonpayable",
      "type": "function"
    },
    {
      "inputs": [
        {
          "internalType": "address",
          "name": "_manufacturer",
          "type": "address"
        }
      ],
      "name": "getProductsByManu",
      "outputs": [
        {
          "components": [
            {
              "internalType": "address",
              "name": "manufacturer",
              "type": "address"
            },
            {
              "internalType": "string",
              "name": "productId",
              "type": "string"
            },
            {
              "internalType": "string",
              "name": "productName",
              "type": "string"
            },
            {
              "internalType": "string",
              "name": "productForm",
              "type": "string"
            },
            {
              "internalType": "uint256",
              "name": "productBudget",
              "type": "uint256"
            }
          ],
          "internalType": "struct NewDemoTest.Product[]",
          "name": "",
          "type": "tuple[]"
        }
      ],
      "stateMutability": "view",
      "type": "function",
      "constant": true
    },
    {
      "inputs": [
        {
          "internalType": "string",
          "name": "_product",
          "type": "string"
        }
      ],
      "name": "getProductSpecs",
      "outputs": [
        {
          "components": [
            {
              "internalType": "string",
              "name": "materialName",
              "type": "string"
            },
            {
              "internalType": "string",
              "name": "materialType",
              "type": "string"
            },
            {
              "internalType": "uint256",
              "name": "materialAmount",
              "type": "uint256"
            },
            {
              "internalType": "string",
              "name": "materialStrength",
              "type": "string"
            },
            {
              "internalType": "string",
              "name": "materialForm",
              "type": "string"
            }
          ],
          "internalType": "struct NewDemoTest.Specs[]",
          "name": "",
          "type": "tuple[]"
        }
      ],
      "stateMutability": "view",
      "type": "function",
      "constant": true
    },
    {
      "inputs": [
        {
          "internalType": "string",
          "name": "_product",
          "type": "string"
        },
        {
          "internalType": "uint256",
          "name": "_directMatCost",
          "type": "uint256"
        },
        {
          "internalType": "uint256",
          "name": "_pkgMatCost",
          "type": "uint256"
        },
        {
          "internalType": "uint256",
          "name": "_directLaborCost",
          "type": "uint256"
        },
        {
          "internalType": "uint256",
          "name": "_totIndirectCosts",
          "type": "uint256"
        },
        {
          "internalType": "uint256",
          "name": "_mrkCost",
          "type": "uint256"
        },
        {
          "internalType": "uint256",
          "name": "_rsrchCost",
          "type": "uint256"
        },
        {
          "internalType": "uint256",
          "name": "_productBudget",
          "type": "uint256"
        }
      ],
      "name": "setStdCostPlan",
      "outputs": [],
      "stateMutability": "nonpayable",
      "type": "function"
    },
    {
      "inputs": [
        {
          "internalType": "string",
          "name": "_product",
          "type": "string"
        },
        {
          "internalType": "uint256",
          "name": "_budget",
          "type": "uint256"
        }
      ],
      "name": "setProductBudget",
      "outputs": [],
      "stateMutability": "nonpayable",
      "type": "function"
    },
    {
      "inputs": [
        {
          "internalType": "string",
          "name": "_product",
          "type": "string"
        }
      ],
      "name": "getStdCostPlan",
      "outputs": [
        {
          "components": [
            {
              "internalType": "uint256",
              "name": "directMaterialCost",
              "type": "uint256"
            },
            {
              "internalType": "uint256",
              "name": "packagingMaterialCost",
              "type": "uint256"
            },
            {
              "internalType": "uint256",
              "name": "marketingCost",
              "type": "uint256"
            },
            {
              "internalType": "uint256",
              "name": "researchCost",
              "type": "uint256"
            },
            {
              "internalType": "uint256",
              "name": "directLaborCost",
              "type": "uint256"
            },
            {
              "internalType": "uint256",
              "name": "totalIndirectCost",
              "type": "uint256"
            },
            {
              "internalType": "uint256",
              "name": "CostTOT",
              "type": "uint256"
            }
          ],
          "internalType": "struct NewDemoTest.Cost",
          "name": "",
          "type": "tuple"
        }
      ],
      "stateMutability": "view",
      "type": "function",
      "constant": true
    },
    {
      "inputs": [
        {
          "internalType": "string",
          "name": "_product",
          "type": "string"
        },
        {
          "internalType": "uint256",
          "name": "_actualMatCost",
          "type": "uint256"
        },
        {
          "internalType": "uint256",
          "name": "_actualPkgMatCost",
          "type": "uint256"
        },
        {
          "internalType": "uint256",
          "name": "_actualLaborCost",
          "type": "uint256"
        },
        {
          "internalType": "uint256",
          "name": "_actualIndirectCost",
          "type": "uint256"
        },
        {
          "internalType": "uint256",
          "name": "_actualMrkCost",
          "type": "uint256"
        },
        {
          "internalType": "uint256",
          "name": "_actualRsrchCost",
          "type": "uint256"
        }
      ],
      "name": "setActualCost",
      "outputs": [],
      "stateMutability": "nonpayable",
      "type": "function"
    },
    {
      "inputs": [
        {
          "internalType": "string",
          "name": "_product",
          "type": "string"
        }
      ],
      "name": "getActualCost",
      "outputs": [
        {
          "components": [
            {
              "internalType": "uint256",
              "name": "directMaterialCost",
              "type": "uint256"
            },
            {
              "internalType": "uint256",
              "name": "packagingMaterialCost",
              "type": "uint256"
            },
            {
              "internalType": "uint256",
              "name": "marketingCost",
              "type": "uint256"
            },
            {
              "internalType": "uint256",
              "name": "researchCost",
              "type": "uint256"
            },
            {
              "internalType": "uint256",
              "name": "directLaborCost",
              "type": "uint256"
            },
            {
              "internalType": "uint256",
              "name": "totalIndirectCost",
              "type": "uint256"
            },
            {
              "internalType": "uint256",
              "name": "CostTOT",
              "type": "uint256"
            }
          ],
          "internalType": "struct NewDemoTest.Cost",
          "name": "",
          "type": "tuple"
        }
      ],
      "stateMutability": "view",
      "type": "function",
      "constant": true
    },
    {
      "inputs": [
        {
          "internalType": "string",
          "name": "_id",
          "type": "string"
        },
        {
          "internalType": "string",
          "name": "_name",
          "type": "string"
        },
        {
          "internalType": "string",
          "name": "_str",
          "type": "string"
        },
        {
          "internalType": "string",
          "name": "_form",
          "type": "string"
        },
        {
          "internalType": "uint256",
          "name": "_amount",
          "type": "uint256"
        },
        {
          "internalType": "uint256",
          "name": "_unitCost",
          "type": "uint256"
        }
      ],
      "name": "createMaterial",
      "outputs": [],
      "stateMutability": "nonpayable",
      "type": "function"
    },
    {
      "inputs": [
        {
          "internalType": "address",
          "name": "_supplier",
          "type": "address"
        }
      ],
      "name": "getMaterialsBySupplier",
      "outputs": [
        {
          "components": [
            {
              "internalType": "address",
              "name": "supplier",
              "type": "address"
            },
            {
              "internalType": "string",
              "name": "materialID",
              "type": "string"
            },
            {
              "internalType": "string",
              "name": "materialName",
              "type": "string"
            },
            {
              "internalType": "string",
              "name": "materialStrength",
              "type": "string"
            },
            {
              "internalType": "string",
              "name": "materialForm",
              "type": "string"
            },
            {
              "internalType": "uint256",
              "name": "createdAmount",
              "type": "uint256"
            },
            {
              "internalType": "uint256",
              "name": "unitCost",
              "type": "uint256"
            }
          ],
          "internalType": "struct NewDemoTest.Material[]",
          "name": "",
          "type": "tuple[]"
        }
      ],
      "stateMutability": "view",
      "type": "function",
      "constant": true
    },
    {
      "inputs": [
        {
          "internalType": "address",
          "name": "_to",
          "type": "address"
        },
        {
          "internalType": "string",
          "name": "_material",
          "type": "string"
        },
        {
          "internalType": "string",
          "name": "_materialForm",
          "type": "string"
        },
        {
          "internalType": "string",
          "name": "_materialStr",
          "type": "string"
        },
        {
          "internalType": "uint256",
          "name": "_amount",
          "type": "uint256"
        }
      ],
      "name": "createRequest",
      "outputs": [],
      "stateMutability": "nonpayable",
      "type": "function"
    },
    {
      "inputs": [],
      "name": "getMyRequests",
      "outputs": [
        {
          "components": [
            {
              "internalType": "uint256",
              "name": "requestId",
              "type": "uint256"
            },
            {
              "internalType": "address",
              "name": "fromParti",
              "type": "address"
            },
            {
              "internalType": "address",
              "name": "toParti",
              "type": "address"
            },
            {
              "internalType": "string",
              "name": "materialName",
              "type": "string"
            },
            {
              "internalType": "string",
              "name": "materialForm",
              "type": "string"
            },
            {
              "internalType": "string",
              "name": "materialStrength",
              "type": "string"
            },
            {
              "internalType": "uint256",
              "name": "amount",
              "type": "uint256"
            },
            {
              "internalType": "uint256",
              "name": "issueTime",
              "type": "uint256"
            }
          ],
          "internalType": "struct NewDemoTest.Request[]",
          "name": "",
          "type": "tuple[]"
        }
      ],
      "stateMutability": "view",
      "type": "function",
      "constant": true
    },
    {
      "inputs": [
        {
          "internalType": "address",
          "name": "_participant",
          "type": "address"
        }
      ],
      "name": "getRequestByAddress",
      "outputs": [
        {
          "components": [
            {
              "internalType": "uint256",
              "name": "requestId",
              "type": "uint256"
            },
            {
              "internalType": "address",
              "name": "fromParti",
              "type": "address"
            },
            {
              "internalType": "address",
              "name": "toParti",
              "type": "address"
            },
            {
              "internalType": "string",
              "name": "materialName",
              "type": "string"
            },
            {
              "internalType": "string",
              "name": "materialForm",
              "type": "string"
            },
            {
              "internalType": "string",
              "name": "materialStrength",
              "type": "string"
            },
            {
              "internalType": "uint256",
              "name": "amount",
              "type": "uint256"
            },
            {
              "internalType": "uint256",
              "name": "issueTime",
              "type": "uint256"
            }
          ],
          "internalType": "struct NewDemoTest.Request[]",
          "name": "",
          "type": "tuple[]"
        }
      ],
      "stateMutability": "view",
      "type": "function",
      "constant": true
    },
    {
      "inputs": [
        {
          "internalType": "uint256",
          "name": "_requestId",
          "type": "uint256"
        },
        {
          "internalType": "string",
          "name": "_shipStatus",
          "type": "string"
        },
        {
          "internalType": "string",
          "name": "_currentTemp",
          "type": "string"
        },
        {
          "internalType": "string",
          "name": "_currentHumid",
          "type": "string"
        },
        {
          "internalType": "string",
          "name": "_materialStatus",
          "type": "string"
        }
      ],
      "name": "createLog",
      "outputs": [],
      "stateMutability": "nonpayable",
      "type": "function"
    },
    {
      "inputs": [
        {
          "internalType": "uint256",
          "name": "_request",
          "type": "uint256"
        }
      ],
      "name": "getTrackLogs",
      "outputs": [
        {
          "components": [
            {
              "internalType": "string",
              "name": "shipStatus",
              "type": "string"
            },
            {
              "internalType": "string",
              "name": "currentTemp",
              "type": "string"
            },
            {
              "internalType": "string",
              "name": "currentHumidity",
              "type": "string"
            },
            {
              "internalType": "string",
              "name": "materialStatus",
              "type": "string"
            },
            {
              "internalType": "uint256",
              "name": "logTime",
              "type": "uint256"
            }
          ],
          "internalType": "struct NewDemoTest.Log[]",
          "name": "",
          "type": "tuple[]"
        }
      ],
      "stateMutability": "view",
      "type": "function",
      "constant": true
    }
  ],
  "bytecode": "0x6080604052600060015534801561001557600080fd5b50612c2b806100256000396000f3fe608060405234801561001057600080fd5b50600436106101375760003560e01c8063643a7695116100b857806391eace8b1161007c57806391eace8b146102c5578063de67ef8a146102cd578063eda953f2146102ed578063f583736d14610300578063fb3684fb14610313578063fd91dcca1461032657610137565b8063643a7695146102395780636cc8c6a81461024c5780636eac3eb8146102725780636fe57a77146102855780637f5cf16e146102a557610137565b806312917b8e116100ff57806312917b8e146101c05780632b743578146101e057806343a6785b146101f35780634a0d37a21461020657806359c8351f1461021957610137565b806306177b4e1461013c5780630828009314610165578063096a71e21461017a5780630afad95e1461019a5780630e34b00e146101ad575b600080fd5b61014f61014a366004612170565b610339565b60405161015c9190612858565b60405180910390f35b6101786101733660046124dc565b610626565b005b61018d61018836600461222e565b61072c565b60405161015c9190612b77565b6101786101a836600461251f565b6107aa565b6101786101bb3660046122ca565b61085c565b6101d36101ce366004612600565b610934565b60405161015c9190612794565b6101786101ee366004612191565b610bfc565b610178610201366004612618565b610d1e565b610178610214366004612422565b610df0565b61022c610227366004612269565b610ffc565b60405161015c9190612b6c565b610178610247366004612170565b611055565b61025f61025a366004612600565b611079565b60405161015c979695949392919061271f565b61018d61028036600461222e565b6112fe565b610298610293366004612170565b611316565b60405161015c91906129de565b6102b86102b336600461222e565b611574565b60405161015c9190612ab6565b61029861184a565b6102e06102db366004612170565b611aa8565b60405161015c919061292d565b61022c6102fb366004612170565b611ceb565b61017861030e366004612170565b611d09565b61017861032136600461258b565b611d2a565b61017861033436600461234e565b611de7565b6001600160a01b0381166000908152600560209081526040808320805482518185028101850190935280835260609492939192909184015b8282101561061a5760008481526020908190206040805160e0810182526007860290920180546001600160a01b03168352600180820180548451600261010094831615949094026000190190911692909204601f8101879004870283018701909452838252939491938583019391929091908301828280156104345780601f1061040957610100808354040283529160200191610434565b820191906000526020600020905b81548152906001019060200180831161041757829003601f168201915b5050509183525050600282810180546040805160206001841615610100026000190190931694909404601f810183900483028501830190915280845293810193908301828280156104c65780601f1061049b576101008083540402835291602001916104c6565b820191906000526020600020905b8154815290600101906020018083116104a957829003601f168201915b505050918352505060038201805460408051602060026001851615610100026000190190941693909304601f810184900484028201840190925281815293820193929183018282801561055a5780601f1061052f5761010080835404028352916020019161055a565b820191906000526020600020905b81548152906001019060200180831161053d57829003601f168201915b505050918352505060048201805460408051602060026001851615610100026000190190941693909304601f81018490048402820184019092528181529382019392918301828280156105ee5780601f106105c3576101008083540402835291602001916105ee565b820191906000526020600020905b8154815290600101906020018083116105d157829003601f168201915b505050505081526020016005820154815260200160068201548152505081526020019060010190610371565b5050505090505b919050565b33600090815260036020526040812080546106f39285929161064457fe5b90600052602060002090600502016001018054600181600116156101000203166002900480601f0160208091040260200160405190810160405280929190818152602001828054600181600116156101000203166002900480156106e95780601f106106be576101008083540402835291602001916106e9565b820191906000526020600020905b8154815290600101906020018083116106cc57829003601f168201915b5050505050610ffc565b1561072857336000908152600360205260408120805483929061071257fe5b9060005260206000209060050201600401819055505b5050565b610734611ece565b6009826040516107449190612703565b90815260200160405180910390206040518060e00160405290816000820154815260200160018201548152602001600282015481526020016003820154815260200160048201548152602001600582015481526020016006820154815250509050919050565b6107b2611ece565b6040518060e00160405280888152602001878152602001848152602001838152602001868152602001858152602001838587898b8d01010101018152509050806009896040516108029190612703565b9081526040805160209281900383019020835181559183015160018301558201516002820155606082015160038201556080820151600482015560a0820151600582015560c0909101516006909101555050505050505050565b610864611f0b565b506040805160a081018252338082526020808301878152838501879052606084018690526000608085018190529283526003825293822080546001808201835591845292829020845160059094020180546001600160a01b0319166001600160a01b0390941693909317835593518051939485946108e9939185019290910190611f43565b5060408201518051610905916002840191602090910190611f43565b5060608201518051610921916003840191602090910190611f43565b5060808201518160040155505050505050565b606060076000838152602001908152602001600020805480602002602001604051908101604052809291908181526020016000905b8282101561061a5760008481526020908190206040805160058602909201805460026001821615610100026000190190911604601f8101859004909402830160c090810190925260a0830184815292939092849290918491840182828015610a125780601f106109e757610100808354040283529160200191610a12565b820191906000526020600020905b8154815290600101906020018083116109f557829003601f168201915b50505050508152602001600182018054600181600116156101000203166002900480601f016020809104026020016040519081016040528092919081815260200182805460018160011615610100020316600290048015610ab45780601f10610a8957610100808354040283529160200191610ab4565b820191906000526020600020905b815481529060010190602001808311610a9757829003601f168201915b5050509183525050600282810180546040805160206001841615610100026000190190931694909404601f81018390048302850183019091528084529381019390830182828015610b465780601f10610b1b57610100808354040283529160200191610b46565b820191906000526020600020905b815481529060010190602001808311610b2957829003601f168201915b505050918352505060038201805460408051602060026001851615610100026000190190941693909304601f8101849004840282018401909252818152938201939291830182828015610bda5780601f10610baf57610100808354040283529160200191610bda565b820191906000526020600020905b815481529060010190602001808311610bbd57829003601f168201915b5050505050815260200160048201548152505081526020019060010190610969565b6001805481019055610c0c611fcf565b5060408051610100810182526001805482523360208084018281526001600160a01b038b8116868801908152606087018c8152608088018c905260a088018b905260c088018a90524260e089015260009586526006855297852080548088018255908652948490208751600890960201948555915194840180546001600160a01b0319908116968316969096179055905160028401805490951691161790925592518051929384939092610cc7926003850192910190611f43565b5060808201518051610ce3916004840191602090910190611f43565b5060a08201518051610cff916005840191602090910190611f43565b5060c0820151816006015560e082015181600701555050505050505050565b610d26612026565b506040805160a0810182528581526020808201869052818301859052606082018490524260808301526000888152600782529283208054600181018255908452928190208251805193948594600590910290920192610d8a92849290910190611f43565b506020828101518051610da39260018501920190611f43565b5060408201518051610dbf916002840191602090910190611f43565b5060608201518051610ddb916003840191602090910190611f43565b50608082015181600401555050505050505050565b610df8612055565b506040805160e0810182523380825260208083018a81528385018a9052606084018990526080840188905260a0840187905260c0840186905260009283526005825293822080546001808201835591845292829020845160079094020180546001600160a01b0319166001600160a01b039094169390931783559351805193948594610e8b939185019290910190611f43565b5060408201518051610ea7916002840191602090910190611f43565b5060608201518051610ec3916003840191602090910190611f43565b5060808201518051610edf916004840191602090910190611f43565b5060a0820151600582015560c090910151600690910155600b805460018101825560009190915281517f0175b7a638427703f0dbe7bb9bbf987a2551717b34e79f33b5b1008d1fa01db9600790920291820180546001600160a01b0319166001600160a01b0390921691909117815560208084015180518594610f88937f0175b7a638427703f0dbe7bb9bbf987a2551717b34e79f33b5b1008d1fa01dba909101920190611f43565b5060408201518051610fa4916002840191602090910190611f43565b5060608201518051610fc0916003840191602090910190611f43565b5060808201518051610fdc916004840191602090910190611f43565b5060a0820151816005015560c08201518160060155505050505050505050565b60008160405160200161100f9190612703565b60405160208183030381529060405280519060200120836040516020016110369190612703565b6040516020818303038152906040528051906020012014905092915050565b6001600160a01b03166000908152600260205260409020805460ff19166001179055565b600b818154811061108957600080fd5b600091825260209182902060079091020180546001808301805460408051601f60026000199685161561010002969096019093169490940491820187900487028401870190528083526001600160a01b0390931695509293909291908301828280156111365780601f1061110b57610100808354040283529160200191611136565b820191906000526020600020905b81548152906001019060200180831161111957829003601f168201915b50505060028085018054604080516020601f60001961010060018716150201909416959095049283018590048502810185019091528181529596959450909250908301828280156111c85780601f1061119d576101008083540402835291602001916111c8565b820191906000526020600020905b8154815290600101906020018083116111ab57829003601f168201915b5050505060038301805460408051602060026001851615610100026000190190941693909304601f81018490048402820184019092528181529495949350908301828280156112585780601f1061122d57610100808354040283529160200191611258565b820191906000526020600020905b81548152906001019060200180831161123b57829003601f168201915b5050505060048301805460408051602060026001851615610100026000190190941693909304601f81018490048402820184019092528181529495949350908301828280156112e85780601f106112bd576101008083540402835291602001916112e8565b820191906000526020600020905b8154815290600101906020018083116112cb57829003601f168201915b5050505050908060050154908060060154905087565b611306611ece565b6008826040516107449190612703565b6001600160a01b0381166000908152600660209081526040808320805482518185028101850190935280835260609492939192909184015b8282101561061a57600084815260209081902060408051610100808201835260088702909301805482526001808201546001600160a01b0390811684880152600280840154909116848601526003830180548651938116159097026000190190961604601f810187900487028201870190945283815291949093606086019390918301828280156114205780601f106113f557610100808354040283529160200191611420565b820191906000526020600020905b81548152906001019060200180831161140357829003601f168201915b505050918352505060048201805460408051602060026001851615610100026000190190941693909304601f81018490048402820184019092528181529382019392918301828280156114b45780601f10611489576101008083540402835291602001916114b4565b820191906000526020600020905b81548152906001019060200180831161149757829003601f168201915b505050918352505060058201805460408051602060026001851615610100026000190190941693909304601f81018490048402820184019092528181529382019392918301828280156115485780601f1061151d57610100808354040283529160200191611548565b820191906000526020600020905b81548152906001019060200180831161152b57829003601f168201915b50505050508152602001600682015481526020016007820154815250508152602001906001019061134e565b60606004826040516115869190612703565b9081526020016040518091039020805480602002602001604051908101604052809291908181526020016000905b8282101561061a5760008481526020908190206040805160058602909201805460026001821615610100026000190190911604601f8101859004909402830160c090810190925260a083018481529293909284929091849184018282801561165d5780601f106116325761010080835404028352916020019161165d565b820191906000526020600020905b81548152906001019060200180831161164057829003601f168201915b50505050508152602001600182018054600181600116156101000203166002900480601f0160208091040260200160405190810160405280929190818152602001828054600181600116156101000203166002900480156116ff5780601f106116d4576101008083540402835291602001916116ff565b820191906000526020600020905b8154815290600101906020018083116116e257829003601f168201915b505050918352505060028281015460208084019190915260038401805460408051601f6000196101006001861615020190931695909504918201849004840285018401815281855290940193909183018282801561179e5780601f106117735761010080835404028352916020019161179e565b820191906000526020600020905b81548152906001019060200180831161178157829003601f168201915b505050918352505060048201805460408051602060026001851615610100026000190190941693909304601f81018490048402820184019092528181529382019392918301828280156118325780601f1061180757610100808354040283529160200191611832565b820191906000526020600020905b81548152906001019060200180831161181557829003601f168201915b505050505081525050815260200190600101906115b4565b336000908152600660209081526040808320805482518185028101850190935280835260609492939192909184015b82821015611a9f57600084815260209081902060408051610100808201835260088702909301805482526001808201546001600160a01b0390811684880152600280840154909116848601526003830180548651938116159097026000190190961604601f8101879004870282018701909452838152919490936060860193909183018282801561194b5780601f106119205761010080835404028352916020019161194b565b820191906000526020600020905b81548152906001019060200180831161192e57829003601f168201915b505050918352505060048201805460408051602060026001851615610100026000190190941693909304601f81018490048402820184019092528181529382019392918301828280156119df5780601f106119b4576101008083540402835291602001916119df565b820191906000526020600020905b8154815290600101906020018083116119c257829003601f168201915b505050918352505060058201805460408051602060026001851615610100026000190190941693909304601f8101849004840282018401909252818152938201939291830182828015611a735780601f10611a4857610100808354040283529160200191611a73565b820191906000526020600020905b815481529060010190602001808311611a5657829003601f168201915b505050505081526020016006820154815260200160078201548152505081526020019060010190611879565b50505050905090565b6001600160a01b0381166000908152600360209081526040808320805482518185028101850190935280835260609492939192909184015b8282101561061a5760008481526020908190206040805160a0810182526005860290920180546001600160a01b03168352600180820180548451600261010094831615949094026000190190911692909204601f810187900487028301870190945283825293949193858301939192909190830182828015611ba35780601f10611b7857610100808354040283529160200191611ba3565b820191906000526020600020905b815481529060010190602001808311611b8657829003601f168201915b5050509183525050600282810180546040805160206001841615610100026000190190931694909404601f81018390048302850183019091528084529381019390830182828015611c355780601f10611c0a57610100808354040283529160200191611c35565b820191906000526020600020905b815481529060010190602001808311611c1857829003601f168201915b505050918352505060038201805460408051602060026001851615610100026000190190941693909304601f8101849004840282018401909252818152938201939291830182828015611cc95780601f10611c9e57610100808354040283529160200191611cc9565b820191906000526020600020905b815481529060010190602001808311611cac57829003601f168201915b5050505050815260200160048201548152505081526020019060010190611ae0565b6001600160a01b031660009081526002602052604090205460ff1690565b6001600160a01b03166000908152600260205260409020805460ff19169055565b611d32611ece565b6040518060e001604052808981526020018881526020018581526020018481526020018781526020018681526020018486888a8c8e010101010181525090508060088a604051611d829190612703565b9081526040805160209281900383019020835181559183015160018301558201516002820155606082015160038201556080820151600482015560a0820151600582015560c090910151600690910155611ddc8983610626565b505050505050505050565b611def61209b565b6040518060a00160405280878152602001868152602001838152602001858152602001848152509050600487604051611e289190612703565b908152604051602091819003820190208054600181018255600091825290829020835180518594600590940290920192611e6792849290910190611f43565b506020828101518051611e809260018501920190611f43565b506040820151600282015560608201518051611ea6916003840191602090910190611f43565b5060808201518051611ec2916004840191602090910190611f43565b50505050505050505050565b6040518060e00160405280600081526020016000815260200160008152602001600081526020016000815260200160008152602001600081525090565b6040518060a0016040528060006001600160a01b03168152602001606081526020016060815260200160608152602001600081525090565b828054600181600116156101000203166002900490600052602060002090601f016020900481019282611f795760008555611fbf565b82601f10611f9257805160ff1916838001178555611fbf565b82800160010185558215611fbf579182015b82811115611fbf578251825591602001919060010190611fa4565b50611fcb9291506120ca565b5090565b6040518061010001604052806000815260200160006001600160a01b0316815260200160006001600160a01b0316815260200160608152602001606081526020016060815260200160008152602001600081525090565b6040518060a0016040528060608152602001606081526020016060815260200160608152602001600081525090565b6040518060e0016040528060006001600160a01b031681526020016060815260200160608152602001606081526020016060815260200160008152602001600081525090565b6040518060a0016040528060608152602001606081526020016000815260200160608152602001606081525090565b5b80821115611fcb57600081556001016120cb565b80356001600160a01b038116811461062157600080fd5b600082601f830112612106578081fd5b813567ffffffffffffffff8082111561211b57fe5b604051601f8301601f19168101602001828111828210171561213957fe5b60405282815292508284830160200186101561215457600080fd5b8260208601602083013760006020848301015250505092915050565b600060208284031215612181578081fd5b61218a826120df565b9392505050565b600080600080600060a086880312156121a8578081fd5b6121b1866120df565b9450602086013567ffffffffffffffff808211156121cd578283fd5b6121d989838a016120f6565b955060408801359150808211156121ee578283fd5b6121fa89838a016120f6565b9450606088013591508082111561220f578283fd5b5061221c888289016120f6565b95989497509295608001359392505050565b60006020828403121561223f578081fd5b813567ffffffffffffffff811115612255578182fd5b612261848285016120f6565b949350505050565b6000806040838503121561227b578182fd5b823567ffffffffffffffff80821115612292578384fd5b61229e868387016120f6565b935060208501359150808211156122b3578283fd5b506122c0858286016120f6565b9150509250929050565b6000806000606084860312156122de578283fd5b833567ffffffffffffffff808211156122f5578485fd5b612301878388016120f6565b94506020860135915080821115612316578384fd5b612322878388016120f6565b93506040860135915080821115612337578283fd5b50612344868287016120f6565b9150509250925092565b60008060008060008060c08789031215612366578081fd5b863567ffffffffffffffff8082111561237d578283fd5b6123898a838b016120f6565b9750602089013591508082111561239e578283fd5b6123aa8a838b016120f6565b965060408901359150808211156123bf578283fd5b6123cb8a838b016120f6565b955060608901359150808211156123e0578283fd5b6123ec8a838b016120f6565b94506080890135915080821115612401578283fd5b5061240e89828a016120f6565b92505060a087013590509295509295509295565b60008060008060008060c0878903121561243a578182fd5b863567ffffffffffffffff80821115612451578384fd5b61245d8a838b016120f6565b97506020890135915080821115612472578384fd5b61247e8a838b016120f6565b96506040890135915080821115612493578384fd5b61249f8a838b016120f6565b955060608901359150808211156124b4578384fd5b506124c189828a016120f6565b9350506080870135915060a087013590509295509295509295565b600080604083850312156124ee578182fd5b823567ffffffffffffffff811115612504578283fd5b612510858286016120f6565b95602094909401359450505050565b600080600080600080600060e0888a031215612539578081fd5b873567ffffffffffffffff81111561254f578182fd5b61255b8a828b016120f6565b9a60208a01359a5060408a013599606081013599506080810135985060a0810135975060c0013595509350505050565b600080600080600080600080610100898b0312156125a7578081fd5b883567ffffffffffffffff8111156125bd578182fd5b6125c98b828c016120f6565b9b60208b01359b5060408b01359a60608101359a506080810135995060a0810135985060c0810135975060e0013595509350505050565b600060208284031215612611578081fd5b5035919050565b600080600080600060a0868803121561262f578283fd5b85359450602086013567ffffffffffffffff8082111561264d578485fd5b61265989838a016120f6565b9550604088013591508082111561266e578485fd5b61267a89838a016120f6565b9450606088013591508082111561268f578283fd5b61269b89838a016120f6565b935060808801359150808211156126b0578283fd5b506126bd888289016120f6565b9150509295509295909350565b6001600160a01b03169052565b600081518084526126ef816020860160208601612bc5565b601f01601f19169290920160200192915050565b60008251612715818460208701612bc5565b9190910192915050565b6001600160a01b038816815260e060208201819052600090612743908301896126d7565b828103604084015261275581896126d7565b9050828103606084015261276981886126d7565b9050828103608084015261277d81876126d7565b60a0840195909552505060c0015295945050505050565b60208082528251828201819052600091906040908185019080840286018301878501865b8381101561284a57603f19898403018552815160a081518186526127de828701826126d7565b915050888201518582038a8701526127f682826126d7565b915050878201518582038987015261280e82826126d7565b9150506060808301518683038288015261282883826126d7565b60809485015197909401969096525050948701949250908601906001016127b8565b509098975050505050505050565b60208082528251828201819052600091906040908185019080840286018301878501865b8381101561284a57888303603f19018552815180516001600160a01b031684528781015160e0898601819052906128b5828701826126d7565b91505087820151858203898701526128cd82826126d7565b915050606080830151868303828801526128e783826126d7565b925050506080808301518683038288015261290283826126d7565b60a0858101519089015260c0948501519490970193909352505050938601939086019060010161287c565b60208082528251828201819052600091906040908185019080840286018301878501865b8381101561284a57888303603f19018552815180516001600160a01b031684528781015160a08986018190529061298a828701826126d7565b91505087820151858203898701526129a282826126d7565b915050606080830151868303828801526129bc83826126d7565b6080948501519790940196909652505094870194925090860190600101612951565b60208082528251828201819052600091906040908185019080840286018301878501865b8381101561284a57603f1989840301855281516101008151855288820151612a2c8a8701826126ca565b5087820151612a3d898701826126ca565b506060808301518282880152612a55838801826126d7565b9250505060808083015186830382880152612a7083826126d7565b9250505060a08083015186830382880152612a8b83826126d7565b60c0858101519089015260e09485015194909701939093525050509386019390860190600101612a02565b60208082528251828201819052600091906040908185019080840286018301878501865b8381101561284a57603f19898403018552815160a08151818652612b00828701826126d7565b915050888201518582038a870152612b1882826126d7565b915050878201518886015260608083015186830382880152612b3a83826126d7565b9250505060808083015192508582038187015250612b5881836126d7565b968901969450505090860190600101612ada565b901515815260200190565b600060e082019050825182526020830151602083015260408301516040830152606083015160608301526080830151608083015260a083015160a083015260c083015160c083015292915050565b60005b83811015612be0578181015183820152602001612bc8565b83811115612bef576000848401525b5050505056fea264697066735822122033ef233bbeb00bba658c2b52616e5888af4c884de287dfadba528bdb494d531764736f6c63430007040033",
  "immutableReferences": {},
  "source": "/*\n    THIS CONTRACT IMPLEMENTATION ALLOWS A USER TO:\n    \n    1- Add products with their specs. (manufacturer)\n    2- Create materials. (suppplier).\n    3- Request materials from suppliers. (manufacturer)\n    4- Track requests status. (manufacturer)\n*/\n\n\n// \"SPDX-License-Identifier: UNLICENSED\"\npragma solidity >=0.6.2;\npragma experimental ABIEncoderV2;  \n\ncontract NewDemoTest {\n    \n    // UTILS\n    \n    function strComp(string memory x , string memory y ) public pure returns (bool){\n        \n        return (keccak256(abi.encodePacked((x))) == keccak256(abi.encodePacked((y))));\n        \n    }\n    \n    \n    address admin;\n    uint    requestCount = 0;\n    enum    Role                    {MANUFACTURER, SUPPLIER, DISTRIBUTOR, DRUG_AUTHORITY, BANK}\n    mapping (address => bool)       participants;\n    mapping (address => Product[])  products;    // manufacturer and product\n    mapping (string => Specs[])     productSpecs; // productID and material  \n    mapping (address => Material[]) materials;   //Participant(supplier) and material\n    // mapping (string => Material)    materialList; // materials by name\n    mapping (address => Request[])  requests;   // participant and requests\n    mapping (uint => Log[])         trackLogs; //requestId and Log\n    mapping (string => Cost)        standardProductCosts;\n    mapping (string => Cost)        actualProductCosts;\n    mapping(uint => uint)           requestCost;    // requestId and Total Cost.\n    Material[] public  materialArr;\n    \n    \n    struct Participant {\n        address particId;\n        Role    particRole;\n        uint    partiBalance;\n    }\n    \n    struct Product {\n        address manufacturer;\n        string  productId; //registration no.\n        string  productName;\n        string  productForm; // tablets or capsules\n        uint    productBudget;\n        \n    }\n    \n    struct Material {\n        address supplier;\n        string  materialID;\n        string  materialName;\n        string  materialStrength;\n        string  materialForm;\n        uint    createdAmount;\n        uint    unitCost;\n    }\n    \n    struct Specs {\n        string  materialName;\n        string  materialType;\n        uint    materialAmount;\n        string  materialStrength;\n        string  materialForm;\n        \n    }\n\n    struct Request {\n        uint    requestId;\n        address fromParti;\n        address toParti;\n        string  materialName;\n        string  materialForm;\n        string  materialStrength;\n        uint    amount;\n        uint    issueTime;\n    }\n    \n       struct Log {\n        string  shipStatus;\n        string  currentTemp;\n        string  currentHumidity;\n        string  materialStatus;\n        uint    logTime;\n    }\n    \n    struct Cost {\n        uint directMaterialCost;\n        uint packagingMaterialCost;\n        uint marketingCost;\n        uint researchCost;\n        uint directLaborCost;\n        uint totalIndirectCost; // indirect manufacturing costs\n        uint CostTOT; // direct material + direct labor + total indirect\n    }\n    \n    \n    // FUNCTIONS\n    \n    //constructor\n    \n    // constructor() {\n        \n    // }\n    \n    modifier onlyAdmin {\n        require(msg.sender == admin);\n        _;\n    }\n    \n    // Core functions \n    \n    // Handle participants privileges\n    \n    function verifyParticipant(address _participant) public  {\n             participants[_participant] = true;\n    }\n    \n    function unverifyParticipant(address _participant ) public  {\n             participants[_participant] = false;\n    }\n         \n    function isVerfied(address _participant) public view returns (bool) {\n             return participants[_participant];\n    }\n    \n    \n    \n    \n    function addProduct(\n    \n    string memory _id,\n    string memory _name,\n    string memory _pForm\n    \n    ) public {\n        \n        Product memory pro = Product({\n            productId: _id,\n            productName: _name,\n            productForm: _pForm,\n            productBudget: 0,\n            manufacturer: msg.sender\n        });\n        \n        products[msg.sender].push(pro);\n        \n    }\n    \n    function addProductSpecs(\n    \n    string memory _productID,\n    string memory _name,\n    string memory _type,\n    string memory _strength,\n    string memory _form,\n    uint          _amount\n    \n    ) public {\n    \n        Specs memory spec = Specs({\n            materialName: _name,\n            materialType: _type,\n            materialForm: _form,\n            materialAmount: _amount,\n            materialStrength: _strength\n            \n        });      \n        \n        productSpecs[_productID].push(spec);\n        \n    }\n    \n      \n    function getProductsByManu(address _manufacturer) public view returns(Product[] memory) {\n        return products[_manufacturer];\n    }\n    function getProductSpecs(string memory _product) public view returns(Specs[] memory) {\n        return productSpecs[_product];\n    }\n    \n    // COST ACCOUNTING STUFF START HERE\n    \n    function setStdCostPlan(\n    \n    string memory _product,\n    uint    _directMatCost,\n    uint    _pkgMatCost,\n    uint    _directLaborCost,\n    uint    _totIndirectCosts,\n    uint    _mrkCost,\n    uint    _rsrchCost,\n    uint    _productBudget\n    \n        ) public {\n    \n    Cost memory stdCosts = Cost({\n        directMaterialCost: _directMatCost,\n        directLaborCost: _directLaborCost,\n        totalIndirectCost: _totIndirectCosts,\n        packagingMaterialCost: _pkgMatCost,\n        marketingCost: _mrkCost,\n        researchCost: _rsrchCost,\n        CostTOT: _directMatCost + _pkgMatCost +  _directLaborCost + _totIndirectCosts\n                 + _mrkCost  + _rsrchCost\n       \n    });\n    \n    standardProductCosts[_product] = stdCosts;\n    \n    setProductBudget(_product, _productBudget);\n    \n    }\n    \n    function setProductBudget(string memory _product, uint _budget) public {\n        if(strComp(_product, products[msg.sender][0].productId)) {\n            products[msg.sender][0].productBudget = _budget;\n        }\n       \n    }\n    \n    \n    function getStdCostPlan(string memory _product) public view returns(Cost memory) {\n        return standardProductCosts[_product];\n    }\n    \n    function setActualCost(\n    \n    string memory _product,\n    uint _actualMatCost,\n    uint _actualPkgMatCost,\n    uint _actualLaborCost,\n    uint _actualIndirectCost,\n    uint _actualMrkCost,\n    uint _actualRsrchCost\n    \n    ) public {\n        Cost memory actualCosts = Cost({\n            directMaterialCost: _actualMatCost,\n            packagingMaterialCost: _actualPkgMatCost,\n            marketingCost: _actualMrkCost,\n            researchCost: _actualRsrchCost,\n            directLaborCost: _actualLaborCost,\n            totalIndirectCost: _actualIndirectCost,\n            CostTOT: _actualMatCost + _actualPkgMatCost + _actualLaborCost + _actualIndirectCost\n                     + _actualMrkCost + _actualRsrchCost\n        });\n        \n        actualProductCosts[_product] = actualCosts;\n    }\n    \n    function getActualCost(string memory _product) public view returns(Cost memory) {\n        return actualProductCosts[_product];\n    }\n\n    \n    // By Supplier\n    \n    function createMaterial(\n    \n    string memory _id,\n    string memory _name,\n    string memory _str,\n    string memory _form,\n    uint    _amount,\n    uint    _unitCost\n    \n    ) public {\n        \n        Material memory mat = Material({\n           supplier: msg.sender,\n           materialID:   _id,\n           materialName: _name,\n           materialForm: _form,\n           materialStrength: _str,\n           createdAmount: _amount,\n           unitCost:      _unitCost\n        });\n\n        materials[msg.sender].push(mat);\n        materialArr.push(mat);\n        \n        \n    }\n    \n    // TODOOOO\n    \n    function getMaterialsBySupplier(address _supplier) public view returns(Material[] memory ) {\n        return materials[_supplier];\n    }\n    \n    \n    // Material Search \n    \n    // function getMaterialsByName(string memory _name) public view returns (Material[] memory) {\n        \n    //     uint counter = 0;\n    //     Material[] memory result = new Material[](materialArr.length);\n        \n    //     if(strComp(_name, materialList[_name].materialName)) {\n            \n    //     result[counter] = materialList[_name];\n    //     counter++;\n        \n    //     }\n        \n    //     return result;\n    // }\n    \n    \n\n\n    function createRequest(\n    \n    address _to ,\n    string memory _material ,\n    string memory _materialForm,\n    string memory _materialStr,\n    uint _amount )\n    \n    public {\n        \n        requestCount += 1;\n        Request memory req = Request({\n           requestId: requestCount,\n           fromParti: msg.sender,\n           toParti: _to,\n           materialName: _material,\n           materialForm: _materialForm,\n           materialStrength: _materialStr, \n           amount: _amount,\n           issueTime: block.timestamp\n        });\n        \n        requests[msg.sender].push(req);\n    }\n    \n    \n    function getMyRequests() public view returns (Request[] memory) {\n        \n        return requests[msg.sender];\n    }\n    \n    function getRequestByAddress(address _participant) public  view returns(Request[] memory) {\n        \n        return requests[_participant];\n    }\n    \n    \n    function createLog(\n    \n    uint _requestId,\n    string memory _shipStatus,\n    string memory _currentTemp,\n    string memory _currentHumid,\n    string memory _materialStatus\n    \n    ) public  {\n        \n        Log memory myLog = Log({\n            shipStatus: _shipStatus,\n            currentTemp: _currentTemp,\n            currentHumidity: _currentHumid,\n            materialStatus: _materialStatus,\n            logTime: block.timestamp\n        });\n        \n        trackLogs[_requestId].push(myLog);\n    }\n    \n    function getTrackLogs(uint _request) public view returns(Log[] memory) {\n        return trackLogs[_request];\n    }\n    \n    \n    \n}",
  "sourcePath": "/home/mohamedkaram/Documents/Demo-sandbox/contracts/NewDemoTest.sol",
  "compiler": {
    "name": "solc",
    "version": "0.7.4+commit.3f05b770.Emscripten.clang"
  },
  "schemaVersion": "3.3.3",
  "updatedAt": "2021-02-26T19:58:16.095Z",
  "networkType": "ethereum",
  "devdoc": {
    "kind": "dev",
    "methods": {},
    "version": 1
  },
  "userdoc": {
    "kind": "user",
    "methods": {},
    "version": 1
  }
}