{
  "contractName": "NewDemoTest",
  "abi": [
    {
      "inputs": [
        {
          "internalType": "uint256",
          "name": "",
          "type": "uint256"
        }
      ],
      "name": "materialArr",
      "outputs": [
        {
          "internalType": "address",
          "name": "supplier",
          "type": "address"
        },
        {
          "internalType": "string",
          "name": "materialID",
          "type": "string"
        },
        {
          "internalType": "string",
          "name": "materialName",
          "type": "string"
        },
        {
          "internalType": "string",
          "name": "materialStrength",
          "type": "string"
        },
        {
          "internalType": "string",
          "name": "materialForm",
          "type": "string"
        },
        {
          "internalType": "uint256",
          "name": "createdAmount",
          "type": "uint256"
        },
        {
          "internalType": "uint256",
          "name": "unitCost",
          "type": "uint256"
        }
      ],
      "stateMutability": "view",
      "type": "function",
      "constant": true
    },
    {
      "inputs": [
        {
          "internalType": "string",
          "name": "x",
          "type": "string"
        },
        {
          "internalType": "string",
          "name": "y",
          "type": "string"
        }
      ],
      "name": "strComp",
      "outputs": [
        {
          "internalType": "bool",
          "name": "",
          "type": "bool"
        }
      ],
      "stateMutability": "pure",
      "type": "function",
      "constant": true
    },
    {
      "inputs": [
        {
          "internalType": "address",
          "name": "_participant",
          "type": "address"
        }
      ],
      "name": "verifyParticipant",
      "outputs": [],
      "stateMutability": "nonpayable",
      "type": "function"
    },
    {
      "inputs": [
        {
          "internalType": "address",
          "name": "_participant",
          "type": "address"
        }
      ],
      "name": "unverifyParticipant",
      "outputs": [],
      "stateMutability": "nonpayable",
      "type": "function"
    },
    {
      "inputs": [
        {
          "internalType": "address",
          "name": "_participant",
          "type": "address"
        }
      ],
      "name": "isVerfied",
      "outputs": [
        {
          "internalType": "bool",
          "name": "",
          "type": "bool"
        }
      ],
      "stateMutability": "view",
      "type": "function",
      "constant": true
    },
    {
      "inputs": [
        {
          "internalType": "string",
          "name": "_id",
          "type": "string"
        },
        {
          "internalType": "string",
          "name": "_name",
          "type": "string"
        },
        {
          "internalType": "string",
          "name": "_pForm",
          "type": "string"
        }
      ],
      "name": "addProduct",
      "outputs": [],
      "stateMutability": "nonpayable",
      "type": "function"
    },
    {
      "inputs": [
        {
          "internalType": "string",
          "name": "_productID",
          "type": "string"
        },
        {
          "internalType": "string",
          "name": "_name",
          "type": "string"
        },
        {
          "internalType": "string",
          "name": "_type",
          "type": "string"
        },
        {
          "internalType": "string",
          "name": "_strength",
          "type": "string"
        },
        {
          "internalType": "string",
          "name": "_form",
          "type": "string"
        },
        {
          "internalType": "uint256",
          "name": "_amount",
          "type": "uint256"
        }
      ],
      "name": "addProductSpecs",
      "outputs": [],
      "stateMutability": "nonpayable",
      "type": "function"
    },
    {
      "inputs": [
        {
          "internalType": "address",
          "name": "_manufacturer",
          "type": "address"
        }
      ],
      "name": "getProductsByManu",
      "outputs": [
        {
          "components": [
            {
              "internalType": "address",
              "name": "manufacturer",
              "type": "address"
            },
            {
              "internalType": "string",
              "name": "productId",
              "type": "string"
            },
            {
              "internalType": "string",
              "name": "productName",
              "type": "string"
            },
            {
              "internalType": "string",
              "name": "productForm",
              "type": "string"
            },
            {
              "internalType": "uint256",
              "name": "productBudget",
              "type": "uint256"
            }
          ],
          "internalType": "struct NewDemoTest.Product[]",
          "name": "",
          "type": "tuple[]"
        }
      ],
      "stateMutability": "view",
      "type": "function",
      "constant": true
    },
    {
      "inputs": [
        {
          "internalType": "string",
          "name": "_product",
          "type": "string"
        }
      ],
      "name": "getProductSpecs",
      "outputs": [
        {
          "components": [
            {
              "internalType": "string",
              "name": "materialName",
              "type": "string"
            },
            {
              "internalType": "string",
              "name": "materialType",
              "type": "string"
            },
            {
              "internalType": "uint256",
              "name": "materialAmount",
              "type": "uint256"
            },
            {
              "internalType": "string",
              "name": "materialStrength",
              "type": "string"
            },
            {
              "internalType": "string",
              "name": "materialForm",
              "type": "string"
            }
          ],
          "internalType": "struct NewDemoTest.Specs[]",
          "name": "",
          "type": "tuple[]"
        }
      ],
      "stateMutability": "view",
      "type": "function",
      "constant": true
    },
    {
      "inputs": [
        {
          "internalType": "string",
          "name": "_product",
          "type": "string"
        },
        {
          "internalType": "uint256",
          "name": "_directMatCost",
          "type": "uint256"
        },
        {
          "internalType": "uint256",
          "name": "_pkgMatCost",
          "type": "uint256"
        },
        {
          "internalType": "uint256",
          "name": "_directLaborCost",
          "type": "uint256"
        },
        {
          "internalType": "uint256",
          "name": "_totIndirectCosts",
          "type": "uint256"
        },
        {
          "internalType": "uint256",
          "name": "_mrkCost",
          "type": "uint256"
        },
        {
          "internalType": "uint256",
          "name": "_rsrchCost",
          "type": "uint256"
        },
        {
          "internalType": "uint256",
          "name": "_productBudget",
          "type": "uint256"
        }
      ],
      "name": "setStdCostPlan",
      "outputs": [],
      "stateMutability": "nonpayable",
      "type": "function"
    },
    {
      "inputs": [
        {
          "internalType": "string",
          "name": "_product",
          "type": "string"
        },
        {
          "internalType": "uint256",
          "name": "_budget",
          "type": "uint256"
        }
      ],
      "name": "setProductBudget",
      "outputs": [],
      "stateMutability": "nonpayable",
      "type": "function"
    },
    {
      "inputs": [
        {
          "internalType": "string",
          "name": "_product",
          "type": "string"
        }
      ],
      "name": "getStdCostPlan",
      "outputs": [
        {
          "components": [
            {
              "internalType": "uint256",
              "name": "directMaterialCost",
              "type": "uint256"
            },
            {
              "internalType": "uint256",
              "name": "packagingMaterialCost",
              "type": "uint256"
            },
            {
              "internalType": "uint256",
              "name": "marketingCost",
              "type": "uint256"
            },
            {
              "internalType": "uint256",
              "name": "researchCost",
              "type": "uint256"
            },
            {
              "internalType": "uint256",
              "name": "directLaborCost",
              "type": "uint256"
            },
            {
              "internalType": "uint256",
              "name": "totalIndirectCost",
              "type": "uint256"
            },
            {
              "internalType": "uint256",
              "name": "CostTOT",
              "type": "uint256"
            }
          ],
          "internalType": "struct NewDemoTest.Cost",
          "name": "",
          "type": "tuple"
        }
      ],
      "stateMutability": "view",
      "type": "function",
      "constant": true
    },
    {
      "inputs": [
        {
          "internalType": "string",
          "name": "_product",
          "type": "string"
        },
        {
          "internalType": "uint256",
          "name": "_actualMatCost",
          "type": "uint256"
        },
        {
          "internalType": "uint256",
          "name": "_actualPkgMatCost",
          "type": "uint256"
        },
        {
          "internalType": "uint256",
          "name": "_actualLaborCost",
          "type": "uint256"
        },
        {
          "internalType": "uint256",
          "name": "_actualIndirectCost",
          "type": "uint256"
        },
        {
          "internalType": "uint256",
          "name": "_actualMrkCost",
          "type": "uint256"
        },
        {
          "internalType": "uint256",
          "name": "_actualRsrchCost",
          "type": "uint256"
        }
      ],
      "name": "setActualCost",
      "outputs": [],
      "stateMutability": "nonpayable",
      "type": "function"
    },
    {
      "inputs": [
        {
          "internalType": "string",
          "name": "_product",
          "type": "string"
        }
      ],
      "name": "getActualCost",
      "outputs": [
        {
          "components": [
            {
              "internalType": "uint256",
              "name": "directMaterialCost",
              "type": "uint256"
            },
            {
              "internalType": "uint256",
              "name": "packagingMaterialCost",
              "type": "uint256"
            },
            {
              "internalType": "uint256",
              "name": "marketingCost",
              "type": "uint256"
            },
            {
              "internalType": "uint256",
              "name": "researchCost",
              "type": "uint256"
            },
            {
              "internalType": "uint256",
              "name": "directLaborCost",
              "type": "uint256"
            },
            {
              "internalType": "uint256",
              "name": "totalIndirectCost",
              "type": "uint256"
            },
            {
              "internalType": "uint256",
              "name": "CostTOT",
              "type": "uint256"
            }
          ],
          "internalType": "struct NewDemoTest.Cost",
          "name": "",
          "type": "tuple"
        }
      ],
      "stateMutability": "view",
      "type": "function",
      "constant": true
    },
    {
      "inputs": [
        {
          "internalType": "string",
          "name": "_id",
          "type": "string"
        },
        {
          "internalType": "string",
          "name": "_name",
          "type": "string"
        },
        {
          "internalType": "string",
          "name": "_str",
          "type": "string"
        },
        {
          "internalType": "string",
          "name": "_form",
          "type": "string"
        },
        {
          "internalType": "uint256",
          "name": "_amount",
          "type": "uint256"
        },
        {
          "internalType": "uint256",
          "name": "_unitCost",
          "type": "uint256"
        }
      ],
      "name": "createMaterial",
      "outputs": [],
      "stateMutability": "nonpayable",
      "type": "function"
    },
    {
      "inputs": [
        {
          "internalType": "address",
          "name": "_supplier",
          "type": "address"
        }
      ],
      "name": "getMaterialsBySupplier",
      "outputs": [
        {
          "components": [
            {
              "internalType": "address",
              "name": "supplier",
              "type": "address"
            },
            {
              "internalType": "string",
              "name": "materialID",
              "type": "string"
            },
            {
              "internalType": "string",
              "name": "materialName",
              "type": "string"
            },
            {
              "internalType": "string",
              "name": "materialStrength",
              "type": "string"
            },
            {
              "internalType": "string",
              "name": "materialForm",
              "type": "string"
            },
            {
              "internalType": "uint256",
              "name": "createdAmount",
              "type": "uint256"
            },
            {
              "internalType": "uint256",
              "name": "unitCost",
              "type": "uint256"
            }
          ],
          "internalType": "struct NewDemoTest.Material[]",
          "name": "",
          "type": "tuple[]"
        }
      ],
      "stateMutability": "view",
      "type": "function",
      "constant": true
    },
    {
      "inputs": [
        {
          "internalType": "address",
          "name": "_to",
          "type": "address"
        },
        {
          "internalType": "string",
          "name": "_material",
          "type": "string"
        },
        {
          "internalType": "string",
          "name": "_materialForm",
          "type": "string"
        },
        {
          "internalType": "string",
          "name": "_materialStr",
          "type": "string"
        },
        {
          "internalType": "uint256",
          "name": "_amount",
          "type": "uint256"
        }
      ],
      "name": "createRequest",
      "outputs": [],
      "stateMutability": "nonpayable",
      "type": "function"
    },
    {
      "inputs": [],
      "name": "getMyRequests",
      "outputs": [
        {
          "components": [
            {
              "internalType": "uint256",
              "name": "requestId",
              "type": "uint256"
            },
            {
              "internalType": "address",
              "name": "fromParti",
              "type": "address"
            },
            {
              "internalType": "address",
              "name": "toParti",
              "type": "address"
            },
            {
              "internalType": "string",
              "name": "materialName",
              "type": "string"
            },
            {
              "internalType": "string",
              "name": "materialForm",
              "type": "string"
            },
            {
              "internalType": "string",
              "name": "materialStrength",
              "type": "string"
            },
            {
              "internalType": "uint256",
              "name": "amount",
              "type": "uint256"
            },
            {
              "internalType": "uint256",
              "name": "issueTime",
              "type": "uint256"
            }
          ],
          "internalType": "struct NewDemoTest.Request[]",
          "name": "",
          "type": "tuple[]"
        }
      ],
      "stateMutability": "view",
      "type": "function",
      "constant": true
    },
    {
      "inputs": [
        {
          "internalType": "address",
          "name": "_participant",
          "type": "address"
        }
      ],
      "name": "getRequestByAddress",
      "outputs": [
        {
          "components": [
            {
              "internalType": "uint256",
              "name": "requestId",
              "type": "uint256"
            },
            {
              "internalType": "address",
              "name": "fromParti",
              "type": "address"
            },
            {
              "internalType": "address",
              "name": "toParti",
              "type": "address"
            },
            {
              "internalType": "string",
              "name": "materialName",
              "type": "string"
            },
            {
              "internalType": "string",
              "name": "materialForm",
              "type": "string"
            },
            {
              "internalType": "string",
              "name": "materialStrength",
              "type": "string"
            },
            {
              "internalType": "uint256",
              "name": "amount",
              "type": "uint256"
            },
            {
              "internalType": "uint256",
              "name": "issueTime",
              "type": "uint256"
            }
          ],
          "internalType": "struct NewDemoTest.Request[]",
          "name": "",
          "type": "tuple[]"
        }
      ],
      "stateMutability": "view",
      "type": "function",
      "constant": true
    },
    {
      "inputs": [
        {
          "internalType": "address payable",
          "name": "_addr",
          "type": "address"
        }
      ],
      "name": "setAsBank",
      "outputs": [],
      "stateMutability": "nonpayable",
      "type": "function"
    },
    {
      "inputs": [],
      "name": "getBank",
      "outputs": [
        {
          "internalType": "address",
          "name": "",
          "type": "address"
        }
      ],
      "stateMutability": "view",
      "type": "function",
      "constant": true
    },
    {
      "inputs": [
        {
          "internalType": "address",
          "name": "_userAddr",
          "type": "address"
        },
        {
          "internalType": "string",
          "name": "_userName",
          "type": "string"
        }
      ],
      "name": "createBankAccount",
      "outputs": [],
      "stateMutability": "nonpayable",
      "type": "function"
    },
    {
      "inputs": [
        {
          "internalType": "string",
          "name": "_userName",
          "type": "string"
        }
      ],
      "name": "selfCreateBankAccount",
      "outputs": [],
      "stateMutability": "nonpayable",
      "type": "function"
    },
    {
      "inputs": [
        {
          "internalType": "address",
          "name": "_userAddr",
          "type": "address"
        }
      ],
      "name": "hasBankAccount",
      "outputs": [
        {
          "internalType": "bool",
          "name": "",
          "type": "bool"
        }
      ],
      "stateMutability": "view",
      "type": "function",
      "constant": true
    },
    {
      "inputs": [
        {
          "internalType": "address",
          "name": "_userAddr",
          "type": "address"
        },
        {
          "internalType": "uint256",
          "name": "_amount",
          "type": "uint256"
        }
      ],
      "name": "deposit",
      "outputs": [
        {
          "internalType": "bool",
          "name": "",
          "type": "bool"
        }
      ],
      "stateMutability": "nonpayable",
      "type": "function"
    },
    {
      "inputs": [
        {
          "internalType": "uint256",
          "name": "_amount",
          "type": "uint256"
        }
      ],
      "name": "selfDeposit",
      "outputs": [
        {
          "internalType": "bool",
          "name": "",
          "type": "bool"
        }
      ],
      "stateMutability": "nonpayable",
      "type": "function"
    },
    {
      "inputs": [
        {
          "internalType": "address",
          "name": "_userAddr",
          "type": "address"
        },
        {
          "internalType": "uint256",
          "name": "_amount",
          "type": "uint256"
        }
      ],
      "name": "withdraw",
      "outputs": [
        {
          "internalType": "bool",
          "name": "",
          "type": "bool"
        }
      ],
      "stateMutability": "nonpayable",
      "type": "function"
    },
    {
      "inputs": [
        {
          "internalType": "uint256",
          "name": "_amount",
          "type": "uint256"
        }
      ],
      "name": "selfWithdraw",
      "outputs": [
        {
          "internalType": "bool",
          "name": "",
          "type": "bool"
        }
      ],
      "stateMutability": "nonpayable",
      "type": "function"
    },
    {
      "inputs": [
        {
          "internalType": "address",
          "name": "_userAddr",
          "type": "address"
        }
      ],
      "name": "getBalance",
      "outputs": [
        {
          "internalType": "uint256",
          "name": "x",
          "type": "uint256"
        }
      ],
      "stateMutability": "view",
      "type": "function",
      "constant": true
    },
    {
      "inputs": [],
      "name": "selfGetBalance",
      "outputs": [
        {
          "internalType": "uint256",
          "name": "x",
          "type": "uint256"
        }
      ],
      "stateMutability": "view",
      "type": "function",
      "constant": true
    },
    {
      "inputs": [
        {
          "internalType": "address",
          "name": "_from",
          "type": "address"
        },
        {
          "internalType": "address",
          "name": "_to",
          "type": "address"
        },
        {
          "internalType": "uint256",
          "name": "_amount",
          "type": "uint256"
        }
      ],
      "name": "transfer",
      "outputs": [
        {
          "internalType": "bool",
          "name": "",
          "type": "bool"
        }
      ],
      "stateMutability": "nonpayable",
      "type": "function"
    },
    {
      "inputs": [
        {
          "internalType": "address",
          "name": "_to",
          "type": "address"
        },
        {
          "internalType": "uint256",
          "name": "_amount",
          "type": "uint256"
        }
      ],
      "name": "selfTransfer",
      "outputs": [
        {
          "internalType": "bool",
          "name": "",
          "type": "bool"
        }
      ],
      "stateMutability": "nonpayable",
      "type": "function"
    },
    {
      "inputs": [
        {
          "internalType": "address",
          "name": "_account",
          "type": "address"
        }
      ],
      "name": "getAccountDetails",
      "outputs": [
        {
          "components": [
            {
              "internalType": "address",
              "name": "userId",
              "type": "address"
            },
            {
              "internalType": "string",
              "name": "userName",
              "type": "string"
            },
            {
              "internalType": "uint256",
              "name": "userBalance",
              "type": "uint256"
            },
            {
              "internalType": "bool",
              "name": "isActive",
              "type": "bool"
            }
          ],
          "internalType": "struct NewDemoTest.BankAccount",
          "name": "",
          "type": "tuple"
        }
      ],
      "stateMutability": "view",
      "type": "function",
      "constant": true
    },
    {
      "inputs": [],
      "name": "selfGetAccountDetails",
      "outputs": [
        {
          "components": [
            {
              "internalType": "address",
              "name": "userId",
              "type": "address"
            },
            {
              "internalType": "string",
              "name": "userName",
              "type": "string"
            },
            {
              "internalType": "uint256",
              "name": "userBalance",
              "type": "uint256"
            },
            {
              "internalType": "bool",
              "name": "isActive",
              "type": "bool"
            }
          ],
          "internalType": "struct NewDemoTest.BankAccount",
          "name": "",
          "type": "tuple"
        }
      ],
      "stateMutability": "view",
      "type": "function",
      "constant": true
    },
    {
      "inputs": [
        {
          "internalType": "uint256",
          "name": "_requestId",
          "type": "uint256"
        },
        {
          "internalType": "string",
          "name": "_shipStatus",
          "type": "string"
        },
        {
          "internalType": "string",
          "name": "_currentTemp",
          "type": "string"
        },
        {
          "internalType": "string",
          "name": "_currentHumid",
          "type": "string"
        },
        {
          "internalType": "string",
          "name": "_materialStatus",
          "type": "string"
        }
      ],
      "name": "createLog",
      "outputs": [],
      "stateMutability": "nonpayable",
      "type": "function"
    },
    {
      "inputs": [
        {
          "internalType": "uint256",
          "name": "_request",
          "type": "uint256"
        }
      ],
      "name": "getTrackLogs",
      "outputs": [
        {
          "components": [
            {
              "internalType": "string",
              "name": "shipStatus",
              "type": "string"
            },
            {
              "internalType": "string",
              "name": "currentTemp",
              "type": "string"
            },
            {
              "internalType": "string",
              "name": "currentHumidity",
              "type": "string"
            },
            {
              "internalType": "string",
              "name": "materialStatus",
              "type": "string"
            },
            {
              "internalType": "uint256",
              "name": "logTime",
              "type": "uint256"
            }
          ],
          "internalType": "struct NewDemoTest.Log[]",
          "name": "",
          "type": "tuple[]"
        }
      ],
      "stateMutability": "view",
      "type": "function",
      "constant": true
    }
  ],
  "bytecode": "0x6080604052600060025534801561001557600080fd5b5061389f806100256000396000f3fe608060405234801561001057600080fd5b506004361061021c5760003560e01c8063643a7695116101255780639d102329116100ad578063f3fef3a31161007c578063f3fef3a3146104e2578063f583736d146104f5578063f8b2cb4f14610508578063fb3684fb1461051b578063fd91dcca1461052e5761021c565b80639d10232914610489578063beabacc81461049c578063de67ef8a146104af578063eda953f2146104cf5761021c565b80636fe57a77116100f45780636fe57a771461042657806379b5e182146104465780637f5cf16e1461044e5780638a515a561461046e57806391eace8b146104815761021c565b8063643a7695146103c75780636cc8c6a8146103da5780636eac3eb8146104005780636f2e836a146104135761021c565b80632b743578116101a857806347e7ef241161017757806347e7ef24146103595780634a0d37a2146103795780635280ae1d1461038c57806359c8351f1461039f57806360d704db146103b25761021c565b80632b7435781461030d5780632fc819161461032057806343a6785b14610333578063477dec5d146103465761021c565b80630e34b00e116101ef5780630e34b00e1461029257806312917b8e146102a55780631fa91673146102c55780632a22f0fc146102d85780632aceb534146102ed5761021c565b806306177b4e14610221578063082800931461024a578063096a71e21461025f5780630afad95e1461027f575b600080fd5b61023461022f366004612baa565b610541565b6040516102419190613352565b60405180910390f35b61025d610258366004612fc2565b61082e565b005b61027261026d366004612d1e565b610934565b60405161024191906137cd565b61025d61028d366004613005565b6109b2565b61025d6102a0366004612db0565b610a64565b6102b86102b33660046130e6565b610b3c565b604051610241919061328e565b61025d6102d3366004612d1e565b610e04565b6102e0610e11565b604051610241919061381b565b6103006102fb366004612baa565b610e21565b604051610241919061377d565b61025d61031b366004612c54565b610f1c565b61025d61032e366004612c06565b611041565b61025d6103413660046130fe565b6110ea565b61025d610354366004612baa565b6111bc565b61036c610367366004612cf3565b6111de565b6040516102419190613666565b61025d610387366004612f08565b61127e565b61036c61039a366004612baa565b61154c565b61036c6103ad366004612d59565b611592565b6103ba6115eb565b6040516102419190613205565b61025d6103d5366004612baa565b6115fa565b6103ed6103e83660046130e6565b61161e565b6040516102419796959493929190613219565b61027261040e366004612d1e565b6118a3565b61036c6104213660046130e6565b6118bb565b610439610434366004612baa565b6118c7565b60405161024191906134d8565b610300611b25565b61046161045c366004612d1e565b611c1d565b60405161024191906135b0565b61036c61047c366004612cf3565b611ef3565b61043961200d565b61036c6104973660046130e6565b61226b565b61036c6104aa366004612bc6565b612277565b6104c26104bd366004612baa565b6123a5565b6040516102419190613427565b61036c6104dd366004612baa565b6125e8565b61036c6104f0366004612cf3565b612606565b61025d610503366004612baa565b6126bf565b6102e0610516366004612baa565b6126e0565b61025d610529366004613071565b612748565b61025d61053c366004612e34565b612805565b6001600160a01b0381166000908152600660209081526040808320805482518185028101850190935280835260609492939192909184015b828210156108225760008481526020908190206040805160e0810182526007860290920180546001600160a01b03168352600180820180548451600261010094831615949094026000190190911692909204601f81018790048702830187019094528382529394919385830193919290919083018282801561063c5780601f106106115761010080835404028352916020019161063c565b820191906000526020600020905b81548152906001019060200180831161061f57829003601f168201915b5050509183525050600282810180546040805160206001841615610100026000190190931694909404601f810183900483028501830190915280845293810193908301828280156106ce5780601f106106a3576101008083540402835291602001916106ce565b820191906000526020600020905b8154815290600101906020018083116106b157829003601f168201915b505050918352505060038201805460408051602060026001851615610100026000190190941693909304601f81018490048402820184019092528181529382019392918301828280156107625780601f1061073757610100808354040283529160200191610762565b820191906000526020600020905b81548152906001019060200180831161074557829003601f168201915b505050918352505060048201805460408051602060026001851615610100026000190190941693909304601f81018490048402820184019092528181529382019392918301828280156107f65780601f106107cb576101008083540402835291602001916107f6565b820191906000526020600020905b8154815290600101906020018083116107d957829003601f168201915b505050505081526020016005820154815260200160068201548152505081526020019060010190610579565b5050505090505b919050565b33600090815260046020526040812080546108fb9285929161084c57fe5b90600052602060002090600502016001018054600181600116156101000203166002900480601f0160208091040260200160405190810160405280929190818152602001828054600181600116156101000203166002900480156108f15780601f106108c6576101008083540402835291602001916108f1565b820191906000526020600020905b8154815290600101906020018083116108d457829003601f168201915b5050505050611592565b1561093057336000908152600460205260408120805483929061091a57fe5b9060005260206000209060050201600401819055505b5050565b61093c6128ec565b600b8260405161094c91906131e9565b90815260200160405180910390206040518060e00160405290816000820154815260200160018201548152602001600282015481526020016003820154815260200160048201548152602001600582015481526020016006820154815250509050919050565b6109ba6128ec565b6040518060e00160405280888152602001878152602001848152602001838152602001868152602001858152602001838587898b8d0101010101815250905080600b89604051610a0a91906131e9565b9081526040805160209281900383019020835181559183015160018301558201516002820155606082015160038201556080820151600482015560a0820151600582015560c0909101516006909101555050505050505050565b610a6c612929565b506040805160a081018252338082526020808301878152838501879052606084018690526000608085018190529283526004825293822080546001808201835591845292829020845160059094020180546001600160a01b0319166001600160a01b039094169390931783559351805193948594610af1939185019290910190612961565b5060408201518051610b0d916002840191602090910190612961565b5060608201518051610b29916003840191602090910190612961565b5060808201518160040155505050505050565b606060096000838152602001908152602001600020805480602002602001604051908101604052809291908181526020016000905b828210156108225760008481526020908190206040805160058602909201805460026001821615610100026000190190911604601f8101859004909402830160c090810190925260a0830184815292939092849290918491840182828015610c1a5780601f10610bef57610100808354040283529160200191610c1a565b820191906000526020600020905b815481529060010190602001808311610bfd57829003601f168201915b50505050508152602001600182018054600181600116156101000203166002900480601f016020809104026020016040519081016040528092919081815260200182805460018160011615610100020316600290048015610cbc5780601f10610c9157610100808354040283529160200191610cbc565b820191906000526020600020905b815481529060010190602001808311610c9f57829003601f168201915b5050509183525050600282810180546040805160206001841615610100026000190190931694909404601f81018390048302850183019091528084529381019390830182828015610d4e5780601f10610d2357610100808354040283529160200191610d4e565b820191906000526020600020905b815481529060010190602001808311610d3157829003601f168201915b505050918352505060038201805460408051602060026001851615610100026000190190941693909304601f8101849004840282018401909252818152938201939291830182828015610de25780601f10610db757610100808354040283529160200191610de2565b820191906000526020600020905b815481529060010190602001808311610dc557829003601f168201915b5050505050815260200160048201548152505081526020019060010190610b71565b610e0e3382611041565b50565b6000610e1c336126e0565b905090565b610e296129ed565b600180546001600160a01b039081166000908152600d60209081526040808320878516845282529182902082516080810184528154909416845280850180548451600261010098831615989098026000190190911696909604601f810184900484028701840190945283865293949093858301939192909190830182828015610ef35780601f10610ec857610100808354040283529160200191610ef3565b820191906000526020600020905b815481529060010190602001808311610ed657829003601f168201915b50505091835250506002820154602082015260039091015460ff16151560409091015292915050565b600280546001019055610f2d612a20565b5060408051610100810182526002805482523360208084018281526001600160a01b038b8116868801908152606087018c8152608088018c905260a088018b905260c088018a90524260e08901526000958652600880865298862080546001818101835591885296869020895197909a02909901958655925197850180549883166001600160a01b0319998a161790555194840180549590911694909616939093179094559051805192938493610fea9260038501920190612961565b5060808201518051611006916004840191602090910190612961565b5060a08201518051611022916005840191602090910190612961565b5060c0820151816006015560e082015181600701555050505050505050565b6110496129ed565b50604080516080810182526001600160a01b0384811680835260208084018681526000858701819052600160608701819052805486168252600d845287822094825293835295909520845181546001600160a01b031916941693909317835593518051939485946110c09385019290910190612961565b50604082015160028201556060909101516003909101805460ff1916911515919091179055505050565b6110f2612a77565b506040805160a081018252858152602080820186905281830185905260608201849052426080830152600088815260098252928320805460018101825590845292819020825180519394859460059091029092019261115692849290910190612961565b50602082810151805161116f9260018501920190612961565b506040820151805161118b916002840191602090910190612961565b50606082015180516111a7916003840191602090910190612961565b50608082015181600401555050505050505050565b600180546001600160a01b0319166001600160a01b0392909216919091179055565b60008082116112085760405162461bcd60e51b81526004016111ff90613671565b60405180910390fd5b6001546001600160a01b039081166000908152600d6020908152604080832084881680855292529091205490911614156112745750600180546001600160a01b039081166000908152600d60209081526040808320938716835292905220600201805483019055611278565b5060005b92915050565b611286612aa6565b506040805160e0810182523380825260208083018a81528385018a9052606084018990526080840188905260a0840187905260c0840186905260009283526006825293822080546001808201835591845292829020845160079094020180546001600160a01b0319166001600160a01b039094169390931783559351805193948594611319939185019290910190612961565b5060408201518051611335916002840191602090910190612961565b5060608201518051611351916003840191602090910190612961565b506080820151805161136d916004840191602090910190612961565b5060a0820151816005015560c0820151816006015550508060078760405161139591906131e9565b90815260405160209181900382019020825181546001600160a01b0319166001600160a01b0390911617815582820151805191926113db92600185019290910190612961565b50604082015180516113f7916002840191602090910190612961565b5060608201518051611413916003840191602090910190612961565b506080820151805161142f916004840191602090910190612961565b5060a0820151600582015560c090910151600690910155600e805460018101825560009190915281517fbb7b4a454dc3493923482f07822329ed19e8244eff582cc204f8554c3620c3fd600790920291820180546001600160a01b0319166001600160a01b03909216919091178155602080840151805185946114d8937fbb7b4a454dc3493923482f07822329ed19e8244eff582cc204f8554c3620c3fe909101920190612961565b50604082015180516114f4916002840191602090910190612961565b5060608201518051611510916003840191602090910190612961565b506080820151805161152c916004840191602090910190612961565b5060a0820151816005015560c08201518160060155505050505050505050565b6001546001600160a01b039081166000908152600d6020908152604080832093851683529290529081206003015460ff161561158a57506001610829565b506000610829565b6000816040516020016115a591906131e9565b60405160208183030381529060405280519060200120836040516020016115cc91906131e9565b6040516020818303038152906040528051906020012014905092915050565b6001546001600160a01b031690565b6001600160a01b03166000908152600360205260409020805460ff19166001179055565b600e818154811061162e57600080fd5b600091825260209182902060079091020180546001808301805460408051601f60026000199685161561010002969096019093169490940491820187900487028401870190528083526001600160a01b0390931695509293909291908301828280156116db5780601f106116b0576101008083540402835291602001916116db565b820191906000526020600020905b8154815290600101906020018083116116be57829003601f168201915b50505060028085018054604080516020601f600019610100600187161502019094169590950492830185900485028101850190915281815295969594509092509083018282801561176d5780601f106117425761010080835404028352916020019161176d565b820191906000526020600020905b81548152906001019060200180831161175057829003601f168201915b5050505060038301805460408051602060026001851615610100026000190190941693909304601f81018490048402820184019092528181529495949350908301828280156117fd5780601f106117d2576101008083540402835291602001916117fd565b820191906000526020600020905b8154815290600101906020018083116117e057829003601f168201915b5050505060048301805460408051602060026001851615610100026000190190941693909304601f810184900484028201840190925281815294959493509083018282801561188d5780601f106118625761010080835404028352916020019161188d565b820191906000526020600020905b81548152906001019060200180831161187057829003601f168201915b5050505050908060050154908060060154905087565b6118ab6128ec565b600a8260405161094c91906131e9565b60006112783383612606565b6001600160a01b0381166000908152600860209081526040808320805482518185028101850190935280835260609492939192909184015b8282101561082257600084815260209081902060408051610100808201835260088702909301805482526001808201546001600160a01b0390811684880152600280840154909116848601526003830180548651938116159097026000190190961604601f810187900487028201870190945283815291949093606086019390918301828280156119d15780601f106119a6576101008083540402835291602001916119d1565b820191906000526020600020905b8154815290600101906020018083116119b457829003601f168201915b505050918352505060048201805460408051602060026001851615610100026000190190941693909304601f8101849004840282018401909252818152938201939291830182828015611a655780601f10611a3a57610100808354040283529160200191611a65565b820191906000526020600020905b815481529060010190602001808311611a4857829003601f168201915b505050918352505060058201805460408051602060026001851615610100026000190190941693909304601f8101849004840282018401909252818152938201939291830182828015611af95780601f10611ace57610100808354040283529160200191611af9565b820191906000526020600020905b815481529060010190602001808311611adc57829003601f168201915b5050505050815260200160068201548152602001600782015481525050815260200190600101906118ff565b611b2d6129ed565b600180546001600160a01b039081166000908152600d6020908152604080832033845282529182902082516080810184528154909416845280850180548451600261010098831615989098026000190190911696909604601f810184900484028701840190945283865293949093858301939192909190830182828015611bf55780601f10611bca57610100808354040283529160200191611bf5565b820191906000526020600020905b815481529060010190602001808311611bd857829003601f168201915b50505091835250506002820154602082015260039091015460ff161515604090910152905090565b6060600582604051611c2f91906131e9565b9081526020016040518091039020805480602002602001604051908101604052809291908181526020016000905b828210156108225760008481526020908190206040805160058602909201805460026001821615610100026000190190911604601f8101859004909402830160c090810190925260a0830184815292939092849290918491840182828015611d065780601f10611cdb57610100808354040283529160200191611d06565b820191906000526020600020905b815481529060010190602001808311611ce957829003601f168201915b50505050508152602001600182018054600181600116156101000203166002900480601f016020809104026020016040519081016040528092919081815260200182805460018160011615610100020316600290048015611da85780601f10611d7d57610100808354040283529160200191611da8565b820191906000526020600020905b815481529060010190602001808311611d8b57829003601f168201915b505050918352505060028281015460208084019190915260038401805460408051601f60001961010060018616150201909316959095049182018490048402850184018152818552909401939091830182828015611e475780601f10611e1c57610100808354040283529160200191611e47565b820191906000526020600020905b815481529060010190602001808311611e2a57829003601f168201915b505050918352505060048201805460408051602060026001851615610100026000190190941693909304601f8101849004840282018401909252818152938201939291830182828015611edb5780601f10611eb057610100808354040283529160200191611edb565b820191906000526020600020905b815481529060010190602001808311611ebe57829003601f168201915b50505050508152505081526020019060010190611c5d565b6001546001600160a01b03166000908152600d60209081526040808320338452909152812060020154821115611f3b5760405162461bcd60e51b81526004016111ff90613720565b6001546001600160a01b039081166000908152600d6020908152604080832033808552925290912054909116148015611fa35750600180546001600160a01b039081166000908152600d602090815260408083209388168352929052206003015460ff161515145b156112745750600180546001600160a01b039081166000908152600d602081815260408084203385528252808420600290810180548a8816808852848820840154918b90039092558854909716865293835281852093855292909152909120918401910155611278565b336000908152600860209081526040808320805482518185028101850190935280835260609492939192909184015b8282101561226257600084815260209081902060408051610100808201835260088702909301805482526001808201546001600160a01b0390811684880152600280840154909116848601526003830180548651938116159097026000190190961604601f8101879004870282018701909452838152919490936060860193909183018282801561210e5780601f106120e35761010080835404028352916020019161210e565b820191906000526020600020905b8154815290600101906020018083116120f157829003601f168201915b505050918352505060048201805460408051602060026001851615610100026000190190941693909304601f81018490048402820184019092528181529382019392918301828280156121a25780601f10612177576101008083540402835291602001916121a2565b820191906000526020600020905b81548152906001019060200180831161218557829003601f168201915b505050918352505060058201805460408051602060026001851615610100026000190190941693909304601f81018490048402820184019092528181529382019392918301828280156122365780601f1061220b57610100808354040283529160200191612236565b820191906000526020600020905b81548152906001019060200180831161221957829003601f168201915b50505050508152602001600682015481526020016007820154815250508152602001906001019061203c565b50505050905090565b600061127833836111de565b6001546001600160a01b039081166000908152600d602090815260408083209387168352929052908120600201548211156122c45760405162461bcd60e51b81526004016111ff906136a8565b6001546001600160a01b039081166000908152600d6020908152604080832084891680855292529091205490911614801561232e5750600180546001600160a01b039081166000908152600d602090815260408083209388168352929052206003015460ff161515145b1561239a5750600180546001600160a01b039081166000908152600d6020818152604080842089861685528252808420600290810180548a8816808852848820840154918b9003909255885490971686529383528185209385529290915290912091840191015561239e565b5060005b9392505050565b6001600160a01b0381166000908152600460209081526040808320805482518185028101850190935280835260609492939192909184015b828210156108225760008481526020908190206040805160a0810182526005860290920180546001600160a01b03168352600180820180548451600261010094831615949094026000190190911692909204601f8101879004870283018701909452838252939491938583019391929091908301828280156124a05780601f10612475576101008083540402835291602001916124a0565b820191906000526020600020905b81548152906001019060200180831161248357829003601f168201915b5050509183525050600282810180546040805160206001841615610100026000190190931694909404601f810183900483028501830190915280845293810193908301828280156125325780601f1061250757610100808354040283529160200191612532565b820191906000526020600020905b81548152906001019060200180831161251557829003601f168201915b505050918352505060038201805460408051602060026001851615610100026000190190941693909304601f81018490048402820184019092528181529382019392918301828280156125c65780601f1061259b576101008083540402835291602001916125c6565b820191906000526020600020905b8154815290600101906020018083116125a957829003601f168201915b50505050508152602001600482015481525050815260200190600101906123dd565b6001600160a01b031660009081526003602052604090205460ff1690565b6001546001600160a01b039081166000908152600d6020908152604080832093861683529290529081206002015482106126525760405162461bcd60e51b81526004016111ff906136f3565b6001546001600160a01b039081166000908152600d6020908152604080832084881680855292529091205490911614156112745750600180546001600160a01b039081166000908152600d6020908152604080832093871683529290522060020180548390039055611278565b6001600160a01b03166000908152600360205260409020805460ff19169055565b6001546001600160a01b039081166000908152600d602090815260408083208486168085529252822054919291909116141561082957506001546001600160a01b039081166000908152600d6020908152604080832093851683529290522060020154610829565b6127506128ec565b6040518060e001604052808981526020018881526020018581526020018481526020018781526020018681526020018486888a8c8e0101010101815250905080600a8a6040516127a091906131e9565b9081526040805160209281900383019020835181559183015160018301558201516002820155606082015160038201556080820151600482015560a0820151600582015560c0909101516006909101556127fa898361082e565b505050505050505050565b61280d612aec565b6040518060a0016040528087815260200186815260200183815260200185815260200184815250905060058760405161284691906131e9565b90815260405160209181900382019020805460018101825560009182529082902083518051859460059094029092019261288592849290910190612961565b50602082810151805161289e9260018501920190612961565b5060408201516002820155606082015180516128c4916003840191602090910190612961565b50608082015180516128e0916004840191602090910190612961565b50505050505050505050565b6040518060e00160405280600081526020016000815260200160008152602001600081526020016000815260200160008152602001600081525090565b6040518060a0016040528060006001600160a01b03168152602001606081526020016060815260200160608152602001600081525090565b828054600181600116156101000203166002900490600052602060002090601f01602090048101928261299757600085556129dd565b82601f106129b057805160ff19168380011785556129dd565b828001600101855582156129dd579182015b828111156129dd5782518255916020019190600101906129c2565b506129e9929150612b1b565b5090565b604051806080016040528060006001600160a01b0316815260200160608152602001600081526020016000151581525090565b6040518061010001604052806000815260200160006001600160a01b0316815260200160006001600160a01b0316815260200160608152602001606081526020016060815260200160008152602001600081525090565b6040518060a0016040528060608152602001606081526020016060815260200160608152602001600081525090565b6040518060e0016040528060006001600160a01b031681526020016060815260200160608152602001606081526020016060815260200160008152602001600081525090565b6040518060a0016040528060608152602001606081526020016000815260200160608152602001606081525090565b5b808211156129e95760008155600101612b1c565b600082601f830112612b40578081fd5b813567ffffffffffffffff80821115612b5557fe5b604051601f8301601f191681016020018281118282101715612b7357fe5b604052828152925082848301602001861015612b8e57600080fd5b8260208601602083013760006020848301015250505092915050565b600060208284031215612bbb578081fd5b813561239e81613854565b600080600060608486031215612bda578182fd5b8335612be581613854565b92506020840135612bf581613854565b929592945050506040919091013590565b60008060408385031215612c18578182fd5b8235612c2381613854565b9150602083013567ffffffffffffffff811115612c3e578182fd5b612c4a85828601612b30565b9150509250929050565b600080600080600060a08688031215612c6b578081fd5b8535612c7681613854565b9450602086013567ffffffffffffffff80821115612c92578283fd5b612c9e89838a01612b30565b95506040880135915080821115612cb3578283fd5b612cbf89838a01612b30565b94506060880135915080821115612cd4578283fd5b50612ce188828901612b30565b95989497509295608001359392505050565b60008060408385031215612d05578182fd5b8235612d1081613854565b946020939093013593505050565b600060208284031215612d2f578081fd5b813567ffffffffffffffff811115612d45578182fd5b612d5184828501612b30565b949350505050565b60008060408385031215612d6b578182fd5b823567ffffffffffffffff80821115612d82578384fd5b612d8e86838701612b30565b93506020850135915080821115612da3578283fd5b50612c4a85828601612b30565b600080600060608486031215612dc4578283fd5b833567ffffffffffffffff80821115612ddb578485fd5b612de787838801612b30565b94506020860135915080821115612dfc578384fd5b612e0887838801612b30565b93506040860135915080821115612e1d578283fd5b50612e2a86828701612b30565b9150509250925092565b60008060008060008060c08789031215612e4c578081fd5b863567ffffffffffffffff80821115612e63578283fd5b612e6f8a838b01612b30565b97506020890135915080821115612e84578283fd5b612e908a838b01612b30565b96506040890135915080821115612ea5578283fd5b612eb18a838b01612b30565b95506060890135915080821115612ec6578283fd5b612ed28a838b01612b30565b94506080890135915080821115612ee7578283fd5b50612ef489828a01612b30565b92505060a087013590509295509295509295565b60008060008060008060c08789031215612f20578182fd5b863567ffffffffffffffff80821115612f37578384fd5b612f438a838b01612b30565b97506020890135915080821115612f58578384fd5b612f648a838b01612b30565b96506040890135915080821115612f79578384fd5b612f858a838b01612b30565b95506060890135915080821115612f9a578384fd5b50612fa789828a01612b30565b9350506080870135915060a087013590509295509295509295565b60008060408385031215612fd4578182fd5b823567ffffffffffffffff811115612fea578283fd5b612ff685828601612b30565b95602094909401359450505050565b600080600080600080600060e0888a03121561301f578081fd5b873567ffffffffffffffff811115613035578182fd5b6130418a828b01612b30565b9a60208a01359a5060408a013599606081013599506080810135985060a0810135975060c0013595509350505050565b600080600080600080600080610100898b03121561308d578182fd5b883567ffffffffffffffff8111156130a3578283fd5b6130af8b828c01612b30565b9b60208b01359b5060408b01359a60608101359a506080810135995060a0810135985060c0810135975060e0013595509350505050565b6000602082840312156130f7578081fd5b5035919050565b600080600080600060a08688031215613115578283fd5b85359450602086013567ffffffffffffffff80821115613133578485fd5b61313f89838a01612b30565b95506040880135915080821115613154578485fd5b61316089838a01612b30565b94506060880135915080821115613175578283fd5b61318189838a01612b30565b93506080880135915080821115613196578283fd5b506131a388828901612b30565b9150509295509295909350565b6001600160a01b03169052565b600081518084526131d5816020860160208601613824565b601f01601f19169290920160200192915050565b600082516131fb818460208701613824565b9190910192915050565b6001600160a01b0391909116815260200190565b6001600160a01b038816815260e06020820181905260009061323d908301896131bd565b828103604084015261324f81896131bd565b9050828103606084015261326381886131bd565b9050828103608084015261327781876131bd565b60a0840195909552505060c0015295945050505050565b60208082528251828201819052600091906040908185019080840286018301878501865b8381101561334457603f19898403018552815160a081518186526132d8828701826131bd565b915050888201518582038a8701526132f082826131bd565b915050878201518582038987015261330882826131bd565b9150506060808301518683038288015261332283826131bd565b60809485015197909401969096525050948701949250908601906001016132b2565b509098975050505050505050565b60208082528251828201819052600091906040908185019080840286018301878501865b8381101561334457888303603f19018552815180516001600160a01b031684528781015160e0898601819052906133af828701826131bd565b91505087820151858203898701526133c782826131bd565b915050606080830151868303828801526133e183826131bd565b92505050608080830151868303828801526133fc83826131bd565b60a0858101519089015260c09485015194909701939093525050509386019390860190600101613376565b60208082528251828201819052600091906040908185019080840286018301878501865b8381101561334457888303603f19018552815180516001600160a01b031684528781015160a089860181905290613484828701826131bd565b915050878201518582038987015261349c82826131bd565b915050606080830151868303828801526134b683826131bd565b608094850151979094019690965250509487019492509086019060010161344b565b60208082528251828201819052600091906040908185019080840286018301878501865b8381101561334457603f19898403018552815161010081518552888201516135268a8701826131b0565b5087820151613537898701826131b0565b50606080830151828288015261354f838801826131bd565b925050506080808301518683038288015261356a83826131bd565b9250505060a0808301518683038288015261358583826131bd565b60c0858101519089015260e094850151949097019390935250505093860193908601906001016134fc565b60208082528251828201819052600091906040908185019080840286018301878501865b8381101561334457603f19898403018552815160a081518186526135fa828701826131bd565b915050888201518582038a87015261361282826131bd565b91505087820151888601526060808301518683038288015261363483826131bd565b925050506080808301519250858203818701525061365281836131bd565b9689019694505050908601906001016135d4565b901515815260200190565b6020808252601d908201527f456e74657220412056616c6964204465706f73697420416d6f756e7421000000604082015260600190565b6020808252602b908201527f4e6f7420456e6f7567682042616c616e636520746f205472616e73666572205460408201526a68697320416d6f756e742160a81b606082015260800190565b6020808252601390820152724e6f7420456e6f7567682042616c616e63652160681b604082015260600190565b60208082526037908201527f596f7520446f204e6f74204861766520456e6f7567682042616c616e6365207460408201527f6f205472616e73666572205468697320416d6f756e7421000000000000000000606082015260800190565b602080825282516001600160a01b031682820152820151608060408301526000906137ab60a08401826131bd565b9050604084015160608401526060840151151560808401528091505092915050565b600060e082019050825182526020830151602083015260408301516040830152606083015160608301526080830151608083015260a083015160a083015260c083015160c083015292915050565b90815260200190565b60005b8381101561383f578181015183820152602001613827565b8381111561384e576000848401525b50505050565b6001600160a01b0381168114610e0e57600080fdfea2646970667358221220c36caedf6ff8bc98d544b98995ddad7439a3045cc6d196732c227b29949c696264736f6c63430007040033",
  "immutableReferences": {},
  "source": "/*\n    THIS CONTRACT IMPLEMENTATION ALLOWS A USER TO:\n    \n    1- Add products with their specs. (manufacturer)\n    2- Create materials. (suppplier).\n    3- Request materials from suppliers. (manufacturer)\n    4- Track requests status. (manufacturer)\n*/\n\n\n// \"SPDX-License-Identifier: UNLICENSED\"\npragma solidity >=0.6.2;\npragma experimental ABIEncoderV2;  \n\ncontract NewDemoTest {\n    \n    // UTILS\n    \n    function strComp(string memory x , string memory y ) public pure returns (bool){\n        \n        return (keccak256(abi.encodePacked((x))) == keccak256(abi.encodePacked((y))));\n        \n    }\n    \n    \n    address admin;\n    address payable bank;\n    uint    requestCount = 0;\n    enum    Role                     {MANUFACTURER, SUPPLIER, DISTRIBUTOR, DRUG_AUTHORITY , BANK}\n    mapping (address => bool)        participants;\n    mapping (address => Product[])   products;    // manufacturer and product\n    mapping (string => Specs[])      productSpecs; // productID and material  \n    mapping (address => Material[])  materials;   //Participant(supplier) and material\n    mapping (string => Material)     materialList; // materials by name\n    mapping (address => Request[])   requests;   // participant and requests\n    mapping (uint => Log[])          trackLogs; //requestId and Log\n    mapping (string => Cost)         standardProductCosts;\n    mapping (string => Cost)         actualProductCosts;\n    mapping (uint => uint)           requestCost;    // requestId and Total Cost.\n    mapping (address => mapping (address => BankAccount) ) userBankAccounts; // bankAddr -> userAddr -> userAcc\n    \n    Material[] public  materialArr;\n    \n    \n    struct BankAccount {\n    \n        address userId;\n        string  userName;\n        uint    userBalance;\n        bool    isActive;\n    }\n    \n    struct Participant {\n        \n        address particId;\n        Role    particRole;\n    }\n    \n\n    struct Product {\n        \n        address manufacturer;\n        string  productId; //registration no.\n        string  productName;\n        string  productForm; // tablets or capsules\n        uint    productBudget;\n        \n    }\n    \n    struct Material {\n        address supplier;\n        string  materialID;\n        string  materialName;\n        string  materialStrength;\n        string  materialForm;\n        uint    createdAmount;\n        uint    unitCost;\n    }\n    \n    struct Specs {\n        string  materialName;\n        string  materialType;\n        uint    materialAmount;\n        string  materialStrength;\n        string  materialForm;\n        \n    }\n\n    struct Request {\n        uint    requestId;\n        address fromParti;\n        address toParti;\n        string  materialName;\n        string  materialForm;\n        string  materialStrength;\n        uint    amount;\n        uint    issueTime;\n    }\n    \n       struct Log {\n        string  shipStatus;\n        string  currentTemp;\n        string  currentHumidity;\n        string  materialStatus;\n        uint    logTime;\n    }\n    \n    struct Cost {\n        uint directMaterialCost;\n        uint packagingMaterialCost;\n        uint marketingCost;\n        uint researchCost;\n        uint directLaborCost;\n        uint totalIndirectCost; // indirect manufacturing costs\n        uint CostTOT; // direct material + direct labor + total indirect\n    }\n    \n    \n    \n    // FUNCTIONS\n    \n    //constructor\n    \n    // constructor() {\n        \n    // }\n    \n    modifier onlyAdmin {\n        require(msg.sender == admin);\n        _;\n    }\n    \n    // Core functions \n    \n    // Handle participants privileges\n    \n    function verifyParticipant(address _participant) public  {\n             participants[_participant] = true;\n    }\n    \n    function unverifyParticipant(address _participant ) public  {\n             participants[_participant] = false;\n    }\n         \n    function isVerfied(address _participant) public view returns (bool) {\n             return participants[_participant];\n    }\n    \n    \n\n    \n    function addProduct(\n    \n    string memory _id,\n    string memory _name,\n    string memory _pForm\n    \n    ) public {\n        \n        Product memory pro = Product({\n            productId: _id,\n            productName: _name,\n            productForm: _pForm,\n            productBudget: 0,\n            manufacturer: msg.sender\n        });\n        \n        products[msg.sender].push(pro);\n        \n    }\n    \n    function addProductSpecs(\n    \n    string memory _productID,\n    string memory _name,\n    string memory _type,\n    string memory _strength,\n    string memory _form,\n    uint          _amount\n    \n    ) public {\n    \n        Specs memory spec = Specs({\n            materialName: _name,\n            materialType: _type,\n            materialForm: _form,\n            materialAmount: _amount,\n            materialStrength: _strength\n            \n        });      \n        \n        productSpecs[_productID].push(spec);\n        \n    }\n    \n      \n    function getProductsByManu(address _manufacturer) public view returns(Product[] memory) {\n        return products[_manufacturer];\n    }\n    \n    function getProductSpecs(string memory _product) public view returns(Specs[] memory) {\n        return productSpecs[_product];\n    }\n\n    // COST ACCOUNTING STUFF GOES HERE\n    \n    function setStdCostPlan(\n    \n    string memory _product,\n    uint    _directMatCost,\n    uint    _pkgMatCost,\n    uint    _directLaborCost,\n    uint    _totIndirectCosts,\n    uint    _mrkCost,\n    uint    _rsrchCost,\n    uint    _productBudget\n    \n        ) public {\n    \n    Cost memory stdCosts = Cost({\n        directMaterialCost: _directMatCost,\n        directLaborCost: _directLaborCost,\n        totalIndirectCost: _totIndirectCosts,\n        packagingMaterialCost: _pkgMatCost,\n        marketingCost: _mrkCost,\n        researchCost: _rsrchCost,\n        CostTOT: _directMatCost + _pkgMatCost +  _directLaborCost + _totIndirectCosts\n                 + _mrkCost  + _rsrchCost\n       \n    });\n    \n    standardProductCosts[_product] = stdCosts;\n    \n    setProductBudget(_product, _productBudget);\n    \n    }\n    \n    function setProductBudget(string memory _product, uint _budget) public {\n        if(strComp(_product, products[msg.sender][0].productId)) {\n            products[msg.sender][0].productBudget = _budget;\n        }\n       \n    }\n    \n    \n    function getStdCostPlan(string memory _product) public view returns(Cost memory) {\n        return standardProductCosts[_product];\n    }\n    \n    function setActualCost(\n    \n    string memory _product,\n    uint _actualMatCost,\n    uint _actualPkgMatCost,\n    uint _actualLaborCost,\n    uint _actualIndirectCost,\n    uint _actualMrkCost,\n    uint _actualRsrchCost\n    \n    ) public {\n        Cost memory actualCosts = Cost({\n            directMaterialCost: _actualMatCost,\n            packagingMaterialCost: _actualPkgMatCost,\n            marketingCost: _actualMrkCost,\n            researchCost: _actualRsrchCost,\n            directLaborCost: _actualLaborCost,\n            totalIndirectCost: _actualIndirectCost,\n            CostTOT: _actualMatCost + _actualPkgMatCost + _actualLaborCost + _actualIndirectCost\n                     + _actualMrkCost + _actualRsrchCost\n        });\n        \n        actualProductCosts[_product] = actualCosts;\n    }\n    \n    function getActualCost(string memory _product) public view returns(Cost memory) {\n        \n        return actualProductCosts[_product];\n    }\n    \n    // END OF  COST ACCOUNTING STUFF\n    \n    // Creation of Material By Supplier\n    \n    function createMaterial(\n    \n    string memory _id,\n    string memory _name,\n    string memory _str,\n    string memory _form,\n    uint    _amount,\n    uint    _unitCost\n    \n    ) public {\n        \n        Material memory mat = Material({\n           supplier: msg.sender,\n           materialID:   _id,\n           materialName: _name,\n           materialForm: _form,\n           materialStrength: _str,\n           createdAmount: _amount,\n           unitCost:      _unitCost\n        });\n\n        materials[msg.sender].push(mat);\n        materialList[_name] = mat;\n        materialArr.push(mat);\n        \n        \n    }\n    \n    // TODOO : * Search Materials By Name and Type (e.g. Vitamin-a , active )\n    // * send material supplier a request.\n    // * calculate request cost and pay half the total cost in advance in case of request approval\n    \n    function getMaterialsBySupplier(address _supplier) public view returns(Material[] memory ) {\n        return materials[_supplier];\n    }\n    \n\n    function createRequest(\n    \n    address _to ,\n    string memory _material ,\n    string memory _materialForm,\n    string memory _materialStr,\n    uint _amount )\n    \n    public {\n        \n        requestCount += 1;\n        Request memory req = Request({\n           requestId: requestCount,\n           fromParti: msg.sender,\n           toParti: _to,\n           materialName: _material,\n           materialForm: _materialForm,\n           materialStrength: _materialStr, \n           amount: _amount,\n           issueTime: block.timestamp\n        });\n        \n        requests[msg.sender].push(req);\n    }\n    \n    \n    function getMyRequests() public view returns (Request[] memory) {\n        \n        return requests[msg.sender];\n    }\n    \n    function getRequestByAddress(address _participant) public  view returns(Request[] memory) {\n        \n        return requests[_participant];\n    }\n    \n        \n    // BANKING STUFF GOES HERE \n    \n    // functions that has 'self' word are invokable by msg.sender\n    // other functions should require admin / bank control of execution\n    \n    function setAsBank(address payable _addr) public {\n        bank = _addr;\n        \n    }\n    \n    function getBank() public view returns (address) {\n        return bank;\n    }\n    \n    function createBankAccount(address _userAddr, string memory _userName) public {\n        \n        BankAccount memory account = BankAccount({\n            \n            userId:  _userAddr,\n            userName: _userName,\n            userBalance: 0,\n            isActive: true\n            \n        });\n        \n        userBankAccounts[bank][_userAddr] = account;\n        \n    }\n    \n     function selfCreateBankAccount(string memory _userName) public {\n        \n       createBankAccount(msg.sender, _userName);\n        \n    }\n    \n    function hasBankAccount(address _userAddr) public view returns (bool) {\n        if (userBankAccounts[bank][_userAddr].isActive != false) {\n            return true;\n        }\n        else {\n            return false;\n        }\n    }\n    \n    function deposit (address _userAddr, uint _amount) public returns (bool) {\n        \n        require (_amount > 0, 'Enter A Valid Deposit Amount!');\n        if ( userBankAccounts[bank][_userAddr].userId == _userAddr) {\n            uint balance = userBankAccounts[bank][_userAddr].userBalance;\n            balance += _amount;\n            userBankAccounts[bank][_userAddr].userBalance = balance;\n            return true;\n        }\n        else {\n            return false;\n        }\n        \n    }\n    \n    function selfDeposit (uint _amount) public returns (bool) {\n        \n       return deposit(msg.sender, _amount);\n        \n    }\n    \n    function withdraw (address _userAddr, uint _amount) public returns (bool) {\n        \n        require(userBankAccounts[bank][_userAddr].userBalance > _amount , 'Not Enough Balance!' );\n        if (userBankAccounts[bank][_userAddr].userId == _userAddr) {\n            \n            uint balance = userBankAccounts[bank][_userAddr].userBalance;\n            balance -= _amount;\n            userBankAccounts[bank][_userAddr].userBalance = balance;\n            return true;\n        }\n        else {\n            return false;\n        }\n    }\n    \n    function selfWithdraw (uint _amount) public returns (bool) {\n        \n       return withdraw(msg.sender, _amount);\n    }\n    \n    function getBalance (address _userAddr) public view returns (uint x) {\n        \n         if (userBankAccounts[bank][_userAddr].userId == _userAddr) {\n             uint balance = userBankAccounts[bank][_userAddr].userBalance;\n             return balance;\n        }\n    }\n    \n    function selfGetBalance () public view returns (uint x) {\n        \n        return getBalance(msg.sender);\n    }\n    \n    function transfer (address _from, address _to , uint _amount) public returns (bool) {\n        \n         require(userBankAccounts[bank][_from].userBalance >= _amount ,\n         'Not Enough Balance to Transfer This Amount!' );\n         \n        if (userBankAccounts[bank][_from].userId == _from && userBankAccounts[bank][_to].isActive == true) {\n            \n            uint fromBalance = userBankAccounts[bank][_from].userBalance;\n            uint toBalance = userBankAccounts[bank][_to].userBalance;\n            fromBalance -= _amount;\n            toBalance += _amount;\n            userBankAccounts[bank][_from].userBalance = fromBalance;\n            userBankAccounts[bank][_to].userBalance = toBalance; \n            return true;\n        }\n        else {\n            return false;\n        }\n        \n    }\n    \n     function selfTransfer (address _to , uint _amount) public returns (bool) {\n        \n         require(userBankAccounts[bank][msg.sender].userBalance >= _amount ,\n         'You Do Not Have Enough Balance to Transfer This Amount!' );\n         \n        if (userBankAccounts[bank][msg.sender].userId == msg.sender\n            && userBankAccounts[bank][_to].isActive == true)\n        {\n            uint fromBalance = userBankAccounts[bank][msg.sender].userBalance;\n            uint toBalance = userBankAccounts[bank][_to].userBalance;\n            fromBalance -= _amount;\n            toBalance += _amount;\n            userBankAccounts[bank][msg.sender].userBalance = fromBalance;\n            userBankAccounts[bank][_to].userBalance = toBalance; \n            return true;\n        }\n        \n        else {\n            \n            return false;\n        }\n        \n    }\n    \n    \n    function getAccountDetails(address _account) public view returns (BankAccount memory) {\n        return userBankAccounts[bank][_account];\n    }\n    \n    function selfGetAccountDetails() public view returns (BankAccount memory) {\n        return userBankAccounts[bank][msg.sender];\n    }\n    \n    // END OF BANKING STUFF\n    \n    // TRACKING STUFF GOES HERE\n    \n    function createLog(\n    \n    uint _requestId,\n    string memory _shipStatus,\n    string memory _currentTemp,\n    string memory _currentHumid,\n    string memory _materialStatus\n    \n    ) public  {\n        \n        Log memory myLog = Log({\n            shipStatus: _shipStatus,\n            currentTemp: _currentTemp,\n            currentHumidity: _currentHumid,\n            materialStatus: _materialStatus,\n            logTime: block.timestamp\n        });\n        \n        trackLogs[_requestId].push(myLog);\n    }\n    \n    function getTrackLogs(uint _request) public view returns(Log[] memory) {\n        return trackLogs[_request];\n    }\n    \n    \n    // END OF TRACKING STUFF\n    \n    \n}",
  "sourcePath": "/home/mohamedkaram/Documents/Demo-sandbox/contracts/NewDemoTest.sol",
  "compiler": {
    "name": "solc",
    "version": "0.7.4+commit.3f05b770.Emscripten.clang"
  },
  "schemaVersion": "3.3.3",
  "updatedAt": "2021-02-28T12:44:38.280Z",
  "networkType": "ethereum",
  "devdoc": {
    "kind": "dev",
    "methods": {},
    "version": 1
  },
  "userdoc": {
    "kind": "user",
    "methods": {},
    "version": 1
  }
}