{
  "contractName": "NewDemoTest",
  "abi": [
    {
      "inputs": [
        {
          "internalType": "string",
          "name": "x",
          "type": "string"
        },
        {
          "internalType": "string",
          "name": "y",
          "type": "string"
        }
      ],
      "name": "strComp",
      "outputs": [
        {
          "internalType": "bool",
          "name": "",
          "type": "bool"
        }
      ],
      "stateMutability": "pure",
      "type": "function",
      "constant": true
    },
    {
      "inputs": [
        {
          "internalType": "address",
          "name": "_participant",
          "type": "address"
        }
      ],
      "name": "verifyParticipant",
      "outputs": [],
      "stateMutability": "nonpayable",
      "type": "function"
    },
    {
      "inputs": [
        {
          "internalType": "address",
          "name": "_participant",
          "type": "address"
        }
      ],
      "name": "unverifyParticipant",
      "outputs": [],
      "stateMutability": "nonpayable",
      "type": "function"
    },
    {
      "inputs": [
        {
          "internalType": "address",
          "name": "_participant",
          "type": "address"
        }
      ],
      "name": "isVerfied",
      "outputs": [
        {
          "internalType": "bool",
          "name": "",
          "type": "bool"
        }
      ],
      "stateMutability": "view",
      "type": "function",
      "constant": true
    },
    {
      "inputs": [
        {
          "internalType": "string",
          "name": "_id",
          "type": "string"
        },
        {
          "internalType": "string",
          "name": "_name",
          "type": "string"
        },
        {
          "internalType": "string",
          "name": "_pForm",
          "type": "string"
        },
        {
          "internalType": "uint256",
          "name": "_budget",
          "type": "uint256"
        }
      ],
      "name": "addProduct",
      "outputs": [],
      "stateMutability": "nonpayable",
      "type": "function"
    },
    {
      "inputs": [
        {
          "internalType": "string",
          "name": "_productID",
          "type": "string"
        },
        {
          "internalType": "string",
          "name": "_name",
          "type": "string"
        },
        {
          "internalType": "string",
          "name": "_type",
          "type": "string"
        },
        {
          "internalType": "string",
          "name": "_strength",
          "type": "string"
        },
        {
          "internalType": "string",
          "name": "_form",
          "type": "string"
        },
        {
          "internalType": "uint256",
          "name": "_amount",
          "type": "uint256"
        }
      ],
      "name": "addProductSpecs",
      "outputs": [],
      "stateMutability": "nonpayable",
      "type": "function"
    },
    {
      "inputs": [
        {
          "internalType": "address",
          "name": "_manufacturer",
          "type": "address"
        }
      ],
      "name": "getProductsByManu",
      "outputs": [
        {
          "components": [
            {
              "internalType": "address",
              "name": "manufacturer",
              "type": "address"
            },
            {
              "internalType": "string",
              "name": "productId",
              "type": "string"
            },
            {
              "internalType": "string",
              "name": "productName",
              "type": "string"
            },
            {
              "internalType": "string",
              "name": "productForm",
              "type": "string"
            },
            {
              "internalType": "uint256",
              "name": "productBudget",
              "type": "uint256"
            }
          ],
          "internalType": "struct NewDemoTest.Product[]",
          "name": "",
          "type": "tuple[]"
        }
      ],
      "stateMutability": "view",
      "type": "function",
      "constant": true
    },
    {
      "inputs": [
        {
          "internalType": "string",
          "name": "_product",
          "type": "string"
        }
      ],
      "name": "getProductSpecs",
      "outputs": [
        {
          "components": [
            {
              "internalType": "string",
              "name": "materialName",
              "type": "string"
            },
            {
              "internalType": "string",
              "name": "materialType",
              "type": "string"
            },
            {
              "internalType": "uint256",
              "name": "materialAmount",
              "type": "uint256"
            },
            {
              "internalType": "string",
              "name": "materialStrength",
              "type": "string"
            },
            {
              "internalType": "string",
              "name": "materialForm",
              "type": "string"
            }
          ],
          "internalType": "struct NewDemoTest.Specs[]",
          "name": "",
          "type": "tuple[]"
        }
      ],
      "stateMutability": "view",
      "type": "function",
      "constant": true
    },
    {
      "inputs": [
        {
          "internalType": "string",
          "name": "_product",
          "type": "string"
        },
        {
          "internalType": "uint256",
          "name": "_directMatCost",
          "type": "uint256"
        },
        {
          "internalType": "uint256",
          "name": "_directLaborCost",
          "type": "uint256"
        },
        {
          "internalType": "uint256",
          "name": "_totIndirectCosts",
          "type": "uint256"
        }
      ],
      "name": "setStdCostPlan",
      "outputs": [],
      "stateMutability": "nonpayable",
      "type": "function"
    },
    {
      "inputs": [
        {
          "internalType": "string",
          "name": "_product",
          "type": "string"
        }
      ],
      "name": "getStdCostPlan",
      "outputs": [
        {
          "components": [
            {
              "internalType": "uint256",
              "name": "directMaterialCost",
              "type": "uint256"
            },
            {
              "internalType": "uint256",
              "name": "directLaborCost",
              "type": "uint256"
            },
            {
              "internalType": "uint256",
              "name": "totalIndirectCost",
              "type": "uint256"
            },
            {
              "internalType": "uint256",
              "name": "CostTOT",
              "type": "uint256"
            }
          ],
          "internalType": "struct NewDemoTest.Cost",
          "name": "",
          "type": "tuple"
        }
      ],
      "stateMutability": "view",
      "type": "function",
      "constant": true
    },
    {
      "inputs": [
        {
          "internalType": "string",
          "name": "_product",
          "type": "string"
        },
        {
          "internalType": "uint256",
          "name": "_actualMatCost",
          "type": "uint256"
        },
        {
          "internalType": "uint256",
          "name": "_actualLaborCost",
          "type": "uint256"
        },
        {
          "internalType": "uint256",
          "name": "_actualIndirectCost",
          "type": "uint256"
        }
      ],
      "name": "setActualCost",
      "outputs": [],
      "stateMutability": "nonpayable",
      "type": "function"
    },
    {
      "inputs": [
        {
          "internalType": "string",
          "name": "_product",
          "type": "string"
        }
      ],
      "name": "getActualCost",
      "outputs": [
        {
          "components": [
            {
              "internalType": "uint256",
              "name": "directMaterialCost",
              "type": "uint256"
            },
            {
              "internalType": "uint256",
              "name": "directLaborCost",
              "type": "uint256"
            },
            {
              "internalType": "uint256",
              "name": "totalIndirectCost",
              "type": "uint256"
            },
            {
              "internalType": "uint256",
              "name": "CostTOT",
              "type": "uint256"
            }
          ],
          "internalType": "struct NewDemoTest.Cost",
          "name": "",
          "type": "tuple"
        }
      ],
      "stateMutability": "view",
      "type": "function",
      "constant": true
    },
    {
      "inputs": [
        {
          "internalType": "string",
          "name": "_id",
          "type": "string"
        },
        {
          "internalType": "string",
          "name": "_name",
          "type": "string"
        },
        {
          "internalType": "string",
          "name": "_str",
          "type": "string"
        },
        {
          "internalType": "string",
          "name": "_form",
          "type": "string"
        },
        {
          "internalType": "uint256",
          "name": "_amount",
          "type": "uint256"
        },
        {
          "internalType": "uint256",
          "name": "_unitCost",
          "type": "uint256"
        }
      ],
      "name": "createMaterial",
      "outputs": [],
      "stateMutability": "nonpayable",
      "type": "function"
    },
    {
      "inputs": [
        {
          "internalType": "address",
          "name": "_supplier",
          "type": "address"
        }
      ],
      "name": "getMaterialBySupplier",
      "outputs": [
        {
          "components": [
            {
              "internalType": "address",
              "name": "supplier",
              "type": "address"
            },
            {
              "internalType": "string",
              "name": "materialID",
              "type": "string"
            },
            {
              "internalType": "string",
              "name": "materialName",
              "type": "string"
            },
            {
              "internalType": "string",
              "name": "materialStrength",
              "type": "string"
            },
            {
              "internalType": "string",
              "name": "materialForm",
              "type": "string"
            },
            {
              "internalType": "uint256",
              "name": "createdAmount",
              "type": "uint256"
            },
            {
              "internalType": "uint256",
              "name": "unitCost",
              "type": "uint256"
            }
          ],
          "internalType": "struct NewDemoTest.Material[]",
          "name": "",
          "type": "tuple[]"
        }
      ],
      "stateMutability": "view",
      "type": "function",
      "constant": true
    },
    {
      "inputs": [
        {
          "internalType": "address",
          "name": "_to",
          "type": "address"
        },
        {
          "internalType": "string",
          "name": "_material",
          "type": "string"
        },
        {
          "internalType": "string",
          "name": "_materialForm",
          "type": "string"
        },
        {
          "internalType": "string",
          "name": "_materialStr",
          "type": "string"
        },
        {
          "internalType": "uint256",
          "name": "_amount",
          "type": "uint256"
        }
      ],
      "name": "createRequest",
      "outputs": [],
      "stateMutability": "nonpayable",
      "type": "function"
    },
    {
      "inputs": [],
      "name": "getMyRequests",
      "outputs": [
        {
          "components": [
            {
              "internalType": "uint256",
              "name": "requestId",
              "type": "uint256"
            },
            {
              "internalType": "address",
              "name": "fromParti",
              "type": "address"
            },
            {
              "internalType": "address",
              "name": "toParti",
              "type": "address"
            },
            {
              "internalType": "string",
              "name": "materialName",
              "type": "string"
            },
            {
              "internalType": "string",
              "name": "materialForm",
              "type": "string"
            },
            {
              "internalType": "string",
              "name": "materialStrength",
              "type": "string"
            },
            {
              "internalType": "uint256",
              "name": "amount",
              "type": "uint256"
            },
            {
              "internalType": "uint256",
              "name": "issueTime",
              "type": "uint256"
            }
          ],
          "internalType": "struct NewDemoTest.Request[]",
          "name": "",
          "type": "tuple[]"
        }
      ],
      "stateMutability": "view",
      "type": "function",
      "constant": true
    },
    {
      "inputs": [
        {
          "internalType": "address",
          "name": "_participant",
          "type": "address"
        }
      ],
      "name": "getRequestByAddress",
      "outputs": [
        {
          "components": [
            {
              "internalType": "uint256",
              "name": "requestId",
              "type": "uint256"
            },
            {
              "internalType": "address",
              "name": "fromParti",
              "type": "address"
            },
            {
              "internalType": "address",
              "name": "toParti",
              "type": "address"
            },
            {
              "internalType": "string",
              "name": "materialName",
              "type": "string"
            },
            {
              "internalType": "string",
              "name": "materialForm",
              "type": "string"
            },
            {
              "internalType": "string",
              "name": "materialStrength",
              "type": "string"
            },
            {
              "internalType": "uint256",
              "name": "amount",
              "type": "uint256"
            },
            {
              "internalType": "uint256",
              "name": "issueTime",
              "type": "uint256"
            }
          ],
          "internalType": "struct NewDemoTest.Request[]",
          "name": "",
          "type": "tuple[]"
        }
      ],
      "stateMutability": "view",
      "type": "function",
      "constant": true
    },
    {
      "inputs": [
        {
          "internalType": "uint256",
          "name": "_requestId",
          "type": "uint256"
        },
        {
          "internalType": "string",
          "name": "_shipStatus",
          "type": "string"
        },
        {
          "internalType": "string",
          "name": "_currentTemp",
          "type": "string"
        },
        {
          "internalType": "string",
          "name": "_currentHumid",
          "type": "string"
        },
        {
          "internalType": "string",
          "name": "_materialStatus",
          "type": "string"
        }
      ],
      "name": "createLog",
      "outputs": [],
      "stateMutability": "nonpayable",
      "type": "function"
    },
    {
      "inputs": [
        {
          "internalType": "uint256",
          "name": "_request",
          "type": "uint256"
        }
      ],
      "name": "getTrackLogs",
      "outputs": [
        {
          "components": [
            {
              "internalType": "string",
              "name": "shipStatus",
              "type": "string"
            },
            {
              "internalType": "string",
              "name": "currentTemp",
              "type": "string"
            },
            {
              "internalType": "string",
              "name": "currentHumidity",
              "type": "string"
            },
            {
              "internalType": "string",
              "name": "materialStatus",
              "type": "string"
            },
            {
              "internalType": "uint256",
              "name": "logTime",
              "type": "uint256"
            }
          ],
          "internalType": "struct NewDemoTest.Log[]",
          "name": "",
          "type": "tuple[]"
        }
      ],
      "stateMutability": "view",
      "type": "function",
      "constant": true
    }
  ],
  "bytecode": "0x6080604052600060015534801561001557600080fd5b506125cc806100256000396000f3fe608060405234801561001057600080fd5b50600436106101215760003560e01c80636fe57a77116100ad578063de67ef8a11610071578063de67ef8a1461027e578063eda953f21461029e578063efe63b35146102b1578063f583736d146102c4578063fd91dcca146102d757610121565b80636fe57a77146102035780637f5cf16e146102235780638165fed51461024357806391eace8b14610256578063baf8fb511461025e57610121565b806343a6785b116100f457806343a6785b146101975780634a0d37a2146101aa57806359c8351f146101bd578063643a7695146101dd5780636eac3eb8146101f057610121565b8063096a71e21461012657806312917b8e1461014f5780632b7435781461016f578063345eb7dc14610184575b600080fd5b610139610134366004611d31565b6102ea565b604051610146919061253b565b60405180910390f35b61016261015d366004612039565b61034b565b6040516101469190612158565b61018261017d366004611c94565b61061e565b005b610182610192366004611fe7565b610740565b6101826101a5366004612051565b6107b9565b6101826101b8366004611ea1565b61088b565b6101d06101cb366004611d6c565b610a5c565b6040516101469190612530565b6101826101eb366004611c73565b610ab5565b6101396101fe366004611d31565b610ad9565b610216610211366004611c73565b610af1565b60405161014691906123a2565b610236610231366004611d31565b610d4f565b604051610146919061247a565b610182610251366004611f5b565b611025565b6102166110fe565b61027161026c366004611c73565b61135c565b604051610146919061221c565b61029161028c366004611c73565b61163d565b60405161014691906122f1565b6101d06102ac366004611c73565b611880565b6101826102bf366004611fe7565b61189e565b6101826102d2366004611c73565b6118de565b6101826102e5366004611dcd565b6118ff565b6102f26119e6565b600a82604051610302919061213c565b908152602001604051809103902060405180608001604052908160008201548152602001600182015481526020016002820154815260200160038201548152505090505b919050565b606060086000838152602001908152602001600020805480602002602001604051908101604052809291908181526020016000905b828210156106135760008481526020908190206040805160058602909201805460026001821615610100026000190190911604601f8101859004909402830160c090810190925260a08301848152929390928492909184918401828280156104295780601f106103fe57610100808354040283529160200191610429565b820191906000526020600020905b81548152906001019060200180831161040c57829003601f168201915b50505050508152602001600182018054600181600116156101000203166002900480601f0160208091040260200160405190810160405280929190818152602001828054600181600116156101000203166002900480156104cb5780601f106104a0576101008083540402835291602001916104cb565b820191906000526020600020905b8154815290600101906020018083116104ae57829003601f168201915b5050509183525050600282810180546040805160206001841615610100026000190190931694909404601f8101839004830285018301909152808452938101939083018282801561055d5780601f106105325761010080835404028352916020019161055d565b820191906000526020600020905b81548152906001019060200180831161054057829003601f168201915b505050918352505060038201805460408051602060026001851615610100026000190190941693909304601f81018490048402820184019092528181529382019392918301828280156105f15780601f106105c6576101008083540402835291602001916105f1565b820191906000526020600020905b8154815290600101906020018083116105d457829003601f168201915b5050505050815260200160048201548152505081526020019060010190610380565b505050509050919050565b600180548101905561062e611a0e565b5060408051610100810182526001805482523360208084018281526001600160a01b038b8116868801908152606087018c8152608088018c905260a088018b905260c088018a90524260e089015260009586526007855297852080548088018255908652948490208751600890960201948555915194840180546001600160a01b03199081169683169690961790559051600284018054909516911617909255925180519293849390926106e9926003850192910190611a65565b5060808201518051610705916004840191602090910190611a65565b5060a08201518051610721916005840191602090910190611a65565b5060c0820151816006015560e082015181600701555050505050505050565b6107486119e6565b60405180608001604052808581526020018481526020018381526020018385870101815250905080600a86604051610780919061213c565b90815260408051602092819003830190208351815591830151600183015582015160028201556060909101516003909101555050505050565b6107c1611af1565b506040805160a081018252858152602080820186905281830185905260608201849052426080830152600088815260088252928320805460018101825590845292819020825180519394859460059091029092019261082592849290910190611a65565b50602082810151805161083e9260018501920190611a65565b506040820151805161085a916002840191602090910190611a65565b5060608201518051610876916003840191602090910190611a65565b50608082015181600401555050505050505050565b610893611b20565b506040805160e0810182523380825260208083018a81528385018a9052606084018990526080840188905260a0840187905260c0840186905260009283526005825293822080546001808201835591845292829020845160079094020180546001600160a01b0319166001600160a01b039094169390931783559351805193948594610926939185019290910190611a65565b5060408201518051610942916002840191602090910190611a65565b506060820151805161095e916003840191602090910190611a65565b506080820151805161097a916004840191602090910190611a65565b5060a0820151816005015560c082015181600601555050806006886040516109a2919061213c565b90815260405160209181900382019020825181546001600160a01b0319166001600160a01b0390911617815582820151805191926109e892600185019290910190611a65565b5060408201518051610a04916002840191602090910190611a65565b5060608201518051610a20916003840191602090910190611a65565b5060808201518051610a3c916004840191602090910190611a65565b5060a0820151600582015560c09091015160069091015550505050505050565b600081604051602001610a6f919061213c565b6040516020818303038152906040528051906020012083604051602001610a96919061213c565b6040516020818303038152906040528051906020012014905092915050565b6001600160a01b03166000908152600260205260409020805460ff19166001179055565b610ae16119e6565b600982604051610302919061213c565b6001600160a01b0381166000908152600760209081526040808320805482518185028101850190935280835260609492939192909184015b8282101561061357600084815260209081902060408051610100808201835260088702909301805482526001808201546001600160a01b0390811684880152600280840154909116848601526003830180548651938116159097026000190190961604601f81018790048702820187019094528381529194909360608601939091830182828015610bfb5780601f10610bd057610100808354040283529160200191610bfb565b820191906000526020600020905b815481529060010190602001808311610bde57829003601f168201915b505050918352505060048201805460408051602060026001851615610100026000190190941693909304601f8101849004840282018401909252818152938201939291830182828015610c8f5780601f10610c6457610100808354040283529160200191610c8f565b820191906000526020600020905b815481529060010190602001808311610c7257829003601f168201915b505050918352505060058201805460408051602060026001851615610100026000190190941693909304601f8101849004840282018401909252818152938201939291830182828015610d235780601f10610cf857610100808354040283529160200191610d23565b820191906000526020600020905b815481529060010190602001808311610d0657829003601f168201915b505050505081526020016006820154815260200160078201548152505081526020019060010190610b29565b6060600482604051610d61919061213c565b9081526020016040518091039020805480602002602001604051908101604052809291908181526020016000905b828210156106135760008481526020908190206040805160058602909201805460026001821615610100026000190190911604601f8101859004909402830160c090810190925260a0830184815292939092849290918491840182828015610e385780601f10610e0d57610100808354040283529160200191610e38565b820191906000526020600020905b815481529060010190602001808311610e1b57829003601f168201915b50505050508152602001600182018054600181600116156101000203166002900480601f016020809104026020016040519081016040528092919081815260200182805460018160011615610100020316600290048015610eda5780601f10610eaf57610100808354040283529160200191610eda565b820191906000526020600020905b815481529060010190602001808311610ebd57829003601f168201915b505050918352505060028281015460208084019190915260038401805460408051601f60001961010060018616150201909316959095049182018490048402850184018152818552909401939091830182828015610f795780601f10610f4e57610100808354040283529160200191610f79565b820191906000526020600020905b815481529060010190602001808311610f5c57829003601f168201915b505050918352505060048201805460408051602060026001851615610100026000190190941693909304601f810184900484028201840190925281815293820193929183018282801561100d5780601f10610fe25761010080835404028352916020019161100d565b820191906000526020600020905b815481529060010190602001808311610ff057829003601f168201915b50505050508152505081526020019060010190610d8f565b61102d611b66565b506040805160a081018252338082526020808301888152838501889052606084018790526080840186905260009283526003825293822080546001808201835591845292829020845160059094020180546001600160a01b0319166001600160a01b0390941693909317835593518051939485946110b2939185019290910190611a65565b50604082015180516110ce916002840191602090910190611a65565b50606082015180516110ea916003840191602090910190611a65565b506080820151816004015550505050505050565b336000908152600760209081526040808320805482518185028101850190935280835260609492939192909184015b8282101561135357600084815260209081902060408051610100808201835260088702909301805482526001808201546001600160a01b0390811684880152600280840154909116848601526003830180548651938116159097026000190190961604601f810187900487028201870190945283815291949093606086019390918301828280156111ff5780601f106111d4576101008083540402835291602001916111ff565b820191906000526020600020905b8154815290600101906020018083116111e257829003601f168201915b505050918352505060048201805460408051602060026001851615610100026000190190941693909304601f81018490048402820184019092528181529382019392918301828280156112935780601f1061126857610100808354040283529160200191611293565b820191906000526020600020905b81548152906001019060200180831161127657829003601f168201915b505050918352505060058201805460408051602060026001851615610100026000190190941693909304601f81018490048402820184019092528181529382019392918301828280156113275780601f106112fc57610100808354040283529160200191611327565b820191906000526020600020905b81548152906001019060200180831161130a57829003601f168201915b50505050508152602001600682015481526020016007820154815250508152602001906001019061112d565b50505050905090565b6001600160a01b0381166000908152600560209081526040808320805482518185028101850190935280835260609492939192909184015b828210156106135760008481526020908190206040805160e0810182526007860290920180546001600160a01b03168352600180820180548451600261010094831615949094026000190190911692909204601f8101879004870283018701909452838252939491938583019391929091908301828280156114575780601f1061142c57610100808354040283529160200191611457565b820191906000526020600020905b81548152906001019060200180831161143a57829003601f168201915b5050509183525050600282810180546040805160206001841615610100026000190190931694909404601f810183900483028501830190915280845293810193908301828280156114e95780601f106114be576101008083540402835291602001916114e9565b820191906000526020600020905b8154815290600101906020018083116114cc57829003601f168201915b505050918352505060038201805460408051602060026001851615610100026000190190941693909304601f810184900484028201840190925281815293820193929183018282801561157d5780601f106115525761010080835404028352916020019161157d565b820191906000526020600020905b81548152906001019060200180831161156057829003601f168201915b505050918352505060048201805460408051602060026001851615610100026000190190941693909304601f81018490048402820184019092528181529382019392918301828280156116115780601f106115e657610100808354040283529160200191611611565b820191906000526020600020905b8154815290600101906020018083116115f457829003601f168201915b505050505081526020016005820154815260200160068201548152505081526020019060010190611394565b6001600160a01b0381166000908152600360209081526040808320805482518185028101850190935280835260609492939192909184015b828210156106135760008481526020908190206040805160a0810182526005860290920180546001600160a01b03168352600180820180548451600261010094831615949094026000190190911692909204601f8101879004870283018701909452838252939491938583019391929091908301828280156117385780601f1061170d57610100808354040283529160200191611738565b820191906000526020600020905b81548152906001019060200180831161171b57829003601f168201915b5050509183525050600282810180546040805160206001841615610100026000190190931694909404601f810183900483028501830190915280845293810193908301828280156117ca5780601f1061179f576101008083540402835291602001916117ca565b820191906000526020600020905b8154815290600101906020018083116117ad57829003601f168201915b505050918352505060038201805460408051602060026001851615610100026000190190941693909304601f810184900484028201840190925281815293820193929183018282801561185e5780601f106118335761010080835404028352916020019161185e565b820191906000526020600020905b81548152906001019060200180831161184157829003601f168201915b5050505050815260200160048201548152505081526020019060010190611675565b6001600160a01b031660009081526002602052604090205460ff1690565b6118a66119e6565b60405180608001604052808581526020018481526020018381526020018385870101815250905080600986604051610780919061213c565b6001600160a01b03166000908152600260205260409020805460ff19169055565b611907611b9e565b6040518060a00160405280878152602001868152602001838152602001858152602001848152509050600487604051611940919061213c565b90815260405160209181900382019020805460018101825560009182529082902083518051859460059094029092019261197f92849290910190611a65565b5060208281015180516119989260018501920190611a65565b5060408201516002820155606082015180516119be916003840191602090910190611a65565b50608082015180516119da916004840191602090910190611a65565b50505050505050505050565b6040518060800160405280600081526020016000815260200160008152602001600081525090565b6040518061010001604052806000815260200160006001600160a01b0316815260200160006001600160a01b0316815260200160608152602001606081526020016060815260200160008152602001600081525090565b828054600181600116156101000203166002900490600052602060002090601f016020900481019282611a9b5760008555611ae1565b82601f10611ab457805160ff1916838001178555611ae1565b82800160010185558215611ae1579182015b82811115611ae1578251825591602001919060010190611ac6565b50611aed929150611bcd565b5090565b6040518060a0016040528060608152602001606081526020016060815260200160608152602001600081525090565b6040518060e0016040528060006001600160a01b031681526020016060815260200160608152602001606081526020016060815260200160008152602001600081525090565b6040518060a0016040528060006001600160a01b03168152602001606081526020016060815260200160608152602001600081525090565b6040518060a0016040528060608152602001606081526020016000815260200160608152602001606081525090565b5b80821115611aed5760008155600101611bce565b80356001600160a01b038116811461034657600080fd5b600082601f830112611c09578081fd5b813567ffffffffffffffff80821115611c1e57fe5b604051601f8301601f191681016020018281118282101715611c3c57fe5b604052828152925082848301602001861015611c5757600080fd5b8260208601602083013760006020848301015250505092915050565b600060208284031215611c84578081fd5b611c8d82611be2565b9392505050565b600080600080600060a08688031215611cab578081fd5b611cb486611be2565b9450602086013567ffffffffffffffff80821115611cd0578283fd5b611cdc89838a01611bf9565b95506040880135915080821115611cf1578283fd5b611cfd89838a01611bf9565b94506060880135915080821115611d12578283fd5b50611d1f88828901611bf9565b95989497509295608001359392505050565b600060208284031215611d42578081fd5b813567ffffffffffffffff811115611d58578182fd5b611d6484828501611bf9565b949350505050565b60008060408385031215611d7e578182fd5b823567ffffffffffffffff80821115611d95578384fd5b611da186838701611bf9565b93506020850135915080821115611db6578283fd5b50611dc385828601611bf9565b9150509250929050565b60008060008060008060c08789031215611de5578081fd5b863567ffffffffffffffff80821115611dfc578283fd5b611e088a838b01611bf9565b97506020890135915080821115611e1d578283fd5b611e298a838b01611bf9565b96506040890135915080821115611e3e578283fd5b611e4a8a838b01611bf9565b95506060890135915080821115611e5f578283fd5b611e6b8a838b01611bf9565b94506080890135915080821115611e80578283fd5b50611e8d89828a01611bf9565b92505060a087013590509295509295509295565b60008060008060008060c08789031215611eb9578182fd5b863567ffffffffffffffff80821115611ed0578384fd5b611edc8a838b01611bf9565b97506020890135915080821115611ef1578384fd5b611efd8a838b01611bf9565b96506040890135915080821115611f12578384fd5b611f1e8a838b01611bf9565b95506060890135915080821115611f33578384fd5b50611f4089828a01611bf9565b9350506080870135915060a087013590509295509295509295565b60008060008060808587031215611f70578384fd5b843567ffffffffffffffff80821115611f87578586fd5b611f9388838901611bf9565b95506020870135915080821115611fa8578485fd5b611fb488838901611bf9565b94506040870135915080821115611fc9578384fd5b50611fd687828801611bf9565b949793965093946060013593505050565b60008060008060808587031215611ffc578384fd5b843567ffffffffffffffff811115612012578485fd5b61201e87828801611bf9565b97602087013597506040870135966060013595509350505050565b60006020828403121561204a578081fd5b5035919050565b600080600080600060a08688031215612068578081fd5b85359450602086013567ffffffffffffffff80821115612086578283fd5b61209289838a01611bf9565b955060408801359150808211156120a7578283fd5b6120b389838a01611bf9565b945060608801359150808211156120c8578283fd5b6120d489838a01611bf9565b935060808801359150808211156120e9578283fd5b506120f688828901611bf9565b9150509295509295909350565b6001600160a01b03169052565b60008151808452612128816020860160208601612566565b601f01601f19169290920160200192915050565b6000825161214e818460208701612566565b9190910192915050565b60208082528251828201819052600091906040908185019080840286018301878501865b8381101561220e57603f19898403018552815160a081518186526121a282870182612110565b915050888201518582038a8701526121ba8282612110565b91505087820151858203898701526121d28282612110565b915050606080830151868303828801526121ec8382612110565b608094850151979094019690965250509487019492509086019060010161217c565b509098975050505050505050565b60208082528251828201819052600091906040908185019080840286018301878501865b8381101561220e57888303603f19018552815180516001600160a01b031684528781015160e08986018190529061227982870182612110565b91505087820151858203898701526122918282612110565b915050606080830151868303828801526122ab8382612110565b92505050608080830151868303828801526122c68382612110565b60a0858101519089015260c09485015194909701939093525050509386019390860190600101612240565b60208082528251828201819052600091906040908185019080840286018301878501865b8381101561220e57888303603f19018552815180516001600160a01b031684528781015160a08986018190529061234e82870182612110565b91505087820151858203898701526123668282612110565b915050606080830151868303828801526123808382612110565b6080948501519790940196909652505094870194925090860190600101612315565b60208082528251828201819052600091906040908185019080840286018301878501865b8381101561220e57603f19898403018552815161010081518552888201516123f08a870182612103565b508782015161240189870182612103565b50606080830151828288015261241983880182612110565b92505050608080830151868303828801526124348382612110565b9250505060a0808301518683038288015261244f8382612110565b60c0858101519089015260e094850151949097019390935250505093860193908601906001016123c6565b60208082528251828201819052600091906040908185019080840286018301878501865b8381101561220e57603f19898403018552815160a081518186526124c482870182612110565b915050888201518582038a8701526124dc8282612110565b9150508782015188860152606080830151868303828801526124fe8382612110565b925050506080808301519250858203818701525061251c8183612110565b96890196945050509086019060010161249e565b901515815260200190565b8151815260208083015190820152604080830151908201526060918201519181019190915260800190565b60005b83811015612581578181015183820152602001612569565b83811115612590576000848401525b5050505056fea26469706673582212208e52b69bc20f3888087055f85d1af42f4b9c9541af9923ab90b562df92690e5f64736f6c63430007040033",
  "immutableReferences": {},
  "source": "/*\n    THIS CONTRACT IMPLEMENTATION MAKES A USER:\n    \n    1- Add product with its specs. (manufacturer)\n    2- create material. (suppplier)\n    3- request material from supplier (manufacturer)\n    4- track request status (manufacturer)\n    5- log tracking phases (admin)\n\n\n*/\n\n\n// \"SPDX-License-Identifier: UNLICENSED\"\npragma solidity >=0.6.2;\npragma experimental ABIEncoderV2;  \n\ncontract NewDemoTest {\n    \n    // UTILS\n    function strComp(string memory x , string memory y ) public pure returns (bool){\n        return (keccak256(abi.encodePacked((x))) == keccak256(abi.encodePacked((y))));\n    }\n    \n    \n    address admin;\n    uint    requestCount = 0;\n    enum    Role                    {MANUFACTURER, SUPPLIER, DISTRIBUTOR}\n    mapping (address => bool)       participants;\n    mapping (address => Product[])  products;    // manufacturer and product\n    mapping (string => Specs[])     productSpecs; // productID and material  \n    mapping (address => Material[]) materials;   //Participant(supplier) and material\n    mapping (string => Material)    materialsById;\n    mapping (address => Request[])  requests;   // participant and requests\n    mapping (uint => Log[])         trackLogs; //requestId and Log\n    mapping (string => Cost)        standardProductCosts;\n    mapping (string => Cost)        actualProductCosts;\n    mapping(uint => uint)           requestCost;    // requestId and Total Cost.\n    \n    \n    struct Participant {\n        address particId;\n        Role    particRole;\n        uint    partiBalance;\n    }\n    \n    struct Product {\n        address manufacturer;\n        string  productId; //registration no.\n        string  productName;\n        string  productForm; // tablets or capsules\n        uint    productBudget;\n        \n    }\n    \n    struct Material {\n        address supplier;\n        string  materialID;\n        string  materialName;\n        string  materialStrength;\n        string  materialForm;\n        uint    createdAmount;\n        uint    unitCost;\n    }\n    \n    struct Specs {\n        string  materialName;\n        string  materialType;\n        uint    materialAmount;\n        string  materialStrength;\n        string  materialForm;\n        \n    }\n\n    struct Request {\n        uint    requestId;\n        address fromParti;\n        address toParti;\n        string  materialName;\n        string  materialForm;\n        string  materialStrength;\n        uint    amount;\n        uint    issueTime;\n    }\n    \n       struct Log {\n        string  shipStatus;\n        string  currentTemp;\n        string  currentHumidity;\n        string  materialStatus;\n        uint    logTime;\n    }\n    \n    struct Cost {\n        uint directMaterialCost;\n        uint directLaborCost;\n        uint totalIndirectCost; // total of VAT, MARKETING, ...etc\n        uint CostTOT; // direct material + direct labor + total indirect\n    }\n    \n    \n    // FUNCTIONS\n    \n    //constructor\n    \n    // constructor() {\n        \n    // }\n    \n    modifier onlyAdmin {\n        require(msg.sender == admin);\n        _;\n    }\n    \n    // Core functions \n    // Handle participants privileges\n    \n    function verifyParticipant(address _participant) public  {\n             participants[_participant] = true;\n    }\n    \n    function unverifyParticipant(address _participant ) public  {\n             participants[_participant] = false;\n    }\n         \n    function isVerfied(address _participant) public view returns (bool) {\n             return participants[_participant];\n    }\n    \n    \n    \n    \n    function addProduct(\n    string memory _id,\n    string memory _name,\n    string memory _pForm,\n    uint          _budget\n    ) public {\n        \n        Product memory pro = Product({\n            productId: _id,\n            productName: _name,\n            productForm: _pForm,\n            productBudget: _budget,\n            manufacturer: msg.sender\n        });\n        \n        products[msg.sender].push(pro);\n        \n    }\n    \n    function addProductSpecs(\n    string memory _productID,\n    string memory _name,\n    string memory _type,\n    string memory _strength,\n    string memory _form,\n    uint          _amount\n    ) public {\n    \n        Specs memory spec = Specs({\n            materialName: _name,\n            materialType: _type,\n            materialForm: _form,\n            materialAmount: _amount,\n            materialStrength: _strength\n            \n        });      \n        \n        productSpecs[_productID].push(spec);\n        \n    }\n    \n      \n    function getProductsByManu(address _manufacturer) public view returns(Product[] memory) {\n        return products[_manufacturer];\n    }\n    function getProductSpecs(string memory _product) public view returns(Specs[] memory) {\n        return productSpecs[_product];\n    }\n    \n    // COST ACCOUNTING STUFF START HERE\n    function setStdCostPlan(\n    string memory _product,\n    uint    _directMatCost,\n    uint    _directLaborCost,\n    uint    _totIndirectCosts\n        ) public {\n    \n    Cost memory stdCosts = Cost({\n        directMaterialCost: _directMatCost,\n        directLaborCost: _directLaborCost,\n        totalIndirectCost: _totIndirectCosts,\n        CostTOT: _directMatCost + _directLaborCost + _totIndirectCosts\n    });\n    \n    standardProductCosts[_product] = stdCosts;\n    \n    }\n    \n    \n    function getStdCostPlan(string memory _product) public view returns(Cost memory) {\n        return standardProductCosts[_product];\n    }\n    \n    function setActualCost(\n    string memory _product,\n    uint _actualMatCost,\n    uint _actualLaborCost,\n    uint _actualIndirectCost\n    ) public {\n        Cost memory actualCosts = Cost({\n            directMaterialCost: _actualMatCost,\n            directLaborCost: _actualLaborCost,\n            totalIndirectCost: _actualIndirectCost,\n            CostTOT: _actualMatCost + _actualLaborCost + _actualIndirectCost\n        });\n        actualProductCosts[_product] = actualCosts;\n    }\n    \n    function getActualCost(string memory _product) public view returns(Cost memory) {\n        return actualProductCosts[_product];\n    }\n\n    \n    // By Supplier\n    function createMaterial(\n    string memory _id,\n    string memory _name,\n    string memory _str,\n    string memory _form,\n    uint    _amount,\n    uint    _unitCost\n    ) public {\n        \n        Material memory mat = Material({\n           supplier: msg.sender,\n           materialID:   _id,\n           materialName: _name,\n           materialForm: _form,\n           materialStrength: _str,\n           createdAmount: _amount,\n           unitCost:      _unitCost\n        });\n\n        materials[msg.sender].push(mat);\n        materialsById[_id] = mat;\n        \n        \n    }\n    \n    // TODOOOO\n    function getMaterialBySupplier(address _supplier) public view returns(Material[] memory ) {\n        return materials[_supplier];\n    }\n    \n    // function getMaterialByName(string memory _name) public view returns (Material[] memory) {\n    //     Material[] memory matTemp;\n    // }\n    \n    \n    \n    \n    function createRequest(address _to , string memory _material , string memory _materialForm, string memory _materialStr, uint _amount) public{\n        requestCount += 1;\n        Request memory req = Request({\n           requestId: requestCount,\n           fromParti: msg.sender,\n           toParti: _to,\n           materialName: _material,\n           materialForm: _materialForm,\n           materialStrength: _materialStr, \n           amount: _amount,\n           issueTime: block.timestamp\n        });\n        \n        requests[msg.sender].push(req);\n    }\n    \n    \n    function getMyRequests() public view returns (Request[] memory) {\n        \n        return requests[msg.sender];\n    }\n    \n    function getRequestByAddress(address _participant) public  view returns(Request[] memory) {\n        \n        return requests[_participant];\n    }\n    \n    \n    function createLog(uint _requestId,\n    string memory _shipStatus,\n    string memory _currentTemp,\n    string memory _currentHumid,\n    string memory _materialStatus\n    ) public  {\n        \n        Log memory myLog = Log({\n            shipStatus: _shipStatus,\n            currentTemp: _currentTemp,\n            currentHumidity: _currentHumid,\n            materialStatus: _materialStatus,\n            logTime: block.timestamp\n        });\n        \n        trackLogs[_requestId].push(myLog);\n    }\n    \n    function getTrackLogs(uint _request) public view returns(Log[] memory) {\n        return trackLogs[_request];\n    }\n    \n    \n    \n}",
  "sourcePath": "/home/mohamedkaram/Documents/Demo-sandbox/contracts/NewDemoTest.sol",
  "compiler": {
    "name": "solc",
    "version": "0.7.4+commit.3f05b770.Emscripten.clang"
  },
  "schemaVersion": "3.3.3",
  "updatedAt": "2021-02-19T17:48:35.583Z",
  "networkType": "ethereum",
  "devdoc": {
    "kind": "dev",
    "methods": {},
    "version": 1
  },
  "userdoc": {
    "kind": "user",
    "methods": {},
    "version": 1
  }
}