{
  "contractName": "NewDemoTest",
  "abi": [
    {
      "inputs": [
        {
          "internalType": "uint256",
          "name": "",
          "type": "uint256"
        }
      ],
      "name": "materialArr",
      "outputs": [
        {
          "internalType": "address",
          "name": "supplier",
          "type": "address"
        },
        {
          "internalType": "string",
          "name": "materialID",
          "type": "string"
        },
        {
          "internalType": "string",
          "name": "materialName",
          "type": "string"
        },
        {
          "internalType": "string",
          "name": "materialStrength",
          "type": "string"
        },
        {
          "internalType": "string",
          "name": "materialForm",
          "type": "string"
        },
        {
          "internalType": "uint256",
          "name": "createdAmount",
          "type": "uint256"
        },
        {
          "internalType": "uint256",
          "name": "unitCost",
          "type": "uint256"
        }
      ],
      "stateMutability": "view",
      "type": "function",
      "constant": true
    },
    {
      "inputs": [
        {
          "internalType": "string",
          "name": "x",
          "type": "string"
        },
        {
          "internalType": "string",
          "name": "y",
          "type": "string"
        }
      ],
      "name": "strComp",
      "outputs": [
        {
          "internalType": "bool",
          "name": "",
          "type": "bool"
        }
      ],
      "stateMutability": "pure",
      "type": "function",
      "constant": true
    },
    {
      "inputs": [
        {
          "internalType": "address",
          "name": "_participant",
          "type": "address"
        }
      ],
      "name": "verifyParticipant",
      "outputs": [],
      "stateMutability": "nonpayable",
      "type": "function"
    },
    {
      "inputs": [
        {
          "internalType": "address",
          "name": "_participant",
          "type": "address"
        }
      ],
      "name": "unverifyParticipant",
      "outputs": [],
      "stateMutability": "nonpayable",
      "type": "function"
    },
    {
      "inputs": [
        {
          "internalType": "address",
          "name": "_participant",
          "type": "address"
        }
      ],
      "name": "isVerfied",
      "outputs": [
        {
          "internalType": "bool",
          "name": "",
          "type": "bool"
        }
      ],
      "stateMutability": "view",
      "type": "function",
      "constant": true
    },
    {
      "inputs": [
        {
          "internalType": "string",
          "name": "_id",
          "type": "string"
        },
        {
          "internalType": "string",
          "name": "_name",
          "type": "string"
        },
        {
          "internalType": "string",
          "name": "_pForm",
          "type": "string"
        }
      ],
      "name": "addProduct",
      "outputs": [],
      "stateMutability": "nonpayable",
      "type": "function"
    },
    {
      "inputs": [
        {
          "internalType": "string",
          "name": "_productID",
          "type": "string"
        },
        {
          "internalType": "string",
          "name": "_name",
          "type": "string"
        },
        {
          "internalType": "string",
          "name": "_type",
          "type": "string"
        },
        {
          "internalType": "string",
          "name": "_strength",
          "type": "string"
        },
        {
          "internalType": "string",
          "name": "_form",
          "type": "string"
        },
        {
          "internalType": "uint256",
          "name": "_amount",
          "type": "uint256"
        }
      ],
      "name": "addProductSpecs",
      "outputs": [],
      "stateMutability": "nonpayable",
      "type": "function"
    },
    {
      "inputs": [
        {
          "internalType": "address",
          "name": "_manufacturer",
          "type": "address"
        }
      ],
      "name": "getProductsByManu",
      "outputs": [
        {
          "components": [
            {
              "internalType": "address",
              "name": "manufacturer",
              "type": "address"
            },
            {
              "internalType": "string",
              "name": "productId",
              "type": "string"
            },
            {
              "internalType": "string",
              "name": "productName",
              "type": "string"
            },
            {
              "internalType": "string",
              "name": "productForm",
              "type": "string"
            },
            {
              "internalType": "uint256",
              "name": "productBudget",
              "type": "uint256"
            }
          ],
          "internalType": "struct NewDemoTest.Product[]",
          "name": "",
          "type": "tuple[]"
        }
      ],
      "stateMutability": "view",
      "type": "function",
      "constant": true
    },
    {
      "inputs": [
        {
          "internalType": "string",
          "name": "_product",
          "type": "string"
        }
      ],
      "name": "getProductSpecs",
      "outputs": [
        {
          "components": [
            {
              "internalType": "string",
              "name": "materialName",
              "type": "string"
            },
            {
              "internalType": "string",
              "name": "materialType",
              "type": "string"
            },
            {
              "internalType": "uint256",
              "name": "materialAmount",
              "type": "uint256"
            },
            {
              "internalType": "string",
              "name": "materialStrength",
              "type": "string"
            },
            {
              "internalType": "string",
              "name": "materialForm",
              "type": "string"
            }
          ],
          "internalType": "struct NewDemoTest.Specs[]",
          "name": "",
          "type": "tuple[]"
        }
      ],
      "stateMutability": "view",
      "type": "function",
      "constant": true
    },
    {
      "inputs": [
        {
          "internalType": "address payable",
          "name": "_addr",
          "type": "address"
        }
      ],
      "name": "setAsBank",
      "outputs": [],
      "stateMutability": "nonpayable",
      "type": "function"
    },
    {
      "inputs": [],
      "name": "getBank",
      "outputs": [
        {
          "internalType": "address",
          "name": "",
          "type": "address"
        }
      ],
      "stateMutability": "view",
      "type": "function",
      "constant": true
    },
    {
      "inputs": [
        {
          "internalType": "address",
          "name": "_userAddr",
          "type": "address"
        },
        {
          "internalType": "string",
          "name": "_userName",
          "type": "string"
        }
      ],
      "name": "createBankAccount",
      "outputs": [],
      "stateMutability": "nonpayable",
      "type": "function"
    },
    {
      "inputs": [
        {
          "internalType": "string",
          "name": "_userName",
          "type": "string"
        }
      ],
      "name": "selfCreateBankAccount",
      "outputs": [],
      "stateMutability": "nonpayable",
      "type": "function"
    },
    {
      "inputs": [
        {
          "internalType": "address",
          "name": "_userAddr",
          "type": "address"
        },
        {
          "internalType": "uint256",
          "name": "_amount",
          "type": "uint256"
        }
      ],
      "name": "deposit",
      "outputs": [
        {
          "internalType": "bool",
          "name": "",
          "type": "bool"
        }
      ],
      "stateMutability": "nonpayable",
      "type": "function"
    },
    {
      "inputs": [
        {
          "internalType": "uint256",
          "name": "_amount",
          "type": "uint256"
        }
      ],
      "name": "selfDeposit",
      "outputs": [
        {
          "internalType": "bool",
          "name": "",
          "type": "bool"
        }
      ],
      "stateMutability": "nonpayable",
      "type": "function"
    },
    {
      "inputs": [
        {
          "internalType": "address",
          "name": "_userAddr",
          "type": "address"
        },
        {
          "internalType": "uint256",
          "name": "_amount",
          "type": "uint256"
        }
      ],
      "name": "withdraw",
      "outputs": [
        {
          "internalType": "bool",
          "name": "",
          "type": "bool"
        }
      ],
      "stateMutability": "nonpayable",
      "type": "function"
    },
    {
      "inputs": [
        {
          "internalType": "uint256",
          "name": "_amount",
          "type": "uint256"
        }
      ],
      "name": "selfWithdraw",
      "outputs": [
        {
          "internalType": "bool",
          "name": "",
          "type": "bool"
        }
      ],
      "stateMutability": "nonpayable",
      "type": "function"
    },
    {
      "inputs": [
        {
          "internalType": "address",
          "name": "_userAddr",
          "type": "address"
        }
      ],
      "name": "getBalance",
      "outputs": [
        {
          "internalType": "uint256",
          "name": "x",
          "type": "uint256"
        }
      ],
      "stateMutability": "view",
      "type": "function",
      "constant": true
    },
    {
      "inputs": [],
      "name": "selfGetBalance",
      "outputs": [
        {
          "internalType": "uint256",
          "name": "x",
          "type": "uint256"
        }
      ],
      "stateMutability": "view",
      "type": "function",
      "constant": true
    },
    {
      "inputs": [
        {
          "internalType": "address",
          "name": "_from",
          "type": "address"
        },
        {
          "internalType": "address",
          "name": "_to",
          "type": "address"
        },
        {
          "internalType": "uint256",
          "name": "_amount",
          "type": "uint256"
        }
      ],
      "name": "transfer",
      "outputs": [
        {
          "internalType": "bool",
          "name": "",
          "type": "bool"
        }
      ],
      "stateMutability": "nonpayable",
      "type": "function"
    },
    {
      "inputs": [
        {
          "internalType": "address",
          "name": "_to",
          "type": "address"
        },
        {
          "internalType": "uint256",
          "name": "_amount",
          "type": "uint256"
        }
      ],
      "name": "selfTransfer",
      "outputs": [
        {
          "internalType": "bool",
          "name": "",
          "type": "bool"
        }
      ],
      "stateMutability": "nonpayable",
      "type": "function"
    },
    {
      "inputs": [
        {
          "internalType": "address",
          "name": "_account",
          "type": "address"
        }
      ],
      "name": "getAccountDetails",
      "outputs": [
        {
          "components": [
            {
              "internalType": "address",
              "name": "userId",
              "type": "address"
            },
            {
              "internalType": "string",
              "name": "userName",
              "type": "string"
            },
            {
              "internalType": "uint256",
              "name": "userBalance",
              "type": "uint256"
            },
            {
              "internalType": "bool",
              "name": "isActive",
              "type": "bool"
            }
          ],
          "internalType": "struct NewDemoTest.BankAccount",
          "name": "",
          "type": "tuple"
        }
      ],
      "stateMutability": "view",
      "type": "function",
      "constant": true
    },
    {
      "inputs": [],
      "name": "selfGetAccountDetails",
      "outputs": [
        {
          "components": [
            {
              "internalType": "address",
              "name": "userId",
              "type": "address"
            },
            {
              "internalType": "string",
              "name": "userName",
              "type": "string"
            },
            {
              "internalType": "uint256",
              "name": "userBalance",
              "type": "uint256"
            },
            {
              "internalType": "bool",
              "name": "isActive",
              "type": "bool"
            }
          ],
          "internalType": "struct NewDemoTest.BankAccount",
          "name": "",
          "type": "tuple"
        }
      ],
      "stateMutability": "view",
      "type": "function",
      "constant": true
    },
    {
      "inputs": [
        {
          "internalType": "string",
          "name": "_product",
          "type": "string"
        },
        {
          "internalType": "uint256",
          "name": "_directMatCost",
          "type": "uint256"
        },
        {
          "internalType": "uint256",
          "name": "_pkgMatCost",
          "type": "uint256"
        },
        {
          "internalType": "uint256",
          "name": "_directLaborCost",
          "type": "uint256"
        },
        {
          "internalType": "uint256",
          "name": "_totIndirectCosts",
          "type": "uint256"
        },
        {
          "internalType": "uint256",
          "name": "_mrkCost",
          "type": "uint256"
        },
        {
          "internalType": "uint256",
          "name": "_rsrchCost",
          "type": "uint256"
        },
        {
          "internalType": "uint256",
          "name": "_productBudget",
          "type": "uint256"
        }
      ],
      "name": "setStdCostPlan",
      "outputs": [],
      "stateMutability": "nonpayable",
      "type": "function"
    },
    {
      "inputs": [
        {
          "internalType": "string",
          "name": "_product",
          "type": "string"
        },
        {
          "internalType": "uint256",
          "name": "_budget",
          "type": "uint256"
        }
      ],
      "name": "setProductBudget",
      "outputs": [],
      "stateMutability": "nonpayable",
      "type": "function"
    },
    {
      "inputs": [
        {
          "internalType": "string",
          "name": "_product",
          "type": "string"
        }
      ],
      "name": "getStdCostPlan",
      "outputs": [
        {
          "components": [
            {
              "internalType": "uint256",
              "name": "directMaterialCost",
              "type": "uint256"
            },
            {
              "internalType": "uint256",
              "name": "packagingMaterialCost",
              "type": "uint256"
            },
            {
              "internalType": "uint256",
              "name": "marketingCost",
              "type": "uint256"
            },
            {
              "internalType": "uint256",
              "name": "researchCost",
              "type": "uint256"
            },
            {
              "internalType": "uint256",
              "name": "directLaborCost",
              "type": "uint256"
            },
            {
              "internalType": "uint256",
              "name": "totalIndirectCost",
              "type": "uint256"
            },
            {
              "internalType": "uint256",
              "name": "CostTOT",
              "type": "uint256"
            }
          ],
          "internalType": "struct NewDemoTest.Cost",
          "name": "",
          "type": "tuple"
        }
      ],
      "stateMutability": "view",
      "type": "function",
      "constant": true
    },
    {
      "inputs": [
        {
          "internalType": "string",
          "name": "_product",
          "type": "string"
        },
        {
          "internalType": "uint256",
          "name": "_actualMatCost",
          "type": "uint256"
        },
        {
          "internalType": "uint256",
          "name": "_actualPkgMatCost",
          "type": "uint256"
        },
        {
          "internalType": "uint256",
          "name": "_actualLaborCost",
          "type": "uint256"
        },
        {
          "internalType": "uint256",
          "name": "_actualIndirectCost",
          "type": "uint256"
        },
        {
          "internalType": "uint256",
          "name": "_actualMrkCost",
          "type": "uint256"
        },
        {
          "internalType": "uint256",
          "name": "_actualRsrchCost",
          "type": "uint256"
        }
      ],
      "name": "setActualCost",
      "outputs": [],
      "stateMutability": "nonpayable",
      "type": "function"
    },
    {
      "inputs": [
        {
          "internalType": "string",
          "name": "_product",
          "type": "string"
        }
      ],
      "name": "getActualCost",
      "outputs": [
        {
          "components": [
            {
              "internalType": "uint256",
              "name": "directMaterialCost",
              "type": "uint256"
            },
            {
              "internalType": "uint256",
              "name": "packagingMaterialCost",
              "type": "uint256"
            },
            {
              "internalType": "uint256",
              "name": "marketingCost",
              "type": "uint256"
            },
            {
              "internalType": "uint256",
              "name": "researchCost",
              "type": "uint256"
            },
            {
              "internalType": "uint256",
              "name": "directLaborCost",
              "type": "uint256"
            },
            {
              "internalType": "uint256",
              "name": "totalIndirectCost",
              "type": "uint256"
            },
            {
              "internalType": "uint256",
              "name": "CostTOT",
              "type": "uint256"
            }
          ],
          "internalType": "struct NewDemoTest.Cost",
          "name": "",
          "type": "tuple"
        }
      ],
      "stateMutability": "view",
      "type": "function",
      "constant": true
    },
    {
      "inputs": [
        {
          "internalType": "string",
          "name": "_id",
          "type": "string"
        },
        {
          "internalType": "string",
          "name": "_name",
          "type": "string"
        },
        {
          "internalType": "string",
          "name": "_str",
          "type": "string"
        },
        {
          "internalType": "string",
          "name": "_form",
          "type": "string"
        },
        {
          "internalType": "uint256",
          "name": "_amount",
          "type": "uint256"
        },
        {
          "internalType": "uint256",
          "name": "_unitCost",
          "type": "uint256"
        }
      ],
      "name": "createMaterial",
      "outputs": [],
      "stateMutability": "nonpayable",
      "type": "function"
    },
    {
      "inputs": [
        {
          "internalType": "address",
          "name": "_supplier",
          "type": "address"
        }
      ],
      "name": "getMaterialsBySupplier",
      "outputs": [
        {
          "components": [
            {
              "internalType": "address",
              "name": "supplier",
              "type": "address"
            },
            {
              "internalType": "string",
              "name": "materialID",
              "type": "string"
            },
            {
              "internalType": "string",
              "name": "materialName",
              "type": "string"
            },
            {
              "internalType": "string",
              "name": "materialStrength",
              "type": "string"
            },
            {
              "internalType": "string",
              "name": "materialForm",
              "type": "string"
            },
            {
              "internalType": "uint256",
              "name": "createdAmount",
              "type": "uint256"
            },
            {
              "internalType": "uint256",
              "name": "unitCost",
              "type": "uint256"
            }
          ],
          "internalType": "struct NewDemoTest.Material[]",
          "name": "",
          "type": "tuple[]"
        }
      ],
      "stateMutability": "view",
      "type": "function",
      "constant": true
    },
    {
      "inputs": [
        {
          "internalType": "address",
          "name": "_to",
          "type": "address"
        },
        {
          "internalType": "string",
          "name": "_material",
          "type": "string"
        },
        {
          "internalType": "string",
          "name": "_materialForm",
          "type": "string"
        },
        {
          "internalType": "string",
          "name": "_materialStr",
          "type": "string"
        },
        {
          "internalType": "uint256",
          "name": "_amount",
          "type": "uint256"
        }
      ],
      "name": "createRequest",
      "outputs": [],
      "stateMutability": "nonpayable",
      "type": "function"
    },
    {
      "inputs": [],
      "name": "getMyRequests",
      "outputs": [
        {
          "components": [
            {
              "internalType": "uint256",
              "name": "requestId",
              "type": "uint256"
            },
            {
              "internalType": "address",
              "name": "fromParti",
              "type": "address"
            },
            {
              "internalType": "address",
              "name": "toParti",
              "type": "address"
            },
            {
              "internalType": "string",
              "name": "materialName",
              "type": "string"
            },
            {
              "internalType": "string",
              "name": "materialForm",
              "type": "string"
            },
            {
              "internalType": "string",
              "name": "materialStrength",
              "type": "string"
            },
            {
              "internalType": "uint256",
              "name": "amount",
              "type": "uint256"
            },
            {
              "internalType": "uint256",
              "name": "issueTime",
              "type": "uint256"
            }
          ],
          "internalType": "struct NewDemoTest.Request[]",
          "name": "",
          "type": "tuple[]"
        }
      ],
      "stateMutability": "view",
      "type": "function",
      "constant": true
    },
    {
      "inputs": [
        {
          "internalType": "address",
          "name": "_participant",
          "type": "address"
        }
      ],
      "name": "getRequestByAddress",
      "outputs": [
        {
          "components": [
            {
              "internalType": "uint256",
              "name": "requestId",
              "type": "uint256"
            },
            {
              "internalType": "address",
              "name": "fromParti",
              "type": "address"
            },
            {
              "internalType": "address",
              "name": "toParti",
              "type": "address"
            },
            {
              "internalType": "string",
              "name": "materialName",
              "type": "string"
            },
            {
              "internalType": "string",
              "name": "materialForm",
              "type": "string"
            },
            {
              "internalType": "string",
              "name": "materialStrength",
              "type": "string"
            },
            {
              "internalType": "uint256",
              "name": "amount",
              "type": "uint256"
            },
            {
              "internalType": "uint256",
              "name": "issueTime",
              "type": "uint256"
            }
          ],
          "internalType": "struct NewDemoTest.Request[]",
          "name": "",
          "type": "tuple[]"
        }
      ],
      "stateMutability": "view",
      "type": "function",
      "constant": true
    },
    {
      "inputs": [
        {
          "internalType": "uint256",
          "name": "_requestId",
          "type": "uint256"
        },
        {
          "internalType": "string",
          "name": "_shipStatus",
          "type": "string"
        },
        {
          "internalType": "string",
          "name": "_currentTemp",
          "type": "string"
        },
        {
          "internalType": "string",
          "name": "_currentHumid",
          "type": "string"
        },
        {
          "internalType": "string",
          "name": "_materialStatus",
          "type": "string"
        }
      ],
      "name": "createLog",
      "outputs": [],
      "stateMutability": "nonpayable",
      "type": "function"
    },
    {
      "inputs": [
        {
          "internalType": "uint256",
          "name": "_request",
          "type": "uint256"
        }
      ],
      "name": "getTrackLogs",
      "outputs": [
        {
          "components": [
            {
              "internalType": "string",
              "name": "shipStatus",
              "type": "string"
            },
            {
              "internalType": "string",
              "name": "currentTemp",
              "type": "string"
            },
            {
              "internalType": "string",
              "name": "currentHumidity",
              "type": "string"
            },
            {
              "internalType": "string",
              "name": "materialStatus",
              "type": "string"
            },
            {
              "internalType": "uint256",
              "name": "logTime",
              "type": "uint256"
            }
          ],
          "internalType": "struct NewDemoTest.Log[]",
          "name": "",
          "type": "tuple[]"
        }
      ],
      "stateMutability": "view",
      "type": "function",
      "constant": true
    }
  ],
  "bytecode": "0x6080604052600060025534801561001557600080fd5b50613a87806100256000396000f3fe608060405234801561001057600080fd5b50600436106102115760003560e01c8063643a7695116101255780639d102329116100ad578063f3fef3a31161007c578063f3fef3a3146104c4578063f583736d146104d7578063f8b2cb4f146104ea578063fb3684fb146104fd578063fd91dcca1461051057610211565b80639d1023291461046b578063beabacc81461047e578063de67ef8a14610491578063eda953f2146104b157610211565b80636fe57a77116100f45780636fe57a771461040857806379b5e182146104285780637f5cf16e146104305780638a515a561461045057806391eace8b1461046357610211565b8063643a7695146103a95780636cc8c6a8146103bc5780636eac3eb8146103e25780636f2e836a146103f557610211565b80632aceb534116101a8578063477dec5d11610177578063477dec5d1461033b57806347e7ef241461034e5780634a0d37a21461036e57806359c8351f1461038157806360d704db1461039457610211565b80632aceb534146102e25780632b743578146103025780632fc819161461031557806343a6785b1461032857610211565b80630e34b00e116101e45780630e34b00e1461028757806312917b8e1461029a5780631fa91673146102ba5780632a22f0fc146102cd57610211565b806306177b4e14610216578063082800931461023f578063096a71e2146102545780630afad95e14610274575b600080fd5b610229610224366004612d58565b610523565b6040516102369190613500565b60405180910390f35b61025261024d366004613170565b610810565b005b610267610262366004612ecc565b610916565b60405161023691906139b2565b6102526102823660046131b3565b610994565b610252610295366004612f5e565b610a46565b6102ad6102a8366004613294565b610b1e565b604051610236919061343c565b6102526102c8366004612ecc565b610de6565b6102d5610e8c565b6040516102369190613a00565b6102f56102f0366004612d58565b610eee565b6040516102369190613962565b610252610310366004612e02565b610fe9565b610252610323366004612db4565b61110e565b6102526103363660046132ac565b6111b7565b610252610349366004612d58565b611289565b61036161035c366004612ea1565b6112ab565b6040516102369190613814565b61025261037c3660046130b6565b61134b565b61036161038f366004612f07565b611619565b61039c611672565b60405161023691906133b3565b6102526103b7366004612d58565b611681565b6103cf6103ca366004613294565b6116a5565b60405161023697969594939291906133c7565b6102676103f0366004612ecc565b61192a565b610361610403366004613294565b611942565b61041b610416366004612d58565b6119f9565b6040516102369190613686565b6102f5611c57565b61044361043e366004612ecc565b611d4f565b604051610236919061375e565b61036161045e366004612ea1565b612025565b61041b61213f565b610361610479366004613294565b61239d565b61036161048c366004612d74565b612425565b6104a461049f366004612d58565b612553565b60405161023691906135d5565b6103616104bf366004612d58565b612796565b6103616104d2366004612ea1565b6127b4565b6102526104e5366004612d58565b61286d565b6102d56104f8366004612d58565b61288e565b61025261050b36600461321f565b6128f6565b61025261051e366004612fe2565b6129b3565b6001600160a01b0381166000908152600660209081526040808320805482518185028101850190935280835260609492939192909184015b828210156108045760008481526020908190206040805160e0810182526007860290920180546001600160a01b03168352600180820180548451600261010094831615949094026000190190911692909204601f81018790048702830187019094528382529394919385830193919290919083018282801561061e5780601f106105f35761010080835404028352916020019161061e565b820191906000526020600020905b81548152906001019060200180831161060157829003601f168201915b5050509183525050600282810180546040805160206001841615610100026000190190931694909404601f810183900483028501830190915280845293810193908301828280156106b05780601f10610685576101008083540402835291602001916106b0565b820191906000526020600020905b81548152906001019060200180831161069357829003601f168201915b505050918352505060038201805460408051602060026001851615610100026000190190941693909304601f81018490048402820184019092528181529382019392918301828280156107445780601f1061071957610100808354040283529160200191610744565b820191906000526020600020905b81548152906001019060200180831161072757829003601f168201915b505050918352505060048201805460408051602060026001851615610100026000190190941693909304601f81018490048402820184019092528181529382019392918301828280156107d85780601f106107ad576101008083540402835291602001916107d8565b820191906000526020600020905b8154815290600101906020018083116107bb57829003601f168201915b50505050508152602001600582015481526020016006820154815250508152602001906001019061055b565b5050505090505b919050565b33600090815260046020526040812080546108dd9285929161082e57fe5b90600052602060002090600502016001018054600181600116156101000203166002900480601f0160208091040260200160405190810160405280929190818152602001828054600181600116156101000203166002900480156108d35780601f106108a8576101008083540402835291602001916108d3565b820191906000526020600020905b8154815290600101906020018083116108b657829003601f168201915b5050505050611619565b156109125733600090815260046020526040812080548392906108fc57fe5b9060005260206000209060050201600401819055505b5050565b61091e612a9a565b600b8260405161092e9190613397565b90815260200160405180910390206040518060e00160405290816000820154815260200160018201548152602001600282015481526020016003820154815260200160048201548152602001600582015481526020016006820154815250509050919050565b61099c612a9a565b6040518060e00160405280888152602001878152602001848152602001838152602001868152602001858152602001838587898b8d0101010101815250905080600b896040516109ec9190613397565b9081526040805160209281900383019020835181559183015160018301558201516002820155606082015160038201556080820151600482015560a0820151600582015560c0909101516006909101555050505050505050565b610a4e612ad7565b506040805160a081018252338082526020808301878152838501879052606084018690526000608085018190529283526004825293822080546001808201835591845292829020845160059094020180546001600160a01b0319166001600160a01b039094169390931783559351805193948594610ad3939185019290910190612b0f565b5060408201518051610aef916002840191602090910190612b0f565b5060608201518051610b0b916003840191602090910190612b0f565b5060808201518160040155505050505050565b606060096000838152602001908152602001600020805480602002602001604051908101604052809291908181526020016000905b828210156108045760008481526020908190206040805160058602909201805460026001821615610100026000190190911604601f8101859004909402830160c090810190925260a0830184815292939092849290918491840182828015610bfc5780601f10610bd157610100808354040283529160200191610bfc565b820191906000526020600020905b815481529060010190602001808311610bdf57829003601f168201915b50505050508152602001600182018054600181600116156101000203166002900480601f016020809104026020016040519081016040528092919081815260200182805460018160011615610100020316600290048015610c9e5780601f10610c7357610100808354040283529160200191610c9e565b820191906000526020600020905b815481529060010190602001808311610c8157829003601f168201915b5050509183525050600282810180546040805160206001841615610100026000190190931694909404601f81018390048302850183019091528084529381019390830182828015610d305780601f10610d0557610100808354040283529160200191610d30565b820191906000526020600020905b815481529060010190602001808311610d1357829003601f168201915b505050918352505060038201805460408051602060026001851615610100026000190190941693909304601f8101849004840282018401909252818152938201939291830182828015610dc45780601f10610d9957610100808354040283529160200191610dc4565b820191906000526020600020905b815481529060010190602001808311610da757829003601f168201915b5050505050815260200160048201548152505081526020019060010190610b53565b610dee612b9b565b5060408051608081018252338082526020808301858152600084860181905260016060860181905280546001600160a01b039081168352600d8552878320958352948452959020845181546001600160a01b031916941693909317835551805193948594610e63939185019290910190612b0f565b50604082015160028201556060909101516003909101805460ff19169115159190911790555050565b6001546001600160a01b039081166000908152600d602090815260408083203380855292528220549192919091161415610eeb57506001546001600160a01b03166000908152600d602090815260408083203384529091529020600201545b90565b610ef6612b9b565b600180546001600160a01b039081166000908152600d60209081526040808320878516845282529182902082516080810184528154909416845280850180548451600261010098831615989098026000190190911696909604601f810184900484028701840190945283865293949093858301939192909190830182828015610fc05780601f10610f9557610100808354040283529160200191610fc0565b820191906000526020600020905b815481529060010190602001808311610fa357829003601f168201915b50505091835250506002820154602082015260039091015460ff16151560409091015292915050565b600280546001019055610ffa612bce565b5060408051610100810182526002805482523360208084018281526001600160a01b038b8116868801908152606087018c8152608088018c905260a088018b905260c088018a90524260e08901526000958652600880865298862080546001818101835591885296869020895197909a02909901958655925197850180549883166001600160a01b0319998a1617905551948401805495909116949096169390931790945590518051929384936110b79260038501920190612b0f565b50608082015180516110d3916004840191602090910190612b0f565b5060a082015180516110ef916005840191602090910190612b0f565b5060c0820151816006015560e082015181600701555050505050505050565b611116612b9b565b50604080516080810182526001600160a01b0384811680835260208084018681526000858701819052600160608701819052805486168252600d845287822094825293835295909520845181546001600160a01b0319169416939093178355935180519394859461118d9385019290910190612b0f565b50604082015160028201556060909101516003909101805460ff1916911515919091179055505050565b6111bf612c25565b506040805160a081018252858152602080820186905281830185905260608201849052426080830152600088815260098252928320805460018101825590845292819020825180519394859460059091029092019261122392849290910190612b0f565b50602082810151805161123c9260018501920190612b0f565b5060408201518051611258916002840191602090910190612b0f565b5060608201518051611274916003840191602090910190612b0f565b50608082015181600401555050505050505050565b600180546001600160a01b0319166001600160a01b0392909216919091179055565b60008082116112d55760405162461bcd60e51b81526004016112cc9061381f565b60405180910390fd5b6001546001600160a01b039081166000908152600d6020908152604080832084881680855292529091205490911614156113415750600180546001600160a01b039081166000908152600d60209081526040808320938716835292905220600201805483019055611345565b5060005b92915050565b611353612c54565b506040805160e0810182523380825260208083018a81528385018a9052606084018990526080840188905260a0840187905260c0840186905260009283526006825293822080546001808201835591845292829020845160079094020180546001600160a01b0319166001600160a01b0390941693909317835593518051939485946113e6939185019290910190612b0f565b5060408201518051611402916002840191602090910190612b0f565b506060820151805161141e916003840191602090910190612b0f565b506080820151805161143a916004840191602090910190612b0f565b5060a0820151816005015560c082015181600601555050806007876040516114629190613397565b90815260405160209181900382019020825181546001600160a01b0319166001600160a01b0390911617815582820151805191926114a892600185019290910190612b0f565b50604082015180516114c4916002840191602090910190612b0f565b50606082015180516114e0916003840191602090910190612b0f565b50608082015180516114fc916004840191602090910190612b0f565b5060a0820151600582015560c090910151600690910155600e805460018101825560009190915281517fbb7b4a454dc3493923482f07822329ed19e8244eff582cc204f8554c3620c3fd600790920291820180546001600160a01b0319166001600160a01b03909216919091178155602080840151805185946115a5937fbb7b4a454dc3493923482f07822329ed19e8244eff582cc204f8554c3620c3fe909101920190612b0f565b50604082015180516115c1916002840191602090910190612b0f565b50606082015180516115dd916003840191602090910190612b0f565b50608082015180516115f9916004840191602090910190612b0f565b5060a0820151816005015560c08201518160060155505050505050505050565b60008160405160200161162c9190613397565b60405160208183030381529060405280519060200120836040516020016116539190613397565b6040516020818303038152906040528051906020012014905092915050565b6001546001600160a01b031690565b6001600160a01b03166000908152600360205260409020805460ff19166001179055565b600e81815481106116b557600080fd5b600091825260209182902060079091020180546001808301805460408051601f60026000199685161561010002969096019093169490940491820187900487028401870190528083526001600160a01b0390931695509293909291908301828280156117625780601f1061173757610100808354040283529160200191611762565b820191906000526020600020905b81548152906001019060200180831161174557829003601f168201915b50505060028085018054604080516020601f60001961010060018716150201909416959095049283018590048502810185019091528181529596959450909250908301828280156117f45780601f106117c9576101008083540402835291602001916117f4565b820191906000526020600020905b8154815290600101906020018083116117d757829003601f168201915b5050505060038301805460408051602060026001851615610100026000190190941693909304601f81018490048402820184019092528181529495949350908301828280156118845780601f1061185957610100808354040283529160200191611884565b820191906000526020600020905b81548152906001019060200180831161186757829003601f168201915b5050505060048301805460408051602060026001851615610100026000190190941693909304601f81018490048402820184019092528181529495949350908301828280156119145780601f106118e957610100808354040283529160200191611914565b820191906000526020600020905b8154815290600101906020018083116118f757829003601f168201915b5050505050908060050154908060060154905087565b611932612a9a565b600a8260405161092e9190613397565b6001546001600160a01b03166000908152600d6020908152604080832033845290915281206002015482106119895760405162461bcd60e51b81526004016112cc906138a1565b6001546001600160a01b039081166000908152600d602090815260408083203380855292529091205490911614156119f15750600180546001600160a01b03166000908152600d6020908152604080832033845290915290206002018054839003905561080b565b50600061080b565b6001600160a01b0381166000908152600860209081526040808320805482518185028101850190935280835260609492939192909184015b8282101561080457600084815260209081902060408051610100808201835260088702909301805482526001808201546001600160a01b0390811684880152600280840154909116848601526003830180548651938116159097026000190190961604601f81018790048702820187019094528381529194909360608601939091830182828015611b035780601f10611ad857610100808354040283529160200191611b03565b820191906000526020600020905b815481529060010190602001808311611ae657829003601f168201915b505050918352505060048201805460408051602060026001851615610100026000190190941693909304601f8101849004840282018401909252818152938201939291830182828015611b975780601f10611b6c57610100808354040283529160200191611b97565b820191906000526020600020905b815481529060010190602001808311611b7a57829003601f168201915b505050918352505060058201805460408051602060026001851615610100026000190190941693909304601f8101849004840282018401909252818152938201939291830182828015611c2b5780601f10611c0057610100808354040283529160200191611c2b565b820191906000526020600020905b815481529060010190602001808311611c0e57829003601f168201915b505050505081526020016006820154815260200160078201548152505081526020019060010190611a31565b611c5f612b9b565b600180546001600160a01b039081166000908152600d6020908152604080832033845282529182902082516080810184528154909416845280850180548451600261010098831615989098026000190190911696909604601f810184900484028701840190945283865293949093858301939192909190830182828015611d275780601f10611cfc57610100808354040283529160200191611d27565b820191906000526020600020905b815481529060010190602001808311611d0a57829003601f168201915b50505091835250506002820154602082015260039091015460ff161515604090910152905090565b6060600582604051611d619190613397565b9081526020016040518091039020805480602002602001604051908101604052809291908181526020016000905b828210156108045760008481526020908190206040805160058602909201805460026001821615610100026000190190911604601f8101859004909402830160c090810190925260a0830184815292939092849290918491840182828015611e385780601f10611e0d57610100808354040283529160200191611e38565b820191906000526020600020905b815481529060010190602001808311611e1b57829003601f168201915b50505050508152602001600182018054600181600116156101000203166002900480601f016020809104026020016040519081016040528092919081815260200182805460018160011615610100020316600290048015611eda5780601f10611eaf57610100808354040283529160200191611eda565b820191906000526020600020905b815481529060010190602001808311611ebd57829003601f168201915b505050918352505060028281015460208084019190915260038401805460408051601f60001961010060018616150201909316959095049182018490048402850184018152818552909401939091830182828015611f795780601f10611f4e57610100808354040283529160200191611f79565b820191906000526020600020905b815481529060010190602001808311611f5c57829003601f168201915b505050918352505060048201805460408051602060026001851615610100026000190190941693909304601f810184900484028201840190925281815293820193929183018282801561200d5780601f10611fe25761010080835404028352916020019161200d565b820191906000526020600020905b815481529060010190602001808311611ff057829003601f168201915b50505050508152505081526020019060010190611d8f565b6001546001600160a01b03166000908152600d6020908152604080832033845290915281206002015482111561206d5760405162461bcd60e51b81526004016112cc90613905565b6001546001600160a01b039081166000908152600d60209081526040808320338085529252909120549091161480156120d55750600180546001600160a01b039081166000908152600d602090815260408083209388168352929052206003015460ff161515145b156113415750600180546001600160a01b039081166000908152600d602081815260408084203385528252808420600290810180548a8816808852848820840154918b90039092558854909716865293835281852093855292909152909120918401910155611345565b336000908152600860209081526040808320805482518185028101850190935280835260609492939192909184015b8282101561239457600084815260209081902060408051610100808201835260088702909301805482526001808201546001600160a01b0390811684880152600280840154909116848601526003830180548651938116159097026000190190961604601f810187900487028201870190945283815291949093606086019390918301828280156122405780601f1061221557610100808354040283529160200191612240565b820191906000526020600020905b81548152906001019060200180831161222357829003601f168201915b505050918352505060048201805460408051602060026001851615610100026000190190941693909304601f81018490048402820184019092528181529382019392918301828280156122d45780601f106122a9576101008083540402835291602001916122d4565b820191906000526020600020905b8154815290600101906020018083116122b757829003601f168201915b505050918352505060058201805460408051602060026001851615610100026000190190941693909304601f81018490048402820184019092528181529382019392918301828280156123685780601f1061233d57610100808354040283529160200191612368565b820191906000526020600020905b81548152906001019060200180831161234b57829003601f168201915b50505050508152602001600682015481526020016007820154815250508152602001906001019061216e565b50505050905090565b60008082116123be5760405162461bcd60e51b81526004016112cc9061381f565b6001546001600160a01b039081166000908152600d602090815260408083203380855292529091205490911614156119f15750600180546001600160a01b03166000908152600d60209081526040808320338452909152902060020180548301905561080b565b6001546001600160a01b039081166000908152600d602090815260408083209387168352929052908120600201548211156124725760405162461bcd60e51b81526004016112cc90613856565b6001546001600160a01b039081166000908152600d602090815260408083208489168085529252909120549091161480156124dc5750600180546001600160a01b039081166000908152600d602090815260408083209388168352929052206003015460ff161515145b156125485750600180546001600160a01b039081166000908152600d6020818152604080842089861685528252808420600290810180548a8816808852848820840154918b9003909255885490971686529383528185209385529290915290912091840191015561254c565b5060005b9392505050565b6001600160a01b0381166000908152600460209081526040808320805482518185028101850190935280835260609492939192909184015b828210156108045760008481526020908190206040805160a0810182526005860290920180546001600160a01b03168352600180820180548451600261010094831615949094026000190190911692909204601f81018790048702830187019094528382529394919385830193919290919083018282801561264e5780601f106126235761010080835404028352916020019161264e565b820191906000526020600020905b81548152906001019060200180831161263157829003601f168201915b5050509183525050600282810180546040805160206001841615610100026000190190931694909404601f810183900483028501830190915280845293810193908301828280156126e05780601f106126b5576101008083540402835291602001916126e0565b820191906000526020600020905b8154815290600101906020018083116126c357829003601f168201915b505050918352505060038201805460408051602060026001851615610100026000190190941693909304601f81018490048402820184019092528181529382019392918301828280156127745780601f1061274957610100808354040283529160200191612774565b820191906000526020600020905b81548152906001019060200180831161275757829003601f168201915b505050505081526020016004820154815250508152602001906001019061258b565b6001600160a01b031660009081526003602052604090205460ff1690565b6001546001600160a01b039081166000908152600d6020908152604080832093861683529290529081206002015482106128005760405162461bcd60e51b81526004016112cc906138d8565b6001546001600160a01b039081166000908152600d6020908152604080832084881680855292529091205490911614156113415750600180546001600160a01b039081166000908152600d6020908152604080832093871683529290522060020180548390039055611345565b6001600160a01b03166000908152600360205260409020805460ff19169055565b6001546001600160a01b039081166000908152600d602090815260408083208486168085529252822054919291909116141561080b57506001546001600160a01b039081166000908152600d602090815260408083209385168352929052206002015461080b565b6128fe612a9a565b6040518060e001604052808981526020018881526020018581526020018481526020018781526020018681526020018486888a8c8e0101010101815250905080600a8a60405161294e9190613397565b9081526040805160209281900383019020835181559183015160018301558201516002820155606082015160038201556080820151600482015560a0820151600582015560c0909101516006909101556129a88983610810565b505050505050505050565b6129bb612c9a565b6040518060a001604052808781526020018681526020018381526020018581526020018481525090506005876040516129f49190613397565b908152604051602091819003820190208054600181018255600091825290829020835180518594600590940290920192612a3392849290910190612b0f565b506020828101518051612a4c9260018501920190612b0f565b506040820151600282015560608201518051612a72916003840191602090910190612b0f565b5060808201518051612a8e916004840191602090910190612b0f565b50505050505050505050565b6040518060e00160405280600081526020016000815260200160008152602001600081526020016000815260200160008152602001600081525090565b6040518060a0016040528060006001600160a01b03168152602001606081526020016060815260200160608152602001600081525090565b828054600181600116156101000203166002900490600052602060002090601f016020900481019282612b455760008555612b8b565b82601f10612b5e57805160ff1916838001178555612b8b565b82800160010185558215612b8b579182015b82811115612b8b578251825591602001919060010190612b70565b50612b97929150612cc9565b5090565b604051806080016040528060006001600160a01b0316815260200160608152602001600081526020016000151581525090565b6040518061010001604052806000815260200160006001600160a01b0316815260200160006001600160a01b0316815260200160608152602001606081526020016060815260200160008152602001600081525090565b6040518060a0016040528060608152602001606081526020016060815260200160608152602001600081525090565b6040518060e0016040528060006001600160a01b031681526020016060815260200160608152602001606081526020016060815260200160008152602001600081525090565b6040518060a0016040528060608152602001606081526020016000815260200160608152602001606081525090565b5b80821115612b975760008155600101612cca565b600082601f830112612cee578081fd5b813567ffffffffffffffff80821115612d0357fe5b604051601f8301601f191681016020018281118282101715612d2157fe5b604052828152925082848301602001861015612d3c57600080fd5b8260208601602083013760006020848301015250505092915050565b600060208284031215612d69578081fd5b813561254c81613a39565b600080600060608486031215612d88578182fd5b8335612d9381613a39565b92506020840135612da381613a39565b929592945050506040919091013590565b60008060408385031215612dc6578182fd5b8235612dd181613a39565b9150602083013567ffffffffffffffff811115612dec578182fd5b612df885828601612cde565b9150509250929050565b600080600080600060a08688031215612e19578081fd5b8535612e2481613a39565b9450602086013567ffffffffffffffff80821115612e40578283fd5b612e4c89838a01612cde565b95506040880135915080821115612e61578283fd5b612e6d89838a01612cde565b94506060880135915080821115612e82578283fd5b50612e8f88828901612cde565b95989497509295608001359392505050565b60008060408385031215612eb3578182fd5b8235612ebe81613a39565b946020939093013593505050565b600060208284031215612edd578081fd5b813567ffffffffffffffff811115612ef3578182fd5b612eff84828501612cde565b949350505050565b60008060408385031215612f19578182fd5b823567ffffffffffffffff80821115612f30578384fd5b612f3c86838701612cde565b93506020850135915080821115612f51578283fd5b50612df885828601612cde565b600080600060608486031215612f72578283fd5b833567ffffffffffffffff80821115612f89578485fd5b612f9587838801612cde565b94506020860135915080821115612faa578384fd5b612fb687838801612cde565b93506040860135915080821115612fcb578283fd5b50612fd886828701612cde565b9150509250925092565b60008060008060008060c08789031215612ffa578081fd5b863567ffffffffffffffff80821115613011578283fd5b61301d8a838b01612cde565b97506020890135915080821115613032578283fd5b61303e8a838b01612cde565b96506040890135915080821115613053578283fd5b61305f8a838b01612cde565b95506060890135915080821115613074578283fd5b6130808a838b01612cde565b94506080890135915080821115613095578283fd5b506130a289828a01612cde565b92505060a087013590509295509295509295565b60008060008060008060c087890312156130ce578182fd5b863567ffffffffffffffff808211156130e5578384fd5b6130f18a838b01612cde565b97506020890135915080821115613106578384fd5b6131128a838b01612cde565b96506040890135915080821115613127578384fd5b6131338a838b01612cde565b95506060890135915080821115613148578384fd5b5061315589828a01612cde565b9350506080870135915060a087013590509295509295509295565b60008060408385031215613182578182fd5b823567ffffffffffffffff811115613198578283fd5b6131a485828601612cde565b95602094909401359450505050565b600080600080600080600060e0888a0312156131cd578081fd5b873567ffffffffffffffff8111156131e3578182fd5b6131ef8a828b01612cde565b9a60208a01359a5060408a013599606081013599506080810135985060a0810135975060c0013595509350505050565b600080600080600080600080610100898b03121561323b578182fd5b883567ffffffffffffffff811115613251578283fd5b61325d8b828c01612cde565b9b60208b01359b5060408b01359a60608101359a506080810135995060a0810135985060c0810135975060e0013595509350505050565b6000602082840312156132a5578081fd5b5035919050565b600080600080600060a086880312156132c3578283fd5b85359450602086013567ffffffffffffffff808211156132e1578485fd5b6132ed89838a01612cde565b95506040880135915080821115613302578485fd5b61330e89838a01612cde565b94506060880135915080821115613323578283fd5b61332f89838a01612cde565b93506080880135915080821115613344578283fd5b5061335188828901612cde565b9150509295509295909350565b6001600160a01b03169052565b60008151808452613383816020860160208601613a09565b601f01601f19169290920160200192915050565b600082516133a9818460208701613a09565b9190910192915050565b6001600160a01b0391909116815260200190565b6001600160a01b038816815260e0602082018190526000906133eb9083018961336b565b82810360408401526133fd818961336b565b90508281036060840152613411818861336b565b90508281036080840152613425818761336b565b60a0840195909552505060c0015295945050505050565b60208082528251828201819052600091906040908185019080840286018301878501865b838110156134f257603f19898403018552815160a081518186526134868287018261336b565b915050888201518582038a87015261349e828261336b565b91505087820151858203898701526134b6828261336b565b915050606080830151868303828801526134d0838261336b565b6080948501519790940196909652505094870194925090860190600101613460565b509098975050505050505050565b60208082528251828201819052600091906040908185019080840286018301878501865b838110156134f257888303603f19018552815180516001600160a01b031684528781015160e08986018190529061355d8287018261336b565b9150508782015185820389870152613575828261336b565b9150506060808301518683038288015261358f838261336b565b92505050608080830151868303828801526135aa838261336b565b60a0858101519089015260c09485015194909701939093525050509386019390860190600101613524565b60208082528251828201819052600091906040908185019080840286018301878501865b838110156134f257888303603f19018552815180516001600160a01b031684528781015160a0898601819052906136328287018261336b565b915050878201518582038987015261364a828261336b565b91505060608083015186830382880152613664838261336b565b60809485015197909401969096525050948701949250908601906001016135f9565b60208082528251828201819052600091906040908185019080840286018301878501865b838110156134f257603f19898403018552815161010081518552888201516136d48a87018261335e565b50878201516136e58987018261335e565b5060608083015182828801526136fd8388018261336b565b9250505060808083015186830382880152613718838261336b565b9250505060a08083015186830382880152613733838261336b565b60c0858101519089015260e094850151949097019390935250505093860193908601906001016136aa565b60208082528251828201819052600091906040908185019080840286018301878501865b838110156134f257603f19898403018552815160a081518186526137a88287018261336b565b915050888201518582038a8701526137c0828261336b565b9150508782015188860152606080830151868303828801526137e2838261336b565b9250505060808083015192508582038187015250613800818361336b565b968901969450505090860190600101613782565b901515815260200190565b6020808252601d908201527f456e74657220412056616c6964204465706f73697420416d6f756e7421000000604082015260600190565b6020808252602b908201527f4e6f7420456e6f7567682042616c616e636520746f205472616e73666572205460408201526a68697320416d6f756e742160a81b606082015260800190565b6020808252601f908201527f596f7520446f204e6f74204861766520456e6f7567682042616c616e63652100604082015260600190565b6020808252601390820152724e6f7420456e6f7567682042616c616e63652160681b604082015260600190565b60208082526037908201527f596f7520446f204e6f74204861766520456e6f7567682042616c616e6365207460408201527f6f205472616e73666572205468697320416d6f756e7421000000000000000000606082015260800190565b602080825282516001600160a01b0316828201528201516080604083015260009061399060a084018261336b565b9050604084015160608401526060840151151560808401528091505092915050565b600060e082019050825182526020830151602083015260408301516040830152606083015160608301526080830151608083015260a083015160a083015260c083015160c083015292915050565b90815260200190565b60005b83811015613a24578181015183820152602001613a0c565b83811115613a33576000848401525b50505050565b6001600160a01b0381168114613a4e57600080fd5b5056fea2646970667358221220b5303b70111fe5ad552f35ad4c436830ee5460e97613ac3816ea9de55319dfe664736f6c63430007040033",
  "immutableReferences": {},
  "source": "/*\n    THIS CONTRACT IMPLEMENTATION ALLOWS A USER TO:\n    \n    1- Add products with their specs. (manufacturer)\n    2- Create materials. (suppplier).\n    3- Request materials from suppliers. (manufacturer)\n    4- Track requests status. (manufacturer)\n    5- Create and manage a bank account.\n*/\n\n\n// \"SPDX-License-Identifier: UNLICENSED\"\npragma solidity >=0.6.2;\npragma experimental ABIEncoderV2;  \n\ncontract NewDemoTest {\n    \n    // UTILS\n    \n    function strComp(string memory x , string memory y ) public pure returns (bool){\n        \n        return (keccak256(abi.encodePacked((x))) == keccak256(abi.encodePacked((y))));\n        \n    }\n    \n    \n    address admin;\n    address payable bank;\n    uint    requestCount = 0;\n    enum    Role                     {MANUFACTURER, SUPPLIER, DISTRIBUTOR, DRUG_AUTHORITY , BANK}\n    mapping (address => bool)        participants;\n    mapping (address => Product[])   products;    // manufacturer and product\n    mapping (string => Specs[])      productSpecs; // productID and material  \n    mapping (address => Material[])  materials;   //Participant(supplier) and material\n    mapping (string => Material)     materialList; // materials by name\n    mapping (address => Request[])   requests;   // participant and requests\n    mapping (uint => Log[])          trackLogs; //requestId and Log\n    mapping (string => Cost)         standardProductCosts;\n    mapping (string => Cost)         actualProductCosts;\n    mapping (uint => uint)           requestCost;    // requestId and Total Cost.\n    mapping (address => mapping (address => BankAccount) ) userBankAccounts; // bankAddr -> userAddr -> userAcc\n    \n    Material[] public  materialArr;\n    \n    \n    struct BankAccount {\n    \n        address userId;\n        string  userName;\n        uint    userBalance;\n        bool    isActive;\n    }\n    \n    struct Participant {\n        \n        address particId;\n        Role    particRole;\n    }\n    \n\n    struct Product {\n        \n        address manufacturer;\n        string  productId; //registration no.\n        string  productName;\n        string  productForm; // tablets or capsules\n        uint    productBudget;\n        \n    }\n    \n    struct Material {\n        address supplier;\n        string  materialID;\n        string  materialName;\n        string  materialStrength;\n        string  materialForm;\n        uint    createdAmount;\n        uint    unitCost;\n    }\n    \n    struct Specs {\n        string  materialName;\n        string  materialType;\n        uint    materialAmount;\n        string  materialStrength;\n        string  materialForm;\n        \n    }\n\n    struct Request {\n        uint    requestId;\n        address fromParti;\n        address toParti;\n        string  materialName;\n        string  materialForm;\n        string  materialStrength;\n        uint    amount;\n        uint    issueTime;\n    }\n    \n       struct Log {\n        string  shipStatus;\n        string  currentTemp;\n        string  currentHumidity;\n        string  materialStatus;\n        uint    logTime;\n    }\n    \n    struct Cost {\n        uint directMaterialCost;\n        uint packagingMaterialCost;\n        uint marketingCost;\n        uint researchCost;\n        uint directLaborCost;\n        uint totalIndirectCost; // indirect manufacturing costs\n        uint CostTOT; // direct material + direct labor + total indirect\n    }\n    \n    \n    \n    // FUNCTIONS\n    \n    //constructor\n    \n    // constructor() {\n        \n    // }\n    \n    modifier onlyAdmin {\n        require(msg.sender == admin);\n        _;\n    }\n    \n    // Core functions \n    \n    // Handle participants privileges\n    \n    function verifyParticipant(address _participant) public  {\n             participants[_participant] = true;\n    }\n    \n    function unverifyParticipant(address _participant ) public  {\n             participants[_participant] = false;\n    }\n         \n    function isVerfied(address _participant) public view returns (bool) {\n             return participants[_participant];\n    }\n    \n    \n\n    \n    function addProduct(\n    \n    string memory _id,\n    string memory _name,\n    string memory _pForm\n    \n    ) public {\n        \n        Product memory pro = Product({\n            productId: _id,\n            productName: _name,\n            productForm: _pForm,\n            productBudget: 0,\n            manufacturer: msg.sender\n        });\n        \n        products[msg.sender].push(pro);\n        \n    }\n    \n    function addProductSpecs(\n    \n    string memory _productID,\n    string memory _name,\n    string memory _type,\n    string memory _strength,\n    string memory _form,\n    uint          _amount\n    \n    ) public {\n    \n        Specs memory spec = Specs({\n            materialName: _name,\n            materialType: _type,\n            materialForm: _form,\n            materialAmount: _amount,\n            materialStrength: _strength\n            \n        });      \n        \n        productSpecs[_productID].push(spec);\n        \n    }\n    \n      \n    function getProductsByManu(address _manufacturer) public view returns(Product[] memory) {\n        return products[_manufacturer];\n    }\n    function getProductSpecs(string memory _product) public view returns(Specs[] memory) {\n        return productSpecs[_product];\n    }\n    \n    // BANKING STUFF GOES HERE \n    \n    // functions that has 'self' word are invokable by msg.sender\n    // other functions should require admin / bank control of execution\n    \n    function setAsBank(address payable _addr) public {\n        bank = _addr;\n        \n    }\n    \n    function getBank() public view returns (address) {\n        return bank;\n    }\n    \n    function createBankAccount(address _userAddr, string memory _userName) public {\n        \n        BankAccount memory account = BankAccount({\n            \n            userId:  _userAddr,\n            userName: _userName,\n            userBalance: 0,\n            isActive: true\n            \n        });\n        \n        userBankAccounts[bank][_userAddr] = account;\n        \n    }\n    \n     function selfCreateBankAccount(string memory _userName) public {\n        \n        BankAccount memory account = BankAccount({\n            \n            userId:  msg.sender,\n            userName: _userName,\n            userBalance: 0,\n            isActive: true\n            \n        });\n        \n        userBankAccounts[bank][msg.sender] = account;\n        \n    }\n    \n    function deposit (address _userAddr, uint _amount) public returns (bool) {\n        \n        require (_amount > 0, 'Enter A Valid Deposit Amount!');\n        if ( userBankAccounts[bank][_userAddr].userId == _userAddr) {\n            uint balance = userBankAccounts[bank][_userAddr].userBalance;\n            balance += _amount;\n            userBankAccounts[bank][_userAddr].userBalance = balance;\n            return true;\n        }\n        else {\n            return false;\n        }\n        \n    }\n    \n    function selfDeposit (uint _amount) public returns (bool) {\n        \n        require (_amount > 0, 'Enter A Valid Deposit Amount!');\n        if ( userBankAccounts[bank][msg.sender].userId == msg.sender) {\n            uint balance = userBankAccounts[bank][msg.sender].userBalance;\n            balance += _amount;\n            userBankAccounts[bank][msg.sender].userBalance = balance;\n            return true;\n        }\n        else {\n            return false;\n        }\n        \n    }\n    \n    function withdraw (address _userAddr, uint _amount) public returns (bool) {\n        \n        require(userBankAccounts[bank][_userAddr].userBalance > _amount , 'Not Enough Balance!' );\n        if (userBankAccounts[bank][_userAddr].userId == _userAddr) {\n            \n            uint balance = userBankAccounts[bank][_userAddr].userBalance;\n            balance -= _amount;\n            userBankAccounts[bank][_userAddr].userBalance = balance;\n            return true;\n        }\n        else {\n            return false;\n        }\n    }\n    \n    function selfWithdraw (uint _amount) public returns (bool) {\n        \n        require(userBankAccounts[bank][msg.sender].userBalance > _amount , 'You Do Not Have Enough Balance!' );\n        if (userBankAccounts[bank][msg.sender].userId == msg.sender) {\n            \n            uint balance = userBankAccounts[bank][msg.sender].userBalance;\n            balance -= _amount;\n            userBankAccounts[bank][msg.sender].userBalance = balance;\n            return true;\n        }\n        else {\n            return false;\n        }\n    }\n    \n    function getBalance (address _userAddr) public view returns (uint x) {\n        \n         if (userBankAccounts[bank][_userAddr].userId == _userAddr) {\n             uint balance = userBankAccounts[bank][_userAddr].userBalance;\n             return balance;\n        }\n    }\n    \n    function selfGetBalance () public view returns (uint x) {\n        \n         if (userBankAccounts[bank][msg.sender].userId == msg.sender) {\n             uint balance = userBankAccounts[bank][msg.sender].userBalance;\n             return balance;\n        }\n    }\n    \n    function transfer (address _from, address _to , uint _amount) public returns (bool) {\n        \n         require(userBankAccounts[bank][_from].userBalance >= _amount ,\n         'Not Enough Balance to Transfer This Amount!' );\n         \n        if (userBankAccounts[bank][_from].userId == _from && userBankAccounts[bank][_to].isActive == true) {\n            \n            uint fromBalance = userBankAccounts[bank][_from].userBalance;\n            uint toBalance = userBankAccounts[bank][_to].userBalance;\n            fromBalance -= _amount;\n            toBalance += _amount;\n            userBankAccounts[bank][_from].userBalance = fromBalance;\n            userBankAccounts[bank][_to].userBalance = toBalance; \n            return true;\n        }\n        else {\n            return false;\n        }\n        \n    }\n    \n     function selfTransfer (address _to , uint _amount) public returns (bool) {\n        \n         require(userBankAccounts[bank][msg.sender].userBalance >= _amount ,\n         'You Do Not Have Enough Balance to Transfer This Amount!' );\n         \n        if (userBankAccounts[bank][msg.sender].userId == msg.sender\n            && userBankAccounts[bank][_to].isActive == true)\n        {\n            uint fromBalance = userBankAccounts[bank][msg.sender].userBalance;\n            uint toBalance = userBankAccounts[bank][_to].userBalance;\n            fromBalance -= _amount;\n            toBalance += _amount;\n            userBankAccounts[bank][msg.sender].userBalance = fromBalance;\n            userBankAccounts[bank][_to].userBalance = toBalance; \n            return true;\n        }\n        \n        else {\n            \n            return false;\n        }\n        \n    }\n    \n    function getAccountDetails(address _account) public view returns (BankAccount memory) {\n        return userBankAccounts[bank][_account];\n    }\n    \n    function selfGetAccountDetails() public view returns (BankAccount memory) {\n        return userBankAccounts[bank][msg.sender];\n    }\n    \n    // END OF BANKING STUFF\n    \n    // COST ACCOUNTING STUFF GOES HERE\n    \n    function setStdCostPlan(\n    \n    string memory _product,\n    uint    _directMatCost,\n    uint    _pkgMatCost,\n    uint    _directLaborCost,\n    uint    _totIndirectCosts,\n    uint    _mrkCost,\n    uint    _rsrchCost,\n    uint    _productBudget\n    \n        ) public {\n    \n    Cost memory stdCosts = Cost({\n        directMaterialCost: _directMatCost,\n        directLaborCost: _directLaborCost,\n        totalIndirectCost: _totIndirectCosts,\n        packagingMaterialCost: _pkgMatCost,\n        marketingCost: _mrkCost,\n        researchCost: _rsrchCost,\n        CostTOT: _directMatCost + _pkgMatCost +  _directLaborCost + _totIndirectCosts\n                 + _mrkCost  + _rsrchCost\n       \n    });\n    \n    standardProductCosts[_product] = stdCosts;\n    \n    setProductBudget(_product, _productBudget);\n    \n    }\n    \n    function setProductBudget(string memory _product, uint _budget) public {\n        if(strComp(_product, products[msg.sender][0].productId)) {\n            products[msg.sender][0].productBudget = _budget;\n        }\n       \n    }\n    \n    \n    function getStdCostPlan(string memory _product) public view returns(Cost memory) {\n        return standardProductCosts[_product];\n    }\n    \n    function setActualCost(\n    \n    string memory _product,\n    uint _actualMatCost,\n    uint _actualPkgMatCost,\n    uint _actualLaborCost,\n    uint _actualIndirectCost,\n    uint _actualMrkCost,\n    uint _actualRsrchCost\n    \n    ) public {\n        Cost memory actualCosts = Cost({\n            directMaterialCost: _actualMatCost,\n            packagingMaterialCost: _actualPkgMatCost,\n            marketingCost: _actualMrkCost,\n            researchCost: _actualRsrchCost,\n            directLaborCost: _actualLaborCost,\n            totalIndirectCost: _actualIndirectCost,\n            CostTOT: _actualMatCost + _actualPkgMatCost + _actualLaborCost + _actualIndirectCost\n                     + _actualMrkCost + _actualRsrchCost\n        });\n        \n        actualProductCosts[_product] = actualCosts;\n    }\n    \n    function getActualCost(string memory _product) public view returns(Cost memory) {\n        \n        return actualProductCosts[_product];\n    }\n    \n    // END OF  COST ACCOUNTING STUFF\n    \n    // By Supplier\n    \n    function createMaterial(\n    \n    string memory _id,\n    string memory _name,\n    string memory _str,\n    string memory _form,\n    uint    _amount,\n    uint    _unitCost\n    \n    ) public {\n        \n        Material memory mat = Material({\n           supplier: msg.sender,\n           materialID:   _id,\n           materialName: _name,\n           materialForm: _form,\n           materialStrength: _str,\n           createdAmount: _amount,\n           unitCost:      _unitCost\n        });\n\n        materials[msg.sender].push(mat);\n        materialList[_name] = mat;\n        materialArr.push(mat);\n        \n        \n    }\n    \n    // TODOOOO\n    \n    function getMaterialsBySupplier(address _supplier) public view returns(Material[] memory ) {\n        return materials[_supplier];\n    }\n    \n    \n    // Material Search \n    \n\n\n    function createRequest(\n    \n    address _to ,\n    string memory _material ,\n    string memory _materialForm,\n    string memory _materialStr,\n    uint _amount )\n    \n    public {\n        \n        requestCount += 1;\n        Request memory req = Request({\n           requestId: requestCount,\n           fromParti: msg.sender,\n           toParti: _to,\n           materialName: _material,\n           materialForm: _materialForm,\n           materialStrength: _materialStr, \n           amount: _amount,\n           issueTime: block.timestamp\n        });\n        \n        requests[msg.sender].push(req);\n    }\n    \n    \n    function getMyRequests() public view returns (Request[] memory) {\n        \n        return requests[msg.sender];\n    }\n    \n    function getRequestByAddress(address _participant) public  view returns(Request[] memory) {\n        \n        return requests[_participant];\n    }\n    \n    \n    function createLog(\n    \n    uint _requestId,\n    string memory _shipStatus,\n    string memory _currentTemp,\n    string memory _currentHumid,\n    string memory _materialStatus\n    \n    ) public  {\n        \n        Log memory myLog = Log({\n            shipStatus: _shipStatus,\n            currentTemp: _currentTemp,\n            currentHumidity: _currentHumid,\n            materialStatus: _materialStatus,\n            logTime: block.timestamp\n        });\n        \n        trackLogs[_requestId].push(myLog);\n    }\n    \n    function getTrackLogs(uint _request) public view returns(Log[] memory) {\n        return trackLogs[_request];\n    }\n    \n    \n    \n}",
  "sourcePath": "/home/mohamedkaram/Documents/Demo-sandbox/contracts/NewDemoTest.sol",
  "compiler": {
    "name": "solc",
    "version": "0.7.4+commit.3f05b770.Emscripten.clang"
  },
  "schemaVersion": "3.3.3",
  "updatedAt": "2021-02-27T23:06:00.970Z",
  "networkType": "ethereum",
  "devdoc": {
    "kind": "dev",
    "methods": {},
    "version": 1
  },
  "userdoc": {
    "kind": "user",
    "methods": {},
    "version": 1
  }
}