{
  "contractName": "NewDemoTest",
  "abi": [
    {
      "anonymous": false,
      "inputs": [
        {
          "indexed": false,
          "internalType": "string",
          "name": "DataCategory",
          "type": "string"
        },
        {
          "indexed": false,
          "internalType": "string",
          "name": "dataValues",
          "type": "string"
        },
        {
          "indexed": true,
          "internalType": "uint256",
          "name": "timestamp",
          "type": "uint256"
        }
      ],
      "name": "DataSent",
      "type": "event"
    },
    {
      "anonymous": false,
      "inputs": [
        {
          "indexed": true,
          "internalType": "uint256",
          "name": "requestNo",
          "type": "uint256"
        },
        {
          "indexed": false,
          "internalType": "string",
          "name": "state",
          "type": "string"
        },
        {
          "indexed": true,
          "internalType": "uint256",
          "name": "timestamp",
          "type": "uint256"
        }
      ],
      "name": "ShipmentStateUpdate",
      "type": "event"
    },
    {
      "anonymous": false,
      "inputs": [
        {
          "indexed": true,
          "internalType": "address",
          "name": "who",
          "type": "address"
        },
        {
          "indexed": true,
          "internalType": "uint256",
          "name": "timestamp",
          "type": "uint256"
        },
        {
          "indexed": false,
          "internalType": "string",
          "name": "state",
          "type": "string"
        }
      ],
      "name": "requestStateUpdate",
      "type": "event"
    },
    {
      "inputs": [
        {
          "internalType": "string",
          "name": "x",
          "type": "string"
        },
        {
          "internalType": "string",
          "name": "y",
          "type": "string"
        }
      ],
      "name": "strComp",
      "outputs": [
        {
          "internalType": "bool",
          "name": "",
          "type": "bool"
        }
      ],
      "stateMutability": "pure",
      "type": "function",
      "constant": true
    },
    {
      "inputs": [
        {
          "internalType": "address",
          "name": "_participant",
          "type": "address"
        }
      ],
      "name": "verifyParticipant",
      "outputs": [],
      "stateMutability": "nonpayable",
      "type": "function"
    },
    {
      "inputs": [
        {
          "internalType": "address",
          "name": "_participant",
          "type": "address"
        }
      ],
      "name": "unverifyParticipant",
      "outputs": [],
      "stateMutability": "nonpayable",
      "type": "function"
    },
    {
      "inputs": [
        {
          "internalType": "address",
          "name": "_participant",
          "type": "address"
        }
      ],
      "name": "isVerfied",
      "outputs": [
        {
          "internalType": "bool",
          "name": "",
          "type": "bool"
        }
      ],
      "stateMutability": "view",
      "type": "function",
      "constant": true
    },
    {
      "inputs": [
        {
          "internalType": "string",
          "name": "_id",
          "type": "string"
        },
        {
          "internalType": "string",
          "name": "_name",
          "type": "string"
        },
        {
          "internalType": "string",
          "name": "_pForm",
          "type": "string"
        }
      ],
      "name": "addProduct",
      "outputs": [],
      "stateMutability": "nonpayable",
      "type": "function"
    },
    {
      "inputs": [
        {
          "internalType": "string",
          "name": "_productID",
          "type": "string"
        },
        {
          "internalType": "string",
          "name": "_name",
          "type": "string"
        },
        {
          "internalType": "string",
          "name": "_type",
          "type": "string"
        },
        {
          "internalType": "string",
          "name": "_strength",
          "type": "string"
        },
        {
          "internalType": "string",
          "name": "_form",
          "type": "string"
        },
        {
          "internalType": "uint256",
          "name": "_amount",
          "type": "uint256"
        }
      ],
      "name": "addProductSpecs",
      "outputs": [],
      "stateMutability": "nonpayable",
      "type": "function"
    },
    {
      "inputs": [
        {
          "internalType": "address",
          "name": "_manufacturer",
          "type": "address"
        }
      ],
      "name": "getProductsByManu",
      "outputs": [
        {
          "components": [
            {
              "internalType": "address",
              "name": "manufacturer",
              "type": "address"
            },
            {
              "internalType": "string",
              "name": "productId",
              "type": "string"
            },
            {
              "internalType": "string",
              "name": "productName",
              "type": "string"
            },
            {
              "internalType": "string",
              "name": "productForm",
              "type": "string"
            },
            {
              "internalType": "uint256",
              "name": "productBudget",
              "type": "uint256"
            }
          ],
          "internalType": "struct NewDemoTest.Product[]",
          "name": "",
          "type": "tuple[]"
        }
      ],
      "stateMutability": "view",
      "type": "function",
      "constant": true
    },
    {
      "inputs": [],
      "name": "getProducts",
      "outputs": [
        {
          "components": [
            {
              "internalType": "address",
              "name": "manufacturer",
              "type": "address"
            },
            {
              "internalType": "string",
              "name": "productId",
              "type": "string"
            },
            {
              "internalType": "string",
              "name": "productName",
              "type": "string"
            },
            {
              "internalType": "string",
              "name": "productForm",
              "type": "string"
            },
            {
              "internalType": "uint256",
              "name": "productBudget",
              "type": "uint256"
            }
          ],
          "internalType": "struct NewDemoTest.Product[]",
          "name": "",
          "type": "tuple[]"
        }
      ],
      "stateMutability": "view",
      "type": "function",
      "constant": true
    },
    {
      "inputs": [
        {
          "internalType": "string",
          "name": "_id",
          "type": "string"
        }
      ],
      "name": "getProductById",
      "outputs": [
        {
          "components": [
            {
              "internalType": "address",
              "name": "manufacturer",
              "type": "address"
            },
            {
              "internalType": "string",
              "name": "productId",
              "type": "string"
            },
            {
              "internalType": "string",
              "name": "productName",
              "type": "string"
            },
            {
              "internalType": "string",
              "name": "productForm",
              "type": "string"
            },
            {
              "internalType": "uint256",
              "name": "productBudget",
              "type": "uint256"
            }
          ],
          "internalType": "struct NewDemoTest.Product",
          "name": "",
          "type": "tuple"
        }
      ],
      "stateMutability": "view",
      "type": "function",
      "constant": true
    },
    {
      "inputs": [
        {
          "internalType": "string",
          "name": "_product",
          "type": "string"
        }
      ],
      "name": "getProductSpecs",
      "outputs": [
        {
          "components": [
            {
              "internalType": "string",
              "name": "materialName",
              "type": "string"
            },
            {
              "internalType": "string",
              "name": "materialType",
              "type": "string"
            },
            {
              "internalType": "uint256",
              "name": "materialAmount",
              "type": "uint256"
            },
            {
              "internalType": "string",
              "name": "materialStrength",
              "type": "string"
            },
            {
              "internalType": "string",
              "name": "materialForm",
              "type": "string"
            }
          ],
          "internalType": "struct NewDemoTest.Specs[]",
          "name": "",
          "type": "tuple[]"
        }
      ],
      "stateMutability": "view",
      "type": "function",
      "constant": true
    },
    {
      "inputs": [
        {
          "internalType": "string",
          "name": "_product",
          "type": "string"
        },
        {
          "internalType": "uint256",
          "name": "_directMatCost",
          "type": "uint256"
        },
        {
          "internalType": "uint256",
          "name": "_pkgMatCost",
          "type": "uint256"
        },
        {
          "internalType": "uint256",
          "name": "_directLaborCost",
          "type": "uint256"
        },
        {
          "internalType": "uint256",
          "name": "_totIndirectCosts",
          "type": "uint256"
        },
        {
          "internalType": "uint256",
          "name": "_mrkCost",
          "type": "uint256"
        },
        {
          "internalType": "uint256",
          "name": "_rsrchCost",
          "type": "uint256"
        },
        {
          "internalType": "uint256",
          "name": "_productBudget",
          "type": "uint256"
        }
      ],
      "name": "setStdCostPlan",
      "outputs": [],
      "stateMutability": "nonpayable",
      "type": "function"
    },
    {
      "inputs": [
        {
          "internalType": "string",
          "name": "_product",
          "type": "string"
        },
        {
          "internalType": "uint256",
          "name": "_budget",
          "type": "uint256"
        }
      ],
      "name": "setProductBudget",
      "outputs": [],
      "stateMutability": "nonpayable",
      "type": "function"
    },
    {
      "inputs": [
        {
          "internalType": "string",
          "name": "_product",
          "type": "string"
        }
      ],
      "name": "getStdCostPlan",
      "outputs": [
        {
          "components": [
            {
              "internalType": "uint256",
              "name": "directMaterialCost",
              "type": "uint256"
            },
            {
              "internalType": "uint256",
              "name": "packagingMaterialCost",
              "type": "uint256"
            },
            {
              "internalType": "uint256",
              "name": "marketingCost",
              "type": "uint256"
            },
            {
              "internalType": "uint256",
              "name": "researchCost",
              "type": "uint256"
            },
            {
              "internalType": "uint256",
              "name": "directLaborCost",
              "type": "uint256"
            },
            {
              "internalType": "uint256",
              "name": "totalIndirectCost",
              "type": "uint256"
            },
            {
              "internalType": "uint256",
              "name": "totalDirectCost",
              "type": "uint256"
            },
            {
              "internalType": "uint256",
              "name": "CostTOT",
              "type": "uint256"
            }
          ],
          "internalType": "struct NewDemoTest.Cost",
          "name": "",
          "type": "tuple"
        }
      ],
      "stateMutability": "view",
      "type": "function",
      "constant": true
    },
    {
      "inputs": [
        {
          "internalType": "string",
          "name": "_product",
          "type": "string"
        },
        {
          "internalType": "uint256",
          "name": "_actualMatCost",
          "type": "uint256"
        },
        {
          "internalType": "uint256",
          "name": "_actualPkgMatCost",
          "type": "uint256"
        },
        {
          "internalType": "uint256",
          "name": "_actualLaborCost",
          "type": "uint256"
        },
        {
          "internalType": "uint256",
          "name": "_actualIndirectCost",
          "type": "uint256"
        },
        {
          "internalType": "uint256",
          "name": "_actualMrkCost",
          "type": "uint256"
        },
        {
          "internalType": "uint256",
          "name": "_actualRsrchCost",
          "type": "uint256"
        }
      ],
      "name": "setActualCost",
      "outputs": [],
      "stateMutability": "nonpayable",
      "type": "function"
    },
    {
      "inputs": [
        {
          "internalType": "string",
          "name": "_product",
          "type": "string"
        }
      ],
      "name": "getActualCost",
      "outputs": [
        {
          "components": [
            {
              "internalType": "uint256",
              "name": "directMaterialCost",
              "type": "uint256"
            },
            {
              "internalType": "uint256",
              "name": "packagingMaterialCost",
              "type": "uint256"
            },
            {
              "internalType": "uint256",
              "name": "marketingCost",
              "type": "uint256"
            },
            {
              "internalType": "uint256",
              "name": "researchCost",
              "type": "uint256"
            },
            {
              "internalType": "uint256",
              "name": "directLaborCost",
              "type": "uint256"
            },
            {
              "internalType": "uint256",
              "name": "totalIndirectCost",
              "type": "uint256"
            },
            {
              "internalType": "uint256",
              "name": "totalDirectCost",
              "type": "uint256"
            },
            {
              "internalType": "uint256",
              "name": "CostTOT",
              "type": "uint256"
            }
          ],
          "internalType": "struct NewDemoTest.Cost",
          "name": "",
          "type": "tuple"
        }
      ],
      "stateMutability": "view",
      "type": "function",
      "constant": true
    },
    {
      "inputs": [
        {
          "internalType": "string",
          "name": "_id",
          "type": "string"
        },
        {
          "internalType": "string",
          "name": "_name",
          "type": "string"
        },
        {
          "internalType": "uint256",
          "name": "_str",
          "type": "uint256"
        },
        {
          "internalType": "string",
          "name": "_form",
          "type": "string"
        },
        {
          "internalType": "uint256",
          "name": "_amount",
          "type": "uint256"
        },
        {
          "internalType": "uint256",
          "name": "_unitCost",
          "type": "uint256"
        }
      ],
      "name": "createMaterial",
      "outputs": [],
      "stateMutability": "nonpayable",
      "type": "function"
    },
    {
      "inputs": [
        {
          "internalType": "address",
          "name": "_supplier",
          "type": "address"
        }
      ],
      "name": "getMaterialsBySupplier",
      "outputs": [
        {
          "components": [
            {
              "internalType": "address",
              "name": "supplier",
              "type": "address"
            },
            {
              "internalType": "string",
              "name": "materialID",
              "type": "string"
            },
            {
              "internalType": "string",
              "name": "materialName",
              "type": "string"
            },
            {
              "internalType": "uint256",
              "name": "materialStrength",
              "type": "uint256"
            },
            {
              "internalType": "string",
              "name": "materialForm",
              "type": "string"
            },
            {
              "internalType": "uint256",
              "name": "createdAmount",
              "type": "uint256"
            },
            {
              "internalType": "uint256",
              "name": "unitCost",
              "type": "uint256"
            }
          ],
          "internalType": "struct NewDemoTest.Material[]",
          "name": "",
          "type": "tuple[]"
        }
      ],
      "stateMutability": "view",
      "type": "function",
      "constant": true
    },
    {
      "inputs": [],
      "name": "getMaterials",
      "outputs": [
        {
          "components": [
            {
              "internalType": "address",
              "name": "supplier",
              "type": "address"
            },
            {
              "internalType": "string",
              "name": "materialID",
              "type": "string"
            },
            {
              "internalType": "string",
              "name": "materialName",
              "type": "string"
            },
            {
              "internalType": "uint256",
              "name": "materialStrength",
              "type": "uint256"
            },
            {
              "internalType": "string",
              "name": "materialForm",
              "type": "string"
            },
            {
              "internalType": "uint256",
              "name": "createdAmount",
              "type": "uint256"
            },
            {
              "internalType": "uint256",
              "name": "unitCost",
              "type": "uint256"
            }
          ],
          "internalType": "struct NewDemoTest.Material[]",
          "name": "",
          "type": "tuple[]"
        }
      ],
      "stateMutability": "view",
      "type": "function",
      "constant": true
    },
    {
      "inputs": [
        {
          "internalType": "string",
          "name": "_materialId",
          "type": "string"
        }
      ],
      "name": "getMaterialById",
      "outputs": [
        {
          "components": [
            {
              "internalType": "address",
              "name": "supplier",
              "type": "address"
            },
            {
              "internalType": "string",
              "name": "materialID",
              "type": "string"
            },
            {
              "internalType": "string",
              "name": "materialName",
              "type": "string"
            },
            {
              "internalType": "uint256",
              "name": "materialStrength",
              "type": "uint256"
            },
            {
              "internalType": "string",
              "name": "materialForm",
              "type": "string"
            },
            {
              "internalType": "uint256",
              "name": "createdAmount",
              "type": "uint256"
            },
            {
              "internalType": "uint256",
              "name": "unitCost",
              "type": "uint256"
            }
          ],
          "internalType": "struct NewDemoTest.Material",
          "name": "",
          "type": "tuple"
        }
      ],
      "stateMutability": "view",
      "type": "function",
      "constant": true
    },
    {
      "inputs": [
        {
          "internalType": "address",
          "name": "_to",
          "type": "address"
        },
        {
          "internalType": "string",
          "name": "_materialId",
          "type": "string"
        },
        {
          "internalType": "uint256",
          "name": "_amount",
          "type": "uint256"
        }
      ],
      "name": "createRequest",
      "outputs": [],
      "stateMutability": "nonpayable",
      "type": "function"
    },
    {
      "inputs": [
        {
          "internalType": "uint256",
          "name": "_id",
          "type": "uint256"
        }
      ],
      "name": "getRequestCost",
      "outputs": [
        {
          "internalType": "uint256",
          "name": "",
          "type": "uint256"
        }
      ],
      "stateMutability": "view",
      "type": "function",
      "constant": true
    },
    {
      "inputs": [],
      "name": "getMyRequests",
      "outputs": [
        {
          "components": [
            {
              "internalType": "uint256",
              "name": "requestId",
              "type": "uint256"
            },
            {
              "internalType": "address",
              "name": "fromParti",
              "type": "address"
            },
            {
              "internalType": "address",
              "name": "toParti",
              "type": "address"
            },
            {
              "internalType": "string",
              "name": "materialID",
              "type": "string"
            },
            {
              "internalType": "uint256",
              "name": "amount",
              "type": "uint256"
            },
            {
              "internalType": "uint256",
              "name": "issueTime",
              "type": "uint256"
            }
          ],
          "internalType": "struct NewDemoTest.Request[]",
          "name": "",
          "type": "tuple[]"
        }
      ],
      "stateMutability": "view",
      "type": "function",
      "constant": true
    },
    {
      "inputs": [
        {
          "internalType": "uint256",
          "name": "_id",
          "type": "uint256"
        }
      ],
      "name": "getRequestById",
      "outputs": [
        {
          "components": [
            {
              "internalType": "uint256",
              "name": "requestId",
              "type": "uint256"
            },
            {
              "internalType": "address",
              "name": "fromParti",
              "type": "address"
            },
            {
              "internalType": "address",
              "name": "toParti",
              "type": "address"
            },
            {
              "internalType": "string",
              "name": "materialID",
              "type": "string"
            },
            {
              "internalType": "uint256",
              "name": "amount",
              "type": "uint256"
            },
            {
              "internalType": "uint256",
              "name": "issueTime",
              "type": "uint256"
            }
          ],
          "internalType": "struct NewDemoTest.Request",
          "name": "",
          "type": "tuple"
        }
      ],
      "stateMutability": "view",
      "type": "function",
      "constant": true
    },
    {
      "inputs": [
        {
          "internalType": "address",
          "name": "_participant",
          "type": "address"
        }
      ],
      "name": "getRequestByAddress",
      "outputs": [
        {
          "components": [
            {
              "internalType": "uint256",
              "name": "requestId",
              "type": "uint256"
            },
            {
              "internalType": "address",
              "name": "fromParti",
              "type": "address"
            },
            {
              "internalType": "address",
              "name": "toParti",
              "type": "address"
            },
            {
              "internalType": "string",
              "name": "materialID",
              "type": "string"
            },
            {
              "internalType": "uint256",
              "name": "amount",
              "type": "uint256"
            },
            {
              "internalType": "uint256",
              "name": "issueTime",
              "type": "uint256"
            }
          ],
          "internalType": "struct NewDemoTest.Request[]",
          "name": "",
          "type": "tuple[]"
        }
      ],
      "stateMutability": "view",
      "type": "function",
      "constant": true
    },
    {
      "inputs": [
        {
          "internalType": "address payable",
          "name": "_addr",
          "type": "address"
        }
      ],
      "name": "setAsBank",
      "outputs": [],
      "stateMutability": "nonpayable",
      "type": "function"
    },
    {
      "inputs": [],
      "name": "getBank",
      "outputs": [
        {
          "internalType": "address",
          "name": "",
          "type": "address"
        }
      ],
      "stateMutability": "view",
      "type": "function",
      "constant": true
    },
    {
      "inputs": [
        {
          "internalType": "address",
          "name": "_userAddr",
          "type": "address"
        },
        {
          "internalType": "string",
          "name": "_userName",
          "type": "string"
        }
      ],
      "name": "createBankAccount",
      "outputs": [],
      "stateMutability": "nonpayable",
      "type": "function"
    },
    {
      "inputs": [
        {
          "internalType": "string",
          "name": "_userName",
          "type": "string"
        }
      ],
      "name": "selfCreateBankAccount",
      "outputs": [],
      "stateMutability": "nonpayable",
      "type": "function"
    },
    {
      "inputs": [
        {
          "internalType": "address",
          "name": "_userAddr",
          "type": "address"
        }
      ],
      "name": "hasBankAccount",
      "outputs": [
        {
          "internalType": "bool",
          "name": "",
          "type": "bool"
        }
      ],
      "stateMutability": "view",
      "type": "function",
      "constant": true
    },
    {
      "inputs": [
        {
          "internalType": "address",
          "name": "_userAddr",
          "type": "address"
        },
        {
          "internalType": "uint256",
          "name": "_amount",
          "type": "uint256"
        }
      ],
      "name": "deposit",
      "outputs": [
        {
          "internalType": "bool",
          "name": "",
          "type": "bool"
        }
      ],
      "stateMutability": "nonpayable",
      "type": "function"
    },
    {
      "inputs": [
        {
          "internalType": "uint256",
          "name": "_amount",
          "type": "uint256"
        }
      ],
      "name": "selfDeposit",
      "outputs": [
        {
          "internalType": "bool",
          "name": "",
          "type": "bool"
        }
      ],
      "stateMutability": "nonpayable",
      "type": "function"
    },
    {
      "inputs": [
        {
          "internalType": "address",
          "name": "_userAddr",
          "type": "address"
        },
        {
          "internalType": "uint256",
          "name": "_amount",
          "type": "uint256"
        }
      ],
      "name": "withdraw",
      "outputs": [
        {
          "internalType": "bool",
          "name": "",
          "type": "bool"
        }
      ],
      "stateMutability": "nonpayable",
      "type": "function"
    },
    {
      "inputs": [
        {
          "internalType": "uint256",
          "name": "_amount",
          "type": "uint256"
        }
      ],
      "name": "selfWithdraw",
      "outputs": [
        {
          "internalType": "bool",
          "name": "",
          "type": "bool"
        }
      ],
      "stateMutability": "nonpayable",
      "type": "function"
    },
    {
      "inputs": [
        {
          "internalType": "address",
          "name": "_userAddr",
          "type": "address"
        }
      ],
      "name": "getBalance",
      "outputs": [
        {
          "internalType": "uint256",
          "name": "x",
          "type": "uint256"
        }
      ],
      "stateMutability": "view",
      "type": "function",
      "constant": true
    },
    {
      "inputs": [],
      "name": "selfGetBalance",
      "outputs": [
        {
          "internalType": "uint256",
          "name": "x",
          "type": "uint256"
        }
      ],
      "stateMutability": "view",
      "type": "function",
      "constant": true
    },
    {
      "inputs": [
        {
          "internalType": "address",
          "name": "_from",
          "type": "address"
        },
        {
          "internalType": "address",
          "name": "_to",
          "type": "address"
        },
        {
          "internalType": "uint256",
          "name": "_amount",
          "type": "uint256"
        }
      ],
      "name": "transfer",
      "outputs": [
        {
          "internalType": "bool",
          "name": "",
          "type": "bool"
        }
      ],
      "stateMutability": "nonpayable",
      "type": "function"
    },
    {
      "inputs": [
        {
          "internalType": "address",
          "name": "_to",
          "type": "address"
        },
        {
          "internalType": "uint256",
          "name": "_amount",
          "type": "uint256"
        }
      ],
      "name": "selfTransfer",
      "outputs": [
        {
          "internalType": "bool",
          "name": "",
          "type": "bool"
        }
      ],
      "stateMutability": "nonpayable",
      "type": "function"
    },
    {
      "inputs": [
        {
          "internalType": "address",
          "name": "_account",
          "type": "address"
        }
      ],
      "name": "getAccountDetails",
      "outputs": [
        {
          "components": [
            {
              "internalType": "address",
              "name": "userId",
              "type": "address"
            },
            {
              "internalType": "string",
              "name": "userName",
              "type": "string"
            },
            {
              "internalType": "uint256",
              "name": "userBalance",
              "type": "uint256"
            },
            {
              "internalType": "bool",
              "name": "isActive",
              "type": "bool"
            }
          ],
          "internalType": "struct NewDemoTest.BankAccount",
          "name": "",
          "type": "tuple"
        }
      ],
      "stateMutability": "view",
      "type": "function",
      "constant": true
    },
    {
      "inputs": [],
      "name": "selfGetAccountDetails",
      "outputs": [
        {
          "components": [
            {
              "internalType": "address",
              "name": "userId",
              "type": "address"
            },
            {
              "internalType": "string",
              "name": "userName",
              "type": "string"
            },
            {
              "internalType": "uint256",
              "name": "userBalance",
              "type": "uint256"
            },
            {
              "internalType": "bool",
              "name": "isActive",
              "type": "bool"
            }
          ],
          "internalType": "struct NewDemoTest.BankAccount",
          "name": "",
          "type": "tuple"
        }
      ],
      "stateMutability": "view",
      "type": "function",
      "constant": true
    },
    {
      "inputs": [
        {
          "internalType": "uint256",
          "name": "_requestId",
          "type": "uint256"
        }
      ],
      "name": "approveRequest",
      "outputs": [],
      "stateMutability": "nonpayable",
      "type": "function"
    },
    {
      "inputs": [
        {
          "internalType": "uint256",
          "name": "_id",
          "type": "uint256"
        }
      ],
      "name": "verifyShipmentState",
      "outputs": [
        {
          "internalType": "string",
          "name": "",
          "type": "string"
        }
      ],
      "stateMutability": "nonpayable",
      "type": "function"
    },
    {
      "inputs": [
        {
          "internalType": "uint256",
          "name": "_requestId",
          "type": "uint256"
        }
      ],
      "name": "sendShipment",
      "outputs": [],
      "stateMutability": "nonpayable",
      "type": "function"
    },
    {
      "inputs": [
        {
          "internalType": "uint256",
          "name": "_requestId",
          "type": "uint256"
        }
      ],
      "name": "globalTransitShipment",
      "outputs": [],
      "stateMutability": "nonpayable",
      "type": "function"
    },
    {
      "inputs": [
        {
          "internalType": "uint256",
          "name": "_requestId",
          "type": "uint256"
        }
      ],
      "name": "localTransitShipment",
      "outputs": [],
      "stateMutability": "nonpayable",
      "type": "function"
    },
    {
      "inputs": [
        {
          "internalType": "uint256",
          "name": "_requestId",
          "type": "uint256"
        }
      ],
      "name": "receiveShipment",
      "outputs": [],
      "stateMutability": "nonpayable",
      "type": "function"
    },
    {
      "inputs": [
        {
          "internalType": "uint256",
          "name": "_requestId",
          "type": "uint256"
        },
        {
          "internalType": "string",
          "name": "_requestStatus",
          "type": "string"
        },
        {
          "internalType": "string",
          "name": "_shipmentStatus",
          "type": "string"
        },
        {
          "internalType": "string",
          "name": "_description",
          "type": "string"
        }
      ],
      "name": "createLog",
      "outputs": [],
      "stateMutability": "nonpayable",
      "type": "function"
    },
    {
      "inputs": [
        {
          "internalType": "uint256",
          "name": "_id",
          "type": "uint256"
        },
        {
          "internalType": "uint256",
          "name": "_temp",
          "type": "uint256"
        },
        {
          "internalType": "uint256",
          "name": "_humid",
          "type": "uint256"
        }
      ],
      "name": "setShipmentTrackData",
      "outputs": [],
      "stateMutability": "nonpayable",
      "type": "function"
    },
    {
      "inputs": [
        {
          "internalType": "uint256",
          "name": "_id",
          "type": "uint256"
        }
      ],
      "name": "getShipmentTrackData",
      "outputs": [
        {
          "internalType": "uint256[]",
          "name": "temp",
          "type": "uint256[]"
        },
        {
          "internalType": "uint256[]",
          "name": "humid",
          "type": "uint256[]"
        }
      ],
      "stateMutability": "view",
      "type": "function",
      "constant": true
    },
    {
      "inputs": [
        {
          "internalType": "uint256",
          "name": "_request",
          "type": "uint256"
        }
      ],
      "name": "getTrackLogs",
      "outputs": [
        {
          "components": [
            {
              "internalType": "address",
              "name": "logger",
              "type": "address"
            },
            {
              "internalType": "string",
              "name": "requestStatus",
              "type": "string"
            },
            {
              "internalType": "string",
              "name": "description",
              "type": "string"
            },
            {
              "internalType": "string",
              "name": "shipmentStatus",
              "type": "string"
            },
            {
              "internalType": "uint256",
              "name": "logTime",
              "type": "uint256"
            }
          ],
          "internalType": "struct NewDemoTest.Log[]",
          "name": "",
          "type": "tuple[]"
        }
      ],
      "stateMutability": "view",
      "type": "function",
      "constant": true
    },
    {
      "inputs": [
        {
          "internalType": "uint256",
          "name": "_id",
          "type": "uint256"
        },
        {
          "internalType": "string",
          "name": "_lat",
          "type": "string"
        },
        {
          "internalType": "string",
          "name": "_long",
          "type": "string"
        }
      ],
      "name": "setShipmentLocation",
      "outputs": [],
      "stateMutability": "nonpayable",
      "type": "function"
    },
    {
      "inputs": [
        {
          "internalType": "uint256",
          "name": "_id",
          "type": "uint256"
        }
      ],
      "name": "getShipmentLocation",
      "outputs": [
        {
          "components": [
            {
              "internalType": "string",
              "name": "Latitude",
              "type": "string"
            },
            {
              "internalType": "string",
              "name": "Longitude",
              "type": "string"
            }
          ],
          "internalType": "struct NewDemoTest.Location[]",
          "name": "",
          "type": "tuple[]"
        }
      ],
      "stateMutability": "view",
      "type": "function",
      "constant": true
    }
  ],
  "bytecode": "0x60806040526201c4c86002556028600355603260045534801561002157600080fd5b50614c8f806100316000396000f3fe608060405234801561001057600080fd5b50600436106102f15760003560e01c8063643a76951161019d5780639a532889116100e9578063de67ef8a116100a2578063f583736d1161007c578063f583736d1461070d578063f8b2cb4f14610720578063fb3684fb14610733578063fd91dcca14610746576102f1565b8063de67ef8a146106d4578063eda953f2146106e7578063f3fef3a3146106fa576102f1565b80639a532889146106525780639d10232914610673578063beabacc814610686578063c29b2f2014610699578063c933a2ad146106ae578063d7d1bbdb146106c1576102f1565b80637f5cf16e116101565780638a515a56116101305780638a515a56146106045780638c0c25681461061757806391eace8b1461062a5780639684447b14610632576102f1565b80637f5cf16e146105c95780637fe54a10146105e957806380dfedcd146105fc576102f1565b8063643a7695146105555780636e3162a7146105685780636eac3eb81461057b5780636f2e836a1461058e5780636fe57a77146105a157806379b5e182146105c1576102f1565b80632a22f0fc1161025c57806343ffb9a611610215578063502bdedd116101ef578063502bdedd146105075780635280ae1d1461051a57806359c8351f1461052d57806360d704db14610540576102f1565b806343ffb9a6146104c1578063477dec5d146104d457806347e7ef24146104e7576102f1565b80632a22f0fc146104335780632aceb534146104485780632fc81916146104685780633c0b276c1461047b5780633f2019781461048e578063420777de146104ae576102f1565b8063126a403b116102ae578063126a403b1461038d57806312917b8e146103ad5780631fa91673146103cd5780632352d4aa146103e057806324d295131461040057806326757b7314610413576102f1565b806306177b4e146102f6578063082800931461031f578063096a71e2146103345780630afad95e146103545780630b4fb06d146103675780630e34b00e1461037a575b600080fd5b610309610304366004613cc4565b610759565b60405161031691906145a7565b60405180910390f35b61033261032d366004614073565b6109bc565b005b610347610342366004613dee565b610ac2565b6040516103169190614a4d565b6103326103623660046140b5565b610b4b565b610332610375366004614194565b610c12565b610332610388366004613e7e565b610d16565b6103a061039b366004614194565b610f62565b604051610316919061478f565b6103c06103bb366004614194565b611056565b6040516103169190614547565b6103326103db366004613dee565b611296565b6103f36103ee366004613dee565b6112a3565b6040516103169190614ab9565b61033261040e3660046141dd565b6114ae565b610426610421366004614194565b6115b4565b6040516103169190614acc565b61043b6116ad565b6040516103169190614adf565b61045b610456366004613cc4565b6116bd565b60405161031691906149fd565b610332610476366004613d20565b6117b8565b610332610489366004614194565b611861565b6104a161049c366004613dee565b611921565b6040516103169190614aa6565b6103326104bc366004614194565b611b40565b6103326104cf366004613d6d565b611bbf565b6103326104e2366004613cc4565b611d91565b6104fa6104f5366004613dc3565b611db3565b6040516103169190614784565b61033261051536600461426a565b611e52565b6104fa610528366004613cc4565b611fb1565b6104fa61053b366004613e28565b611ff7565b610548612050565b60405161031691906144b1565b610332610563366004613cc4565b61205f565b610332610576366004613fd4565b612083565b610347610589366004613dee565b61231d565b6104fa61059c366004614194565b612335565b6105b46105af366004613cc4565b612341565b604051610316919061464d565b61045b61247d565b6105dc6105d7366004613dee565b612575565b60405161031691906146a0565b6103326105f7366004614194565b61284b565b6103096128cc565b6104fa610612366004613dc3565b612b18565b6103326106253660046141ac565b612b2c565b6105b4612ba6565b610645610640366004614194565b612cd9565b60405161031691906144c5565b610665610660366004614194565b612e6c565b604051610316929190614756565b6104fa610681366004614194565b612f31565b6104fa610694366004613ce0565b612f3d565b6106a161306a565b60405161031691906145fa565b61043b6106bc366004614194565b613299565b6103326106cf366004614194565b6132ab565b6106a16106e2366004613cc4565b613398565b6104fa6106f5366004613cc4565b6135db565b6104fa610708366004613dc3565b6135f9565b61033261071b366004613cc4565b6136b2565b61043b61072e366004613cc4565b6136d3565b610332610741366004614120565b61373b565b610332610754366004613f01565b61380d565b6001600160a01b0381166000908152600d60209081526040808320805482518185028101850190935280835260609492939192909184015b828210156109b05760008481526020908190206040805160e0810182526007860290920180546001600160a01b03168352600180820180548451600261010094831615949094026000190190911692909204601f8101879004870283018701909452838252939491938583019391929091908301828280156108545780601f1061082957610100808354040283529160200191610854565b820191906000526020600020905b81548152906001019060200180831161083757829003601f168201915b5050509183525050600282810180546040805160206001841615610100026000190190931694909404601f810183900483028501830190915280845293810193908301828280156108e65780601f106108bb576101008083540402835291602001916108e6565b820191906000526020600020905b8154815290600101906020018083116108c957829003601f168201915b5050509183525050600382015460208083019190915260048301805460408051601f600260001961010060018716150201909416939093049283018590048502810185018252828152940193928301828280156109845780601f1061095957610100808354040283529160200191610984565b820191906000526020600020905b81548152906001019060200180831161096757829003601f168201915b505050505081526020016005820154815260200160068201548152505081526020019060010190610791565b5050505090505b919050565b336000908152600a602052604081208054610a89928592916109da57fe5b90600052602060002090600502016001018054600181600116156101000203166002900480601f016020809104026020016040519081016040528092919081815260200182805460018160011615610100020316600290048015610a7f5780601f10610a5457610100808354040283529160200191610a7f565b820191906000526020600020905b815481529060010190602001808311610a6257829003601f168201915b5050505050611ff7565b15610abe57336000908152600a602052604081208054839290610aa857fe5b9060005260206000209060050201600401819055505b5050565b610aca613a23565b601582604051610ada9190614452565b908152602001604051809103902060405180610100016040529081600082015481526020016001820154815260200160028201548152602001600382015481526020016004820154815260200160058201548152602001600682015481526020016007820154815250509050919050565b610b53613a23565b60405180610100016040528088815260200187815260200184815260200183815260200186815260200185815260200186888a01018152602001838587898b8d0101010101815250905080601589604051610bae9190614452565b9081526040805160209281900383019020835181559183015160018301558201516002820155606082015160038201556080820151600482015560a0820151600582015560c0820151600682015560e0909101516007909101555050505050505050565b6060610c1d82610f62565b9050610c6a826040518060400160405280600f81526020016e141050d2d051d14810d49150551151608a1b815250836040518060600160405280603e8152602001614b93603e91396114ae565b42336001600160a01b0316600080516020614b2a833981519152604051610c90906148c5565b60405180910390a3610ce4826040518060400160405280601081526020016f4f555420464f52205348495050494e4760801b81525083604051806060016040528060228152602001614b71602291396114ae565b42336001600160a01b0316600080516020614b2a833981519152604051610d0a906149a4565b60405180910390a35050565b610d1e613a68565b506040805160a08101825233808252602080830187815283850187905260608401869052600060808501819052928352600a825293822080546001808201835591845292829020845160059094020180546001600160a01b0319166001600160a01b039094169390931783559351805193948594610da3939185019290910190613aa0565b5060408201518051610dbf916002840191602090910190613aa0565b5060608201518051610ddb916003840191602090910190613aa0565b5060808201518160040155505080600c85604051610df99190614452565b90815260405160209181900382019020825181546001600160a01b0319166001600160a01b039091161781558282015180519192610e3f92600185019290910190613aa0565b5060408201518051610e5b916002840191602090910190613aa0565b5060608201518051610e77916003840191602090910190613aa0565b50608091909101516004909101556006805460018101825560009190915281517ff652222313e28459528d920b65115c16c04f3efc82aaedc97be59f3f377c0d3f600590920291820180546001600160a01b0319166001600160a01b0390921691909117815560208084015180518594610f17937ff652222313e28459528d920b65115c16c04f3efc82aaedc97be59f3f377c0d40909101920190613aa0565b5060408201518051610f33916002840191602090910190613aa0565b5060608201518051610f4f916003840191602090910190613aa0565b5060808201518160040155505050505050565b606080600354600760016007805490500381548110610f7d57fe5b9060005260206000200154101580610fb35750600454600880546000198101908110610fa557fe5b906000526020600020015410155b15611007576040518060400160405280600881526020016710509393d493505360c21b81525090504283600080516020614c3a83398151915283604051610ffa919061478f565b60405180910390a3611050565b604051806040016040528060068152602001651393d493505360d21b81525090504283600080516020614c3a83398151915283604051611047919061478f565b60405180910390a35b92915050565b606060116000838152602001908152602001600020805480602002602001604051908101604052809291908181526020016000905b828210156109b05760008481526020908190206040805160a0810182526005860290920180546001600160a01b03168352600180820180548451600261010094831615949094026000190190911692909204601f81018790048702830187019094528382529394919385830193919290919083018282801561114e5780601f106111235761010080835404028352916020019161114e565b820191906000526020600020905b81548152906001019060200180831161113157829003601f168201915b5050509183525050600282810180546040805160206001841615610100026000190190931694909404601f810183900483028501830190915280845293810193908301828280156111e05780601f106111b5576101008083540402835291602001916111e0565b820191906000526020600020905b8154815290600101906020018083116111c357829003601f168201915b505050918352505060038201805460408051602060026001851615610100026000190190941693909304601f81018490048402820184019092528181529382019392918301828280156112745780601f1061124957610100808354040283529160200191611274565b820191906000526020600020905b81548152906001019060200180831161125757829003601f168201915b505050505081526020016004820154815250508152602001906001019061108b565b6112a033826117b8565b50565b6112ab613a68565b600c826040516112bb9190614452565b908152604080516020928190038301812060a08201835280546001600160a01b03168252600180820180548551600261010094831615949094026000190190911692909204601f81018790048702830187019095528482529294919382860193919283018282801561136e5780601f106113435761010080835404028352916020019161136e565b820191906000526020600020905b81548152906001019060200180831161135157829003601f168201915b5050509183525050600282810180546040805160206001841615610100026000190190931694909404601f810183900483028501830190915280845293810193908301828280156114005780601f106113d557610100808354040283529160200191611400565b820191906000526020600020905b8154815290600101906020018083116113e357829003601f168201915b505050918352505060038201805460408051602060026001851615610100026000190190941693909304601f81018490048402820184019092528181529382019392918301828280156114945780601f1061146957610100808354040283529160200191611494565b820191906000526020600020905b81548152906001019060200180831161147757829003601f168201915b505050505081526020016004820154815250509050919050565b6114b6613a68565b506040805160a08101825233815260208082018681528284018590526060830186905242608084015260008881526011835293842080546001808201835591865294839020845160059096020180546001600160a01b0319166001600160a01b0390961695909517855590518051939485949093611538938501920190613aa0565b5060408201518051611554916002840191602090910190613aa0565b5060608201518051611570916003840191602090910190613aa0565b5060808201518160040155505042336001600160a01b0316600080516020614b2a833981519152866040516115a5919061478f565b60405180910390a35050505050565b6115bc613b2c565b600082815260106020908152604091829020825160c081018452815481526001808301546001600160a01b03908116838601526002808501549091168387015260038401805487516101009482161594909402600019011691909104601f8101869004860283018601909652858252919492936060860193919291908301828280156116895780601f1061165e57610100808354040283529160200191611689565b820191906000526020600020905b81548152906001019060200180831161166c57829003601f168201915b50505050508152602001600482015481526020016005820154815250509050919050565b60006116b8336136d3565b905090565b6116c5613b74565b600180546001600160a01b039081166000908152601860209081526040808320878516845282529182902082516080810184528154909416845280850180548451600261010098831615989098026000190190911696909604601f81018490048402870184019094528386529394909385830193919290919083018282801561178f5780601f106117645761010080835404028352916020019161178f565b820191906000526020600020905b81548152906001019060200180831161177257829003601f168201915b50505091835250506002820154602082015260039091015460ff16151560409091015292915050565b6117c0613b74565b50604080516080810182526001600160a01b03848116808352602080840186815260008587018190526001606087018190528054861682526018845287822094825293835295909520845181546001600160a01b031916941693909317835593518051939485946118379385019290910190613aa0565b50604082015160028201556060909101516003909101805460ff1916911515919091179055505050565b606061186c82610f62565b90506118b3826040518060400160405280600981526020016811115312559154915160ba1b81525083604051806060016040528060288152602001614bd1602891396114ae565b42336001600160a01b0316600080516020614b2a8339815191526040516118d99061486f565b60405180910390a3600082815260166020908152604080832054601090925290912060010154600282049091039061191b906001600160a01b03163383612f3d565b50505050565b611929613ba7565b600e826040516119399190614452565b908152604080516020928190038301812060e08201835280546001600160a01b03168252600180820180548551600261010094831615949094026000190190911692909204601f8101879004870283018701909552848252929491938286019391928301828280156119ec5780601f106119c1576101008083540402835291602001916119ec565b820191906000526020600020905b8154815290600101906020018083116119cf57829003601f168201915b5050509183525050600282810180546040805160206001841615610100026000190190931694909404601f81018390048302850183019091528084529381019390830182828015611a7e5780601f10611a5357610100808354040283529160200191611a7e565b820191906000526020600020905b815481529060010190602001808311611a6157829003601f168201915b5050509183525050600382015460208083019190915260048301805460408051601f60026000196101006001871615020190941693909304928301859004850281018501825282815294019392830182828015611b1c5780601f10611af157610100808354040283529160200191611b1c565b820191906000526020600020905b815481529060010190602001808311611aff57829003601f168201915b50505050508152602001600582015481526020016006820154815250509050919050565b6060611b4b82610f62565b9050611b99826040518060400160405280601081526020016f5348495050494e47205041434b41474560801b81525083604051806060016040528060278152602001614b4a602791396114ae565b42336001600160a01b0316600080516020614b2a833981519152604051610d0a906147a2565b60028054610145019055611bd1613b2c565b506040805160c08101825260025481523360208201526001600160a01b0385168183015260608101849052608081018390524260a08201529051600e90611c19908590614452565b908152604080516020928190038301902060069081015460808501518551600090815260168652848120919092029055338152600f8452828120805460018082018355918352918590208651929093029092019081558484015191810180546001600160a01b03199081166001600160a01b039485161790915592850151600282018054909416921691909117909155606083015180518493611cc3926003850192910190613aa0565b506080820151600482015560a090910151600590910155805160009081526010602090815260409182902083518155818401516001820180546001600160a01b03199081166001600160a01b03938416179091559385015160028301805490951691161790925560608301518051849392611d45926003850192910190613aa0565b506080820151816004015560a0820151816005015590505042336001600160a01b0316600080516020614b2a833981519152604051611d839061497b565b60405180910390a350505050565b600180546001600160a01b0319166001600160a01b0392909216919091179055565b6000808211611ddd5760405162461bcd60e51b8152600401611dd4906147cd565b60405180910390fd5b6001546001600160a01b0390811660009081526018602090815260408083208488168085529252909120549091161415611e495750600180546001600160a01b039081166000908152601860209081526040808320938716835292905220600201805483019055611050565b50600092915050565b600083815260126020908152604080832080546001818101835591855283852001869055600780548083019091557fa66cc928b5edb82af9bd49922954155ab7b0942694bea4ce44661d9a8736c6880186905586845260138352908320805480830182559084529183209091018390556008805491820181559091527ff3f7a9fe364faab93b216da50a3214154f22a0a2b415b23a84c8169e8b636ee301819055427f3f00a8b14ab7a3bd4e38885b88de429c8e57c28c61cc3255185d3849287172e3611f2f611f21856138f4565b611f2a856138f4565b6139d5565b604051611f3c91906148ee565b60405180910390a260035482101580611f5757506004548110155b15611f86574283600080516020614c3a833981519152604051611f79906149db565b60405180910390a3611fac565b4283600080516020614c3a833981519152604051611fa39061484f565b60405180910390a35b505050565b6001546001600160a01b03908116600090815260186020908152604080832093851683529290529081206003015460ff1615611fef575060016109b7565b5060006109b7565b60008160405160200161200a9190614452565b60405160208183030381529060405280519060200120836040516020016120319190614452565b6040516020818303038152906040528051906020012014905092915050565b6001546001600160a01b031690565b6001600160a01b03166000908152600960205260409020805460ff19166001179055565b61208b613ba7565b506040805160e0810182523380825260208083018a81528385018a9052606084018990526080840188905260a0840187905260c084018690526000928352600d825293822080546001808201835591845292829020845160079094020180546001600160a01b0319166001600160a01b03909416939093178355935180519394859461211e939185019290910190613aa0565b506040820151805161213a916002840191602090910190613aa0565b506060820151600382015560808201518051612160916004840191602090910190613aa0565b5060a0820151816005015560c08201518160060155505080600e886040516121889190614452565b90815260405160209181900382019020825181546001600160a01b0319166001600160a01b0390911617815582820151805191926121ce92600185019290910190613aa0565b50604082015180516121ea916002840191602090910190613aa0565b506060820151600382015560808201518051612210916004840191602090910190613aa0565b5060a082015160058281019190915560c090920151600690910155805460018101825560009190915281517f036b6384b5eca791c62761152d0c79bb0604c104a5fb6f4eb0703f3154bb3db0600790920291820180546001600160a01b0319166001600160a01b03909216919091178155602080840151805185946122bb937f036b6384b5eca791c62761152d0c79bb0604c104a5fb6f4eb0703f3154bb3db1909101920190613aa0565b50604082015180516122d7916002840191602090910190613aa0565b5060608201516003820155608082015180516122fd916004840191602090910190613aa0565b5060a0820151816005015560c08201518160060155505050505050505050565b612325613a23565b601482604051610ada9190614452565b600061105033836135f9565b6001600160a01b0381166000908152600f60209081526040808320805482518185028101850190935280835260609492939192909184015b828210156109b05760008481526020908190206040805160c08101825260068602909201805483526001808201546001600160a01b03908116858701526002808401549091168585015260038301805485516101009482161594909402600019011691909104601f810187900487028301870190945283825293949193606086019391929091908301828280156124515780601f1061242657610100808354040283529160200191612451565b820191906000526020600020905b81548152906001019060200180831161243457829003601f168201915b505050505081526020016004820154815260200160058201548152505081526020019060010190612379565b612485613b74565b600180546001600160a01b03908116600090815260186020908152604080832033845282529182902082516080810184528154909416845280850180548451600261010098831615989098026000190190911696909604601f81018490048402870184019094528386529394909385830193919290919083018282801561254d5780601f106125225761010080835404028352916020019161254d565b820191906000526020600020905b81548152906001019060200180831161253057829003601f168201915b50505091835250506002820154602082015260039091015460ff161515604090910152905090565b6060600b826040516125879190614452565b9081526020016040518091039020805480602002602001604051908101604052809291908181526020016000905b828210156109b05760008481526020908190206040805160058602909201805460026001821615610100026000190190911604601f8101859004909402830160c090810190925260a083018481529293909284929091849184018282801561265e5780601f106126335761010080835404028352916020019161265e565b820191906000526020600020905b81548152906001019060200180831161264157829003601f168201915b50505050508152602001600182018054600181600116156101000203166002900480601f0160208091040260200160405190810160405280929190818152602001828054600181600116156101000203166002900480156127005780601f106126d557610100808354040283529160200191612700565b820191906000526020600020905b8154815290600101906020018083116126e357829003601f168201915b505050918352505060028281015460208084019190915260038401805460408051601f6000196101006001861615020190931695909504918201849004840285018401815281855290940193909183018282801561279f5780601f106127745761010080835404028352916020019161279f565b820191906000526020600020905b81548152906001019060200180831161278257829003601f168201915b505050918352505060048201805460408051602060026001851615610100026000190190941693909304601f81018490048402820184019092528181529382019392918301828280156128335780601f1061280857610100808354040283529160200191612833565b820191906000526020600020905b81548152906001019060200180831161281657829003601f168201915b505050505081525050815260200190600101906125b5565b606061285682610f62565b90506128a68260405180604001604052806012815260200171524541445920464f522044454c495645525960701b81525083604051806080016040528060418152602001614bf9604191396114ae565b42336001600160a01b0316600080516020614b2a833981519152604051610d0a90614924565b60606005805480602002602001604051908101604052809291908181526020016000905b82821015612b0f5760008481526020908190206040805160e0810182526007860290920180546001600160a01b03168352600180820180548451600261010094831615949094026000190190911692909204601f8101879004870283018701909452838252939491938583019391929091908301828280156129b35780601f10612988576101008083540402835291602001916129b3565b820191906000526020600020905b81548152906001019060200180831161299657829003601f168201915b5050509183525050600282810180546040805160206001841615610100026000190190931694909404601f81018390048302850183019091528084529381019390830182828015612a455780601f10612a1a57610100808354040283529160200191612a45565b820191906000526020600020905b815481529060010190602001808311612a2857829003601f168201915b5050509183525050600382015460208083019190915260048301805460408051601f60026000196101006001871615020190941693909304928301859004850281018501825282815294019392830182828015612ae35780601f10612ab857610100808354040283529160200191612ae3565b820191906000526020600020905b815481529060010190602001808311612ac657829003601f168201915b5050505050815260200160058201548152602001600682015481525050815260200190600101906128f0565b50505050905090565b6000612b25338484612f3d565b9392505050565b612b34613bed565b5060408051808201825283815260208082018490526000868152601782529283208054600181018255908452928190208251805193948594600290910290920192612b8492849290910190613aa0565b506020828101518051612b9d9260018501920190613aa0565b50505050505050565b336000908152600f60209081526040808320805482518185028101850190935280835260609492939192909184015b82821015612b0f5760008481526020908190206040805160c08101825260068602909201805483526001808201546001600160a01b03908116858701526002808401549091168585015260038301805485516101009482161594909402600019011691909104601f81018790048702830187019094528382529394919360608601939192909190830182828015612cad5780601f10612c8257610100808354040283529160200191612cad565b820191906000526020600020905b815481529060010190602001808311612c9057829003601f168201915b505050505081526020016004820154815260200160058201548152505081526020019060010190612bd5565b606060176000838152602001908152602001600020805480602002602001604051908101604052809291908181526020016000905b828210156109b05760008481526020908190206040805160028681029093018054600181161561010002600019011693909304601f810185900490940281016060908101835291810184815290938492849190840182828015612db25780601f10612d8757610100808354040283529160200191612db2565b820191906000526020600020905b815481529060010190602001808311612d9557829003601f168201915b50505050508152602001600182018054600181600116156101000203166002900480601f016020809104026020016040519081016040528092919081815260200182805460018160011615610100020316600290048015612e545780601f10612e2957610100808354040283529160200191612e54565b820191906000526020600020905b815481529060010190602001808311612e3757829003601f168201915b50505050508152505081526020019060010190612d0e565b60008181526012602090815260408083206013835292819020835482518185028101850190935280835260609485949093918491830182828015612ecf57602002820191906000526020600020905b815481526020019060010190808311612ebb575b5050505050915080805480602002602001604051908101604052809291908181526020018280548015612f2157602002820191906000526020600020905b815481526020019060010190808311612f0d575b5050505050905091509150915091565b60006110503383611db3565b6001546001600160a01b039081166000908152601860209081526040808320938716835292905290812060020154821115612f8a5760405162461bcd60e51b8152600401611dd490614804565b6001546001600160a01b039081166000908152601860209081526040808320848916808552925290912054909116148015612ff45750600180546001600160a01b0390811660009081526018602090815260408083209388168352929052206003015460ff161515145b156130605750600180546001600160a01b03908116600090815260186020818152604080842089861685528252808420600290810180548a8816808852848820840154918b90039092558854909716865293835281852093855292909152909120918401910155612b25565b5060009392505050565b60606006805480602002602001604051908101604052809291908181526020016000905b82821015612b0f5760008481526020908190206040805160a0810182526005860290920180546001600160a01b03168352600180820180548451600261010094831615949094026000190190911692909204601f8101879004870283018701909452838252939491938583019391929091908301828280156131515780601f1061312657610100808354040283529160200191613151565b820191906000526020600020905b81548152906001019060200180831161313457829003601f168201915b5050509183525050600282810180546040805160206001841615610100026000190190931694909404601f810183900483028501830190915280845293810193908301828280156131e35780601f106131b8576101008083540402835291602001916131e3565b820191906000526020600020905b8154815290600101906020018083116131c657829003601f168201915b505050918352505060038201805460408051602060026001851615610100026000190190941693909304601f81018490048402820184019092528181529382019392918301828280156132775780601f1061324c57610100808354040283529160200191613277565b820191906000526020600020905b81548152906001019060200180831161325a57829003601f168201915b505050505081526020016004820154815250508152602001906001019061308e565b60009081526016602052604090205490565b613332816040518060400160405280601081526020016f149154555154d5081054141493d5915160821b815250604051806040016040528060068152602001651393d493505360d21b8152506040518060400160405280602081526020017f594f55522052455155455354204953204245494e472050524f4345535345442e8152506114ae565b42336001600160a01b0316600080516020614b2a8339815191526040516133589061489b565b60405180910390a3600081815260166020908152604080832054601090925290912060010154600290910490611fac906001600160a01b03163383612f3d565b6001600160a01b0381166000908152600a60209081526040808320805482518185028101850190935280835260609492939192909184015b828210156109b05760008481526020908190206040805160a0810182526005860290920180546001600160a01b03168352600180820180548451600261010094831615949094026000190190911692909204601f8101879004870283018701909452838252939491938583019391929091908301828280156134935780601f1061346857610100808354040283529160200191613493565b820191906000526020600020905b81548152906001019060200180831161347657829003601f168201915b5050509183525050600282810180546040805160206001841615610100026000190190931694909404601f810183900483028501830190915280845293810193908301828280156135255780601f106134fa57610100808354040283529160200191613525565b820191906000526020600020905b81548152906001019060200180831161350857829003601f168201915b505050918352505060038201805460408051602060026001851615610100026000190190941693909304601f81018490048402820184019092528181529382019392918301828280156135b95780601f1061358e576101008083540402835291602001916135b9565b820191906000526020600020905b81548152906001019060200180831161359c57829003601f168201915b50505050508152602001600482015481525050815260200190600101906133d0565b6001600160a01b031660009081526009602052604090205460ff1690565b6001546001600160a01b03908116600090815260186020908152604080832093861683529290529081206002015482106136455760405162461bcd60e51b8152600401611dd49061494e565b6001546001600160a01b0390811660009081526018602090815260408083208488168085529252909120549091161415611e495750600180546001600160a01b03908116600090815260186020908152604080832093871683529290522060020180548390039055611050565b6001600160a01b03166000908152600960205260409020805460ff19169055565b6001546001600160a01b039081166000908152601860209081526040808320848616808552925282205491929190911614156109b757506001546001600160a01b039081166000908152601860209081526040808320938516835292905220600201546109b7565b613743613a23565b60405180610100016040528089815260200188815260200185815260200184815260200187815260200186815260200187898b010181526020018486888a8c8e010101010181525090508060148a60405161379e9190614452565b9081526040805160209281900383019020835181559183015160018301558201516002820155606082015160038201556080820151600482015560a0820151600582015560c0820151600682015560e09091015160079091015561380289836109bc565b505050505050505050565b613815613c07565b6040518060a00160405280878152602001868152602001838152602001858152602001848152509050600b8760405161384e9190614452565b90815260405160209181900382019020805460018101825560009182529082902083518051859460059094029092019261388d92849290910190613aa0565b5060208281015180516138a69260018501920190613aa0565b5060408201516002820155606082015180516138cc916003840191602090910190613aa0565b50608082015180516138e8916004840191602090910190613aa0565b50505050505050505050565b60608161391957506040805180820190915260018152600360fc1b60208201526109b7565b8160005b811561393157600101600a8204915061391d565b6060816001600160401b038111801561394957600080fd5b506040519080825280601f01601f191660200182016040528015613974576020820181803683370190505b509050815b85156139cc57600019016000600a8704600a028703603001905060008160f81b9050808484815181106139a857fe5b60200101906001600160f81b031916908160001a905350600a880497505050613979565b50949350505050565b6060806040518060400160405280600381526020016201016160ed1b8152509050838184604051602001613a0b9392919061446e565b60405160208183030381529060405291505092915050565b60405180610100016040528060008152602001600081526020016000815260200160008152602001600081526020016000815260200160008152602001600081525090565b6040518060a0016040528060006001600160a01b03168152602001606081526020016060815260200160608152602001600081525090565b828054600181600116156101000203166002900490600052602060002090601f016020900481019282613ad65760008555613b1c565b82601f10613aef57805160ff1916838001178555613b1c565b82800160010185558215613b1c579182015b82811115613b1c578251825591602001919060010190613b01565b50613b28929150613c36565b5090565b6040518060c001604052806000815260200160006001600160a01b0316815260200160006001600160a01b031681526020016060815260200160008152602001600081525090565b604051806080016040528060006001600160a01b0316815260200160608152602001600081526020016000151581525090565b6040518060e0016040528060006001600160a01b031681526020016060815260200160608152602001600081526020016060815260200160008152602001600081525090565b604051806040016040528060608152602001606081525090565b6040518060a0016040528060608152602001606081526020016000815260200160608152602001606081525090565b5b80821115613b285760008155600101613c37565b600082601f830112613c5b578081fd5b81356001600160401b0380821115613c6f57fe5b604051601f8301601f191681016020018281118282101715613c8d57fe5b604052828152925082848301602001861015613ca857600080fd5b8260208601602083013760006020848301015250505092915050565b600060208284031215613cd5578081fd5b8135612b2581614b14565b600080600060608486031215613cf4578182fd5b8335613cff81614b14565b92506020840135613d0f81614b14565b929592945050506040919091013590565b60008060408385031215613d32578182fd5b8235613d3d81614b14565b915060208301356001600160401b03811115613d57578182fd5b613d6385828601613c4b565b9150509250929050565b600080600060608486031215613d81578283fd5b8335613d8c81614b14565b925060208401356001600160401b03811115613da6578283fd5b613db286828701613c4b565b925050604084013590509250925092565b60008060408385031215613dd5578182fd5b8235613de081614b14565b946020939093013593505050565b600060208284031215613dff578081fd5b81356001600160401b03811115613e14578182fd5b613e2084828501613c4b565b949350505050565b60008060408385031215613e3a578182fd5b82356001600160401b0380821115613e50578384fd5b613e5c86838701613c4b565b93506020850135915080821115613e71578283fd5b50613d6385828601613c4b565b600080600060608486031215613e92578283fd5b83356001600160401b0380821115613ea8578485fd5b613eb487838801613c4b565b94506020860135915080821115613ec9578384fd5b613ed587838801613c4b565b93506040860135915080821115613eea578283fd5b50613ef786828701613c4b565b9150509250925092565b60008060008060008060c08789031215613f19578182fd5b86356001600160401b0380821115613f2f578384fd5b613f3b8a838b01613c4b565b97506020890135915080821115613f50578384fd5b613f5c8a838b01613c4b565b96506040890135915080821115613f71578384fd5b613f7d8a838b01613c4b565b95506060890135915080821115613f92578384fd5b613f9e8a838b01613c4b565b94506080890135915080821115613fb3578384fd5b50613fc089828a01613c4b565b92505060a087013590509295509295509295565b60008060008060008060c08789031215613fec578182fd5b86356001600160401b0380821115614002578384fd5b61400e8a838b01613c4b565b97506020890135915080821115614023578384fd5b61402f8a838b01613c4b565b965060408901359550606089013591508082111561404b578384fd5b5061405889828a01613c4b565b9350506080870135915060a087013590509295509295509295565b60008060408385031215614085578182fd5b82356001600160401b0381111561409a578283fd5b6140a685828601613c4b565b95602094909401359450505050565b600080600080600080600060e0888a0312156140cf578081fd5b87356001600160401b038111156140e4578182fd5b6140f08a828b01613c4b565b9a60208a01359a5060408a013599606081013599506080810135985060a0810135975060c0013595509350505050565b600080600080600080600080610100898b03121561413c578182fd5b88356001600160401b03811115614151578283fd5b61415d8b828c01613c4b565b9b60208b01359b5060408b01359a60608101359a506080810135995060a0810135985060c0810135975060e0013595509350505050565b6000602082840312156141a5578081fd5b5035919050565b6000806000606084860312156141c0578081fd5b8335925060208401356001600160401b0380821115613ec9578283fd5b600080600080608085870312156141f2578182fd5b8435935060208501356001600160401b038082111561420f578384fd5b61421b88838901613c4b565b94506040870135915080821115614230578384fd5b61423c88838901613c4b565b93506060870135915080821115614251578283fd5b5061425e87828801613c4b565b91505092959194509250565b60008060006060848603121561427e578081fd5b505081359360208301359350604090920135919050565b6000815180845260208085019450808401835b838110156142c4578151875295820195908201906001016142a8565b509495945050505050565b600081518084526142e7816020860160208601614ae8565b601f01601f19169290920160200192915050565b600060018060a01b038251168352602082015160a0602085015261432260a08501826142cf565b90506040830151848203604086015261433b82826142cf565b9150506060830151848203606086015261435582826142cf565b915050608083015160808501528091505092915050565b600060018060a01b038251168352602082015160e0602085015261439360e08501826142cf565b9050604083015184820360408601526143ac82826142cf565b91505060608301516060850152608083015184820360808601526143d082826142cf565b91505060a083015160a085015260c083015160c08501528091505092915050565b600081518352602082015160018060a01b0380821660208601528060408501511660408601525050606082015160c0606085015261443260c08501826142cf565b90506080830151608085015260a083015160a08501528091505092915050565b60008251614464818460208701614ae8565b9190910192915050565b60008451614480818460208901614ae8565b845190830190614494818360208901614ae8565b84519101906144a7818360208801614ae8565b0195945050505050565b6001600160a01b0391909116815260200190565b60208082528251828201819052600091906040908185019080840286018301878501865b8381101561453957888303603f190185528151805187855261450d888601826142cf565b91890151858303868b015291905061452581836142cf565b9689019694505050908601906001016144e9565b509098975050505050505050565b6000602080830181845280855180835260408601915060408482028701019250838701855b8281101561459a57603f198886030184526145888583516142fb565b9450928501929085019060010161456c565b5092979650505050505050565b6000602080830181845280855180835260408601915060408482028701019250838701855b8281101561459a57603f198886030184526145e885835161436c565b945092850192908501906001016145cc565b6000602080830181845280855180835260408601915060408482028701019250838701855b8281101561459a57603f1988860301845261463b8583516142fb565b9450928501929085019060010161461f565b6000602080830181845280855180835260408601915060408482028701019250838701855b8281101561459a57603f1988860301845261468e8583516143f1565b94509285019290850190600101614672565b60208082528251828201819052600091906040908185019080840286018301878501865b8381101561453957603f19898403018552815160a081518186526146ea828701826142cf565b915050888201518582038a87015261470282826142cf565b91505087820151888601526060808301518683038288015261472483826142cf565b925050506080808301519250858203818701525061474281836142cf565b9689019694505050908601906001016146c4565b6000604082526147696040830185614295565b828103602084015261477b8185614295565b95945050505050565b901515815260200190565b600060208252612b2560208301846142cf565b60208082526011908201527012538811d313d09053081514905394d255607a1b604082015260600190565b6020808252601d908201527f456e74657220412056616c6964204465706f73697420416d6f756e7421000000604082015260600190565b6020808252602b908201527f4e6f7420456e6f7567682042616c616e636520746f205472616e73666572205460408201526a68697320416d6f756e742160a81b606082015260800190565b6020808252600690820152651393d493505360d21b604082015260600190565b60208082526012908201527114d21254135153950811115312559154915160721b604082015260600190565b60208082526010908201526f149154555154d5081054141493d5915160821b604082015260600190565b6020808252600f908201526e141050d2d051d14810d49150551151608a1b604082015260600190565b600060408252600c60408301526b53656e736f7273204461746160a01b606083015260806020830152612b2560808301846142cf565b60208082526010908201526f1253881313d0d053081514905394d25560821b604082015260600190565b6020808252601390820152724e6f7420456e6f7567682042616c616e63652160681b604082015260600190565b6020808252600f908201526e149154555154d50810d49150551151608a1b604082015260600190565b6020808252601b908201527f5041434b414745204953204f555420464f52205348495050494e470000000000604082015260600190565b60208082526008908201526710509393d493505360c21b604082015260600190565b602080825282516001600160a01b03168282015282015160806040830152600090614a2b60a08401826142cf565b9050604084015160608401526060840151151560808401528091505092915050565b600061010082019050825182526020830151602083015260408301516040830152606083015160608301526080830151608083015260a083015160a083015260c083015160c083015260e083015160e083015292915050565b600060208252612b25602083018461436c565b600060208252612b2560208301846142fb565b600060208252612b2560208301846143f1565b90815260200190565b60005b83811015614b03578181015183820152602001614aeb565b8381111561191b5750506000910152565b6001600160a01b03811681146112a057600080fdfe530abb16f843103fba748c032a23827a5140b72d210f41d8bbbc183708de524020594f555220534849504d454e542049532043555252454e544c5920494e205452414e5349542e20594f555220534849504d454e54204953204f555420464f52205348495050494e475041434b414745204953204352454154454420414e4420534849504d454e5420495320524541445920544f204c4541564520464f522053485050494e472e594f555220534849504d454e542049532044454c495645524544205355434345535346554c4c592e594f555220534849504d454e542049532053455420464f522044454c495645525920414e4420495320455850454354454420544f2041525249564520534f4f4e2ea5c6f15554bc8ce0c037ba8151c192afe39c97efe0dee46b4b19f486e3a6d3bda2646970667358221220bac0a60eab255a652730ab234f2f9736765ee51410ed6149d303c4cc7607660d64736f6c63430007040033",
  "immutableReferences": {},
  "source": "// \"SPDX-License-Identifier: UNLICENSED\"\npragma solidity >=0.6.2;\npragma experimental ABIEncoderV2;  \n\ncontract NewDemoTest {\n\n// CONTRACT CONTENT GOES HERE\n    \n    // UTILS\n    \n    function strComp(string memory x , string memory y ) public pure returns (bool){\n        \n        return (keccak256(abi.encodePacked((x))) == keccak256(abi.encodePacked((y))));\n        \n    }\n    \n    function toString(uint _i) internal pure returns (string memory _uintAsString) {\n        \n        if (_i == 0) {\n            return \"0\";\n        }\n        uint j = _i;\n        uint len;\n        while (j != 0) {\n            len++;\n            j /= 10;\n        }\n        bytes memory bstr = new bytes(len);\n        uint k = len;\n        while (_i != 0) {\n            k = k-1;\n            uint8 temp = (48 + uint8(_i - _i / 10 * 10));\n            bytes1 b1 = bytes1(temp);\n            bstr[k] = b1;\n            _i /= 10;\n        }\n        return string(bstr);\n    }\n    \n    function concat(string memory a, string memory b) internal pure returns (string memory) {\n    string memory c = ' , ';\n    return string(abi.encodePacked( a, c, b));\n\n    }\n\n    // END OF UTILS\n\n    \n    \n    address     admin;\n    address     payable bank;\n    uint        trackNoCount = 115912;\n    uint        tempThreshold = 40;\n    uint        humidityThreshold = 50;\n    Material[]  materialArr;\n    Product[]   productArr;\n    uint[]      tempArr;\n    uint[]      humidArr;\n    enum        Role                 {MANUFACTURER, SUPPLIER, DISTRIBUTOR, DRUG_AUTHORITY , BANK}\n    mapping (address => bool)        participants;\n    mapping (address => Product[])   products;    // manufacturer and product\n    mapping (string => Specs[])      productSpecs; // productID and material \n    mapping (string => Product)      productList; // product by id\n    mapping (address => Material[])  materials;   //Participant(supplier) and material\n    mapping (string => Material)     materialList; // materials by id\n    mapping (address => Request[])   requests;   // participant and requests\n    mapping (uint => Request)        requestList; // requests by id\n    mapping (uint => Log[])          trackLogs; //requestId and Log\n    mapping (uint => uint[])         tempDataLogs; // requestId and temp data\n    mapping (uint => uint[])         humidDataLogs; // requestId and humid data\n    mapping (string => Cost)         standardProductCosts;\n    mapping (string => Cost)         actualProductCosts;\n    mapping (uint => uint)           requestCost;    // requestId and Total Cost.\n    mapping (uint => Location[])     requestLocations; //request id and locations\n    mapping (address => mapping (address => BankAccount) ) userBankAccounts; // bankAddr -> userAddr -> userAcc\n    event   DataSent (string DataCategory , string dataValues , uint indexed timestamp  );\n    event   ShipmentStateUpdate (uint indexed requestNo, string  state, uint indexed timestamp);\n    event   requestStateUpdate (address indexed who, uint indexed timestamp , string  state);\n  \n    \n    \n    struct BankAccount {\n    \n        address userId;\n        string  userName;\n        uint    userBalance;\n        bool    isActive;\n    }\n    \n    struct Participant {\n        \n        address particId;\n        Role    particRole;\n    }\n    \n\n    struct Product {\n        \n        address manufacturer;\n        string  productId; //registration no.\n        string  productName;\n        string  productForm; // tablets or capsules\n        uint    productBudget;\n        \n    }\n    \n    struct Material {\n        address supplier;\n        string  materialID;\n        string  materialName;\n        uint  materialStrength;\n        string  materialForm;\n        uint    createdAmount;\n        uint    unitCost;\n    }\n    \n    struct Specs {\n        string  materialName;\n        string  materialType;\n        uint    materialAmount;\n        string  materialStrength;\n        string  materialForm;\n        \n    }\n\n    struct Request {\n        uint    requestId;\n        address fromParti;\n        address toParti;\n        string  materialID;\n        uint    amount;\n        uint    issueTime;\n    }\n    \n       struct Log {\n        address logger;\n        string  requestStatus;\n        string  description;\n        string  shipmentStatus;\n        uint    logTime;\n    }\n    \n    struct Cost {\n        uint directMaterialCost;\n        uint packagingMaterialCost;\n        uint marketingCost;\n        uint researchCost;\n        uint directLaborCost;\n        uint totalIndirectCost; // indirect manufacturing costs\n        uint totalDirectCost;\n        uint CostTOT; // direct material + direct labor + total indirect\n    }\n    \n    struct Location {\n        string Latitude;\n        string Longitude;\n    }\n    \n    \n    \n    // FUNCTIONS\n    \n    //constructor\n    \n    // constructor() {\n        \n    // }\n    \n    // modifier onlyAdmin {\n    //     require(msg.sender == admin);\n    //     _;\n    // }\n\n    \n    // Core functions \n    \n    \n    \n    // Handle participants privileges\n    \n    function verifyParticipant(address _participant) public  {\n             participants[_participant] = true;\n    }\n    \n    function unverifyParticipant(address _participant ) public  {\n             participants[_participant] = false;\n    }\n         \n    function isVerfied(address _participant) public view returns (bool) {\n             return participants[_participant];\n    }\n    \n\n    \n    // MANUFACTURING STUFF GOES HERE\n\n    \n    function addProduct(\n    \n    string memory _id,\n    string memory _name,\n    string memory _pForm\n    \n    ) public {\n        \n        Product memory pro = Product({\n            productId: _id,\n            productName: _name,\n            productForm: _pForm,\n            productBudget: 0,\n            manufacturer: msg.sender\n        });\n        \n        products[msg.sender].push(pro);\n        productList[_id] = pro;\n        productArr.push(pro);\n        \n    }\n    \n    function addProductSpecs(\n    \n    string memory _productID,\n    string memory _name,\n    string memory _type,\n    string memory _strength,\n    string memory _form,\n    uint          _amount\n    \n    ) public {\n    \n        Specs memory spec = Specs({\n            materialName: _name,\n            materialType: _type,\n            materialForm: _form,\n            materialAmount: _amount,\n            materialStrength: _strength\n            \n        });      \n        \n        productSpecs[_productID].push(spec);\n        \n    }\n    \n      \n    function getProductsByManu(address _manufacturer) public view returns(Product[] memory) {\n        return products[_manufacturer];\n    }\n    \n    function getProducts() public view returns(Product[] memory) {\n        return productArr;\n    }\n    \n    function getProductById(string memory _id) public view returns(Product memory) {\n        return productList[_id];\n    }\n    \n    function getProductSpecs(string memory _product) public view returns(Specs[] memory) {\n        return productSpecs[_product];\n    }\n    \n    \n    // END OF MANUFACTURING STUFF\n\n    // COST ACCOUNTING STUFF GOES HERE\n    \n    function setStdCostPlan(\n    \n    string memory _product,\n    uint    _directMatCost,\n    uint    _pkgMatCost,\n    uint    _directLaborCost,\n    uint    _totIndirectCosts,\n    uint    _mrkCost,\n    uint    _rsrchCost,\n    uint    _productBudget\n    \n        ) public {\n    \n    Cost memory stdCosts = Cost({\n        directMaterialCost: _directMatCost,\n        directLaborCost: _directLaborCost,\n        totalIndirectCost: _totIndirectCosts,\n        totalDirectCost: _directMatCost + _pkgMatCost +  _directLaborCost,\n        packagingMaterialCost: _pkgMatCost,\n        marketingCost: _mrkCost,\n        researchCost: _rsrchCost,\n        CostTOT: _directMatCost + _pkgMatCost +  _directLaborCost + _totIndirectCosts + _mrkCost  + _rsrchCost\n       \n    });\n    \n    standardProductCosts[_product] = stdCosts;\n    \n    setProductBudget(_product, _productBudget);\n    \n    }\n    \n    function setProductBudget(string memory _product, uint _budget) public {\n        if(strComp(_product, products[msg.sender][0].productId)) {\n            products[msg.sender][0].productBudget = _budget;\n        }\n       \n    }\n    \n    \n    function getStdCostPlan(string memory _product) public view returns(Cost memory) {\n        return standardProductCosts[_product];\n    }\n    \n    function setActualCost(\n    \n    string memory _product,\n    uint _actualMatCost,\n    uint _actualPkgMatCost,\n    uint _actualLaborCost,\n    uint _actualIndirectCost,\n    uint _actualMrkCost,\n    uint _actualRsrchCost\n    \n    ) public {\n        Cost memory actualCosts = Cost({\n            directMaterialCost: _actualMatCost,\n            packagingMaterialCost: _actualPkgMatCost,\n            totalDirectCost: _actualMatCost + _actualPkgMatCost + _actualLaborCost,\n            marketingCost: _actualMrkCost,\n            researchCost: _actualRsrchCost,\n            directLaborCost: _actualLaborCost,\n            totalIndirectCost: _actualIndirectCost,\n            CostTOT: _actualMatCost + _actualPkgMatCost + _actualLaborCost + _actualIndirectCost\n                     + _actualMrkCost + _actualRsrchCost\n        });\n        \n        actualProductCosts[_product] = actualCosts;\n    }\n    \n    function getActualCost(string memory _product) public view returns(Cost memory) {\n        \n        return actualProductCosts[_product];\n    }\n    \n    // END OF  COST ACCOUNTING STUFF\n    \n    // SUPPLYING STUFF GOES HERE\n    \n    // Creation of Material By Supplier\n    \n    function createMaterial(\n    \n    string memory _id,\n    string memory _name,\n    uint          _str,\n    string memory _form,\n    uint          _amount,\n    uint          _unitCost\n    \n    ) public {\n        \n        Material memory mat = Material({\n           supplier: msg.sender,\n           materialID:   _id,\n           materialName: _name,\n           materialForm: _form,\n           materialStrength: _str,\n           createdAmount: _amount,\n           unitCost:      _unitCost\n        });\n\n        materials[msg.sender].push(mat);\n        materialList[_id] = mat;\n        materialArr.push(mat);\n        \n        \n    }\n    \n    // TODOO : * Search Materials By Name and Type (e.g. Vitamin-a , active )\n    // * send material supplier a request.\n    // * calculate request cost and pay half the total cost in advance in case of request approval\n    \n    function getMaterialsBySupplier(address _supplier) public view returns(Material[] memory ) {\n        return materials[_supplier];\n    }\n    \n    \n    // Materials to filter through\n    \n    function getMaterials() public view returns(Material[] memory) {\n        return materialArr;\n    }\n    \n    function getMaterialById (string memory _materialId) public view returns(Material memory) {\n        return materialList[_materialId];\n    }\n    \n\n    function createRequest(\n    \n    address _to ,\n    string memory _materialId,\n    uint _amount )\n    \n    public {\n        trackNoCount += 325;\n        Request memory req = Request({\n           requestId: trackNoCount,\n           fromParti: msg.sender,\n           toParti: _to,\n           materialID : _materialId,\n           amount: _amount,\n           issueTime: block.timestamp\n        });\n        \n        requestCost[req.requestId] = req.amount * materialList[_materialId].unitCost; \n        requests[msg.sender].push(req);\n        requestList[req.requestId] = req;\n        emit requestStateUpdate(msg.sender, block.timestamp , 'REQUEST CREATED');\n    }\n    \n    function getRequestCost(uint _id) public view returns(uint) {\n        return requestCost[_id];\n    }\n    \n    function getMyRequests() public view returns (Request[] memory) {\n        \n        return requests[msg.sender];\n    }\n    \n    function getRequestById(uint _id) public view returns (Request memory) {\n        return requestList[_id];\n    }\n    \n     \n     // return received requests (filtering: to address) for the portal control\n     \n    //  function getMyReceivedRequests() public view returns (Request[] memory) {\n        \n    //     return requests[msg.sender];\n    // }\n    \n    function getRequestByAddress(address _participant) public  view returns(Request[] memory) {\n        \n        return requests[_participant];\n    }\n    \n    // END OF SUPPLING STUFF\n        \n    // BANKING STUFF GOES HERE \n    \n    // functions that has 'self' word are invokable by msg.sender\n    // other functions should require admin / bank control of execution\n    \n    function setAsBank(address payable _addr) public {\n        bank = _addr;\n        \n    }\n    \n    function getBank() public view returns (address) {\n        return bank;\n    }\n    \n    function createBankAccount(address _userAddr, string memory _userName) public {\n        \n        BankAccount memory account = BankAccount({\n            \n            userId:  _userAddr,\n            userName: _userName,\n            userBalance: 0,\n            isActive: true\n            \n        });\n        \n        userBankAccounts[bank][_userAddr] = account;\n        \n    }\n    \n     function selfCreateBankAccount(string memory _userName) public {\n        \n       createBankAccount(msg.sender, _userName);\n        \n    }\n    \n    function hasBankAccount(address _userAddr) public view returns (bool) {\n        if (userBankAccounts[bank][_userAddr].isActive != false) {\n            return true;\n        }\n        else {\n            return false;\n        }\n    }\n    \n    function deposit (address _userAddr, uint _amount) public returns (bool) {\n        \n        require (_amount > 0, 'Enter A Valid Deposit Amount!');\n        if ( userBankAccounts[bank][_userAddr].userId == _userAddr) {\n            uint balance = userBankAccounts[bank][_userAddr].userBalance;\n            balance += _amount;\n            userBankAccounts[bank][_userAddr].userBalance = balance;\n            return true;\n        }\n        else {\n            return false;\n        }\n        \n    }\n    \n    function selfDeposit (uint _amount) public returns (bool) {\n        \n       return deposit(msg.sender, _amount);\n        \n    }\n    \n    function withdraw (address _userAddr, uint _amount) public returns (bool) {\n        \n        require(userBankAccounts[bank][_userAddr].userBalance > _amount , 'Not Enough Balance!' );\n        if (userBankAccounts[bank][_userAddr].userId == _userAddr) {\n            \n            uint balance = userBankAccounts[bank][_userAddr].userBalance;\n            balance -= _amount;\n            userBankAccounts[bank][_userAddr].userBalance = balance;\n            return true;\n        }\n        else {\n            return false;\n        }\n    }\n    \n    function selfWithdraw (uint _amount) public returns (bool) {\n        \n       return withdraw(msg.sender, _amount);\n    }\n    \n    function getBalance (address _userAddr) public view returns (uint x) {\n        \n         if (userBankAccounts[bank][_userAddr].userId == _userAddr) {\n             uint balance = userBankAccounts[bank][_userAddr].userBalance;\n             return balance;\n        }\n    }\n    \n    function selfGetBalance () public view returns (uint x) {\n        \n        return getBalance(msg.sender);\n    }\n    \n    function transfer (address _from, address _to , uint _amount) public returns (bool) {\n        \n         require(userBankAccounts[bank][_from].userBalance >= _amount ,\n         'Not Enough Balance to Transfer This Amount!' );\n         \n        if (userBankAccounts[bank][_from].userId == _from && userBankAccounts[bank][_to].isActive == true) {\n            \n            uint fromBalance = userBankAccounts[bank][_from].userBalance;\n            uint toBalance = userBankAccounts[bank][_to].userBalance;\n            fromBalance -= _amount;\n            toBalance += _amount;\n            userBankAccounts[bank][_from].userBalance = fromBalance;\n            userBankAccounts[bank][_to].userBalance = toBalance; \n            return true;\n        }\n        else {\n            return false;\n        }\n        \n    }\n    \n     function selfTransfer (address _to , uint _amount) public returns (bool) {\n            return transfer(msg.sender, _to , _amount);\n    }\n    \n    \n    function getAccountDetails(address _account) public view returns (BankAccount memory) {\n        return userBankAccounts[bank][_account];\n    }\n    \n    function selfGetAccountDetails() public view returns (BankAccount memory) {\n        return userBankAccounts[bank][msg.sender];\n    }\n    \n    // END OF BANKING STUFF\n    \n    // TRACKING STUFF GOES HERE\n    \n    \n    // TRACKING STEPS:\n    // 1- REQUEST IS CREATED\n    // 2- SUPPLIER APPROVE REQUEST\n    // 3- SUPPLIER CREATE AND SEND SHIPMENT FOR GLOBAL TRANSMISSION\n    // 4- GLOBAL TRANSMISSION SHIPS PACKAGE FOR LOCAL TRANSMISSION\n    // 5- LOCAL TRANSMISSION SHIPS PACKAGE TO FINAL DESTINATION (MANUFACTURER)\n    \n    //supplier\n    \n    function approveRequest(uint _requestId) public {\n        createLog(_requestId, 'REQUEST APPROVED', 'NORMAL' , 'YOUR REQUEST IS BEING PROCESSED.' );\n        emit requestStateUpdate(msg.sender, block.timestamp , 'REQUEST APPROVED');\n        uint payment = requestCost[_requestId]/2;\n        transfer(requestList[_requestId].fromParti, msg.sender, payment);\n    }\n    \n \n    \n    function verifyShipmentState(uint _id) public returns (string memory) {\n        \n        string memory status;\n        \n        if(tempArr[tempArr.length-1] >= tempThreshold || humidArr[humidArr.length-1] >= humidityThreshold) {\n            \n            status = 'ABNORMAL';\n             emit ShipmentStateUpdate (_id, status , block.timestamp);\n            \n        } else {\n            \n            status = 'NORMAL';\n             emit ShipmentStateUpdate (_id, status , block.timestamp);\n        }\n          return status;\n    }\n    \n \n    // supplier \n    function sendShipment(uint _requestId) public {\n        string memory result = verifyShipmentState(_requestId);\n        \n        createLog(_requestId, 'PACKAGE CREATED',  result , 'PACKAGE IS CREATED AND SHIPMENT IS READY TO LEAVE FOR SHPPING.' );\n        emit requestStateUpdate(msg.sender, block.timestamp , 'PACKAGE CREATED');\n        \n        createLog (_requestId, 'OUT FOR SHIPPING', result , ' YOUR SHIPMENT IS OUT FOR SHIPPING'); \n        emit requestStateUpdate(msg.sender, block.timestamp , 'PACKAGE IS OUT FOR SHIPPING');\n    }\n    \n    // global distributor\n    function globalTransitShipment(uint _requestId) public {\n        \n        string memory result = verifyShipmentState(_requestId);\n        \n        createLog (_requestId, 'SHIPPING PACKAGE', result , ' YOUR SHIPMENT IS CURRENTLY IN TRANSIT.');\n        emit requestStateUpdate(msg.sender, block.timestamp , 'IN GLOBAL TRANSIT');\n        \n    }\n    \n    //local distributor\n    function localTransitShipment(uint _requestId) public {\n        \n         string memory result = verifyShipmentState(_requestId);\n         \n        createLog (_requestId, 'READY FOR DELIVERY', result , 'YOUR SHIPMENT IS SET FOR DELIVERY AND IS EXPECTED TO ARRIVE SOON.');\n        emit requestStateUpdate(msg.sender, block.timestamp , 'IN LOCAL TRANSIT');\n        \n    }\n     \n    //manufacturer\n    \n    function receiveShipment(uint _requestId) public {\n        string memory result = verifyShipmentState(_requestId);\n        createLog(_requestId, 'DELIVERED' , result , 'YOUR SHIPMENT IS DELIVERED SUCCESSFULLY.');\n        emit requestStateUpdate(msg.sender, block.timestamp , 'SHIPMENT DELIVERED');\n        \n        uint payment = requestCost[_requestId] - requestCost[_requestId]/2;\n        transfer(requestList[_requestId].fromParti, msg.sender, payment);\n    }\n    \n    \n    function createLog(\n    uint _requestId,\n    string memory _requestStatus,\n    string memory _shipmentStatus,\n    string memory _description\n    \n    ) public  {\n        \n        Log memory myLog = Log({\n            logger: msg.sender,\n            requestStatus: _requestStatus,\n            shipmentStatus: _shipmentStatus,\n            description: _description,\n            logTime: block.timestamp\n        });\n        \n        trackLogs[_requestId].push(myLog);\n        emit requestStateUpdate(msg.sender, block.timestamp , _requestStatus);\n    }\n    \n    function setShipmentTrackData (uint _id, uint _temp , uint _humid) public {\n        \n        tempDataLogs[_id].push(_temp);\n        tempArr.push(_temp);\n        humidDataLogs[_id].push(_humid);\n        humidArr.push(_humid);\n        emit DataSent('Sensors Data', concat(toString(_temp),toString(_humid)), block.timestamp);\n        if(_temp >= tempThreshold || _humid >= humidityThreshold) {\n            emit ShipmentStateUpdate (_id, 'ABNORMAL' , block.timestamp);\n        } else {\n             emit ShipmentStateUpdate (_id, 'NORMAL' , block.timestamp);\n        }\n    }\n    \n    function getShipmentTrackData (uint _id) public view returns (uint[] memory temp, uint[] memory humid) {\n        return (tempDataLogs[_id],humidDataLogs[_id]);\n        \n    }\n    \n    function getTrackLogs(uint _request) public view returns(Log[] memory) {\n        return trackLogs[_request];\n    }\n    \n    \n    function setShipmentLocation (uint _id, string memory _lat , string memory _long) public {\n        Location memory loc = Location({\n            Latitude: _lat,\n            Longitude: _long\n        });\n        \n        requestLocations[_id].push(loc);\n    }\n    \n    function getShipmentLocation (uint _id) public view returns (Location[] memory) {\n        return requestLocations[_id];\n    }\n    \n    // END OF TRACKING STUFF\n    \n// END OF CONTRACT\n\n}",
  "sourcePath": "/home/mohamedkaram/Documents/Demo-sandbox/contracts/NewDemoTest.sol",
  "compiler": {
    "name": "solc",
    "version": "0.7.4+commit.3f05b770.Emscripten.clang"
  },
  "schemaVersion": "3.3.3",
  "updatedAt": "2021-03-14T12:01:08.383Z",
  "networkType": "ethereum",
  "devdoc": {
    "kind": "dev",
    "methods": {},
    "version": 1
  },
  "userdoc": {
    "kind": "user",
    "methods": {},
    "version": 1
  }
}