{
  "contractName": "NewDemoTest",
  "abi": [
    {
      "anonymous": false,
      "inputs": [
        {
          "indexed": false,
          "internalType": "string",
          "name": "DataCategory",
          "type": "string"
        },
        {
          "indexed": true,
          "internalType": "string",
          "name": "dataValues",
          "type": "string"
        },
        {
          "indexed": true,
          "internalType": "uint256",
          "name": "timestamp",
          "type": "uint256"
        }
      ],
      "name": "DataSent",
      "type": "event"
    },
    {
      "anonymous": false,
      "inputs": [
        {
          "indexed": false,
          "internalType": "uint256",
          "name": "requestNo",
          "type": "uint256"
        },
        {
          "indexed": false,
          "internalType": "string",
          "name": "state",
          "type": "string"
        },
        {
          "indexed": false,
          "internalType": "uint256",
          "name": "timestamp",
          "type": "uint256"
        }
      ],
      "name": "ShipmentStateUpdate",
      "type": "event"
    },
    {
      "anonymous": false,
      "inputs": [
        {
          "indexed": true,
          "internalType": "address",
          "name": "who",
          "type": "address"
        },
        {
          "indexed": true,
          "internalType": "uint256",
          "name": "timestamp",
          "type": "uint256"
        },
        {
          "indexed": true,
          "internalType": "string",
          "name": "state",
          "type": "string"
        }
      ],
      "name": "requestStateUpdate",
      "type": "event"
    },
    {
      "inputs": [
        {
          "internalType": "string",
          "name": "x",
          "type": "string"
        },
        {
          "internalType": "string",
          "name": "y",
          "type": "string"
        }
      ],
      "name": "strComp",
      "outputs": [
        {
          "internalType": "bool",
          "name": "",
          "type": "bool"
        }
      ],
      "stateMutability": "pure",
      "type": "function",
      "constant": true
    },
    {
      "inputs": [
        {
          "internalType": "address",
          "name": "_participant",
          "type": "address"
        }
      ],
      "name": "verifyParticipant",
      "outputs": [],
      "stateMutability": "nonpayable",
      "type": "function"
    },
    {
      "inputs": [
        {
          "internalType": "address",
          "name": "_participant",
          "type": "address"
        }
      ],
      "name": "unverifyParticipant",
      "outputs": [],
      "stateMutability": "nonpayable",
      "type": "function"
    },
    {
      "inputs": [
        {
          "internalType": "address",
          "name": "_participant",
          "type": "address"
        }
      ],
      "name": "isVerfied",
      "outputs": [
        {
          "internalType": "bool",
          "name": "",
          "type": "bool"
        }
      ],
      "stateMutability": "view",
      "type": "function",
      "constant": true
    },
    {
      "inputs": [
        {
          "internalType": "string",
          "name": "_id",
          "type": "string"
        },
        {
          "internalType": "string",
          "name": "_name",
          "type": "string"
        },
        {
          "internalType": "string",
          "name": "_pForm",
          "type": "string"
        }
      ],
      "name": "addProduct",
      "outputs": [],
      "stateMutability": "nonpayable",
      "type": "function"
    },
    {
      "inputs": [
        {
          "internalType": "string",
          "name": "_productID",
          "type": "string"
        },
        {
          "internalType": "string",
          "name": "_name",
          "type": "string"
        },
        {
          "internalType": "string",
          "name": "_type",
          "type": "string"
        },
        {
          "internalType": "string",
          "name": "_strength",
          "type": "string"
        },
        {
          "internalType": "string",
          "name": "_form",
          "type": "string"
        },
        {
          "internalType": "uint256",
          "name": "_amount",
          "type": "uint256"
        }
      ],
      "name": "addProductSpecs",
      "outputs": [],
      "stateMutability": "nonpayable",
      "type": "function"
    },
    {
      "inputs": [
        {
          "internalType": "address",
          "name": "_manufacturer",
          "type": "address"
        }
      ],
      "name": "getProductsByManu",
      "outputs": [
        {
          "components": [
            {
              "internalType": "address",
              "name": "manufacturer",
              "type": "address"
            },
            {
              "internalType": "string",
              "name": "productId",
              "type": "string"
            },
            {
              "internalType": "string",
              "name": "productName",
              "type": "string"
            },
            {
              "internalType": "string",
              "name": "productForm",
              "type": "string"
            },
            {
              "internalType": "uint256",
              "name": "productBudget",
              "type": "uint256"
            }
          ],
          "internalType": "struct NewDemoTest.Product[]",
          "name": "",
          "type": "tuple[]"
        }
      ],
      "stateMutability": "view",
      "type": "function",
      "constant": true
    },
    {
      "inputs": [],
      "name": "getProducts",
      "outputs": [
        {
          "components": [
            {
              "internalType": "address",
              "name": "manufacturer",
              "type": "address"
            },
            {
              "internalType": "string",
              "name": "productId",
              "type": "string"
            },
            {
              "internalType": "string",
              "name": "productName",
              "type": "string"
            },
            {
              "internalType": "string",
              "name": "productForm",
              "type": "string"
            },
            {
              "internalType": "uint256",
              "name": "productBudget",
              "type": "uint256"
            }
          ],
          "internalType": "struct NewDemoTest.Product[]",
          "name": "",
          "type": "tuple[]"
        }
      ],
      "stateMutability": "view",
      "type": "function",
      "constant": true
    },
    {
      "inputs": [
        {
          "internalType": "string",
          "name": "_id",
          "type": "string"
        }
      ],
      "name": "getProductById",
      "outputs": [
        {
          "components": [
            {
              "internalType": "address",
              "name": "manufacturer",
              "type": "address"
            },
            {
              "internalType": "string",
              "name": "productId",
              "type": "string"
            },
            {
              "internalType": "string",
              "name": "productName",
              "type": "string"
            },
            {
              "internalType": "string",
              "name": "productForm",
              "type": "string"
            },
            {
              "internalType": "uint256",
              "name": "productBudget",
              "type": "uint256"
            }
          ],
          "internalType": "struct NewDemoTest.Product",
          "name": "",
          "type": "tuple"
        }
      ],
      "stateMutability": "view",
      "type": "function",
      "constant": true
    },
    {
      "inputs": [
        {
          "internalType": "string",
          "name": "_product",
          "type": "string"
        }
      ],
      "name": "getProductSpecs",
      "outputs": [
        {
          "components": [
            {
              "internalType": "string",
              "name": "materialName",
              "type": "string"
            },
            {
              "internalType": "string",
              "name": "materialType",
              "type": "string"
            },
            {
              "internalType": "uint256",
              "name": "materialAmount",
              "type": "uint256"
            },
            {
              "internalType": "string",
              "name": "materialStrength",
              "type": "string"
            },
            {
              "internalType": "string",
              "name": "materialForm",
              "type": "string"
            }
          ],
          "internalType": "struct NewDemoTest.Specs[]",
          "name": "",
          "type": "tuple[]"
        }
      ],
      "stateMutability": "view",
      "type": "function",
      "constant": true
    },
    {
      "inputs": [
        {
          "internalType": "string",
          "name": "_product",
          "type": "string"
        },
        {
          "internalType": "uint256",
          "name": "_directMatCost",
          "type": "uint256"
        },
        {
          "internalType": "uint256",
          "name": "_pkgMatCost",
          "type": "uint256"
        },
        {
          "internalType": "uint256",
          "name": "_directLaborCost",
          "type": "uint256"
        },
        {
          "internalType": "uint256",
          "name": "_totIndirectCosts",
          "type": "uint256"
        },
        {
          "internalType": "uint256",
          "name": "_mrkCost",
          "type": "uint256"
        },
        {
          "internalType": "uint256",
          "name": "_rsrchCost",
          "type": "uint256"
        },
        {
          "internalType": "uint256",
          "name": "_productBudget",
          "type": "uint256"
        }
      ],
      "name": "setStdCostPlan",
      "outputs": [],
      "stateMutability": "nonpayable",
      "type": "function"
    },
    {
      "inputs": [
        {
          "internalType": "string",
          "name": "_product",
          "type": "string"
        },
        {
          "internalType": "uint256",
          "name": "_budget",
          "type": "uint256"
        }
      ],
      "name": "setProductBudget",
      "outputs": [],
      "stateMutability": "nonpayable",
      "type": "function"
    },
    {
      "inputs": [
        {
          "internalType": "string",
          "name": "_product",
          "type": "string"
        }
      ],
      "name": "getStdCostPlan",
      "outputs": [
        {
          "components": [
            {
              "internalType": "uint256",
              "name": "directMaterialCost",
              "type": "uint256"
            },
            {
              "internalType": "uint256",
              "name": "packagingMaterialCost",
              "type": "uint256"
            },
            {
              "internalType": "uint256",
              "name": "marketingCost",
              "type": "uint256"
            },
            {
              "internalType": "uint256",
              "name": "researchCost",
              "type": "uint256"
            },
            {
              "internalType": "uint256",
              "name": "directLaborCost",
              "type": "uint256"
            },
            {
              "internalType": "uint256",
              "name": "totalIndirectCost",
              "type": "uint256"
            },
            {
              "internalType": "uint256",
              "name": "totalDirectCost",
              "type": "uint256"
            },
            {
              "internalType": "uint256",
              "name": "CostTOT",
              "type": "uint256"
            }
          ],
          "internalType": "struct NewDemoTest.Cost",
          "name": "",
          "type": "tuple"
        }
      ],
      "stateMutability": "view",
      "type": "function",
      "constant": true
    },
    {
      "inputs": [
        {
          "internalType": "string",
          "name": "_product",
          "type": "string"
        },
        {
          "internalType": "uint256",
          "name": "_actualMatCost",
          "type": "uint256"
        },
        {
          "internalType": "uint256",
          "name": "_actualPkgMatCost",
          "type": "uint256"
        },
        {
          "internalType": "uint256",
          "name": "_actualLaborCost",
          "type": "uint256"
        },
        {
          "internalType": "uint256",
          "name": "_actualIndirectCost",
          "type": "uint256"
        },
        {
          "internalType": "uint256",
          "name": "_actualMrkCost",
          "type": "uint256"
        },
        {
          "internalType": "uint256",
          "name": "_actualRsrchCost",
          "type": "uint256"
        }
      ],
      "name": "setActualCost",
      "outputs": [],
      "stateMutability": "nonpayable",
      "type": "function"
    },
    {
      "inputs": [
        {
          "internalType": "string",
          "name": "_product",
          "type": "string"
        }
      ],
      "name": "getActualCost",
      "outputs": [
        {
          "components": [
            {
              "internalType": "uint256",
              "name": "directMaterialCost",
              "type": "uint256"
            },
            {
              "internalType": "uint256",
              "name": "packagingMaterialCost",
              "type": "uint256"
            },
            {
              "internalType": "uint256",
              "name": "marketingCost",
              "type": "uint256"
            },
            {
              "internalType": "uint256",
              "name": "researchCost",
              "type": "uint256"
            },
            {
              "internalType": "uint256",
              "name": "directLaborCost",
              "type": "uint256"
            },
            {
              "internalType": "uint256",
              "name": "totalIndirectCost",
              "type": "uint256"
            },
            {
              "internalType": "uint256",
              "name": "totalDirectCost",
              "type": "uint256"
            },
            {
              "internalType": "uint256",
              "name": "CostTOT",
              "type": "uint256"
            }
          ],
          "internalType": "struct NewDemoTest.Cost",
          "name": "",
          "type": "tuple"
        }
      ],
      "stateMutability": "view",
      "type": "function",
      "constant": true
    },
    {
      "inputs": [
        {
          "internalType": "string",
          "name": "_id",
          "type": "string"
        },
        {
          "internalType": "string",
          "name": "_name",
          "type": "string"
        },
        {
          "internalType": "uint256",
          "name": "_str",
          "type": "uint256"
        },
        {
          "internalType": "string",
          "name": "_form",
          "type": "string"
        },
        {
          "internalType": "uint256",
          "name": "_amount",
          "type": "uint256"
        },
        {
          "internalType": "uint256",
          "name": "_unitCost",
          "type": "uint256"
        }
      ],
      "name": "createMaterial",
      "outputs": [],
      "stateMutability": "nonpayable",
      "type": "function"
    },
    {
      "inputs": [
        {
          "internalType": "address",
          "name": "_supplier",
          "type": "address"
        }
      ],
      "name": "getMaterialsBySupplier",
      "outputs": [
        {
          "components": [
            {
              "internalType": "address",
              "name": "supplier",
              "type": "address"
            },
            {
              "internalType": "string",
              "name": "materialID",
              "type": "string"
            },
            {
              "internalType": "string",
              "name": "materialName",
              "type": "string"
            },
            {
              "internalType": "uint256",
              "name": "materialStrength",
              "type": "uint256"
            },
            {
              "internalType": "string",
              "name": "materialForm",
              "type": "string"
            },
            {
              "internalType": "uint256",
              "name": "createdAmount",
              "type": "uint256"
            },
            {
              "internalType": "uint256",
              "name": "unitCost",
              "type": "uint256"
            }
          ],
          "internalType": "struct NewDemoTest.Material[]",
          "name": "",
          "type": "tuple[]"
        }
      ],
      "stateMutability": "view",
      "type": "function",
      "constant": true
    },
    {
      "inputs": [],
      "name": "getMaterials",
      "outputs": [
        {
          "components": [
            {
              "internalType": "address",
              "name": "supplier",
              "type": "address"
            },
            {
              "internalType": "string",
              "name": "materialID",
              "type": "string"
            },
            {
              "internalType": "string",
              "name": "materialName",
              "type": "string"
            },
            {
              "internalType": "uint256",
              "name": "materialStrength",
              "type": "uint256"
            },
            {
              "internalType": "string",
              "name": "materialForm",
              "type": "string"
            },
            {
              "internalType": "uint256",
              "name": "createdAmount",
              "type": "uint256"
            },
            {
              "internalType": "uint256",
              "name": "unitCost",
              "type": "uint256"
            }
          ],
          "internalType": "struct NewDemoTest.Material[]",
          "name": "",
          "type": "tuple[]"
        }
      ],
      "stateMutability": "view",
      "type": "function",
      "constant": true
    },
    {
      "inputs": [
        {
          "internalType": "string",
          "name": "_materialId",
          "type": "string"
        }
      ],
      "name": "getMaterialById",
      "outputs": [
        {
          "components": [
            {
              "internalType": "address",
              "name": "supplier",
              "type": "address"
            },
            {
              "internalType": "string",
              "name": "materialID",
              "type": "string"
            },
            {
              "internalType": "string",
              "name": "materialName",
              "type": "string"
            },
            {
              "internalType": "uint256",
              "name": "materialStrength",
              "type": "uint256"
            },
            {
              "internalType": "string",
              "name": "materialForm",
              "type": "string"
            },
            {
              "internalType": "uint256",
              "name": "createdAmount",
              "type": "uint256"
            },
            {
              "internalType": "uint256",
              "name": "unitCost",
              "type": "uint256"
            }
          ],
          "internalType": "struct NewDemoTest.Material",
          "name": "",
          "type": "tuple"
        }
      ],
      "stateMutability": "view",
      "type": "function",
      "constant": true
    },
    {
      "inputs": [
        {
          "internalType": "address",
          "name": "_to",
          "type": "address"
        },
        {
          "internalType": "string",
          "name": "_materialId",
          "type": "string"
        },
        {
          "internalType": "uint256",
          "name": "_amount",
          "type": "uint256"
        }
      ],
      "name": "createRequest",
      "outputs": [],
      "stateMutability": "nonpayable",
      "type": "function"
    },
    {
      "inputs": [
        {
          "internalType": "uint256",
          "name": "_id",
          "type": "uint256"
        }
      ],
      "name": "getRequestCost",
      "outputs": [
        {
          "internalType": "uint256",
          "name": "",
          "type": "uint256"
        }
      ],
      "stateMutability": "view",
      "type": "function",
      "constant": true
    },
    {
      "inputs": [],
      "name": "getMyRequests",
      "outputs": [
        {
          "components": [
            {
              "internalType": "uint256",
              "name": "requestId",
              "type": "uint256"
            },
            {
              "internalType": "address",
              "name": "fromParti",
              "type": "address"
            },
            {
              "internalType": "address",
              "name": "toParti",
              "type": "address"
            },
            {
              "internalType": "string",
              "name": "materialID",
              "type": "string"
            },
            {
              "internalType": "uint256",
              "name": "amount",
              "type": "uint256"
            },
            {
              "internalType": "uint256",
              "name": "issueTime",
              "type": "uint256"
            }
          ],
          "internalType": "struct NewDemoTest.Request[]",
          "name": "",
          "type": "tuple[]"
        }
      ],
      "stateMutability": "view",
      "type": "function",
      "constant": true
    },
    {
      "inputs": [
        {
          "internalType": "address",
          "name": "_participant",
          "type": "address"
        }
      ],
      "name": "getRequestByAddress",
      "outputs": [
        {
          "components": [
            {
              "internalType": "uint256",
              "name": "requestId",
              "type": "uint256"
            },
            {
              "internalType": "address",
              "name": "fromParti",
              "type": "address"
            },
            {
              "internalType": "address",
              "name": "toParti",
              "type": "address"
            },
            {
              "internalType": "string",
              "name": "materialID",
              "type": "string"
            },
            {
              "internalType": "uint256",
              "name": "amount",
              "type": "uint256"
            },
            {
              "internalType": "uint256",
              "name": "issueTime",
              "type": "uint256"
            }
          ],
          "internalType": "struct NewDemoTest.Request[]",
          "name": "",
          "type": "tuple[]"
        }
      ],
      "stateMutability": "view",
      "type": "function",
      "constant": true
    },
    {
      "inputs": [
        {
          "internalType": "address payable",
          "name": "_addr",
          "type": "address"
        }
      ],
      "name": "setAsBank",
      "outputs": [],
      "stateMutability": "nonpayable",
      "type": "function"
    },
    {
      "inputs": [],
      "name": "getBank",
      "outputs": [
        {
          "internalType": "address",
          "name": "",
          "type": "address"
        }
      ],
      "stateMutability": "view",
      "type": "function",
      "constant": true
    },
    {
      "inputs": [
        {
          "internalType": "address",
          "name": "_userAddr",
          "type": "address"
        },
        {
          "internalType": "string",
          "name": "_userName",
          "type": "string"
        }
      ],
      "name": "createBankAccount",
      "outputs": [],
      "stateMutability": "nonpayable",
      "type": "function"
    },
    {
      "inputs": [
        {
          "internalType": "string",
          "name": "_userName",
          "type": "string"
        }
      ],
      "name": "selfCreateBankAccount",
      "outputs": [],
      "stateMutability": "nonpayable",
      "type": "function"
    },
    {
      "inputs": [
        {
          "internalType": "address",
          "name": "_userAddr",
          "type": "address"
        }
      ],
      "name": "hasBankAccount",
      "outputs": [
        {
          "internalType": "bool",
          "name": "",
          "type": "bool"
        }
      ],
      "stateMutability": "view",
      "type": "function",
      "constant": true
    },
    {
      "inputs": [
        {
          "internalType": "address",
          "name": "_userAddr",
          "type": "address"
        },
        {
          "internalType": "uint256",
          "name": "_amount",
          "type": "uint256"
        }
      ],
      "name": "deposit",
      "outputs": [
        {
          "internalType": "bool",
          "name": "",
          "type": "bool"
        }
      ],
      "stateMutability": "nonpayable",
      "type": "function"
    },
    {
      "inputs": [
        {
          "internalType": "uint256",
          "name": "_amount",
          "type": "uint256"
        }
      ],
      "name": "selfDeposit",
      "outputs": [
        {
          "internalType": "bool",
          "name": "",
          "type": "bool"
        }
      ],
      "stateMutability": "nonpayable",
      "type": "function"
    },
    {
      "inputs": [
        {
          "internalType": "address",
          "name": "_userAddr",
          "type": "address"
        },
        {
          "internalType": "uint256",
          "name": "_amount",
          "type": "uint256"
        }
      ],
      "name": "withdraw",
      "outputs": [
        {
          "internalType": "bool",
          "name": "",
          "type": "bool"
        }
      ],
      "stateMutability": "nonpayable",
      "type": "function"
    },
    {
      "inputs": [
        {
          "internalType": "uint256",
          "name": "_amount",
          "type": "uint256"
        }
      ],
      "name": "selfWithdraw",
      "outputs": [
        {
          "internalType": "bool",
          "name": "",
          "type": "bool"
        }
      ],
      "stateMutability": "nonpayable",
      "type": "function"
    },
    {
      "inputs": [
        {
          "internalType": "address",
          "name": "_userAddr",
          "type": "address"
        }
      ],
      "name": "getBalance",
      "outputs": [
        {
          "internalType": "uint256",
          "name": "x",
          "type": "uint256"
        }
      ],
      "stateMutability": "view",
      "type": "function",
      "constant": true
    },
    {
      "inputs": [],
      "name": "selfGetBalance",
      "outputs": [
        {
          "internalType": "uint256",
          "name": "x",
          "type": "uint256"
        }
      ],
      "stateMutability": "view",
      "type": "function",
      "constant": true
    },
    {
      "inputs": [
        {
          "internalType": "address",
          "name": "_from",
          "type": "address"
        },
        {
          "internalType": "address",
          "name": "_to",
          "type": "address"
        },
        {
          "internalType": "uint256",
          "name": "_amount",
          "type": "uint256"
        }
      ],
      "name": "transfer",
      "outputs": [
        {
          "internalType": "bool",
          "name": "",
          "type": "bool"
        }
      ],
      "stateMutability": "nonpayable",
      "type": "function"
    },
    {
      "inputs": [
        {
          "internalType": "address",
          "name": "_to",
          "type": "address"
        },
        {
          "internalType": "uint256",
          "name": "_amount",
          "type": "uint256"
        }
      ],
      "name": "selfTransfer",
      "outputs": [
        {
          "internalType": "bool",
          "name": "",
          "type": "bool"
        }
      ],
      "stateMutability": "nonpayable",
      "type": "function"
    },
    {
      "inputs": [
        {
          "internalType": "address",
          "name": "_account",
          "type": "address"
        }
      ],
      "name": "getAccountDetails",
      "outputs": [
        {
          "components": [
            {
              "internalType": "address",
              "name": "userId",
              "type": "address"
            },
            {
              "internalType": "string",
              "name": "userName",
              "type": "string"
            },
            {
              "internalType": "uint256",
              "name": "userBalance",
              "type": "uint256"
            },
            {
              "internalType": "bool",
              "name": "isActive",
              "type": "bool"
            }
          ],
          "internalType": "struct NewDemoTest.BankAccount",
          "name": "",
          "type": "tuple"
        }
      ],
      "stateMutability": "view",
      "type": "function",
      "constant": true
    },
    {
      "inputs": [],
      "name": "selfGetAccountDetails",
      "outputs": [
        {
          "components": [
            {
              "internalType": "address",
              "name": "userId",
              "type": "address"
            },
            {
              "internalType": "string",
              "name": "userName",
              "type": "string"
            },
            {
              "internalType": "uint256",
              "name": "userBalance",
              "type": "uint256"
            },
            {
              "internalType": "bool",
              "name": "isActive",
              "type": "bool"
            }
          ],
          "internalType": "struct NewDemoTest.BankAccount",
          "name": "",
          "type": "tuple"
        }
      ],
      "stateMutability": "view",
      "type": "function",
      "constant": true
    },
    {
      "inputs": [
        {
          "internalType": "uint256",
          "name": "_requestId",
          "type": "uint256"
        }
      ],
      "name": "approveRequest",
      "outputs": [],
      "stateMutability": "nonpayable",
      "type": "function"
    },
    {
      "inputs": [
        {
          "internalType": "uint256",
          "name": "_id",
          "type": "uint256"
        }
      ],
      "name": "verifyShipmentState",
      "outputs": [
        {
          "internalType": "string",
          "name": "",
          "type": "string"
        }
      ],
      "stateMutability": "nonpayable",
      "type": "function"
    },
    {
      "inputs": [
        {
          "internalType": "uint256",
          "name": "_requestId",
          "type": "uint256"
        }
      ],
      "name": "sendShipment",
      "outputs": [],
      "stateMutability": "nonpayable",
      "type": "function"
    },
    {
      "inputs": [
        {
          "internalType": "uint256",
          "name": "_requestId",
          "type": "uint256"
        }
      ],
      "name": "globalTransitShipment",
      "outputs": [],
      "stateMutability": "nonpayable",
      "type": "function"
    },
    {
      "inputs": [
        {
          "internalType": "uint256",
          "name": "_requestId",
          "type": "uint256"
        }
      ],
      "name": "localTransitShipment",
      "outputs": [],
      "stateMutability": "nonpayable",
      "type": "function"
    },
    {
      "inputs": [
        {
          "internalType": "uint256",
          "name": "_requestId",
          "type": "uint256"
        }
      ],
      "name": "receiveShipment",
      "outputs": [],
      "stateMutability": "nonpayable",
      "type": "function"
    },
    {
      "inputs": [
        {
          "internalType": "uint256",
          "name": "_requestId",
          "type": "uint256"
        },
        {
          "internalType": "string",
          "name": "_requestStatus",
          "type": "string"
        },
        {
          "internalType": "string",
          "name": "_shipmentStatus",
          "type": "string"
        },
        {
          "internalType": "string",
          "name": "_description",
          "type": "string"
        }
      ],
      "name": "createLog",
      "outputs": [],
      "stateMutability": "nonpayable",
      "type": "function"
    },
    {
      "inputs": [
        {
          "internalType": "uint256",
          "name": "_id",
          "type": "uint256"
        },
        {
          "internalType": "uint256",
          "name": "_temp",
          "type": "uint256"
        },
        {
          "internalType": "uint256",
          "name": "_humid",
          "type": "uint256"
        }
      ],
      "name": "setShipmentTrackData",
      "outputs": [],
      "stateMutability": "nonpayable",
      "type": "function"
    },
    {
      "inputs": [
        {
          "internalType": "uint256",
          "name": "_id",
          "type": "uint256"
        }
      ],
      "name": "getShipmentTrackData",
      "outputs": [
        {
          "internalType": "uint256[]",
          "name": "temp",
          "type": "uint256[]"
        },
        {
          "internalType": "uint256[]",
          "name": "humid",
          "type": "uint256[]"
        }
      ],
      "stateMutability": "view",
      "type": "function",
      "constant": true
    },
    {
      "inputs": [
        {
          "internalType": "uint256",
          "name": "_request",
          "type": "uint256"
        }
      ],
      "name": "getTrackLogs",
      "outputs": [
        {
          "components": [
            {
              "internalType": "address",
              "name": "logger",
              "type": "address"
            },
            {
              "internalType": "string",
              "name": "requestStatus",
              "type": "string"
            },
            {
              "internalType": "string",
              "name": "description",
              "type": "string"
            },
            {
              "internalType": "string",
              "name": "shipmentStatus",
              "type": "string"
            },
            {
              "internalType": "uint256",
              "name": "logTime",
              "type": "uint256"
            }
          ],
          "internalType": "struct NewDemoTest.Log[]",
          "name": "",
          "type": "tuple[]"
        }
      ],
      "stateMutability": "view",
      "type": "function",
      "constant": true
    }
  ],
  "bytecode": "0x6080604052600180546001600160a01b03191673b1d4d13a22f21ecd91d728d9cfd12c4dadef2bb01790556201c4c86002556028600355603260045534801561004757600080fd5b506147eb806100576000396000f3fe608060405234801561001057600080fd5b50600436106102a05760003560e01c8063643a7695116101675780639d102329116100ce578063eda953f211610087578063eda953f214610643578063f3fef3a314610656578063f583736d14610669578063f8b2cb4f1461067c578063fb3684fb1461068f578063fd91dcca146106a2576102a0565b80639d102329146105cf578063beabacc8146105e2578063c29b2f20146105f5578063c933a2ad1461060a578063d7d1bbdb1461061d578063de67ef8a14610630576102a0565b80637f5cf16e116101205780637f5cf16e146105585780637fe54a101461057857806380dfedcd1461058b5780638a515a561461059357806391eace8b146105a65780639a532889146105ae576102a0565b8063643a7695146104e45780636e3162a7146104f75780636eac3eb81461050a5780636f2e836a1461051d5780636fe57a771461053057806379b5e18214610550576102a0565b80632aceb5341161020b578063477dec5d116101c4578063477dec5d1461046357806347e7ef2414610476578063502bdedd146104965780635280ae1d146104a957806359c8351f146104bc57806360d704db146104cf576102a0565b80632aceb534146103d75780632fc81916146103f75780633c0b276c1461040a5780633f2019781461041d578063420777de1461043d57806343ffb9a614610450576102a0565b8063126a403b1161025d578063126a403b1461033c57806312917b8e1461035c5780631fa916731461037c5780632352d4aa1461038f57806324d29513146103af5780632a22f0fc146103c2576102a0565b806306177b4e146102a557806308280093146102ce578063096a71e2146102e35780630afad95e146103035780630b4fb06d146103165780630e34b00e14610329575b600080fd5b6102b86102b3366004613a10565b6106b5565b6040516102c591906142aa565b60405180910390f35b6102e16102dc366004613dbf565b610918565b005b6102f66102f1366004613b3a565b610a1e565b6040516102c59190614681565b6102e1610311366004613e01565b610aa7565b6102e1610324366004613ee0565b610b6e565b6102e1610337366004613bca565b610ca5565b61034f61034a366004613ee0565b610ef1565b6040516102c591906144eb565b61036f61036a366004613ee0565b611005565b6040516102c5919061424a565b6102e161038a366004613b3a565b611245565b6103a261039d366004613b3a565b611252565b6040516102c591906146ed565b6102e16103bd366004613ef8565b61145d565b6103ca611563565b6040516102c59190614700565b6103ea6103e5366004613a10565b611573565b6040516102c59190614631565b6102e1610405366004613a6c565b61166e565b6102e1610418366004613ee0565b611717565b61043061042b366004613b3a565b6117f4565b6040516102c591906146da565b6102e161044b366004613ee0565b611a13565b6102e161045e366004613ab9565b611a95565b6102e1610471366004613a10565b611c66565b610489610484366004613b0f565b611c88565b6040516102c591906144e0565b6102e16104a4366004613f85565b611d27565b6104896104b7366004613a10565b611e32565b6104896104ca366004613b74565b611e78565b6104d7611ed1565b6040516102c59190614236565b6102e16104f2366004613a10565b611ee0565b6102e1610505366004613d20565b611f04565b6102f6610518366004613b3a565b61219e565b61048961052b366004613ee0565b6121b6565b61054361053e366004613a10565b6121c2565b6040516102c59190614350565b6103ea6122fe565b61056b610566366004613b3a565b6123f6565b6040516102c591906143fc565b6102e1610586366004613ee0565b6126cc565b6102b8612733565b6104896105a1366004613b0f565b61297f565b610543612a99565b6105c16105bc366004613ee0565b612bcc565b6040516102c59291906144b2565b6104896105dd366004613ee0565b612c91565b6104896105f0366004613a2c565b612c9d565b6105fd612dcb565b6040516102c591906142fd565b6103ca610618366004613ee0565b612ffa565b6102e161062b366004613ee0565b61300c565b6105fd61063e366004613a10565b6130fe565b610489610651366004613a10565b613341565b610489610664366004613b0f565b61335f565b6102e1610677366004613a10565b613418565b6103ca61068a366004613a10565b613439565b6102e161069d366004613e6c565b6134a1565b6102e16106b0366004613c4d565b613573565b6001600160a01b0381166000908152600d60209081526040808320805482518185028101850190935280835260609492939192909184015b8282101561090c5760008481526020908190206040805160e0810182526007860290920180546001600160a01b03168352600180820180548451600261010094831615949094026000190190911692909204601f8101879004870283018701909452838252939491938583019391929091908301828280156107b05780601f10610785576101008083540402835291602001916107b0565b820191906000526020600020905b81548152906001019060200180831161079357829003601f168201915b5050509183525050600282810180546040805160206001841615610100026000190190931694909404601f810183900483028501830190915280845293810193908301828280156108425780601f1061081757610100808354040283529160200191610842565b820191906000526020600020905b81548152906001019060200180831161082557829003601f168201915b5050509183525050600382015460208083019190915260048301805460408051601f600260001961010060018716150201909416939093049283018590048502810185018252828152940193928301828280156108e05780601f106108b5576101008083540402835291602001916108e0565b820191906000526020600020905b8154815290600101906020018083116108c357829003601f168201915b5050505050815260200160058201548152602001600682015481525050815260200190600101906106ed565b5050505090505b919050565b336000908152600a6020526040812080546109e59285929161093657fe5b90600052602060002090600502016001018054600181600116156101000203166002900480601f0160208091040260200160405190810160405280929190818152602001828054600181600116156101000203166002900480156109db5780601f106109b0576101008083540402835291602001916109db565b820191906000526020600020905b8154815290600101906020018083116109be57829003601f168201915b5050505050611e78565b15610a1a57336000908152600a602052604081208054839290610a0457fe5b9060005260206000209060050201600401819055505b5050565b610a26613789565b601582604051610a36919061410c565b908152602001604051809103902060405180610100016040529081600082015481526020016001820154815260200160028201548152602001600382015481526020016004820154815260200160058201548152602001600682015481526020016007820154815250509050919050565b610aaf613789565b60405180610100016040528088815260200187815260200184815260200183815260200186815260200185815260200186888a01018152602001838587898b8d0101010101815250905080601589604051610b0a919061410c565b9081526040805160209281900383019020835181559183015160018301558201516002820155606082015160038201556080820151600482015560a0820151600582015560c0820151600682015560e0909101516007909101555050505050505050565b6060610b7982610ef1565b9050610be3826040518060400160405280600f81526020016e141050d2d051d14810d49150551151608a1b815250836040518060400160405280601a81526020017f534849504d454e5420495320524541445920544f204c4541564500000000000081525061145d565b604051610bef906141a5565b604051908190038120904290339060008051602061479683398151915290600090a4610c73826040518060400160405280601081526020016f4f555420464f52205348495050494e4760801b8152508360405180604001604052806016815260200175534849504d454e54204953204f4e204954532057415960501b81525061145d565b604051610c7f9061420d565b604051908190038120904290339060008051602061479683398151915290600090a45050565b610cad6137ce565b506040805160a08101825233808252602080830187815283850187905260608401869052600060808501819052928352600a825293822080546001808201835591845292829020845160059094020180546001600160a01b0319166001600160a01b039094169390931783559351805193948594610d32939185019290910190613806565b5060408201518051610d4e916002840191602090910190613806565b5060608201518051610d6a916003840191602090910190613806565b5060808201518160040155505080600c85604051610d88919061410c565b90815260405160209181900382019020825181546001600160a01b0319166001600160a01b039091161781558282015180519192610dce92600185019290910190613806565b5060408201518051610dea916002840191602090910190613806565b5060608201518051610e06916003840191602090910190613806565b50608091909101516004909101556006805460018101825560009190915281517ff652222313e28459528d920b65115c16c04f3efc82aaedc97be59f3f377c0d3f600590920291820180546001600160a01b0319166001600160a01b0390921691909117815560208084015180518594610ea6937ff652222313e28459528d920b65115c16c04f3efc82aaedc97be59f3f377c0d40909101920190613806565b5060408201518051610ec2916002840191602090910190613806565b5060608201518051610ede916003840191602090910190613806565b5060808201518160040155505050505050565b606080600354600760016007805490500381548110610f0c57fe5b9060005260206000200154101580610f425750600454600880546000198101908110610f3457fe5b906000526020600020015410155b15610fa65750604080518082018252600881526710509393d493505360c21b602082015290517fa5c6f15554bc8ce0c037ba8151c192afe39c97efe0dee46b4b19f486e3a6d3bd90610f9990859084904290614709565b60405180910390a1610fff565b5060408051808201825260068152651393d493505360d21b602082015290517fa5c6f15554bc8ce0c037ba8151c192afe39c97efe0dee46b4b19f486e3a6d3bd90610ff690859084904290614709565b60405180910390a15b92915050565b606060116000838152602001908152602001600020805480602002602001604051908101604052809291908181526020016000905b8282101561090c5760008481526020908190206040805160a0810182526005860290920180546001600160a01b03168352600180820180548451600261010094831615949094026000190190911692909204601f8101879004870283018701909452838252939491938583019391929091908301828280156110fd5780601f106110d2576101008083540402835291602001916110fd565b820191906000526020600020905b8154815290600101906020018083116110e057829003601f168201915b5050509183525050600282810180546040805160206001841615610100026000190190931694909404601f8101839004830285018301909152808452938101939083018282801561118f5780601f106111645761010080835404028352916020019161118f565b820191906000526020600020905b81548152906001019060200180831161117257829003601f168201915b505050918352505060038201805460408051602060026001851615610100026000190190941693909304601f81018490048402820184019092528181529382019392918301828280156112235780601f106111f857610100808354040283529160200191611223565b820191906000526020600020905b81548152906001019060200180831161120657829003601f168201915b505050505081526020016004820154815250508152602001906001019061103a565b61124f338261166e565b50565b61125a6137ce565b600c8260405161126a919061410c565b908152604080516020928190038301812060a08201835280546001600160a01b03168252600180820180548551600261010094831615949094026000190190911692909204601f81018790048702830187019095528482529294919382860193919283018282801561131d5780601f106112f25761010080835404028352916020019161131d565b820191906000526020600020905b81548152906001019060200180831161130057829003601f168201915b5050509183525050600282810180546040805160206001841615610100026000190190931694909404601f810183900483028501830190915280845293810193908301828280156113af5780601f10611384576101008083540402835291602001916113af565b820191906000526020600020905b81548152906001019060200180831161139257829003601f168201915b505050918352505060038201805460408051602060026001851615610100026000190190941693909304601f81018490048402820184019092528181529382019392918301828280156114435780601f1061141857610100808354040283529160200191611443565b820191906000526020600020905b81548152906001019060200180831161142657829003601f168201915b505050505081526020016004820154815250509050919050565b6114656137ce565b506040805160a08101825233815260208082018681528284018590526060830186905242608084015260008881526011835293842080546001808201835591865294839020845160059096020180546001600160a01b0319166001600160a01b03909616959095178555905180519394859490936114e7938501920190613806565b5060408201518051611503916002840191602090910190613806565b506060820151805161151f916003840191602090910190613806565b506080820151816004015550508360405161153a919061410c565b604051908190038120904290339060008051602061479683398151915290600090a45050505050565b600061156e33613439565b905090565b61157b613892565b600180546001600160a01b039081166000908152601760209081526040808320878516845282529182902082516080810184528154909416845280850180548451600261010098831615989098026000190190911696909604601f8101849004840287018401909452838652939490938583019391929091908301828280156116455780601f1061161a57610100808354040283529160200191611645565b820191906000526020600020905b81548152906001019060200180831161162857829003601f168201915b50505091835250506002820154602082015260039091015460ff16151560409091015292915050565b611676613892565b50604080516080810182526001600160a01b03848116808352602080840186815260008587018190526001606087018190528054861682526017845287822094825293835295909520845181546001600160a01b031916941693909317835593518051939485946116ed9385019290910190613806565b50604082015160028201556060909101516003909101805460ff1916911515919091179055505050565b606061172282610ef1565b9050611786826040518060400160405280600981526020016811115312559154915160ba1b815250836040518060400160405280601f81526020017f594f5552205245515545535420484153204245454e2046554c46494c4c45440081525061145d565b6040516117929061416b565b604051908190038120904290339060008051602061479683398151915290600090a460008281526016602090815260408083205460109092529091206001015460028204909103906117ee906001600160a01b03163383612c9d565b50505050565b6117fc6138c5565b600e8260405161180c919061410c565b908152604080516020928190038301812060e08201835280546001600160a01b03168252600180820180548551600261010094831615949094026000190190911692909204601f8101879004870283018701909552848252929491938286019391928301828280156118bf5780601f10611894576101008083540402835291602001916118bf565b820191906000526020600020905b8154815290600101906020018083116118a257829003601f168201915b5050509183525050600282810180546040805160206001841615610100026000190190931694909404601f810183900483028501830190915280845293810193908301828280156119515780601f1061192657610100808354040283529160200191611951565b820191906000526020600020905b81548152906001019060200180831161193457829003601f168201915b5050509183525050600382015460208083019190915260048301805460408051601f600260001961010060018716150201909416939093049283018590048502810185018252828152940193928301828280156119ef5780601f106119c4576101008083540402835291602001916119ef565b820191906000526020600020905b8154815290600101906020018083116119d257829003601f168201915b50505050508152602001600582015481526020016006820154815250509050919050565b6060611a1e82610ef1565b9050611a89826040518060400160405280601081526020016f5348495050494e47205041434b41474560801b815250836040518060400160405280602081526020017f534849504d454e542049532043555252454e544c5920494e205452414e53495481525061145d565b604051610c7f906141dc565b60028054610145019055611aa761390b565b506040805160c08101825260025481523360208201526001600160a01b0385168183015260608101849052608081018390524260a08201529051600e90611aef90859061410c565b908152604080516020928190038301902060069081015460808501518551600090815260168652848120919092029055338152600f8452828120805460018082018355918352918590208651929093029092019081558484015191810180546001600160a01b03199081166001600160a01b039485161790915592850151600282018054909416921691909117909155606083015180518493611b99926003850192910190613806565b506080820151600482015560a090910151600590910155805160009081526010602090815260409182902083518155818401516001820180546001600160a01b03199081166001600160a01b03938416179091559385015160028301805490951691161790925560608301518051849392611c1b926003850192910190613806565b506080820151600482015560a090910151600590910155604051611c3e906141f2565b604051908190038120904290339060008051602061479683398151915290600090a450505050565b600180546001600160a01b0319166001600160a01b0392909216919091179055565b6000808211611cb25760405162461bcd60e51b8152600401611ca9906144fe565b60405180910390fd5b6001546001600160a01b0390811660009081526017602090815260408083208488168085529252909120549091161415611d1e5750600180546001600160a01b039081166000908152601760209081526040808320938716835292905220600201805483019055610fff565b50600092915050565b600083815260126020908152604080832080546001818101835591855283852001869055600780548083019091557fa66cc928b5edb82af9bd49922954155ab7b0942694bea4ce44661d9a8736c6880186905586845260138352908320805480830182559084529183209091018390556008805491820181559091527ff3f7a9fe364faab93b216da50a3214154f22a0a2b415b23a84c8169e8b636ee30181905542611de3611dd58461365a565b611dde8461365a565b61373b565b604051611df0919061410c565b60405180910390207f3f00a8b14ab7a3bd4e38885b88de429c8e57c28c61cc3255185d3849287172e3604051611e2590614580565b60405180910390a3505050565b6001546001600160a01b03908116600090815260176020908152604080832093851683529290529081206003015460ff1615611e7057506001610913565b506000610913565b600081604051602001611e8b919061410c565b6040516020818303038152906040528051906020012083604051602001611eb2919061410c565b6040516020818303038152906040528051906020012014905092915050565b6001546001600160a01b031690565b6001600160a01b03166000908152600960205260409020805460ff19166001179055565b611f0c6138c5565b506040805160e0810182523380825260208083018a81528385018a9052606084018990526080840188905260a0840187905260c084018690526000928352600d825293822080546001808201835591845292829020845160079094020180546001600160a01b0319166001600160a01b039094169390931783559351805193948594611f9f939185019290910190613806565b5060408201518051611fbb916002840191602090910190613806565b506060820151600382015560808201518051611fe1916004840191602090910190613806565b5060a0820151816005015560c08201518160060155505080600e88604051612009919061410c565b90815260405160209181900382019020825181546001600160a01b0319166001600160a01b03909116178155828201518051919261204f92600185019290910190613806565b506040820151805161206b916002840191602090910190613806565b506060820151600382015560808201518051612091916004840191602090910190613806565b5060a082015160058281019190915560c090920151600690910155805460018101825560009190915281517f036b6384b5eca791c62761152d0c79bb0604c104a5fb6f4eb0703f3154bb3db0600790920291820180546001600160a01b0319166001600160a01b039092169190911781556020808401518051859461213c937f036b6384b5eca791c62761152d0c79bb0604c104a5fb6f4eb0703f3154bb3db1909101920190613806565b5060408201518051612158916002840191602090910190613806565b50606082015160038201556080820151805161217e916004840191602090910190613806565b5060a0820151816005015560c08201518160060155505050505050505050565b6121a6613789565b601482604051610a36919061410c565b6000610fff338361335f565b6001600160a01b0381166000908152600f60209081526040808320805482518185028101850190935280835260609492939192909184015b8282101561090c5760008481526020908190206040805160c08101825260068602909201805483526001808201546001600160a01b03908116858701526002808401549091168585015260038301805485516101009482161594909402600019011691909104601f810187900487028301870190945283825293949193606086019391929091908301828280156122d25780601f106122a7576101008083540402835291602001916122d2565b820191906000526020600020905b8154815290600101906020018083116122b557829003601f168201915b5050505050815260200160048201548152602001600582015481525050815260200190600101906121fa565b612306613892565b600180546001600160a01b03908116600090815260176020908152604080832033845282529182902082516080810184528154909416845280850180548451600261010098831615989098026000190190911696909604601f8101849004840287018401909452838652939490938583019391929091908301828280156123ce5780601f106123a3576101008083540402835291602001916123ce565b820191906000526020600020905b8154815290600101906020018083116123b157829003601f168201915b50505091835250506002820154602082015260039091015460ff161515604090910152905090565b6060600b82604051612408919061410c565b9081526020016040518091039020805480602002602001604051908101604052809291908181526020016000905b8282101561090c5760008481526020908190206040805160058602909201805460026001821615610100026000190190911604601f8101859004909402830160c090810190925260a08301848152929390928492909184918401828280156124df5780601f106124b4576101008083540402835291602001916124df565b820191906000526020600020905b8154815290600101906020018083116124c257829003601f168201915b50505050508152602001600182018054600181600116156101000203166002900480601f0160208091040260200160405190810160405280929190818152602001828054600181600116156101000203166002900480156125815780601f1061255657610100808354040283529160200191612581565b820191906000526020600020905b81548152906001019060200180831161256457829003601f168201915b505050918352505060028281015460208084019190915260038401805460408051601f600019610100600186161502019093169590950491820184900484028501840181528185529094019390918301828280156126205780601f106125f557610100808354040283529160200191612620565b820191906000526020600020905b81548152906001019060200180831161260357829003601f168201915b505050918352505060048201805460408051602060026001851615610100026000190190941693909304601f81018490048402820184019092528181529382019392918301828280156126b45780601f10612689576101008083540402835291602001916126b4565b820191906000526020600020905b81548152906001019060200180831161269757829003601f168201915b50505050508152505081526020019060010190612436565b60606126d782610ef1565b90506127278260405180604001604052806012815260200171524541445920464f522044454c495645525960701b815250836040518060600160405280602281526020016147746022913961145d565b604051610c7f906141c0565b60606005805480602002602001604051908101604052809291908181526020016000905b828210156129765760008481526020908190206040805160e0810182526007860290920180546001600160a01b03168352600180820180548451600261010094831615949094026000190190911692909204601f81018790048702830187019094528382529394919385830193919290919083018282801561281a5780601f106127ef5761010080835404028352916020019161281a565b820191906000526020600020905b8154815290600101906020018083116127fd57829003601f168201915b5050509183525050600282810180546040805160206001841615610100026000190190931694909404601f810183900483028501830190915280845293810193908301828280156128ac5780601f10612881576101008083540402835291602001916128ac565b820191906000526020600020905b81548152906001019060200180831161288f57829003601f168201915b5050509183525050600382015460208083019190915260048301805460408051601f6002600019610100600187161502019094169390930492830185900485028101850182528281529401939283018282801561294a5780601f1061291f5761010080835404028352916020019161294a565b820191906000526020600020905b81548152906001019060200180831161292d57829003601f168201915b505050505081526020016005820154815260200160068201548152505081526020019060010190612757565b50505050905090565b6001546001600160a01b031660009081526017602090815260408083203384529091528120600201548211156129c75760405162461bcd60e51b8152600401611ca9906145d4565b6001546001600160a01b03908116600090815260176020908152604080832033808552925290912054909116148015612a2f5750600180546001600160a01b0390811660009081526017602090815260408083209388168352929052206003015460ff161515145b15611d1e5750600180546001600160a01b0390811660009081526017602081815260408084203385528252808420600290810180548a8816808852848820840154918b90039092558854909716865293835281852093855292909152909120918401910155610fff565b336000908152600f60209081526040808320805482518185028101850190935280835260609492939192909184015b828210156129765760008481526020908190206040805160c08101825260068602909201805483526001808201546001600160a01b03908116858701526002808401549091168585015260038301805485516101009482161594909402600019011691909104601f81018790048702830187019094528382529394919360608601939192909190830182828015612ba05780601f10612b7557610100808354040283529160200191612ba0565b820191906000526020600020905b815481529060010190602001808311612b8357829003601f168201915b505050505081526020016004820154815260200160058201548152505081526020019060010190612ac8565b60008181526012602090815260408083206013835292819020835482518185028101850190935280835260609485949093918491830182828015612c2f57602002820191906000526020600020905b815481526020019060010190808311612c1b575b5050505050915080805480602002602001604051908101604052809291908181526020018280548015612c8157602002820191906000526020600020905b815481526020019060010190808311612c6d575b5050505050905091509150915091565b6000610fff3383611c88565b6001546001600160a01b039081166000908152601760209081526040808320938716835292905290812060020154821115612cea5760405162461bcd60e51b8152600401611ca990614535565b6001546001600160a01b039081166000908152601760209081526040808320848916808552925290912054909116148015612d545750600180546001600160a01b0390811660009081526017602090815260408083209388168352929052206003015460ff161515145b15612dc05750600180546001600160a01b03908116600090815260176020818152604080842089861685528252808420600290810180548a8816808852848820840154918b90039092558854909716865293835281852093855292909152909120918401910155612dc4565b5060005b9392505050565b60606006805480602002602001604051908101604052809291908181526020016000905b828210156129765760008481526020908190206040805160a0810182526005860290920180546001600160a01b03168352600180820180548451600261010094831615949094026000190190911692909204601f810187900487028301870190945283825293949193858301939192909190830182828015612eb25780601f10612e8757610100808354040283529160200191612eb2565b820191906000526020600020905b815481529060010190602001808311612e9557829003601f168201915b5050509183525050600282810180546040805160206001841615610100026000190190931694909404601f81018390048302850183019091528084529381019390830182828015612f445780601f10612f1957610100808354040283529160200191612f44565b820191906000526020600020905b815481529060010190602001808311612f2757829003601f168201915b505050918352505060038201805460408051602060026001851615610100026000190190941693909304601f8101849004840282018401909252818152938201939291830182828015612fd85780601f10612fad57610100808354040283529160200191612fd8565b820191906000526020600020905b815481529060010190602001808311612fbb57829003601f168201915b5050505050815260200160048201548152505081526020019060010190612def565b60009081526016602052604090205490565b613093816040518060400160405280601081526020016f149154555154d5081054141493d5915160821b815250604051806040016040528060068152602001651393d493505360d21b8152506040518060400160405280601a81526020017f52455155455354204953204245494e472050524f43455353454400000000000081525061145d565b60405161309f90614189565b604051908190038120904290339060008051602061479683398151915290600090a46000818152601660209081526040808320546010909252909120600101546002909104906130f9906001600160a01b03163383612c9d565b505050565b6001600160a01b0381166000908152600a60209081526040808320805482518185028101850190935280835260609492939192909184015b8282101561090c5760008481526020908190206040805160a0810182526005860290920180546001600160a01b03168352600180820180548451600261010094831615949094026000190190911692909204601f8101879004870283018701909452838252939491938583019391929091908301828280156131f95780601f106131ce576101008083540402835291602001916131f9565b820191906000526020600020905b8154815290600101906020018083116131dc57829003601f168201915b5050509183525050600282810180546040805160206001841615610100026000190190931694909404601f8101839004830285018301909152808452938101939083018282801561328b5780601f106132605761010080835404028352916020019161328b565b820191906000526020600020905b81548152906001019060200180831161326e57829003601f168201915b505050918352505060038201805460408051602060026001851615610100026000190190941693909304601f810184900484028201840190925281815293820193929183018282801561331f5780601f106132f45761010080835404028352916020019161331f565b820191906000526020600020905b81548152906001019060200180831161330257829003601f168201915b5050505050815260200160048201548152505081526020019060010190613136565b6001600160a01b031660009081526009602052604090205460ff1690565b6001546001600160a01b03908116600090815260176020908152604080832093861683529290529081206002015482106133ab5760405162461bcd60e51b8152600401611ca9906145a7565b6001546001600160a01b0390811660009081526017602090815260408083208488168085529252909120549091161415611d1e5750600180546001600160a01b03908116600090815260176020908152604080832093871683529290522060020180548390039055610fff565b6001600160a01b03166000908152600960205260409020805460ff19169055565b6001546001600160a01b0390811660009081526017602090815260408083208486168085529252822054919291909116141561091357506001546001600160a01b03908116600090815260176020908152604080832093851683529290522060020154610913565b6134a9613789565b60405180610100016040528089815260200188815260200185815260200184815260200187815260200186815260200187898b010181526020018486888a8c8e010101010181525090508060148a604051613504919061410c565b9081526040805160209281900383019020835181559183015160018301558201516002820155606082015160038201556080820151600482015560a0820151600582015560c0820151600682015560e0909101516007909101556135688983610918565b505050505050505050565b61357b613953565b6040518060a00160405280878152602001868152602001838152602001858152602001848152509050600b876040516135b4919061410c565b9081526040516020918190038201902080546001810182556000918252908290208351805185946005909402909201926135f392849290910190613806565b50602082810151805161360c9260018501920190613806565b506040820151600282015560608201518051613632916003840191602090910190613806565b506080820151805161364e916004840191602090910190613806565b50505050505050505050565b60608161367f57506040805180820190915260018152600360fc1b6020820152610913565b8160005b811561369757600101600a82049150613683565b6060816001600160401b03811180156136af57600080fd5b506040519080825280601f01601f1916602001820160405280156136da576020820181803683370190505b509050815b851561373257600019016000600a8704600a028703603001905060008160f81b90508084848151811061370e57fe5b60200101906001600160f81b031916908160001a905350600a8804975050506136df565b50949350505050565b6060806040518060400160405280600381526020016201016160ed1b815250905083818460405160200161377193929190614128565b60405160208183030381529060405291505092915050565b60405180610100016040528060008152602001600081526020016000815260200160008152602001600081526020016000815260200160008152602001600081525090565b6040518060a0016040528060006001600160a01b03168152602001606081526020016060815260200160608152602001600081525090565b828054600181600116156101000203166002900490600052602060002090601f01602090048101928261383c5760008555613882565b82601f1061385557805160ff1916838001178555613882565b82800160010185558215613882579182015b82811115613882578251825591602001919060010190613867565b5061388e929150613982565b5090565b604051806080016040528060006001600160a01b0316815260200160608152602001600081526020016000151581525090565b6040518060e0016040528060006001600160a01b031681526020016060815260200160608152602001600081526020016060815260200160008152602001600081525090565b6040518060c001604052806000815260200160006001600160a01b0316815260200160006001600160a01b031681526020016060815260200160008152602001600081525090565b6040518060a0016040528060608152602001606081526020016000815260200160608152602001606081525090565b5b8082111561388e5760008155600101613983565b600082601f8301126139a7578081fd5b81356001600160401b03808211156139bb57fe5b604051601f8301601f1916810160200182811182821017156139d957fe5b6040528281529250828483016020018610156139f457600080fd5b8260208601602083013760006020848301015250505092915050565b600060208284031215613a21578081fd5b8135612dc48161475e565b600080600060608486031215613a40578182fd5b8335613a4b8161475e565b92506020840135613a5b8161475e565b929592945050506040919091013590565b60008060408385031215613a7e578182fd5b8235613a898161475e565b915060208301356001600160401b03811115613aa3578182fd5b613aaf85828601613997565b9150509250929050565b600080600060608486031215613acd578283fd5b8335613ad88161475e565b925060208401356001600160401b03811115613af2578283fd5b613afe86828701613997565b925050604084013590509250925092565b60008060408385031215613b21578182fd5b8235613b2c8161475e565b946020939093013593505050565b600060208284031215613b4b578081fd5b81356001600160401b03811115613b60578182fd5b613b6c84828501613997565b949350505050565b60008060408385031215613b86578182fd5b82356001600160401b0380821115613b9c578384fd5b613ba886838701613997565b93506020850135915080821115613bbd578283fd5b50613aaf85828601613997565b600080600060608486031215613bde578283fd5b83356001600160401b0380821115613bf4578485fd5b613c0087838801613997565b94506020860135915080821115613c15578384fd5b613c2187838801613997565b93506040860135915080821115613c36578283fd5b50613c4386828701613997565b9150509250925092565b60008060008060008060c08789031215613c65578182fd5b86356001600160401b0380821115613c7b578384fd5b613c878a838b01613997565b97506020890135915080821115613c9c578384fd5b613ca88a838b01613997565b96506040890135915080821115613cbd578384fd5b613cc98a838b01613997565b95506060890135915080821115613cde578384fd5b613cea8a838b01613997565b94506080890135915080821115613cff578384fd5b50613d0c89828a01613997565b92505060a087013590509295509295509295565b60008060008060008060c08789031215613d38578182fd5b86356001600160401b0380821115613d4e578384fd5b613d5a8a838b01613997565b97506020890135915080821115613d6f578384fd5b613d7b8a838b01613997565b9650604089013595506060890135915080821115613d97578384fd5b50613da489828a01613997565b9350506080870135915060a087013590509295509295509295565b60008060408385031215613dd1578182fd5b82356001600160401b03811115613de6578283fd5b613df285828601613997565b95602094909401359450505050565b600080600080600080600060e0888a031215613e1b578081fd5b87356001600160401b03811115613e30578182fd5b613e3c8a828b01613997565b9a60208a01359a5060408a013599606081013599506080810135985060a0810135975060c0013595509350505050565b600080600080600080600080610100898b031215613e88578182fd5b88356001600160401b03811115613e9d578283fd5b613ea98b828c01613997565b9b60208b01359b5060408b01359a60608101359a506080810135995060a0810135985060c0810135975060e0013595509350505050565b600060208284031215613ef1578081fd5b5035919050565b60008060008060808587031215613f0d578182fd5b8435935060208501356001600160401b0380821115613f2a578384fd5b613f3688838901613997565b94506040870135915080821115613f4b578384fd5b613f5788838901613997565b93506060870135915080821115613f6c578283fd5b50613f7987828801613997565b91505092959194509250565b600080600060608486031215613f99578081fd5b505081359360208301359350604090920135919050565b6000815180845260208085019450808401835b83811015613fdf57815187529582019590820190600101613fc3565b509495945050505050565b60008151808452614002816020860160208601614732565b601f01601f19169290920160200192915050565b600060018060a01b038251168352602082015160a0602085015261403d60a0850182613fea565b9050604083015184820360408601526140568282613fea565b915050606083015184820360608601526140708282613fea565b915050608083015160808501528091505092915050565b600060018060a01b038251168352602082015160e060208501526140ae60e0850182613fea565b9050604083015184820360408601526140c78282613fea565b91505060608301516060850152608083015184820360808601526140eb8282613fea565b91505060a083015160a085015260c083015160c08501528091505092915050565b6000825161411e818460208701614732565b9190910192915050565b6000845161413a818460208901614732565b84519083019061414e818360208901614732565b8451910190614161818360208801614732565b0195945050505050565b7114d21254135153950811115312559154915160721b815260120190565b6f149154555154d5081054141493d5915160821b815260100190565b6e141050d2d051d14810d49150551151608a1b8152600f0190565b6f1253881313d0d053081514905394d25560821b815260100190565b691253881514905394d25560b21b8152600a0190565b6e149154555154d50810d49150551151608a1b8152600f0190565b7f5041434b414745204953204f555420464f52205348495050494e4700000000008152601b0190565b6001600160a01b0391909116815260200190565b6000602080830181845280855180835260408601915060408482028701019250838701855b8281101561429d57603f1988860301845261428b858351614016565b9450928501929085019060010161426f565b5092979650505050505050565b6000602080830181845280855180835260408601915060408482028701019250838701855b8281101561429d57603f198886030184526142eb858351614087565b945092850192908501906001016142cf565b6000602080830181845280855180835260408601915060408482028701019250838701855b8281101561429d57603f1988860301845261433e858351614016565b94509285019290850190600101614322565b60208082528251828201819052600091906040908185019080840286018301878501865b838110156143ee57888303603f19018552815180518452878101516001600160a01b039081168986015287820151168785015260608082015160c082870181905291906143c383880182613fea565b6080858101519089015260a09485015194909701939093525050509386019390860190600101614374565b509098975050505050505050565b60208082528251828201819052600091906040908185019080840286018301878501865b838110156143ee57603f19898403018552815160a0815181865261444682870182613fea565b915050888201518582038a87015261445e8282613fea565b9150508782015188860152606080830151868303828801526144808382613fea565b925050506080808301519250858203818701525061449e8183613fea565b968901969450505090860190600101614420565b6000604082526144c56040830185613fb0565b82810360208401526144d78185613fb0565b95945050505050565b901515815260200190565b600060208252612dc46020830184613fea565b6020808252601d908201527f456e74657220412056616c6964204465706f73697420416d6f756e7421000000604082015260600190565b6020808252602b908201527f4e6f7420456e6f7567682042616c616e636520746f205472616e73666572205460408201526a68697320416d6f756e742160a81b606082015260800190565b6020808252600d908201526c48756d6964697479204461746160981b604082015260600190565b6020808252601390820152724e6f7420456e6f7567682042616c616e63652160681b604082015260600190565b60208082526037908201527f596f7520446f204e6f74204861766520456e6f7567682042616c616e6365207460408201527f6f205472616e73666572205468697320416d6f756e7421000000000000000000606082015260800190565b602080825282516001600160a01b0316828201528201516080604083015260009061465f60a0840182613fea565b9050604084015160608401526060840151151560808401528091505092915050565b600061010082019050825182526020830151602083015260408301516040830152606083015160608301526080830151608083015260a083015160a083015260c083015160c083015260e083015160e083015292915050565b600060208252612dc46020830184614087565b600060208252612dc46020830184614016565b90815260200190565b6000848252606060208301526147226060830185613fea565b9050826040830152949350505050565b60005b8381101561474d578181015183820152602001614735565b838111156117ee5750506000910152565b6001600160a01b038116811461124f57600080fdfe534849504d454e542049532053455420464f52204c4f43414c2044454c4956455259530abb16f843103fba748c032a23827a5140b72d210f41d8bbbc183708de5240a264697066735822122071daee29209a76e932f463306cd54a3ef4c5a50330f267cec90af168f93ee28b64736f6c63430007040033",
  "immutableReferences": {},
  "source": "/*\n    THIS CONTRACT IMPLEMENTATION ALLOWS A USER TO:\n    \n    1- Add products with their specs. (manufacturer)\n    2- Create materials. (suppplier).\n    3- Request materials from suppliers. (manufacturer)\n    4- Track requests status. (manufacturer)\n*/\n\n// contract address: 0xDF68a904750D4236299199859D54fa18C6b7FE04 \n// productId: plus01\n// tracking no: 116887 , 117212 , 117537\n\n// \"SPDX-License-Identifier: UNLICENSED\"\npragma solidity >=0.6.2;\npragma experimental ABIEncoderV2;  \n\ncontract NewDemoTest {\n\n// CONTRACT CONTENT GOES HERE\n    \n    // UTILS\n    \n    function strComp(string memory x , string memory y ) public pure returns (bool){\n        \n        return (keccak256(abi.encodePacked((x))) == keccak256(abi.encodePacked((y))));\n        \n    }\n    \n    function toString(uint _i) internal pure returns (string memory _uintAsString) {\n        \n        if (_i == 0) {\n            return \"0\";\n        }\n        uint j = _i;\n        uint len;\n        while (j != 0) {\n            len++;\n            j /= 10;\n        }\n        bytes memory bstr = new bytes(len);\n        uint k = len;\n        while (_i != 0) {\n            k = k-1;\n            uint8 temp = (48 + uint8(_i - _i / 10 * 10));\n            bytes1 b1 = bytes1(temp);\n            bstr[k] = b1;\n            _i /= 10;\n        }\n        return string(bstr);\n    }\n    \n    function concat(string memory a, string memory b) internal pure returns (string memory) {\n    string memory c = ' , ';\n    return string(abi.encodePacked( a, c, b));\n\n    }\n\n    // END OF UTILS\n\n    \n    \n    address     admin;\n    address     payable bank = 0xB1D4d13a22F21ECD91d728D9cfD12C4Dadef2Bb0;\n    uint        trackNoCount = 115912;\n    uint        tempThreshold = 40;\n    uint        humidityThreshold = 50;\n    Material[]  materialArr;\n    Product[]   productArr;\n    uint[]      tempArr;\n    uint[]      humidArr;\n    enum        Role                 {MANUFACTURER, SUPPLIER, DISTRIBUTOR, DRUG_AUTHORITY , BANK}\n    mapping (address => bool)        participants;\n    mapping (address => Product[])   products;    // manufacturer and product\n    mapping (string => Specs[])      productSpecs; // productID and material \n    mapping (string => Product)      productList; // product by id\n    mapping (address => Material[])  materials;   //Participant(supplier) and material\n    mapping (string => Material)     materialList; // materials by id\n    mapping (address => Request[])   requests;   // participant and requests\n    mapping (uint => Request)        requestList; // requests by id\n    mapping (uint => Log[])          trackLogs; //requestId and Log\n    mapping (uint => uint[])         tempDataLogs; // requestId and temp data\n    mapping (uint => uint[])         humidDataLogs; // requestId and humid data\n    mapping (string => Cost)         standardProductCosts;\n    mapping (string => Cost)         actualProductCosts;\n    mapping (uint => uint)           requestCost;    // requestId and Total Cost.\n    mapping (address => mapping (address => BankAccount) ) userBankAccounts; // bankAddr -> userAddr -> userAcc\n    event   DataSent (string DataCategory , string indexed dataValues , uint indexed timestamp  );\n    event   ShipmentStateUpdate (uint requestNo, string state, uint timestamp);\n    event   requestStateUpdate (address indexed who, uint indexed timestamp , string indexed state);\n  \n    \n    \n    struct BankAccount {\n    \n        address userId;\n        string  userName;\n        uint    userBalance;\n        bool    isActive;\n    }\n    \n    struct Participant {\n        \n        address particId;\n        Role    particRole;\n    }\n    \n\n    struct Product {\n        \n        address manufacturer;\n        string  productId; //registration no.\n        string  productName;\n        string  productForm; // tablets or capsules\n        uint    productBudget;\n        \n    }\n    \n    struct Material {\n        address supplier;\n        string  materialID;\n        string  materialName;\n        uint  materialStrength;\n        string  materialForm;\n        uint    createdAmount;\n        uint    unitCost;\n    }\n    \n    struct Specs {\n        string  materialName;\n        string  materialType;\n        uint    materialAmount;\n        string  materialStrength;\n        string  materialForm;\n        \n    }\n\n    struct Request {\n        uint    requestId;\n        address fromParti;\n        address toParti;\n        string  materialID;\n        uint    amount;\n        uint    issueTime;\n    }\n    \n       struct Log {\n        address logger;\n        string  requestStatus;\n        // uint    currentTemp;\n        // uint    currentHumidity;\n        string  description;\n        string  shipmentStatus;\n        uint    logTime;\n    }\n    \n    struct Cost {\n        uint directMaterialCost;\n        uint packagingMaterialCost;\n        uint marketingCost;\n        uint researchCost;\n        uint directLaborCost;\n        uint totalIndirectCost; // indirect manufacturing costs\n        uint totalDirectCost;\n        uint CostTOT; // direct material + direct labor + total indirect\n    }\n    \n    \n    \n    // FUNCTIONS\n    \n    //constructor\n    \n    // constructor() {\n        \n    // }\n    \n    // modifier onlyAdmin {\n    //     require(msg.sender == admin);\n    //     _;\n    // }\n\n    \n    // Core functions \n    \n    \n    \n    // Handle participants privileges\n    \n    function verifyParticipant(address _participant) public  {\n             participants[_participant] = true;\n    }\n    \n    function unverifyParticipant(address _participant ) public  {\n             participants[_participant] = false;\n    }\n         \n    function isVerfied(address _participant) public view returns (bool) {\n             return participants[_participant];\n    }\n    \n\n    \n    // MANUFACTURING STUFF GOES HERE\n\n    \n    function addProduct(\n    \n    string memory _id,\n    string memory _name,\n    string memory _pForm\n    \n    ) public {\n        \n        Product memory pro = Product({\n            productId: _id,\n            productName: _name,\n            productForm: _pForm,\n            productBudget: 0,\n            manufacturer: msg.sender\n        });\n        \n        products[msg.sender].push(pro);\n        productList[_id] = pro;\n        productArr.push(pro);\n        \n    }\n    \n    function addProductSpecs(\n    \n    string memory _productID,\n    string memory _name,\n    string memory _type,\n    string memory _strength,\n    string memory _form,\n    uint          _amount\n    \n    ) public {\n    \n        Specs memory spec = Specs({\n            materialName: _name,\n            materialType: _type,\n            materialForm: _form,\n            materialAmount: _amount,\n            materialStrength: _strength\n            \n        });      \n        \n        productSpecs[_productID].push(spec);\n        \n    }\n    \n      \n    function getProductsByManu(address _manufacturer) public view returns(Product[] memory) {\n        return products[_manufacturer];\n    }\n    \n    function getProducts() public view returns(Product[] memory) {\n        return productArr;\n    }\n    \n    function getProductById(string memory _id) public view returns(Product memory) {\n        return productList[_id];\n    }\n    function getProductSpecs(string memory _product) public view returns(Specs[] memory) {\n        return productSpecs[_product];\n    }\n    \n    \n    // END OF MANUFACTURING STUFF\n\n    // COST ACCOUNTING STUFF GOES HERE\n    \n    function setStdCostPlan(\n    \n    string memory _product,\n    uint    _directMatCost,\n    uint    _pkgMatCost,\n    uint    _directLaborCost,\n    uint    _totIndirectCosts,\n    uint    _mrkCost,\n    uint    _rsrchCost,\n    uint    _productBudget\n    \n        ) public {\n    \n    Cost memory stdCosts = Cost({\n        directMaterialCost: _directMatCost,\n        directLaborCost: _directLaborCost,\n        totalIndirectCost: _totIndirectCosts,\n        totalDirectCost: _directMatCost + _pkgMatCost +  _directLaborCost,\n        packagingMaterialCost: _pkgMatCost,\n        marketingCost: _mrkCost,\n        researchCost: _rsrchCost,\n        CostTOT: _directMatCost + _pkgMatCost +  _directLaborCost + _totIndirectCosts + _mrkCost  + _rsrchCost\n       \n    });\n    \n    standardProductCosts[_product] = stdCosts;\n    \n    setProductBudget(_product, _productBudget);\n    \n    }\n    \n    function setProductBudget(string memory _product, uint _budget) public {\n        if(strComp(_product, products[msg.sender][0].productId)) {\n            products[msg.sender][0].productBudget = _budget;\n        }\n       \n    }\n    \n    \n    function getStdCostPlan(string memory _product) public view returns(Cost memory) {\n        return standardProductCosts[_product];\n    }\n    \n    function setActualCost(\n    \n    string memory _product,\n    uint _actualMatCost,\n    uint _actualPkgMatCost,\n    uint _actualLaborCost,\n    uint _actualIndirectCost,\n    uint _actualMrkCost,\n    uint _actualRsrchCost\n    \n    ) public {\n        Cost memory actualCosts = Cost({\n            directMaterialCost: _actualMatCost,\n            packagingMaterialCost: _actualPkgMatCost,\n            totalDirectCost: _actualMatCost + _actualPkgMatCost + _actualLaborCost,\n            marketingCost: _actualMrkCost,\n            researchCost: _actualRsrchCost,\n            directLaborCost: _actualLaborCost,\n            totalIndirectCost: _actualIndirectCost,\n            CostTOT: _actualMatCost + _actualPkgMatCost + _actualLaborCost + _actualIndirectCost\n                     + _actualMrkCost + _actualRsrchCost\n        });\n        \n        actualProductCosts[_product] = actualCosts;\n    }\n    \n    function getActualCost(string memory _product) public view returns(Cost memory) {\n        \n        return actualProductCosts[_product];\n    }\n    \n    // END OF  COST ACCOUNTING STUFF\n    \n    // SUPPLYING STUFF GOES HERE\n    \n    // Creation of Material By Supplier\n    \n    function createMaterial(\n    \n    string memory _id,\n    string memory _name,\n    uint          _str,\n    string memory _form,\n    uint          _amount,\n    uint          _unitCost\n    \n    ) public {\n        \n        Material memory mat = Material({\n           supplier: msg.sender,\n           materialID:   _id,\n           materialName: _name,\n           materialForm: _form,\n           materialStrength: _str,\n           createdAmount: _amount,\n           unitCost:      _unitCost\n        });\n\n        materials[msg.sender].push(mat);\n        materialList[_id] = mat;\n        materialArr.push(mat);\n        \n        \n    }\n    \n    // TODOO : * Search Materials By Name and Type (e.g. Vitamin-a , active )\n    // * send material supplier a request.\n    // * calculate request cost and pay half the total cost in advance in case of request approval\n    \n    function getMaterialsBySupplier(address _supplier) public view returns(Material[] memory ) {\n        return materials[_supplier];\n    }\n    \n    \n    // Materials to filter through\n    \n    function getMaterials() public view returns(Material[] memory) {\n        return materialArr;\n    }\n    \n    function getMaterialById (string memory _materialId) public view returns(Material memory) {\n        return materialList[_materialId];\n    }\n    \n\n    function createRequest(\n    \n    address _to ,\n    string memory _materialId,\n    uint _amount )\n    \n    public {\n        trackNoCount += 325;\n        Request memory req = Request({\n           requestId: trackNoCount,\n           fromParti: msg.sender,\n           toParti: _to,\n           materialID : _materialId,\n           amount: _amount,\n           issueTime: block.timestamp\n        });\n        \n        requestCost[req.requestId] = req.amount * materialList[_materialId].unitCost; \n        requests[msg.sender].push(req);\n        requestList[req.requestId] = req;\n        emit requestStateUpdate(msg.sender, block.timestamp , 'REQUEST CREATED');\n    }\n    \n    function getRequestCost(uint _id) public view returns(uint) {\n        return requestCost[_id];\n    }\n    \n    function getMyRequests() public view returns (Request[] memory) {\n        \n        return requests[msg.sender];\n    }\n    \n     \n     // return received requests (filtering: to address) for the portal control\n     \n    //  function getMyReceivedRequests() public view returns (Request[] memory) {\n        \n    //     return requests[msg.sender];\n    // }\n    \n    function getRequestByAddress(address _participant) public  view returns(Request[] memory) {\n        \n        return requests[_participant];\n    }\n    \n    // END OF SUPPLING STUFF\n        \n    // BANKING STUFF GOES HERE \n    \n    // functions that has 'self' word are invokable by msg.sender\n    // other functions should require admin / bank control of execution\n    \n    function setAsBank(address payable _addr) public {\n        bank = _addr;\n        \n    }\n    \n    function getBank() public view returns (address) {\n        return bank;\n    }\n    \n    function createBankAccount(address _userAddr, string memory _userName) public {\n        \n        BankAccount memory account = BankAccount({\n            \n            userId:  _userAddr,\n            userName: _userName,\n            userBalance: 0,\n            isActive: true\n            \n        });\n        \n        userBankAccounts[bank][_userAddr] = account;\n        \n    }\n    \n     function selfCreateBankAccount(string memory _userName) public {\n        \n       createBankAccount(msg.sender, _userName);\n        \n    }\n    \n    function hasBankAccount(address _userAddr) public view returns (bool) {\n        if (userBankAccounts[bank][_userAddr].isActive != false) {\n            return true;\n        }\n        else {\n            return false;\n        }\n    }\n    \n    function deposit (address _userAddr, uint _amount) public returns (bool) {\n        \n        require (_amount > 0, 'Enter A Valid Deposit Amount!');\n        if ( userBankAccounts[bank][_userAddr].userId == _userAddr) {\n            uint balance = userBankAccounts[bank][_userAddr].userBalance;\n            balance += _amount;\n            userBankAccounts[bank][_userAddr].userBalance = balance;\n            return true;\n        }\n        else {\n            return false;\n        }\n        \n    }\n    \n    function selfDeposit (uint _amount) public returns (bool) {\n        \n       return deposit(msg.sender, _amount);\n        \n    }\n    \n    function withdraw (address _userAddr, uint _amount) public returns (bool) {\n        \n        require(userBankAccounts[bank][_userAddr].userBalance > _amount , 'Not Enough Balance!' );\n        if (userBankAccounts[bank][_userAddr].userId == _userAddr) {\n            \n            uint balance = userBankAccounts[bank][_userAddr].userBalance;\n            balance -= _amount;\n            userBankAccounts[bank][_userAddr].userBalance = balance;\n            return true;\n        }\n        else {\n            return false;\n        }\n    }\n    \n    function selfWithdraw (uint _amount) public returns (bool) {\n        \n       return withdraw(msg.sender, _amount);\n    }\n    \n    function getBalance (address _userAddr) public view returns (uint x) {\n        \n         if (userBankAccounts[bank][_userAddr].userId == _userAddr) {\n             uint balance = userBankAccounts[bank][_userAddr].userBalance;\n             return balance;\n        }\n    }\n    \n    function selfGetBalance () public view returns (uint x) {\n        \n        return getBalance(msg.sender);\n    }\n    \n    function transfer (address _from, address _to , uint _amount) public returns (bool) {\n        \n         require(userBankAccounts[bank][_from].userBalance >= _amount ,\n         'Not Enough Balance to Transfer This Amount!' );\n         \n        if (userBankAccounts[bank][_from].userId == _from && userBankAccounts[bank][_to].isActive == true) {\n            \n            uint fromBalance = userBankAccounts[bank][_from].userBalance;\n            uint toBalance = userBankAccounts[bank][_to].userBalance;\n            fromBalance -= _amount;\n            toBalance += _amount;\n            userBankAccounts[bank][_from].userBalance = fromBalance;\n            userBankAccounts[bank][_to].userBalance = toBalance; \n            return true;\n        }\n        else {\n            return false;\n        }\n        \n    }\n    \n     function selfTransfer (address _to , uint _amount) public returns (bool) {\n        \n         require(userBankAccounts[bank][msg.sender].userBalance >= _amount ,\n         'You Do Not Have Enough Balance to Transfer This Amount!' );\n         \n        if (userBankAccounts[bank][msg.sender].userId == msg.sender\n            && userBankAccounts[bank][_to].isActive == true)\n        {\n            uint fromBalance = userBankAccounts[bank][msg.sender].userBalance;\n            uint toBalance = userBankAccounts[bank][_to].userBalance;\n            fromBalance -= _amount;\n            toBalance += _amount;\n            userBankAccounts[bank][msg.sender].userBalance = fromBalance;\n            userBankAccounts[bank][_to].userBalance = toBalance; \n            return true;\n        }\n        \n        else {\n            \n            return false;\n        }\n        \n    }\n    \n    \n    function getAccountDetails(address _account) public view returns (BankAccount memory) {\n        return userBankAccounts[bank][_account];\n    }\n    \n    function selfGetAccountDetails() public view returns (BankAccount memory) {\n        return userBankAccounts[bank][msg.sender];\n    }\n    \n    // END OF BANKING STUFF\n    \n    // TRACKING STUFF GOES HERE\n    \n    \n    // TRACKING STEPS:\n    // 1- REQUEST IS CREATED\n    // 2- SUPPLIER APPROVE REQUEST\n    // 3- SUPPLIER CREATE AND SEND SHIPMENT FOR GLOBAL TRANSMISSION\n    // 4- GLOBAL TRANSMISSION SHIPS PACKAGE FOR LOCAL TRANSMISSION\n    // 5- LOCAL TRANSMISSION SHIPS PACKAGE TO FINAL DESTINATION (MANUFACTURER)\n    \n    //supplier\n    \n    function approveRequest(uint _requestId) public {\n        createLog(_requestId, 'REQUEST APPROVED', 'NORMAL' , 'REQUEST IS BEING PROCESSED' );\n        emit requestStateUpdate(msg.sender, block.timestamp , 'REQUEST APPROVED');\n        uint payment = requestCost[_requestId]/2;\n        transfer(requestList[_requestId].fromParti, msg.sender, payment);\n    }\n    \n \n    \n    function verifyShipmentState(uint _id) public returns (string memory) {\n        \n        string memory status;\n        \n        if(tempArr[tempArr.length-1] >= tempThreshold || humidArr[humidArr.length-1] >= humidityThreshold) {\n            \n            status = 'ABNORMAL';\n             emit ShipmentStateUpdate (_id, status , block.timestamp);\n            \n        } else {\n            \n            status = 'NORMAL';\n             emit ShipmentStateUpdate (_id, status , block.timestamp);\n        }\n          return status;\n    }\n    \n \n    // supplier \n    function sendShipment(uint _requestId) public {\n        string memory result = verifyShipmentState(_requestId);\n        \n        createLog(_requestId, 'PACKAGE CREATED',  result , 'SHIPMENT IS READY TO LEAVE' );\n        emit requestStateUpdate(msg.sender, block.timestamp , 'PACKAGE CREATED');\n        \n        createLog (_requestId, 'OUT FOR SHIPPING', result , 'SHIPMENT IS ON ITS WAY');\n        emit requestStateUpdate(msg.sender, block.timestamp , 'PACKAGE IS OUT FOR SHIPPING');\n    }\n    \n    // global distributor\n    function globalTransitShipment(uint _requestId) public {\n        \n        string memory result = verifyShipmentState(_requestId);\n        \n        createLog (_requestId, 'SHIPPING PACKAGE', result , 'SHIPMENT IS CURRENTLY IN TRANSIT');\n        emit requestStateUpdate(msg.sender, block.timestamp , 'IN TRANSIT');\n        \n    }\n    \n    //local distributor\n    function localTransitShipment(uint _requestId) public {\n        \n         string memory result = verifyShipmentState(_requestId);\n         \n        createLog (_requestId, 'READY FOR DELIVERY', result , 'SHIPMENT IS SET FOR LOCAL DELIVERY');\n        emit requestStateUpdate(msg.sender, block.timestamp , 'IN LOCAL TRANSIT');\n        \n    }\n     \n    //manufacturer\n    \n    function receiveShipment(uint _requestId) public {\n        string memory result = verifyShipmentState(_requestId);\n        createLog(_requestId, 'DELIVERED' , result , 'YOUR REQUEST HAS BEEN FULFILLED');\n        emit requestStateUpdate(msg.sender, block.timestamp , 'SHIPMENT DELIVERED');\n        \n        uint payment = requestCost[_requestId] - requestCost[_requestId]/2;\n        transfer(requestList[_requestId].fromParti, msg.sender, payment);\n    }\n    \n    \n    function createLog(\n    uint _requestId,\n    string memory _requestStatus,\n    // uint _currentTemp,\n    // uint _currentHumid,\n    string memory _shipmentStatus,\n    string memory _description\n    \n    ) public  {\n        \n        Log memory myLog = Log({\n            logger: msg.sender,\n            requestStatus: _requestStatus,\n            // currentTemp: _currentTemp,\n            // currentHumidity: _currentHumid,\n            shipmentStatus: _shipmentStatus,\n            description: _description,\n            logTime: block.timestamp\n        });\n        \n        trackLogs[_requestId].push(myLog);\n        emit requestStateUpdate(msg.sender, block.timestamp , _requestStatus);\n    }\n    \n    function setShipmentTrackData (uint _id, uint _temp , uint _humid) public {\n        \n        tempDataLogs[_id].push(_temp);\n        tempArr.push(_temp);\n        humidDataLogs[_id].push(_humid);\n        humidArr.push(_humid);\n        emit DataSent('Humidity Data', concat(toString(_temp),toString(_humid)), block.timestamp);\n    }\n    \n    function getShipmentTrackData (uint _id) public view returns (uint[] memory temp, uint[] memory humid) {\n        return (tempDataLogs[_id],humidDataLogs[_id]);\n        \n    }\n    \n    function getTrackLogs(uint _request) public view returns(Log[] memory) {\n        return trackLogs[_request];\n    }\n    \n    \n    // END OF TRACKING STUFF\n    \n// END OF CONTRACT\n\n}",
  "sourcePath": "/home/mohamedkaram/Documents/Demo-sandbox/contracts/NewDemoTest.sol",
  "compiler": {
    "name": "solc",
    "version": "0.7.4+commit.3f05b770.Emscripten.clang"
  },
  "schemaVersion": "3.3.3",
  "updatedAt": "2021-03-06T15:37:25.545Z",
  "networkType": "ethereum",
  "devdoc": {
    "kind": "dev",
    "methods": {},
    "version": 1
  },
  "userdoc": {
    "kind": "user",
    "methods": {},
    "version": 1
  }
}