{
  "contractName": "NewDemoTest",
  "abi": [
    {
      "anonymous": false,
      "inputs": [
        {
          "indexed": false,
          "internalType": "string",
          "name": "txName",
          "type": "string"
        },
        {
          "indexed": true,
          "internalType": "address",
          "name": "_from",
          "type": "address"
        },
        {
          "indexed": false,
          "internalType": "address",
          "name": "_to",
          "type": "address"
        },
        {
          "indexed": false,
          "internalType": "uint256",
          "name": "_amount",
          "type": "uint256"
        },
        {
          "indexed": true,
          "internalType": "uint256",
          "name": "timestamp",
          "type": "uint256"
        }
      ],
      "name": "BankTransact",
      "type": "event"
    },
    {
      "anonymous": false,
      "inputs": [
        {
          "indexed": true,
          "internalType": "uint256",
          "name": "requestNo",
          "type": "uint256"
        },
        {
          "indexed": false,
          "internalType": "string",
          "name": "DataCategory",
          "type": "string"
        },
        {
          "indexed": false,
          "internalType": "string",
          "name": "dataValues",
          "type": "string"
        },
        {
          "indexed": true,
          "internalType": "uint256",
          "name": "timestamp",
          "type": "uint256"
        }
      ],
      "name": "DataSent",
      "type": "event"
    },
    {
      "anonymous": false,
      "inputs": [
        {
          "indexed": true,
          "internalType": "uint256",
          "name": "requestNo",
          "type": "uint256"
        },
        {
          "indexed": false,
          "internalType": "string",
          "name": "state",
          "type": "string"
        },
        {
          "indexed": true,
          "internalType": "uint256",
          "name": "timestamp",
          "type": "uint256"
        }
      ],
      "name": "ShipmentStateUpdate",
      "type": "event"
    },
    {
      "anonymous": false,
      "inputs": [
        {
          "indexed": true,
          "internalType": "address",
          "name": "who",
          "type": "address"
        },
        {
          "indexed": true,
          "internalType": "uint256",
          "name": "timestamp",
          "type": "uint256"
        },
        {
          "indexed": false,
          "internalType": "string",
          "name": "state",
          "type": "string"
        }
      ],
      "name": "requestStateUpdate",
      "type": "event"
    },
    {
      "inputs": [
        {
          "internalType": "string",
          "name": "x",
          "type": "string"
        },
        {
          "internalType": "string",
          "name": "y",
          "type": "string"
        }
      ],
      "name": "strComp",
      "outputs": [
        {
          "internalType": "bool",
          "name": "",
          "type": "bool"
        }
      ],
      "stateMutability": "pure",
      "type": "function",
      "constant": true
    },
    {
      "inputs": [
        {
          "internalType": "address",
          "name": "_participant",
          "type": "address"
        }
      ],
      "name": "verifyParticipant",
      "outputs": [],
      "stateMutability": "nonpayable",
      "type": "function"
    },
    {
      "inputs": [
        {
          "internalType": "address",
          "name": "_participant",
          "type": "address"
        }
      ],
      "name": "unverifyParticipant",
      "outputs": [],
      "stateMutability": "nonpayable",
      "type": "function"
    },
    {
      "inputs": [
        {
          "internalType": "address",
          "name": "_participant",
          "type": "address"
        }
      ],
      "name": "isVerfied",
      "outputs": [
        {
          "internalType": "bool",
          "name": "",
          "type": "bool"
        }
      ],
      "stateMutability": "view",
      "type": "function",
      "constant": true
    },
    {
      "inputs": [
        {
          "internalType": "string",
          "name": "_id",
          "type": "string"
        },
        {
          "internalType": "string",
          "name": "_name",
          "type": "string"
        },
        {
          "internalType": "string",
          "name": "_pForm",
          "type": "string"
        }
      ],
      "name": "addProduct",
      "outputs": [],
      "stateMutability": "nonpayable",
      "type": "function"
    },
    {
      "inputs": [
        {
          "internalType": "string",
          "name": "_productID",
          "type": "string"
        },
        {
          "internalType": "string",
          "name": "_name",
          "type": "string"
        },
        {
          "internalType": "string",
          "name": "_type",
          "type": "string"
        },
        {
          "internalType": "string",
          "name": "_strength",
          "type": "string"
        },
        {
          "internalType": "string",
          "name": "_form",
          "type": "string"
        },
        {
          "internalType": "uint256",
          "name": "_amount",
          "type": "uint256"
        }
      ],
      "name": "addProductSpecs",
      "outputs": [],
      "stateMutability": "nonpayable",
      "type": "function"
    },
    {
      "inputs": [
        {
          "internalType": "address",
          "name": "_manufacturer",
          "type": "address"
        }
      ],
      "name": "getProductsByManu",
      "outputs": [
        {
          "components": [
            {
              "internalType": "address",
              "name": "manufacturer",
              "type": "address"
            },
            {
              "internalType": "string",
              "name": "productId",
              "type": "string"
            },
            {
              "internalType": "string",
              "name": "productName",
              "type": "string"
            },
            {
              "internalType": "string",
              "name": "productForm",
              "type": "string"
            },
            {
              "internalType": "uint256",
              "name": "productBudget",
              "type": "uint256"
            }
          ],
          "internalType": "struct NewDemoTest.Product[]",
          "name": "",
          "type": "tuple[]"
        }
      ],
      "stateMutability": "view",
      "type": "function",
      "constant": true
    },
    {
      "inputs": [],
      "name": "getProducts",
      "outputs": [
        {
          "components": [
            {
              "internalType": "address",
              "name": "manufacturer",
              "type": "address"
            },
            {
              "internalType": "string",
              "name": "productId",
              "type": "string"
            },
            {
              "internalType": "string",
              "name": "productName",
              "type": "string"
            },
            {
              "internalType": "string",
              "name": "productForm",
              "type": "string"
            },
            {
              "internalType": "uint256",
              "name": "productBudget",
              "type": "uint256"
            }
          ],
          "internalType": "struct NewDemoTest.Product[]",
          "name": "",
          "type": "tuple[]"
        }
      ],
      "stateMutability": "view",
      "type": "function",
      "constant": true
    },
    {
      "inputs": [
        {
          "internalType": "string",
          "name": "_id",
          "type": "string"
        }
      ],
      "name": "getProductById",
      "outputs": [
        {
          "components": [
            {
              "internalType": "address",
              "name": "manufacturer",
              "type": "address"
            },
            {
              "internalType": "string",
              "name": "productId",
              "type": "string"
            },
            {
              "internalType": "string",
              "name": "productName",
              "type": "string"
            },
            {
              "internalType": "string",
              "name": "productForm",
              "type": "string"
            },
            {
              "internalType": "uint256",
              "name": "productBudget",
              "type": "uint256"
            }
          ],
          "internalType": "struct NewDemoTest.Product",
          "name": "",
          "type": "tuple"
        }
      ],
      "stateMutability": "view",
      "type": "function",
      "constant": true
    },
    {
      "inputs": [
        {
          "internalType": "string",
          "name": "_product",
          "type": "string"
        }
      ],
      "name": "getProductSpecs",
      "outputs": [
        {
          "components": [
            {
              "internalType": "string",
              "name": "materialName",
              "type": "string"
            },
            {
              "internalType": "string",
              "name": "materialType",
              "type": "string"
            },
            {
              "internalType": "uint256",
              "name": "materialAmount",
              "type": "uint256"
            },
            {
              "internalType": "string",
              "name": "materialStrength",
              "type": "string"
            },
            {
              "internalType": "string",
              "name": "materialForm",
              "type": "string"
            }
          ],
          "internalType": "struct NewDemoTest.Specs[]",
          "name": "",
          "type": "tuple[]"
        }
      ],
      "stateMutability": "view",
      "type": "function",
      "constant": true
    },
    {
      "inputs": [
        {
          "internalType": "string",
          "name": "_product",
          "type": "string"
        },
        {
          "internalType": "uint256",
          "name": "_directMatCost",
          "type": "uint256"
        },
        {
          "internalType": "uint256",
          "name": "_pkgMatCost",
          "type": "uint256"
        },
        {
          "internalType": "uint256",
          "name": "_directLaborCost",
          "type": "uint256"
        },
        {
          "internalType": "uint256",
          "name": "_totIndirectCosts",
          "type": "uint256"
        },
        {
          "internalType": "uint256",
          "name": "_mrkCost",
          "type": "uint256"
        },
        {
          "internalType": "uint256",
          "name": "_rsrchCost",
          "type": "uint256"
        },
        {
          "internalType": "uint256",
          "name": "_productBudget",
          "type": "uint256"
        }
      ],
      "name": "setStdCostPlan",
      "outputs": [],
      "stateMutability": "nonpayable",
      "type": "function"
    },
    {
      "inputs": [
        {
          "internalType": "string",
          "name": "_product",
          "type": "string"
        },
        {
          "internalType": "uint256",
          "name": "_budget",
          "type": "uint256"
        }
      ],
      "name": "setProductBudget",
      "outputs": [],
      "stateMutability": "nonpayable",
      "type": "function"
    },
    {
      "inputs": [
        {
          "internalType": "string",
          "name": "_product",
          "type": "string"
        }
      ],
      "name": "getStdCostPlan",
      "outputs": [
        {
          "components": [
            {
              "internalType": "uint256",
              "name": "directMaterialCost",
              "type": "uint256"
            },
            {
              "internalType": "uint256",
              "name": "packagingMaterialCost",
              "type": "uint256"
            },
            {
              "internalType": "uint256",
              "name": "marketingCost",
              "type": "uint256"
            },
            {
              "internalType": "uint256",
              "name": "researchCost",
              "type": "uint256"
            },
            {
              "internalType": "uint256",
              "name": "directLaborCost",
              "type": "uint256"
            },
            {
              "internalType": "uint256",
              "name": "totalIndirectCost",
              "type": "uint256"
            },
            {
              "internalType": "uint256",
              "name": "totalDirectCost",
              "type": "uint256"
            },
            {
              "internalType": "uint256",
              "name": "CostTOT",
              "type": "uint256"
            }
          ],
          "internalType": "struct NewDemoTest.Cost",
          "name": "",
          "type": "tuple"
        }
      ],
      "stateMutability": "view",
      "type": "function",
      "constant": true
    },
    {
      "inputs": [
        {
          "internalType": "string",
          "name": "_product",
          "type": "string"
        },
        {
          "internalType": "uint256",
          "name": "_actualMatCost",
          "type": "uint256"
        },
        {
          "internalType": "uint256",
          "name": "_actualPkgMatCost",
          "type": "uint256"
        },
        {
          "internalType": "uint256",
          "name": "_actualLaborCost",
          "type": "uint256"
        },
        {
          "internalType": "uint256",
          "name": "_actualIndirectCost",
          "type": "uint256"
        },
        {
          "internalType": "uint256",
          "name": "_actualMrkCost",
          "type": "uint256"
        },
        {
          "internalType": "uint256",
          "name": "_actualRsrchCost",
          "type": "uint256"
        }
      ],
      "name": "setActualCost",
      "outputs": [],
      "stateMutability": "nonpayable",
      "type": "function"
    },
    {
      "inputs": [
        {
          "internalType": "string",
          "name": "_product",
          "type": "string"
        }
      ],
      "name": "getActualCost",
      "outputs": [
        {
          "components": [
            {
              "internalType": "uint256",
              "name": "directMaterialCost",
              "type": "uint256"
            },
            {
              "internalType": "uint256",
              "name": "packagingMaterialCost",
              "type": "uint256"
            },
            {
              "internalType": "uint256",
              "name": "marketingCost",
              "type": "uint256"
            },
            {
              "internalType": "uint256",
              "name": "researchCost",
              "type": "uint256"
            },
            {
              "internalType": "uint256",
              "name": "directLaborCost",
              "type": "uint256"
            },
            {
              "internalType": "uint256",
              "name": "totalIndirectCost",
              "type": "uint256"
            },
            {
              "internalType": "uint256",
              "name": "totalDirectCost",
              "type": "uint256"
            },
            {
              "internalType": "uint256",
              "name": "CostTOT",
              "type": "uint256"
            }
          ],
          "internalType": "struct NewDemoTest.Cost",
          "name": "",
          "type": "tuple"
        }
      ],
      "stateMutability": "view",
      "type": "function",
      "constant": true
    },
    {
      "inputs": [
        {
          "internalType": "string",
          "name": "_id",
          "type": "string"
        },
        {
          "internalType": "string",
          "name": "_name",
          "type": "string"
        },
        {
          "internalType": "uint256",
          "name": "_str",
          "type": "uint256"
        },
        {
          "internalType": "string",
          "name": "_form",
          "type": "string"
        },
        {
          "internalType": "uint256",
          "name": "_amount",
          "type": "uint256"
        },
        {
          "internalType": "uint256",
          "name": "_unitCost",
          "type": "uint256"
        }
      ],
      "name": "createMaterial",
      "outputs": [],
      "stateMutability": "nonpayable",
      "type": "function"
    },
    {
      "inputs": [
        {
          "internalType": "address",
          "name": "_supplier",
          "type": "address"
        }
      ],
      "name": "getMaterialsBySupplier",
      "outputs": [
        {
          "components": [
            {
              "internalType": "address",
              "name": "supplier",
              "type": "address"
            },
            {
              "internalType": "string",
              "name": "materialID",
              "type": "string"
            },
            {
              "internalType": "string",
              "name": "materialName",
              "type": "string"
            },
            {
              "internalType": "uint256",
              "name": "materialStrength",
              "type": "uint256"
            },
            {
              "internalType": "string",
              "name": "materialForm",
              "type": "string"
            },
            {
              "internalType": "uint256",
              "name": "createdAmount",
              "type": "uint256"
            },
            {
              "internalType": "uint256",
              "name": "unitCost",
              "type": "uint256"
            }
          ],
          "internalType": "struct NewDemoTest.Material[]",
          "name": "",
          "type": "tuple[]"
        }
      ],
      "stateMutability": "view",
      "type": "function",
      "constant": true
    },
    {
      "inputs": [],
      "name": "getMaterials",
      "outputs": [
        {
          "components": [
            {
              "internalType": "address",
              "name": "supplier",
              "type": "address"
            },
            {
              "internalType": "string",
              "name": "materialID",
              "type": "string"
            },
            {
              "internalType": "string",
              "name": "materialName",
              "type": "string"
            },
            {
              "internalType": "uint256",
              "name": "materialStrength",
              "type": "uint256"
            },
            {
              "internalType": "string",
              "name": "materialForm",
              "type": "string"
            },
            {
              "internalType": "uint256",
              "name": "createdAmount",
              "type": "uint256"
            },
            {
              "internalType": "uint256",
              "name": "unitCost",
              "type": "uint256"
            }
          ],
          "internalType": "struct NewDemoTest.Material[]",
          "name": "",
          "type": "tuple[]"
        }
      ],
      "stateMutability": "view",
      "type": "function",
      "constant": true
    },
    {
      "inputs": [
        {
          "internalType": "string",
          "name": "_materialId",
          "type": "string"
        }
      ],
      "name": "getMaterialById",
      "outputs": [
        {
          "components": [
            {
              "internalType": "address",
              "name": "supplier",
              "type": "address"
            },
            {
              "internalType": "string",
              "name": "materialID",
              "type": "string"
            },
            {
              "internalType": "string",
              "name": "materialName",
              "type": "string"
            },
            {
              "internalType": "uint256",
              "name": "materialStrength",
              "type": "uint256"
            },
            {
              "internalType": "string",
              "name": "materialForm",
              "type": "string"
            },
            {
              "internalType": "uint256",
              "name": "createdAmount",
              "type": "uint256"
            },
            {
              "internalType": "uint256",
              "name": "unitCost",
              "type": "uint256"
            }
          ],
          "internalType": "struct NewDemoTest.Material",
          "name": "",
          "type": "tuple"
        }
      ],
      "stateMutability": "view",
      "type": "function",
      "constant": true
    },
    {
      "inputs": [
        {
          "internalType": "address",
          "name": "_to",
          "type": "address"
        },
        {
          "internalType": "string",
          "name": "_materialId",
          "type": "string"
        },
        {
          "internalType": "uint256",
          "name": "_amount",
          "type": "uint256"
        }
      ],
      "name": "createRequest",
      "outputs": [],
      "stateMutability": "nonpayable",
      "type": "function"
    },
    {
      "inputs": [
        {
          "internalType": "uint256",
          "name": "_id",
          "type": "uint256"
        }
      ],
      "name": "getRequestCost",
      "outputs": [
        {
          "internalType": "uint256",
          "name": "",
          "type": "uint256"
        }
      ],
      "stateMutability": "view",
      "type": "function",
      "constant": true
    },
    {
      "inputs": [],
      "name": "getMyRequests",
      "outputs": [
        {
          "components": [
            {
              "internalType": "uint256",
              "name": "requestId",
              "type": "uint256"
            },
            {
              "internalType": "address",
              "name": "fromParti",
              "type": "address"
            },
            {
              "internalType": "address",
              "name": "toParti",
              "type": "address"
            },
            {
              "internalType": "string",
              "name": "materialID",
              "type": "string"
            },
            {
              "internalType": "uint256",
              "name": "amount",
              "type": "uint256"
            },
            {
              "internalType": "uint256",
              "name": "issueTime",
              "type": "uint256"
            }
          ],
          "internalType": "struct NewDemoTest.Request[]",
          "name": "",
          "type": "tuple[]"
        }
      ],
      "stateMutability": "view",
      "type": "function",
      "constant": true
    },
    {
      "inputs": [
        {
          "internalType": "uint256",
          "name": "_id",
          "type": "uint256"
        }
      ],
      "name": "getRequestById",
      "outputs": [
        {
          "components": [
            {
              "internalType": "uint256",
              "name": "requestId",
              "type": "uint256"
            },
            {
              "internalType": "address",
              "name": "fromParti",
              "type": "address"
            },
            {
              "internalType": "address",
              "name": "toParti",
              "type": "address"
            },
            {
              "internalType": "string",
              "name": "materialID",
              "type": "string"
            },
            {
              "internalType": "uint256",
              "name": "amount",
              "type": "uint256"
            },
            {
              "internalType": "uint256",
              "name": "issueTime",
              "type": "uint256"
            }
          ],
          "internalType": "struct NewDemoTest.Request",
          "name": "",
          "type": "tuple"
        }
      ],
      "stateMutability": "view",
      "type": "function",
      "constant": true
    },
    {
      "inputs": [
        {
          "internalType": "address",
          "name": "_participant",
          "type": "address"
        }
      ],
      "name": "getRequestByAddress",
      "outputs": [
        {
          "components": [
            {
              "internalType": "uint256",
              "name": "requestId",
              "type": "uint256"
            },
            {
              "internalType": "address",
              "name": "fromParti",
              "type": "address"
            },
            {
              "internalType": "address",
              "name": "toParti",
              "type": "address"
            },
            {
              "internalType": "string",
              "name": "materialID",
              "type": "string"
            },
            {
              "internalType": "uint256",
              "name": "amount",
              "type": "uint256"
            },
            {
              "internalType": "uint256",
              "name": "issueTime",
              "type": "uint256"
            }
          ],
          "internalType": "struct NewDemoTest.Request[]",
          "name": "",
          "type": "tuple[]"
        }
      ],
      "stateMutability": "view",
      "type": "function",
      "constant": true
    },
    {
      "inputs": [
        {
          "internalType": "address",
          "name": "_participant",
          "type": "address"
        },
        {
          "internalType": "string",
          "name": "_item",
          "type": "string"
        },
        {
          "internalType": "uint256",
          "name": "_amount",
          "type": "uint256"
        }
      ],
      "name": "addToInventory",
      "outputs": [],
      "stateMutability": "nonpayable",
      "type": "function"
    },
    {
      "inputs": [
        {
          "internalType": "address",
          "name": "_participant",
          "type": "address"
        },
        {
          "internalType": "string",
          "name": "_item",
          "type": "string"
        },
        {
          "internalType": "uint256",
          "name": "_amount",
          "type": "uint256"
        }
      ],
      "name": "updateInventory",
      "outputs": [],
      "stateMutability": "nonpayable",
      "type": "function"
    },
    {
      "inputs": [
        {
          "internalType": "address",
          "name": "_participant",
          "type": "address"
        }
      ],
      "name": "getInventory",
      "outputs": [
        {
          "components": [
            {
              "internalType": "string",
              "name": "itemId",
              "type": "string"
            },
            {
              "internalType": "uint256",
              "name": "amount",
              "type": "uint256"
            }
          ],
          "internalType": "struct NewDemoTest.InventoryItem[]",
          "name": "",
          "type": "tuple[]"
        }
      ],
      "stateMutability": "view",
      "type": "function",
      "constant": true
    },
    {
      "inputs": [
        {
          "internalType": "string",
          "name": "_item",
          "type": "string"
        }
      ],
      "name": "getInventoryList",
      "outputs": [
        {
          "components": [
            {
              "internalType": "string",
              "name": "itemId",
              "type": "string"
            },
            {
              "internalType": "uint256",
              "name": "amount",
              "type": "uint256"
            }
          ],
          "internalType": "struct NewDemoTest.InventoryItem",
          "name": "",
          "type": "tuple"
        }
      ],
      "stateMutability": "view",
      "type": "function",
      "constant": true
    },
    {
      "inputs": [
        {
          "internalType": "address",
          "name": "_addr",
          "type": "address"
        }
      ],
      "name": "setAsBank",
      "outputs": [],
      "stateMutability": "nonpayable",
      "type": "function"
    },
    {
      "inputs": [],
      "name": "getBank",
      "outputs": [
        {
          "internalType": "address",
          "name": "",
          "type": "address"
        }
      ],
      "stateMutability": "view",
      "type": "function",
      "constant": true
    },
    {
      "inputs": [
        {
          "internalType": "address",
          "name": "_userAddr",
          "type": "address"
        },
        {
          "internalType": "string",
          "name": "_userName",
          "type": "string"
        }
      ],
      "name": "createBankAccount",
      "outputs": [],
      "stateMutability": "nonpayable",
      "type": "function"
    },
    {
      "inputs": [
        {
          "internalType": "string",
          "name": "_userName",
          "type": "string"
        }
      ],
      "name": "selfCreateBankAccount",
      "outputs": [],
      "stateMutability": "nonpayable",
      "type": "function"
    },
    {
      "inputs": [
        {
          "internalType": "address",
          "name": "_userAddr",
          "type": "address"
        }
      ],
      "name": "hasBankAccount",
      "outputs": [
        {
          "internalType": "bool",
          "name": "",
          "type": "bool"
        }
      ],
      "stateMutability": "view",
      "type": "function",
      "constant": true
    },
    {
      "inputs": [
        {
          "internalType": "address",
          "name": "_userAddr",
          "type": "address"
        },
        {
          "internalType": "uint256",
          "name": "_amount",
          "type": "uint256"
        }
      ],
      "name": "deposit",
      "outputs": [
        {
          "internalType": "bool",
          "name": "",
          "type": "bool"
        }
      ],
      "stateMutability": "nonpayable",
      "type": "function"
    },
    {
      "inputs": [
        {
          "internalType": "uint256",
          "name": "_amount",
          "type": "uint256"
        }
      ],
      "name": "selfDeposit",
      "outputs": [
        {
          "internalType": "bool",
          "name": "",
          "type": "bool"
        }
      ],
      "stateMutability": "nonpayable",
      "type": "function"
    },
    {
      "inputs": [
        {
          "internalType": "address",
          "name": "_userAddr",
          "type": "address"
        },
        {
          "internalType": "uint256",
          "name": "_amount",
          "type": "uint256"
        }
      ],
      "name": "withdraw",
      "outputs": [
        {
          "internalType": "bool",
          "name": "",
          "type": "bool"
        }
      ],
      "stateMutability": "nonpayable",
      "type": "function"
    },
    {
      "inputs": [
        {
          "internalType": "uint256",
          "name": "_amount",
          "type": "uint256"
        }
      ],
      "name": "selfWithdraw",
      "outputs": [
        {
          "internalType": "bool",
          "name": "",
          "type": "bool"
        }
      ],
      "stateMutability": "nonpayable",
      "type": "function"
    },
    {
      "inputs": [
        {
          "internalType": "address",
          "name": "_userAddr",
          "type": "address"
        }
      ],
      "name": "getBalance",
      "outputs": [
        {
          "internalType": "uint256",
          "name": "x",
          "type": "uint256"
        }
      ],
      "stateMutability": "view",
      "type": "function",
      "constant": true
    },
    {
      "inputs": [],
      "name": "selfGetBalance",
      "outputs": [
        {
          "internalType": "uint256",
          "name": "x",
          "type": "uint256"
        }
      ],
      "stateMutability": "view",
      "type": "function",
      "constant": true
    },
    {
      "inputs": [
        {
          "internalType": "address",
          "name": "_from",
          "type": "address"
        },
        {
          "internalType": "address",
          "name": "_to",
          "type": "address"
        },
        {
          "internalType": "uint256",
          "name": "_amount",
          "type": "uint256"
        }
      ],
      "name": "transfer",
      "outputs": [
        {
          "internalType": "bool",
          "name": "",
          "type": "bool"
        }
      ],
      "stateMutability": "nonpayable",
      "type": "function"
    },
    {
      "inputs": [
        {
          "internalType": "address",
          "name": "_to",
          "type": "address"
        },
        {
          "internalType": "uint256",
          "name": "_amount",
          "type": "uint256"
        }
      ],
      "name": "selfTransfer",
      "outputs": [
        {
          "internalType": "bool",
          "name": "",
          "type": "bool"
        }
      ],
      "stateMutability": "nonpayable",
      "type": "function"
    },
    {
      "inputs": [
        {
          "internalType": "address",
          "name": "_account",
          "type": "address"
        }
      ],
      "name": "getAccountDetails",
      "outputs": [
        {
          "components": [
            {
              "internalType": "address",
              "name": "userId",
              "type": "address"
            },
            {
              "internalType": "string",
              "name": "userName",
              "type": "string"
            },
            {
              "internalType": "uint256",
              "name": "userBalance",
              "type": "uint256"
            },
            {
              "internalType": "bool",
              "name": "isActive",
              "type": "bool"
            }
          ],
          "internalType": "struct NewDemoTest.BankAccount",
          "name": "",
          "type": "tuple"
        }
      ],
      "stateMutability": "view",
      "type": "function",
      "constant": true
    },
    {
      "inputs": [],
      "name": "selfGetAccountDetails",
      "outputs": [
        {
          "components": [
            {
              "internalType": "address",
              "name": "userId",
              "type": "address"
            },
            {
              "internalType": "string",
              "name": "userName",
              "type": "string"
            },
            {
              "internalType": "uint256",
              "name": "userBalance",
              "type": "uint256"
            },
            {
              "internalType": "bool",
              "name": "isActive",
              "type": "bool"
            }
          ],
          "internalType": "struct NewDemoTest.BankAccount",
          "name": "",
          "type": "tuple"
        }
      ],
      "stateMutability": "view",
      "type": "function",
      "constant": true
    },
    {
      "inputs": [
        {
          "internalType": "uint256",
          "name": "_requestId",
          "type": "uint256"
        }
      ],
      "name": "approveRequest",
      "outputs": [],
      "stateMutability": "nonpayable",
      "type": "function"
    },
    {
      "inputs": [
        {
          "internalType": "uint256",
          "name": "_id",
          "type": "uint256"
        }
      ],
      "name": "verifyShipmentState",
      "outputs": [
        {
          "internalType": "string",
          "name": "",
          "type": "string"
        }
      ],
      "stateMutability": "nonpayable",
      "type": "function"
    },
    {
      "inputs": [
        {
          "internalType": "uint256",
          "name": "_requestId",
          "type": "uint256"
        }
      ],
      "name": "sendShipment",
      "outputs": [],
      "stateMutability": "nonpayable",
      "type": "function"
    },
    {
      "inputs": [
        {
          "internalType": "uint256",
          "name": "_requestId",
          "type": "uint256"
        }
      ],
      "name": "globalTransitShipment",
      "outputs": [],
      "stateMutability": "nonpayable",
      "type": "function"
    },
    {
      "inputs": [
        {
          "internalType": "uint256",
          "name": "_requestId",
          "type": "uint256"
        }
      ],
      "name": "localTransitShipment",
      "outputs": [],
      "stateMutability": "nonpayable",
      "type": "function"
    },
    {
      "inputs": [
        {
          "internalType": "uint256",
          "name": "_requestId",
          "type": "uint256"
        }
      ],
      "name": "receiveShipment",
      "outputs": [],
      "stateMutability": "nonpayable",
      "type": "function"
    },
    {
      "inputs": [
        {
          "internalType": "uint256",
          "name": "_requestId",
          "type": "uint256"
        },
        {
          "internalType": "string",
          "name": "_requestStatus",
          "type": "string"
        },
        {
          "internalType": "string",
          "name": "_shipmentStatus",
          "type": "string"
        },
        {
          "internalType": "string",
          "name": "_description",
          "type": "string"
        }
      ],
      "name": "createLog",
      "outputs": [],
      "stateMutability": "nonpayable",
      "type": "function"
    },
    {
      "inputs": [
        {
          "internalType": "uint256",
          "name": "_id",
          "type": "uint256"
        },
        {
          "internalType": "uint256",
          "name": "_temp",
          "type": "uint256"
        },
        {
          "internalType": "uint256",
          "name": "_humid",
          "type": "uint256"
        }
      ],
      "name": "setShipmentTrackData",
      "outputs": [],
      "stateMutability": "nonpayable",
      "type": "function"
    },
    {
      "inputs": [
        {
          "internalType": "uint256",
          "name": "_id",
          "type": "uint256"
        }
      ],
      "name": "getShipmentTrackData",
      "outputs": [
        {
          "internalType": "uint256[]",
          "name": "temp",
          "type": "uint256[]"
        },
        {
          "internalType": "uint256[]",
          "name": "humid",
          "type": "uint256[]"
        }
      ],
      "stateMutability": "view",
      "type": "function",
      "constant": true
    },
    {
      "inputs": [
        {
          "internalType": "uint256",
          "name": "_request",
          "type": "uint256"
        }
      ],
      "name": "getTrackLogs",
      "outputs": [
        {
          "components": [
            {
              "internalType": "address",
              "name": "logger",
              "type": "address"
            },
            {
              "internalType": "string",
              "name": "requestStatus",
              "type": "string"
            },
            {
              "internalType": "string",
              "name": "description",
              "type": "string"
            },
            {
              "internalType": "string",
              "name": "shipmentStatus",
              "type": "string"
            },
            {
              "internalType": "uint256",
              "name": "logTime",
              "type": "uint256"
            }
          ],
          "internalType": "struct NewDemoTest.Log[]",
          "name": "",
          "type": "tuple[]"
        }
      ],
      "stateMutability": "view",
      "type": "function",
      "constant": true
    },
    {
      "inputs": [
        {
          "internalType": "uint256",
          "name": "_id",
          "type": "uint256"
        },
        {
          "internalType": "string",
          "name": "_lat",
          "type": "string"
        },
        {
          "internalType": "string",
          "name": "_long",
          "type": "string"
        }
      ],
      "name": "setShipmentLocation",
      "outputs": [],
      "stateMutability": "nonpayable",
      "type": "function"
    },
    {
      "inputs": [
        {
          "internalType": "uint256",
          "name": "_id",
          "type": "uint256"
        }
      ],
      "name": "getShipmentLocation",
      "outputs": [
        {
          "components": [
            {
              "internalType": "string",
              "name": "Latitude",
              "type": "string"
            },
            {
              "internalType": "string",
              "name": "Longitude",
              "type": "string"
            }
          ],
          "internalType": "struct NewDemoTest.Location[]",
          "name": "",
          "type": "tuple[]"
        }
      ],
      "stateMutability": "view",
      "type": "function",
      "constant": true
    },
    {
      "inputs": [
        {
          "internalType": "uint256",
          "name": "_id",
          "type": "uint256"
        },
        {
          "internalType": "string",
          "name": "_method",
          "type": "string"
        }
      ],
      "name": "setShipmentMethod",
      "outputs": [],
      "stateMutability": "nonpayable",
      "type": "function"
    },
    {
      "inputs": [
        {
          "internalType": "uint256",
          "name": "_id",
          "type": "uint256"
        }
      ],
      "name": "getShipmentMethod",
      "outputs": [
        {
          "internalType": "string",
          "name": "",
          "type": "string"
        }
      ],
      "stateMutability": "view",
      "type": "function",
      "constant": true
    }
  ],
  "bytecode": "0x60806040526201c4c86002556028600355603260045534801561002157600080fd5b50615a1980620000326000396000f3fe608060405234801561001057600080fd5b50600436106103835760003560e01c8063643a7695116101de5780639684447b1161010f578063d7d1bbdb116100ad578063f583736d1161007c578063f583736d1461082b578063f8b2cb4f1461083e578063fb3684fb14610851578063fd91dcca1461086457610383565b8063d7d1bbdb146107df578063de67ef8a146107f2578063eda953f214610805578063f3fef3a31461081857610383565b8063a45aebfe116100e9578063a45aebfe14610791578063beabacc8146107a4578063c29b2f20146107b7578063c933a2ad146107cc57610383565b80639684447b1461073d5780639a5328891461075d5780639d1023291461077e57610383565b80637fe54a101161017c5780638b87c544116101565780638b87c544146106ef5780638c0c25681461070f57806391eace8b146107225780639366c6411461072a57610383565b80637fe54a10146106c157806380dfedcd146106d45780638a515a56146106dc57610383565b80636f2e836a116101b85780636f2e836a146106665780636fe57a771461067957806379b5e182146106995780637f5cf16e146106a157610383565b8063643a76951461062d5780636e3162a7146106405780636eac3eb81461065357610383565b80632aceb534116102b8578063477dec5d116102565780635280ae1d116102305780635280ae1d146105df57806353196363146105f257806359c8351f1461060557806360d704db1461061857610383565b8063477dec5d1461059957806347e7ef24146105ac578063502bdedd146105cc57610383565b80633f201978116102925780633f20197814610533578063420777de1461055357806342bf2f371461056657806343ffb9a61461058657610383565b80632aceb534146104ed5780632fc819161461050d5780633c0b276c1461052057610383565b806312917b8e116103255780632352d4aa116102ff5780632352d4aa1461048557806324d29513146104a557806326757b73146104b85780632a22f0fc146104d857610383565b806312917b8e1461043f5780631799e0391461045f5780631fa916731461047257610383565b80630afad95e116103615780630afad95e146103e65780630b4fb06d146103f95780630e34b00e1461040c578063126a403b1461041f57610383565b806306177b4e1461038857806308280093146103b1578063096a71e2146103c6575b600080fd5b61039b610396366004614896565b610877565b6040516103a89190615286565b60405180910390f35b6103c46103bf366004614c38565b610ada565b005b6103d96103d43660046149b3565b610c04565b6040516103a891906157d5565b6103c46103f4366004614c7a565b610c8d565b6103c4610407366004614d59565b610d54565b6103c461041a366004614a43565b6110ae565b61043261042d366004614d59565b6112fa565b6040516103a8919061546e565b61045261044d366004614d59565b6113ee565b6040516103a89190615233565b61043261046d366004614d59565b61162e565b6103c46104803660046149b3565b6116cf565b6104986104933660046149b3565b6116dc565b6040516103a89190615854565b6103c46104b3366004614dd0565b6118e7565b6104cb6104c6366004614d59565b6119ed565b6040516103a89190615867565b6104e0611ae6565b6040516103a8919061587a565b6105006104fb366004614896565b611af6565b6040516103a89190615785565b6103c461051b3660046148eb565b611bf1565b6103c461052e366004614d59565b611c9a565b6105466105413660046149b3565b612052565b6040516103a89190615841565b6103c4610561366004614d59565b612271565b6105796105743660046149b3565b6122fc565b6040516103a8919061582e565b6103c4610594366004614936565b6123c7565b6103c46105a7366004614896565b612599565b6105bf6105ba36600461498a565b6125bb565b6040516103a89190615463565b6103c46105da366004614e5d565b6126a1565b6105bf6105ed366004614896565b612801565b6103c4610600366004614936565b612847565b6105bf6106133660046149ed565b612905565b61062061295e565b6040516103a8919061513d565b6103c461063b366004614896565b61296d565b6103c461064e366004614b99565b612991565b6103d96106613660046149b3565b612c36565b6105bf610674366004614d59565b612c4e565b61068c610687366004614896565b612c5a565b6040516103a8919061532c565b610500612d96565b6106b46106af3660046149b3565b612e8e565b6040516103a8919061537f565b6103c46106cf366004614d59565b613164565b61039b6131e5565b6105bf6106ea36600461498a565b613431565b6107026106fd366004614896565b613445565b6040516103a89190615151565b6103c461071d366004614d9f565b613543565b61068c6135b4565b6103c4610738366004614936565b6136e7565b61075061074b366004614d59565b6137dc565b6040516103a891906151b1565b61077061076b366004614d59565b61396f565b6040516103a8929190615435565b6105bf61078c366004614d59565b613a34565b6103c461079f366004614d71565b613a40565b6105bf6107b23660046148b0565b613a5f565b6107bf613bd6565b6040516103a891906152d9565b6104e06107da366004614d59565b613e05565b6103c46107ed366004614d59565b613e17565b6107bf610800366004614896565b613f04565b6105bf610813366004614896565b614147565b6105bf61082636600461498a565b614165565b6103c4610839366004614896565b614253565b6104e061084c366004614896565b614274565b6103c461085f366004614ce5565b6142dc565b6103c4610872366004614ac6565b6143ae565b6001600160a01b0381166000908152600d60209081526040808320805482518185028101850190935280835260609492939192909184015b82821015610ace5760008481526020908190206040805160e0810182526007860290920180546001600160a01b03168352600180820180548451600261010094831615949094026000190190911692909204601f8101879004870283018701909452838252939491938583019391929091908301828280156109725780601f1061094757610100808354040283529160200191610972565b820191906000526020600020905b81548152906001019060200180831161095557829003601f168201915b5050509183525050600282810180546040805160206001841615610100026000190190931694909404601f81018390048302850183019091528084529381019390830182828015610a045780601f106109d957610100808354040283529160200191610a04565b820191906000526020600020905b8154815290600101906020018083116109e757829003601f168201915b5050509183525050600382015460208083019190915260048301805460408051601f60026000196101006001871615020190941693909304928301859004850281018501825282815294019392830182828015610aa25780601f10610a7757610100808354040283529160200191610aa2565b820191906000526020600020905b815481529060010190602001808311610a8557829003601f168201915b5050505050815260200160058201548152602001600682015481525050815260200190600101906108af565b5050505090505b919050565b336000908152600a602052604081208054610ba792859291610af857fe5b90600052602060002090600502016001018054600181600116156101000203166002900480601f016020809104026020016040519081016040528092919081815260200182805460018160011615610100020316600290048015610b9d5780601f10610b7257610100808354040283529160200191610b9d565b820191906000526020600020905b815481529060010190602001808311610b8057829003601f168201915b5050505050612905565b15610c0057336000908152600a602052604081208054839290610bc657fe5b90600052602060002090600502016004018190555080600c83604051610bec919061506e565b908152604051908190036020019020600401555b5050565b610c0c6145c4565b601582604051610c1c919061506e565b908152602001604051809103902060405180610100016040529081600082015481526020016001820154815260200160028201548152602001600382015481526020016004820154815260200160058201548152602001600682015481526020016007820154815250509050919050565b610c956145c4565b60405180610100016040528088815260200187815260200184815260200183815260200186815260200185815260200186888a01018152602001838587898b8d0101010101815250905080601589604051610cf0919061506e565b9081526040805160209281900383019020835181559183015160018301558201516002820155606082015160038201556080820151600482015560a0820151600582015560c0820151600682015560e0909101516007909101555050505050505050565b6060601a60106000848152602001908152602001600020600301604051610d7b91906150cd565b9081526040805160209281900383018120805460026001821615610100026000190190911604601f81018590048502830185019093528282529092909190830182828015610e0a5780601f10610ddf57610100808354040283529160200191610e0a565b820191906000526020600020905b815481529060010190602001808311610ded57829003601f168201915b5050506000858152601060209081526040918290206003018054835160026001831615610100026000190190921691909104601f810184900484028201840190945283815295965060609594509250830182828015610eaa5780601f10610e7f57610100808354040283529160200191610eaa565b820191906000526020600020905b815481529060010190602001808311610e8d57829003601f168201915b505050600086815260106020526040808220600481015491519596509194909350601a9250610edc91600301906150cd565b9081526020016040518091039020600101540390506060610efc856112fa565b9050610f49856040518060400160405280600f81526020016e141050d2d051d14810d49150551151608a1b815250836040518060600160405280603e815260200161591d603e91396118e7565b42336001600160a01b03166000805160206158b4833981519152604051610f6f906155a4565b60405180910390a3610fc3856040518060400160405280601081526020016f4f555420464f52205348495050494e4760801b815250836040518060600160405280602281526020016158fb602291396118e7565b42336001600160a01b03166000805160206158b4833981519152604051610fe99061572c565b60405180910390a3610ffb8484612905565b156110a7576000858152601060209081526040918290206003018054835160026001831615610100026000190190921691909104601f81018490048402820184019094528381526110a793339391929183018282801561109c5780601f106110715761010080835404028352916020019161109c565b820191906000526020600020905b81548152906001019060200180831161107f57829003601f168201915b5050505050846136e7565b5050505050565b6110b6614609565b506040805160a08101825233808252602080830187815283850187905260608401869052600060808501819052928352600a825293822080546001808201835591845292829020845160059094020180546001600160a01b0319166001600160a01b03909416939093178355935180519394859461113b939185019290910190614641565b5060408201518051611157916002840191602090910190614641565b5060608201518051611173916003840191602090910190614641565b5060808201518160040155505080600c85604051611191919061506e565b90815260405160209181900382019020825181546001600160a01b0319166001600160a01b0390911617815582820151805191926111d792600185019290910190614641565b50604082015180516111f3916002840191602090910190614641565b506060820151805161120f916003840191602090910190614641565b50608091909101516004909101556006805460018101825560009190915281517ff652222313e28459528d920b65115c16c04f3efc82aaedc97be59f3f377c0d3f600590920291820180546001600160a01b0319166001600160a01b03909216919091178155602080840151805185946112af937ff652222313e28459528d920b65115c16c04f3efc82aaedc97be59f3f377c0d40909101920190614641565b50604082015180516112cb916002840191602090910190614641565b50606082015180516112e7916003840191602090910190614641565b5060808201518160040155505050505050565b60608060035460076001600780549050038154811061131557fe5b906000526020600020015410158061134b575060045460088054600019810190811061133d57fe5b906000526020600020015410155b1561139f576040518060400160405280600881526020016710509393d493505360c21b815250905042836000805160206159c483398151915283604051611392919061546e565b60405180910390a36113e8565b604051806040016040528060068152602001651393d493505360d21b815250905042836000805160206159c4833981519152836040516113df919061546e565b60405180910390a35b92915050565b606060116000838152602001908152602001600020805480602002602001604051908101604052809291908181526020016000905b82821015610ace5760008481526020908190206040805160a0810182526005860290920180546001600160a01b03168352600180820180548451600261010094831615949094026000190190911692909204601f8101879004870283018701909452838252939491938583019391929091908301828280156114e65780601f106114bb576101008083540402835291602001916114e6565b820191906000526020600020905b8154815290600101906020018083116114c957829003601f168201915b5050509183525050600282810180546040805160206001841615610100026000190190931694909404601f810183900483028501830190915280845293810193908301828280156115785780601f1061154d57610100808354040283529160200191611578565b820191906000526020600020905b81548152906001019060200180831161155b57829003601f168201915b505050918352505060038201805460408051602060026001851615610100026000190190941693909304601f810184900484028201840190925281815293820193929183018282801561160c5780601f106115e15761010080835404028352916020019161160c565b820191906000526020600020905b8154815290600101906020018083116115ef57829003601f168201915b5050505050815260200160048201548152505081526020019060010190611423565b60008181526018602090815260409182902080548351601f60026000196101006001861615020190931692909204918201849004840281018401909452808452606093928301828280156116c35780601f10611698576101008083540402835291602001916116c3565b820191906000526020600020905b8154815290600101906020018083116116a657829003601f168201915b50505050509050919050565b6116d93382611bf1565b50565b6116e4614609565b600c826040516116f4919061506e565b908152604080516020928190038301812060a08201835280546001600160a01b03168252600180820180548551600261010094831615949094026000190190911692909204601f8101879004870283018701909552848252929491938286019391928301828280156117a75780601f1061177c576101008083540402835291602001916117a7565b820191906000526020600020905b81548152906001019060200180831161178a57829003601f168201915b5050509183525050600282810180546040805160206001841615610100026000190190931694909404601f810183900483028501830190915280845293810193908301828280156118395780601f1061180e57610100808354040283529160200191611839565b820191906000526020600020905b81548152906001019060200180831161181c57829003601f168201915b505050918352505060038201805460408051602060026001851615610100026000190190941693909304601f81018490048402820184019092528181529382019392918301828280156118cd5780601f106118a2576101008083540402835291602001916118cd565b820191906000526020600020905b8154815290600101906020018083116118b057829003601f168201915b505050505081526020016004820154815250509050919050565b6118ef614609565b506040805160a08101825233815260208082018681528284018590526060830186905242608084015260008881526011835293842080546001808201835591865294839020845160059096020180546001600160a01b0319166001600160a01b0390961695909517855590518051939485949093611971938501920190614641565b506040820151805161198d916002840191602090910190614641565b50606082015180516119a9916003840191602090910190614641565b5060808201518160040155505042336001600160a01b03166000805160206158b4833981519152866040516119de919061546e565b60405180910390a35050505050565b6119f56146cd565b600082815260106020908152604091829020825160c081018452815481526001808301546001600160a01b03908116838601526002808501549091168387015260038401805487516101009482161594909402600019011691909104601f810186900486028301860190965285825291949293606086019391929190830182828015611ac25780601f10611a9757610100808354040283529160200191611ac2565b820191906000526020600020905b815481529060010190602001808311611aa557829003601f168201915b50505050508152602001600482015481526020016005820154815250509050919050565b6000611af133614274565b905090565b611afe614715565b600180546001600160a01b039081166000908152601b60209081526040808320878516845282529182902082516080810184528154909416845280850180548451600261010098831615989098026000190190911696909604601f810184900484028701840190945283865293949093858301939192909190830182828015611bc85780601f10611b9d57610100808354040283529160200191611bc8565b820191906000526020600020905b815481529060010190602001808311611bab57829003601f168201915b50505091835250506002820154602082015260039091015460ff16151560409091015292915050565b611bf9614715565b50604080516080810182526001600160a01b0384811680835260208084018681526000858701819052600160608701819052805486168252601b845287822094825293835295909520845181546001600160a01b03191694169390931783559351805193948594611c709385019290910190614641565b50604082015160028201556060909101516003909101805460ff1916911515919091179055505050565b336000908152601960205260408120805460609290611cb557fe5b60009182526020918290206002918202018054604080516001831615610100026000190190921693909304601f810185900485028201850190935282815292909190830182828015611d485780601f10611d1d57610100808354040283529160200191611d48565b820191906000526020600020905b815481529060010190602001808311611d2b57829003601f168201915b5050506000858152601060209081526040918290206003018054835160026001831615610100026000190190921691909104601f810184900484028201840190945283815295965060609594509250830182828015611de85780601f10611dbd57610100808354040283529160200191611de8565b820191906000526020600020905b815481529060010190602001808311611dcb57829003601f168201915b5050505050905060006010600085815260200190815260200160002060040154601a83604051611e18919061506e565b9081526020016040518091039020600101540190506060611e38856112fa565b9050611e7f856040518060400160405280600981526020016811115312559154915160ba1b8152508360405180606001604052806028815260200161595b602891396118e7565b42336001600160a01b03166000805160206158b4833981519152604051611ea59061554e565b60405180910390a36000858152601660209081526040808320546010909252909120600101546002820490910390611ee7906001600160a01b03163383613a5f565b50611ef28585612905565b15611fa3576000868152601060209081526040918290206003018054835160026001831615610100026000190190921691909104601f8101849004840282018401909452838152611f9e933393919291830182828015611f935780601f10611f6857610100808354040283529160200191611f93565b820191906000526020600020905b815481529060010190602001808311611f7657829003601f168201915b5050505050856136e7565b61204a565b6000868152601060209081526040918290206003018054835160026001831615610100026000190190921691909104601f810184900484028201840190945283815261204a93339391929183018282801561203f5780601f106120145761010080835404028352916020019161203f565b820191906000526020600020905b81548152906001019060200180831161202257829003601f168201915b505050505085612847565b505050505050565b61205a614748565b600e8260405161206a919061506e565b908152604080516020928190038301812060e08201835280546001600160a01b03168252600180820180548551600261010094831615949094026000190190911692909204601f81018790048702830187019095528482529294919382860193919283018282801561211d5780601f106120f25761010080835404028352916020019161211d565b820191906000526020600020905b81548152906001019060200180831161210057829003601f168201915b5050509183525050600282810180546040805160206001841615610100026000190190931694909404601f810183900483028501830190915280845293810193908301828280156121af5780601f10612184576101008083540402835291602001916121af565b820191906000526020600020905b81548152906001019060200180831161219257829003601f168201915b5050509183525050600382015460208083019190915260048301805460408051601f6002600019610100600187161502019094169390930492830185900485028101850182528281529401939283018282801561224d5780601f106122225761010080835404028352916020019161224d565b820191906000526020600020905b81548152906001019060200180831161223057829003601f168201915b50505050508152602001600582015481526020016006820154815250509050919050565b606061227c826112fa565b90506122ca826040518060400160405280601081526020016f5348495050494e47205041434b41474560801b815250836040518060600160405280602781526020016158d4602791396118e7565b42336001600160a01b03166000805160206158b48339815191526040516122f090615481565b60405180910390a35050565b61230461478e565b601a82604051612314919061506e565b9081526040805160209281900383018120805460026001821615610100026000190190911604601f81018590049094028201606090810184529282018481529193909284929184918401828280156123ad5780601f10612382576101008083540402835291602001916123ad565b820191906000526020600020905b81548152906001019060200180831161239057829003601f168201915b505050505081526020016001820154815250509050919050565b600280546101450190556123d96146cd565b506040805160c08101825260025481523360208201526001600160a01b0385168183015260608101849052608081018390524260a08201529051600e9061242190859061506e565b908152604080516020928190038301902060069081015460808501518551600090815260168652848120919092029055338152600f8452828120805460018082018355918352918590208651929093029092019081558484015191810180546001600160a01b03199081166001600160a01b0394851617909155928501516002820180549094169216919091179091556060830151805184936124cb926003850192910190614641565b506080820151600482015560a090910151600590910155805160009081526010602090815260409182902083518155818401516001820180546001600160a01b03199081166001600160a01b0393841617909155938501516002830180549095169116179092556060830151805184939261254d926003850192910190614641565b506080820151816004015560a0820151816005015590505042336001600160a01b03166000805160206158b483398151915260405161258b90615703565b60405180910390a350505050565b600180546001600160a01b0319166001600160a01b0392909216919091179055565b60008082116125e55760405162461bcd60e51b81526004016125dc906154ac565b60405180910390fd5b6001546001600160a01b039081166000908152601b602090815260408083208488168085529252909120549091161415612698576001546001600160a01b039081166000908152601b60209081526040808320938716808452939091529081902060020180548501908190559051909142917f11cccc9b3fbc8fd163c4dbf6c7afdce1433c5cf351f29596a006f3720f648c2090612686908890889061563d565b60405180910390a360019150506113e8565b50600092915050565b600083815260126020908152604080832080546001818101835591855283852001869055600780548083019091557fa66cc928b5edb82af9bd49922954155ab7b0942694bea4ce44661d9a8736c6880186905586845260138352908320805480830182559084529183209091018390556008805491820181559091527ff3f7a9fe364faab93b216da50a3214154f22a0a2b415b23a84c8169e8b636ee30181905542837fc24fbc7c79d304f65a1b1b66e3853d937b8c0d27f0bf19d25f0fed26de016a8761277f61277186614495565b61277a86614495565b614576565b60405161278c91906155cd565b60405180910390a3600354821015806127a757506004548110155b156127d65742836000805160206159c48339815191526040516127c990615763565b60405180910390a36127fc565b42836000805160206159c48339815191526040516127f39061552e565b60405180910390a35b505050565b6001546001600160a01b039081166000908152601b6020908152604080832093851683529290529081206003015460ff161561283f57506001610ad5565b506000610ad5565b61284f61478e565b5060408051808201825283815260208082018490526001600160a01b03861660009081526019825292832080546001810182559084529281902082518051939485946002909102909201926128a992849290910190614641565b5060208201518160010155505080601a846040516128c7919061506e565b908152602001604051809103902060008201518160000190805190602001906128f1929190614641565b506020820151816001015590505050505050565b600081604051602001612918919061506e565b604051602081830303815290604052805190602001208360405160200161293f919061506e565b6040516020818303038152906040528051906020012014905092915050565b6001546001600160a01b031690565b6001600160a01b03166000908152600960205260409020805460ff19166001179055565b612999614748565b506040805160e0810182523380825260208083018a81528385018a9052606084018990526080840188905260a0840187905260c084018690526000928352600d825293822080546001808201835591845292829020845160079094020180546001600160a01b0319166001600160a01b039094169390931783559351805193948594612a2c939185019290910190614641565b5060408201518051612a48916002840191602090910190614641565b506060820151600382015560808201518051612a6e916004840191602090910190614641565b5060a0820151816005015560c08201518160060155505080600e88604051612a96919061506e565b90815260405160209181900382019020825181546001600160a01b0319166001600160a01b039091161781558282015180519192612adc92600185019290910190614641565b5060408201518051612af8916002840191602090910190614641565b506060820151600382015560808201518051612b1e916004840191602090910190614641565b5060a082015160058281019190915560c090920151600690910155805460018101825560009190915281517f036b6384b5eca791c62761152d0c79bb0604c104a5fb6f4eb0703f3154bb3db0600790920291820180546001600160a01b0319166001600160a01b0390921691909117815560208084015180518594612bc9937f036b6384b5eca791c62761152d0c79bb0604c104a5fb6f4eb0703f3154bb3db1909101920190614641565b5060408201518051612be5916002840191602090910190614641565b506060820151600382015560808201518051612c0b916004840191602090910190614641565b5060a0820151816005015560c082015181600601555050612c2d338885612847565b50505050505050565b612c3e6145c4565b601482604051610c1c919061506e565b60006113e83383614165565b6001600160a01b0381166000908152600f60209081526040808320805482518185028101850190935280835260609492939192909184015b82821015610ace5760008481526020908190206040805160c08101825260068602909201805483526001808201546001600160a01b03908116858701526002808401549091168585015260038301805485516101009482161594909402600019011691909104601f81018790048702830187019094528382529394919360608601939192909190830182828015612d6a5780601f10612d3f57610100808354040283529160200191612d6a565b820191906000526020600020905b815481529060010190602001808311612d4d57829003601f168201915b505050505081526020016004820154815260200160058201548152505081526020019060010190612c92565b612d9e614715565b600180546001600160a01b039081166000908152601b6020908152604080832033845282529182902082516080810184528154909416845280850180548451600261010098831615989098026000190190911696909604601f810184900484028701840190945283865293949093858301939192909190830182828015612e665780601f10612e3b57610100808354040283529160200191612e66565b820191906000526020600020905b815481529060010190602001808311612e4957829003601f168201915b50505091835250506002820154602082015260039091015460ff161515604090910152905090565b6060600b82604051612ea0919061506e565b9081526020016040518091039020805480602002602001604051908101604052809291908181526020016000905b82821015610ace5760008481526020908190206040805160058602909201805460026001821615610100026000190190911604601f8101859004909402830160c090810190925260a0830184815292939092849290918491840182828015612f775780601f10612f4c57610100808354040283529160200191612f77565b820191906000526020600020905b815481529060010190602001808311612f5a57829003601f168201915b50505050508152602001600182018054600181600116156101000203166002900480601f0160208091040260200160405190810160405280929190818152602001828054600181600116156101000203166002900480156130195780601f10612fee57610100808354040283529160200191613019565b820191906000526020600020905b815481529060010190602001808311612ffc57829003601f168201915b505050918352505060028281015460208084019190915260038401805460408051601f600019610100600186161502019093169590950491820184900484028501840181528185529094019390918301828280156130b85780601f1061308d576101008083540402835291602001916130b8565b820191906000526020600020905b81548152906001019060200180831161309b57829003601f168201915b505050918352505060048201805460408051602060026001851615610100026000190190941693909304601f810184900484028201840190925281815293820193929183018282801561314c5780601f106131215761010080835404028352916020019161314c565b820191906000526020600020905b81548152906001019060200180831161312f57829003601f168201915b50505050508152505081526020019060010190612ece565b606061316f826112fa565b90506131bf8260405180604001604052806012815260200171524541445920464f522044454c495645525960701b81525083604051806080016040528060418152602001615983604191396118e7565b42336001600160a01b03166000805160206158b48339815191526040516122f0906156ac565b60606005805480602002602001604051908101604052809291908181526020016000905b828210156134285760008481526020908190206040805160e0810182526007860290920180546001600160a01b03168352600180820180548451600261010094831615949094026000190190911692909204601f8101879004870283018701909452838252939491938583019391929091908301828280156132cc5780601f106132a1576101008083540402835291602001916132cc565b820191906000526020600020905b8154815290600101906020018083116132af57829003601f168201915b5050509183525050600282810180546040805160206001841615610100026000190190931694909404601f8101839004830285018301909152808452938101939083018282801561335e5780601f106133335761010080835404028352916020019161335e565b820191906000526020600020905b81548152906001019060200180831161334157829003601f168201915b5050509183525050600382015460208083019190915260048301805460408051601f600260001961010060018716150201909416939093049283018590048502810185018252828152940193928301828280156133fc5780601f106133d1576101008083540402835291602001916133fc565b820191906000526020600020905b8154815290600101906020018083116133df57829003601f168201915b505050505081526020016005820154815260200160068201548152505081526020019060010190613209565b50505050905090565b600061343e338484613a5f565b9392505050565b6001600160a01b0381166000908152601960209081526040808320805482518185028101850190935280835260609492939192909184015b82821015610ace5760008481526020908190206040805160028681029093018054600181161561010002600019011693909304601f8101859004909402810160609081018352918101848152909384928491908401828280156135215780601f106134f657610100808354040283529160200191613521565b820191906000526020600020905b81548152906001019060200180831161350457829003601f168201915b505050505081526020016001820154815250508152602001906001019061347d565b61354b6147a8565b506040805180820182528381526020808201849052600086815260178252928320805460018101825590845292819020825180519394859460029091029092019261359b92849290910190614641565b506020828101518051612c2d9260018501920190614641565b336000908152600f60209081526040808320805482518185028101850190935280835260609492939192909184015b828210156134285760008481526020908190206040805160c08101825260068602909201805483526001808201546001600160a01b03908116858701526002808401549091168585015260038301805485516101009482161594909402600019011691909104601f810187900487028301870190945283825293949193606086019391929091908301828280156136bb5780601f10613690576101008083540402835291602001916136bb565b820191906000526020600020905b81548152906001019060200180831161369e57829003601f168201915b5050505050815260200160048201548152602001600582015481525050815260200190600101906135e3565b6001600160a01b038316600090815260196020526040812080546137769285929161370e57fe5b60009182526020918290206002918202018054604080516001831615610100026000190190921693909304601f810185900485028201850190935282815292909190830182828015610b9d5780601f10610b7257610100808354040283529160200191610b9d565b156127fc576001600160a01b0383166000908152601960205260408120805483929061379e57fe5b90600052602060002090600202016001018190555080601a836040516137c4919061506e565b90815260405190819003602001902060010155505050565b606060176000838152602001908152602001600020805480602002602001604051908101604052809291908181526020016000905b82821015610ace5760008481526020908190206040805160028681029093018054600181161561010002600019011693909304601f8101859004909402810160609081018352918101848152909384928491908401828280156138b55780601f1061388a576101008083540402835291602001916138b5565b820191906000526020600020905b81548152906001019060200180831161389857829003601f168201915b50505050508152602001600182018054600181600116156101000203166002900480601f0160208091040260200160405190810160405280929190818152602001828054600181600116156101000203166002900480156139575780601f1061392c57610100808354040283529160200191613957565b820191906000526020600020905b81548152906001019060200180831161393a57829003601f168201915b50505050508152505081526020019060010190613811565b600081815260126020908152604080832060138352928190208354825181850281018501909352808352606094859490939184918301828280156139d257602002820191906000526020600020905b8154815260200190600101908083116139be575b5050505050915080805480602002602001604051908101604052809291908181526020018280548015613a2457602002820191906000526020600020905b815481526020019060010190808311613a10575b5050505050905091509150915091565b60006113e833836125bb565b600082815260186020908152604090912082516127fc92840190614641565b6001546001600160a01b039081166000908152601b60209081526040808320938716835292905290812060020154821115613aac5760405162461bcd60e51b81526004016125dc906154e3565b6001546001600160a01b039081166000908152601b60209081526040808320848916808552925290912054909116148015613b165750600180546001600160a01b039081166000908152601b602090815260408083209388168352929052206003015460ff161515145b15613bcc57600180546001600160a01b039081166000908152601b602081815260408084208a8616808652908352818520600290810180548c8916808952858920840154918d900392839055995490981687529484528286209786529690925292839020938701939094018390559051909242917f11cccc9b3fbc8fd163c4dbf6c7afdce1433c5cf351f29596a006f3720f648c2090613bb99089908990615674565b60405180910390a360019250505061343e565b5060009392505050565b60606006805480602002602001604051908101604052809291908181526020016000905b828210156134285760008481526020908190206040805160a0810182526005860290920180546001600160a01b03168352600180820180548451600261010094831615949094026000190190911692909204601f810187900487028301870190945283825293949193858301939192909190830182828015613cbd5780601f10613c9257610100808354040283529160200191613cbd565b820191906000526020600020905b815481529060010190602001808311613ca057829003601f168201915b5050509183525050600282810180546040805160206001841615610100026000190190931694909404601f81018390048302850183019091528084529381019390830182828015613d4f5780601f10613d2457610100808354040283529160200191613d4f565b820191906000526020600020905b815481529060010190602001808311613d3257829003601f168201915b505050918352505060038201805460408051602060026001851615610100026000190190941693909304601f8101849004840282018401909252818152938201939291830182828015613de35780601f10613db857610100808354040283529160200191613de3565b820191906000526020600020905b815481529060010190602001808311613dc657829003601f168201915b5050505050815260200160048201548152505081526020019060010190613bfa565b60009081526016602052604090205490565b613e9e816040518060400160405280601081526020016f149154555154d5081054141493d5915160821b815250604051806040016040528060068152602001651393d493505360d21b8152506040518060400160405280602081526020017f594f55522052455155455354204953204245494e472050524f4345535345442e8152506118e7565b42336001600160a01b03166000805160206158b4833981519152604051613ec49061557a565b60405180910390a36000818152601660209081526040808320546010909252909120600101546002909104906127fc906001600160a01b03163383613a5f565b6001600160a01b0381166000908152600a60209081526040808320805482518185028101850190935280835260609492939192909184015b82821015610ace5760008481526020908190206040805160a0810182526005860290920180546001600160a01b03168352600180820180548451600261010094831615949094026000190190911692909204601f810187900487028301870190945283825293949193858301939192909190830182828015613fff5780601f10613fd457610100808354040283529160200191613fff565b820191906000526020600020905b815481529060010190602001808311613fe257829003601f168201915b5050509183525050600282810180546040805160206001841615610100026000190190931694909404601f810183900483028501830190915280845293810193908301828280156140915780601f1061406657610100808354040283529160200191614091565b820191906000526020600020905b81548152906001019060200180831161407457829003601f168201915b505050918352505060038201805460408051602060026001851615610100026000190190941693909304601f81018490048402820184019092528181529382019392918301828280156141255780601f106140fa57610100808354040283529160200191614125565b820191906000526020600020905b81548152906001019060200180831161410857829003601f168201915b5050505050815260200160048201548152505081526020019060010190613f3c565b6001600160a01b031660009081526009602052604090205460ff1690565b6001546001600160a01b039081166000908152601b6020908152604080832093861683529290529081206002015482106141b15760405162461bcd60e51b81526004016125dc906156d6565b6001546001600160a01b039081166000908152601b602090815260408083208488168085529252909120549091161415612698576001546001600160a01b039081166000908152601b6020908152604080832093871680845293909152908190206002018054859003908190559051909142917f11cccc9b3fbc8fd163c4dbf6c7afdce1433c5cf351f29596a006f3720f648c20906126869088908890615603565b6001600160a01b03166000908152600960205260409020805460ff19169055565b6001546001600160a01b039081166000908152601b6020908152604080832084861680855292528220549192919091161415610ad557506001546001600160a01b039081166000908152601b6020908152604080832093851683529290522060020154610ad5565b6142e46145c4565b60405180610100016040528089815260200188815260200185815260200184815260200187815260200186815260200187898b010181526020018486888a8c8e010101010181525090508060148a60405161433f919061506e565b9081526040805160209281900383019020835181559183015160018301558201516002820155606082015160038201556080820151600482015560a0820151600582015560c0820151600682015560e0909101516007909101556143a38983610ada565b505050505050505050565b6143b66147c2565b6040518060a00160405280878152602001868152602001838152602001858152602001848152509050600b876040516143ef919061506e565b90815260405160209181900382019020805460018101825560009182529082902083518051859460059094029092019261442e92849290910190614641565b5060208281015180516144479260018501920190614641565b50604082015160028201556060820151805161446d916003840191602090910190614641565b5060808201518051614489916004840191602090910190614641565b50505050505050505050565b6060816144ba57506040805180820190915260018152600360fc1b6020820152610ad5565b8160005b81156144d257600101600a820491506144be565b6060816001600160401b03811180156144ea57600080fd5b506040519080825280601f01601f191660200182016040528015614515576020820181803683370190505b509050815b851561456d57600019016000600a8704600a028703603001905060008160f81b90508084848151811061454957fe5b60200101906001600160f81b031916908160001a905350600a88049750505061451a565b50949350505050565b6060806040518060400160405280600381526020016201016160ed1b81525090508381846040516020016145ac9392919061508a565b60405160208183030381529060405291505092915050565b60405180610100016040528060008152602001600081526020016000815260200160008152602001600081526020016000815260200160008152602001600081525090565b6040518060a0016040528060006001600160a01b03168152602001606081526020016060815260200160608152602001600081525090565b828054600181600116156101000203166002900490600052602060002090601f01602090048101928261467757600085556146bd565b82601f1061469057805160ff19168380011785556146bd565b828001600101855582156146bd579182015b828111156146bd5782518255916020019190600101906146a2565b506146c99291506147f1565b5090565b6040518060c001604052806000815260200160006001600160a01b0316815260200160006001600160a01b031681526020016060815260200160008152602001600081525090565b604051806080016040528060006001600160a01b0316815260200160608152602001600081526020016000151581525090565b6040518060e0016040528060006001600160a01b031681526020016060815260200160608152602001600081526020016060815260200160008152602001600081525090565b604051806040016040528060608152602001600081525090565b604051806040016040528060608152602001606081525090565b6040518060a0016040528060608152602001606081526020016000815260200160608152602001606081525090565b5b808211156146c957600081556001016147f2565b80356001600160a01b0381168114610ad557600080fd5b600082601f83011261482d578081fd5b81356001600160401b038082111561484157fe5b604051601f8301601f19168101602001828111828210171561485f57fe5b60405282815292508284830160200186101561487a57600080fd5b8260208601602083013760006020848301015250505092915050565b6000602082840312156148a7578081fd5b61343e82614806565b6000806000606084860312156148c4578182fd5b6148cd84614806565b92506148db60208501614806565b9150604084013590509250925092565b600080604083850312156148fd578182fd5b61490683614806565b915060208301356001600160401b03811115614920578182fd5b61492c8582860161481d565b9150509250929050565b60008060006060848603121561494a578283fd5b61495384614806565b925060208401356001600160401b0381111561496d578283fd5b6149798682870161481d565b925050604084013590509250925092565b6000806040838503121561499c578182fd5b6149a583614806565b946020939093013593505050565b6000602082840312156149c4578081fd5b81356001600160401b038111156149d9578182fd5b6149e58482850161481d565b949350505050565b600080604083850312156149ff578182fd5b82356001600160401b0380821115614a15578384fd5b614a218683870161481d565b93506020850135915080821115614a36578283fd5b5061492c8582860161481d565b600080600060608486031215614a57578283fd5b83356001600160401b0380821115614a6d578485fd5b614a798783880161481d565b94506020860135915080821115614a8e578384fd5b614a9a8783880161481d565b93506040860135915080821115614aaf578283fd5b50614abc8682870161481d565b9150509250925092565b60008060008060008060c08789031215614ade578182fd5b86356001600160401b0380821115614af4578384fd5b614b008a838b0161481d565b97506020890135915080821115614b15578384fd5b614b218a838b0161481d565b96506040890135915080821115614b36578384fd5b614b428a838b0161481d565b95506060890135915080821115614b57578384fd5b614b638a838b0161481d565b94506080890135915080821115614b78578384fd5b50614b8589828a0161481d565b92505060a087013590509295509295509295565b60008060008060008060c08789031215614bb1578182fd5b86356001600160401b0380821115614bc7578384fd5b614bd38a838b0161481d565b97506020890135915080821115614be8578384fd5b614bf48a838b0161481d565b9650604089013595506060890135915080821115614c10578384fd5b50614c1d89828a0161481d565b9350506080870135915060a087013590509295509295509295565b60008060408385031215614c4a578182fd5b82356001600160401b03811115614c5f578283fd5b614c6b8582860161481d565b95602094909401359450505050565b600080600080600080600060e0888a031215614c94578081fd5b87356001600160401b03811115614ca9578182fd5b614cb58a828b0161481d565b9a60208a01359a5060408a013599606081013599506080810135985060a0810135975060c0013595509350505050565b600080600080600080600080610100898b031215614d01578182fd5b88356001600160401b03811115614d16578283fd5b614d228b828c0161481d565b9b60208b01359b5060408b01359a60608101359a506080810135995060a0810135985060c0810135975060e0013595509350505050565b600060208284031215614d6a578081fd5b5035919050565b60008060408385031215614d83578182fd5b8235915060208301356001600160401b03811115614920578182fd5b600080600060608486031215614db3578081fd5b8335925060208401356001600160401b0380821115614a8e578283fd5b60008060008060808587031215614de5578182fd5b8435935060208501356001600160401b0380821115614e02578384fd5b614e0e8883890161481d565b94506040870135915080821115614e23578384fd5b614e2f8883890161481d565b93506060870135915080821115614e44578283fd5b50614e518782880161481d565b91505092959194509250565b600080600060608486031215614e71578081fd5b505081359360208301359350604090920135919050565b6000815180845260208085019450808401835b83811015614eb757815187529582019590820190600101614e9b565b509495945050505050565b60008151808452614eda816020860160208601615883565b601f01601f19169290920160200192915050565b6000815160408452614f036040850182614ec2565b602093840151949093019390935250919050565b600060018060a01b038251168352602082015160a06020850152614f3e60a0850182614ec2565b905060408301518482036040860152614f578282614ec2565b91505060608301518482036060860152614f718282614ec2565b915050608083015160808501528091505092915050565b600060018060a01b038251168352602082015160e06020850152614faf60e0850182614ec2565b905060408301518482036040860152614fc88282614ec2565b9150506060830151606085015260808301518482036080860152614fec8282614ec2565b91505060a083015160a085015260c083015160c08501528091505092915050565b600081518352602082015160018060a01b0380821660208601528060408501511660408601525050606082015160c0606085015261504e60c0850182614ec2565b90506080830151608085015260a083015160a08501528091505092915050565b60008251615080818460208701615883565b9190910192915050565b6000845161509c818460208901615883565b8451908301906150b0818360208901615883565b84519101906150c3818360208801615883565b0195945050505050565b60008083546001808216600081146150ec576001811461510357615132565b60ff198316865260028304607f1686019350615132565b600283048786526020808720875b8381101561512a5781548a820152908501908201615111565b505050860193505b509195945050505050565b6001600160a01b0391909116815260200190565b6000602080830181845280855180835260408601915060408482028701019250838701855b828110156151a457603f19888603018452615192858351614eee565b94509285019290850190600101615176565b5092979650505050505050565b60208082528251828201819052600091906040908185019080840286018301878501865b8381101561522557888303603f19018552815180518785526151f988860182614ec2565b91890151858303868b01529190506152118183614ec2565b9689019694505050908601906001016151d5565b509098975050505050505050565b6000602080830181845280855180835260408601915060408482028701019250838701855b828110156151a457603f19888603018452615274858351614f17565b94509285019290850190600101615258565b6000602080830181845280855180835260408601915060408482028701019250838701855b828110156151a457603f198886030184526152c7858351614f88565b945092850192908501906001016152ab565b6000602080830181845280855180835260408601915060408482028701019250838701855b828110156151a457603f1988860301845261531a858351614f17565b945092850192908501906001016152fe565b6000602080830181845280855180835260408601915060408482028701019250838701855b828110156151a457603f1988860301845261536d85835161500d565b94509285019290850190600101615351565b60208082528251828201819052600091906040908185019080840286018301878501865b8381101561522557603f19898403018552815160a081518186526153c982870182614ec2565b915050888201518582038a8701526153e18282614ec2565b9150508782015188860152606080830151868303828801526154038382614ec2565b92505050608080830151925085820381870152506154218183614ec2565b9689019694505050908601906001016153a3565b6000604082526154486040830185614e88565b828103602084015261545a8185614e88565b95945050505050565b901515815260200190565b60006020825261343e6020830184614ec2565b60208082526011908201527012538811d313d09053081514905394d255607a1b604082015260600190565b6020808252601d908201527f456e74657220412056616c6964204465706f73697420416d6f756e7421000000604082015260600190565b6020808252602b908201527f4e6f7420456e6f7567682042616c616e636520746f205472616e73666572205460408201526a68697320416d6f756e742160a81b606082015260800190565b6020808252600690820152651393d493505360d21b604082015260600190565b60208082526012908201527114d21254135153950811115312559154915160721b604082015260600190565b60208082526010908201526f149154555154d5081054141493d5915160821b604082015260600190565b6020808252600f908201526e141050d2d051d14810d49150551151608a1b604082015260600190565b600060408252600c60408301526b53656e736f7273204461746160a01b60608301526080602083015261343e6080830184614ec2565b6060808252600a908201526915d2551211149055d05360b21b60808201526001600160a01b03929092166020830152604082015260a00190565b60608082526007908201526611115413d4d25560ca1b60808201526001600160a01b03929092166020830152604082015260a00190565b6060808252600890820152672a2920a729a322a960c11b60808201526001600160a01b03929092166020830152604082015260a00190565b60208082526010908201526f1253881313d0d053081514905394d25560821b604082015260600190565b6020808252601390820152724e6f7420456e6f7567682042616c616e63652160681b604082015260600190565b6020808252600f908201526e149154555154d50810d49150551151608a1b604082015260600190565b6020808252601b908201527f5041434b414745204953204f555420464f52205348495050494e470000000000604082015260600190565b60208082526008908201526710509393d493505360c21b604082015260600190565b602080825282516001600160a01b031682820152820151608060408301526000906157b360a0840182614ec2565b9050604084015160608401526060840151151560808401528091505092915050565b600061010082019050825182526020830151602083015260408301516040830152606083015160608301526080830151608083015260a083015160a083015260c083015160c083015260e083015160e083015292915050565b60006020825261343e6020830184614eee565b60006020825261343e6020830184614f88565b60006020825261343e6020830184614f17565b60006020825261343e602083018461500d565b90815260200190565b60005b8381101561589e578181015183820152602001615886565b838111156158ad576000848401525b5050505056fe530abb16f843103fba748c032a23827a5140b72d210f41d8bbbc183708de524020594f555220534849504d454e542049532043555252454e544c5920494e205452414e5349542e20594f555220534849504d454e54204953204f555420464f52205348495050494e475041434b414745204953204352454154454420414e4420534849504d454e5420495320524541445920544f204c4541564520464f522053485050494e472e594f555220534849504d454e542049532044454c495645524544205355434345535346554c4c592e594f555220534849504d454e542049532053455420464f522044454c495645525920414e4420495320455850454354454420544f2041525249564520534f4f4e2ea5c6f15554bc8ce0c037ba8151c192afe39c97efe0dee46b4b19f486e3a6d3bda26469706673582212201e728ca34c0d57c911c1e9b4f5a6c4b63f77bdbfe67c390e5175d32258e609d264736f6c63430007040033",
  "immutableReferences": {},
  "source": "// \"SPDX-License-Identifier: UNLICENSED\"\npragma solidity >=0.6.2;\npragma experimental ABIEncoderV2;  \n\ncontract NewDemoTest {\n\n// CONTRACT CONTENT GOES HERE\n    \n    // UTILS\n    \n    function strComp(string memory x , string memory y ) public pure returns (bool){\n        \n        return (keccak256(abi.encodePacked((x))) == keccak256(abi.encodePacked((y))));\n        \n    }\n    \n    function toString(uint _i) internal pure returns (string memory _uintAsString) {\n        \n        if (_i == 0) {\n            return \"0\";\n        }\n        uint j = _i;\n        uint len;\n        while (j != 0) {\n            len++;\n            j /= 10;\n        }\n        bytes memory bstr = new bytes(len);\n        uint k = len;\n        while (_i != 0) {\n            k = k-1;\n            uint8 temp = (48 + uint8(_i - _i / 10 * 10));\n            bytes1 b1 = bytes1(temp);\n            bstr[k] = b1;\n            _i /= 10;\n        }\n        return string(bstr);\n    }\n    \n    function concat(string memory a, string memory b) internal pure returns (string memory) {\n    string memory c = ' , ';\n    return string(abi.encodePacked( a, c, b));\n\n    }\n\n    // END OF UTILS\n\n    \n    \n    address     admin;\n    address     bank;\n    uint        trackNoCount = 115912;\n    uint        tempThreshold = 40;\n    uint        humidityThreshold = 50;\n    Material[]  materialArr;\n    Product[]   productArr;\n    uint[]      tempArr;\n    uint[]      humidArr;\n    enum        Role                        {MANUFACTURER, SUPPLIER, DISTRIBUTOR, DRUG_AUTHORITY , BANK}\n    mapping (address => bool)               participants;\n    mapping (address => Product[])          products;    // manufacturer and product\n    mapping (string => Specs[])             productSpecs; // productID and material \n    mapping (string => Product)             productList; // product by id\n    mapping (address => Material[])         materials;   //Participant(supplier) and material\n    mapping (string => Material)            materialList; // materials by id\n    mapping (address => Request[])          requests;   // participant and requests\n    mapping (uint => Request)               requestList; // requests by id\n    mapping (uint => Log[])                 trackLogs; //requestId and Log\n    mapping (uint => uint[])                tempDataLogs; // requestId and temp data\n    mapping (uint => uint[])                humidDataLogs; // requestId and humid data\n    mapping (string => Cost)                standardProductCosts;\n    mapping (string => Cost)                actualProductCosts;\n    mapping (uint => uint)                  requestCost;    // requestId and Cost\n    mapping (uint => Location[])            requestLocations; //request id and locations\n    mapping (uint => string)                requestShipmentMethod; //request Id and shipment method  \n    mapping (address => InventoryItem[])    inventory;   // participant and items inventory\n    mapping (string => InventoryItem)       inventoryList;   // inventory item by item id\n    mapping (address => mapping (address => BankAccount) ) userBankAccounts; // bankAddr -> userAddr -> userAcc\n    event   DataSent            (uint indexed requestNo, string DataCategory ,string dataValues , uint indexed timestamp);\n    event   ShipmentStateUpdate (uint indexed requestNo, string  state, uint indexed timestamp);\n    event   requestStateUpdate  (address indexed who, uint indexed timestamp , string  state);\n    event   BankTransact        (string txName, address indexed _from , address  _to , uint _amount , uint indexed timestamp);\n    \n  \n    \n    \n    struct BankAccount {\n    \n        address userId;\n        string  userName;\n        uint    userBalance;\n        bool    isActive;\n    }\n    \n    \n    struct Participant {\n        \n        address particId;\n        Role    particRole;\n    }\n    \n\n    struct Product {\n        \n        address manufacturer;\n        string  productId; //registration no.\n        string  productName;\n        string  productForm; // tablets or capsules\n        uint    productBudget;\n        \n    }\n    \n    struct Material {\n        address supplier;\n        string  materialID;\n        string  materialName;\n        uint  materialStrength;\n        string  materialForm;\n        uint    createdAmount;\n        uint    unitCost;\n    }\n    \n    struct Specs {\n        string  materialName;\n        string  materialType;\n        uint    materialAmount;\n        string  materialStrength;\n        string  materialForm;\n        \n    }\n\n    struct Request {\n        uint    requestId;\n        address fromParti;\n        address toParti;\n        string  materialID;\n        uint    amount;\n        uint    issueTime;\n    }\n    \n       struct Log {\n        address logger;\n        string  requestStatus;\n        string  description;\n        string  shipmentStatus;\n        uint    logTime;\n    }\n    \n    struct Cost {\n        uint directMaterialCost;\n        uint packagingMaterialCost;\n        uint marketingCost;\n        uint researchCost;\n        uint directLaborCost;\n        uint totalIndirectCost; // indirect manufacturing costs\n        uint totalDirectCost;\n        uint CostTOT; // direct material + direct labor + total indirect\n    }\n    \n    struct Location {\n        string Latitude;\n        string Longitude;\n    }\n    \n    \n    struct InventoryItem {\n      string itemId;\n      uint   amount;\n    }\n    \n    \n    \n    // FUNCTIONS\n    \n    //constructor\n    \n    // constructor() {\n        \n    // }\n    \n    // modifier onlyAdmin {\n    //     require(msg.sender == admin);\n    //     _;\n    // }\n\n    \n    // Core functions \n    \n    \n    \n    // Handle participants privileges\n    \n    function verifyParticipant(address _participant) public  {\n             participants[_participant] = true;\n    }\n    \n    function unverifyParticipant(address _participant ) public  {\n             participants[_participant] = false;\n    }\n         \n    function isVerfied(address _participant) public view returns (bool) {\n             return participants[_participant];\n    }\n    \n\n    \n    // MANUFACTURING STUFF GOES HERE\n\n    \n    function addProduct(\n    \n    string memory _id,\n    string memory _name,\n    string memory _pForm\n    \n    ) public {\n        \n        Product memory pro = Product({\n            productId: _id,\n            productName: _name,\n            productForm: _pForm,\n            productBudget: 0,\n            manufacturer: msg.sender\n        });\n        \n        products[msg.sender].push(pro);\n        productList[_id] = pro;\n        productArr.push(pro);\n        \n    }\n    \n    function addProductSpecs(\n    \n    string memory _productID,\n    string memory _name,\n    string memory _type,\n    string memory _strength,\n    string memory _form,\n    uint          _amount\n    \n    ) public {\n    \n        Specs memory spec = Specs({\n            materialName: _name,\n            materialType: _type,\n            materialForm: _form,\n            materialAmount: _amount,\n            materialStrength: _strength\n            \n        });      \n        \n        productSpecs[_productID].push(spec);\n        \n    }\n    \n      \n    function getProductsByManu(address _manufacturer) public view returns(Product[] memory) {\n        return products[_manufacturer];\n    }\n    \n    function getProducts() public view returns(Product[] memory) {\n        return productArr;\n    }\n    \n    function getProductById(string memory _id) public view returns(Product memory) {\n        return productList[_id];\n    }\n    \n    function getProductSpecs(string memory _product) public view returns(Specs[] memory) {\n        return productSpecs[_product];\n    }\n    \n    \n    // END OF MANUFACTURING STUFF\n\n    // COST ACCOUNTING STUFF GOES HERE\n    \n    function setStdCostPlan(\n    \n    string memory _product,\n    uint    _directMatCost,\n    uint    _pkgMatCost,\n    uint    _directLaborCost,\n    uint    _totIndirectCosts,\n    uint    _mrkCost,\n    uint    _rsrchCost,\n    uint    _productBudget\n    \n        ) public {\n    \n    Cost memory stdCosts = Cost({\n        directMaterialCost: _directMatCost,\n        directLaborCost: _directLaborCost,\n        totalIndirectCost: _totIndirectCosts,\n        totalDirectCost: _directMatCost + _pkgMatCost +  _directLaborCost,\n        packagingMaterialCost: _pkgMatCost,\n        marketingCost: _mrkCost,\n        researchCost: _rsrchCost,\n        CostTOT: _directMatCost + _pkgMatCost +  _directLaborCost + _totIndirectCosts + _mrkCost  + _rsrchCost\n       \n    });\n    \n    standardProductCosts[_product] = stdCosts;\n    \n    setProductBudget(_product, _productBudget);\n    \n    }\n    \n    function setProductBudget(string memory _product, uint _budget) public {\n        if(strComp(_product, products[msg.sender][0].productId)) {\n            products[msg.sender][0].productBudget = _budget;\n            productList[_product].productBudget = _budget;\n        }\n       \n    }\n    \n    \n    function getStdCostPlan(string memory _product) public view returns(Cost memory) {\n        return standardProductCosts[_product];\n    }\n    \n    function setActualCost(\n    \n    string memory _product,\n    uint _actualMatCost,\n    uint _actualPkgMatCost,\n    uint _actualLaborCost,\n    uint _actualIndirectCost,\n    uint _actualMrkCost,\n    uint _actualRsrchCost\n    \n    ) public {\n        Cost memory actualCosts = Cost({\n            directMaterialCost: _actualMatCost,\n            packagingMaterialCost: _actualPkgMatCost,\n            totalDirectCost: _actualMatCost + _actualPkgMatCost + _actualLaborCost,\n            marketingCost: _actualMrkCost,\n            researchCost: _actualRsrchCost,\n            directLaborCost: _actualLaborCost,\n            totalIndirectCost: _actualIndirectCost,\n            CostTOT: _actualMatCost + _actualPkgMatCost + _actualLaborCost + _actualIndirectCost\n                     + _actualMrkCost + _actualRsrchCost\n        });\n        \n        actualProductCosts[_product] = actualCosts;\n    }\n    \n    function getActualCost(string memory _product) public view returns(Cost memory) {\n        \n        return actualProductCosts[_product];\n    }\n    \n    // END OF  COST ACCOUNTING STUFF\n    \n    // SUPPLYING STUFF GOES HERE\n    \n    // Creation of Material By Supplier\n    \n    function createMaterial(\n    \n    string memory _id,\n    string memory _name,\n    uint          _str,\n    string memory _form,\n    uint          _amount,\n    uint          _unitCost\n    \n    ) public {\n        \n        Material memory mat = Material({\n           supplier: msg.sender,\n           materialID:   _id,\n           materialName: _name,\n           materialForm: _form,\n           materialStrength: _str,\n           createdAmount: _amount,\n           unitCost:      _unitCost\n        });\n\n        materials[msg.sender].push(mat);\n        materialList[_id] = mat;\n        materialArr.push(mat);\n        addToInventory(msg.sender, _id , _amount);\n        \n    }\n    \n    // TODOO : * Search Materials By Name and Type (e.g. Vitamin-a , active )\n    // * send material supplier a request.\n    // * calculate request cost and pay half the total cost in advance in case of request approval\n    \n    function getMaterialsBySupplier(address _supplier) public view returns(Material[] memory ) {\n        return materials[_supplier];\n    }\n    \n    \n    // Materials to filter through\n    \n    function getMaterials() public view returns(Material[] memory) {\n        return materialArr;\n    }\n    \n    function getMaterialById (string memory _materialId) public view returns(Material memory) {\n        return materialList[_materialId];\n    }\n    \n\n    function createRequest(\n    \n    address _to ,\n    string memory _materialId,\n    uint _amount )\n    \n    public {\n        trackNoCount += 325;\n        Request memory req = Request({\n           requestId: trackNoCount,\n           fromParti: msg.sender,\n           toParti: _to,\n           materialID : _materialId,\n           amount: _amount,\n           issueTime: block.timestamp\n        });\n        \n        requestCost[req.requestId] = req.amount * materialList[_materialId].unitCost; \n        requests[msg.sender].push(req);\n        requestList[req.requestId] = req;\n        emit requestStateUpdate(msg.sender, block.timestamp , 'REQUEST CREATED');\n    }\n    \n    function getRequestCost(uint _id) public view returns(uint) {\n        return requestCost[_id];\n    }\n    \n    function getMyRequests() public view returns (Request[] memory) {\n        \n        return requests[msg.sender];\n    }\n    \n    function getRequestById(uint _id) public view returns (Request memory) {\n        return requestList[_id];\n    }\n    \n     \n     // return received requests (filtering: to address) for the portal control\n     \n    //  function getMyReceivedRequests() public view returns (Request[] memory) {\n        \n    //     return requests[msg.sender];\n    // }\n    \n    function getRequestByAddress(address _participant) public  view returns(Request[] memory) {\n        \n        return requests[_participant];\n    }\n    \n    function addToInventory(address _participant , string memory _item , uint _amount) public {\n        InventoryItem memory itm = InventoryItem({\n            itemId: _item,\n            amount: _amount\n        });\n        \n        inventory[_participant].push(itm);\n        inventoryList[_item] = itm;\n    }\n    \n    function updateInventory(address _participant , string memory _item , uint _amount) public {\n        \n        if(strComp(_item, inventory[_participant][0].itemId) ) {\n            inventory[_participant][0].amount = _amount;\n            inventoryList[_item].amount = _amount;\n            \n        }\n    }\n    \n    function getInventory(address _participant) public view returns (InventoryItem[] memory) {\n        return inventory[_participant];\n    }\n    \n    function getInventoryList(string memory _item) public view returns (InventoryItem memory) {\n        return inventoryList[_item];\n    }\n    \n    // END OF SUPPLING STUFF\n        \n    // BANKING STUFF GOES HERE \n    \n    // functions that has 'self' word are invokable by msg.sender\n    // other functions should require admin / bank control of execution\n    \n    function setAsBank(address _addr) public {\n        bank = _addr;\n        \n    }\n    \n    function getBank() public view returns (address) {\n        return bank;\n    }\n    \n    function createBankAccount(address _userAddr, string memory _userName) public {\n        \n        BankAccount memory account = BankAccount({\n            \n            userId:  _userAddr,\n            userName: _userName,\n            userBalance: 0,\n            isActive: true\n            \n        });\n        \n        userBankAccounts[bank][_userAddr] = account;\n        \n    }\n    \n     function selfCreateBankAccount(string memory _userName) public {\n        \n       createBankAccount(msg.sender, _userName);\n        \n    }\n    \n    function hasBankAccount(address _userAddr) public view returns (bool) {\n        if (userBankAccounts[bank][_userAddr].isActive != false) {\n            return true;\n        }\n        else {\n            return false;\n        }\n    }\n    \n    function deposit (address _userAddr, uint _amount) public returns (bool) {\n        \n        require (_amount > 0, 'Enter A Valid Deposit Amount!');\n        if ( userBankAccounts[bank][_userAddr].userId == _userAddr) {\n            uint balance = userBankAccounts[bank][_userAddr].userBalance;\n            balance += _amount;\n            userBankAccounts[bank][_userAddr].userBalance = balance;\n            emit BankTransact ('DEPOSIT', _userAddr , _userAddr , _amount , block.timestamp);\n            return true;\n        }\n        else {\n            return false;\n        }\n        \n    }\n    \n    function selfDeposit (uint _amount) public returns (bool) {\n        \n       return deposit(msg.sender, _amount);\n        \n    }\n    \n    function withdraw (address _userAddr, uint _amount) public returns (bool) {\n        \n        require(userBankAccounts[bank][_userAddr].userBalance > _amount , 'Not Enough Balance!' );\n        if (userBankAccounts[bank][_userAddr].userId == _userAddr) {\n            \n            uint balance = userBankAccounts[bank][_userAddr].userBalance;\n            balance -= _amount;\n            userBankAccounts[bank][_userAddr].userBalance = balance;\n            emit BankTransact ('WITHDRAWAL', _userAddr , _userAddr , _amount , block.timestamp);\n            return true;\n        }\n        else {\n            return false;\n        }\n    }\n    \n    function selfWithdraw (uint _amount) public returns (bool) {\n        \n       return withdraw(msg.sender, _amount);\n    }\n    \n    function getBalance (address _userAddr) public view returns (uint x) {\n        \n         if (userBankAccounts[bank][_userAddr].userId == _userAddr) {\n             uint balance = userBankAccounts[bank][_userAddr].userBalance;\n             return balance;\n        }\n    }\n    \n    function selfGetBalance () public view returns (uint x) {\n        \n        return getBalance(msg.sender);\n    }\n    \n    function transfer (address _from, address _to , uint _amount) public returns (bool) {\n        \n         require(userBankAccounts[bank][_from].userBalance >= _amount ,\n         'Not Enough Balance to Transfer This Amount!' );\n         \n        if (userBankAccounts[bank][_from].userId == _from && userBankAccounts[bank][_to].isActive == true) {\n            \n            uint fromBalance = userBankAccounts[bank][_from].userBalance;\n            uint toBalance = userBankAccounts[bank][_to].userBalance;\n            fromBalance -= _amount;\n            toBalance += _amount;\n            userBankAccounts[bank][_from].userBalance = fromBalance;\n            userBankAccounts[bank][_to].userBalance = toBalance;\n            emit BankTransact ('TRANSFER', _from , _to , _amount , block.timestamp);\n            return true;\n        }\n        else {\n            return false;\n        }\n        \n    }\n    \n     function selfTransfer (address _to , uint _amount) public returns (bool) {\n            return transfer(msg.sender, _to , _amount);\n    }\n    \n    \n    function getAccountDetails(address _account) public view returns (BankAccount memory) {\n        return userBankAccounts[bank][_account];\n    }\n    \n    function selfGetAccountDetails() public view returns (BankAccount memory) {\n        return userBankAccounts[bank][msg.sender];\n    }\n    \n    // END OF BANKING STUFF\n    \n    // TRACKING STUFF GOES HERE\n    \n    \n    // TRACKING STEPS:\n    // 1- REQUEST IS CREATED\n    // 2- SUPPLIER APPROVE REQUEST AND ASSIGNS SHIPMENT LOCATION \n    // 3- SUPPLIER CREATE AND SEND SHIPMENT FOR GLOBAL TRANSMISSION\n    // 4- GLOBAL TRANSMISSION SHIPS PACKAGE FOR LOCAL TRANSMISSION\n    // 5- LOCAL TRANSMISSION SHIPS PACKAGE TO FINAL DESTINATION (MANUFACTURER)\n    // TEMP AND HUMIDITY READINGS ARE SET DURING ALL PHASES OF SHIPMENT TRANSMISSION.\n    \n    //supplier\n    \n    function approveRequest(uint _requestId) public {\n        createLog(_requestId, 'REQUEST APPROVED', 'NORMAL' , 'YOUR REQUEST IS BEING PROCESSED.' );\n        emit requestStateUpdate(msg.sender, block.timestamp , 'REQUEST APPROVED');\n        uint payment = requestCost[_requestId]/2;\n        transfer(requestList[_requestId].fromParti, msg.sender, payment);\n    }\n    \n \n    \n    function verifyShipmentState(uint _id) public returns (string memory) {\n        \n        string memory status;\n        \n        if(tempArr[tempArr.length-1] >= tempThreshold || humidArr[humidArr.length-1] >= humidityThreshold) {\n            \n            status = 'ABNORMAL';\n             emit ShipmentStateUpdate (_id, status , block.timestamp);\n            \n        } else {\n            \n            status = 'NORMAL';\n             emit ShipmentStateUpdate (_id, status , block.timestamp);\n        }\n          return status;\n    }\n    \n \n    // supplier \n    function sendShipment(uint _requestId) public {\n        string memory x = inventoryList[requestList[_requestId].materialID].itemId;\n        string memory y = requestList[_requestId].materialID;\n        uint newAmount = inventoryList[requestList[_requestId].materialID].amount - requestList[_requestId].amount;\n        string memory result = verifyShipmentState(_requestId);\n        \n        createLog(_requestId, 'PACKAGE CREATED',  result , 'PACKAGE IS CREATED AND SHIPMENT IS READY TO LEAVE FOR SHPPING.' );\n        emit requestStateUpdate(msg.sender, block.timestamp , 'PACKAGE CREATED');\n        \n        createLog (_requestId, 'OUT FOR SHIPPING', result , ' YOUR SHIPMENT IS OUT FOR SHIPPING'); \n        emit requestStateUpdate(msg.sender, block.timestamp , 'PACKAGE IS OUT FOR SHIPPING');\n        \n        if(strComp(x,y)) {\n            updateInventory(msg.sender,requestList[_requestId].materialID, newAmount);\n        }\n        \n    }\n    \n    // global distributor\n    function globalTransitShipment(uint _requestId) public {\n        \n        string memory result = verifyShipmentState(_requestId);\n        \n        createLog (_requestId, 'SHIPPING PACKAGE', result , ' YOUR SHIPMENT IS CURRENTLY IN TRANSIT.');\n        emit requestStateUpdate(msg.sender, block.timestamp , 'IN GLOBAL TRANSIT');\n        \n    }\n    \n    //local distributor\n    function localTransitShipment(uint _requestId) public {\n        \n         string memory result = verifyShipmentState(_requestId);\n         \n        createLog (_requestId, 'READY FOR DELIVERY', result , 'YOUR SHIPMENT IS SET FOR DELIVERY AND IS EXPECTED TO ARRIVE SOON.');\n        emit requestStateUpdate(msg.sender, block.timestamp , 'IN LOCAL TRANSIT');\n        \n    }\n     \n    //manufacturer\n    \n    function receiveShipment(uint _requestId) public {\n        string memory x = inventory[msg.sender][0].itemId;\n        string memory y = requestList[_requestId].materialID;\n        uint newAmount = inventoryList[y].amount + requestList[_requestId].amount;\n        \n        string memory result = verifyShipmentState(_requestId);\n        createLog(_requestId, 'DELIVERED' , result , 'YOUR SHIPMENT IS DELIVERED SUCCESSFULLY.');\n        emit requestStateUpdate(msg.sender, block.timestamp , 'SHIPMENT DELIVERED');\n        \n        uint payment = requestCost[_requestId] - requestCost[_requestId]/2;\n        transfer(requestList[_requestId].fromParti, msg.sender, payment);\n        \n       \n        if(strComp(x,y)) {\n            updateInventory(msg.sender,requestList[_requestId].materialID, newAmount);\n        } else {\n             addToInventory(msg.sender,requestList[_requestId].materialID, newAmount);\n        }\n    }\n    \n    \n    function createLog(\n    uint _requestId,\n    string memory _requestStatus,\n    string memory _shipmentStatus,\n    string memory _description\n    \n    ) public  {\n        \n        Log memory myLog = Log({\n            logger: msg.sender,\n            requestStatus: _requestStatus,\n            shipmentStatus: _shipmentStatus,\n            description: _description,\n            logTime: block.timestamp\n        });\n        \n        trackLogs[_requestId].push(myLog);\n        emit requestStateUpdate(msg.sender, block.timestamp , _requestStatus);\n    }\n    \n    function setShipmentTrackData (uint _id, uint _temp , uint _humid) public {\n        \n        tempDataLogs[_id].push(_temp);\n        tempArr.push(_temp);\n        humidDataLogs[_id].push(_humid);\n        humidArr.push(_humid);\n        emit DataSent(_id ,'Sensors Data', concat(toString(_temp),toString(_humid)), block.timestamp);\n        if(_temp >= tempThreshold || _humid >= humidityThreshold) {\n            emit ShipmentStateUpdate (_id, 'ABNORMAL' , block.timestamp);\n        } else {\n             emit ShipmentStateUpdate (_id, 'NORMAL' , block.timestamp);\n        }\n    }\n    \n    function getShipmentTrackData (uint _id) public view returns (uint[] memory temp, uint[] memory humid) {\n        return (tempDataLogs[_id],humidDataLogs[_id]);\n        \n    }\n    \n    function getTrackLogs(uint _request) public view returns(Log[] memory) {\n        return trackLogs[_request];\n    }\n    \n    \n    function setShipmentLocation (uint _id, string memory _lat , string memory _long) public {\n        Location memory loc = Location({\n            Latitude: _lat,\n            Longitude: _long\n        });\n        \n        requestLocations[_id].push(loc);\n    }\n    \n    function getShipmentLocation (uint _id) public view returns (Location[] memory) {\n        return requestLocations[_id];\n    }\n    \n    function setShipmentMethod(uint _id , string memory _method) public {\n        requestShipmentMethod[_id] = _method;\n    }\n    \n    function getShipmentMethod(uint _id) public view returns (string memory) {\n        return requestShipmentMethod[_id];\n    }\n    \n    // END OF TRACKING STUFF\n    \n// END OF CONTRACT\n\n}",
  "sourcePath": "/home/mohamedkaram/Documents/Demo-sandbox/contracts/NewDemoTest.sol",
  "compiler": {
    "name": "solc",
    "version": "0.7.4+commit.3f05b770.Emscripten.clang"
  },
  "schemaVersion": "3.3.3",
  "updatedAt": "2021-03-14T14:18:51.316Z",
  "networkType": "ethereum",
  "devdoc": {
    "kind": "dev",
    "methods": {},
    "version": 1
  },
  "userdoc": {
    "kind": "user",
    "methods": {},
    "version": 1
  }
}