{
  "contractName": "PharmaChain",
  "abi": [
    {
      "anonymous": false,
      "inputs": [
        {
          "indexed": false,
          "internalType": "string",
          "name": "txName",
          "type": "string"
        },
        {
          "indexed": true,
          "internalType": "address",
          "name": "_from",
          "type": "address"
        },
        {
          "indexed": false,
          "internalType": "address",
          "name": "_to",
          "type": "address"
        },
        {
          "indexed": false,
          "internalType": "uint256",
          "name": "_amount",
          "type": "uint256"
        },
        {
          "indexed": true,
          "internalType": "uint256",
          "name": "timestamp",
          "type": "uint256"
        }
      ],
      "name": "BankTransact",
      "type": "event"
    },
    {
      "anonymous": false,
      "inputs": [
        {
          "indexed": true,
          "internalType": "address",
          "name": "who",
          "type": "address"
        },
        {
          "indexed": true,
          "internalType": "uint256",
          "name": "timestamp",
          "type": "uint256"
        },
        {
          "indexed": false,
          "internalType": "string",
          "name": "state",
          "type": "string"
        }
      ],
      "name": "requestStateUpdate",
      "type": "event"
    },
    {
      "inputs": [
        {
          "internalType": "string",
          "name": "x",
          "type": "string"
        },
        {
          "internalType": "string",
          "name": "y",
          "type": "string"
        }
      ],
      "name": "strComp",
      "outputs": [
        {
          "internalType": "bool",
          "name": "",
          "type": "bool"
        }
      ],
      "stateMutability": "pure",
      "type": "function",
      "constant": true
    },
    {
      "inputs": [
        {
          "internalType": "address",
          "name": "_participant",
          "type": "address"
        }
      ],
      "name": "addToTrusted",
      "outputs": [],
      "stateMutability": "nonpayable",
      "type": "function"
    },
    {
      "inputs": [
        {
          "internalType": "address",
          "name": "_participant",
          "type": "address"
        }
      ],
      "name": "removeFromTrusted",
      "outputs": [],
      "stateMutability": "nonpayable",
      "type": "function"
    },
    {
      "inputs": [
        {
          "internalType": "address",
          "name": "_participant",
          "type": "address"
        }
      ],
      "name": "isTrusted",
      "outputs": [
        {
          "internalType": "bool",
          "name": "",
          "type": "bool"
        }
      ],
      "stateMutability": "view",
      "type": "function",
      "constant": true
    },
    {
      "inputs": [
        {
          "internalType": "address",
          "name": "_truster",
          "type": "address"
        },
        {
          "internalType": "address",
          "name": "_trustee",
          "type": "address"
        }
      ],
      "name": "checkIfTrusted",
      "outputs": [
        {
          "internalType": "bool",
          "name": "",
          "type": "bool"
        }
      ],
      "stateMutability": "view",
      "type": "function",
      "constant": true
    },
    {
      "inputs": [
        {
          "internalType": "string",
          "name": "_state",
          "type": "string"
        }
      ],
      "name": "emitRequestStateEvent",
      "outputs": [],
      "stateMutability": "nonpayable",
      "type": "function"
    },
    {
      "inputs": [
        {
          "internalType": "string",
          "name": "_id",
          "type": "string"
        },
        {
          "internalType": "string",
          "name": "_name",
          "type": "string"
        },
        {
          "internalType": "string",
          "name": "_pForm",
          "type": "string"
        }
      ],
      "name": "addProduct",
      "outputs": [],
      "stateMutability": "nonpayable",
      "type": "function"
    },
    {
      "inputs": [
        {
          "internalType": "string",
          "name": "_productID",
          "type": "string"
        },
        {
          "internalType": "string",
          "name": "_name",
          "type": "string"
        },
        {
          "internalType": "string",
          "name": "_type",
          "type": "string"
        },
        {
          "internalType": "string",
          "name": "_strength",
          "type": "string"
        },
        {
          "internalType": "string",
          "name": "_form",
          "type": "string"
        },
        {
          "internalType": "string",
          "name": "_amount",
          "type": "string"
        },
        {
          "internalType": "string",
          "name": "_unitCost",
          "type": "string"
        }
      ],
      "name": "addProductSpecs",
      "outputs": [],
      "stateMutability": "nonpayable",
      "type": "function"
    },
    {
      "inputs": [
        {
          "internalType": "address",
          "name": "_manufacturer",
          "type": "address"
        }
      ],
      "name": "getProductsByManu",
      "outputs": [
        {
          "components": [
            {
              "internalType": "address",
              "name": "manufacturer",
              "type": "address"
            },
            {
              "internalType": "string",
              "name": "productId",
              "type": "string"
            },
            {
              "internalType": "string",
              "name": "productName",
              "type": "string"
            },
            {
              "internalType": "string",
              "name": "productForm",
              "type": "string"
            }
          ],
          "internalType": "struct PharmaChain.Product[]",
          "name": "",
          "type": "tuple[]"
        }
      ],
      "stateMutability": "view",
      "type": "function",
      "constant": true
    },
    {
      "inputs": [],
      "name": "getProducts",
      "outputs": [
        {
          "components": [
            {
              "internalType": "address",
              "name": "manufacturer",
              "type": "address"
            },
            {
              "internalType": "string",
              "name": "productId",
              "type": "string"
            },
            {
              "internalType": "string",
              "name": "productName",
              "type": "string"
            },
            {
              "internalType": "string",
              "name": "productForm",
              "type": "string"
            }
          ],
          "internalType": "struct PharmaChain.Product[]",
          "name": "",
          "type": "tuple[]"
        }
      ],
      "stateMutability": "view",
      "type": "function",
      "constant": true
    },
    {
      "inputs": [
        {
          "internalType": "string",
          "name": "_id",
          "type": "string"
        }
      ],
      "name": "getProductById",
      "outputs": [
        {
          "components": [
            {
              "internalType": "address",
              "name": "manufacturer",
              "type": "address"
            },
            {
              "internalType": "string",
              "name": "productId",
              "type": "string"
            },
            {
              "internalType": "string",
              "name": "productName",
              "type": "string"
            },
            {
              "internalType": "string",
              "name": "productForm",
              "type": "string"
            }
          ],
          "internalType": "struct PharmaChain.Product",
          "name": "",
          "type": "tuple"
        }
      ],
      "stateMutability": "view",
      "type": "function",
      "constant": true
    },
    {
      "inputs": [
        {
          "internalType": "string",
          "name": "_product",
          "type": "string"
        }
      ],
      "name": "getProductSpecs",
      "outputs": [
        {
          "components": [
            {
              "internalType": "string",
              "name": "materialName",
              "type": "string"
            },
            {
              "internalType": "string",
              "name": "materialType",
              "type": "string"
            },
            {
              "internalType": "string",
              "name": "materialAmount",
              "type": "string"
            },
            {
              "internalType": "string",
              "name": "materialStrength",
              "type": "string"
            },
            {
              "internalType": "string",
              "name": "materialForm",
              "type": "string"
            },
            {
              "internalType": "string",
              "name": "materialUnitCost",
              "type": "string"
            }
          ],
          "internalType": "struct PharmaChain.Specs[]",
          "name": "",
          "type": "tuple[]"
        }
      ],
      "stateMutability": "view",
      "type": "function",
      "constant": true
    },
    {
      "inputs": [
        {
          "internalType": "string",
          "name": "_product",
          "type": "string"
        },
        {
          "internalType": "string",
          "name": "_phase",
          "type": "string"
        }
      ],
      "name": "setProductPhase",
      "outputs": [],
      "stateMutability": "nonpayable",
      "type": "function"
    },
    {
      "inputs": [
        {
          "internalType": "string",
          "name": "_product",
          "type": "string"
        }
      ],
      "name": "getProductPhase",
      "outputs": [
        {
          "internalType": "string[]",
          "name": "phases",
          "type": "string[]"
        }
      ],
      "stateMutability": "view",
      "type": "function",
      "constant": true
    },
    {
      "inputs": [
        {
          "internalType": "string",
          "name": "_product",
          "type": "string"
        },
        {
          "internalType": "uint256",
          "name": "_unitsNo",
          "type": "uint256"
        },
        {
          "components": [
            {
              "internalType": "string",
              "name": "directMaterialCost",
              "type": "string"
            },
            {
              "internalType": "string",
              "name": "packagingMaterialCost",
              "type": "string"
            },
            {
              "internalType": "string",
              "name": "directLaborCost",
              "type": "string"
            },
            {
              "internalType": "string",
              "name": "totalDirectCost",
              "type": "string"
            },
            {
              "internalType": "string",
              "name": "CostTOT",
              "type": "string"
            }
          ],
          "internalType": "struct PharmaChain.Cost",
          "name": "stdCosts",
          "type": "tuple"
        }
      ],
      "name": "setStdCostPlan",
      "outputs": [],
      "stateMutability": "nonpayable",
      "type": "function"
    },
    {
      "inputs": [
        {
          "internalType": "string",
          "name": "_product",
          "type": "string"
        }
      ],
      "name": "setStdMaterialQty",
      "outputs": [],
      "stateMutability": "nonpayable",
      "type": "function"
    },
    {
      "inputs": [
        {
          "internalType": "string",
          "name": "_product",
          "type": "string"
        }
      ],
      "name": "getStdCostPlan",
      "outputs": [
        {
          "components": [
            {
              "internalType": "string",
              "name": "directMaterialCost",
              "type": "string"
            },
            {
              "internalType": "string",
              "name": "packagingMaterialCost",
              "type": "string"
            },
            {
              "internalType": "string",
              "name": "directLaborCost",
              "type": "string"
            },
            {
              "internalType": "string",
              "name": "totalDirectCost",
              "type": "string"
            },
            {
              "internalType": "string",
              "name": "CostTOT",
              "type": "string"
            }
          ],
          "internalType": "struct PharmaChain.Cost",
          "name": "",
          "type": "tuple"
        }
      ],
      "stateMutability": "view",
      "type": "function",
      "constant": true
    },
    {
      "inputs": [
        {
          "internalType": "string",
          "name": "_product",
          "type": "string"
        }
      ],
      "name": "getStdBudgetUnits",
      "outputs": [
        {
          "internalType": "uint256",
          "name": "units",
          "type": "uint256"
        }
      ],
      "stateMutability": "view",
      "type": "function",
      "constant": true
    },
    {
      "inputs": [
        {
          "internalType": "string",
          "name": "_product",
          "type": "string"
        }
      ],
      "name": "getStdMaterialQty",
      "outputs": [
        {
          "internalType": "string",
          "name": "",
          "type": "string"
        }
      ],
      "stateMutability": "view",
      "type": "function",
      "constant": true
    },
    {
      "inputs": [
        {
          "internalType": "string",
          "name": "_product",
          "type": "string"
        },
        {
          "internalType": "uint256",
          "name": "_unitsNo",
          "type": "uint256"
        },
        {
          "internalType": "string",
          "name": "_actualMatQty",
          "type": "string"
        },
        {
          "components": [
            {
              "internalType": "string",
              "name": "directMaterialCost",
              "type": "string"
            },
            {
              "internalType": "string",
              "name": "packagingMaterialCost",
              "type": "string"
            },
            {
              "internalType": "string",
              "name": "directLaborCost",
              "type": "string"
            },
            {
              "internalType": "string",
              "name": "totalDirectCost",
              "type": "string"
            },
            {
              "internalType": "string",
              "name": "CostTOT",
              "type": "string"
            }
          ],
          "internalType": "struct PharmaChain.Cost",
          "name": "actualCosts",
          "type": "tuple"
        }
      ],
      "name": "setActualCost",
      "outputs": [],
      "stateMutability": "nonpayable",
      "type": "function"
    },
    {
      "inputs": [
        {
          "internalType": "string",
          "name": "_product",
          "type": "string"
        }
      ],
      "name": "getActualCost",
      "outputs": [
        {
          "components": [
            {
              "internalType": "string",
              "name": "directMaterialCost",
              "type": "string"
            },
            {
              "internalType": "string",
              "name": "packagingMaterialCost",
              "type": "string"
            },
            {
              "internalType": "string",
              "name": "directLaborCost",
              "type": "string"
            },
            {
              "internalType": "string",
              "name": "totalDirectCost",
              "type": "string"
            },
            {
              "internalType": "string",
              "name": "CostTOT",
              "type": "string"
            }
          ],
          "internalType": "struct PharmaChain.Cost",
          "name": "",
          "type": "tuple"
        }
      ],
      "stateMutability": "view",
      "type": "function",
      "constant": true
    },
    {
      "inputs": [
        {
          "internalType": "string",
          "name": "_product",
          "type": "string"
        },
        {
          "internalType": "string",
          "name": "_amount",
          "type": "string"
        }
      ],
      "name": "setActualMaterialQty",
      "outputs": [],
      "stateMutability": "nonpayable",
      "type": "function"
    },
    {
      "inputs": [
        {
          "internalType": "string",
          "name": "_product",
          "type": "string"
        }
      ],
      "name": "getActualMaterialQty",
      "outputs": [
        {
          "internalType": "string",
          "name": "",
          "type": "string"
        }
      ],
      "stateMutability": "view",
      "type": "function",
      "constant": true
    },
    {
      "inputs": [
        {
          "internalType": "string",
          "name": "_product",
          "type": "string"
        }
      ],
      "name": "getActualBudgetUnits",
      "outputs": [
        {
          "internalType": "uint256",
          "name": "units",
          "type": "uint256"
        }
      ],
      "stateMutability": "view",
      "type": "function",
      "constant": true
    },
    {
      "inputs": [
        {
          "internalType": "string",
          "name": "_product",
          "type": "string"
        },
        {
          "internalType": "uint256",
          "name": "_unitsNo",
          "type": "uint256"
        },
        {
          "components": [
            {
              "internalType": "string",
              "name": "directMaterialCost",
              "type": "string"
            },
            {
              "internalType": "string",
              "name": "packagingMaterialCost",
              "type": "string"
            },
            {
              "internalType": "string",
              "name": "directLaborCost",
              "type": "string"
            },
            {
              "internalType": "string",
              "name": "totalDirectCost",
              "type": "string"
            },
            {
              "internalType": "string",
              "name": "CostTOT",
              "type": "string"
            }
          ],
          "internalType": "struct PharmaChain.Cost",
          "name": "flex",
          "type": "tuple"
        }
      ],
      "name": "setFlexibleCosts",
      "outputs": [],
      "stateMutability": "nonpayable",
      "type": "function"
    },
    {
      "inputs": [
        {
          "internalType": "string",
          "name": "_product",
          "type": "string"
        }
      ],
      "name": "getFlexibleCosts",
      "outputs": [
        {
          "components": [
            {
              "internalType": "string",
              "name": "directMaterialCost",
              "type": "string"
            },
            {
              "internalType": "string",
              "name": "packagingMaterialCost",
              "type": "string"
            },
            {
              "internalType": "string",
              "name": "directLaborCost",
              "type": "string"
            },
            {
              "internalType": "string",
              "name": "totalDirectCost",
              "type": "string"
            },
            {
              "internalType": "string",
              "name": "CostTOT",
              "type": "string"
            }
          ],
          "internalType": "struct PharmaChain.Cost",
          "name": "",
          "type": "tuple"
        }
      ],
      "stateMutability": "view",
      "type": "function",
      "constant": true
    },
    {
      "inputs": [
        {
          "internalType": "string",
          "name": "_product",
          "type": "string"
        }
      ],
      "name": "getFlexibleBudgetUnits",
      "outputs": [
        {
          "internalType": "uint256",
          "name": "units",
          "type": "uint256"
        }
      ],
      "stateMutability": "view",
      "type": "function",
      "constant": true
    },
    {
      "inputs": [
        {
          "internalType": "string",
          "name": "_id",
          "type": "string"
        },
        {
          "internalType": "string",
          "name": "_name",
          "type": "string"
        },
        {
          "internalType": "uint256",
          "name": "_str",
          "type": "uint256"
        },
        {
          "internalType": "string",
          "name": "_form",
          "type": "string"
        },
        {
          "internalType": "string",
          "name": "_amount",
          "type": "string"
        },
        {
          "internalType": "string",
          "name": "_unitCost",
          "type": "string"
        },
        {
          "internalType": "string",
          "name": "_storageConditions",
          "type": "string"
        },
        {
          "internalType": "bool",
          "name": "_stability",
          "type": "bool"
        },
        {
          "internalType": "uint256",
          "name": "_stabilityPeriod",
          "type": "uint256"
        }
      ],
      "name": "createMaterial",
      "outputs": [],
      "stateMutability": "nonpayable",
      "type": "function"
    },
    {
      "inputs": [
        {
          "internalType": "string",
          "name": "_materialID",
          "type": "string"
        },
        {
          "components": [
            {
              "internalType": "string",
              "name": "directMaterialCost",
              "type": "string"
            },
            {
              "internalType": "string",
              "name": "packagingMaterialCost",
              "type": "string"
            },
            {
              "internalType": "string",
              "name": "directLaborCost",
              "type": "string"
            },
            {
              "internalType": "string",
              "name": "shippingCost",
              "type": "string"
            },
            {
              "internalType": "string",
              "name": "totalDirectCost",
              "type": "string"
            },
            {
              "internalType": "string",
              "name": "CostTOT",
              "type": "string"
            }
          ],
          "internalType": "struct PharmaChain.MaterialProductionCost",
          "name": "matCost",
          "type": "tuple"
        }
      ],
      "name": "setMaterialCostPlan",
      "outputs": [],
      "stateMutability": "nonpayable",
      "type": "function"
    },
    {
      "inputs": [
        {
          "internalType": "string",
          "name": "_material",
          "type": "string"
        }
      ],
      "name": "getMaterialCostPlan",
      "outputs": [
        {
          "components": [
            {
              "internalType": "string",
              "name": "directMaterialCost",
              "type": "string"
            },
            {
              "internalType": "string",
              "name": "packagingMaterialCost",
              "type": "string"
            },
            {
              "internalType": "string",
              "name": "directLaborCost",
              "type": "string"
            },
            {
              "internalType": "string",
              "name": "shippingCost",
              "type": "string"
            },
            {
              "internalType": "string",
              "name": "totalDirectCost",
              "type": "string"
            },
            {
              "internalType": "string",
              "name": "CostTOT",
              "type": "string"
            }
          ],
          "internalType": "struct PharmaChain.MaterialProductionCost",
          "name": "",
          "type": "tuple"
        }
      ],
      "stateMutability": "view",
      "type": "function",
      "constant": true
    },
    {
      "inputs": [
        {
          "internalType": "address",
          "name": "_supplier",
          "type": "address"
        }
      ],
      "name": "getMaterialsBySupplier",
      "outputs": [
        {
          "components": [
            {
              "internalType": "address",
              "name": "supplier",
              "type": "address"
            },
            {
              "internalType": "string",
              "name": "materialID",
              "type": "string"
            },
            {
              "internalType": "string",
              "name": "materialName",
              "type": "string"
            },
            {
              "internalType": "uint256",
              "name": "materialStrength",
              "type": "uint256"
            },
            {
              "internalType": "string",
              "name": "materialForm",
              "type": "string"
            },
            {
              "internalType": "string",
              "name": "createdAmount",
              "type": "string"
            },
            {
              "internalType": "string",
              "name": "unitCost",
              "type": "string"
            },
            {
              "internalType": "string",
              "name": "storageConditions",
              "type": "string"
            },
            {
              "internalType": "bool",
              "name": "materialStability",
              "type": "bool"
            },
            {
              "internalType": "uint256",
              "name": "materialManuDate",
              "type": "uint256"
            },
            {
              "internalType": "uint256",
              "name": "materialStabilityPeriod",
              "type": "uint256"
            }
          ],
          "internalType": "struct PharmaChain.Material[]",
          "name": "",
          "type": "tuple[]"
        }
      ],
      "stateMutability": "view",
      "type": "function",
      "constant": true
    },
    {
      "inputs": [],
      "name": "getMaterials",
      "outputs": [
        {
          "components": [
            {
              "internalType": "address",
              "name": "supplier",
              "type": "address"
            },
            {
              "internalType": "string",
              "name": "materialID",
              "type": "string"
            },
            {
              "internalType": "string",
              "name": "materialName",
              "type": "string"
            },
            {
              "internalType": "uint256",
              "name": "materialStrength",
              "type": "uint256"
            },
            {
              "internalType": "string",
              "name": "materialForm",
              "type": "string"
            },
            {
              "internalType": "string",
              "name": "createdAmount",
              "type": "string"
            },
            {
              "internalType": "string",
              "name": "unitCost",
              "type": "string"
            },
            {
              "internalType": "string",
              "name": "storageConditions",
              "type": "string"
            },
            {
              "internalType": "bool",
              "name": "materialStability",
              "type": "bool"
            },
            {
              "internalType": "uint256",
              "name": "materialManuDate",
              "type": "uint256"
            },
            {
              "internalType": "uint256",
              "name": "materialStabilityPeriod",
              "type": "uint256"
            }
          ],
          "internalType": "struct PharmaChain.Material[]",
          "name": "",
          "type": "tuple[]"
        }
      ],
      "stateMutability": "view",
      "type": "function",
      "constant": true
    },
    {
      "inputs": [
        {
          "internalType": "string",
          "name": "_materialId",
          "type": "string"
        }
      ],
      "name": "getMaterialById",
      "outputs": [
        {
          "components": [
            {
              "internalType": "address",
              "name": "supplier",
              "type": "address"
            },
            {
              "internalType": "string",
              "name": "materialID",
              "type": "string"
            },
            {
              "internalType": "string",
              "name": "materialName",
              "type": "string"
            },
            {
              "internalType": "uint256",
              "name": "materialStrength",
              "type": "uint256"
            },
            {
              "internalType": "string",
              "name": "materialForm",
              "type": "string"
            },
            {
              "internalType": "string",
              "name": "createdAmount",
              "type": "string"
            },
            {
              "internalType": "string",
              "name": "unitCost",
              "type": "string"
            },
            {
              "internalType": "string",
              "name": "storageConditions",
              "type": "string"
            },
            {
              "internalType": "bool",
              "name": "materialStability",
              "type": "bool"
            },
            {
              "internalType": "uint256",
              "name": "materialManuDate",
              "type": "uint256"
            },
            {
              "internalType": "uint256",
              "name": "materialStabilityPeriod",
              "type": "uint256"
            }
          ],
          "internalType": "struct PharmaChain.Material",
          "name": "",
          "type": "tuple"
        }
      ],
      "stateMutability": "view",
      "type": "function",
      "constant": true
    },
    {
      "inputs": [
        {
          "internalType": "address",
          "name": "_to",
          "type": "address"
        },
        {
          "internalType": "string",
          "name": "_materialId",
          "type": "string"
        },
        {
          "internalType": "string",
          "name": "_amount",
          "type": "string"
        },
        {
          "internalType": "string",
          "name": "_requestCost",
          "type": "string"
        }
      ],
      "name": "createRequest",
      "outputs": [],
      "stateMutability": "nonpayable",
      "type": "function"
    },
    {
      "inputs": [
        {
          "internalType": "address",
          "name": "_fromParti2",
          "type": "address"
        },
        {
          "internalType": "address",
          "name": "_to",
          "type": "address"
        },
        {
          "internalType": "string",
          "name": "_materialId",
          "type": "string"
        },
        {
          "internalType": "string",
          "name": "_amount",
          "type": "string"
        },
        {
          "internalType": "string",
          "name": "_requestCost",
          "type": "string"
        }
      ],
      "name": "createBatchRequest",
      "outputs": [],
      "stateMutability": "nonpayable",
      "type": "function"
    },
    {
      "inputs": [
        {
          "internalType": "uint256",
          "name": "_id",
          "type": "uint256"
        }
      ],
      "name": "getRequestCost",
      "outputs": [
        {
          "internalType": "string",
          "name": "",
          "type": "string"
        }
      ],
      "stateMutability": "view",
      "type": "function",
      "constant": true
    },
    {
      "inputs": [],
      "name": "getMyRequests",
      "outputs": [
        {
          "components": [
            {
              "internalType": "uint256",
              "name": "requestId",
              "type": "uint256"
            },
            {
              "internalType": "address",
              "name": "fromParti",
              "type": "address"
            },
            {
              "internalType": "address",
              "name": "toParti",
              "type": "address"
            },
            {
              "internalType": "string",
              "name": "materialID",
              "type": "string"
            },
            {
              "internalType": "string",
              "name": "amount",
              "type": "string"
            },
            {
              "internalType": "uint256",
              "name": "issueTime",
              "type": "uint256"
            }
          ],
          "internalType": "struct PharmaChain.Request[]",
          "name": "",
          "type": "tuple[]"
        }
      ],
      "stateMutability": "view",
      "type": "function",
      "constant": true
    },
    {
      "inputs": [],
      "name": "getMyBatchRequests",
      "outputs": [
        {
          "components": [
            {
              "internalType": "uint256",
              "name": "requestId",
              "type": "uint256"
            },
            {
              "internalType": "address",
              "name": "fromParti1",
              "type": "address"
            },
            {
              "internalType": "address",
              "name": "fromParti2",
              "type": "address"
            },
            {
              "internalType": "address",
              "name": "toParti",
              "type": "address"
            },
            {
              "internalType": "string",
              "name": "materialID",
              "type": "string"
            },
            {
              "internalType": "string",
              "name": "amount",
              "type": "string"
            },
            {
              "internalType": "uint256",
              "name": "issueTime",
              "type": "uint256"
            }
          ],
          "internalType": "struct PharmaChain.BatchRequest[]",
          "name": "",
          "type": "tuple[]"
        }
      ],
      "stateMutability": "view",
      "type": "function",
      "constant": true
    },
    {
      "inputs": [
        {
          "internalType": "uint256",
          "name": "_id",
          "type": "uint256"
        }
      ],
      "name": "getRequestById",
      "outputs": [
        {
          "components": [
            {
              "internalType": "uint256",
              "name": "requestId",
              "type": "uint256"
            },
            {
              "internalType": "address",
              "name": "fromParti",
              "type": "address"
            },
            {
              "internalType": "address",
              "name": "toParti",
              "type": "address"
            },
            {
              "internalType": "string",
              "name": "materialID",
              "type": "string"
            },
            {
              "internalType": "string",
              "name": "amount",
              "type": "string"
            },
            {
              "internalType": "uint256",
              "name": "issueTime",
              "type": "uint256"
            }
          ],
          "internalType": "struct PharmaChain.Request",
          "name": "",
          "type": "tuple"
        }
      ],
      "stateMutability": "view",
      "type": "function",
      "constant": true
    },
    {
      "inputs": [
        {
          "internalType": "address",
          "name": "_participant",
          "type": "address"
        },
        {
          "internalType": "string",
          "name": "_item",
          "type": "string"
        },
        {
          "internalType": "string",
          "name": "_amount",
          "type": "string"
        }
      ],
      "name": "addToInventory",
      "outputs": [],
      "stateMutability": "nonpayable",
      "type": "function"
    },
    {
      "inputs": [
        {
          "internalType": "address",
          "name": "_participant",
          "type": "address"
        },
        {
          "internalType": "string",
          "name": "_item",
          "type": "string"
        },
        {
          "internalType": "string",
          "name": "_amount",
          "type": "string"
        }
      ],
      "name": "updateInventory",
      "outputs": [],
      "stateMutability": "nonpayable",
      "type": "function"
    },
    {
      "inputs": [
        {
          "internalType": "address",
          "name": "_participant",
          "type": "address"
        }
      ],
      "name": "getInventory",
      "outputs": [
        {
          "components": [
            {
              "internalType": "string",
              "name": "itemId",
              "type": "string"
            },
            {
              "internalType": "string",
              "name": "amount",
              "type": "string"
            }
          ],
          "internalType": "struct PharmaChain.InventoryItem[]",
          "name": "",
          "type": "tuple[]"
        }
      ],
      "stateMutability": "view",
      "type": "function",
      "constant": true
    },
    {
      "inputs": [
        {
          "internalType": "string",
          "name": "_item",
          "type": "string"
        }
      ],
      "name": "getInventoryItemById",
      "outputs": [
        {
          "components": [
            {
              "internalType": "string",
              "name": "itemId",
              "type": "string"
            },
            {
              "internalType": "string",
              "name": "amount",
              "type": "string"
            }
          ],
          "internalType": "struct PharmaChain.InventoryItem",
          "name": "",
          "type": "tuple"
        }
      ],
      "stateMutability": "view",
      "type": "function",
      "constant": true
    },
    {
      "inputs": [
        {
          "internalType": "address",
          "name": "_addr",
          "type": "address"
        }
      ],
      "name": "setAsBank",
      "outputs": [],
      "stateMutability": "nonpayable",
      "type": "function"
    },
    {
      "inputs": [],
      "name": "getBank",
      "outputs": [
        {
          "internalType": "address",
          "name": "",
          "type": "address"
        }
      ],
      "stateMutability": "view",
      "type": "function",
      "constant": true
    },
    {
      "inputs": [
        {
          "internalType": "address",
          "name": "_userAddr",
          "type": "address"
        },
        {
          "internalType": "string",
          "name": "_userName",
          "type": "string"
        }
      ],
      "name": "createBankAccount",
      "outputs": [],
      "stateMutability": "nonpayable",
      "type": "function"
    },
    {
      "inputs": [
        {
          "internalType": "address",
          "name": "_userAddr",
          "type": "address"
        }
      ],
      "name": "hasBankAccount",
      "outputs": [
        {
          "internalType": "bool",
          "name": "",
          "type": "bool"
        }
      ],
      "stateMutability": "view",
      "type": "function",
      "constant": true
    },
    {
      "inputs": [
        {
          "internalType": "address",
          "name": "_userAddr",
          "type": "address"
        },
        {
          "internalType": "uint256",
          "name": "_amount",
          "type": "uint256"
        }
      ],
      "name": "deposit",
      "outputs": [
        {
          "internalType": "bool",
          "name": "",
          "type": "bool"
        }
      ],
      "stateMutability": "nonpayable",
      "type": "function"
    },
    {
      "inputs": [
        {
          "internalType": "address",
          "name": "_userAddr",
          "type": "address"
        },
        {
          "internalType": "uint256",
          "name": "_amount",
          "type": "uint256"
        }
      ],
      "name": "withdraw",
      "outputs": [
        {
          "internalType": "bool",
          "name": "",
          "type": "bool"
        }
      ],
      "stateMutability": "nonpayable",
      "type": "function"
    },
    {
      "inputs": [
        {
          "internalType": "address",
          "name": "_userAddr",
          "type": "address"
        }
      ],
      "name": "getBalance",
      "outputs": [
        {
          "internalType": "uint256",
          "name": "x",
          "type": "uint256"
        }
      ],
      "stateMutability": "view",
      "type": "function",
      "constant": true
    },
    {
      "inputs": [
        {
          "internalType": "address",
          "name": "_from",
          "type": "address"
        },
        {
          "internalType": "address",
          "name": "_to",
          "type": "address"
        },
        {
          "internalType": "uint256",
          "name": "_amount",
          "type": "uint256"
        }
      ],
      "name": "transfer",
      "outputs": [
        {
          "internalType": "bool",
          "name": "",
          "type": "bool"
        }
      ],
      "stateMutability": "nonpayable",
      "type": "function"
    },
    {
      "inputs": [
        {
          "internalType": "address",
          "name": "_account",
          "type": "address"
        }
      ],
      "name": "getAccountDetails",
      "outputs": [
        {
          "components": [
            {
              "internalType": "address",
              "name": "userId",
              "type": "address"
            },
            {
              "internalType": "string",
              "name": "userName",
              "type": "string"
            },
            {
              "internalType": "uint256",
              "name": "userBalance",
              "type": "uint256"
            },
            {
              "internalType": "bool",
              "name": "isActive",
              "type": "bool"
            }
          ],
          "internalType": "struct PharmaChain.BankAccount",
          "name": "",
          "type": "tuple"
        }
      ],
      "stateMutability": "view",
      "type": "function",
      "constant": true
    }
  ],
  "bytecode": "0x60806040526000805534801561001457600080fd5b50615d6680620000256000396000f3fe608060405234801561001057600080fd5b506004361061030b5760003560e01c8063797053d91161019d578063b9dab0ff116100e9578063d16bf3eb116100a2578063de67ef8a1161007c578063de67ef8a1461075e578063def1ca3814610771578063f3fef3a314610784578063f8b2cb4f146107975761030b565b8063d16bf3eb14610725578063d4f5ed4814610738578063d6df06751461074b5761030b565b8063b9dab0ff14610697578063bbf5f774146106b7578063beabacc8146106d7578063bebaef2b146106ea578063c29b2f20146106fd578063c933a2ad146107125761030b565b80638b87c5441161015657806396d648791161013057806396d648791461064b57806398de5cef1461065e578063b1f9ed4114610671578063b26338b0146106845761030b565b80638b87c544146106035780638d0359b51461062357806391eace8b146106365761030b565b8063797053d9146105825780637f5cf16e1461059557806380dfedcd146105b557806384f13094146105bd578063881de0de146105d057806388c6fb4b146105f05761030b565b80633f2019781161025c5780635028f1d01161021557806360d704db116101ef57806360d704db1461053457806362d113011461054957806368f488081461055c5780636eac3eb81461056f5761030b565b80635028f1d0146104ee5780635280ae1d1461050e57806359c8351f146105215761030b565b80633f20197814610460578063477dec5d1461048057806347e7ef241461049357806348c18e23146104b35780634cd9cc3d146104c65780634d2399cd146104db5761030b565b80631f94d0e7116102c95780632aceb534116102a35780632aceb534146104075780632c3e2cf7146104275780632f8bf1491461043a5780632fc819161461044d5761030b565b80631f94d0e7146103b45780632352d4aa146103c757806326757b73146103e75761030b565b8062df68121461031057806306177b4e14610325578063096a71e21461034e5780630e34b00e1461036e5780630e96e43714610381578063130ff11d14610394575b600080fd5b61032361031e366004614ed5565b6107aa565b005b610338610333366004614bf7565b6107f4565b6040516103459190615846565b60405180910390f35b61036161035c366004614e9b565b610c20565b6040516103459190615b4b565b61032361037c366004614f2b565b610f32565b61032361038f366004614e9b565b61117d565b6103a76103a2366004614e9b565b6111c2565b6040516103459190615c3c565b6103616103c2366004614e9b565b6111ea565b6103da6103d5366004614e9b565b611202565b6040516103459190615c16565b6103fa6103f53660046153ba565b611377565b6040516103459190615c29565b61041a610415366004614bf7565b611500565b6040516103459190615afb565b610323610435366004614bf7565b6115fa565b610323610448366004614ed5565b61166f565b61032361045b366004614d23565b6116a1565b61047361046e366004614e9b565b611742565b6040516103459190615c03565b61032361048e366004614bf7565b611b24565b6104a66104a1366004614e72565b611b46565b6040516103459190615992565b6103a76104c1366004614e9b565b611c5f565b6104ce611c71565b6040516103459190615722565b6103236104e9366004614d6e565b611e48565b6105016104fc366004614e9b565b611f1a565b6040516103459190615bdd565b6104a661051c366004614bf7565b611fed565b6104a661052f366004614ed5565b612033565b61053c61208c565b60405161034591906156ae565b6103236105573660046152da565b61209b565b61032361056a366004614c43565b6121a6565b61036161057d366004614e9b565b6123ce565b610323610590366004614dde565b6123e6565b6105a86105a3366004614e9b565b6125da565b604051610345919061593f565b6103386129b8565b6103236105cb366004614bf7565b612dc4565b6105e36105de366004614e9b565b612e0f565b604051610345919061599d565b6104a66105fe366004614c11565b612ebf565b610616610611366004614bf7565b612eed565b60405161034591906157f3565b610323610631366004615088565b61307b565b61063e613487565b60405161034591906158ec565b6104a6610659366004614bf7565b613646565b6103a761066c366004614e9b565b613671565b61032361067f36600461519b565b613683565b6105e3610692366004614e9b565b61374e565b6106aa6106a5366004614e9b565b613760565b6040516103459190615bf0565b6106ca6106c5366004614e9b565b613a7b565b60405161034591906156c2565b6104a66106e5366004614ce8565b613b67565b6103236106f836600461535b565b613d16565b610705613de8565b6040516103459190615899565b6105e36107203660046153ba565b61400a565b610323610733366004614d6e565b614027565b61032361074636600461535b565b614197565b610323610759366004614f76565b614254565b61070561076c366004614bf7565b61439f565b61032361077f366004614e9b565b6145d5565b6104a6610792366004614e72565b61465d565b6103a76107a5366004614bf7565b61477d565b600c826040516107ba9190615692565b90815260405160209181900382019020805460018101825560009182529082902083516107ef939190920191908401906147e4565b505050565b6001600160a01b0381166000908152600d60209081526040808320805482518185028101850190935280835260609492939192909184015b82821015610c14576000848152602090819020604080516101608101909152600b850290910180546001600160a01b03168252600181018054929391929184019161087690615cc9565b80601f01602080910402602001604051908101604052809291908181526020018280546108a290615cc9565b80156108ef5780601f106108c4576101008083540402835291602001916108ef565b820191906000526020600020905b8154815290600101906020018083116108d257829003601f168201915b5050505050815260200160028201805461090890615cc9565b80601f016020809104026020016040519081016040528092919081815260200182805461093490615cc9565b80156109815780601f1061095657610100808354040283529160200191610981565b820191906000526020600020905b81548152906001019060200180831161096457829003601f168201915b50505050508152602001600382015481526020016004820180546109a490615cc9565b80601f01602080910402602001604051908101604052809291908181526020018280546109d090615cc9565b8015610a1d5780601f106109f257610100808354040283529160200191610a1d565b820191906000526020600020905b815481529060010190602001808311610a0057829003601f168201915b50505050508152602001600582018054610a3690615cc9565b80601f0160208091040260200160405190810160405280929190818152602001828054610a6290615cc9565b8015610aaf5780601f10610a8457610100808354040283529160200191610aaf565b820191906000526020600020905b815481529060010190602001808311610a9257829003601f168201915b50505050508152602001600682018054610ac890615cc9565b80601f0160208091040260200160405190810160405280929190818152602001828054610af490615cc9565b8015610b415780601f10610b1657610100808354040283529160200191610b41565b820191906000526020600020905b815481529060010190602001808311610b2457829003601f168201915b50505050508152602001600782018054610b5a90615cc9565b80601f0160208091040260200160405190810160405280929190818152602001828054610b8690615cc9565b8015610bd35780601f10610ba857610100808354040283529160200191610bd3565b820191906000526020600020905b815481529060010190602001808311610bb657829003601f168201915b5050509183525050600882015460ff16151560208083019190915260098301546040830152600a90920154606090910152908252600192909201910161082c565b5050505090505b919050565b610c28614868565b601482604051610c389190615692565b90815260200160405180910390206040518060a0016040529081600082018054610c6190615cc9565b80601f0160208091040260200160405190810160405280929190818152602001828054610c8d90615cc9565b8015610cda5780601f10610caf57610100808354040283529160200191610cda565b820191906000526020600020905b815481529060010190602001808311610cbd57829003601f168201915b50505050508152602001600182018054610cf390615cc9565b80601f0160208091040260200160405190810160405280929190818152602001828054610d1f90615cc9565b8015610d6c5780601f10610d4157610100808354040283529160200191610d6c565b820191906000526020600020905b815481529060010190602001808311610d4f57829003601f168201915b50505050508152602001600282018054610d8590615cc9565b80601f0160208091040260200160405190810160405280929190818152602001828054610db190615cc9565b8015610dfe5780601f10610dd357610100808354040283529160200191610dfe565b820191906000526020600020905b815481529060010190602001808311610de157829003601f168201915b50505050508152602001600382018054610e1790615cc9565b80601f0160208091040260200160405190810160405280929190818152602001828054610e4390615cc9565b8015610e905780601f10610e6557610100808354040283529160200191610e90565b820191906000526020600020905b815481529060010190602001808311610e7357829003601f168201915b50505050508152602001600482018054610ea990615cc9565b80601f0160208091040260200160405190810160405280929190818152602001828054610ed590615cc9565b8015610f225780601f10610ef757610100808354040283529160200191610f22565b820191906000526020600020905b815481529060010190602001808311610f0557829003601f168201915b5050505050815250509050919050565b604080516080810182523380825260208083018781528385018790526060840186905260009283526007825293822080546001808201835591845292829020845160049094020180546001600160a01b0319166001600160a01b039094169390931783559351805193948594610faf9391850192909101906147e4565b5060408201518051610fcb9160028401916020909101906147e4565b5060608201518051610fe79160038401916020909101906147e4565b50505080600b85604051610ffb9190615692565b90815260405160209181900382019020825181546001600160a01b0319166001600160a01b039091161781558282015180519192611041926001850192909101906147e4565b506040820151805161105d9160028401916020909101906147e4565b50606082015180516110799160038401916020909101906147e4565b5050600480546001810182556000829052835191027f8a35acfbc15ff81a39ae7d344fd709f28e8600b4aa8c65c6b64bfe7fe36bd19b810180546001600160a01b039093166001600160a01b0319909316929092178255602080850151805186955061110c937f8a35acfbc15ff81a39ae7d344fd709f28e8600b4aa8c65c6b64bfe7fe36bd19c019291909101906147e4565b50604082015180516111289160028401916020909101906147e4565b50606082015180516111449160038401916020909101906147e4565b505050611177846040518060400160405280600e81526020016d0aa9c888aa45aa48aa68a82a486960931b8152506107aa565b50505050565b42336001600160a01b03167f530abb16f843103fba748c032a23827a5140b72d210f41d8bbbc183708de5240836040516111b7919061599d565b60405180910390a350565b60006016826040516111d49190615692565b9081526020016040518091039020549050919050565b6111f2614868565b601582604051610c389190615692565b61120a614897565b600b8260405161121a9190615692565b9081526040805191829003602090810183206080840190925281546001600160a01b031683526001820180549184019161125390615cc9565b80601f016020809104026020016040519081016040528092919081815260200182805461127f90615cc9565b80156112cc5780601f106112a1576101008083540402835291602001916112cc565b820191906000526020600020905b8154815290600101906020018083116112af57829003601f168201915b505050505081526020016002820180546112e590615cc9565b80601f016020809104026020016040519081016040528092919081815260200182805461131190615cc9565b801561135e5780601f106113335761010080835404028352916020019161135e565b820191906000526020600020905b81548152906001019060200180831161134157829003601f168201915b50505050508152602001600382018054610ea990615cc9565b61137f6148c8565b600082815260106020908152604091829020825160c0810184528154815260018201546001600160a01b03908116938201939093526002820154909216928201929092526003820180549192916060840191906113db90615cc9565b80601f016020809104026020016040519081016040528092919081815260200182805461140790615cc9565b80156114545780601f1061142957610100808354040283529160200191611454565b820191906000526020600020905b81548152906001019060200180831161143757829003601f168201915b5050505050815260200160048201805461146d90615cc9565b80601f016020809104026020016040519081016040528092919081815260200182805461149990615cc9565b80156114e65780601f106114bb576101008083540402835291602001916114e6565b820191906000526020600020905b8154815290600101906020018083116114c957829003601f168201915b505050505081526020016005820154815250509050919050565b611508614910565b6002546001600160a01b039081166000908152601d602090815260408083208685168452825291829020825160808101909352805490931682526001830180549293929184019161155890615cc9565b80601f016020809104026020016040519081016040528092919081815260200182805461158490615cc9565b80156115d15780601f106115a6576101008083540402835291602001916115d1565b820191906000526020600020905b8154815290600101906020018083116115b457829003601f168201915b50505091835250506002820154602082015260039091015460ff16151560409091015292915050565b3360008181526005602081815260408084206001600160a01b03969096168085529582528084208054600160ff199182168117909255938352818520958552948252808420805490931685179092556006815290822080549384018155825290200180546001600160a01b0319169091179055565b80600a836040516116809190615692565b908152602001604051809103902090805190602001906107ef9291906147e4565b604080516080810182526001600160a01b038481168083526020808401868152600085870181905260016060870181905260025486168252601d845287822094825293835295909520845181546001600160a01b0319169416939093178355935180519394859461171893850192909101906147e4565b50604082015160028201556060909101516003909101805460ff1916911515919091179055505050565b61174a614943565b600e8260405161175a9190615692565b908152604080519182900360209081018320610160840190925281546001600160a01b031683526001820180549184019161179490615cc9565b80601f01602080910402602001604051908101604052809291908181526020018280546117c090615cc9565b801561180d5780601f106117e25761010080835404028352916020019161180d565b820191906000526020600020905b8154815290600101906020018083116117f057829003601f168201915b5050505050815260200160028201805461182690615cc9565b80601f016020809104026020016040519081016040528092919081815260200182805461185290615cc9565b801561189f5780601f106118745761010080835404028352916020019161189f565b820191906000526020600020905b81548152906001019060200180831161188257829003601f168201915b50505050508152602001600382015481526020016004820180546118c290615cc9565b80601f01602080910402602001604051908101604052809291908181526020018280546118ee90615cc9565b801561193b5780601f106119105761010080835404028352916020019161193b565b820191906000526020600020905b81548152906001019060200180831161191e57829003601f168201915b5050505050815260200160058201805461195490615cc9565b80601f016020809104026020016040519081016040528092919081815260200182805461198090615cc9565b80156119cd5780601f106119a2576101008083540402835291602001916119cd565b820191906000526020600020905b8154815290600101906020018083116119b057829003601f168201915b505050505081526020016006820180546119e690615cc9565b80601f0160208091040260200160405190810160405280929190818152602001828054611a1290615cc9565b8015611a5f5780601f10611a3457610100808354040283529160200191611a5f565b820191906000526020600020905b815481529060010190602001808311611a4257829003601f168201915b50505050508152602001600782018054611a7890615cc9565b80601f0160208091040260200160405190810160405280929190818152602001828054611aa490615cc9565b8015611af15780601f10611ac657610100808354040283529160200191611af1565b820191906000526020600020905b815481529060010190602001808311611ad457829003601f168201915b5050509183525050600882015460ff161515602082015260098201546040820152600a9091015460609091015292915050565b600280546001600160a01b0319166001600160a01b0392909216919091179055565b6000808211611b705760405162461bcd60e51b8152600401611b67906159b0565b60405180910390fd5b6002546001600160a01b039081166000908152601d602090815260408083208488168085529252909120549091161415611c5557600280546001600160a01b039081166000908152601d602090815260408083209388168352929052200154611bd98382615c6e565b600280546001600160a01b039081166000908152601d60209081526040808320938a168084529390915290819020909201839055905191925042917f11cccc9b3fbc8fd163c4dbf6c7afdce1433c5cf351f29596a006f3720f648c2090611c439088908890615a63565b60405180910390a36001915050611c59565b5060005b92915050565b60006017826040516111d49190615692565b336000908152601160209081526040808320805482518185028101850190935280835260609492939192909184015b82821015611e3f5760008481526020908190206040805160e081018252600786029092018054835260018101546001600160a01b0390811694840194909452600281015484169183019190915260038101549092166060820152600482018054919291608084019190611d1290615cc9565b80601f0160208091040260200160405190810160405280929190818152602001828054611d3e90615cc9565b8015611d8b5780601f10611d6057610100808354040283529160200191611d8b565b820191906000526020600020905b815481529060010190602001808311611d6e57829003601f168201915b50505050508152602001600582018054611da490615cc9565b80601f0160208091040260200160405190810160405280929190818152602001828054611dd090615cc9565b8015611e1d5780601f10611df257610100808354040283529160200191611e1d565b820191906000526020600020905b815481529060010190602001808311611e0057829003601f168201915b5050505050815260200160068201548152505081526020019060010190611ca0565b50505050905090565b60408051808201825283815260208082018490526001600160a01b0386166000908152601b82529283208054600181018255908452928190208251805193948594600290910290920192611ea1928492909101906147e4565b506020828101518051611eba92600185019201906147e4565b50505080601c84604051611ece9190615692565b90815260200160405180910390206000820151816000019080519060200190611ef89291906147e4565b506020828101518051611f1192600185019201906147e4565b50505050505050565b611f226149a8565b601c82604051611f329190615692565b9081526020016040518091039020604051806040016040529081600082018054611f5b90615cc9565b80601f0160208091040260200160405190810160405280929190818152602001828054611f8790615cc9565b8015611fd45780601f10611fa957610100808354040283529160200191611fd4565b820191906000526020600020905b815481529060010190602001808311611fb757829003601f168201915b50505050508152602001600182018054610ea990615cc9565b6002546001600160a01b039081166000908152601d6020908152604080832093851683529290529081206003015460ff161561202b57506001610c1b565b506000610c1b565b6000816040516020016120469190615692565b604051602081830303815290604052805190602001208360405160200161206d9190615692565b6040516020818303038152906040528051906020012014905092915050565b6002546001600160a01b031690565b6120a5848361166f565b806014856040516120b69190615692565b908152602001604051809103902060008201518160000190805190602001906120e09291906147e4565b5060208281015180516120f992600185019201906147e4565b50604082015180516121159160028401916020909101906147e4565b50606082015180516121319160038401916020909101906147e4565b506080820151805161214d9160048401916020909101906147e4565b50905050826017856040516121629190615692565b908152602001604051809103902081905550611177846040518060400160405280601081526020016f50524f44554354494f4e2d524541445960801b8152506107aa565b60016000808282546121b89190615c6e565b90915550506040805160e08101825260008054808352336020808501919091526001600160a01b038a811685870152891660608501526080840188905260a084018790524260c0850152908252601a81529290208351919261221d92908501906147e4565b50805160009081526012602090815260409182902083518155818401516001820180546001600160a01b03199081166001600160a01b039384161790915593850151600283018054861691831691909117905560608501516003830180549095169116179092556080830151805184939261229f9260048501929101906147e4565b5060a082015180516122bb9160058401916020909101906147e4565b5060c091909101516006909101553360009081526011602090815260408083208054600180820183559185529383902085516007909502019384558483015190840180546001600160a01b03199081166001600160a01b0393841617909155918501516002850180548416918316919091179055606085015160038501805490931691161790556080830151805184939261235d9260048501929101906147e4565b5060a082015180516123799160058401916020909101906147e4565b5060c08201518160060155505042336001600160a01b03167f530abb16f843103fba748c032a23827a5140b72d210f41d8bbbc183708de52406040516123be906159d1565b60405180910390a3505050505050565b6123d6614868565b601382604051610c389190615692565b60016000808282546123f89190615c6e565b90915550506040805160c08101825260008054808352336020808501919091526001600160a01b0389168486015260608401889052608084018790524260a0850152908252601a81529290208351919261245592908501906147e4565b50336000908152600f602090815260408083208054600180820183559185529383902085516006909502019384558483015190840180546001600160a01b03199081166001600160a01b0393841617909155918501516002850180549093169116179055606083015180518493926124d49260038501929101906147e4565b50608082015180516124f09160048401916020909101906147e4565b5060a09190910151600590910155805160009081526010602090815260409182902083518155818401516001820180546001600160a01b03199081166001600160a01b039384161790915593850151600283018054909516911617909255606083015180518493926125699260038501929101906147e4565b50608082015180516125859160048401916020909101906147e4565b5060a0820151816005015590505042336001600160a01b03167f530abb16f843103fba748c032a23827a5140b72d210f41d8bbbc183708de52406040516125cb90615ad2565b60405180910390a35050505050565b60606008826040516125ec9190615692565b9081526020016040518091039020805480602002602001604051908101604052809291908181526020016000905b82821015610c1457838290600052602060002090600602016040518060c001604052908160008201805461264d90615cc9565b80601f016020809104026020016040519081016040528092919081815260200182805461267990615cc9565b80156126c65780601f1061269b576101008083540402835291602001916126c6565b820191906000526020600020905b8154815290600101906020018083116126a957829003601f168201915b505050505081526020016001820180546126df90615cc9565b80601f016020809104026020016040519081016040528092919081815260200182805461270b90615cc9565b80156127585780601f1061272d57610100808354040283529160200191612758565b820191906000526020600020905b81548152906001019060200180831161273b57829003601f168201915b5050505050815260200160028201805461277190615cc9565b80601f016020809104026020016040519081016040528092919081815260200182805461279d90615cc9565b80156127ea5780601f106127bf576101008083540402835291602001916127ea565b820191906000526020600020905b8154815290600101906020018083116127cd57829003601f168201915b5050505050815260200160038201805461280390615cc9565b80601f016020809104026020016040519081016040528092919081815260200182805461282f90615cc9565b801561287c5780601f106128515761010080835404028352916020019161287c565b820191906000526020600020905b81548152906001019060200180831161285f57829003601f168201915b5050505050815260200160048201805461289590615cc9565b80601f01602080910402602001604051908101604052809291908181526020018280546128c190615cc9565b801561290e5780601f106128e35761010080835404028352916020019161290e565b820191906000526020600020905b8154815290600101906020018083116128f157829003601f168201915b5050505050815260200160058201805461292790615cc9565b80601f016020809104026020016040519081016040528092919081815260200182805461295390615cc9565b80156129a05780601f10612975576101008083540402835291602001916129a0565b820191906000526020600020905b81548152906001019060200180831161298357829003601f168201915b5050505050815250508152602001906001019061261a565b60606003805480602002602001604051908101604052809291908181526020016000905b82821015611e3f576000848152602090819020604080516101608101909152600b850290910180546001600160a01b031682526001810180549293919291840191612a2690615cc9565b80601f0160208091040260200160405190810160405280929190818152602001828054612a5290615cc9565b8015612a9f5780601f10612a7457610100808354040283529160200191612a9f565b820191906000526020600020905b815481529060010190602001808311612a8257829003601f168201915b50505050508152602001600282018054612ab890615cc9565b80601f0160208091040260200160405190810160405280929190818152602001828054612ae490615cc9565b8015612b315780601f10612b0657610100808354040283529160200191612b31565b820191906000526020600020905b815481529060010190602001808311612b1457829003601f168201915b5050505050815260200160038201548152602001600482018054612b5490615cc9565b80601f0160208091040260200160405190810160405280929190818152602001828054612b8090615cc9565b8015612bcd5780601f10612ba257610100808354040283529160200191612bcd565b820191906000526020600020905b815481529060010190602001808311612bb057829003601f168201915b50505050508152602001600582018054612be690615cc9565b80601f0160208091040260200160405190810160405280929190818152602001828054612c1290615cc9565b8015612c5f5780601f10612c3457610100808354040283529160200191612c5f565b820191906000526020600020905b815481529060010190602001808311612c4257829003601f168201915b50505050508152602001600682018054612c7890615cc9565b80601f0160208091040260200160405190810160405280929190818152602001828054612ca490615cc9565b8015612cf15780601f10612cc657610100808354040283529160200191612cf1565b820191906000526020600020905b815481529060010190602001808311612cd457829003601f168201915b50505050508152602001600782018054612d0a90615cc9565b80601f0160208091040260200160405190810160405280929190818152602001828054612d3690615cc9565b8015612d835780601f10612d5857610100808354040283529160200191612d83565b820191906000526020600020905b815481529060010190602001808311612d6657829003601f168201915b5050509183525050600882015460ff16151560208083019190915260098301546040830152600a9092015460609091015290825260019290920191016129dc565b3360008181526005602081815260408084206001600160a01b03969096168452948152848320805460ff19908116909155918152848320938352929092529190912080549091169055565b6060600a82604051612e219190615692565b90815260200160405180910390208054612e3a90615cc9565b80601f0160208091040260200160405190810160405280929190818152602001828054612e6690615cc9565b8015612eb35780601f10612e8857610100808354040283529160200191612eb3565b820191906000526020600020905b815481529060010190602001808311612e9657829003601f168201915b50505050509050919050565b6001600160a01b03918216600090815260056020908152604080832093909416825291909152205460ff1690565b6001600160a01b0381166000908152601b60209081526040808320805482518185028101850190935280835260609492939192909184015b82821015610c145783829060005260206000209060020201604051806040016040529081600082018054612f5890615cc9565b80601f0160208091040260200160405190810160405280929190818152602001828054612f8490615cc9565b8015612fd15780601f10612fa657610100808354040283529160200191612fd1565b820191906000526020600020905b815481529060010190602001808311612fb457829003601f168201915b50505050508152602001600182018054612fea90615cc9565b80601f016020809104026020016040519081016040528092919081815260200182805461301690615cc9565b80156130635780601f1061303857610100808354040283529160200191613063565b820191906000526020600020905b81548152906001019060200180831161304657829003601f168201915b50505050508152505081526020019060010190612f25565b60408051610160810182523380825260208083018d81528385018d9052606084018c9052608084018b905260a084018a905260c0840189905260e084018890528615156101008501524261012085015261014084018690526000928352600d8252938220805460018082018355918452928290208451600b9094020180546001600160a01b0319166001600160a01b03909416939093178355935180519394859461312d9391850192909101906147e4565b50604082015180516131499160028401916020909101906147e4565b50606082015160038201556080820151805161316f9160048401916020909101906147e4565b5060a0820151805161318b9160058401916020909101906147e4565b5060c082015180516131a79160068401916020909101906147e4565b5060e082015180516131c39160078401916020909101906147e4565b5061010082015160088201805460ff1916911515919091179055610120820151600982015561014090910151600a909101556040518190600e90613208908d90615692565b90815260405160209181900382019020825181546001600160a01b0319166001600160a01b03909116178155828201518051919261324e926001850192909101906147e4565b506040820151805161326a9160028401916020909101906147e4565b5060608201516003820155608082015180516132909160048401916020909101906147e4565b5060a082015180516132ac9160058401916020909101906147e4565b5060c082015180516132c89160068401916020909101906147e4565b5060e082015180516132e49160078401916020909101906147e4565b5061010082015160088201805460ff1916911515919091179055610120820151600982015561014090910151600a909101556003805460018101825560009190915281517fc2575a0e9e593c00f959f8c92f12db2869c3395a3b0502d05e2516446f71f85b600b90920291820180546001600160a01b0319166001600160a01b03909216919091178155602080840151805185946133a8937fc2575a0e9e593c00f959f8c92f12db2869c3395a3b0502d05e2516446f71f85c9091019201906147e4565b50604082015180516133c49160028401916020909101906147e4565b5060608201516003820155608082015180516133ea9160048401916020909101906147e4565b5060a082015180516134069160058401916020909101906147e4565b5060c082015180516134229160068401916020909101906147e4565b5060e0820151805161343e9160078401916020909101906147e4565b5061010082015160088201805460ff1916911515919091179055610120820151600982015561014090910151600a9091015561347b338b88611e48565b50505050505050505050565b336000908152600f60209081526040808320805482518185028101850190935280835260609492939192909184015b82821015611e3f5760008481526020908190206040805160c081018252600686029092018054835260018101546001600160a01b039081169484019490945260028101549093169082015260038201805491929160608401919061351990615cc9565b80601f016020809104026020016040519081016040528092919081815260200182805461354590615cc9565b80156135925780601f1061356757610100808354040283529160200191613592565b820191906000526020600020905b81548152906001019060200180831161357557829003601f168201915b505050505081526020016004820180546135ab90615cc9565b80601f01602080910402602001604051908101604052809291908181526020018280546135d790615cc9565b80156136245780601f106135f957610100808354040283529160200191613624565b820191906000526020600020905b81548152906001019060200180831161360757829003601f168201915b50505050508152602001600582015481525050815260200190600101906134b6565b3360009081526005602090815260408083206001600160a01b03949094168352929052205460ff1690565b60006018826040516111d49190615692565b806019836040516136949190615692565b908152602001604051809103902060008201518160000190805190602001906136be9291906147e4565b5060208281015180516136d792600185019201906147e4565b50604082015180516136f39160028401916020909101906147e4565b506060820151805161370f9160038401916020909101906147e4565b506080820151805161372b9160048401916020909101906147e4565b5060a082015180516137479160058401916020909101906147e4565b5050505050565b6060600982604051612e219190615692565b6137686149c2565b6019826040516137789190615692565b90815260200160405180910390206040518060c00160405290816000820180546137a190615cc9565b80601f01602080910402602001604051908101604052809291908181526020018280546137cd90615cc9565b801561381a5780601f106137ef5761010080835404028352916020019161381a565b820191906000526020600020905b8154815290600101906020018083116137fd57829003601f168201915b5050505050815260200160018201805461383390615cc9565b80601f016020809104026020016040519081016040528092919081815260200182805461385f90615cc9565b80156138ac5780601f10613881576101008083540402835291602001916138ac565b820191906000526020600020905b81548152906001019060200180831161388f57829003601f168201915b505050505081526020016002820180546138c590615cc9565b80601f01602080910402602001604051908101604052809291908181526020018280546138f190615cc9565b801561393e5780601f106139135761010080835404028352916020019161393e565b820191906000526020600020905b81548152906001019060200180831161392157829003601f168201915b5050505050815260200160038201805461395790615cc9565b80601f016020809104026020016040519081016040528092919081815260200182805461398390615cc9565b80156139d05780601f106139a5576101008083540402835291602001916139d0565b820191906000526020600020905b8154815290600101906020018083116139b357829003601f168201915b505050505081526020016004820180546139e990615cc9565b80601f0160208091040260200160405190810160405280929190818152602001828054613a1590615cc9565b8015613a625780601f10613a3757610100808354040283529160200191613a62565b820191906000526020600020905b815481529060010190602001808311613a4557829003601f168201915b50505050508152602001600582018054610ea990615cc9565b6060600c82604051613a8d9190615692565b9081526020016040518091039020805480602002602001604051908101604052809291908181526020016000905b82821015610c14578382906000526020600020018054613ada90615cc9565b80601f0160208091040260200160405190810160405280929190818152602001828054613b0690615cc9565b8015613b535780601f10613b2857610100808354040283529160200191613b53565b820191906000526020600020905b815481529060010190602001808311613b3657829003601f168201915b505050505081526020019060010190613abb565b600280546001600160a01b039081166000908152601d60209081526040808320938816835292905290812090910154821115613bb55760405162461bcd60e51b8152600401611b6790615a3a565b6002546001600160a01b039081166000908152601d60209081526040808320848916808552925290912054909116148015613c2057506002546001600160a01b039081166000908152601d602090815260408083209387168352929052206003015460ff1615156001145b15613d0b57600280546001600160a01b039081166000908152601d6020908152604080832089851684529091528082208401549287168252902090910154613c688483615c86565b9150613c748482615c6e565b600280546001600160a01b039081166000908152601d602081815260408084208d861680865290835281852087018a9055865486168552928252808420948c168452939052908290209092018390555191925042917f11cccc9b3fbc8fd163c4dbf6c7afdce1433c5cf351f29596a006f3720f648c2090613cf89089908990615a9a565b60405180910390a3600192505050613d0f565b5060005b9392505050565b80601384604051613d279190615692565b90815260200160405180910390206000820151816000019080519060200190613d519291906147e4565b506020828101518051613d6a92600185019201906147e4565b5060408201518051613d869160028401916020909101906147e4565b5060608201518051613da29160038401916020909101906147e4565b5060808201518051613dbe9160048401916020909101906147e4565b5090505081601684604051613dd39190615692565b90815260405190819003602001902055505050565b60606004805480602002602001604051908101604052809291908181526020016000905b82821015611e3f57600084815260209081902060408051608081019091526004850290910180546001600160a01b031682526001810180549293919291840191613e5590615cc9565b80601f0160208091040260200160405190810160405280929190818152602001828054613e8190615cc9565b8015613ece5780601f10613ea357610100808354040283529160200191613ece565b820191906000526020600020905b815481529060010190602001808311613eb157829003601f168201915b50505050508152602001600282018054613ee790615cc9565b80601f0160208091040260200160405190810160405280929190818152602001828054613f1390615cc9565b8015613f605780601f10613f3557610100808354040283529160200191613f60565b820191906000526020600020905b815481529060010190602001808311613f4357829003601f168201915b50505050508152602001600382018054613f7990615cc9565b80601f0160208091040260200160405190810160405280929190818152602001828054613fa590615cc9565b8015613ff25780601f10613fc757610100808354040283529160200191613ff2565b820191906000526020600020905b815481529060010190602001808311613fd557829003601f168201915b50505050508152505081526020019060010190613e0c565b6000818152601a60205260409020805460609190612e3a90615cc9565b6001600160a01b0383166000908152601b6020526040812080546141019285929161406257634e487b7160e01b600052603260045260246000fd5b9060005260206000209060020201600001805461407e90615cc9565b80601f01602080910402602001604051908101604052809291908181526020018280546140aa90615cc9565b80156140f75780601f106140cc576101008083540402835291602001916140f7565b820191906000526020600020905b8154815290600101906020018083116140da57829003601f168201915b5050505050612033565b156107ef576001600160a01b0383166000908152601b60205260408120805483929061413d57634e487b7160e01b600052603260045260246000fd5b906000526020600020906002020160010190805190602001906141619291906147e4565b5080601c836040516141739190615692565b908152602001604051809103902060010190805190602001906111779291906147e4565b806015846040516141a89190615692565b908152602001604051809103902060008201518160000190805190602001906141d29291906147e4565b5060208281015180516141eb92600185019201906147e4565b50604082015180516142079160028401916020909101906147e4565b50606082015180516142239160038401916020909101906147e4565b506080820151805161423f9160048401916020909101906147e4565b5090505081601884604051613dd39190615692565b60006040518060c001604052808881526020018781526020018481526020018681526020018581526020018381525090506008886040516142959190615692565b9081526040516020918190038201902080546001810182556000918252908290208351805185946006909402909201926142d4928492909101906147e4565b5060208281015180516142ed92600185019201906147e4565b50604082015180516143099160028401916020909101906147e4565b50606082015180516143259160038401916020909101906147e4565b50608082015180516143419160048401916020909101906147e4565b5060a0820151805161435d9160058401916020909101906147e4565b505050614369886145d5565b614395886040518060400160405280600a815260200169149151d254d51154915160b21b8152506107aa565b5050505050505050565b6001600160a01b0381166000908152600760209081526040808320805482518185028101850190935280835260609492939192909184015b82821015610c1457600084815260209081902060408051608081019091526004850290910180546001600160a01b03168252600181018054929391929184019161442090615cc9565b80601f016020809104026020016040519081016040528092919081815260200182805461444c90615cc9565b80156144995780601f1061446e57610100808354040283529160200191614499565b820191906000526020600020905b81548152906001019060200180831161447c57829003601f168201915b505050505081526020016002820180546144b290615cc9565b80601f01602080910402602001604051908101604052809291908181526020018280546144de90615cc9565b801561452b5780601f106145005761010080835404028352916020019161452b565b820191906000526020600020905b81548152906001019060200180831161450e57829003601f168201915b5050505050815260200160038201805461454490615cc9565b80601f016020809104026020016040519081016040528092919081815260200182805461457090615cc9565b80156145bd5780601f10614592576101008083540402835291602001916145bd565b820191906000526020600020905b8154815290600101906020018083116145a057829003601f168201915b505050505081525050815260200190600101906143d7565b6008816040516145e59190615692565b908152602001604051809103902060008154811061461357634e487b7160e01b600052603260045260246000fd5b90600052602060002090600602016002016009826040516146349190615692565b908152602001604051809103902090805461464e90615cc9565b6146599291906149f8565b5050565b600280546001600160a01b039081166000908152601d6020908152604080832093871683529290529081209091015482106146aa5760405162461bcd60e51b8152600401611b6790615a3a565b6002546001600160a01b039081166000908152601d602090815260408083208488168085529252909120549091161415611c5557600280546001600160a01b039081166000908152601d6020908152604080832093881683529290522001546147138382615c86565b600280546001600160a01b039081166000908152601d60209081526040808320938a168084529390915290819020909201839055905191925042917f11cccc9b3fbc8fd163c4dbf6c7afdce1433c5cf351f29596a006f3720f648c2090611c439088908890615a00565b6002546001600160a01b039081166000908152601d6020908152604080832084861680855292528220549192919091161415610c1b5750600280546001600160a01b039081166000908152601d602090815260408083209386168352929052200154610c1b565b8280546147f090615cc9565b90600052602060002090601f0160209004810192826148125760008555614858565b82601f1061482b57805160ff1916838001178555614858565b82800160010185558215614858579182015b8281111561485857825182559160200191906001019061483d565b50614864929150614a73565b5090565b6040518060a0016040528060608152602001606081526020016060815260200160608152602001606081525090565b604051806080016040528060006001600160a01b031681526020016060815260200160608152602001606081525090565b6040518060c001604052806000815260200160006001600160a01b0316815260200160006001600160a01b031681526020016060815260200160608152602001600081525090565b604051806080016040528060006001600160a01b0316815260200160608152602001600081526020016000151581525090565b60405180610160016040528060006001600160a01b031681526020016060815260200160608152602001600081526020016060815260200160608152602001606081526020016060815260200160001515815260200160008152602001600081525090565b604051806040016040528060608152602001606081525090565b6040518060c001604052806060815260200160608152602001606081526020016060815260200160608152602001606081525090565b828054614a0490615cc9565b90600052602060002090601f016020900481019282614a265760008555614858565b82601f10614a375780548555614858565b8280016001018555821561485857600052602060002091601f016020900482015b82811115614858578254825591600101919060010190614a58565b5b808211156148645760008155600101614a74565b80356001600160a01b0381168114610c1b57600080fd5b80358015158114610c1b57600080fd5b600082601f830112614abf578081fd5b81356001600160401b03811115614ad857614ad8615d1a565b614aeb601f8201601f1916602001615c45565b818152846020838601011115614aff578283fd5b816020850160208301379081016020019190915292915050565b600060a08284031215614b2a578081fd5b614b3460a0615c45565b905081356001600160401b0380821115614b4d57600080fd5b614b5985838601614aaf565b83526020840135915080821115614b6f57600080fd5b614b7b85838601614aaf565b60208401526040840135915080821115614b9457600080fd5b614ba085838601614aaf565b60408401526060840135915080821115614bb957600080fd5b614bc585838601614aaf565b60608401526080840135915080821115614bde57600080fd5b50614beb84828501614aaf565b60808301525092915050565b600060208284031215614c08578081fd5b613d0f82614a88565b60008060408385031215614c23578081fd5b614c2c83614a88565b9150614c3a60208401614a88565b90509250929050565b600080600080600060a08688031215614c5a578081fd5b614c6386614a88565b9450614c7160208701614a88565b935060408601356001600160401b0380821115614c8c578283fd5b614c9889838a01614aaf565b94506060880135915080821115614cad578283fd5b614cb989838a01614aaf565b93506080880135915080821115614cce578283fd5b50614cdb88828901614aaf565b9150509295509295909350565b600080600060608486031215614cfc578283fd5b614d0584614a88565b9250614d1360208501614a88565b9150604084013590509250925092565b60008060408385031215614d35578182fd5b614d3e83614a88565b915060208301356001600160401b03811115614d58578182fd5b614d6485828601614aaf565b9150509250929050565b600080600060608486031215614d82578283fd5b614d8b84614a88565b925060208401356001600160401b0380821115614da6578384fd5b614db287838801614aaf565b93506040860135915080821115614dc7578283fd5b50614dd486828701614aaf565b9150509250925092565b60008060008060808587031215614df3578384fd5b614dfc85614a88565b935060208501356001600160401b0380821115614e17578485fd5b614e2388838901614aaf565b94506040870135915080821115614e38578384fd5b614e4488838901614aaf565b93506060870135915080821115614e59578283fd5b50614e6687828801614aaf565b91505092959194509250565b60008060408385031215614e84578182fd5b614e8d83614a88565b946020939093013593505050565b600060208284031215614eac578081fd5b81356001600160401b03811115614ec1578182fd5b614ecd84828501614aaf565b949350505050565b60008060408385031215614ee7578182fd5b82356001600160401b0380821115614efd578384fd5b614f0986838701614aaf565b93506020850135915080821115614f1e578283fd5b50614d6485828601614aaf565b600080600060608486031215614f3f578283fd5b83356001600160401b0380821115614f55578485fd5b614f6187838801614aaf565b94506020860135915080821115614da6578384fd5b600080600080600080600060e0888a031215614f90578485fd5b87356001600160401b0380821115614fa6578687fd5b614fb28b838c01614aaf565b985060208a0135915080821115614fc7578687fd5b614fd38b838c01614aaf565b975060408a0135915080821115614fe8578687fd5b614ff48b838c01614aaf565b965060608a0135915080821115615009578384fd5b6150158b838c01614aaf565b955060808a013591508082111561502a578384fd5b6150368b838c01614aaf565b945060a08a013591508082111561504b578384fd5b6150578b838c01614aaf565b935060c08a013591508082111561506c578283fd5b506150798a828b01614aaf565b91505092959891949750929550565b60008060008060008060008060006101208a8c0312156150a6578283fd5b89356001600160401b03808211156150bc578485fd5b6150c88d838e01614aaf565b9a5060208c01359150808211156150dd578485fd5b6150e98d838e01614aaf565b995060408c0135985060608c0135915080821115615105578485fd5b6151118d838e01614aaf565b975060808c0135915080821115615126578485fd5b6151328d838e01614aaf565b965060a08c0135915080821115615147578485fd5b6151538d838e01614aaf565b955060c08c0135915080821115615168578485fd5b506151758c828d01614aaf565b93505061518460e08b01614a9f565b91506101008a013590509295985092959850929598565b600080604083850312156151ad578182fd5b82356001600160401b03808211156151c3578384fd5b6151cf86838701614aaf565b935060208501359150808211156151e4578283fd5b9084019060c082870312156151f7578283fd5b61520160c0615c45565b82358281111561520f578485fd5b61521b88828601614aaf565b82525060208301358281111561522f578485fd5b61523b88828601614aaf565b602083015250604083013582811115615252578485fd5b61525e88828601614aaf565b604083015250606083013582811115615275578485fd5b61528188828601614aaf565b606083015250608083013582811115615298578485fd5b6152a488828601614aaf565b60808301525060a0830135828111156152bb578485fd5b6152c788828601614aaf565b60a0830152508093505050509250929050565b600080600080608085870312156152ef578182fd5b84356001600160401b0380821115615305578384fd5b61531188838901614aaf565b955060208701359450604087013591508082111561532d578384fd5b61533988838901614aaf565b9350606087013591508082111561534e578283fd5b50614e6687828801614b19565b60008060006060848603121561536f578081fd5b83356001600160401b0380821115615385578283fd5b61539187838801614aaf565b94506020860135935060408601359150808211156153ad578283fd5b50614dd486828701614b19565b6000602082840312156153cb578081fd5b5035919050565b6001600160a01b03169052565b15159052565b600081518084526153fd816020860160208601615c9d565b601f01601f19169290920160200192915050565b600081516040845261542660408501826153e5565b90506020830151848203602086015261543f82826153e5565b95945050505050565b6000815160c0845261545d60c08501826153e5565b90506020830151848203602086015261547682826153e5565b9150506040830151848203604086015261549082826153e5565b915050606083015184820360608601526154aa82826153e5565b915050608083015184820360808601526154c482826153e5565b91505060a083015184820360a086015261543f82826153e5565b60006101606154ee8484516153d2565b6020830151816020860152615505828601826153e5565b9150506040830151848203604086015261551f82826153e5565b915050606083015160608501526080830151848203608086015261554382826153e5565b91505060a083015184820360a086015261555d82826153e5565b91505060c083015184820360c086015261557782826153e5565b91505060e083015184820360e086015261559182826153e5565b915050610100808401516155a7828701826153df565b505061012083810151908501526101409283015192909301919091525090565b600060018060a01b0382511683526020820151608060208501526155ee60808501826153e5565b90506040830151848203604086015261560782826153e5565b9150506060830151848203606086015261543f82826153e5565b600081518352602082015160018060a01b0380821660208601528060408501511660408601525050606082015160c0606085015261566260c08501826153e5565b90506080830151848203608086015261567b82826153e5565b91505060a083015160a08501528091505092915050565b600082516156a4818460208701615c9d565b9190910192915050565b6001600160a01b0391909116815260200190565b6000602080830181845280855180835260408601915060408482028701019250838701855b8281101561571557603f198886030184526157038583516153e5565b945092850192908501906001016156e7565b5092979650505050505050565b60208082528251828201819052600091906040908185019080840286018301878501865b838110156157e557888303603f19018552815180518452878101516001600160a01b039081168986015287820151168785015260608082015160e0919061578f828801826153d2565b505060808083015182828801526157a8838801826153e5565b9250505060a080830151868303828801526157c383826153e5565b60c0948501519790940196909652505094870194925090860190600101615746565b509098975050505050505050565b6000602080830181845280855180835260408601915060408482028701019250838701855b8281101561571557603f19888603018452615834858351615411565b94509285019290850190600101615818565b6000602080830181845280855180835260408601915060408482028701019250838701855b8281101561571557603f198886030184526158878583516154de565b9450928501929085019060010161586b565b6000602080830181845280855180835260408601915060408482028701019250838701855b8281101561571557603f198886030184526158da8583516155c7565b945092850192908501906001016158be565b6000602080830181845280855180835260408601915060408482028701019250838701855b8281101561571557603f1988860301845261592d858351615621565b94509285019290850190600101615911565b6000602080830181845280855180835260408601915060408482028701019250838701855b8281101561571557603f19888603018452615980858351615448565b94509285019290850190600101615964565b901515815260200190565b600060208252613d0f60208301846153e5565b6020808252600790820152661253959053125160ca1b604082015260600190565b60208082526015908201527410905510d208149154555154d50810d49150551151605a1b604082015260600190565b6060808252600a908201526915d2551211149055d05360b21b60808201526001600160a01b03929092166020830152604082015260a00190565b6020808252600f908201526e125394d551919250d2515395109053608a1b604082015260600190565b60608082526007908201526611115413d4d25560ca1b60808201526001600160a01b03929092166020830152604082015260a00190565b6060808252600890820152672a2920a729a322a960c11b60808201526001600160a01b03929092166020830152604082015260a00190565b6020808252600f908201526e149154555154d50810d49150551151608a1b604082015260600190565b602080825282516001600160a01b03168282015282015160806040830152600090615b2960a08401826153e5565b9050604084015160608401526060840151151560808401528091505092915050565b600060208252825160a06020840152615b6760c08401826153e5565b90506020840151601f1980858403016040860152615b8583836153e5565b92506040860151915080858403016060860152615ba283836153e5565b92506060860151915080858403016080860152615bbf83836153e5565b925060808601519150808584030160a08601525061543f82826153e5565b600060208252613d0f6020830184615411565b600060208252613d0f6020830184615448565b600060208252613d0f60208301846154de565b600060208252613d0f60208301846155c7565b600060208252613d0f6020830184615621565b90815260200190565b6040518181016001600160401b0381118282101715615c6657615c66615d1a565b604052919050565b60008219821115615c8157615c81615d04565b500190565b600082821015615c9857615c98615d04565b500390565b60005b83811015615cb8578181015183820152602001615ca0565b838111156111775750506000910152565b600281046001821680615cdd57607f821691505b60208210811415615cfe57634e487b7160e01b600052602260045260246000fd5b50919050565b634e487b7160e01b600052601160045260246000fd5b634e487b7160e01b600052604160045260246000fdfea2646970667358221220d3ff08edf01f8766983c7443f28e758d9d60c2dfcd33213883cf37df7138c8a164736f6c63430008000033",
  "immutableReferences": {},
  "source": "// \"SPDX-License-Identifier: UNLICENSED\"\n// PRODUCT MANAGEMENT AND COST MANAGEMENT GOES HERE\npragma solidity >=0.6.2;\npragma experimental ABIEncoderV2;  \n\n  interface PharmaChainInterface {\n         function   strComp(string memory x , string memory y ) external pure returns (bool);\n         event      requestStateUpdate  (address indexed who, uint indexed timestamp , string  state);\n         event      BankTransact        (string txName, address indexed _from , address  _to , uint _amount , uint indexed timestamp);\n    }\n\n\ncontract PharmaChain {\n    \n  \n// CONTRACT CONTENT GOES HERE\n    \n    // UTILS\n    \n    function strComp(string memory x , string memory y ) public pure returns (bool){\n        \n        return (keccak256(abi.encodePacked((x))) == keccak256(abi.encodePacked((y))));\n        \n    }\n    \n    \n    \n    // END OF UTILS\n\n    \n    uint        trackNoCount = 0;\n    address     admin;\n    address     bank;\n    Material[]  materialArr;\n    Product[]   productArr;\n    mapping (address => mapping(address => bool)) participants;   // trusted participants\n    mapping (address => address[])            trustedPartis; // participants and trusted other trusted mapping for array\n    mapping (address => Product[])          products;    // manufacturer and product\n    mapping (string => Specs[])             productSpecs; // productID and material \n    mapping (string => string)                stdMaterialQty; // std mateiral qty used in product (id) unit\n    mapping (string => string)                actMaterialQty; //  actual material qty used in product (id) unit \n    mapping (string => Product)             productList; // product by id\n    mapping (string => string[])            productPhase; // product id and phases;\n    mapping (address => Material[])         materials;   //Participant(supplier) and material\n    mapping (string => Material)            materialList; // materials by id\n    mapping (address => Request[])          requests;   // participant and requests\n    mapping (uint => Request)               requestList; // requests by id\n    mapping (address => BatchRequest[])     batchRequests; //participant and batch requests\n    mapping (uint => BatchRequest)          batchRequestsList; // request id\n    mapping (string => Cost)                standardProductCosts;\n    mapping (string => Cost)                actualProductCosts;\n    mapping (string => Cost)                flexibleProductCosts;\n    mapping (string => uint)                standardBudgetUnits;\n    mapping (string => uint)                actualBudgetUnits;\n    mapping (string => uint)                flexibleBudgetUnits;\n    mapping (string => MaterialProductionCost) materialCostPlan;   // supplier's material cost data\n    mapping (uint => string)                  requestCost;    // requestId and Cost\n    mapping (address => InventoryItem[])    inventory;   // participant and items inventory\n    mapping (string => InventoryItem)       inventoryList;   // inventory item by item id\n    mapping (address => mapping (address => BankAccount) ) userBankAccounts; // bankAddr -> userAddr -> userAcc\n    event   requestStateUpdate  (address indexed who, uint indexed timestamp , string  state);\n    event   BankTransact        (string txName, address indexed _from , address  _to , uint _amount , uint indexed timestamp);\n    \n    struct BankAccount {\n    \n        address userId;\n        string  userName;\n        uint    userBalance;\n        bool    isActive;\n    }\n    \n    struct Product {\n        \n        address manufacturer;\n        string  productId; //registration no.\n        string  productName;\n        string  productForm; // tablets or capsules\n        \n    }\n    \n    struct Material {\n        address supplier;\n        string  materialID;\n        string  materialName;\n        uint    materialStrength;\n        string  materialForm;\n        string  createdAmount;\n        string    unitCost;\n        string  storageConditions;\n        bool    materialStability;\n        uint    materialManuDate;\n        uint    materialStabilityPeriod; // example 3 years\n    }\n    \n    \n    struct Specs {\n        string  materialName;\n        string  materialType;\n        string  materialAmount;\n        string  materialStrength;\n        string  materialForm;\n        string  materialUnitCost; // cost per total amount of material in a unit product\n        \n    }\n\n    struct Request {\n        uint    requestId;\n        address fromParti;\n        address toParti;\n        string  materialID;\n        string    amount;\n        uint    issueTime;\n    }\n    \n    struct BatchRequest {\n        uint    requestId;\n        address fromParti1;\n        address fromParti2;\n        address toParti;\n        string  materialID;\n        string  amount;\n        uint    issueTime;\n    }\n    \n    // Cost Per Product Unit \n    struct Cost {\n        string directMaterialCost;\n        string packagingMaterialCost;\n        string directLaborCost;\n        string totalDirectCost;\n        string CostTOT; // total direct + total indirect\n    }\n    \n    struct MaterialProductionCost {\n         string directMaterialCost;\n         string packagingMaterialCost;\n         string directLaborCost;\n         string shippingCost;\n         string totalDirectCost;\n         string CostTOT;\n    }\n    \n    \n    struct Location {\n        string Latitude;\n        string Longitude;\n    }\n    \n    struct InventoryItem {\n      string itemId;\n      string amount;\n    }\n    \n    // FUNCTIONS AND MODIFIERS\n    \n    // modifier onlyTrusted(address _participant) {\n    //     require(participants[msg.sender][_participant] == true);\n    //     _;\n    // }\n\n    function addToTrusted(address _participant) public  {\n        participants[msg.sender][_participant] = true;\n        participants[_participant][msg.sender] = true;\n        trustedPartis[msg.sender].push(_participant);\n    }   \n    \n    function removeFromTrusted(address _participant) public {\n        participants[msg.sender][_participant] = false;\n        participants[_participant][msg.sender] = false;\n    }\n    \n    function isTrusted(address _participant) public view returns (bool) {\n        return participants[msg.sender][_participant];\n    }\n    \n    function checkIfTrusted(address _truster, address _trustee) public view returns (bool) {\n        return participants[_truster][_trustee];\n    }\n    \n    function emitRequestStateEvent(string memory _state) public {\n         emit requestStateUpdate(msg.sender, block.timestamp , _state);\n    }\n    // MANUFACTURING STUFF GOES HERE\n    \n    function addProduct(\n    \n    string memory _id,\n    string memory _name,\n    string memory _pForm\n    \n    ) public {\n        \n        Product memory pro = Product({\n            productId: _id,\n            productName: _name,\n            productForm: _pForm,\n            manufacturer: msg.sender\n        });\n        \n        products[msg.sender].push(pro);\n        productList[_id] = pro;\n        productArr.push(pro);\n        setProductPhase(_id, 'UNDER-RESEARCH');\n    \n        \n    }\n    \n    function addProductSpecs(\n    \n    string memory _productID,\n    string memory _name,\n    string memory _type,\n    string memory _strength,\n    string memory _form,\n    string memory _amount,\n    string memory _unitCost\n    \n    ) public {\n    \n        Specs memory spec = Specs({\n            materialName: _name,\n            materialType: _type,\n            materialForm: _form,\n            materialAmount: _amount,\n            materialStrength: _strength,\n            materialUnitCost: _unitCost\n            \n        });      \n        \n        productSpecs[_productID].push(spec);\n        setStdMaterialQty(_productID);\n        setProductPhase(_productID , 'REGISTERED');\n        \n    }\n    \n      \n    function getProductsByManu(address _manufacturer) public view returns(Product[] memory) {\n        return products[_manufacturer];\n    }\n    \n    function getProducts() public view returns(Product[] memory) {\n        return productArr;\n    }\n    \n    function getProductById(string memory _id) public view returns(Product memory) {\n        return productList[_id];\n    }\n    \n    function getProductSpecs(string memory _product) public view returns(Specs[] memory) {\n        return productSpecs[_product];\n    }\n    \n    function setProductPhase(string memory _product , string memory _phase) public {\n        productPhase[_product].push(_phase);\n    }\n    \n    function getProductPhase(string memory _product) public view returns (string[] memory phases) {\n       return productPhase[_product];\n    }\n    \n    // END OF MANUFACTURING STUFF\n    // COST ACCOUNTING STUFF GOES HERE\n    \n    \n    function setStdCostPlan(\n    \n    string  memory  _product,\n    uint    _unitsNo,\n    Cost memory stdCosts\n    \n        ) public {\n    \n    standardProductCosts[_product] = stdCosts;\n    standardBudgetUnits[_product] = _unitsNo;\n    \n    }\n    \n    \n    function setStdMaterialQty(string memory _product) public {\n        stdMaterialQty[_product] = productSpecs[_product][0].materialAmount;\n    }\n    \n    \n    function getStdCostPlan(string memory _product) public view returns(Cost memory ) {\n        return standardProductCosts[_product];\n    }\n    \n    // function getStdCostPlanAsTrusted (string memory _product, address _invoker)\n    // public \n    // onlyTrusted(_invoker)\n    // view \n    // returns(Cost memory) {\n    // return standardProductCosts[_product];\n    // }\n    \n    function getStdBudgetUnits(string memory _product) public view returns (uint units ) {\n        return standardBudgetUnits[_product];\n    }\n    \n    function getStdMaterialQty(string memory _product) public view returns (string memory) {\n        return stdMaterialQty[_product];\n    }\n    \n    function setActualCost(\n    \n    string memory   _product,\n    uint   _unitsNo,\n    string memory   _actualMatQty,\n    Cost memory actualCosts\n    \n    ) public {\n        \n        setActualMaterialQty(_product,_actualMatQty);\n        actualProductCosts[_product] = actualCosts;\n        actualBudgetUnits[_product] = _unitsNo;\n        setProductPhase(_product, 'PRODUCTION-READY');\n    }\n    \n    \n    function getActualCost(string memory _product) public view returns(Cost memory) {\n        \n        return actualProductCosts[_product];\n    }\n    \n    function setActualMaterialQty (string memory _product , string memory _amount) public {\n        actMaterialQty[_product] = _amount;\n    }\n    \n    function getActualMaterialQty (string memory _product) public view returns (string memory) {\n        return actMaterialQty[_product];\n    }\n    \n    function getActualBudgetUnits(string memory _product) public view returns(uint units ) {\n        return actualBudgetUnits[_product];\n    }\n    \n    function setFlexibleCosts(\n    string memory   _product,\n    uint    _unitsNo,\n    Cost memory flex\n    )\n    public {\n    \n        \n        flexibleProductCosts[_product] = flex;\n        flexibleBudgetUnits[_product] = _unitsNo;\n        \n    }\n    \n    function getFlexibleCosts(string memory _product) public view returns (Cost memory) {\n        return flexibleProductCosts[_product];\n    }\n    \n    function getFlexibleBudgetUnits(string memory _product) public view returns(uint units) {\n        return flexibleBudgetUnits[_product];\n    }\n    \n    // END OF  COST ACCOUNTING STUF\n    \n    // SUPPLYING STUFF GOES HERE\n    \n    // Creation of Material By Supplier\n    \n    function createMaterial(\n    \n    string memory _id,\n    string memory _name,\n    uint          _str,\n    string memory _form,\n    string memory _amount,\n    string memory _unitCost,\n    string memory _storageConditions,\n    bool          _stability,\n    uint          _stabilityPeriod\n    \n    ) public {\n        \n        Material memory mat = Material({\n           supplier: msg.sender,\n           materialID:   _id,\n           materialName: _name,\n           materialForm: _form,\n           materialStrength: _str,\n           createdAmount: _amount,\n           unitCost:      _unitCost,\n           storageConditions: _storageConditions,\n           materialStability: _stability,\n           materialStabilityPeriod: _stabilityPeriod,\n           materialManuDate: block.timestamp\n        });\n\n        materials[msg.sender].push(mat);\n        materialList[_id] = mat;\n        materialArr.push(mat);\n        addToInventory(msg.sender, _id , _amount);\n        \n    }\n    \n    function setMaterialCostPlan (\n    string memory _materialID,\n    MaterialProductionCost memory matCost\n    )\n    \n    public {\n\n        materialCostPlan[_materialID] = matCost;\n        \n    }\n    \n    function getMaterialCostPlan(string memory _material) public view returns(MaterialProductionCost memory) {\n        return materialCostPlan[_material];\n    }\n    \n    \n    function getMaterialsBySupplier(address _supplier) public view returns(Material[] memory ) {\n        return materials[_supplier];\n    }\n    \n    \n    // Materials to filter through\n    \n    function getMaterials() public view returns(Material[] memory) {\n        return materialArr;\n    }\n    \n    function getMaterialById (string memory _materialId) public view returns(Material memory) {\n        return materialList[_materialId];\n    }\n    \n\n    function createRequest(\n    \n    address _to ,\n    string memory _materialId,\n    string memory _amount,\n    string memory _requestCost\n    )\n    public {\n        trackNoCount += 1;\n        Request memory req = Request({\n           requestId: trackNoCount,\n           fromParti: msg.sender,\n           toParti: _to,\n           materialID : _materialId,\n           amount: _amount,\n           issueTime: block.timestamp\n        });\n        \n        // requestCost[req.requestId] = req.amount * materialList[_materialId].unitCost; \n        requestCost[req.requestId] = _requestCost;\n        requests[msg.sender].push(req);\n        requestList[req.requestId] = req;\n        emit requestStateUpdate(msg.sender, block.timestamp , 'REQUEST CREATED');\n    }\n    \n    function createBatchRequest(\n    address _fromParti2,\n    address _to,\n    string memory _materialId,\n    string memory _amount,\n     string memory _requestCost\n    ) \n    public {\n        trackNoCount += 1;\n        BatchRequest memory batchReq = BatchRequest({\n            requestId: trackNoCount,\n            fromParti1: msg.sender,\n            fromParti2: _fromParti2,\n            toParti: _to,\n            materialID: _materialId,\n            amount: _amount,\n            issueTime: block.timestamp\n        });\n        \n        // requestCost[batchReq.requestId] = batchReq.amount * materialList[_materialId].unitCost;\n        requestCost[batchReq.requestId] = _requestCost;\n        batchRequestsList[batchReq.requestId] = batchReq;\n        batchRequests[msg.sender].push(batchReq);\n        emit requestStateUpdate(msg.sender, block.timestamp , 'BATCH REQUEST CREATED');\n        \n    }\n    \n    function getRequestCost(uint _id) public view returns(string memory) {\n        return requestCost[_id];\n    }\n    \n    function getMyRequests() public view returns (Request[] memory) {\n        \n        return requests[msg.sender];\n    }\n    \n    function getMyBatchRequests() public view returns (BatchRequest[] memory) {\n        return batchRequests[msg.sender];\n    }\n    \n    function getRequestById(uint _id) public view returns (Request memory) {\n        return requestList[_id];\n    }\n    \n    function addToInventory(address _participant , string memory _item , string memory _amount) public {\n        InventoryItem memory itm = InventoryItem({\n            itemId: _item,\n            amount: _amount\n        });\n        \n        inventory[_participant].push(itm);\n        inventoryList[_item] = itm;\n    }\n    \n    function updateInventory(address _participant , string memory _item , string memory _amount) public {\n        \n        if(strComp(_item, inventory[_participant][0].itemId) ) {\n            inventory[_participant][0].amount = _amount;\n            inventoryList[_item].amount = _amount;\n            \n        }\n    }\n    \n    function getInventory(address _participant) public view returns (InventoryItem[] memory) {\n        return inventory[_participant];\n    }\n    \n    function getInventoryItemById(string memory _item) public view returns (InventoryItem memory) {\n        return inventoryList[_item];\n    }\n    \n    // END OF SUPPLYING STUFF\n    // BANKING STUFF GOES HERE\n    \n    function setAsBank(address _addr) public {\n        bank = _addr;\n        \n    }\n    \n    function getBank() public view returns (address) {\n        return bank;\n    }\n    \n    function createBankAccount(address _userAddr, string memory _userName) public {\n        \n        BankAccount memory account = BankAccount({\n            \n            userId:  _userAddr,\n            userName: _userName,\n            userBalance: 0,\n            isActive: true\n            \n        });\n        \n        userBankAccounts[bank][_userAddr] = account;\n        \n    }\n    \n    function hasBankAccount(address _userAddr) public view returns (bool) {\n        if (userBankAccounts[bank][_userAddr].isActive != false) {\n            return true;\n        }\n        else {\n            return false;\n        }\n    }\n    \n    function deposit (address _userAddr, uint _amount) public returns (bool) {\n        \n        require (_amount > 0, 'INVALID');\n        if ( userBankAccounts[bank][_userAddr].userId == _userAddr) {\n            uint balance = userBankAccounts[bank][_userAddr].userBalance;\n            balance += _amount;\n            userBankAccounts[bank][_userAddr].userBalance = balance;\n            emit BankTransact ('DEPOSIT', _userAddr , _userAddr , _amount , block.timestamp);\n            return true;\n        }\n        else {\n            return false;\n        }\n        \n    }\n    \n    function withdraw (address _userAddr, uint _amount) public returns (bool) {\n        \n        require(userBankAccounts[bank][_userAddr].userBalance > _amount , 'INSUFFICIENTBAL' );\n        if (userBankAccounts[bank][_userAddr].userId == _userAddr) {\n            \n            uint balance = userBankAccounts[bank][_userAddr].userBalance;\n            balance -= _amount;\n            userBankAccounts[bank][_userAddr].userBalance = balance;\n            emit BankTransact ('WITHDRAWAL', _userAddr , _userAddr , _amount , block.timestamp);\n            return true;\n        }\n        else {\n            return false;\n        }\n    }\n\n    function getBalance (address _userAddr) public view returns (uint x) {\n        \n         if (userBankAccounts[bank][_userAddr].userId == _userAddr) {\n             uint balance = userBankAccounts[bank][_userAddr].userBalance;\n             return balance;\n        }\n    }\n\n    \n    function transfer (address _from, address _to , uint _amount) public returns (bool) {\n        \n         require(userBankAccounts[bank][_from].userBalance >= _amount ,\n         'INSUFFICIENTBAL' );\n         \n        if (userBankAccounts[bank][_from].userId == _from && userBankAccounts[bank][_to].isActive == true) {\n            \n            uint fromBalance = userBankAccounts[bank][_from].userBalance;\n            uint toBalance = userBankAccounts[bank][_to].userBalance;\n            fromBalance -= _amount;\n            toBalance += _amount;\n            userBankAccounts[bank][_from].userBalance = fromBalance;\n            userBankAccounts[bank][_to].userBalance = toBalance;\n            emit BankTransact ('TRANSFER', _from , _to , _amount , block.timestamp);\n            return true;\n        }\n        else {\n            return false;\n        }\n        \n    }\n    \n    function getAccountDetails(address _account) public view returns (BankAccount memory) {\n        return userBankAccounts[bank][_account];\n    }\n    \n    \n    // END OF BANKING STUFF\n// END OF CONTRACT\n\n}",
  "sourcePath": "/home/mohamedkaram/Documents/Projects/PharmaChain/contracts/PharmaChain.sol",
  "compiler": {
    "name": "solc",
    "version": "0.8.0+commit.c7dfd78e.Emscripten.clang"
  },
  "schemaVersion": "3.4.1",
  "updatedAt": "2021-06-25T16:52:10.839Z",
  "networkType": "ethereum",
  "devdoc": {
    "kind": "dev",
    "methods": {},
    "version": 1
  },
  "userdoc": {
    "kind": "user",
    "methods": {},
    "version": 1
  }
}