{
  "contractName": "PharmaChain",
  "abi": [
    {
      "anonymous": false,
      "inputs": [
        {
          "indexed": false,
          "internalType": "string",
          "name": "txName",
          "type": "string"
        },
        {
          "indexed": true,
          "internalType": "address",
          "name": "_from",
          "type": "address"
        },
        {
          "indexed": false,
          "internalType": "address",
          "name": "_to",
          "type": "address"
        },
        {
          "indexed": false,
          "internalType": "uint256",
          "name": "_amount",
          "type": "uint256"
        },
        {
          "indexed": true,
          "internalType": "uint256",
          "name": "timestamp",
          "type": "uint256"
        }
      ],
      "name": "BankTransact",
      "type": "event"
    },
    {
      "anonymous": false,
      "inputs": [
        {
          "indexed": true,
          "internalType": "address",
          "name": "who",
          "type": "address"
        },
        {
          "indexed": true,
          "internalType": "uint256",
          "name": "timestamp",
          "type": "uint256"
        },
        {
          "indexed": false,
          "internalType": "string",
          "name": "state",
          "type": "string"
        }
      ],
      "name": "requestStateUpdate",
      "type": "event"
    },
    {
      "inputs": [
        {
          "internalType": "string",
          "name": "x",
          "type": "string"
        },
        {
          "internalType": "string",
          "name": "y",
          "type": "string"
        }
      ],
      "name": "strComp",
      "outputs": [
        {
          "internalType": "bool",
          "name": "",
          "type": "bool"
        }
      ],
      "stateMutability": "pure",
      "type": "function",
      "constant": true
    },
    {
      "inputs": [
        {
          "internalType": "address",
          "name": "_participant",
          "type": "address"
        }
      ],
      "name": "addToTrusted",
      "outputs": [],
      "stateMutability": "nonpayable",
      "type": "function"
    },
    {
      "inputs": [
        {
          "internalType": "address",
          "name": "_participant",
          "type": "address"
        }
      ],
      "name": "removeFromTrusted",
      "outputs": [],
      "stateMutability": "nonpayable",
      "type": "function"
    },
    {
      "inputs": [
        {
          "internalType": "address",
          "name": "_participant",
          "type": "address"
        }
      ],
      "name": "isTrusted",
      "outputs": [
        {
          "internalType": "bool",
          "name": "",
          "type": "bool"
        }
      ],
      "stateMutability": "view",
      "type": "function",
      "constant": true
    },
    {
      "inputs": [
        {
          "internalType": "address",
          "name": "_truster",
          "type": "address"
        },
        {
          "internalType": "address",
          "name": "_trustee",
          "type": "address"
        }
      ],
      "name": "checkIfTrusted",
      "outputs": [
        {
          "internalType": "bool",
          "name": "",
          "type": "bool"
        }
      ],
      "stateMutability": "view",
      "type": "function",
      "constant": true
    },
    {
      "inputs": [
        {
          "internalType": "string",
          "name": "_state",
          "type": "string"
        }
      ],
      "name": "emitRequestStateEvent",
      "outputs": [],
      "stateMutability": "nonpayable",
      "type": "function"
    },
    {
      "inputs": [
        {
          "internalType": "string",
          "name": "_id",
          "type": "string"
        },
        {
          "internalType": "string",
          "name": "_name",
          "type": "string"
        },
        {
          "internalType": "string",
          "name": "_pForm",
          "type": "string"
        }
      ],
      "name": "addProduct",
      "outputs": [],
      "stateMutability": "nonpayable",
      "type": "function"
    },
    {
      "inputs": [
        {
          "internalType": "string",
          "name": "_productID",
          "type": "string"
        },
        {
          "internalType": "string",
          "name": "_name",
          "type": "string"
        },
        {
          "internalType": "string",
          "name": "_type",
          "type": "string"
        },
        {
          "internalType": "string",
          "name": "_strength",
          "type": "string"
        },
        {
          "internalType": "string",
          "name": "_form",
          "type": "string"
        },
        {
          "internalType": "uint256",
          "name": "_amount",
          "type": "uint256"
        }
      ],
      "name": "addProductSpecs",
      "outputs": [],
      "stateMutability": "nonpayable",
      "type": "function"
    },
    {
      "inputs": [
        {
          "internalType": "address",
          "name": "_manufacturer",
          "type": "address"
        }
      ],
      "name": "getProductsByManu",
      "outputs": [
        {
          "components": [
            {
              "internalType": "address",
              "name": "manufacturer",
              "type": "address"
            },
            {
              "internalType": "string",
              "name": "productId",
              "type": "string"
            },
            {
              "internalType": "string",
              "name": "productName",
              "type": "string"
            },
            {
              "internalType": "string",
              "name": "productForm",
              "type": "string"
            }
          ],
          "internalType": "struct PharmaChain.Product[]",
          "name": "",
          "type": "tuple[]"
        }
      ],
      "stateMutability": "view",
      "type": "function",
      "constant": true
    },
    {
      "inputs": [],
      "name": "getProducts",
      "outputs": [
        {
          "components": [
            {
              "internalType": "address",
              "name": "manufacturer",
              "type": "address"
            },
            {
              "internalType": "string",
              "name": "productId",
              "type": "string"
            },
            {
              "internalType": "string",
              "name": "productName",
              "type": "string"
            },
            {
              "internalType": "string",
              "name": "productForm",
              "type": "string"
            }
          ],
          "internalType": "struct PharmaChain.Product[]",
          "name": "",
          "type": "tuple[]"
        }
      ],
      "stateMutability": "view",
      "type": "function",
      "constant": true
    },
    {
      "inputs": [
        {
          "internalType": "string",
          "name": "_id",
          "type": "string"
        }
      ],
      "name": "getProductById",
      "outputs": [
        {
          "components": [
            {
              "internalType": "address",
              "name": "manufacturer",
              "type": "address"
            },
            {
              "internalType": "string",
              "name": "productId",
              "type": "string"
            },
            {
              "internalType": "string",
              "name": "productName",
              "type": "string"
            },
            {
              "internalType": "string",
              "name": "productForm",
              "type": "string"
            }
          ],
          "internalType": "struct PharmaChain.Product",
          "name": "",
          "type": "tuple"
        }
      ],
      "stateMutability": "view",
      "type": "function",
      "constant": true
    },
    {
      "inputs": [
        {
          "internalType": "string",
          "name": "_product",
          "type": "string"
        }
      ],
      "name": "getProductSpecs",
      "outputs": [
        {
          "components": [
            {
              "internalType": "string",
              "name": "materialName",
              "type": "string"
            },
            {
              "internalType": "string",
              "name": "materialType",
              "type": "string"
            },
            {
              "internalType": "uint256",
              "name": "materialAmount",
              "type": "uint256"
            },
            {
              "internalType": "string",
              "name": "materialStrength",
              "type": "string"
            },
            {
              "internalType": "string",
              "name": "materialForm",
              "type": "string"
            }
          ],
          "internalType": "struct PharmaChain.Specs[]",
          "name": "",
          "type": "tuple[]"
        }
      ],
      "stateMutability": "view",
      "type": "function",
      "constant": true
    },
    {
      "inputs": [
        {
          "internalType": "string",
          "name": "_product",
          "type": "string"
        },
        {
          "internalType": "string",
          "name": "_phase",
          "type": "string"
        }
      ],
      "name": "setProductPhase",
      "outputs": [],
      "stateMutability": "nonpayable",
      "type": "function"
    },
    {
      "inputs": [
        {
          "internalType": "string",
          "name": "_product",
          "type": "string"
        }
      ],
      "name": "getProductPhase",
      "outputs": [
        {
          "internalType": "string[]",
          "name": "phases",
          "type": "string[]"
        }
      ],
      "stateMutability": "view",
      "type": "function",
      "constant": true
    },
    {
      "inputs": [
        {
          "internalType": "string",
          "name": "_product",
          "type": "string"
        },
        {
          "internalType": "uint256",
          "name": "_unitsNo",
          "type": "uint256"
        },
        {
          "internalType": "uint256",
          "name": "_pkgMatCost",
          "type": "uint256"
        },
        {
          "internalType": "uint256",
          "name": "_unitMaterialCost",
          "type": "uint256"
        },
        {
          "internalType": "uint256",
          "name": "_ratePerHr",
          "type": "uint256"
        },
        {
          "internalType": "uint256",
          "name": "_workHrsNo",
          "type": "uint256"
        },
        {
          "internalType": "uint256",
          "name": "_mrkCost",
          "type": "uint256"
        },
        {
          "internalType": "uint256",
          "name": "_rsrchCost",
          "type": "uint256"
        },
        {
          "internalType": "uint256",
          "name": "_shipCost",
          "type": "uint256"
        }
      ],
      "name": "setStdCostPlan",
      "outputs": [],
      "stateMutability": "nonpayable",
      "type": "function"
    },
    {
      "inputs": [
        {
          "internalType": "string",
          "name": "_product",
          "type": "string"
        }
      ],
      "name": "setStdMaterialQty",
      "outputs": [],
      "stateMutability": "nonpayable",
      "type": "function"
    },
    {
      "inputs": [
        {
          "internalType": "string",
          "name": "_product",
          "type": "string"
        }
      ],
      "name": "getStdCostPlan",
      "outputs": [
        {
          "components": [
            {
              "internalType": "uint256",
              "name": "directMaterialCost",
              "type": "uint256"
            },
            {
              "internalType": "uint256",
              "name": "packagingMaterialCost",
              "type": "uint256"
            },
            {
              "internalType": "uint256",
              "name": "materialCostPerUnit",
              "type": "uint256"
            },
            {
              "internalType": "uint256",
              "name": "marketingCost",
              "type": "uint256"
            },
            {
              "internalType": "uint256",
              "name": "researchCost",
              "type": "uint256"
            },
            {
              "internalType": "uint256",
              "name": "directLaborCost",
              "type": "uint256"
            },
            {
              "internalType": "uint256",
              "name": "ratePerWorkHr",
              "type": "uint256"
            },
            {
              "internalType": "uint256",
              "name": "workHrs",
              "type": "uint256"
            },
            {
              "internalType": "uint256",
              "name": "totalDirectCost",
              "type": "uint256"
            },
            {
              "internalType": "uint256",
              "name": "CostTOT",
              "type": "uint256"
            },
            {
              "internalType": "uint256",
              "name": "shippingCost",
              "type": "uint256"
            }
          ],
          "internalType": "struct PharmaChain.Cost",
          "name": "",
          "type": "tuple"
        }
      ],
      "stateMutability": "view",
      "type": "function",
      "constant": true
    },
    {
      "inputs": [
        {
          "internalType": "string",
          "name": "_product",
          "type": "string"
        }
      ],
      "name": "getStdBudgetUnits",
      "outputs": [
        {
          "internalType": "uint256",
          "name": "units",
          "type": "uint256"
        }
      ],
      "stateMutability": "view",
      "type": "function",
      "constant": true
    },
    {
      "inputs": [
        {
          "internalType": "string",
          "name": "_product",
          "type": "string"
        }
      ],
      "name": "getStdMaterialQty",
      "outputs": [
        {
          "internalType": "uint256",
          "name": "",
          "type": "uint256"
        }
      ],
      "stateMutability": "view",
      "type": "function",
      "constant": true
    },
    {
      "inputs": [
        {
          "internalType": "string",
          "name": "_product",
          "type": "string"
        },
        {
          "internalType": "uint256",
          "name": "_unitsNo",
          "type": "uint256"
        },
        {
          "internalType": "uint256",
          "name": "_actualPkgMatCost",
          "type": "uint256"
        },
        {
          "internalType": "uint256",
          "name": "_unitMaterialCost",
          "type": "uint256"
        },
        {
          "internalType": "uint256",
          "name": "_actualRatePerHr",
          "type": "uint256"
        },
        {
          "internalType": "uint256",
          "name": "_actualWorkHrsNo",
          "type": "uint256"
        },
        {
          "internalType": "uint256",
          "name": "_actualMrkCost",
          "type": "uint256"
        },
        {
          "internalType": "uint256",
          "name": "_actualRsrchCost",
          "type": "uint256"
        },
        {
          "internalType": "uint256",
          "name": "_actualMatQty",
          "type": "uint256"
        },
        {
          "internalType": "uint256",
          "name": "_actualShipCost",
          "type": "uint256"
        }
      ],
      "name": "setActualCost",
      "outputs": [],
      "stateMutability": "nonpayable",
      "type": "function"
    },
    {
      "inputs": [
        {
          "internalType": "string",
          "name": "_product",
          "type": "string"
        }
      ],
      "name": "getActualCost",
      "outputs": [
        {
          "components": [
            {
              "internalType": "uint256",
              "name": "directMaterialCost",
              "type": "uint256"
            },
            {
              "internalType": "uint256",
              "name": "packagingMaterialCost",
              "type": "uint256"
            },
            {
              "internalType": "uint256",
              "name": "materialCostPerUnit",
              "type": "uint256"
            },
            {
              "internalType": "uint256",
              "name": "marketingCost",
              "type": "uint256"
            },
            {
              "internalType": "uint256",
              "name": "researchCost",
              "type": "uint256"
            },
            {
              "internalType": "uint256",
              "name": "directLaborCost",
              "type": "uint256"
            },
            {
              "internalType": "uint256",
              "name": "ratePerWorkHr",
              "type": "uint256"
            },
            {
              "internalType": "uint256",
              "name": "workHrs",
              "type": "uint256"
            },
            {
              "internalType": "uint256",
              "name": "totalDirectCost",
              "type": "uint256"
            },
            {
              "internalType": "uint256",
              "name": "CostTOT",
              "type": "uint256"
            },
            {
              "internalType": "uint256",
              "name": "shippingCost",
              "type": "uint256"
            }
          ],
          "internalType": "struct PharmaChain.Cost",
          "name": "",
          "type": "tuple"
        }
      ],
      "stateMutability": "view",
      "type": "function",
      "constant": true
    },
    {
      "inputs": [
        {
          "internalType": "string",
          "name": "_product",
          "type": "string"
        },
        {
          "internalType": "uint256",
          "name": "_amount",
          "type": "uint256"
        }
      ],
      "name": "setActualMaterialQty",
      "outputs": [],
      "stateMutability": "nonpayable",
      "type": "function"
    },
    {
      "inputs": [
        {
          "internalType": "string",
          "name": "_product",
          "type": "string"
        }
      ],
      "name": "getActualMaterialQty",
      "outputs": [
        {
          "internalType": "uint256",
          "name": "",
          "type": "uint256"
        }
      ],
      "stateMutability": "view",
      "type": "function",
      "constant": true
    },
    {
      "inputs": [
        {
          "internalType": "string",
          "name": "_product",
          "type": "string"
        }
      ],
      "name": "getActualBudgetUnits",
      "outputs": [
        {
          "internalType": "uint256",
          "name": "units",
          "type": "uint256"
        }
      ],
      "stateMutability": "view",
      "type": "function",
      "constant": true
    },
    {
      "inputs": [
        {
          "internalType": "string",
          "name": "_product",
          "type": "string"
        },
        {
          "internalType": "uint256",
          "name": "_unitsNo",
          "type": "uint256"
        },
        {
          "internalType": "uint256",
          "name": "_pkgUnitCost",
          "type": "uint256"
        },
        {
          "internalType": "uint256",
          "name": "_unitMaterialCost",
          "type": "uint256"
        },
        {
          "internalType": "uint256",
          "name": "_ratePerHr",
          "type": "uint256"
        },
        {
          "internalType": "uint256",
          "name": "_workHrsNo",
          "type": "uint256"
        },
        {
          "internalType": "uint256",
          "name": "_flexibleMrkCost",
          "type": "uint256"
        },
        {
          "internalType": "uint256",
          "name": "_flexibleRsrchCost",
          "type": "uint256"
        },
        {
          "internalType": "uint256",
          "name": "_flexibleShipCost",
          "type": "uint256"
        }
      ],
      "name": "setFlexibleCosts",
      "outputs": [],
      "stateMutability": "nonpayable",
      "type": "function"
    },
    {
      "inputs": [
        {
          "internalType": "string",
          "name": "_product",
          "type": "string"
        }
      ],
      "name": "getFlexibleCosts",
      "outputs": [
        {
          "components": [
            {
              "internalType": "uint256",
              "name": "directMaterialCost",
              "type": "uint256"
            },
            {
              "internalType": "uint256",
              "name": "packagingMaterialCost",
              "type": "uint256"
            },
            {
              "internalType": "uint256",
              "name": "materialCostPerUnit",
              "type": "uint256"
            },
            {
              "internalType": "uint256",
              "name": "marketingCost",
              "type": "uint256"
            },
            {
              "internalType": "uint256",
              "name": "researchCost",
              "type": "uint256"
            },
            {
              "internalType": "uint256",
              "name": "directLaborCost",
              "type": "uint256"
            },
            {
              "internalType": "uint256",
              "name": "ratePerWorkHr",
              "type": "uint256"
            },
            {
              "internalType": "uint256",
              "name": "workHrs",
              "type": "uint256"
            },
            {
              "internalType": "uint256",
              "name": "totalDirectCost",
              "type": "uint256"
            },
            {
              "internalType": "uint256",
              "name": "CostTOT",
              "type": "uint256"
            },
            {
              "internalType": "uint256",
              "name": "shippingCost",
              "type": "uint256"
            }
          ],
          "internalType": "struct PharmaChain.Cost",
          "name": "",
          "type": "tuple"
        }
      ],
      "stateMutability": "view",
      "type": "function",
      "constant": true
    },
    {
      "inputs": [
        {
          "internalType": "string",
          "name": "_product",
          "type": "string"
        }
      ],
      "name": "getFlexibleBudgetUnits",
      "outputs": [
        {
          "internalType": "uint256",
          "name": "units",
          "type": "uint256"
        }
      ],
      "stateMutability": "view",
      "type": "function",
      "constant": true
    },
    {
      "inputs": [
        {
          "internalType": "string",
          "name": "_id",
          "type": "string"
        },
        {
          "internalType": "string",
          "name": "_name",
          "type": "string"
        },
        {
          "internalType": "uint256",
          "name": "_str",
          "type": "uint256"
        },
        {
          "internalType": "string",
          "name": "_form",
          "type": "string"
        },
        {
          "internalType": "uint256",
          "name": "_amount",
          "type": "uint256"
        },
        {
          "internalType": "uint256",
          "name": "_unitCost",
          "type": "uint256"
        },
        {
          "internalType": "string",
          "name": "_storageConditions",
          "type": "string"
        },
        {
          "internalType": "bool",
          "name": "_stability",
          "type": "bool"
        },
        {
          "internalType": "uint256",
          "name": "_stabilityPeriod",
          "type": "uint256"
        }
      ],
      "name": "createMaterial",
      "outputs": [],
      "stateMutability": "nonpayable",
      "type": "function"
    },
    {
      "inputs": [
        {
          "internalType": "string",
          "name": "_materialID",
          "type": "string"
        },
        {
          "internalType": "uint256",
          "name": "_directMaterialCost",
          "type": "uint256"
        },
        {
          "internalType": "uint256",
          "name": "_directPkgUnitCost",
          "type": "uint256"
        },
        {
          "internalType": "uint256",
          "name": "_directLaborCost",
          "type": "uint256"
        },
        {
          "internalType": "uint256",
          "name": "_totalIndirectCost",
          "type": "uint256"
        },
        {
          "internalType": "uint256",
          "name": "_shipCost",
          "type": "uint256"
        }
      ],
      "name": "setMaterialCostPlan",
      "outputs": [],
      "stateMutability": "nonpayable",
      "type": "function"
    },
    {
      "inputs": [
        {
          "internalType": "string",
          "name": "_material",
          "type": "string"
        }
      ],
      "name": "getMaterialCostPlan",
      "outputs": [
        {
          "components": [
            {
              "internalType": "uint256",
              "name": "directMaterialCost",
              "type": "uint256"
            },
            {
              "internalType": "uint256",
              "name": "packagingMaterialCost",
              "type": "uint256"
            },
            {
              "internalType": "uint256",
              "name": "directLaborCost",
              "type": "uint256"
            },
            {
              "internalType": "uint256",
              "name": "shippingCost",
              "type": "uint256"
            },
            {
              "internalType": "uint256",
              "name": "totalIndirectCost",
              "type": "uint256"
            },
            {
              "internalType": "uint256",
              "name": "totalDirectCost",
              "type": "uint256"
            },
            {
              "internalType": "uint256",
              "name": "CostTOT",
              "type": "uint256"
            }
          ],
          "internalType": "struct PharmaChain.MaterialProductionCost",
          "name": "",
          "type": "tuple"
        }
      ],
      "stateMutability": "view",
      "type": "function",
      "constant": true
    },
    {
      "inputs": [
        {
          "internalType": "address",
          "name": "_supplier",
          "type": "address"
        }
      ],
      "name": "getMaterialsBySupplier",
      "outputs": [
        {
          "components": [
            {
              "internalType": "address",
              "name": "supplier",
              "type": "address"
            },
            {
              "internalType": "string",
              "name": "materialID",
              "type": "string"
            },
            {
              "internalType": "string",
              "name": "materialName",
              "type": "string"
            },
            {
              "internalType": "uint256",
              "name": "materialStrength",
              "type": "uint256"
            },
            {
              "internalType": "string",
              "name": "materialForm",
              "type": "string"
            },
            {
              "internalType": "uint256",
              "name": "createdAmount",
              "type": "uint256"
            },
            {
              "internalType": "uint256",
              "name": "unitCost",
              "type": "uint256"
            },
            {
              "internalType": "string",
              "name": "storageConditions",
              "type": "string"
            },
            {
              "internalType": "bool",
              "name": "materialStability",
              "type": "bool"
            },
            {
              "internalType": "uint256",
              "name": "materialManuDate",
              "type": "uint256"
            },
            {
              "internalType": "uint256",
              "name": "materialStabilityPeriod",
              "type": "uint256"
            }
          ],
          "internalType": "struct PharmaChain.Material[]",
          "name": "",
          "type": "tuple[]"
        }
      ],
      "stateMutability": "view",
      "type": "function",
      "constant": true
    },
    {
      "inputs": [],
      "name": "getMaterials",
      "outputs": [
        {
          "components": [
            {
              "internalType": "address",
              "name": "supplier",
              "type": "address"
            },
            {
              "internalType": "string",
              "name": "materialID",
              "type": "string"
            },
            {
              "internalType": "string",
              "name": "materialName",
              "type": "string"
            },
            {
              "internalType": "uint256",
              "name": "materialStrength",
              "type": "uint256"
            },
            {
              "internalType": "string",
              "name": "materialForm",
              "type": "string"
            },
            {
              "internalType": "uint256",
              "name": "createdAmount",
              "type": "uint256"
            },
            {
              "internalType": "uint256",
              "name": "unitCost",
              "type": "uint256"
            },
            {
              "internalType": "string",
              "name": "storageConditions",
              "type": "string"
            },
            {
              "internalType": "bool",
              "name": "materialStability",
              "type": "bool"
            },
            {
              "internalType": "uint256",
              "name": "materialManuDate",
              "type": "uint256"
            },
            {
              "internalType": "uint256",
              "name": "materialStabilityPeriod",
              "type": "uint256"
            }
          ],
          "internalType": "struct PharmaChain.Material[]",
          "name": "",
          "type": "tuple[]"
        }
      ],
      "stateMutability": "view",
      "type": "function",
      "constant": true
    },
    {
      "inputs": [
        {
          "internalType": "string",
          "name": "_materialId",
          "type": "string"
        }
      ],
      "name": "getMaterialById",
      "outputs": [
        {
          "components": [
            {
              "internalType": "address",
              "name": "supplier",
              "type": "address"
            },
            {
              "internalType": "string",
              "name": "materialID",
              "type": "string"
            },
            {
              "internalType": "string",
              "name": "materialName",
              "type": "string"
            },
            {
              "internalType": "uint256",
              "name": "materialStrength",
              "type": "uint256"
            },
            {
              "internalType": "string",
              "name": "materialForm",
              "type": "string"
            },
            {
              "internalType": "uint256",
              "name": "createdAmount",
              "type": "uint256"
            },
            {
              "internalType": "uint256",
              "name": "unitCost",
              "type": "uint256"
            },
            {
              "internalType": "string",
              "name": "storageConditions",
              "type": "string"
            },
            {
              "internalType": "bool",
              "name": "materialStability",
              "type": "bool"
            },
            {
              "internalType": "uint256",
              "name": "materialManuDate",
              "type": "uint256"
            },
            {
              "internalType": "uint256",
              "name": "materialStabilityPeriod",
              "type": "uint256"
            }
          ],
          "internalType": "struct PharmaChain.Material",
          "name": "",
          "type": "tuple"
        }
      ],
      "stateMutability": "view",
      "type": "function",
      "constant": true
    },
    {
      "inputs": [
        {
          "internalType": "address",
          "name": "_to",
          "type": "address"
        },
        {
          "internalType": "string",
          "name": "_materialId",
          "type": "string"
        },
        {
          "internalType": "uint256",
          "name": "_amount",
          "type": "uint256"
        }
      ],
      "name": "createRequest",
      "outputs": [],
      "stateMutability": "nonpayable",
      "type": "function"
    },
    {
      "inputs": [
        {
          "internalType": "address",
          "name": "_fromParti2",
          "type": "address"
        },
        {
          "internalType": "address",
          "name": "_to",
          "type": "address"
        },
        {
          "internalType": "string",
          "name": "_materialId",
          "type": "string"
        },
        {
          "internalType": "uint256",
          "name": "_amount",
          "type": "uint256"
        }
      ],
      "name": "createBatchRequest",
      "outputs": [],
      "stateMutability": "nonpayable",
      "type": "function"
    },
    {
      "inputs": [
        {
          "internalType": "uint256",
          "name": "_id",
          "type": "uint256"
        }
      ],
      "name": "getRequestCost",
      "outputs": [
        {
          "internalType": "uint256",
          "name": "",
          "type": "uint256"
        }
      ],
      "stateMutability": "view",
      "type": "function",
      "constant": true
    },
    {
      "inputs": [],
      "name": "getMyRequests",
      "outputs": [
        {
          "components": [
            {
              "internalType": "uint256",
              "name": "requestId",
              "type": "uint256"
            },
            {
              "internalType": "address",
              "name": "fromParti",
              "type": "address"
            },
            {
              "internalType": "address",
              "name": "toParti",
              "type": "address"
            },
            {
              "internalType": "string",
              "name": "materialID",
              "type": "string"
            },
            {
              "internalType": "uint256",
              "name": "amount",
              "type": "uint256"
            },
            {
              "internalType": "uint256",
              "name": "issueTime",
              "type": "uint256"
            }
          ],
          "internalType": "struct PharmaChain.Request[]",
          "name": "",
          "type": "tuple[]"
        }
      ],
      "stateMutability": "view",
      "type": "function",
      "constant": true
    },
    {
      "inputs": [],
      "name": "getMyBatchRequests",
      "outputs": [
        {
          "components": [
            {
              "internalType": "uint256",
              "name": "requestId",
              "type": "uint256"
            },
            {
              "internalType": "address",
              "name": "fromParti1",
              "type": "address"
            },
            {
              "internalType": "address",
              "name": "fromParti2",
              "type": "address"
            },
            {
              "internalType": "address",
              "name": "toParti",
              "type": "address"
            },
            {
              "internalType": "string",
              "name": "materialID",
              "type": "string"
            },
            {
              "internalType": "uint256",
              "name": "amount",
              "type": "uint256"
            },
            {
              "internalType": "uint256",
              "name": "issueTime",
              "type": "uint256"
            }
          ],
          "internalType": "struct PharmaChain.BatchRequest[]",
          "name": "",
          "type": "tuple[]"
        }
      ],
      "stateMutability": "view",
      "type": "function",
      "constant": true
    },
    {
      "inputs": [
        {
          "internalType": "uint256",
          "name": "_id",
          "type": "uint256"
        }
      ],
      "name": "getRequestById",
      "outputs": [
        {
          "components": [
            {
              "internalType": "uint256",
              "name": "requestId",
              "type": "uint256"
            },
            {
              "internalType": "address",
              "name": "fromParti",
              "type": "address"
            },
            {
              "internalType": "address",
              "name": "toParti",
              "type": "address"
            },
            {
              "internalType": "string",
              "name": "materialID",
              "type": "string"
            },
            {
              "internalType": "uint256",
              "name": "amount",
              "type": "uint256"
            },
            {
              "internalType": "uint256",
              "name": "issueTime",
              "type": "uint256"
            }
          ],
          "internalType": "struct PharmaChain.Request",
          "name": "",
          "type": "tuple"
        }
      ],
      "stateMutability": "view",
      "type": "function",
      "constant": true
    },
    {
      "inputs": [
        {
          "internalType": "address",
          "name": "_participant",
          "type": "address"
        },
        {
          "internalType": "string",
          "name": "_item",
          "type": "string"
        },
        {
          "internalType": "uint256",
          "name": "_amount",
          "type": "uint256"
        }
      ],
      "name": "addToInventory",
      "outputs": [],
      "stateMutability": "nonpayable",
      "type": "function"
    },
    {
      "inputs": [
        {
          "internalType": "address",
          "name": "_participant",
          "type": "address"
        },
        {
          "internalType": "string",
          "name": "_item",
          "type": "string"
        },
        {
          "internalType": "uint256",
          "name": "_amount",
          "type": "uint256"
        }
      ],
      "name": "updateInventory",
      "outputs": [],
      "stateMutability": "nonpayable",
      "type": "function"
    },
    {
      "inputs": [
        {
          "internalType": "address",
          "name": "_participant",
          "type": "address"
        }
      ],
      "name": "getInventory",
      "outputs": [
        {
          "components": [
            {
              "internalType": "string",
              "name": "itemId",
              "type": "string"
            },
            {
              "internalType": "uint256",
              "name": "amount",
              "type": "uint256"
            }
          ],
          "internalType": "struct PharmaChain.InventoryItem[]",
          "name": "",
          "type": "tuple[]"
        }
      ],
      "stateMutability": "view",
      "type": "function",
      "constant": true
    },
    {
      "inputs": [
        {
          "internalType": "string",
          "name": "_item",
          "type": "string"
        }
      ],
      "name": "getInventoryItemById",
      "outputs": [
        {
          "components": [
            {
              "internalType": "string",
              "name": "itemId",
              "type": "string"
            },
            {
              "internalType": "uint256",
              "name": "amount",
              "type": "uint256"
            }
          ],
          "internalType": "struct PharmaChain.InventoryItem",
          "name": "",
          "type": "tuple"
        }
      ],
      "stateMutability": "view",
      "type": "function",
      "constant": true
    },
    {
      "inputs": [
        {
          "internalType": "address",
          "name": "_addr",
          "type": "address"
        }
      ],
      "name": "setAsBank",
      "outputs": [],
      "stateMutability": "nonpayable",
      "type": "function"
    },
    {
      "inputs": [],
      "name": "getBank",
      "outputs": [
        {
          "internalType": "address",
          "name": "",
          "type": "address"
        }
      ],
      "stateMutability": "view",
      "type": "function",
      "constant": true
    },
    {
      "inputs": [
        {
          "internalType": "address",
          "name": "_userAddr",
          "type": "address"
        },
        {
          "internalType": "string",
          "name": "_userName",
          "type": "string"
        }
      ],
      "name": "createBankAccount",
      "outputs": [],
      "stateMutability": "nonpayable",
      "type": "function"
    },
    {
      "inputs": [
        {
          "internalType": "address",
          "name": "_userAddr",
          "type": "address"
        }
      ],
      "name": "hasBankAccount",
      "outputs": [
        {
          "internalType": "bool",
          "name": "",
          "type": "bool"
        }
      ],
      "stateMutability": "view",
      "type": "function",
      "constant": true
    },
    {
      "inputs": [
        {
          "internalType": "address",
          "name": "_userAddr",
          "type": "address"
        },
        {
          "internalType": "uint256",
          "name": "_amount",
          "type": "uint256"
        }
      ],
      "name": "deposit",
      "outputs": [
        {
          "internalType": "bool",
          "name": "",
          "type": "bool"
        }
      ],
      "stateMutability": "nonpayable",
      "type": "function"
    },
    {
      "inputs": [
        {
          "internalType": "address",
          "name": "_userAddr",
          "type": "address"
        },
        {
          "internalType": "uint256",
          "name": "_amount",
          "type": "uint256"
        }
      ],
      "name": "withdraw",
      "outputs": [
        {
          "internalType": "bool",
          "name": "",
          "type": "bool"
        }
      ],
      "stateMutability": "nonpayable",
      "type": "function"
    },
    {
      "inputs": [
        {
          "internalType": "address",
          "name": "_userAddr",
          "type": "address"
        }
      ],
      "name": "getBalance",
      "outputs": [
        {
          "internalType": "uint256",
          "name": "x",
          "type": "uint256"
        }
      ],
      "stateMutability": "view",
      "type": "function",
      "constant": true
    },
    {
      "inputs": [
        {
          "internalType": "address",
          "name": "_from",
          "type": "address"
        },
        {
          "internalType": "address",
          "name": "_to",
          "type": "address"
        },
        {
          "internalType": "uint256",
          "name": "_amount",
          "type": "uint256"
        }
      ],
      "name": "transfer",
      "outputs": [
        {
          "internalType": "bool",
          "name": "",
          "type": "bool"
        }
      ],
      "stateMutability": "nonpayable",
      "type": "function"
    },
    {
      "inputs": [
        {
          "internalType": "address",
          "name": "_account",
          "type": "address"
        }
      ],
      "name": "getAccountDetails",
      "outputs": [
        {
          "components": [
            {
              "internalType": "address",
              "name": "userId",
              "type": "address"
            },
            {
              "internalType": "string",
              "name": "userName",
              "type": "string"
            },
            {
              "internalType": "uint256",
              "name": "userBalance",
              "type": "uint256"
            },
            {
              "internalType": "bool",
              "name": "isActive",
              "type": "bool"
            }
          ],
          "internalType": "struct PharmaChain.BankAccount",
          "name": "",
          "type": "tuple"
        }
      ],
      "stateMutability": "view",
      "type": "function",
      "constant": true
    }
  ],
  "bytecode": "0x60806040526000805534801561001457600080fd5b50614db9806100246000396000f3fe608060405234801561001057600080fd5b506004361061030b5760003560e01c80636eac3eb81161019d578063b9dab0ff116100e9578063de67ef8a116100a2578063e75200d81161007c578063e75200d814610751578063f3fef3a314610764578063f8b2cb4f14610777578063fd91dcca1461078a5761030b565b8063de67ef8a14610718578063def1ca381461072b578063dfad5dce1461073e5761030b565b8063b9dab0ff1461068a578063bbf5f774146106aa578063beabacc8146106ca578063c29b2f20146106dd578063c933a2ad146106f2578063d8059e8b146107055761030b565b806388c6fb4b116101565780639366c641116101305780639366c6411461063e57806396d648791461065157806398de5cef14610664578063b26338b0146106775761030b565b806388c6fb4b146105f65780638b87c5441461060957806391eace8b146106295761030b565b80636eac3eb8146105825780637635eabe146105955780637f5cf16e146105a857806380dfedcd146105c857806384f13094146105d0578063881de0de146105e35761030b565b8063386e306d1161025c5780634cd9cc3d1161021557806353196363116101ef57806353196363146105345780635518cad01461054757806359c8351f1461055a57806360d704db1461056d5761030b565b80634cd9cc3d146104ec5780635028f1d0146105015780635280ae1d146105215761030b565b8063386e306d146104605780633f2019781461047357806343ffb9a614610493578063477dec5d146104a657806347e7ef24146104b957806348c18e23146104d95761030b565b80631f94d0e7116102c957806326757b73116102a357806326757b73146103fa5780632aceb5341461041a5780632c3e2cf71461043a5780632fc819161461044d5761030b565b80631f94d0e7146103b45780632031947f146103c75780632352d4aa146103da5761030b565b8062df68121461031057806306177b4e14610325578063096a71e21461034e5780630e34b00e1461036e5780630e96e43714610381578063130ff11d14610394575b600080fd5b61032361031e3660046140f1565b61079d565b005b610338610333366004613f05565b6107e7565b60405161034591906148cf565b60405180910390f35b61036161035c3660046140b7565b610b16565b6040516103459190614c37565b61032361037c366004614147565b610bbd565b61032361038f3660046140b7565b610e11565b6103a76103a23660046140b7565b610e56565b6040516103459190614d4e565b6103616103c23660046140b7565b610e7e565b6103236103d5366004614420565b610e96565b6103ed6103e83660046140b7565b610fc0565b6040516103459190614d28565b61040d610408366004614525565b6111c1565b6040516103459190614d3b565b61042d610428366004613f05565b6112ba565b6040516103459190614be7565b610323610448366004613f05565b6113b0565b61032361045b366004613fef565b611425565b61032361046e3660046143be565b6114cf565b6104866104813660046140b7565b611580565b6040516103459190614d15565b6103236104a136600461403a565b611865565b6103236104b4366004613f05565b611a48565b6104cc6104c736600461408e565b611a6a565b6040516103459190614a7e565b6103a76104e73660046140b7565b611b51565b6104f4611b63565b60405161034591906147c2565b61051461050f3660046140b7565b611cab565b6040516103459190614cb4565b6104cc61052f366004613f05565b611d76565b61032361054236600461403a565b611dbc565b610323610555366004613f51565b611e7a565b6104cc6105683660046140f1565b612089565b6105756120e2565b604051610345919061474e565b6103616105903660046140b7565b6120f1565b6103236105a336600461429d565b612109565b6105bb6105b63660046140b7565b6124b2565b60405161034591906149c8565b610338612788565b6103236105de366004613f05565b612a97565b6103a76105f13660046140b7565b612ae2565b6104cc610604366004613f1f565b612af4565b61061c610617366004613f05565b612b22565b604051610345919061487c565b610631612c20565b6040516103459190614975565b61032361064c36600461403a565b612d53565b6104cc61065f366004613f05565b612e7d565b6103a76106723660046140b7565b612ea8565b6103a76106853660046140b7565b612eba565b61069d6106983660046140b7565b612ecc565b6040516103459190614cc7565b6106bd6106b83660046140b7565b612f4a565b6040516103459190614762565b6104cc6106d8366004613fb4565b613035565b6106e56131ad565b6040516103459190614922565b6103a7610700366004614525565b6133d2565b61032361071336600461437c565b6133e4565b6106e5610726366004613f05565b613409565b6103236107393660046140b7565b613642565b61032361074c36600461449e565b6136a1565b61032361075f366004614420565b6137fc565b6104cc61077236600461408e565b613909565b6103a7610785366004613f05565b6139f8565b6103236107983660046141ca565b613a5f565b600c826040516107ad9190614732565b90815260405160209181900382019020805460018101825560009182529082902083516107e293919092019190840190613b7b565b505050565b6001600160a01b0381166000908152600d60209081526040808320805482518185028101850190935280835260609492939192909184015b82821015610b0a5760008481526020908190206040805161016081018252600b860290920180546001600160a01b03168352600180820180548451600261010094831615949094026000190190911692909204601f8101879004870283018701909452838252939491938583019391929091908301828280156108e35780601f106108b8576101008083540402835291602001916108e3565b820191906000526020600020905b8154815290600101906020018083116108c657829003601f168201915b5050509183525050600282810180546040805160206001841615610100026000190190931694909404601f810183900483028501830190915280845293810193908301828280156109755780601f1061094a57610100808354040283529160200191610975565b820191906000526020600020905b81548152906001019060200180831161095857829003601f168201915b5050509183525050600382015460208083019190915260048301805460408051601f60026000196101006001871615020190941693909304928301859004850281018501825282815294019392830182828015610a135780601f106109e857610100808354040283529160200191610a13565b820191906000526020600020905b8154815290600101906020018083116109f657829003601f168201915b505050505081526020016005820154815260200160068201548152602001600782018054600181600116156101000203166002900480601f016020809104026020016040519081016040528092919081815260200182805460018160011615610100020316600290048015610ac95780601f10610a9e57610100808354040283529160200191610ac9565b820191906000526020600020905b815481529060010190602001808311610aac57829003601f168201915b5050509183525050600882015460ff16151560208083019190915260098301546040830152600a90920154606090910152908252600192909201910161081f565b5050505090505b919050565b610b1e613c07565b601482604051610b2e9190614732565b90815260200160405180910390206040518061016001604052908160008201548152602001600182015481526020016002820154815260200160038201548152602001600482015481526020016005820154815260200160068201548152602001600782015481526020016008820154815260200160098201548152602001600a820154815250509050919050565b610bc5613c61565b50604080516080810182523380825260208083018781528385018790526060840186905260009283526007825293822080546001808201835591845292829020845160049094020180546001600160a01b0319166001600160a01b039094169390931783559351805193948594610c43939185019290910190613b7b565b5060408201518051610c5f916002840191602090910190613b7b565b5060608201518051610c7b916003840191602090910190613b7b565b50505080600b85604051610c8f9190614732565b90815260405160209181900382019020825181546001600160a01b0319166001600160a01b039091161781558282015180519192610cd592600185019290910190613b7b565b5060408201518051610cf1916002840191602090910190613b7b565b5060608201518051610d0d916003840191602090910190613b7b565b5050600480546001810182556000829052835191027f8a35acfbc15ff81a39ae7d344fd709f28e8600b4aa8c65c6b64bfe7fe36bd19b810180546001600160a01b039093166001600160a01b03199093169290921782556020808501518051869550610da0937f8a35acfbc15ff81a39ae7d344fd709f28e8600b4aa8c65c6b64bfe7fe36bd19c01929190910190613b7b565b5060408201518051610dbc916002840191602090910190613b7b565b5060608201518051610dd8916003840191602090910190613b7b565b505050610e0b846040518060400160405280600e81526020016d0aa9c888aa45aa48aa68a82a486960931b81525061079d565b50505050565b42336001600160a01b03167f530abb16f843103fba748c032a23827a5140b72d210f41d8bbbc183708de524083604051610e4b9190614a89565b60405180910390a350565b6000601682604051610e689190614732565b9081526020016040518091039020549050919050565b610e86613c07565b601582604051610b2e9190614732565b6000610ea18a612eba565b9050610eab613c07565b60405180610160016040528089840281526020018a8152602001898152602001868152602001858152602001878902815260200188815260200187815260200160008152602001600081526020018481525090508060138c604051610f109190614732565b9081526020016040518091039020600082015181600001556020820151816001015560408201518160020155606082015181600301556080820151816004015560a0820151816005015560c0820151816006015560e082015181600701556101008201518160080155610120820151816009015561014082015181600a01559050508960168c604051610fa39190614732565b908152604051908190036020019020555050505050505050505050565b610fc8613c61565b600b82604051610fd89190614732565b908152604080516020928190038301812060808201835280546001600160a01b03168252600180820180548551600261010094831615949094026000190190911692909204601f81018790048702830187019095528482529294919382860193919283018282801561108b5780601f106110605761010080835404028352916020019161108b565b820191906000526020600020905b81548152906001019060200180831161106e57829003601f168201915b5050509183525050600282810180546040805160206001841615610100026000190190931694909404601f8101839004830285018301909152808452938101939083018282801561111d5780601f106110f25761010080835404028352916020019161111d565b820191906000526020600020905b81548152906001019060200180831161110057829003601f168201915b505050918352505060038201805460408051602060026001851615610100026000190190941693909304601f81018490048402820184019092528181529382019392918301828280156111b15780601f10611186576101008083540402835291602001916111b1565b820191906000526020600020905b81548152906001019060200180831161119457829003601f168201915b5050505050815250509050919050565b6111c9613c92565b600082815260106020908152604091829020825160c081018452815481526001808301546001600160a01b03908116838601526002808501549091168387015260038401805487516101009482161594909402600019011691909104601f8101869004860283018601909652858252919492936060860193919291908301828280156112965780601f1061126b57610100808354040283529160200191611296565b820191906000526020600020905b81548152906001019060200180831161127957829003601f168201915b50505050508152602001600482015481526020016005820154815250509050919050565b6112c2613cda565b600280546001600160a01b039081166000908152601d6020908152604080832087851684528252918290208251608081018452815490941684526001808201805485516101009382161593909302600019011696909604601f8101849004840282018401909452838152939490938583019390928301828280156113875780601f1061135c57610100808354040283529160200191611387565b820191906000526020600020905b81548152906001019060200180831161136a57829003601f168201915b50505091835250506002820154602082015260039091015460ff16151560409091015292915050565b3360008181526005602081815260408084206001600160a01b03969096168085529582528084208054600160ff199182168117909255938352818520958552948252808420805490931685179092556006815290822080549384018155825290200180546001600160a01b0319169091179055565b61142d613cda565b50604080516080810182526001600160a01b038481168083526020808401868152600085870181905260016060870181905260025486168252601d845287822094825293835295909520845181546001600160a01b031916941693909317835593518051939485946114a59385019290910190613b7b565b50604082015160028201556060909101516003909101805460ff1916911515919091179055505050565b6114d7613d0d565b6040518060e00160405280878152602001868152602001858152602001838152602001848152602001858789010181526020018486888a0101018152509050806019886040516115279190614732565b9081526040805160209281900383019020835181559183015160018301558201516002820155606082015160038201556080820151600482015560a0820151600582015560c09091015160069091015550505050505050565b611588613d4a565b600e826040516115989190614732565b90815260408051602092819003830181206101608201835280546001600160a01b03168252600180820180548551600261010094831615949094026000190190911692909204601f81018790048702830187019095528482529294919382860193919283018282801561164c5780601f106116215761010080835404028352916020019161164c565b820191906000526020600020905b81548152906001019060200180831161162f57829003601f168201915b5050509183525050600282810180546040805160206001841615610100026000190190931694909404601f810183900483028501830190915280845293810193908301828280156116de5780601f106116b3576101008083540402835291602001916116de565b820191906000526020600020905b8154815290600101906020018083116116c157829003601f168201915b5050509183525050600382015460208083019190915260048301805460408051601f6002600019610100600187161502019094169390930492830185900485028101850182528281529401939283018282801561177c5780601f106117515761010080835404028352916020019161177c565b820191906000526020600020905b81548152906001019060200180831161175f57829003601f168201915b505050505081526020016005820154815260200160068201548152602001600782018054600181600116156101000203166002900480601f0160208091040260200160405190810160405280929190818152602001828054600181600116156101000203166002900480156118325780601f1061180757610100808354040283529160200191611832565b820191906000526020600020905b81548152906001019060200180831161181557829003601f168201915b5050509183525050600882015460ff161515602082015260098201546040820152600a9091015460609091015292915050565b600080546001019055611876613c92565b506040805160c08101825260005481523360208201526001600160a01b0385168183015260608101849052608081018390524260a08201529051600e906118be908590614732565b9081526040805160209281900383019020600690810154608085015185516000908152601a8652848120919092029055338152600f8452828120805460018082018355918352918590208651929093029092019081558484015191810180546001600160a01b03199081166001600160a01b039485161790915592850151600282018054909416921691909117909155606083015180518493611968926003850192910190613b7b565b506080820151600482015560a090910151600590910155805160009081526010602090815260409182902083518155818401516001820180546001600160a01b03199081166001600160a01b039384161790915593850151600283018054909516911617909255606083015180518493926119ea926003850192910190613b7b565b506080820151816004015560a0820151816005015590505042336001600160a01b03167f530abb16f843103fba748c032a23827a5140b72d210f41d8bbbc183708de5240604051611a3a90614bbe565b60405180910390a350505050565b600280546001600160a01b0319166001600160a01b0392909216919091179055565b6000808211611a945760405162461bcd60e51b8152600401611a8b90614a9c565b60405180910390fd5b6002546001600160a01b039081166000908152601d602090815260408083208488168085529252909120549091161415611b4757600280546001600160a01b039081166000908152601d602090815260408083209388168084529390915290819020909201805485019081905591514291907f11cccc9b3fbc8fd163c4dbf6c7afdce1433c5cf351f29596a006f3720f648c2090611b359088908890614b4f565b60405180910390a36001915050611b4b565b5060005b92915050565b6000601782604051610e689190614732565b336000908152601160209081526040808320805482518185028101850190935280835260609492939192909184015b82821015611ca25760008481526020908190206040805160e08101825260078602909201805483526001808201546001600160a01b03908116858701526002808401548216868601526003840154909116606086015260048301805485516101009482161594909402600019011691909104601f81018790048702830187019094528382529394919360808601939192909190830182828015611c765780601f10611c4b57610100808354040283529160200191611c76565b820191906000526020600020905b815481529060010190602001808311611c5957829003601f168201915b505050505081526020016005820154815260200160068201548152505081526020019060010190611b92565b50505050905090565b611cb3613daf565b601c82604051611cc39190614732565b9081526040805160209281900383018120805460026001821615610100026000190190911604601f8101859004909402820160609081018452928201848152919390928492918491840182828015611d5c5780601f10611d3157610100808354040283529160200191611d5c565b820191906000526020600020905b815481529060010190602001808311611d3f57829003601f168201915b505050505081526020016001820154815250509050919050565b6002546001600160a01b039081166000908152601d6020908152604080832093851683529290529081206003015460ff1615611db457506001610b11565b506000610b11565b611dc4613daf565b5060408051808201825283815260208082018490526001600160a01b0386166000908152601b82529283208054600181018255908452928190208251805193948594600290910290920192611e1e92849290910190613b7b565b5060208201518160010155505080601c84604051611e3c9190614732565b90815260200160405180910390206000820151816000019080519060200190611e66929190613b7b565b506020820151816001015590505050505050565b600080546001019055611e8b613dc9565b506040805160e08101825260005481523360208201526001600160a01b0386811682840152851660608201526080810184905260a081018390524260c08201529051600e90611edb908590614732565b90815260408051602092819003830190206006015460a084015184516000908152601a8552838120919092029055835181526012835281902083518155838301516001820180546001600160a01b03199081166001600160a01b03938416179091559285015160028301805485169183169190911790556060850151600383018054909416911617909155608083015180518493611f80926004850192910190613b7b565b5060a0820151600582015560c0909101516006909101553360009081526011602090815260408083208054600180820183559185529383902085516007909502019384558483015190840180546001600160a01b03199081166001600160a01b0393841617909155918501516002850180548416918316919091179055606085015160038501805490931691161790556080830151805184939261202b926004850192910190613b7b565b5060a0820151816005015560c08201518160060155505042336001600160a01b03167f530abb16f843103fba748c032a23827a5140b72d210f41d8bbbc183708de524060405161207a90614abd565b60405180910390a35050505050565b60008160405160200161209c9190614732565b60405160208183030381529060405280519060200120836040516020016120c39190614732565b6040516020818303038152906040528051906020012014905092915050565b6002546001600160a01b031690565b6120f9613c07565b601382604051610b2e9190614732565b612111613d4a565b5060408051610160810182523380825260208083018d81528385018d9052606084018c9052608084018b905260a084018a905260c0840189905260e084018890528615156101008501524261012085015261014084018690526000928352600d8252938220805460018082018355918452928290208451600b9094020180546001600160a01b0319166001600160a01b0390941693909317835593518051939485946121c4939185019290910190613b7b565b50604082015180516121e0916002840191602090910190613b7b565b506060820151600382015560808201518051612206916004840191602090910190613b7b565b5060a0820151600582015560c0820151600682015560e08201518051612236916007840191602090910190613b7b565b5061010082015160088201805460ff1916911515919091179055610120820151600982015561014090910151600a909101556040518190600e9061227b908d90614732565b90815260405160209181900382019020825181546001600160a01b0319166001600160a01b0390911617815582820151805191926122c192600185019290910190613b7b565b50604082015180516122dd916002840191602090910190613b7b565b506060820151600382015560808201518051612303916004840191602090910190613b7b565b5060a0820151600582015560c0820151600682015560e08201518051612333916007840191602090910190613b7b565b5061010082015160088201805460ff1916911515919091179055610120820151600982015561014090910151600a909101556003805460018101825560009190915281517fc2575a0e9e593c00f959f8c92f12db2869c3395a3b0502d05e2516446f71f85b600b90920291820180546001600160a01b0319166001600160a01b03909216919091178155602080840151805185946123f7937fc2575a0e9e593c00f959f8c92f12db2869c3395a3b0502d05e2516446f71f85c909101920190613b7b565b5060408201518051612413916002840191602090910190613b7b565b506060820151600382015560808201518051612439916004840191602090910190613b7b565b5060a0820151600582015560c0820151600682015560e08201518051612469916007840191602090910190613b7b565b5061010082015160088201805460ff1916911515919091179055610120820151600982015561014090910151600a909101556124a6338b88611dbc565b50505050505050505050565b60606008826040516124c49190614732565b9081526020016040518091039020805480602002602001604051908101604052809291908181526020016000905b82821015610b0a5760008481526020908190206040805160058602909201805460026001821615610100026000190190911604601f8101859004909402830160c090810190925260a083018481529293909284929091849184018282801561259b5780601f106125705761010080835404028352916020019161259b565b820191906000526020600020905b81548152906001019060200180831161257e57829003601f168201915b50505050508152602001600182018054600181600116156101000203166002900480601f01602080910402602001604051908101604052809291908181526020018280546001816001161561010002031660029004801561263d5780601f106126125761010080835404028352916020019161263d565b820191906000526020600020905b81548152906001019060200180831161262057829003601f168201915b505050918352505060028281015460208084019190915260038401805460408051601f600019610100600186161502019093169590950491820184900484028501840181528185529094019390918301828280156126dc5780601f106126b1576101008083540402835291602001916126dc565b820191906000526020600020905b8154815290600101906020018083116126bf57829003601f168201915b505050918352505060048201805460408051602060026001851615610100026000190190941693909304601f81018490048402820184019092528181529382019392918301828280156127705780601f1061274557610100808354040283529160200191612770565b820191906000526020600020905b81548152906001019060200180831161275357829003601f168201915b505050505081525050815260200190600101906124f2565b60606003805480602002602001604051908101604052809291908181526020016000905b82821015611ca25760008481526020908190206040805161016081018252600b860290920180546001600160a01b03168352600180820180548451600261010094831615949094026000190190911692909204601f8101879004870283018701909452838252939491938583019391929091908301828280156128705780601f1061284557610100808354040283529160200191612870565b820191906000526020600020905b81548152906001019060200180831161285357829003601f168201915b5050509183525050600282810180546040805160206001841615610100026000190190931694909404601f810183900483028501830190915280845293810193908301828280156129025780601f106128d757610100808354040283529160200191612902565b820191906000526020600020905b8154815290600101906020018083116128e557829003601f168201915b5050509183525050600382015460208083019190915260048301805460408051601f600260001961010060018716150201909416939093049283018590048502810185018252828152940193928301828280156129a05780601f10612975576101008083540402835291602001916129a0565b820191906000526020600020905b81548152906001019060200180831161298357829003601f168201915b505050505081526020016005820154815260200160068201548152602001600782018054600181600116156101000203166002900480601f016020809104026020016040519081016040528092919081815260200182805460018160011615610100020316600290048015612a565780601f10612a2b57610100808354040283529160200191612a56565b820191906000526020600020905b815481529060010190602001808311612a3957829003601f168201915b5050509183525050600882015460ff16151560208083019190915260098301546040830152600a9092015460609091015290825260019290920191016127ac565b3360008181526005602081815260408084206001600160a01b03969096168452948152848320805460ff19908116909155918152848320938352929092529190912080549091169055565b6000600a82604051610e689190614732565b6001600160a01b03918216600090815260056020908152604080832093909416825291909152205460ff1690565b6001600160a01b0381166000908152601b60209081526040808320805482518185028101850190935280835260609492939192909184015b82821015610b0a5760008481526020908190206040805160028681029093018054600181161561010002600019011693909304601f810185900490940281016060908101835291810184815290938492849190840182828015612bfe5780601f10612bd357610100808354040283529160200191612bfe565b820191906000526020600020905b815481529060010190602001808311612be157829003601f168201915b5050505050815260200160018201548152505081526020019060010190612b5a565b336000908152600f60209081526040808320805482518185028101850190935280835260609492939192909184015b82821015611ca25760008481526020908190206040805160c08101825260068602909201805483526001808201546001600160a01b03908116858701526002808401549091168585015260038301805485516101009482161594909402600019011691909104601f81018790048702830187019094528382529394919360608601939192909190830182828015612d275780601f10612cfc57610100808354040283529160200191612d27565b820191906000526020600020905b815481529060010190602001808311612d0a57829003601f168201915b505050505081526020016004820154815260200160058201548152505081526020019060010190612c4f565b6001600160a01b0383166000908152601b602052604081208054612e1792859291612d7a57fe5b60009182526020918290206002918202018054604080516001831615610100026000190190921693909304601f810185900485028201850190935282815292909190830182828015612e0d5780601f10612de257610100808354040283529160200191612e0d565b820191906000526020600020905b815481529060010190602001808311612df057829003601f168201915b5050505050612089565b156107e2576001600160a01b0383166000908152601b602052604081208054839290612e3f57fe5b90600052602060002090600202016001018190555080601c83604051612e659190614732565b90815260405190819003602001902060010155505050565b3360009081526005602090815260408083206001600160a01b03949094168352929052205460ff1690565b6000601882604051610e689190614732565b6000600982604051610e689190614732565b612ed4613d0d565b601982604051612ee49190614732565b90815260200160405180910390206040518060e00160405290816000820154815260200160018201548152602001600282015481526020016003820154815260200160048201548152602001600582015481526020016006820154815250509050919050565b6060600c82604051612f5c9190614732565b9081526020016040518091039020805480602002602001604051908101604052809291908181526020016000905b82821015610b0a5760008481526020908190208301805460408051601f60026000196101006001871615020190941693909304928301859004850281018501909152818152928301828280156130215780601f10612ff657610100808354040283529160200191613021565b820191906000526020600020905b81548152906001019060200180831161300457829003601f168201915b505050505081526020019060010190612f8a565b600280546001600160a01b039081166000908152601d602090815260408083209388168352929052908120909101548211156130835760405162461bcd60e51b8152600401611a8b90614b26565b6002546001600160a01b039081166000908152601d602090815260408083208489168085529252909120549091161480156130ee57506002546001600160a01b039081166000908152601d602090815260408083209387168352929052206003015460ff1615156001145b156131a257600280546001600160a01b039081166000908152601d602081815260408084208a8616808652818452828620880180548c89168089529386528488208a0154908c90039182905589549098168752948452828620918652925292839020938701939094018390559051909242917f11cccc9b3fbc8fd163c4dbf6c7afdce1433c5cf351f29596a006f3720f648c209061318f9089908990614b86565b60405180910390a36001925050506131a6565b5060005b9392505050565b60606004805480602002602001604051908101604052809291908181526020016000905b82821015611ca2576000848152602090819020604080516080810182526004860290920180546001600160a01b03168352600180820180548451600261010094831615949094026000190190911692909204601f8101879004870283018701909452838252939491938583019391929091908301828280156132945780601f1061326957610100808354040283529160200191613294565b820191906000526020600020905b81548152906001019060200180831161327757829003601f168201915b5050509183525050600282810180546040805160206001841615610100026000190190931694909404601f810183900483028501830190915280845293810193908301828280156133265780601f106132fb57610100808354040283529160200191613326565b820191906000526020600020905b81548152906001019060200180831161330957829003601f168201915b505050918352505060038201805460408051602060026001851615610100026000190190941693909304601f81018490048402820184019092528181529382019392918301828280156133ba5780601f1061338f576101008083540402835291602001916133ba565b820191906000526020600020905b81548152906001019060200180831161339d57829003601f168201915b505050505081525050815260200190600101906131d1565b6000908152601a602052604090205490565b80600a836040516133f59190614732565b908152604051908190036020019020555050565b6001600160a01b0381166000908152600760209081526040808320805482518185028101850190935280835260609492939192909184015b82821015610b0a576000848152602090819020604080516080810182526004860290920180546001600160a01b03168352600180820180548451600261010094831615949094026000190190911692909204601f8101879004870283018701909452838252939491938583019391929091908301828280156135045780601f106134d957610100808354040283529160200191613504565b820191906000526020600020905b8154815290600101906020018083116134e757829003601f168201915b5050509183525050600282810180546040805160206001841615610100026000190190931694909404601f810183900483028501830190915280845293810193908301828280156135965780601f1061356b57610100808354040283529160200191613596565b820191906000526020600020905b81548152906001019060200180831161357957829003601f168201915b505050918352505060038201805460408051602060026001851615610100026000190190941693909304601f810184900484028201840190925281815293820193929183018282801561362a5780601f106135ff5761010080835404028352916020019161362a565b820191906000526020600020905b81548152906001019060200180831161360d57829003601f168201915b50505050508152505081526020019060010190613441565b6008816040516136529190614732565b908152602001604051809103902060008154811061366c57fe5b90600052602060002090600502016002015460098260405161368e9190614732565b9081526040519081900360200190205550565b6136ab8a836133e4565b6136b3613c07565b60405180610160016040528089850281526020018a8152602001898152602001868152602001858152602001878902815260200188815260200187815260200160008152602001600081526020018381525090508060148c6040516137189190614732565b9081526020016040518091039020600082015181600001556020820151816001015560408201518160020155606082015181600301556080820151816004015560a0820151816005015560c0820151816006015560e082015181600701556101008201518160080155610120820151816009015561014082015181600a01559050508960178c6040516137ab9190614732565b9081526020016040518091039020819055506137ef8b6040518060400160405280601081526020016f50524f44554354494f4e2d524541445960801b81525061079d565b5050505050505050505050565b60006138078a612eba565b9050613811613c07565b60405180610160016040528089840281526020018a8152602001898152602001868152602001858152602001878902815260200188815260200187815260200160008152602001600081526020018481525090508060158c6040516138769190614732565b9081526020016040518091039020600082015181600001556020820151816001015560408201518160020155606082015181600301556080820151816004015560a0820151816005015560c0820151816006015560e082015181600701556101008201518160080155610120820151816009015561014082015181600a01559050508960188c604051610fa39190614732565b600280546001600160a01b039081166000908152601d6020908152604080832093871683529290529081209091015482106139565760405162461bcd60e51b8152600401611a8b90614b26565b6002546001600160a01b039081166000908152601d602090815260408083208488168085529252909120549091161415611b4757600280546001600160a01b039081166000908152601d60209081526040808320938816808452939091529081902090920180548590039081905591514291907f11cccc9b3fbc8fd163c4dbf6c7afdce1433c5cf351f29596a006f3720f648c2090611b359088908890614aec565b6002546001600160a01b039081166000908152601d6020908152604080832084861680855292528220549192919091161415610b115750600280546001600160a01b039081166000908152601d602090815260408083209386168352929052200154610b11565b613a67613e21565b6040518060a00160405280878152602001868152602001838152602001858152602001848152509050600887604051613aa09190614732565b908152604051602091819003820190208054600181018255600091825290829020835180518594600590940290920192613adf92849290910190613b7b565b506020828101518051613af89260018501920190613b7b565b506040820151600282015560608201518051613b1e916003840191602090910190613b7b565b5060808201518051613b3a916004840191602090910190613b7b565b505050613b4687613642565b613b72876040518060400160405280600a815260200169149151d254d51154915160b21b81525061079d565b50505050505050565b828054600181600116156101000203166002900490600052602060002090601f016020900481019282613bb15760008555613bf7565b82601f10613bca57805160ff1916838001178555613bf7565b82800160010185558215613bf7579182015b82811115613bf7578251825591602001919060010190613bdc565b50613c03929150613e50565b5090565b60405180610160016040528060008152602001600081526020016000815260200160008152602001600081526020016000815260200160008152602001600081526020016000815260200160008152602001600081525090565b604051806080016040528060006001600160a01b031681526020016060815260200160608152602001606081525090565b6040518060c001604052806000815260200160006001600160a01b0316815260200160006001600160a01b031681526020016060815260200160008152602001600081525090565b604051806080016040528060006001600160a01b0316815260200160608152602001600081526020016000151581525090565b6040518060e00160405280600081526020016000815260200160008152602001600081526020016000815260200160008152602001600081525090565b60405180610160016040528060006001600160a01b031681526020016060815260200160608152602001600081526020016060815260200160008152602001600081526020016060815260200160001515815260200160008152602001600081525090565b604051806040016040528060608152602001600081525090565b6040518060e001604052806000815260200160006001600160a01b0316815260200160006001600160a01b0316815260200160006001600160a01b031681526020016060815260200160008152602001600081525090565b6040518060a0016040528060608152602001606081526020016000815260200160608152602001606081525090565b5b80821115613c035760008155600101613e51565b80356001600160a01b0381168114610b1157600080fd5b80358015158114610b1157600080fd5b600082601f830112613e9c578081fd5b81356001600160401b0380821115613eb057fe5b604051601f8301601f191681016020018281118282101715613ece57fe5b604052828152925082848301602001861015613ee957600080fd5b8260208601602083013760006020848301015250505092915050565b600060208284031215613f16578081fd5b6131a682613e65565b60008060408385031215613f31578081fd5b613f3a83613e65565b9150613f4860208401613e65565b90509250929050565b60008060008060808587031215613f66578182fd5b613f6f85613e65565b9350613f7d60208601613e65565b925060408501356001600160401b03811115613f97578283fd5b613fa387828801613e8c565b949793965093946060013593505050565b600080600060608486031215613fc8578283fd5b613fd184613e65565b9250613fdf60208501613e65565b9150604084013590509250925092565b60008060408385031215614001578182fd5b61400a83613e65565b915060208301356001600160401b03811115614024578182fd5b61403085828601613e8c565b9150509250929050565b60008060006060848603121561404e578283fd5b61405784613e65565b925060208401356001600160401b03811115614071578283fd5b61407d86828701613e8c565b925050604084013590509250925092565b600080604083850312156140a0578182fd5b6140a983613e65565b946020939093013593505050565b6000602082840312156140c8578081fd5b81356001600160401b038111156140dd578182fd5b6140e984828501613e8c565b949350505050565b60008060408385031215614103578182fd5b82356001600160401b0380821115614119578384fd5b61412586838701613e8c565b9350602085013591508082111561413a578283fd5b5061403085828601613e8c565b60008060006060848603121561415b578283fd5b83356001600160401b0380821115614171578485fd5b61417d87838801613e8c565b94506020860135915080821115614192578384fd5b61419e87838801613e8c565b935060408601359150808211156141b3578283fd5b506141c086828701613e8c565b9150509250925092565b60008060008060008060c087890312156141e2578182fd5b86356001600160401b03808211156141f8578384fd5b6142048a838b01613e8c565b97506020890135915080821115614219578384fd5b6142258a838b01613e8c565b9650604089013591508082111561423a578384fd5b6142468a838b01613e8c565b9550606089013591508082111561425b578384fd5b6142678a838b01613e8c565b9450608089013591508082111561427c578384fd5b5061428989828a01613e8c565b92505060a087013590509295509295509295565b60008060008060008060008060006101208a8c0312156142bb578283fd5b89356001600160401b03808211156142d1578485fd5b6142dd8d838e01613e8c565b9a5060208c01359150808211156142f2578485fd5b6142fe8d838e01613e8c565b995060408c0135985060608c013591508082111561431a578485fd5b6143268d838e01613e8c565b975060808c0135965060a08c0135955060c08c0135915080821115614349578485fd5b506143568c828d01613e8c565b93505061436560e08b01613e7c565b91506101008a013590509295985092959850929598565b6000806040838503121561438e578182fd5b82356001600160401b038111156143a3578283fd5b6143af85828601613e8c565b95602094909401359450505050565b60008060008060008060c087890312156143d6578384fd5b86356001600160401b038111156143eb578485fd5b6143f789828a01613e8c565b9960208901359950604089013598606081013598506080810135975060a0013595509350505050565b60008060008060008060008060006101208a8c03121561443e578283fd5b89356001600160401b03811115614453578384fd5b61445f8c828d01613e8c565b9c60208c01359c5060408c01359b60608101359b5060808101359a5060a0810135995060c0810135985060e08101359750610100013595509350505050565b6000806000806000806000806000806101408b8d0312156144bd578384fd5b8a356001600160401b038111156144d2578485fd5b6144de8d828e01613e8c565b9d60208d01359d5060408d01359c60608101359c5060808101359b5060a08101359a5060c0810135995060e081013598506101008101359750610120013595509350505050565b600060208284031215614536578081fd5b5035919050565b6001600160a01b03169052565b15159052565b60008151808452614568816020860160208601614d57565b601f01601f19169290920160200192915050565b60008151604084526145916040850182614550565b602093840151949093019390935250919050565b60006101606145b584845161453d565b60208301518160208601526145cc82860182614550565b915050604083015184820360408601526145e68282614550565b915050606083015160608501526080830151848203608086015261460a8282614550565b91505060a083015160a085015260c083015160c085015260e083015184820360e08601526146388282614550565b9150506101008084015161464e8287018261454a565b505061012083810151908501526101409283015192909301919091525090565b600060018060a01b0382511683526020820151608060208501526146956080850182614550565b9050604083015184820360408601526146ae8282614550565b915050606083015184820360608601526146c88282614550565b95945050505050565b600081518352602082015160018060a01b0380821660208601528060408501511660408601525050606082015160c0606085015261471260c0850182614550565b90506080830151608085015260a083015160a08501528091505092915050565b60008251614744818460208701614d57565b9190910192915050565b6001600160a01b0391909116815260200190565b6000602080830181845280855180835260408601915060408482028701019250838701855b828110156147b557603f198886030184526147a3858351614550565b94509285019290850190600101614787565b5092979650505050505050565b60208082528251828201819052600091906040908185019080840286018301878501865b8381101561486e57888303603f19018552815180518452878101516001600160a01b0390811689860152878201518116888601526060808301519091169085015260808082015160e0828701819052919061484383880182614550565b60a0858101519089015260c094850151949097019390935250505093860193908601906001016147e6565b509098975050505050505050565b6000602080830181845280855180835260408601915060408482028701019250838701855b828110156147b557603f198886030184526148bd85835161457c565b945092850192908501906001016148a1565b6000602080830181845280855180835260408601915060408482028701019250838701855b828110156147b557603f198886030184526149108583516145a5565b945092850192908501906001016148f4565b6000602080830181845280855180835260408601915060408482028701019250838701855b828110156147b557603f1988860301845261496385835161466e565b94509285019290850190600101614947565b6000602080830181845280855180835260408601915060408482028701019250838701855b828110156147b557603f198886030184526149b68583516146d1565b9450928501929085019060010161499a565b60208082528251828201819052600091906040908185019080840286018301878501865b8381101561486e57603f19898403018552815160a08151818652614a1282870182614550565b915050888201518582038a870152614a2a8282614550565b915050878201518886015260608083015186830382880152614a4c8382614550565b9250505060808083015192508582038187015250614a6a8183614550565b9689019694505050908601906001016149ec565b901515815260200190565b6000602082526131a66020830184614550565b6020808252600790820152661253959053125160ca1b604082015260600190565b60208082526015908201527410905510d208149154555154d50810d49150551151605a1b604082015260600190565b6060808252600a908201526915d2551211149055d05360b21b60808201526001600160a01b03929092166020830152604082015260a00190565b6020808252600f908201526e125394d551919250d2515395109053608a1b604082015260600190565b60608082526007908201526611115413d4d25560ca1b60808201526001600160a01b03929092166020830152604082015260a00190565b6060808252600890820152672a2920a729a322a960c11b60808201526001600160a01b03929092166020830152604082015260a00190565b6020808252600f908201526e149154555154d50810d49150551151608a1b604082015260600190565b602080825282516001600160a01b03168282015282015160806040830152600090614c1560a0840182614550565b9050604084015160608401526060840151151560808401528091505092915050565b600061016082019050825182526020830151602083015260408301516040830152606083015160608301526080830151608083015260a083015160a083015260c083015160c083015260e083015160e083015261010080840151818401525061012080840151818401525061014080840151818401525092915050565b6000602082526131a6602083018461457c565b600060e082019050825182526020830151602083015260408301516040830152606083015160608301526080830151608083015260a083015160a083015260c083015160c083015292915050565b6000602082526131a660208301846145a5565b6000602082526131a6602083018461466e565b6000602082526131a660208301846146d1565b90815260200190565b60005b83811015614d72578181015183820152602001614d5a565b83811115610e0b575050600091015256fea264697066735822122017546aaf5c4b04f93f7f1598ccc14a45a007f2d4ef23f9d9024516f4bdb9fb6664736f6c63430007040033",
  "immutableReferences": {},
  "source": "// \"SPDX-License-Identifier: UNLICENSED\"\n// PRODUCT MANAGEMENT AND COST MANAGEMENT GOES HERE\npragma solidity >=0.6.2;\npragma experimental ABIEncoderV2;  \n\n  interface PharmaChainInterface {\n         function   strComp(string memory x , string memory y ) external pure returns (bool);\n         event      requestStateUpdate  (address indexed who, uint indexed timestamp , string  state);\n         event      BankTransact        (string txName, address indexed _from , address  _to , uint _amount , uint indexed timestamp);\n    }\n\n\ncontract PharmaChain {\n    \n  \n// CONTRACT CONTENT GOES HERE\n    \n    // UTILS\n    \n    function strComp(string memory x , string memory y ) public pure returns (bool){\n        \n        return (keccak256(abi.encodePacked((x))) == keccak256(abi.encodePacked((y))));\n        \n    }\n    \n    // END OF UTILS\n\n    \n    uint        trackNoCount = 0;\n    address     admin;\n    address     bank;\n    Material[]  materialArr;\n    Product[]   productArr;\n    mapping (address => mapping(address => bool)) participants;   // trusted participants\n    mapping (address => address[])            trustedPartis; // participants and trusted other trusted mapping for array\n    mapping (address => Product[])          products;    // manufacturer and product\n    mapping (string => Specs[])             productSpecs; // productID and material \n    mapping (string => uint)                stdMaterialQty; // std mateiral qty used in product (id) unit\n    mapping (string => uint)                actMaterialQty; //  actual material qty used in product (id) unit \n    mapping (string => Product)             productList; // product by id\n    mapping (string => string[])            productPhase; // product id and phases;\n    mapping (address => Material[])         materials;   //Participant(supplier) and material\n    mapping (string => Material)            materialList; // materials by id\n    mapping (address => Request[])          requests;   // participant and requests\n    mapping (uint => Request)               requestList; // requests by id\n    mapping (address => BatchRequest[])     batchRequests; //participant and batch requests\n    mapping (uint => BatchRequest)          batchRequestsList; // request id\n    mapping (string => Cost)                standardProductCosts;\n    mapping (string => Cost)                actualProductCosts;\n    mapping (string => Cost)                flexibleProductCosts;\n    mapping (string => uint)                standardBudgetUnits;\n    mapping (string => uint)                actualBudgetUnits;\n    mapping (string => uint)                flexibleBudgetUnits;\n    mapping (string => MaterialProductionCost) materialCostPlan;   // supplier's material cost data\n    mapping (uint => uint)                  requestCost;    // requestId and Cost\n    mapping (address => InventoryItem[])    inventory;   // participant and items inventory\n    mapping (string => InventoryItem)       inventoryList;   // inventory item by item id\n    mapping (address => mapping (address => BankAccount) ) userBankAccounts; // bankAddr -> userAddr -> userAcc\n    event   requestStateUpdate  (address indexed who, uint indexed timestamp , string  state);\n    event   BankTransact        (string txName, address indexed _from , address  _to , uint _amount , uint indexed timestamp);\n    \n    struct BankAccount {\n    \n        address userId;\n        string  userName;\n        uint    userBalance;\n        bool    isActive;\n    }\n    \n    struct Product {\n        \n        address manufacturer;\n        string  productId; //registration no.\n        string  productName;\n        string  productForm; // tablets or capsules\n        \n    }\n    \n    struct Material {\n        address supplier;\n        string  materialID;\n        string  materialName;\n        uint    materialStrength;\n        string  materialForm;\n        uint    createdAmount;\n        uint    unitCost;\n        string  storageConditions;\n        bool    materialStability;\n        uint    materialManuDate;\n        uint    materialStabilityPeriod; // example 3 years\n    }\n    \n    \n    struct Specs {\n        string  materialName;\n        string  materialType;\n        uint    materialAmount;\n        string  materialStrength;\n        string  materialForm;\n        \n    }\n\n    struct Request {\n        uint    requestId;\n        address fromParti;\n        address toParti;\n        string  materialID;\n        uint    amount;\n        uint    issueTime;\n    }\n    \n    struct BatchRequest {\n        uint    requestId;\n        address fromParti1;\n        address fromParti2;\n        address toParti;\n        string  materialID;\n        uint    amount;\n        uint    issueTime;\n    }\n    \n    // Cost Per Product Unit \n    struct Cost {\n        uint directMaterialCost;\n        uint packagingMaterialCost;\n        uint materialCostPerUnit; // cost per unit material\n        uint marketingCost;\n        uint researchCost;\n        uint directLaborCost;\n        uint ratePerWorkHr; // rate per work hour\n        uint workHrs;       // no of work hours\n        uint totalDirectCost;\n        uint CostTOT; // direct material + direct labor + total indirect\n        uint shippingCost; // shipping method cost \n    }\n    \n    struct MaterialProductionCost {\n         uint directMaterialCost;\n         uint packagingMaterialCost;\n         uint directLaborCost;\n         uint shippingCost;\n         uint totalIndirectCost;\n         uint totalDirectCost;\n         uint CostTOT;\n    }\n    \n    \n    struct Location {\n        string Latitude;\n        string Longitude;\n    }\n    \n    struct InventoryItem {\n      string itemId;\n      uint   amount;\n    }\n    \n    // FUNCTIONS AND MODIFIERS\n    \n    // modifier onlyTrusted(address _participant) {\n    //     require(participants[msg.sender][_participant] == true);\n    //     _;\n    // }\n\n    function addToTrusted(address _participant) public  {\n        participants[msg.sender][_participant] = true;\n        participants[_participant][msg.sender] = true;\n        trustedPartis[msg.sender].push(_participant);\n    }   \n    \n    function removeFromTrusted(address _participant) public {\n        participants[msg.sender][_participant] = false;\n        participants[_participant][msg.sender] = false;\n    }\n    \n    function isTrusted(address _participant) public view returns (bool) {\n        return participants[msg.sender][_participant];\n    }\n    \n    function checkIfTrusted(address _truster, address _trustee) public view returns (bool) {\n        return participants[_truster][_trustee];\n    }\n    \n    function emitRequestStateEvent(string memory _state) public {\n         emit requestStateUpdate(msg.sender, block.timestamp , _state);\n    }\n    // MANUFACTURING STUFF GOES HERE\n    \n    function addProduct(\n    \n    string memory _id,\n    string memory _name,\n    string memory _pForm\n    \n    ) public {\n        \n        Product memory pro = Product({\n            productId: _id,\n            productName: _name,\n            productForm: _pForm,\n            manufacturer: msg.sender\n        });\n        \n        products[msg.sender].push(pro);\n        productList[_id] = pro;\n        productArr.push(pro);\n        setProductPhase(_id, 'UNDER-RESEARCH');\n    \n        \n    }\n    \n    function addProductSpecs(\n    \n    string memory _productID,\n    string memory _name,\n    string memory _type,\n    string memory _strength,\n    string memory _form,\n    uint          _amount\n    \n    ) public {\n    \n        Specs memory spec = Specs({\n            materialName: _name,\n            materialType: _type,\n            materialForm: _form,\n            materialAmount: _amount,\n            materialStrength: _strength\n            \n        });      \n        \n        productSpecs[_productID].push(spec);\n        setStdMaterialQty(_productID);\n        setProductPhase(_productID , 'REGISTERED');\n        \n    }\n    \n      \n    function getProductsByManu(address _manufacturer) public view returns(Product[] memory) {\n        return products[_manufacturer];\n    }\n    \n    function getProducts() public view returns(Product[] memory) {\n        return productArr;\n    }\n    \n    function getProductById(string memory _id) public view returns(Product memory) {\n        return productList[_id];\n    }\n    \n    function getProductSpecs(string memory _product) public view returns(Specs[] memory) {\n        return productSpecs[_product];\n    }\n    \n    function setProductPhase(string memory _product , string memory _phase) public {\n        productPhase[_product].push(_phase);\n    }\n    \n    function getProductPhase(string memory _product) public view returns (string[] memory phases) {\n       return productPhase[_product];\n    }\n    \n    // END OF MANUFACTURING STUFF\n    // COST ACCOUNTING STUFF GOES HERE\n    \n    function setStdCostPlan(\n    \n    string  memory _product,\n    uint    _unitsNo,\n    uint    _pkgMatCost,\n    uint    _unitMaterialCost,\n    uint    _ratePerHr,\n    uint    _workHrsNo,\n    uint    _mrkCost,\n    uint    _rsrchCost,\n    uint    _shipCost\n        ) public {\n    \n    uint matAmount = getStdMaterialQty(_product);\n    Cost memory stdCosts = Cost({\n        directMaterialCost: matAmount * _unitMaterialCost,\n        ratePerWorkHr: _ratePerHr,\n        materialCostPerUnit: _unitMaterialCost,\n        workHrs: _workHrsNo,\n        directLaborCost: _ratePerHr * _workHrsNo,\n        totalDirectCost: 0,\n        packagingMaterialCost: _pkgMatCost,\n        marketingCost: _mrkCost,\n        researchCost: _rsrchCost,\n        shippingCost: _shipCost,\n        CostTOT: 0\n       \n    });\n    \n    standardProductCosts[_product] = stdCosts;\n    standardBudgetUnits[_product] = _unitsNo;\n    }\n    \n    \n    function setStdMaterialQty(string memory _product) public {\n        stdMaterialQty[_product] = productSpecs[_product][0].materialAmount;\n    }\n    \n    \n    function getStdCostPlan(string memory _product) public view returns(Cost memory) {\n        return standardProductCosts[_product];\n    }\n    \n    // function getStdCostPlanAsTrusted (string memory _product, address _invoker)\n    // public \n    // onlyTrusted(_invoker)\n    // view \n    // returns(Cost memory) {\n    // return standardProductCosts[_product];\n    // }\n    \n    function getStdBudgetUnits(string memory _product) public view returns (uint units ) {\n        return standardBudgetUnits[_product];\n    }\n    \n    function getStdMaterialQty(string memory _product) public view returns (uint) {\n        return stdMaterialQty[_product];\n    }\n    \n    function setActualCost(\n    \n    string memory _product,\n    uint _unitsNo,\n    uint _actualPkgMatCost,\n    uint _unitMaterialCost,\n    uint _actualRatePerHr,\n    uint _actualWorkHrsNo,\n    uint _actualMrkCost,\n    uint _actualRsrchCost,\n    uint _actualMatQty,\n    uint _actualShipCost\n    \n    ) public {\n        \n        setActualMaterialQty(_product,_actualMatQty);\n        Cost memory actualCosts = Cost({\n            directMaterialCost: _actualMatQty * _unitMaterialCost,\n            packagingMaterialCost: _actualPkgMatCost,\n            materialCostPerUnit: _unitMaterialCost,\n            totalDirectCost: 0,\n            ratePerWorkHr: _actualRatePerHr,\n            workHrs: _actualWorkHrsNo,\n            marketingCost: _actualMrkCost,\n            researchCost: _actualRsrchCost,\n            directLaborCost: _actualRatePerHr * _actualWorkHrsNo,\n            shippingCost: _actualShipCost,\n            CostTOT: 0\n        });\n        \n        actualProductCosts[_product] = actualCosts;\n        actualBudgetUnits[_product] = _unitsNo;\n        setProductPhase(_product, 'PRODUCTION-READY');\n    }\n    \n    \n    function getActualCost(string memory _product) public view returns(Cost memory) {\n        \n        return actualProductCosts[_product];\n    }\n    \n    function setActualMaterialQty (string memory _product , uint _amount) public {\n        actMaterialQty[_product] = _amount;\n    }\n    \n    function getActualMaterialQty (string memory _product) public view returns (uint) {\n        return actMaterialQty[_product];\n    }\n    \n    function getActualBudgetUnits(string memory _product) public view returns(uint units ) {\n        return actualBudgetUnits[_product];\n    }\n    \n    function setFlexibleCosts(\n    string memory _product,\n    uint _unitsNo,\n    uint _pkgUnitCost,\n    uint _unitMaterialCost,\n    uint _ratePerHr,\n    uint _workHrsNo,\n    uint _flexibleMrkCost,\n    uint _flexibleRsrchCost,\n    uint _flexibleShipCost\n    )\n    public {\n        \n        uint matAmount = getStdMaterialQty(_product);\n        Cost memory flex = Cost ({\n            directMaterialCost: matAmount * _unitMaterialCost,\n            packagingMaterialCost: _pkgUnitCost,\n            totalDirectCost: 0,\n            ratePerWorkHr: _ratePerHr,\n            workHrs: _workHrsNo,\n            materialCostPerUnit: _unitMaterialCost,\n            marketingCost: _flexibleMrkCost,\n            researchCost: _flexibleRsrchCost,\n            directLaborCost:  _ratePerHr * _workHrsNo,\n            shippingCost: _flexibleShipCost,\n            CostTOT: 0\n        });\n        \n        flexibleProductCosts[_product] = flex;\n        flexibleBudgetUnits[_product] = _unitsNo;\n        \n    }\n    \n    function getFlexibleCosts(string memory _product) public view returns (Cost memory) {\n        return flexibleProductCosts[_product];\n    }\n    \n    function getFlexibleBudgetUnits(string memory _product) public view returns(uint units) {\n        return flexibleBudgetUnits[_product];\n    }\n    \n    // END OF  COST ACCOUNTING STUF\n    // SUPPLYING STUFF GOES HERE\n    \n    // Creation of Material By Supplier\n    \n    function createMaterial(\n    \n    string memory _id,\n    string memory _name,\n    uint          _str,\n    string memory _form,\n    uint          _amount,\n    uint          _unitCost,\n    string memory _storageConditions,\n    bool          _stability,\n    uint          _stabilityPeriod\n    \n    ) public {\n        \n        Material memory mat = Material({\n           supplier: msg.sender,\n           materialID:   _id,\n           materialName: _name,\n           materialForm: _form,\n           materialStrength: _str,\n           createdAmount: _amount,\n           unitCost:      _unitCost,\n           storageConditions: _storageConditions,\n           materialStability: _stability,\n           materialStabilityPeriod: _stabilityPeriod,\n           materialManuDate: block.timestamp\n        });\n\n        materials[msg.sender].push(mat);\n        materialList[_id] = mat;\n        materialArr.push(mat);\n        addToInventory(msg.sender, _id , _amount);\n        \n    }\n    \n    function setMaterialCostPlan (\n    string memory _materialID,\n    uint _directMaterialCost,\n    uint _directPkgUnitCost,\n    uint _directLaborCost,\n    uint _totalIndirectCost,\n    uint _shipCost\n    \n    )\n    public {\n        MaterialProductionCost memory matCost = MaterialProductionCost ({\n            directMaterialCost: _directMaterialCost,\n            packagingMaterialCost: _directPkgUnitCost,\n            directLaborCost:  _directLaborCost,\n            shippingCost: _shipCost,\n            totalDirectCost:  _directMaterialCost + _directPkgUnitCost +  _directLaborCost,\n            totalIndirectCost: _totalIndirectCost,\n            CostTOT:  _directMaterialCost + _directPkgUnitCost +  _directLaborCost + _totalIndirectCost\n        });\n        \n        materialCostPlan[_materialID] = matCost;\n        \n    }\n    \n    function getMaterialCostPlan(string memory _material) public view returns(MaterialProductionCost memory) {\n        return materialCostPlan[_material];\n    }\n    \n    \n    function getMaterialsBySupplier(address _supplier) public view returns(Material[] memory ) {\n        return materials[_supplier];\n    }\n    \n    \n    // Materials to filter through\n    \n    function getMaterials() public view returns(Material[] memory) {\n        return materialArr;\n    }\n    \n    function getMaterialById (string memory _materialId) public view returns(Material memory) {\n        return materialList[_materialId];\n    }\n    \n\n    function createRequest(\n    \n    address _to ,\n    string memory _materialId,\n    uint _amount \n    )\n    public {\n        trackNoCount += 1;\n        Request memory req = Request({\n           requestId: trackNoCount,\n           fromParti: msg.sender,\n           toParti: _to,\n           materialID : _materialId,\n           amount: _amount,\n           issueTime: block.timestamp\n        });\n        \n        requestCost[req.requestId] = req.amount * materialList[_materialId].unitCost; \n        requests[msg.sender].push(req);\n        requestList[req.requestId] = req;\n        emit requestStateUpdate(msg.sender, block.timestamp , 'REQUEST CREATED');\n    }\n    \n    function createBatchRequest(\n    address _fromParti2,\n    address _to,\n    string memory _materialId,\n    uint _amount\n    ) \n    public {\n        trackNoCount += 1;\n        BatchRequest memory batchReq = BatchRequest({\n            requestId: trackNoCount,\n            fromParti1: msg.sender,\n            fromParti2: _fromParti2,\n            toParti: _to,\n            materialID: _materialId,\n            amount: _amount,\n            issueTime: block.timestamp\n        });\n        \n        requestCost[batchReq.requestId] = batchReq.amount * materialList[_materialId].unitCost;\n        batchRequestsList[batchReq.requestId] = batchReq;\n        batchRequests[msg.sender].push(batchReq);\n        emit requestStateUpdate(msg.sender, block.timestamp , 'BATCH REQUEST CREATED');\n        \n    }\n    \n    function getRequestCost(uint _id) public view returns(uint) {\n        return requestCost[_id];\n    }\n    \n    function getMyRequests() public view returns (Request[] memory) {\n        \n        return requests[msg.sender];\n    }\n    \n    function getMyBatchRequests() public view returns (BatchRequest[] memory) {\n        return batchRequests[msg.sender];\n    }\n    \n    function getRequestById(uint _id) public view returns (Request memory) {\n        return requestList[_id];\n    }\n    \n    function addToInventory(address _participant , string memory _item , uint _amount) public {\n        InventoryItem memory itm = InventoryItem({\n            itemId: _item,\n            amount: _amount\n        });\n        \n        inventory[_participant].push(itm);\n        inventoryList[_item] = itm;\n    }\n    \n    function updateInventory(address _participant , string memory _item , uint _amount) public {\n        \n        if(strComp(_item, inventory[_participant][0].itemId) ) {\n            inventory[_participant][0].amount = _amount;\n            inventoryList[_item].amount = _amount;\n            \n        }\n    }\n    \n    function getInventory(address _participant) public view returns (InventoryItem[] memory) {\n        return inventory[_participant];\n    }\n    \n    function getInventoryItemById(string memory _item) public view returns (InventoryItem memory) {\n        return inventoryList[_item];\n    }\n    \n    // END OF SUPPLYING STUFF\n    // BANKING STUFF GOES HERE\n    \n    function setAsBank(address _addr) public {\n        bank = _addr;\n        \n    }\n    \n    function getBank() public view returns (address) {\n        return bank;\n    }\n    \n    function createBankAccount(address _userAddr, string memory _userName) public {\n        \n        BankAccount memory account = BankAccount({\n            \n            userId:  _userAddr,\n            userName: _userName,\n            userBalance: 0,\n            isActive: true\n            \n        });\n        \n        userBankAccounts[bank][_userAddr] = account;\n        \n    }\n    \n    function hasBankAccount(address _userAddr) public view returns (bool) {\n        if (userBankAccounts[bank][_userAddr].isActive != false) {\n            return true;\n        }\n        else {\n            return false;\n        }\n    }\n    \n    function deposit (address _userAddr, uint _amount) public returns (bool) {\n        \n        require (_amount > 0, 'INVALID');\n        if ( userBankAccounts[bank][_userAddr].userId == _userAddr) {\n            uint balance = userBankAccounts[bank][_userAddr].userBalance;\n            balance += _amount;\n            userBankAccounts[bank][_userAddr].userBalance = balance;\n            emit BankTransact ('DEPOSIT', _userAddr , _userAddr , _amount , block.timestamp);\n            return true;\n        }\n        else {\n            return false;\n        }\n        \n    }\n    \n    function withdraw (address _userAddr, uint _amount) public returns (bool) {\n        \n        require(userBankAccounts[bank][_userAddr].userBalance > _amount , 'INSUFFICIENTBAL' );\n        if (userBankAccounts[bank][_userAddr].userId == _userAddr) {\n            \n            uint balance = userBankAccounts[bank][_userAddr].userBalance;\n            balance -= _amount;\n            userBankAccounts[bank][_userAddr].userBalance = balance;\n            emit BankTransact ('WITHDRAWAL', _userAddr , _userAddr , _amount , block.timestamp);\n            return true;\n        }\n        else {\n            return false;\n        }\n    }\n\n    function getBalance (address _userAddr) public view returns (uint x) {\n        \n         if (userBankAccounts[bank][_userAddr].userId == _userAddr) {\n             uint balance = userBankAccounts[bank][_userAddr].userBalance;\n             return balance;\n        }\n    }\n\n    \n    function transfer (address _from, address _to , uint _amount) public returns (bool) {\n        \n         require(userBankAccounts[bank][_from].userBalance >= _amount ,\n         'INSUFFICIENTBAL' );\n         \n        if (userBankAccounts[bank][_from].userId == _from && userBankAccounts[bank][_to].isActive == true) {\n            \n            uint fromBalance = userBankAccounts[bank][_from].userBalance;\n            uint toBalance = userBankAccounts[bank][_to].userBalance;\n            fromBalance -= _amount;\n            toBalance += _amount;\n            userBankAccounts[bank][_from].userBalance = fromBalance;\n            userBankAccounts[bank][_to].userBalance = toBalance;\n            emit BankTransact ('TRANSFER', _from , _to , _amount , block.timestamp);\n            return true;\n        }\n        else {\n            return false;\n        }\n        \n    }\n    \n    function getAccountDetails(address _account) public view returns (BankAccount memory) {\n        return userBankAccounts[bank][_account];\n    }\n    \n    \n    // END OF BANKING STUFF\n// END OF CONTRACT\n\n}",
  "sourcePath": "/home/mohamedkaram/Documents/Projects/PharmaChain/contracts/PharmaChain.sol",
  "compiler": {
    "name": "solc",
    "version": "0.7.4+commit.3f05b770.Emscripten.clang"
  },
  "schemaVersion": "3.4.1",
  "updatedAt": "2021-06-16T17:21:54.013Z",
  "networkType": "ethereum",
  "devdoc": {
    "kind": "dev",
    "methods": {},
    "version": 1
  },
  "userdoc": {
    "kind": "user",
    "methods": {},
    "version": 1
  }
}