{
  "contractName": "PharmaChainTracking",
  "abi": [
    {
      "anonymous": false,
      "inputs": [
        {
          "indexed": true,
          "internalType": "uint256",
          "name": "requestNo",
          "type": "uint256"
        },
        {
          "indexed": false,
          "internalType": "string",
          "name": "DataCategory",
          "type": "string"
        },
        {
          "indexed": false,
          "internalType": "uint256",
          "name": "tempValues",
          "type": "uint256"
        },
        {
          "indexed": false,
          "internalType": "uint256",
          "name": "HumidValues",
          "type": "uint256"
        },
        {
          "indexed": true,
          "internalType": "uint256",
          "name": "timestamp",
          "type": "uint256"
        }
      ],
      "name": "DataSent",
      "type": "event"
    },
    {
      "anonymous": false,
      "inputs": [
        {
          "indexed": true,
          "internalType": "uint256",
          "name": "requestNo",
          "type": "uint256"
        },
        {
          "indexed": false,
          "internalType": "string",
          "name": "state",
          "type": "string"
        },
        {
          "indexed": true,
          "internalType": "uint256",
          "name": "timestamp",
          "type": "uint256"
        }
      ],
      "name": "ShipmentStateUpdate",
      "type": "event"
    },
    {
      "inputs": [
        {
          "internalType": "address",
          "name": "_contract",
          "type": "address"
        }
      ],
      "name": "setContract",
      "outputs": [],
      "stateMutability": "nonpayable",
      "type": "function"
    },
    {
      "inputs": [
        {
          "internalType": "uint256",
          "name": "_requestId",
          "type": "uint256"
        }
      ],
      "name": "approveRequest",
      "outputs": [],
      "stateMutability": "nonpayable",
      "type": "function"
    },
    {
      "inputs": [
        {
          "internalType": "uint256",
          "name": "_id",
          "type": "uint256"
        }
      ],
      "name": "verifyShipmentState",
      "outputs": [
        {
          "internalType": "string",
          "name": "",
          "type": "string"
        }
      ],
      "stateMutability": "nonpayable",
      "type": "function"
    },
    {
      "inputs": [
        {
          "internalType": "uint256",
          "name": "_requestId",
          "type": "uint256"
        }
      ],
      "name": "sendShipment",
      "outputs": [],
      "stateMutability": "nonpayable",
      "type": "function"
    },
    {
      "inputs": [
        {
          "internalType": "uint256",
          "name": "_requestId",
          "type": "uint256"
        }
      ],
      "name": "globalTransitShipment",
      "outputs": [],
      "stateMutability": "nonpayable",
      "type": "function"
    },
    {
      "inputs": [
        {
          "internalType": "uint256",
          "name": "_requestId",
          "type": "uint256"
        }
      ],
      "name": "localTransitShipment",
      "outputs": [],
      "stateMutability": "nonpayable",
      "type": "function"
    },
    {
      "inputs": [
        {
          "internalType": "uint256",
          "name": "_requestId",
          "type": "uint256"
        }
      ],
      "name": "receiveShipment",
      "outputs": [],
      "stateMutability": "nonpayable",
      "type": "function"
    },
    {
      "inputs": [
        {
          "internalType": "uint256",
          "name": "_requestId",
          "type": "uint256"
        },
        {
          "internalType": "string",
          "name": "_requestStatus",
          "type": "string"
        },
        {
          "internalType": "string",
          "name": "_shipmentStatus",
          "type": "string"
        },
        {
          "internalType": "string",
          "name": "_description",
          "type": "string"
        }
      ],
      "name": "createLog",
      "outputs": [],
      "stateMutability": "nonpayable",
      "type": "function"
    },
    {
      "inputs": [
        {
          "internalType": "uint256",
          "name": "_id",
          "type": "uint256"
        },
        {
          "internalType": "uint256",
          "name": "_temp",
          "type": "uint256"
        },
        {
          "internalType": "uint256",
          "name": "_humid",
          "type": "uint256"
        }
      ],
      "name": "setShipmentTrackData",
      "outputs": [],
      "stateMutability": "nonpayable",
      "type": "function"
    },
    {
      "inputs": [
        {
          "internalType": "uint256",
          "name": "_id",
          "type": "uint256"
        }
      ],
      "name": "getShipmentTrackData",
      "outputs": [
        {
          "internalType": "uint256[]",
          "name": "temp",
          "type": "uint256[]"
        },
        {
          "internalType": "uint256[]",
          "name": "humid",
          "type": "uint256[]"
        }
      ],
      "stateMutability": "view",
      "type": "function",
      "constant": true
    },
    {
      "inputs": [
        {
          "internalType": "uint256",
          "name": "_request",
          "type": "uint256"
        }
      ],
      "name": "getTrackLogs",
      "outputs": [
        {
          "components": [
            {
              "internalType": "address",
              "name": "logger",
              "type": "address"
            },
            {
              "internalType": "string",
              "name": "requestStatus",
              "type": "string"
            },
            {
              "internalType": "string",
              "name": "description",
              "type": "string"
            },
            {
              "internalType": "string",
              "name": "shipmentStatus",
              "type": "string"
            },
            {
              "internalType": "uint256",
              "name": "logTime",
              "type": "uint256"
            }
          ],
          "internalType": "struct PharmaChainTracking.Log[]",
          "name": "",
          "type": "tuple[]"
        }
      ],
      "stateMutability": "view",
      "type": "function",
      "constant": true
    },
    {
      "inputs": [],
      "name": "getAllTrack",
      "outputs": [
        {
          "components": [
            {
              "internalType": "address",
              "name": "logger",
              "type": "address"
            },
            {
              "internalType": "string",
              "name": "requestStatus",
              "type": "string"
            },
            {
              "internalType": "string",
              "name": "description",
              "type": "string"
            },
            {
              "internalType": "string",
              "name": "shipmentStatus",
              "type": "string"
            },
            {
              "internalType": "uint256",
              "name": "logTime",
              "type": "uint256"
            }
          ],
          "internalType": "struct PharmaChainTracking.Log[]",
          "name": "",
          "type": "tuple[]"
        }
      ],
      "stateMutability": "view",
      "type": "function",
      "constant": true
    },
    {
      "inputs": [
        {
          "internalType": "uint256",
          "name": "_id",
          "type": "uint256"
        },
        {
          "internalType": "string",
          "name": "_lat",
          "type": "string"
        },
        {
          "internalType": "string",
          "name": "_long",
          "type": "string"
        }
      ],
      "name": "setShipmentLocation",
      "outputs": [],
      "stateMutability": "nonpayable",
      "type": "function"
    },
    {
      "inputs": [
        {
          "internalType": "uint256",
          "name": "_id",
          "type": "uint256"
        }
      ],
      "name": "getShipmentLocation",
      "outputs": [
        {
          "components": [
            {
              "internalType": "string",
              "name": "Latitude",
              "type": "string"
            },
            {
              "internalType": "string",
              "name": "Longitude",
              "type": "string"
            }
          ],
          "internalType": "struct PharmaChainTracking.Location[]",
          "name": "",
          "type": "tuple[]"
        }
      ],
      "stateMutability": "view",
      "type": "function",
      "constant": true
    },
    {
      "inputs": [
        {
          "internalType": "uint256",
          "name": "_id",
          "type": "uint256"
        },
        {
          "internalType": "string",
          "name": "_method",
          "type": "string"
        }
      ],
      "name": "setShipmentMethod",
      "outputs": [],
      "stateMutability": "nonpayable",
      "type": "function"
    },
    {
      "inputs": [
        {
          "internalType": "uint256",
          "name": "_id",
          "type": "uint256"
        }
      ],
      "name": "getShipmentMethod",
      "outputs": [
        {
          "internalType": "string",
          "name": "",
          "type": "string"
        }
      ],
      "stateMutability": "view",
      "type": "function",
      "constant": true
    }
  ],
  "bytecode": "0x60806040526028600055603260015534801561001a57600080fd5b50612b908061002a6000396000f3fe608060405234801561001057600080fd5b50600436106101005760003560e01c80636185eaf8116100975780639684447b116100665780639684447b146102035780639a53288914610223578063a45aebfe14610244578063d7d1bbdb1461025757610100565b80636185eaf8146101c257806375f890ab146101ca5780637fe54a10146101dd5780638c0c2568146101f057610100565b806324d29513116100d357806324d29513146101765780633c0b276c14610189578063420777de1461019c578063502bdedd146101af57610100565b80630b4fb06d14610105578063126a403b1461011a57806312917b8e146101435780631799e03914610163575b600080fd5b61011861011336600461243e565b61026a565b005b61012d61012836600461243e565b610865565b60405161013a91906127fb565b60405180910390f35b61015661015136600461243e565b61095b565b60405161013a919061271c565b61012d61017136600461243e565b610ba6565b61011861018436600461251d565b610c47565b61011861019736600461243e565b610e56565b6101186101aa36600461243e565b61163c565b6101186101bd3660046125ab565b6116f1565b61015661183b565b6101186101d836600461226b565b611a73565b6101186101eb36600461243e565b611aa2565b6101186101fe3660046124b3565b611b2b565b61021661021136600461243e565b611ba5565b60405161013a91906126a8565b61023661023136600461243e565b611d38565b60405161013a9291906127cd565b61011861025236600461246e565b611dfd565b61011861026536600461243e565b611e1c565b6006546040516326757b7360e01b81526060916001600160a01b031690635028f1d09082906326757b73906102a39087906004016129b3565b60006040518083038186803b1580156102bb57600080fd5b505afa1580156102cf573d6000803e3d6000fd5b505050506040513d6000823e601f3d908101601f191682016040526102f79190810190612382565b606001516040518263ffffffff1660e01b815260040161031791906127fb565b60006040518083038186803b15801561032f57600080fd5b505afa158015610343573d6000803e3d6000fd5b505050506040513d6000823e601f3d908101601f1916820160405261036b9190810190612347565b516006546040516326757b7360e01b81529192506060916001600160a01b03909116906326757b73906103a29086906004016129b3565b60006040518083038186803b1580156103ba57600080fd5b505afa1580156103ce573d6000803e3d6000fd5b505050506040513d6000823e601f3d908101601f191682016040526103f69190810190612382565b606001516006546040516326757b7360e01b81529192506000916001600160a01b03909116906326757b73906104309087906004016129b3565b60006040518083038186803b15801561044857600080fd5b505afa15801561045c573d6000803e3d6000fd5b505050506040513d6000823e601f3d908101601f191682016040526104849190810190612382565b608001516006546040516326757b7360e01b81526001600160a01b0390911690635028f1d09082906326757b73906104c0908a906004016129b3565b60006040518083038186803b1580156104d857600080fd5b505afa1580156104ec573d6000803e3d6000fd5b505050506040513d6000823e601f3d908101601f191682016040526105149190810190612382565b606001516040518263ffffffff1660e01b815260040161053491906127fb565b60006040518083038186803b15801561054c57600080fd5b505afa158015610560573d6000803e3d6000fd5b505050506040513d6000823e601f3d908101601f191682016040526105889190810190612347565b60200151039050606061059a85610865565b90506105e7856040518060400160405280600f81526020016e141050d2d051d14810d49150551151608a1b815250836040518060600160405280603e8152602001612a94603e9139610c47565b600654604051630e96e43760e01b81526001600160a01b0390911690630e96e43790610615906004016128d4565b600060405180830381600087803b15801561062f57600080fd5b505af1158015610643573d6000803e3d6000fd5b50505050610693856040518060400160405280601081526020016f4f555420464f52205348495050494e4760801b81525083604051806060016040528060228152602001612a7260229139610c47565b600654604051630e96e43760e01b81526001600160a01b0390911690630e96e437906106c19060040161295a565b600060405180830381600087803b1580156106db57600080fd5b505af11580156106ef573d6000803e3d6000fd5b50506006546040516359c8351f60e01b81526001600160a01b0390911692506359c8351f9150610725908790879060040161280e565b60206040518083038186803b15801561073d57600080fd5b505afa158015610751573d6000803e3d6000fd5b505050506040513d601f19601f820116820180604052508101906107759190612327565b1561085e576006546040516326757b7360e01b81526001600160a01b0390911690639366c64190339083906326757b73906107b4908b906004016129b3565b60006040518083038186803b1580156107cc57600080fd5b505afa1580156107e0573d6000803e3d6000fd5b505050506040513d6000823e601f3d908101601f191682016040526108089190810190612382565b60600151856040518463ffffffff1660e01b815260040161082b93929190612650565b600060405180830381600087803b15801561084557600080fd5b505af1158015610859573d6000803e3d6000fd5b505050505b5050505050565b60608060005460026001600280549050038154811061088057fe5b90600052602060002001541015806108b657506001546003805460001981019081106108a857fe5b906000526020600020015410155b1561090a576040518060400160405280600881526020016710509393d493505360c21b81525090504283600080516020612b3b833981519152836040516108fd91906127fb565b60405180910390a3610953565b604051806040016040528060068152602001651393d493505360d21b81525090504283600080516020612b3b8339815191528360405161094a91906127fb565b60405180910390a35b90505b919050565b606060076000838152602001908152602001600020805480602002602001604051908101604052809291908181526020016000905b82821015610b9b5760008481526020908190206040805160a0810182526005860290920180546001600160a01b03168352600180820180548451600261010094831615949094026000190190911692909204601f810187900487028301870190945283825293949193858301939192909190830182828015610a535780601f10610a2857610100808354040283529160200191610a53565b820191906000526020600020905b815481529060010190602001808311610a3657829003601f168201915b5050509183525050600282810180546040805160206001841615610100026000190190931694909404601f81018390048302850183019091528084529381019390830182828015610ae55780601f10610aba57610100808354040283529160200191610ae5565b820191906000526020600020905b815481529060010190602001808311610ac857829003601f168201915b505050918352505060038201805460408051602060026001851615610100026000190190941693909304601f8101849004840282018401909252818152938201939291830182828015610b795780601f10610b4e57610100808354040283529160200191610b79565b820191906000526020600020905b815481529060010190602001808311610b5c57829003601f168201915b5050505050815260200160048201548152505081526020019060010190610990565b505050509050919050565b6000818152600b602090815260409182902080548351601f6002600019610100600186161502019093169290920491820184900484028101840190945280845260609392830182828015610c3b5780601f10610c1057610100808354040283529160200191610c3b565b820191906000526020600020905b815481529060010190602001808311610c1e57829003601f168201915b50505050509050919050565b610c4f612065565b506040805160a08101825233815260208082018681528284018590526060830186905242608084015260008881526007835293842080546001808201835591865294839020845160059096020180546001600160a01b0319166001600160a01b0390961695909517855590518051939485949093610cd193850192019061209d565b5060408201518051610ced91600284019160209091019061209d565b5060608201518051610d0991600384019160209091019061209d565b5060809190910151600491820155600654604051630e96e43760e01b81526001600160a01b0390911691630e96e43791610d45918891016127fb565b600060405180830381600087803b158015610d5f57600080fd5b505af1158015610d73573d6000803e3d6000fd5b50506004805460018101825560009190915283517f8a35acfbc15ff81a39ae7d344fd709f28e8600b4aa8c65c6b64bfe7fe36bd19b600590920291820180546001600160a01b0319166001600160a01b039092169190911781556020808601518051879650929450610e0a937f8a35acfbc15ff81a39ae7d344fd709f28e8600b4aa8c65c6b64bfe7fe36bd19c019291019061209d565b5060408201518051610e2691600284019160209091019061209d565b5060608201518051610e4291600384019160209091019061209d565b506080820151816004015550505050505050565b6006546040516322e1f15160e21b81526060916001600160a01b031690638b87c54490610e8790339060040161263c565b60006040518083038186803b158015610e9f57600080fd5b505afa158015610eb3573d6000803e3d6000fd5b505050506040513d6000823e601f3d908101601f19168201604052610edb919081019061228e565b600081518110610ee757fe5b6020908102919091010151516006546040516326757b7360e01b81529192506060916001600160a01b03909116906326757b7390610f299086906004016129b3565b60006040518083038186803b158015610f4157600080fd5b505afa158015610f55573d6000803e3d6000fd5b505050506040513d6000823e601f3d908101601f19168201604052610f7d9190810190612382565b606001516006546040516326757b7360e01b81529192506000916001600160a01b03909116906326757b7390610fb79087906004016129b3565b60006040518083038186803b158015610fcf57600080fd5b505afa158015610fe3573d6000803e3d6000fd5b505050506040513d6000823e601f3d908101601f1916820160405261100b9190810190612382565b608001516006546040516326757b7360e01b81526001600160a01b0390911690635028f1d09082906326757b7390611047908a906004016129b3565b60006040518083038186803b15801561105f57600080fd5b505afa158015611073573d6000803e3d6000fd5b505050506040513d6000823e601f3d908101601f1916820160405261109b9190810190612382565b606001516040518263ffffffff1660e01b81526004016110bb91906127fb565b60006040518083038186803b1580156110d357600080fd5b505afa1580156110e7573d6000803e3d6000fd5b505050506040513d6000823e601f3d908101601f1916820160405261110f9190810190612347565b60200151019050606061112185610865565b9050611168856040518060400160405280600981526020016811115312559154915160ba1b81525083604051806060016040528060288152602001612ad260289139610c47565b600654604051630e96e43760e01b81526001600160a01b0390911690630e96e437906111969060040161287e565b600060405180830381600087803b1580156111b057600080fd5b505af11580156111c4573d6000803e3d6000fd5b505060065460405163c933a2ad60e01b815260009350600292506001600160a01b039091169063c933a2ad906111fe908a906004016129b3565b60206040518083038186803b15801561121657600080fd5b505afa15801561122a573d6000803e3d6000fd5b505050506040513d601f19601f8201168201806040525081019061124e9190612456565b8161125557fe5b60065460405163c933a2ad60e01b815292909104916001600160a01b039091169063c933a2ad9061128a908a906004016129b3565b60206040518083038186803b1580156112a257600080fd5b505afa1580156112b6573d6000803e3d6000fd5b505050506040513d601f19601f820116820180604052508101906112da9190612456565b6006546040516326757b7360e01b81529290910392506001600160a01b03169063beabacc89082906326757b7390611316908b906004016129b3565b60006040518083038186803b15801561132e57600080fd5b505afa158015611342573d6000803e3d6000fd5b505050506040513d6000823e601f3d908101601f1916820160405261136a9190810190612382565b6020015133846040518463ffffffff1660e01b815260040161138e93929190612684565b602060405180830381600087803b1580156113a857600080fd5b505af11580156113bc573d6000803e3d6000fd5b505050506040513d601f19601f820116820180604052508101906113e09190612327565b506006546040516359c8351f60e01b81526001600160a01b03909116906359c8351f90611413908890889060040161280e565b60206040518083038186803b15801561142b57600080fd5b505afa15801561143f573d6000803e3d6000fd5b505050506040513d601f19601f820116820180604052508101906114639190612327565b15611550576006546040516326757b7360e01b81526001600160a01b0390911690639366c64190339083906326757b73906114a2908c906004016129b3565b60006040518083038186803b1580156114ba57600080fd5b505afa1580156114ce573d6000803e3d6000fd5b505050506040513d6000823e601f3d908101601f191682016040526114f69190810190612382565b60600151866040518463ffffffff1660e01b815260040161151993929190612650565b600060405180830381600087803b15801561153357600080fd5b505af1158015611547573d6000803e3d6000fd5b50505050611634565b6006546040516326757b7360e01b81526001600160a01b0390911690635319636390339083906326757b739061158a908c906004016129b3565b60006040518083038186803b1580156115a257600080fd5b505afa1580156115b6573d6000803e3d6000fd5b505050506040513d6000823e601f3d908101601f191682016040526115de9190810190612382565b60600151866040518463ffffffff1660e01b815260040161160193929190612650565b600060405180830381600087803b15801561161b57600080fd5b505af115801561162f573d6000803e3d6000fd5b505050505b505050505050565b606061164782610865565b9050611695826040518060400160405280601081526020016f5348495050494e47205041434b41474560801b81525083604051806060016040528060278152602001612a4b60279139610c47565b600654604051630e96e43760e01b81526001600160a01b0390911690630e96e437906116c390600401612833565b600060405180830381600087803b1580156116dd57600080fd5b505af1158015611634573d6000803e3d6000fd5b600083815260086020908152604080832080546001818101835591855283852001869055600280548083019091557f405787fa12a823e0f2b7631cc41b3ba8828b3321ca811111fa75cd3aa3bb5ace0186905586845260098352818420805480830182559085529284209092018490556003805492830181559092527fc2575a0e9e593c00f959f8c92f12db2869c3395a3b0502d05e2516446f71f85b0182905551429084907f2c060189c78ff839142eec41c801066c4754b0e31a3280bf585b40d39fc56266906117c690869086906128fd565b60405180910390a3600054821015806117e157506001548110155b15611810574283600080516020612b3b83398151915260405161180390612991565b60405180910390a3611836565b4283600080516020612b3b83398151915260405161182d9061285e565b60405180910390a35b505050565b60606004805480602002602001604051908101604052809291908181526020016000905b82821015611a6a5760008481526020908190206040805160a0810182526005860290920180546001600160a01b03168352600180820180548451600261010094831615949094026000190190911692909204601f8101879004870283018701909452838252939491938583019391929091908301828280156119225780601f106118f757610100808354040283529160200191611922565b820191906000526020600020905b81548152906001019060200180831161190557829003601f168201915b5050509183525050600282810180546040805160206001841615610100026000190190931694909404601f810183900483028501830190915280845293810193908301828280156119b45780601f10611989576101008083540402835291602001916119b4565b820191906000526020600020905b81548152906001019060200180831161199757829003601f168201915b505050918352505060038201805460408051602060026001851615610100026000190190941693909304601f8101849004840282018401909252818152938201939291830182828015611a485780601f10611a1d57610100808354040283529160200191611a48565b820191906000526020600020905b815481529060010190602001808311611a2b57829003601f168201915b505050505081526020016004820154815250508152602001906001019061185f565b50505050905090565b600580546001600160a01b03199081166001600160a01b03938416179182905560068054929093169116179055565b6060611aad82610865565b9050611afd8260405180604001604052806012815260200171524541445920464f522044454c495645525960701b81525083604051806080016040528060418152602001612afa60419139610c47565b600654604051630e96e43760e01b81526001600160a01b0390911690630e96e437906116c390600401612930565b611b33612129565b5060408051808201825283815260208082018490526000868152600a82529283208054600181018255908452928190208251805193948594600290910290920192611b839284929091019061209d565b506020828101518051611b9c926001850192019061209d565b50505050505050565b6060600a6000838152602001908152602001600020805480602002602001604051908101604052809291908181526020016000905b82821015610b9b5760008481526020908190206040805160028681029093018054600181161561010002600019011693909304601f810185900490940281016060908101835291810184815290938492849190840182828015611c7e5780601f10611c5357610100808354040283529160200191611c7e565b820191906000526020600020905b815481529060010190602001808311611c6157829003601f168201915b50505050508152602001600182018054600181600116156101000203166002900480601f016020809104026020016040519081016040528092919081815260200182805460018160011615610100020316600290048015611d205780601f10611cf557610100808354040283529160200191611d20565b820191906000526020600020905b815481529060010190602001808311611d0357829003601f168201915b50505050508152505081526020019060010190611bda565b60008181526008602090815260408083206009835292819020835482518185028101850190935280835260609485949093918491830182828015611d9b57602002820191906000526020600020905b815481526020019060010190808311611d87575b5050505050915080805480602002602001604051908101604052809291908181526020018280548015611ded57602002820191906000526020600020905b815481526020019060010190808311611dd9575b5050505050905091509150915091565b6000828152600b6020908152604090912082516118369284019061209d565b611ea3816040518060400160405280601081526020016f149154555154d5081054141493d5915160821b815250604051806040016040528060068152602001651393d493505360d21b8152506040518060400160405280602081526020017f594f55522052455155455354204953204245494e472050524f4345535345442e815250610c47565b60065460405163c933a2ad60e01b81526000916002916001600160a01b039091169063c933a2ad90611ed99086906004016129b3565b60206040518083038186803b158015611ef157600080fd5b505afa158015611f05573d6000803e3d6000fd5b505050506040513d601f19601f82011682018060405250810190611f299190612456565b81611f3057fe5b6006546040516326757b7360e01b81529290910492506001600160a01b03169063beabacc89082906326757b7390611f6c9087906004016129b3565b60006040518083038186803b158015611f8457600080fd5b505afa158015611f98573d6000803e3d6000fd5b505050506040513d6000823e601f3d908101601f19168201604052611fc09190810190612382565b6020015133846040518463ffffffff1660e01b8152600401611fe493929190612684565b602060405180830381600087803b158015611ffe57600080fd5b505af1158015612012573d6000803e3d6000fd5b505050506040513d601f19601f820116820180604052508101906120369190612327565b50600654604051630e96e43760e01b81526001600160a01b0390911690630e96e437906116c3906004016128aa565b6040518060a0016040528060006001600160a01b03168152602001606081526020016060815260200160608152602001600081525090565b828054600181600116156101000203166002900490600052602060002090601f0160209004810192826120d35760008555612119565b82601f106120ec57805160ff1916838001178555612119565b82800160010185558215612119579182015b828111156121195782518255916020019190600101906120fe565b50612125929150612143565b5090565b604051806040016040528060608152602001606081525090565b5b808211156121255760008155600101612144565b805161095681612a32565b600082601f830112612173578081fd5b8135612186612181826129e0565b6129bc565b915080825283602082850101111561219d57600080fd5b8060208401602084013760009082016020015292915050565b600082601f8301126121c6578081fd5b81516121d4612181826129e0565b91508082528360208285010111156121eb57600080fd5b6121fc816020840160208601612a02565b5092915050565b600060408284031215612214578081fd5b6040516040810167ffffffffffffffff828210818311171561223257fe5b81604052829350845191508082111561224a57600080fd5b50612257858286016121b6565b825250602083015160208201525092915050565b60006020828403121561227c578081fd5b813561228781612a32565b9392505050565b600060208083850312156122a0578182fd5b825167ffffffffffffffff808211156122b7578384fd5b818501915085601f8301126122ca578384fd5b8151818111156122d657fe5b6122e384858302016129bc565b8181528481019250838501865b83811015612319576123078a888451890101612203565b855293860193908601906001016122f0565b509098975050505050505050565b600060208284031215612338578081fd5b81518015158114612287578182fd5b600060208284031215612358578081fd5b815167ffffffffffffffff81111561236e578182fd5b61237a84828501612203565b949350505050565b600060208284031215612393578081fd5b815167ffffffffffffffff808211156123aa578283fd5b9083019060c082860312156123bd578283fd5b60405160c0810181811083821117156123d257fe5b604052825181526123e560208401612158565b60208201526123f660408401612158565b604082015260608301518281111561240c578485fd5b612418878286016121b6565b6060830152506080830151608082015260a083015160a082015280935050505092915050565b60006020828403121561244f578081fd5b5035919050565b600060208284031215612467578081fd5b5051919050565b60008060408385031215612480578081fd5b82359150602083013567ffffffffffffffff81111561249d578182fd5b6124a985828601612163565b9150509250929050565b6000806000606084860312156124c7578081fd5b83359250602084013567ffffffffffffffff808211156124e5578283fd5b6124f187838801612163565b93506040860135915080821115612506578283fd5b5061251386828701612163565b9150509250925092565b60008060008060808587031215612532578081fd5b84359350602085013567ffffffffffffffff80821115612550578283fd5b61255c88838901612163565b94506040870135915080821115612571578283fd5b61257d88838901612163565b93506060870135915080821115612592578283fd5b5061259f87828801612163565b91505092959194509250565b6000806000606084860312156125bf578283fd5b505081359360208301359350604090920135919050565b6000815180845260208085019450808401835b83811015612605578151875295820195908201906001016125e9565b509495945050505050565b60008151808452612628816020860160208601612a02565b601f01601f19169290920160200192915050565b6001600160a01b0391909116815260200190565b6001600160a01b038416815260606020820181905260009061267490830185612610565b9050826040830152949350505050565b6001600160a01b039384168152919092166020820152604081019190915260600190565b60208082528251828201819052600091906040908185019080840286018301878501865b8381101561231957888303603f19018552815180518785526126f088860182612610565b91890151858303868b01529190506127088183612610565b9689019694505050908601906001016126cc565b60208082528251828201819052600091906040908185019080840286018301878501865b8381101561231957888303603f19018552815180516001600160a01b031684528781015160a08986018190529061277982870182612610565b91505087820151858203898701526127918282612610565b915050606080830151868303828801526127ab8382612610565b6080948501519790940196909652505094870194925090860190600101612740565b6000604082526127e060408301856125d6565b82810360208401526127f281856125d6565b95945050505050565b6000602082526122876020830184612610565b6000604082526128216040830185612610565b82810360208401526127f28185612610565b60208082526011908201527012538811d313d09053081514905394d255607a1b604082015260600190565b6020808252600690820152651393d493505360d21b604082015260600190565b60208082526012908201527114d21254135153950811115312559154915160721b604082015260600190565b60208082526010908201526f149154555154d5081054141493d5915160821b604082015260600190565b6020808252600f908201526e141050d2d051d14810d49150551151608a1b604082015260600190565b6060808252600c908201526b53656e736f7273204461746160a01b60808201526020810192909252604082015260a00190565b60208082526010908201526f1253881313d0d053081514905394d25560821b604082015260600190565b6020808252601b908201527f5041434b414745204953204f555420464f52205348495050494e470000000000604082015260600190565b60208082526008908201526710509393d493505360c21b604082015260600190565b90815260200190565b60405181810167ffffffffffffffff811182821017156129d857fe5b604052919050565b600067ffffffffffffffff8211156129f457fe5b50601f01601f191660200190565b60005b83811015612a1d578181015183820152602001612a05565b83811115612a2c576000848401525b50505050565b6001600160a01b0381168114612a4757600080fd5b5056fe20594f555220534849504d454e542049532043555252454e544c5920494e205452414e5349542e20594f555220534849504d454e54204953204f555420464f52205348495050494e475041434b414745204953204352454154454420414e4420534849504d454e5420495320524541445920544f204c4541564520464f522053485050494e472e594f555220534849504d454e542049532044454c495645524544205355434345535346554c4c592e594f555220534849504d454e542049532053455420464f522044454c495645525920414e4420495320455850454354454420544f2041525249564520534f4f4e2ea5c6f15554bc8ce0c037ba8151c192afe39c97efe0dee46b4b19f486e3a6d3bda264697066735822122054bd536ab439943f9aacca2a8c07928533ad14e054329064b1591f730f009b0264736f6c63430007040033",
  "immutableReferences": {},
  "source": "// \"SPDX-License-Identifier: UNLICENSED\"\n\npragma solidity >=0.6.2;\npragma experimental ABIEncoderV2;  \nimport './PharmaChain.sol';\n\ncontract PharmaChainTracking {\n    \n    \n    uint        tempThreshold = 40;\n    uint        humidityThreshold = 50;\n    uint[]      tempArr;\n    uint[]      humidArr;\n    Log[]       logsArr;\n    address     pcContract;\n    PharmaChain pc;\n    mapping (uint => Log[])                 trackLogs; //requestId and Log\n    mapping (uint => uint[])                tempDataLogs; // requestId and temp data\n    mapping (uint => uint[])                humidDataLogs; // requestId and humid data\n    mapping (uint => Location[])            requestLocations; //request id and locations\n    mapping (uint => string)                requestShipmentMethod; //request Id and shipment method  \n    event   DataSent            (uint indexed requestNo, string DataCategory ,uint tempValues , uint HumidValues , uint indexed timestamp);\n    event   ShipmentStateUpdate (uint indexed requestNo, string  state, uint indexed timestamp);\n    \n     struct Product {\n        \n        address manufacturer;\n        string  productId; //registration no.\n        string  productName;\n        string  productForm; // tablets or capsules\n        uint    productBudget;\n        \n    }\n    \n    struct Location {\n        string Latitude;\n        string Longitude;\n    }\n    struct Log {\n        address logger;\n        string  requestStatus;\n        string  description;\n        string  shipmentStatus;\n        uint    logTime;\n    }\n    \n  \n    \n    function setContract(address _contract) public {\n        pcContract = _contract;\n        pc = PharmaChain(pcContract);\n    }\n    \n    \n     // TRACKING STUFF GOES HERE\n    // TRACKING STEPS:\n    // 1- REQUEST IS CREATED\n    // 2- SUPPLIER APPROVE REQUEST AND ASSIGNS SHIPMENT LOCATION \n    // 3- SUPPLIER CREATE AND SEND SHIPMENT FOR GLOBAL TRANSMISSION\n    // 4- GLOBAL TRANSMISSION SHIPS PACKAGE FOR LOCAL TRANSMISSION\n    // 5- LOCAL TRANSMISSION SHIPS PACKAGE TO FINAL DESTINATION (MANUFACTURER)\n    // TEMP AND HUMIDITY READINGS ARE SET DURING ALL PHASES OF SHIPMENT TRANSMISSION.\n    \n    //supplier\n    function approveRequest(uint _requestId) public {\n        createLog(_requestId, 'REQUEST APPROVED', 'NORMAL' , 'YOUR REQUEST IS BEING PROCESSED.' );\n        \n        uint payment = pc.getRequestCost(_requestId)/2;\n        pc.transfer(pc.getRequestById(_requestId).fromParti, msg.sender, payment);\n        // emit pc.requestStateUpdate(msg.sender, block.timestamp , 'REQUEST APPROVED');\n        pc.emitRequestStateEvent('REQUEST APPROVED');\n    }\n    \n \n    function verifyShipmentState(uint _id) public returns (string memory) {\n        \n        string memory status;\n        \n        if(tempArr[tempArr.length-1] >= tempThreshold || humidArr[humidArr.length-1] >= humidityThreshold) {\n            \n            status = 'ABNORMAL';\n             emit ShipmentStateUpdate (_id, status , block.timestamp);\n            \n        } else {\n            \n            status = 'NORMAL';\n             emit ShipmentStateUpdate (_id, status , block.timestamp);\n        }\n          return status;\n    }\n    \n \n    // // supplier \n    function sendShipment(uint _requestId) public {\n        string memory x = pc.getInventoryItemById(pc.getRequestById(_requestId).materialID).itemId;\n        string memory y = pc.getRequestById(_requestId).materialID;\n        uint newAmount = pc.getInventoryItemById(pc.getRequestById(_requestId).materialID).amount - pc.getRequestById(_requestId).amount;\n        string memory result = verifyShipmentState(_requestId);\n    \n        createLog(_requestId, 'PACKAGE CREATED',  result , 'PACKAGE IS CREATED AND SHIPMENT IS READY TO LEAVE FOR SHPPING.' );\n        // emit pc.requestStateUpdate(msg.sender, block.timestamp , 'PACKAGE CREATED');\n        pc.emitRequestStateEvent('PACKAGE CREATED');\n        \n        createLog (_requestId, 'OUT FOR SHIPPING', result , ' YOUR SHIPMENT IS OUT FOR SHIPPING'); \n        // emit pc.requestStateUpdate(msg.sender, block.timestamp , 'PACKAGE IS OUT FOR SHIPPING');\n        pc.emitRequestStateEvent('PACKAGE IS OUT FOR SHIPPING');\n        \n        if(pc.strComp(x,y)) {\n            pc.updateInventory(msg.sender,pc.getRequestById(_requestId).materialID, newAmount);\n        }\n        \n    }\n    \n    // // global distributor\n    function globalTransitShipment(uint _requestId) public {\n        \n        string memory result = verifyShipmentState(_requestId);\n        \n        createLog (_requestId, 'SHIPPING PACKAGE', result , ' YOUR SHIPMENT IS CURRENTLY IN TRANSIT.');\n        // emit pc.requestStateUpdate(msg.sender, block.timestamp , 'IN GLOBAL TRANSIT');\n        pc.emitRequestStateEvent('IN GLOBAL TRANSIT');\n        \n    }\n    \n    // //local distributor\n    function localTransitShipment(uint _requestId) public {\n        \n         string memory result = verifyShipmentState(_requestId);\n         \n        createLog (_requestId, 'READY FOR DELIVERY', result , 'YOUR SHIPMENT IS SET FOR DELIVERY AND IS EXPECTED TO ARRIVE SOON.');\n        // emit pc.requestStateUpdate(msg.sender, block.timestamp , 'IN LOCAL TRANSIT');\n        pc.emitRequestStateEvent('IN LOCAL TRANSIT');\n        \n    }\n     \n    // //manufacturer\n    \n    function receiveShipment(uint _requestId) public {\n        string memory x = pc.getInventory(msg.sender)[0].itemId;\n        string memory y = pc.getRequestById(_requestId).materialID;\n        uint newAmount = pc.getInventoryItemById(pc.getRequestById(_requestId).materialID).amount + pc.getRequestById(_requestId).amount;\n        \n        string memory result = verifyShipmentState(_requestId);\n        createLog(_requestId, 'DELIVERED' , result , 'YOUR SHIPMENT IS DELIVERED SUCCESSFULLY.');\n        // emit pc.requestStateUpdate(msg.sender, block.timestamp , 'SHIPMENT DELIVERED');\n        pc.emitRequestStateEvent('SHIPMENT DELIVERED');\n        \n        uint payment = pc.getRequestCost(_requestId) - pc.getRequestCost(_requestId)/2;\n        pc.transfer(pc.getRequestById(_requestId).fromParti, msg.sender, payment);\n        \n       \n        if(pc.strComp(x,y)) {\n            pc.updateInventory(msg.sender,pc.getRequestById(_requestId).materialID, newAmount);\n        } else {\n            pc.addToInventory(msg.sender,pc.getRequestById(_requestId).materialID, newAmount);\n        }\n    }\n    \n    \n    function createLog(\n    uint _requestId,\n    string memory _requestStatus,\n    string memory _shipmentStatus,\n    string memory _description\n    \n    ) public  {\n        \n        Log memory myLog = Log({\n            logger: msg.sender,\n            requestStatus: _requestStatus,\n            shipmentStatus: _shipmentStatus,\n            description: _description,\n            logTime: block.timestamp\n        });\n        \n        trackLogs[_requestId].push(myLog);\n        // emit pc.requestStateUpdate(msg.sender, block.timestamp , _requestStatus);\n        pc.emitRequestStateEvent(_requestStatus);\n        logsArr.push(myLog);\n     }\n    \n    function setShipmentTrackData (uint _id, uint _temp , uint _humid) public {\n        \n        tempDataLogs[_id].push(_temp);\n        tempArr.push(_temp);\n        humidDataLogs[_id].push(_humid);\n        humidArr.push(_humid);\n        emit DataSent(_id ,'Sensors Data', _temp, _humid , block.timestamp);\n        if(_temp >= tempThreshold || _humid >= humidityThreshold) {\n            emit ShipmentStateUpdate (_id, 'ABNORMAL' , block.timestamp);\n        } else {\n             emit ShipmentStateUpdate (_id, 'NORMAL' , block.timestamp);\n        }\n    }\n    \n    function getShipmentTrackData (uint _id) public view returns (uint[] memory temp, uint[] memory humid) {\n        return (tempDataLogs[_id],humidDataLogs[_id]);\n        \n    }\n    \n    function getTrackLogs(uint _request) public view returns(Log[] memory) {\n        return trackLogs[_request];\n    }\n    \n    function getAllTrack() public view returns(Log[] memory) {\n        return logsArr;\n    }\n    \n    \n    function setShipmentLocation (uint _id, string memory _lat , string memory _long) public {\n        Location memory loc = Location({\n            Latitude: _lat,\n            Longitude: _long\n        });\n        \n        requestLocations[_id].push(loc);\n    }\n    \n    function getShipmentLocation (uint _id) public view returns (Location[] memory) {\n        return requestLocations[_id];\n    }\n    \n    function setShipmentMethod(uint _id , string memory _method) public {\n        requestShipmentMethod[_id] = _method;\n    }\n    \n    function getShipmentMethod(uint _id) public view returns (string memory) {\n        return requestShipmentMethod[_id];\n    }\n    \n    // END OF TRACKING STUFF\n// END OF CONTRACT\n}",
  "sourcePath": "/home/mohamedkaram/Documents/Demo-sandbox/contracts/PharmaChainTracking.sol",
  "compiler": {
    "name": "solc",
    "version": "0.7.4+commit.3f05b770.Emscripten.clang"
  },
  "schemaVersion": "3.3.3",
  "updatedAt": "2021-05-15T21:40:08.325Z",
  "networkType": "ethereum",
  "devdoc": {
    "kind": "dev",
    "methods": {},
    "version": 1
  },
  "userdoc": {
    "kind": "user",
    "methods": {},
    "version": 1
  }
}