{
  "contractName": "PharmaChainTracking",
  "abi": [
    {
      "anonymous": false,
      "inputs": [
        {
          "indexed": true,
          "internalType": "uint256",
          "name": "requestNo",
          "type": "uint256"
        },
        {
          "indexed": false,
          "internalType": "string",
          "name": "DataCategory",
          "type": "string"
        },
        {
          "indexed": false,
          "internalType": "uint256",
          "name": "tempValues",
          "type": "uint256"
        },
        {
          "indexed": false,
          "internalType": "uint256",
          "name": "HumidValues",
          "type": "uint256"
        },
        {
          "indexed": true,
          "internalType": "uint256",
          "name": "timestamp",
          "type": "uint256"
        }
      ],
      "name": "DataSent",
      "type": "event"
    },
    {
      "anonymous": false,
      "inputs": [
        {
          "indexed": true,
          "internalType": "uint256",
          "name": "requestNo",
          "type": "uint256"
        },
        {
          "indexed": false,
          "internalType": "string",
          "name": "state",
          "type": "string"
        },
        {
          "indexed": true,
          "internalType": "uint256",
          "name": "timestamp",
          "type": "uint256"
        }
      ],
      "name": "ShipmentStateUpdate",
      "type": "event"
    },
    {
      "inputs": [
        {
          "internalType": "address",
          "name": "_contract",
          "type": "address"
        }
      ],
      "name": "setContract",
      "outputs": [],
      "stateMutability": "nonpayable",
      "type": "function"
    },
    {
      "inputs": [
        {
          "internalType": "uint256",
          "name": "_requestId",
          "type": "uint256"
        },
        {
          "internalType": "uint256",
          "name": "_totalPayment",
          "type": "uint256"
        }
      ],
      "name": "approveRequest",
      "outputs": [],
      "stateMutability": "nonpayable",
      "type": "function"
    },
    {
      "inputs": [
        {
          "internalType": "uint256",
          "name": "_id",
          "type": "uint256"
        }
      ],
      "name": "verifyShipmentState",
      "outputs": [
        {
          "internalType": "string",
          "name": "",
          "type": "string"
        }
      ],
      "stateMutability": "nonpayable",
      "type": "function"
    },
    {
      "inputs": [
        {
          "internalType": "uint256",
          "name": "_requestId",
          "type": "uint256"
        }
      ],
      "name": "sendShipment",
      "outputs": [],
      "stateMutability": "nonpayable",
      "type": "function"
    },
    {
      "inputs": [
        {
          "internalType": "uint256",
          "name": "_requestId",
          "type": "uint256"
        }
      ],
      "name": "globalTransitShipment",
      "outputs": [],
      "stateMutability": "nonpayable",
      "type": "function"
    },
    {
      "inputs": [
        {
          "internalType": "uint256",
          "name": "_requestId",
          "type": "uint256"
        }
      ],
      "name": "localTransitShipment",
      "outputs": [],
      "stateMutability": "nonpayable",
      "type": "function"
    },
    {
      "inputs": [
        {
          "internalType": "uint256",
          "name": "_requestId",
          "type": "uint256"
        },
        {
          "internalType": "uint256",
          "name": "_totalPayment",
          "type": "uint256"
        }
      ],
      "name": "receiveShipment",
      "outputs": [],
      "stateMutability": "nonpayable",
      "type": "function"
    },
    {
      "inputs": [
        {
          "internalType": "uint256",
          "name": "_requestId",
          "type": "uint256"
        },
        {
          "internalType": "string",
          "name": "_requestStatus",
          "type": "string"
        },
        {
          "internalType": "string",
          "name": "_shipmentStatus",
          "type": "string"
        },
        {
          "internalType": "string",
          "name": "_description",
          "type": "string"
        }
      ],
      "name": "createLog",
      "outputs": [],
      "stateMutability": "nonpayable",
      "type": "function"
    },
    {
      "inputs": [
        {
          "internalType": "uint256",
          "name": "_id",
          "type": "uint256"
        },
        {
          "internalType": "uint256",
          "name": "_temp",
          "type": "uint256"
        },
        {
          "internalType": "uint256",
          "name": "_humid",
          "type": "uint256"
        }
      ],
      "name": "setShipmentTrackData",
      "outputs": [],
      "stateMutability": "nonpayable",
      "type": "function"
    },
    {
      "inputs": [
        {
          "internalType": "uint256",
          "name": "_id",
          "type": "uint256"
        }
      ],
      "name": "getShipmentTrackData",
      "outputs": [
        {
          "internalType": "uint256[]",
          "name": "temp",
          "type": "uint256[]"
        },
        {
          "internalType": "uint256[]",
          "name": "humid",
          "type": "uint256[]"
        }
      ],
      "stateMutability": "view",
      "type": "function",
      "constant": true
    },
    {
      "inputs": [
        {
          "internalType": "uint256",
          "name": "_request",
          "type": "uint256"
        }
      ],
      "name": "getTrackLogs",
      "outputs": [
        {
          "components": [
            {
              "internalType": "address",
              "name": "logger",
              "type": "address"
            },
            {
              "internalType": "string",
              "name": "requestStatus",
              "type": "string"
            },
            {
              "internalType": "string",
              "name": "description",
              "type": "string"
            },
            {
              "internalType": "string",
              "name": "shipmentStatus",
              "type": "string"
            },
            {
              "internalType": "uint256",
              "name": "logTime",
              "type": "uint256"
            }
          ],
          "internalType": "struct PharmaChainTracking.Log[]",
          "name": "",
          "type": "tuple[]"
        }
      ],
      "stateMutability": "view",
      "type": "function",
      "constant": true
    },
    {
      "inputs": [],
      "name": "getAllTrack",
      "outputs": [
        {
          "components": [
            {
              "internalType": "address",
              "name": "logger",
              "type": "address"
            },
            {
              "internalType": "string",
              "name": "requestStatus",
              "type": "string"
            },
            {
              "internalType": "string",
              "name": "description",
              "type": "string"
            },
            {
              "internalType": "string",
              "name": "shipmentStatus",
              "type": "string"
            },
            {
              "internalType": "uint256",
              "name": "logTime",
              "type": "uint256"
            }
          ],
          "internalType": "struct PharmaChainTracking.Log[]",
          "name": "",
          "type": "tuple[]"
        }
      ],
      "stateMutability": "view",
      "type": "function",
      "constant": true
    },
    {
      "inputs": [
        {
          "internalType": "uint256",
          "name": "_id",
          "type": "uint256"
        },
        {
          "internalType": "string",
          "name": "_lat",
          "type": "string"
        },
        {
          "internalType": "string",
          "name": "_long",
          "type": "string"
        }
      ],
      "name": "setShipmentLocation",
      "outputs": [],
      "stateMutability": "nonpayable",
      "type": "function"
    },
    {
      "inputs": [
        {
          "internalType": "uint256",
          "name": "_id",
          "type": "uint256"
        }
      ],
      "name": "getShipmentLocation",
      "outputs": [
        {
          "components": [
            {
              "internalType": "string",
              "name": "Latitude",
              "type": "string"
            },
            {
              "internalType": "string",
              "name": "Longitude",
              "type": "string"
            }
          ],
          "internalType": "struct PharmaChainTracking.Location[]",
          "name": "",
          "type": "tuple[]"
        }
      ],
      "stateMutability": "view",
      "type": "function",
      "constant": true
    },
    {
      "inputs": [
        {
          "internalType": "uint256",
          "name": "_id",
          "type": "uint256"
        },
        {
          "internalType": "string",
          "name": "_method",
          "type": "string"
        }
      ],
      "name": "setShipmentMethod",
      "outputs": [],
      "stateMutability": "nonpayable",
      "type": "function"
    },
    {
      "inputs": [
        {
          "internalType": "uint256",
          "name": "_id",
          "type": "uint256"
        }
      ],
      "name": "getShipmentMethod",
      "outputs": [
        {
          "internalType": "string",
          "name": "",
          "type": "string"
        }
      ],
      "stateMutability": "view",
      "type": "function",
      "constant": true
    }
  ],
  "bytecode": "0x60806040526028600055603260015534801561001a57600080fd5b50611f3e8061002a6000396000f3fe608060405234801561001057600080fd5b50600436106101005760003560e01c8063502bdedd116100975780638c0c2568116100665780638c0c2568146102035780639684447b146102165780639a53288914610236578063a45aebfe1461025757610100565b8063502bdedd146101c25780636185eaf8146101d557806375f890ab146101dd5780637fe54a10146101f057610100565b806324d29513116100d357806324d29513146101765780632831f4c2146101895780632c0a90a91461019c578063420777de146101af57610100565b80630b4fb06d14610105578063126a403b1461011a57806312917b8e146101435780631799e03914610163575b600080fd5b6101186101133660046117a2565b61026a565b005b61012d6101283660046117a2565b6103d2565b60405161013a9190611b2e565b60405180910390f35b6101566101513660046117a2565b610505565b60405161013a9190611a4f565b61012d6101713660046117a2565b61074d565b610118610184366004611869565b6107ef565b6101186101973660046118f7565b6109f5565b6101186101aa3660046118f7565b610bca565b6101186101bd3660046117a2565b610dc7565b6101186101d0366004611918565b610e4e565b610156610f98565b6101186101eb366004611698565b6111cd565b6101186101fe3660046117a2565b6111fc565b6101186102113660046117ff565b611285565b6102296102243660046117a2565b6112ed565b60405161013a91906119cd565b6102496102443660046117a2565b611478565b60405161013a929190611b00565b6101186102653660046117ba565b61153d565b6000610275826103d2565b90506102c2826040518060400160405280600f81526020016e141050d2d051d14810d49150551151608a1b815250836040518060600160405280603e8152602001611e42603e91396107ef565b600654604051630e96e43760e01b81526001600160a01b0390911690630e96e437906102f090600401611be2565b600060405180830381600087803b15801561030a57600080fd5b505af115801561031e573d6000803e3d6000fd5b5050505061036e826040518060400160405280601081526020016f4f555420464f52205348495050494e4760801b81525083604051806060016040528060228152602001611e20602291396107ef565b600654604051630e96e43760e01b81526001600160a01b0390911690630e96e4379061039c90600401611c68565b600060405180830381600087803b1580156103b657600080fd5b505af11580156103ca573d6000803e3d6000fd5b505050505050565b606080600054600260016002805490506103ec9190611d3c565b8154811061040a57634e487b7160e01b600052603260045260246000fd5b90600052602060002001541015806104605750600154600360016003805490506104349190611d3c565b8154811061045257634e487b7160e01b600052603260045260246000fd5b906000526020600020015410155b156104b4576040518060400160405280600881526020016710509393d493505360c21b81525090504283600080516020611ee9833981519152836040516104a79190611b2e565b60405180910390a36104fd565b604051806040016040528060068152602001651393d493505360d21b81525090504283600080516020611ee9833981519152836040516104f49190611b2e565b60405180910390a35b90505b919050565b606060076000838152602001908152602001600020805480602002602001604051908101604052809291908181526020016000905b828210156107425760008481526020908190206040805160a081019091526005850290910180546001600160a01b03168252600181018054929391929184019161058390611d8f565b80601f01602080910402602001604051908101604052809291908181526020018280546105af90611d8f565b80156105fc5780601f106105d1576101008083540402835291602001916105fc565b820191906000526020600020905b8154815290600101906020018083116105df57829003601f168201915b5050505050815260200160028201805461061590611d8f565b80601f016020809104026020016040519081016040528092919081815260200182805461064190611d8f565b801561068e5780601f106106635761010080835404028352916020019161068e565b820191906000526020600020905b81548152906001019060200180831161067157829003601f168201915b505050505081526020016003820180546106a790611d8f565b80601f01602080910402602001604051908101604052809291908181526020018280546106d390611d8f565b80156107205780601f106106f557610100808354040283529160200191610720565b820191906000526020600020905b81548152906001019060200180831161070357829003601f168201915b505050505081526020016004820154815250508152602001906001019061053a565b505050509050919050565b6000818152600b6020526040902080546060919061076a90611d8f565b80601f016020809104026020016040519081016040528092919081815260200182805461079690611d8f565b80156107e35780601f106107b8576101008083540402835291602001916107e3565b820191906000526020600020905b8154815290600101906020018083116107c657829003601f168201915b50505050509050919050565b6040805160a08101825233815260208082018681528284018590526060830186905242608084015260008881526007835293842080546001808201835591865294839020845160059096020180546001600160a01b0319166001600160a01b0390961695909517855590518051939485949093610870938501920190611558565b506040820151805161088c916002840191602090910190611558565b50606082015180516108a8916003840191602090910190611558565b5060809190910151600491820155600654604051630e96e43760e01b81526001600160a01b0390911691630e96e437916108e491889101611b2e565b600060405180830381600087803b1580156108fe57600080fd5b505af1158015610912573d6000803e3d6000fd5b50506004805460018101825560009190915283517f8a35acfbc15ff81a39ae7d344fd709f28e8600b4aa8c65c6b64bfe7fe36bd19b600590920291820180546001600160a01b0319166001600160a01b0390921691909117815560208086015180518796509294506109a9937f8a35acfbc15ff81a39ae7d344fd709f28e8600b4aa8c65c6b64bfe7fe36bd19c0192910190611558565b50604082015180516109c5916002840191602090910190611558565b50606082015180516109e1916003840191602090910190611558565b506080820151816004015550505050505050565b6000610a00836103d2565b9050610a47836040518060400160405280600981526020016811115312559154915160ba1b81525083604051806060016040528060288152602001611e80602891396107ef565b600654604051630e96e43760e01b81526001600160a01b0390911690630e96e43790610a7590600401611b8c565b600060405180830381600087803b158015610a8f57600080fd5b505af1158015610aa3573d6000803e3d6000fd5b505050506000600283610ab69190611d1c565b610ac09084611d3c565b6006546040516326757b7360e01b81529192506001600160a01b03169063beabacc89082906326757b7390610af9908990600401611cc1565b60006040518083038186803b158015610b1157600080fd5b505afa158015610b25573d6000803e3d6000fd5b505050506040513d6000823e601f3d908101601f19168201604052610b4d91908101906116db565b6020015133846040518463ffffffff1660e01b8152600401610b71939291906119a9565b602060405180830381600087803b158015610b8b57600080fd5b505af1158015610b9f573d6000803e3d6000fd5b505050506040513d601f19601f82011682018060405250810190610bc391906116bb565b5050505050565b610c51826040518060400160405280601081526020016f149154555154d5081054141493d5915160821b815250604051806040016040528060068152602001651393d493505360d21b8152506040518060400160405280602081526020017f594f55522052455155455354204953204245494e472050524f4345535345442e8152506107ef565b6000610c5e600283611d1c565b6006546040516326757b7360e01b81529192506001600160a01b03169063beabacc89082906326757b7390610c97908890600401611cc1565b60006040518083038186803b158015610caf57600080fd5b505afa158015610cc3573d6000803e3d6000fd5b505050506040513d6000823e601f3d908101601f19168201604052610ceb91908101906116db565b6020015133846040518463ffffffff1660e01b8152600401610d0f939291906119a9565b602060405180830381600087803b158015610d2957600080fd5b505af1158015610d3d573d6000803e3d6000fd5b505050506040513d601f19601f82011682018060405250810190610d6191906116bb565b50600654604051630e96e43760e01b81526001600160a01b0390911690630e96e43790610d9090600401611bb8565b600060405180830381600087803b158015610daa57600080fd5b505af1158015610dbe573d6000803e3d6000fd5b50505050505050565b6000610dd2826103d2565b9050610e20826040518060400160405280601081526020016f5348495050494e47205041434b41474560801b81525083604051806060016040528060278152602001611df9602791396107ef565b600654604051630e96e43760e01b81526001600160a01b0390911690630e96e4379061039c90600401611b41565b600083815260086020908152604080832080546001818101835591855283852001869055600280548083019091557f405787fa12a823e0f2b7631cc41b3ba8828b3321ca811111fa75cd3aa3bb5ace0186905586845260098352818420805480830182559085529284209092018490556003805492830181559092527fc2575a0e9e593c00f959f8c92f12db2869c3395a3b0502d05e2516446f71f85b0182905551429084907f2c060189c78ff839142eec41c801066c4754b0e31a3280bf585b40d39fc5626690610f239086908690611c0b565b60405180910390a360005482101580610f3e57506001548110155b15610f6d574283600080516020611ee9833981519152604051610f6090611c9f565b60405180910390a3610f93565b4283600080516020611ee9833981519152604051610f8a90611b6c565b60405180910390a35b505050565b60606004805480602002602001604051908101604052809291908181526020016000905b828210156111c45760008481526020908190206040805160a081019091526005850290910180546001600160a01b03168252600181018054929391929184019161100590611d8f565b80601f016020809104026020016040519081016040528092919081815260200182805461103190611d8f565b801561107e5780601f106110535761010080835404028352916020019161107e565b820191906000526020600020905b81548152906001019060200180831161106157829003601f168201915b5050505050815260200160028201805461109790611d8f565b80601f01602080910402602001604051908101604052809291908181526020018280546110c390611d8f565b80156111105780601f106110e557610100808354040283529160200191611110565b820191906000526020600020905b8154815290600101906020018083116110f357829003601f168201915b5050505050815260200160038201805461112990611d8f565b80601f016020809104026020016040519081016040528092919081815260200182805461115590611d8f565b80156111a25780601f10611177576101008083540402835291602001916111a2565b820191906000526020600020905b81548152906001019060200180831161118557829003601f168201915b5050505050815260200160048201548152505081526020019060010190610fbc565b50505050905090565b600580546001600160a01b03199081166001600160a01b03938416179182905560068054929093169116179055565b6000611207826103d2565b90506112578260405180604001604052806012815260200171524541445920464f522044454c495645525960701b81525083604051806080016040528060418152602001611ea8604191396107ef565b600654604051630e96e43760e01b81526001600160a01b0390911690630e96e4379061039c90600401611c3e565b60408051808201825283815260208082018490526000868152600a825292832080546001810182559084529281902082518051939485946002909102909201926112d492849290910190611558565b506020828101518051610dbe9260018501920190611558565b6060600a6000838152602001908152602001600020805480602002602001604051908101604052809291908181526020016000905b82821015610742578382906000526020600020906002020160405180604001604052908160008201805461135590611d8f565b80601f016020809104026020016040519081016040528092919081815260200182805461138190611d8f565b80156113ce5780601f106113a3576101008083540402835291602001916113ce565b820191906000526020600020905b8154815290600101906020018083116113b157829003601f168201915b505050505081526020016001820180546113e790611d8f565b80601f016020809104026020016040519081016040528092919081815260200182805461141390611d8f565b80156114605780601f1061143557610100808354040283529160200191611460565b820191906000526020600020905b81548152906001019060200180831161144357829003601f168201915b50505050508152505081526020019060010190611322565b600081815260086020908152604080832060098352928190208354825181850281018501909352808352606094859490939184918301828280156114db57602002820191906000526020600020905b8154815260200190600101908083116114c7575b505050505091508080548060200260200160405190810160405280929190818152602001828054801561152d57602002820191906000526020600020905b815481526020019060010190808311611519575b5050505050905091509150915091565b6000828152600b602090815260409091208251610f93928401905b82805461156490611d8f565b90600052602060002090601f01602090048101928261158657600085556115cc565b82601f1061159f57805160ff19168380011785556115cc565b828001600101855582156115cc579182015b828111156115cc5782518255916020019190600101906115b1565b506115d89291506115dc565b5090565b5b808211156115d857600081556001016115dd565b805161050081611de0565b600082601f83011261160c578081fd5b813561161f61161a82611cf4565b611cca565b818152846020838601011115611633578283fd5b816020850160208301379081016020019190915292915050565b600082601f83011261165d578081fd5b815161166b61161a82611cf4565b81815284602083860101111561167f578283fd5b611690826020830160208701611d5f565b949350505050565b6000602082840312156116a9578081fd5b81356116b481611de0565b9392505050565b6000602082840312156116cc578081fd5b815180151581146116b4578182fd5b6000602082840312156116ec578081fd5b815167ffffffffffffffff80821115611703578283fd5b9083019060c08286031215611716578283fd5b61172060c0611cca565b82518152611730602084016115f1565b6020820152611741604084016115f1565b6040820152606083015182811115611757578485fd5b6117638782860161164d565b60608301525060808301518281111561177a578485fd5b6117868782860161164d565b60808301525060a083015160a082015280935050505092915050565b6000602082840312156117b3578081fd5b5035919050565b600080604083850312156117cc578081fd5b82359150602083013567ffffffffffffffff8111156117e9578182fd5b6117f5858286016115fc565b9150509250929050565b600080600060608486031215611813578081fd5b83359250602084013567ffffffffffffffff80821115611831578283fd5b61183d878388016115fc565b93506040860135915080821115611852578283fd5b5061185f868287016115fc565b9150509250925092565b6000806000806080858703121561187e578081fd5b84359350602085013567ffffffffffffffff8082111561189c578283fd5b6118a8888389016115fc565b945060408701359150808211156118bd578283fd5b6118c9888389016115fc565b935060608701359150808211156118de578283fd5b506118eb878288016115fc565b91505092959194509250565b60008060408385031215611909578182fd5b50508035926020909101359150565b60008060006060848603121561192c578283fd5b505081359360208301359350604090920135919050565b6000815180845260208085019450808401835b8381101561197257815187529582019590820190600101611956565b509495945050505050565b60008151808452611995816020860160208601611d5f565b601f01601f19169290920160200192915050565b6001600160a01b039384168152919092166020820152604081019190915260600190565b60208082528251828201819052600091906040908185019080840286018301878501865b83811015611a4157888303603f1901855281518051878552611a158886018261197d565b91890151858303868b0152919050611a2d818361197d565b9689019694505050908601906001016119f1565b509098975050505050505050565b60208082528251828201819052600091906040908185019080840286018301878501865b83811015611a4157888303603f19018552815180516001600160a01b031684528781015160a089860181905290611aac8287018261197d565b9150508782015185820389870152611ac4828261197d565b91505060608083015186830382880152611ade838261197d565b6080948501519790940196909652505094870194925090860190600101611a73565b600060408252611b136040830185611943565b8281036020840152611b258185611943565b95945050505050565b6000602082526116b4602083018461197d565b60208082526011908201527012538811d313d09053081514905394d255607a1b604082015260600190565b6020808252600690820152651393d493505360d21b604082015260600190565b60208082526012908201527114d21254135153950811115312559154915160721b604082015260600190565b60208082526010908201526f149154555154d5081054141493d5915160821b604082015260600190565b6020808252600f908201526e141050d2d051d14810d49150551151608a1b604082015260600190565b6060808252600c908201526b53656e736f7273204461746160a01b60808201526020810192909252604082015260a00190565b60208082526010908201526f1253881313d0d053081514905394d25560821b604082015260600190565b6020808252601b908201527f5041434b414745204953204f555420464f52205348495050494e470000000000604082015260600190565b60208082526008908201526710509393d493505360c21b604082015260600190565b90815260200190565b60405181810167ffffffffffffffff81118282101715611cec57611cec611dca565b604052919050565b600067ffffffffffffffff821115611d0e57611d0e611dca565b50601f01601f191660200190565b600082611d3757634e487b7160e01b81526012600452602481fd5b500490565b600082821015611d5a57634e487b7160e01b81526011600452602481fd5b500390565b60005b83811015611d7a578181015183820152602001611d62565b83811115611d89576000848401525b50505050565b600281046001821680611da357607f821691505b60208210811415611dc457634e487b7160e01b600052602260045260246000fd5b50919050565b634e487b7160e01b600052604160045260246000fd5b6001600160a01b0381168114611df557600080fd5b5056fe20594f555220534849504d454e542049532043555252454e544c5920494e205452414e5349542e20594f555220534849504d454e54204953204f555420464f52205348495050494e475041434b414745204953204352454154454420414e4420534849504d454e5420495320524541445920544f204c4541564520464f522053485050494e472e594f555220534849504d454e542049532044454c495645524544205355434345535346554c4c592e594f555220534849504d454e542049532053455420464f522044454c495645525920414e4420495320455850454354454420544f2041525249564520534f4f4e2ea5c6f15554bc8ce0c037ba8151c192afe39c97efe0dee46b4b19f486e3a6d3bda26469706673582212203323f875c62a4f1fb2eeb9ead4a3cc843c0be0566c2c8d1a7ae5b96230b1e14264736f6c63430008000033",
  "immutableReferences": {},
  "source": "// \"SPDX-License-Identifier: UNLICENSED\"\n\npragma solidity >=0.6.2;\npragma experimental ABIEncoderV2;  \nimport './PharmaChain.sol';\n\ncontract PharmaChainTracking {\n    \n    \n    uint        tempThreshold = 40;\n    uint        humidityThreshold = 50;\n    uint[]      tempArr;\n    uint[]      humidArr;\n    Log[]       logsArr;\n    address     pcContract;\n    PharmaChain pc;\n    mapping (uint => Log[])                 trackLogs; //requestId and Log\n    mapping (uint => uint[])                tempDataLogs; // requestId and temp data\n    mapping (uint => uint[])                humidDataLogs; // requestId and humid data\n    mapping (uint => Location[])            requestLocations; //request id and locations\n    mapping (uint => string)                requestShipmentMethod; //request Id and shipment method  \n    event   DataSent            (uint indexed requestNo, string DataCategory ,uint tempValues , uint HumidValues , uint indexed timestamp);\n    event   ShipmentStateUpdate (uint indexed requestNo, string  state, uint indexed timestamp);\n    \n     struct Product {\n        \n        address manufacturer;\n        string  productId; //registration no.\n        string  productName;\n        string  productForm; // tablets or capsules\n        uint    productBudget;\n        \n    }\n    \n    struct Location {\n        string Latitude;\n        string Longitude;\n    }\n    struct Log {\n        address logger;\n        string  requestStatus;\n        string  description;\n        string  shipmentStatus;\n        uint    logTime;\n    }\n    \n  \n    \n    function setContract(address _contract) public {\n        pcContract = _contract;\n        pc = PharmaChain(pcContract);\n    }\n    \n    \n     // TRACKING STUFF GOES HERE\n    // TRACKING STEPS:\n    // 1- REQUEST IS CREATED\n    // 2- SUPPLIER APPROVE REQUEST AND ASSIGNS SHIPMENT LOCATION \n    // 3- SUPPLIER CREATE AND SEND SHIPMENT FOR GLOBAL TRANSMISSION\n    // 4- GLOBAL TRANSMISSION SHIPS PACKAGE FOR LOCAL TRANSMISSION\n    // 5- LOCAL TRANSMISSION SHIPS PACKAGE TO FINAL DESTINATION (MANUFACTURER)\n    // TEMP AND HUMIDITY READINGS ARE SET DURING ALL PHASES OF SHIPMENT TRANSMISSION.\n    \n    //supplier\n    function approveRequest(uint _requestId, uint _totalPayment) public {\n        createLog(_requestId, 'REQUEST APPROVED', 'NORMAL' , 'YOUR REQUEST IS BEING PROCESSED.' );\n        \n        // uint payment = pc.getRequestCost(_requestId)/2;\n        uint payment = _totalPayment/2;\n        pc.transfer(pc.getRequestById(_requestId).fromParti, msg.sender, payment);\n        pc.emitRequestStateEvent('REQUEST APPROVED');\n    }\n    \n \n    function verifyShipmentState(uint _id) public returns (string memory) {\n        \n        string memory status;\n        \n        if(tempArr[tempArr.length-1] >= tempThreshold || humidArr[humidArr.length-1] >= humidityThreshold) {\n            \n            status = 'ABNORMAL';\n             emit ShipmentStateUpdate (_id, status , block.timestamp);\n            \n        } else {\n            \n            status = 'NORMAL';\n             emit ShipmentStateUpdate (_id, status , block.timestamp);\n        }\n          return status;\n    }\n    \n \n    // // supplier \n    function sendShipment(uint _requestId) public {\n        // string memory x = pc.getInventoryItemById(pc.getRequestById(_requestId).materialID).itemId;\n        // string memory y = pc.getRequestById(_requestId).materialID;\n        // uint newAmount = pc.getInventoryItemById(pc.getRequestById(_requestId).materialID).amount - pc.getRequestById(_requestId).amount;\n\n        string memory result = verifyShipmentState(_requestId);\n    \n        createLog(_requestId, 'PACKAGE CREATED',  result , 'PACKAGE IS CREATED AND SHIPMENT IS READY TO LEAVE FOR SHPPING.' );\n        // emit pc.requestStateUpdate(msg.sender, block.timestamp , 'PACKAGE CREATED');\n        pc.emitRequestStateEvent('PACKAGE CREATED');\n        \n        createLog (_requestId, 'OUT FOR SHIPPING', result , ' YOUR SHIPMENT IS OUT FOR SHIPPING'); \n        // emit pc.requestStateUpdate(msg.sender, block.timestamp , 'PACKAGE IS OUT FOR SHIPPING');\n        pc.emitRequestStateEvent('PACKAGE IS OUT FOR SHIPPING');\n        \n        // if(pc.strComp(x,y)) {\n        //     pc.updateInventory(msg.sender,pc.getRequestById(_requestId).materialID, newAmount);\n        // }\n        \n    }\n    \n    // // global distributor\n    function globalTransitShipment(uint _requestId) public {\n        \n        string memory result = verifyShipmentState(_requestId);\n        \n        createLog (_requestId, 'SHIPPING PACKAGE', result , ' YOUR SHIPMENT IS CURRENTLY IN TRANSIT.');\n        // emit pc.requestStateUpdate(msg.sender, block.timestamp , 'IN GLOBAL TRANSIT');\n        pc.emitRequestStateEvent('IN GLOBAL TRANSIT');\n        \n    }\n    \n    // //local distributor\n    function localTransitShipment(uint _requestId) public {\n        \n         string memory result = verifyShipmentState(_requestId);\n         \n        createLog (_requestId, 'READY FOR DELIVERY', result , 'YOUR SHIPMENT IS SET FOR DELIVERY AND IS EXPECTED TO ARRIVE SOON.');\n        // emit pc.requestStateUpdate(msg.sender, block.timestamp , 'IN LOCAL TRANSIT');\n        pc.emitRequestStateEvent('IN LOCAL TRANSIT');\n        \n    }\n     \n    // //manufacturer\n    \n    function receiveShipment(uint _requestId, uint _totalPayment) public {\n        // string memory x = pc.getInventory(msg.sender)[0].itemId;\n        // string memory y = pc.getRequestById(_requestId).materialID;\n        // uint newAmount = pc.getInventoryItemById(pc.getRequestById(_requestId).materialID).amount + pc.getRequestById(_requestId).amount;\n        \n        string memory result = verifyShipmentState(_requestId);\n        createLog(_requestId, 'DELIVERED' , result , 'YOUR SHIPMENT IS DELIVERED SUCCESSFULLY.');\n        pc.emitRequestStateEvent('SHIPMENT DELIVERED');\n        \n        // uint payment = pc.getRequestCost(_requestId) - pc.getRequestCost(_requestId)/2;\n        uint payment = _totalPayment - _totalPayment/2;\n        pc.transfer(pc.getRequestById(_requestId).fromParti, msg.sender, payment);\n        \n       \n        // if(pc.strComp(x,y)) {\n        //     pc.updateInventory(msg.sender,pc.getRequestById(_requestId).materialID, newAmount);\n        // } else {\n        //     pc.addToInventory(msg.sender,pc.getRequestById(_requestId).materialID, newAmount);\n        // }\n    }\n    \n    \n    function createLog(\n    uint _requestId,\n    string memory _requestStatus,\n    string memory _shipmentStatus,\n    string memory _description\n    \n    ) public  {\n        \n        Log memory myLog = Log({\n            logger: msg.sender,\n            requestStatus: _requestStatus,\n            shipmentStatus: _shipmentStatus,\n            description: _description,\n            logTime: block.timestamp\n        });\n        \n        trackLogs[_requestId].push(myLog);\n        // emit pc.requestStateUpdate(msg.sender, block.timestamp , _requestStatus);\n        pc.emitRequestStateEvent(_requestStatus);\n        logsArr.push(myLog);\n     }\n    \n    function setShipmentTrackData (uint _id, uint _temp , uint _humid) public {\n        \n        tempDataLogs[_id].push(_temp);\n        tempArr.push(_temp);\n        humidDataLogs[_id].push(_humid);\n        humidArr.push(_humid);\n        emit DataSent(_id ,'Sensors Data', _temp, _humid , block.timestamp);\n        if(_temp >= tempThreshold || _humid >= humidityThreshold) {\n            emit ShipmentStateUpdate (_id, 'ABNORMAL' , block.timestamp);\n        } else {\n             emit ShipmentStateUpdate (_id, 'NORMAL' , block.timestamp);\n        }\n    }\n    \n    function getShipmentTrackData (uint _id) public view returns (uint[] memory temp, uint[] memory humid) {\n        return (tempDataLogs[_id],humidDataLogs[_id]);\n        \n    }\n    \n    function getTrackLogs(uint _request) public view returns(Log[] memory) {\n        return trackLogs[_request];\n    }\n    \n    function getAllTrack() public view returns(Log[] memory) {\n        return logsArr;\n    }\n    \n    \n    function setShipmentLocation (uint _id, string memory _lat , string memory _long) public {\n        Location memory loc = Location({\n            Latitude: _lat,\n            Longitude: _long\n        });\n        \n        requestLocations[_id].push(loc);\n    }\n    \n    function getShipmentLocation (uint _id) public view returns (Location[] memory) {\n        return requestLocations[_id];\n    }\n    \n    function setShipmentMethod(uint _id , string memory _method) public {\n        requestShipmentMethod[_id] = _method;\n    }\n    \n    function getShipmentMethod(uint _id) public view returns (string memory) {\n        return requestShipmentMethod[_id];\n    }\n    \n    // END OF TRACKING STUFF\n// END OF CONTRACT\n}",
  "sourcePath": "/home/mohamedkaram/Documents/Projects/PharmaChain/contracts/PharmaChainTracking.sol",
  "compiler": {
    "name": "solc",
    "version": "0.8.0+commit.c7dfd78e.Emscripten.clang"
  },
  "schemaVersion": "3.4.1",
  "updatedAt": "2021-06-30T04:37:16.911Z",
  "networkType": "ethereum",
  "devdoc": {
    "kind": "dev",
    "methods": {},
    "version": 1
  },
  "userdoc": {
    "kind": "user",
    "methods": {},
    "version": 1
  }
}