{
  "contractName": "PharmaChain",
  "abi": [
    {
      "anonymous": false,
      "inputs": [
        {
          "indexed": false,
          "internalType": "string",
          "name": "txName",
          "type": "string"
        },
        {
          "indexed": true,
          "internalType": "address",
          "name": "_from",
          "type": "address"
        },
        {
          "indexed": false,
          "internalType": "address",
          "name": "_to",
          "type": "address"
        },
        {
          "indexed": false,
          "internalType": "uint256",
          "name": "_amount",
          "type": "uint256"
        },
        {
          "indexed": true,
          "internalType": "uint256",
          "name": "timestamp",
          "type": "uint256"
        }
      ],
      "name": "BankTransact",
      "type": "event"
    },
    {
      "anonymous": false,
      "inputs": [
        {
          "indexed": true,
          "internalType": "address",
          "name": "who",
          "type": "address"
        },
        {
          "indexed": true,
          "internalType": "uint256",
          "name": "timestamp",
          "type": "uint256"
        },
        {
          "indexed": false,
          "internalType": "string",
          "name": "state",
          "type": "string"
        }
      ],
      "name": "requestStateUpdate",
      "type": "event"
    },
    {
      "inputs": [
        {
          "internalType": "string",
          "name": "x",
          "type": "string"
        },
        {
          "internalType": "string",
          "name": "y",
          "type": "string"
        }
      ],
      "name": "strComp",
      "outputs": [
        {
          "internalType": "bool",
          "name": "",
          "type": "bool"
        }
      ],
      "stateMutability": "pure",
      "type": "function",
      "constant": true
    },
    {
      "inputs": [
        {
          "internalType": "string",
          "name": "_state",
          "type": "string"
        }
      ],
      "name": "emitRequestStateEvent",
      "outputs": [],
      "stateMutability": "nonpayable",
      "type": "function"
    },
    {
      "inputs": [
        {
          "internalType": "string",
          "name": "_id",
          "type": "string"
        },
        {
          "internalType": "string",
          "name": "_name",
          "type": "string"
        },
        {
          "internalType": "string",
          "name": "_pForm",
          "type": "string"
        }
      ],
      "name": "addProduct",
      "outputs": [],
      "stateMutability": "nonpayable",
      "type": "function"
    },
    {
      "inputs": [
        {
          "internalType": "string",
          "name": "_productID",
          "type": "string"
        },
        {
          "internalType": "string",
          "name": "_name",
          "type": "string"
        },
        {
          "internalType": "string",
          "name": "_type",
          "type": "string"
        },
        {
          "internalType": "string",
          "name": "_strength",
          "type": "string"
        },
        {
          "internalType": "string",
          "name": "_form",
          "type": "string"
        },
        {
          "internalType": "uint256",
          "name": "_amount",
          "type": "uint256"
        }
      ],
      "name": "addProductSpecs",
      "outputs": [],
      "stateMutability": "nonpayable",
      "type": "function"
    },
    {
      "inputs": [
        {
          "internalType": "address",
          "name": "_manufacturer",
          "type": "address"
        }
      ],
      "name": "getProductsByManu",
      "outputs": [
        {
          "components": [
            {
              "internalType": "address",
              "name": "manufacturer",
              "type": "address"
            },
            {
              "internalType": "string",
              "name": "productId",
              "type": "string"
            },
            {
              "internalType": "string",
              "name": "productName",
              "type": "string"
            },
            {
              "internalType": "string",
              "name": "productForm",
              "type": "string"
            },
            {
              "internalType": "uint256",
              "name": "productBudget",
              "type": "uint256"
            }
          ],
          "internalType": "struct PharmaChain.Product[]",
          "name": "",
          "type": "tuple[]"
        }
      ],
      "stateMutability": "view",
      "type": "function",
      "constant": true
    },
    {
      "inputs": [],
      "name": "getProducts",
      "outputs": [
        {
          "components": [
            {
              "internalType": "address",
              "name": "manufacturer",
              "type": "address"
            },
            {
              "internalType": "string",
              "name": "productId",
              "type": "string"
            },
            {
              "internalType": "string",
              "name": "productName",
              "type": "string"
            },
            {
              "internalType": "string",
              "name": "productForm",
              "type": "string"
            },
            {
              "internalType": "uint256",
              "name": "productBudget",
              "type": "uint256"
            }
          ],
          "internalType": "struct PharmaChain.Product[]",
          "name": "",
          "type": "tuple[]"
        }
      ],
      "stateMutability": "view",
      "type": "function",
      "constant": true
    },
    {
      "inputs": [
        {
          "internalType": "string",
          "name": "_id",
          "type": "string"
        }
      ],
      "name": "getProductById",
      "outputs": [
        {
          "components": [
            {
              "internalType": "address",
              "name": "manufacturer",
              "type": "address"
            },
            {
              "internalType": "string",
              "name": "productId",
              "type": "string"
            },
            {
              "internalType": "string",
              "name": "productName",
              "type": "string"
            },
            {
              "internalType": "string",
              "name": "productForm",
              "type": "string"
            },
            {
              "internalType": "uint256",
              "name": "productBudget",
              "type": "uint256"
            }
          ],
          "internalType": "struct PharmaChain.Product",
          "name": "",
          "type": "tuple"
        }
      ],
      "stateMutability": "view",
      "type": "function",
      "constant": true
    },
    {
      "inputs": [
        {
          "internalType": "string",
          "name": "_product",
          "type": "string"
        }
      ],
      "name": "getProductSpecs",
      "outputs": [
        {
          "components": [
            {
              "internalType": "string",
              "name": "materialName",
              "type": "string"
            },
            {
              "internalType": "string",
              "name": "materialType",
              "type": "string"
            },
            {
              "internalType": "uint256",
              "name": "materialAmount",
              "type": "uint256"
            },
            {
              "internalType": "string",
              "name": "materialStrength",
              "type": "string"
            },
            {
              "internalType": "string",
              "name": "materialForm",
              "type": "string"
            }
          ],
          "internalType": "struct PharmaChain.Specs[]",
          "name": "",
          "type": "tuple[]"
        }
      ],
      "stateMutability": "view",
      "type": "function",
      "constant": true
    },
    {
      "inputs": [
        {
          "internalType": "string",
          "name": "_product",
          "type": "string"
        },
        {
          "internalType": "string",
          "name": "_phase",
          "type": "string"
        }
      ],
      "name": "setProductPhase",
      "outputs": [],
      "stateMutability": "nonpayable",
      "type": "function"
    },
    {
      "inputs": [
        {
          "internalType": "string",
          "name": "_product",
          "type": "string"
        }
      ],
      "name": "getProductPhase",
      "outputs": [
        {
          "internalType": "string[]",
          "name": "phases",
          "type": "string[]"
        }
      ],
      "stateMutability": "view",
      "type": "function",
      "constant": true
    },
    {
      "inputs": [
        {
          "internalType": "string",
          "name": "_product",
          "type": "string"
        },
        {
          "internalType": "uint256",
          "name": "_unitsNo",
          "type": "uint256"
        },
        {
          "internalType": "uint256",
          "name": "_unitMaterialCost",
          "type": "uint256"
        },
        {
          "internalType": "uint256",
          "name": "_pkgMatCost",
          "type": "uint256"
        },
        {
          "internalType": "uint256",
          "name": "_ratePerHr",
          "type": "uint256"
        },
        {
          "internalType": "uint256",
          "name": "_workHrsNo",
          "type": "uint256"
        },
        {
          "internalType": "uint256",
          "name": "_totIndirectCosts",
          "type": "uint256"
        },
        {
          "internalType": "uint256",
          "name": "_mrkCost",
          "type": "uint256"
        },
        {
          "internalType": "uint256",
          "name": "_rsrchCost",
          "type": "uint256"
        },
        {
          "internalType": "uint256",
          "name": "_productBudget",
          "type": "uint256"
        }
      ],
      "name": "setStdCostPlan",
      "outputs": [],
      "stateMutability": "nonpayable",
      "type": "function"
    },
    {
      "inputs": [
        {
          "internalType": "string",
          "name": "_product",
          "type": "string"
        },
        {
          "internalType": "uint256",
          "name": "_budget",
          "type": "uint256"
        }
      ],
      "name": "setProductBudget",
      "outputs": [],
      "stateMutability": "nonpayable",
      "type": "function"
    },
    {
      "inputs": [
        {
          "internalType": "string",
          "name": "_product",
          "type": "string"
        }
      ],
      "name": "setStdMaterialQty",
      "outputs": [],
      "stateMutability": "nonpayable",
      "type": "function"
    },
    {
      "inputs": [
        {
          "internalType": "string",
          "name": "_product",
          "type": "string"
        }
      ],
      "name": "getStdCostPlan",
      "outputs": [
        {
          "components": [
            {
              "internalType": "uint256",
              "name": "directMaterialCost",
              "type": "uint256"
            },
            {
              "internalType": "uint256",
              "name": "packagingMaterialCost",
              "type": "uint256"
            },
            {
              "internalType": "uint256",
              "name": "materialCostPerUnit",
              "type": "uint256"
            },
            {
              "internalType": "uint256",
              "name": "marketingCost",
              "type": "uint256"
            },
            {
              "internalType": "uint256",
              "name": "researchCost",
              "type": "uint256"
            },
            {
              "internalType": "uint256",
              "name": "directLaborCost",
              "type": "uint256"
            },
            {
              "internalType": "uint256",
              "name": "ratePerWorkHr",
              "type": "uint256"
            },
            {
              "internalType": "uint256",
              "name": "workHrs",
              "type": "uint256"
            },
            {
              "internalType": "uint256",
              "name": "totalIndirectCost",
              "type": "uint256"
            },
            {
              "internalType": "uint256",
              "name": "totalDirectCost",
              "type": "uint256"
            },
            {
              "internalType": "uint256",
              "name": "CostTOT",
              "type": "uint256"
            }
          ],
          "internalType": "struct PharmaChain.Cost",
          "name": "",
          "type": "tuple"
        }
      ],
      "stateMutability": "view",
      "type": "function",
      "constant": true
    },
    {
      "inputs": [
        {
          "internalType": "string",
          "name": "_product",
          "type": "string"
        }
      ],
      "name": "getStdBudgetUnits",
      "outputs": [
        {
          "internalType": "uint256",
          "name": "units",
          "type": "uint256"
        }
      ],
      "stateMutability": "view",
      "type": "function",
      "constant": true
    },
    {
      "inputs": [
        {
          "internalType": "string",
          "name": "_product",
          "type": "string"
        }
      ],
      "name": "getStdMaterialQty",
      "outputs": [
        {
          "internalType": "uint256",
          "name": "",
          "type": "uint256"
        }
      ],
      "stateMutability": "view",
      "type": "function",
      "constant": true
    },
    {
      "inputs": [
        {
          "internalType": "string",
          "name": "_product",
          "type": "string"
        },
        {
          "internalType": "uint256",
          "name": "_unitsNo",
          "type": "uint256"
        },
        {
          "internalType": "uint256",
          "name": "_actualPkgMatCost",
          "type": "uint256"
        },
        {
          "internalType": "uint256",
          "name": "_unitMaterialCost",
          "type": "uint256"
        },
        {
          "internalType": "uint256",
          "name": "_actualRatePerHr",
          "type": "uint256"
        },
        {
          "internalType": "uint256",
          "name": "_actualWorkHrsNo",
          "type": "uint256"
        },
        {
          "internalType": "uint256",
          "name": "_actualIndirectCost",
          "type": "uint256"
        },
        {
          "internalType": "uint256",
          "name": "_actualMrkCost",
          "type": "uint256"
        },
        {
          "internalType": "uint256",
          "name": "_actualRsrchCost",
          "type": "uint256"
        }
      ],
      "name": "setActualCost",
      "outputs": [],
      "stateMutability": "nonpayable",
      "type": "function"
    },
    {
      "inputs": [
        {
          "internalType": "string",
          "name": "_product",
          "type": "string"
        }
      ],
      "name": "getActualCost",
      "outputs": [
        {
          "components": [
            {
              "internalType": "uint256",
              "name": "directMaterialCost",
              "type": "uint256"
            },
            {
              "internalType": "uint256",
              "name": "packagingMaterialCost",
              "type": "uint256"
            },
            {
              "internalType": "uint256",
              "name": "materialCostPerUnit",
              "type": "uint256"
            },
            {
              "internalType": "uint256",
              "name": "marketingCost",
              "type": "uint256"
            },
            {
              "internalType": "uint256",
              "name": "researchCost",
              "type": "uint256"
            },
            {
              "internalType": "uint256",
              "name": "directLaborCost",
              "type": "uint256"
            },
            {
              "internalType": "uint256",
              "name": "ratePerWorkHr",
              "type": "uint256"
            },
            {
              "internalType": "uint256",
              "name": "workHrs",
              "type": "uint256"
            },
            {
              "internalType": "uint256",
              "name": "totalIndirectCost",
              "type": "uint256"
            },
            {
              "internalType": "uint256",
              "name": "totalDirectCost",
              "type": "uint256"
            },
            {
              "internalType": "uint256",
              "name": "CostTOT",
              "type": "uint256"
            }
          ],
          "internalType": "struct PharmaChain.Cost",
          "name": "",
          "type": "tuple"
        }
      ],
      "stateMutability": "view",
      "type": "function",
      "constant": true
    },
    {
      "inputs": [
        {
          "internalType": "string",
          "name": "_product",
          "type": "string"
        },
        {
          "internalType": "uint256",
          "name": "_amount",
          "type": "uint256"
        }
      ],
      "name": "setActualMaterialQty",
      "outputs": [],
      "stateMutability": "nonpayable",
      "type": "function"
    },
    {
      "inputs": [
        {
          "internalType": "string",
          "name": "_product",
          "type": "string"
        }
      ],
      "name": "getActualMaterialQty",
      "outputs": [
        {
          "internalType": "uint256",
          "name": "",
          "type": "uint256"
        }
      ],
      "stateMutability": "view",
      "type": "function",
      "constant": true
    },
    {
      "inputs": [
        {
          "internalType": "string",
          "name": "_product",
          "type": "string"
        }
      ],
      "name": "getActualBudgetUnits",
      "outputs": [
        {
          "internalType": "uint256",
          "name": "units",
          "type": "uint256"
        }
      ],
      "stateMutability": "view",
      "type": "function",
      "constant": true
    },
    {
      "inputs": [
        {
          "internalType": "string",
          "name": "_product",
          "type": "string"
        },
        {
          "internalType": "uint256",
          "name": "_unitsNo",
          "type": "uint256"
        },
        {
          "internalType": "uint256",
          "name": "_pkgUnitCost",
          "type": "uint256"
        },
        {
          "internalType": "uint256",
          "name": "_unitMaterialCost",
          "type": "uint256"
        },
        {
          "internalType": "uint256",
          "name": "_ratePerHr",
          "type": "uint256"
        },
        {
          "internalType": "uint256",
          "name": "_workHrsNo",
          "type": "uint256"
        },
        {
          "internalType": "uint256",
          "name": "_indirectManuUnitCost",
          "type": "uint256"
        },
        {
          "internalType": "uint256",
          "name": "_flexibleMrkCost",
          "type": "uint256"
        },
        {
          "internalType": "uint256",
          "name": "_flexibleRsrchCost",
          "type": "uint256"
        }
      ],
      "name": "setFlexibleCosts",
      "outputs": [],
      "stateMutability": "nonpayable",
      "type": "function"
    },
    {
      "inputs": [
        {
          "internalType": "string",
          "name": "_product",
          "type": "string"
        }
      ],
      "name": "getFlexibleCosts",
      "outputs": [
        {
          "components": [
            {
              "internalType": "uint256",
              "name": "directMaterialCost",
              "type": "uint256"
            },
            {
              "internalType": "uint256",
              "name": "packagingMaterialCost",
              "type": "uint256"
            },
            {
              "internalType": "uint256",
              "name": "materialCostPerUnit",
              "type": "uint256"
            },
            {
              "internalType": "uint256",
              "name": "marketingCost",
              "type": "uint256"
            },
            {
              "internalType": "uint256",
              "name": "researchCost",
              "type": "uint256"
            },
            {
              "internalType": "uint256",
              "name": "directLaborCost",
              "type": "uint256"
            },
            {
              "internalType": "uint256",
              "name": "ratePerWorkHr",
              "type": "uint256"
            },
            {
              "internalType": "uint256",
              "name": "workHrs",
              "type": "uint256"
            },
            {
              "internalType": "uint256",
              "name": "totalIndirectCost",
              "type": "uint256"
            },
            {
              "internalType": "uint256",
              "name": "totalDirectCost",
              "type": "uint256"
            },
            {
              "internalType": "uint256",
              "name": "CostTOT",
              "type": "uint256"
            }
          ],
          "internalType": "struct PharmaChain.Cost",
          "name": "",
          "type": "tuple"
        }
      ],
      "stateMutability": "view",
      "type": "function",
      "constant": true
    },
    {
      "inputs": [
        {
          "internalType": "string",
          "name": "_product",
          "type": "string"
        }
      ],
      "name": "getFlexibleBudgetUnits",
      "outputs": [
        {
          "internalType": "uint256",
          "name": "units",
          "type": "uint256"
        }
      ],
      "stateMutability": "view",
      "type": "function",
      "constant": true
    },
    {
      "inputs": [
        {
          "internalType": "string",
          "name": "_id",
          "type": "string"
        },
        {
          "internalType": "string",
          "name": "_name",
          "type": "string"
        },
        {
          "internalType": "uint256",
          "name": "_str",
          "type": "uint256"
        },
        {
          "internalType": "string",
          "name": "_form",
          "type": "string"
        },
        {
          "internalType": "uint256",
          "name": "_amount",
          "type": "uint256"
        },
        {
          "internalType": "uint256",
          "name": "_unitCost",
          "type": "uint256"
        }
      ],
      "name": "createMaterial",
      "outputs": [],
      "stateMutability": "nonpayable",
      "type": "function"
    },
    {
      "inputs": [
        {
          "internalType": "address",
          "name": "_supplier",
          "type": "address"
        }
      ],
      "name": "getMaterialsBySupplier",
      "outputs": [
        {
          "components": [
            {
              "internalType": "address",
              "name": "supplier",
              "type": "address"
            },
            {
              "internalType": "string",
              "name": "materialID",
              "type": "string"
            },
            {
              "internalType": "string",
              "name": "materialName",
              "type": "string"
            },
            {
              "internalType": "uint256",
              "name": "materialStrength",
              "type": "uint256"
            },
            {
              "internalType": "string",
              "name": "materialForm",
              "type": "string"
            },
            {
              "internalType": "uint256",
              "name": "createdAmount",
              "type": "uint256"
            },
            {
              "internalType": "uint256",
              "name": "unitCost",
              "type": "uint256"
            }
          ],
          "internalType": "struct PharmaChain.Material[]",
          "name": "",
          "type": "tuple[]"
        }
      ],
      "stateMutability": "view",
      "type": "function",
      "constant": true
    },
    {
      "inputs": [],
      "name": "getMaterials",
      "outputs": [
        {
          "components": [
            {
              "internalType": "address",
              "name": "supplier",
              "type": "address"
            },
            {
              "internalType": "string",
              "name": "materialID",
              "type": "string"
            },
            {
              "internalType": "string",
              "name": "materialName",
              "type": "string"
            },
            {
              "internalType": "uint256",
              "name": "materialStrength",
              "type": "uint256"
            },
            {
              "internalType": "string",
              "name": "materialForm",
              "type": "string"
            },
            {
              "internalType": "uint256",
              "name": "createdAmount",
              "type": "uint256"
            },
            {
              "internalType": "uint256",
              "name": "unitCost",
              "type": "uint256"
            }
          ],
          "internalType": "struct PharmaChain.Material[]",
          "name": "",
          "type": "tuple[]"
        }
      ],
      "stateMutability": "view",
      "type": "function",
      "constant": true
    },
    {
      "inputs": [
        {
          "internalType": "string",
          "name": "_materialId",
          "type": "string"
        }
      ],
      "name": "getMaterialById",
      "outputs": [
        {
          "components": [
            {
              "internalType": "address",
              "name": "supplier",
              "type": "address"
            },
            {
              "internalType": "string",
              "name": "materialID",
              "type": "string"
            },
            {
              "internalType": "string",
              "name": "materialName",
              "type": "string"
            },
            {
              "internalType": "uint256",
              "name": "materialStrength",
              "type": "uint256"
            },
            {
              "internalType": "string",
              "name": "materialForm",
              "type": "string"
            },
            {
              "internalType": "uint256",
              "name": "createdAmount",
              "type": "uint256"
            },
            {
              "internalType": "uint256",
              "name": "unitCost",
              "type": "uint256"
            }
          ],
          "internalType": "struct PharmaChain.Material",
          "name": "",
          "type": "tuple"
        }
      ],
      "stateMutability": "view",
      "type": "function",
      "constant": true
    },
    {
      "inputs": [
        {
          "internalType": "address",
          "name": "_to",
          "type": "address"
        },
        {
          "internalType": "string",
          "name": "_materialId",
          "type": "string"
        },
        {
          "internalType": "uint256",
          "name": "_amount",
          "type": "uint256"
        }
      ],
      "name": "createRequest",
      "outputs": [],
      "stateMutability": "nonpayable",
      "type": "function"
    },
    {
      "inputs": [
        {
          "internalType": "address",
          "name": "_fromParti2",
          "type": "address"
        },
        {
          "internalType": "address",
          "name": "_to",
          "type": "address"
        },
        {
          "internalType": "string",
          "name": "_materialId",
          "type": "string"
        },
        {
          "internalType": "uint256",
          "name": "_amount",
          "type": "uint256"
        }
      ],
      "name": "createBatchRequest",
      "outputs": [],
      "stateMutability": "nonpayable",
      "type": "function"
    },
    {
      "inputs": [
        {
          "internalType": "uint256",
          "name": "_id",
          "type": "uint256"
        }
      ],
      "name": "getRequestCost",
      "outputs": [
        {
          "internalType": "uint256",
          "name": "",
          "type": "uint256"
        }
      ],
      "stateMutability": "view",
      "type": "function",
      "constant": true
    },
    {
      "inputs": [],
      "name": "getMyRequests",
      "outputs": [
        {
          "components": [
            {
              "internalType": "uint256",
              "name": "requestId",
              "type": "uint256"
            },
            {
              "internalType": "address",
              "name": "fromParti",
              "type": "address"
            },
            {
              "internalType": "address",
              "name": "toParti",
              "type": "address"
            },
            {
              "internalType": "string",
              "name": "materialID",
              "type": "string"
            },
            {
              "internalType": "uint256",
              "name": "amount",
              "type": "uint256"
            },
            {
              "internalType": "uint256",
              "name": "issueTime",
              "type": "uint256"
            }
          ],
          "internalType": "struct PharmaChain.Request[]",
          "name": "",
          "type": "tuple[]"
        }
      ],
      "stateMutability": "view",
      "type": "function",
      "constant": true
    },
    {
      "inputs": [],
      "name": "getMyBatchRequests",
      "outputs": [
        {
          "components": [
            {
              "internalType": "uint256",
              "name": "requestId",
              "type": "uint256"
            },
            {
              "internalType": "address",
              "name": "fromParti1",
              "type": "address"
            },
            {
              "internalType": "address",
              "name": "fromParti2",
              "type": "address"
            },
            {
              "internalType": "address",
              "name": "toParti",
              "type": "address"
            },
            {
              "internalType": "string",
              "name": "materialID",
              "type": "string"
            },
            {
              "internalType": "uint256",
              "name": "amount",
              "type": "uint256"
            },
            {
              "internalType": "uint256",
              "name": "issueTime",
              "type": "uint256"
            }
          ],
          "internalType": "struct PharmaChain.BatchRequest[]",
          "name": "",
          "type": "tuple[]"
        }
      ],
      "stateMutability": "view",
      "type": "function",
      "constant": true
    },
    {
      "inputs": [
        {
          "internalType": "uint256",
          "name": "_id",
          "type": "uint256"
        }
      ],
      "name": "getRequestById",
      "outputs": [
        {
          "components": [
            {
              "internalType": "uint256",
              "name": "requestId",
              "type": "uint256"
            },
            {
              "internalType": "address",
              "name": "fromParti",
              "type": "address"
            },
            {
              "internalType": "address",
              "name": "toParti",
              "type": "address"
            },
            {
              "internalType": "string",
              "name": "materialID",
              "type": "string"
            },
            {
              "internalType": "uint256",
              "name": "amount",
              "type": "uint256"
            },
            {
              "internalType": "uint256",
              "name": "issueTime",
              "type": "uint256"
            }
          ],
          "internalType": "struct PharmaChain.Request",
          "name": "",
          "type": "tuple"
        }
      ],
      "stateMutability": "view",
      "type": "function",
      "constant": true
    },
    {
      "inputs": [
        {
          "internalType": "address",
          "name": "_participant",
          "type": "address"
        },
        {
          "internalType": "string",
          "name": "_item",
          "type": "string"
        },
        {
          "internalType": "uint256",
          "name": "_amount",
          "type": "uint256"
        }
      ],
      "name": "addToInventory",
      "outputs": [],
      "stateMutability": "nonpayable",
      "type": "function"
    },
    {
      "inputs": [
        {
          "internalType": "address",
          "name": "_participant",
          "type": "address"
        },
        {
          "internalType": "string",
          "name": "_item",
          "type": "string"
        },
        {
          "internalType": "uint256",
          "name": "_amount",
          "type": "uint256"
        }
      ],
      "name": "updateInventory",
      "outputs": [],
      "stateMutability": "nonpayable",
      "type": "function"
    },
    {
      "inputs": [
        {
          "internalType": "address",
          "name": "_participant",
          "type": "address"
        }
      ],
      "name": "getInventory",
      "outputs": [
        {
          "components": [
            {
              "internalType": "string",
              "name": "itemId",
              "type": "string"
            },
            {
              "internalType": "uint256",
              "name": "amount",
              "type": "uint256"
            }
          ],
          "internalType": "struct PharmaChain.InventoryItem[]",
          "name": "",
          "type": "tuple[]"
        }
      ],
      "stateMutability": "view",
      "type": "function",
      "constant": true
    },
    {
      "inputs": [
        {
          "internalType": "string",
          "name": "_item",
          "type": "string"
        }
      ],
      "name": "getInventoryItemById",
      "outputs": [
        {
          "components": [
            {
              "internalType": "string",
              "name": "itemId",
              "type": "string"
            },
            {
              "internalType": "uint256",
              "name": "amount",
              "type": "uint256"
            }
          ],
          "internalType": "struct PharmaChain.InventoryItem",
          "name": "",
          "type": "tuple"
        }
      ],
      "stateMutability": "view",
      "type": "function",
      "constant": true
    },
    {
      "inputs": [
        {
          "internalType": "address",
          "name": "_addr",
          "type": "address"
        }
      ],
      "name": "setAsBank",
      "outputs": [],
      "stateMutability": "nonpayable",
      "type": "function"
    },
    {
      "inputs": [],
      "name": "getBank",
      "outputs": [
        {
          "internalType": "address",
          "name": "",
          "type": "address"
        }
      ],
      "stateMutability": "view",
      "type": "function",
      "constant": true
    },
    {
      "inputs": [
        {
          "internalType": "address",
          "name": "_userAddr",
          "type": "address"
        },
        {
          "internalType": "string",
          "name": "_userName",
          "type": "string"
        }
      ],
      "name": "createBankAccount",
      "outputs": [],
      "stateMutability": "nonpayable",
      "type": "function"
    },
    {
      "inputs": [
        {
          "internalType": "address",
          "name": "_userAddr",
          "type": "address"
        }
      ],
      "name": "hasBankAccount",
      "outputs": [
        {
          "internalType": "bool",
          "name": "",
          "type": "bool"
        }
      ],
      "stateMutability": "view",
      "type": "function",
      "constant": true
    },
    {
      "inputs": [
        {
          "internalType": "address",
          "name": "_userAddr",
          "type": "address"
        },
        {
          "internalType": "uint256",
          "name": "_amount",
          "type": "uint256"
        }
      ],
      "name": "deposit",
      "outputs": [
        {
          "internalType": "bool",
          "name": "",
          "type": "bool"
        }
      ],
      "stateMutability": "nonpayable",
      "type": "function"
    },
    {
      "inputs": [
        {
          "internalType": "address",
          "name": "_userAddr",
          "type": "address"
        },
        {
          "internalType": "uint256",
          "name": "_amount",
          "type": "uint256"
        }
      ],
      "name": "withdraw",
      "outputs": [
        {
          "internalType": "bool",
          "name": "",
          "type": "bool"
        }
      ],
      "stateMutability": "nonpayable",
      "type": "function"
    },
    {
      "inputs": [
        {
          "internalType": "address",
          "name": "_userAddr",
          "type": "address"
        }
      ],
      "name": "getBalance",
      "outputs": [
        {
          "internalType": "uint256",
          "name": "x",
          "type": "uint256"
        }
      ],
      "stateMutability": "view",
      "type": "function",
      "constant": true
    },
    {
      "inputs": [
        {
          "internalType": "address",
          "name": "_from",
          "type": "address"
        },
        {
          "internalType": "address",
          "name": "_to",
          "type": "address"
        },
        {
          "internalType": "uint256",
          "name": "_amount",
          "type": "uint256"
        }
      ],
      "name": "transfer",
      "outputs": [
        {
          "internalType": "bool",
          "name": "",
          "type": "bool"
        }
      ],
      "stateMutability": "nonpayable",
      "type": "function"
    },
    {
      "inputs": [
        {
          "internalType": "address",
          "name": "_account",
          "type": "address"
        }
      ],
      "name": "getAccountDetails",
      "outputs": [
        {
          "components": [
            {
              "internalType": "address",
              "name": "userId",
              "type": "address"
            },
            {
              "internalType": "string",
              "name": "userName",
              "type": "string"
            },
            {
              "internalType": "uint256",
              "name": "userBalance",
              "type": "uint256"
            },
            {
              "internalType": "bool",
              "name": "isActive",
              "type": "bool"
            }
          ],
          "internalType": "struct PharmaChain.BankAccount",
          "name": "",
          "type": "tuple"
        }
      ],
      "stateMutability": "view",
      "type": "function",
      "constant": true
    }
  ],
  "bytecode": "0x60806040526000805534801561001457600080fd5b506146c1806100246000396000f3fe608060405234801561001057600080fd5b50600436106102945760003560e01c806359c8351f11610167578063b26338b0116100ce578063de67ef8a11610087578063de67ef8a14610648578063def1ca381461065b578063e75200d81461066e578063f3fef3a314610681578063f8b2cb4f14610694578063fd91dcca146106a757610294565b8063b26338b0146105c7578063bbf5f774146105da578063beabacc8146105fa578063c29b2f201461060d578063c933a2ad14610622578063d8059e8b1461063557610294565b8063881de0de11610120578063881de0de146105465780638b87c5441461055957806391eace8b146105795780639366c6411461058e57806398de5cef146105a1578063a28e4c15146105b457610294565b806359c8351f146104d057806360d704db146104e35780636e3162a7146104f85780636eac3eb81461050b5780637f5cf16e1461051e57806380dfedcd1461053e57610294565b80632fc819161161020b5780634cd9cc3d116101c45780634cd9cc3d1461044f5780635028f1d014610464578063502f1807146104845780635280ae1d1461049757806353196363146104aa5780635518cad0146104bd57610294565b80632fc81916146103c35780633f201978146103d657806343ffb9a6146103f6578063477dec5d1461040957806347e7ef241461041c57806348c18e231461043c57610294565b80630e96e4371161025d5780630e96e4371461031d578063130ff11d146103305780631f94d0e7146103505780632352d4aa1461036357806326757b73146103835780632aceb534146103a357610294565b8062df68121461029957806306177b4e146102ae57806308280093146102d7578063096a71e2146102ea5780630e34b00e1461030a575b600080fd5b6102ac6102a7366004613b2b565b6106ba565b005b6102c16102bc36600461396d565b610704565b6040516102ce9190614225565b60405180910390f35b6102ac6102e5366004613d7a565b610967565b6102fd6102f8366004613af0565b610a91565b6040516102ce919061458d565b6102ac610318366004613b82565b610b38565b6102ac61032b366004613af0565b610db2565b61034361033e366004613af0565b610df7565b6040516102ce9190614656565b6102fd61035e366004613af0565b610e1f565b610376610371366004613af0565b610e37565b6040516102ce9190614630565b610396610391366004613ec4565b611042565b6040516102ce9190614643565b6103b66103b136600461396d565b61113b565b6040516102ce919061453d565b6102ac6103d1366004613a26565b611231565b6103e96103e4366004613af0565b6112db565b6040516102ce919061461d565b6102ac610404366004613a72565b6114fa565b6102ac61041736600461396d565b6116dd565b61042f61042a366004613ac7565b6116ff565b6040516102ce91906143d4565b61034361044a366004613af0565b6117e6565b6104576117f8565b6040516102ce9190614118565b610477610472366004613af0565b611940565b6040516102ce919061460a565b6102ac610492366004613e3c565b611a0b565b61042f6104a536600461396d565b611b40565b6102ac6104b8366004613a72565b611b86565b6102ac6104cb366004613987565b611c44565b61042f6104de366004613b2b565b611e53565b6104eb611eac565b6040516102ce91906140a4565b6102ac610506366004613cda565b611ebb565b6102fd610519366004613af0565b61215e565b61053161052c366004613af0565b612176565b6040516102ce919061431e565b6102c161244c565b610343610554366004613af0565b61268f565b61056c61056736600461396d565b6126a1565b6040516102ce91906141d2565b61058161279f565b6040516102ce91906142cb565b6102ac61059c366004613a72565b6128d2565b6103436105af366004613af0565b6129c7565b6102ac6105c2366004613dbd565b6129d9565b6103436105d5366004613af0565b612b37565b6105ed6105e8366004613af0565b612b49565b6040516102ce91906140b8565b61042f6106083660046139eb565b612c34565b610615612dac565b6040516102ce9190614278565b610343610630366004613ec4565b612fdb565b6102ac610643366004613d7a565b612fed565b61061561065636600461396d565b613012565b6102ac610669366004613af0565b613255565b6102ac61067c366004613dbd565b6132b4565b61042f61068f366004613ac7565b6133de565b6103436106a236600461396d565b6134cd565b6102ac6106b5366004613c06565b613534565b600b826040516106ca9190614088565b90815260405160209181900382019020805460018101825560009182529082902083516106ff93919092019190840190613647565b505050565b6001600160a01b0381166000908152600c60209081526040808320805482518185028101850190935280835260609492939192909184015b8282101561095b5760008481526020908190206040805160e0810182526007860290920180546001600160a01b03168352600180820180548451600261010094831615949094026000190190911692909204601f8101879004870283018701909452838252939491938583019391929091908301828280156107ff5780601f106107d4576101008083540402835291602001916107ff565b820191906000526020600020905b8154815290600101906020018083116107e257829003601f168201915b5050509183525050600282810180546040805160206001841615610100026000190190931694909404601f810183900483028501830190915280845293810193908301828280156108915780601f1061086657610100808354040283529160200191610891565b820191906000526020600020905b81548152906001019060200180831161087457829003601f168201915b5050509183525050600382015460208083019190915260048301805460408051601f6002600019610100600187161502019094169390930492830185900485028101850182528281529401939283018282801561092f5780601f106109045761010080835404028352916020019161092f565b820191906000526020600020905b81548152906001019060200180831161091257829003601f168201915b50505050508152602001600582015481526020016006820154815250508152602001906001019061073c565b5050505090505b919050565b3360009081526006602052604081208054610a349285929161098557fe5b90600052602060002090600502016001018054600181600116156101000203166002900480601f016020809104026020016040519081016040528092919081815260200182805460018160011615610100020316600290048015610a2a5780601f106109ff57610100808354040283529160200191610a2a565b820191906000526020600020905b815481529060010190602001808311610a0d57829003601f168201915b5050505050611e53565b15610a8d573360009081526006602052604081208054839290610a5357fe5b90600052602060002090600502016004018190555080600a83604051610a799190614088565b908152604051908190036020019020600401555b5050565b610a996136d3565b601382604051610aa99190614088565b90815260200160405180910390206040518061016001604052908160008201548152602001600182015481526020016002820154815260200160038201548152602001600482015481526020016005820154815260200160068201548152602001600782015481526020016008820154815260200160098201548152602001600a820154815250509050919050565b610b4061372d565b506040805160a081018252338082526020808301878152838501879052606084018690526000608085018190529283526006825293822080546001808201835591845292829020845160059094020180546001600160a01b0319166001600160a01b039094169390931783559351805193948594610bc5939185019290910190613647565b5060408201518051610be1916002840191602090910190613647565b5060608201518051610bfd916003840191602090910190613647565b5060808201518160040155505080600a85604051610c1b9190614088565b90815260405160209181900382019020825181546001600160a01b0319166001600160a01b039091161781558282015180519192610c6192600185019290910190613647565b5060408201518051610c7d916002840191602090910190613647565b5060608201518051610c99916003840191602090910190613647565b5060809190910151600491820155805460018101825560009190915281517f8a35acfbc15ff81a39ae7d344fd709f28e8600b4aa8c65c6b64bfe7fe36bd19b600590920291820180546001600160a01b0319166001600160a01b0390921691909117815560208084015180518594610d37937f8a35acfbc15ff81a39ae7d344fd709f28e8600b4aa8c65c6b64bfe7fe36bd19c909101920190613647565b5060408201518051610d53916002840191602090910190613647565b5060608201518051610d6f916003840191602090910190613647565b50608082015181600401555050610dac846040518060400160405280600e81526020016d0aa9c888aa45aa48aa68a82a486960931b8152506106ba565b50505050565b42336001600160a01b03167f530abb16f843103fba748c032a23827a5140b72d210f41d8bbbc183708de524083604051610dec91906143df565b60405180910390a350565b6000601582604051610e099190614088565b9081526020016040518091039020549050919050565b610e276136d3565b601482604051610aa99190614088565b610e3f61372d565b600a82604051610e4f9190614088565b908152604080516020928190038301812060a08201835280546001600160a01b03168252600180820180548551600261010094831615949094026000190190911692909204601f810187900487028301870190955284825292949193828601939192830182828015610f025780601f10610ed757610100808354040283529160200191610f02565b820191906000526020600020905b815481529060010190602001808311610ee557829003601f168201915b5050509183525050600282810180546040805160206001841615610100026000190190931694909404601f81018390048302850183019091528084529381019390830182828015610f945780601f10610f6957610100808354040283529160200191610f94565b820191906000526020600020905b815481529060010190602001808311610f7757829003601f168201915b505050918352505060038201805460408051602060026001851615610100026000190190941693909304601f81018490048402820184019092528181529382019392918301828280156110285780601f10610ffd57610100808354040283529160200191611028565b820191906000526020600020905b81548152906001019060200180831161100b57829003601f168201915b505050505081526020016004820154815250509050919050565b61104a613765565b6000828152600f6020908152604091829020825160c081018452815481526001808301546001600160a01b03908116838601526002808501549091168387015260038401805487516101009482161594909402600019011691909104601f8101869004860283018601909652858252919492936060860193919291908301828280156111175780601f106110ec57610100808354040283529160200191611117565b820191906000526020600020905b8154815290600101906020018083116110fa57829003601f168201915b50505050508152602001600482015481526020016005820154815250509050919050565b6111436137ad565b600280546001600160a01b039081166000908152601b6020908152604080832087851684528252918290208251608081018452815490941684526001808201805485516101009382161593909302600019011696909604601f8101849004840282018401909452838152939490938583019390928301828280156112085780601f106111dd57610100808354040283529160200191611208565b820191906000526020600020905b8154815290600101906020018083116111eb57829003601f168201915b50505091835250506002820154602082015260039091015460ff16151560409091015292915050565b6112396137ad565b50604080516080810182526001600160a01b038481168083526020808401868152600085870181905260016060870181905260025486168252601b845287822094825293835295909520845181546001600160a01b031916941693909317835593518051939485946112b19385019290910190613647565b50604082015160028201556060909101516003909101805460ff1916911515919091179055505050565b6112e36137e0565b600d826040516112f39190614088565b908152604080516020928190038301812060e08201835280546001600160a01b03168252600180820180548551600261010094831615949094026000190190911692909204601f8101879004870283018701909552848252929491938286019391928301828280156113a65780601f1061137b576101008083540402835291602001916113a6565b820191906000526020600020905b81548152906001019060200180831161138957829003601f168201915b5050509183525050600282810180546040805160206001841615610100026000190190931694909404601f810183900483028501830190915280845293810193908301828280156114385780601f1061140d57610100808354040283529160200191611438565b820191906000526020600020905b81548152906001019060200180831161141b57829003601f168201915b5050509183525050600382015460208083019190915260048301805460408051601f600260001961010060018716150201909416939093049283018590048502810185018252828152940193928301828280156114d65780601f106114ab576101008083540402835291602001916114d6565b820191906000526020600020905b8154815290600101906020018083116114b957829003601f168201915b50505050508152602001600582015481526020016006820154815250509050919050565b60008054600101905561150b613765565b506040805160c08101825260005481523360208201526001600160a01b0385168183015260608101849052608081018390524260a08201529051600d90611553908590614088565b908152604080516020928190038301902060069081015460808501518551600090815260188652848120919092029055338152600e8452828120805460018082018355918352918590208651929093029092019081558484015191810180546001600160a01b03199081166001600160a01b0394851617909155928501516002820180549094169216919091179091556060830151805184936115fd926003850192910190613647565b506080820151600482015560a09091015160059091015580516000908152600f602090815260409182902083518155818401516001820180546001600160a01b03199081166001600160a01b0393841617909155938501516002830180549095169116179092556060830151805184939261167f926003850192910190613647565b506080820151816004015560a0820151816005015590505042336001600160a01b03167f530abb16f843103fba748c032a23827a5140b72d210f41d8bbbc183708de52406040516116cf90614514565b60405180910390a350505050565b600280546001600160a01b0319166001600160a01b0392909216919091179055565b60008082116117295760405162461bcd60e51b8152600401611720906143f2565b60405180910390fd5b6002546001600160a01b039081166000908152601b6020908152604080832084881680855292529091205490911614156117dc57600280546001600160a01b039081166000908152601b602090815260408083209388168084529390915290819020909201805485019081905591514291907f11cccc9b3fbc8fd163c4dbf6c7afdce1433c5cf351f29596a006f3720f648c20906117ca90889088906144a5565b60405180910390a360019150506117e0565b5060005b92915050565b6000601682604051610e099190614088565b336000908152601060209081526040808320805482518185028101850190935280835260609492939192909184015b828210156119375760008481526020908190206040805160e08101825260078602909201805483526001808201546001600160a01b03908116858701526002808401548216868601526003840154909116606086015260048301805485516101009482161594909402600019011691909104601f8101879004870283018701909452838252939491936080860193919290919083018282801561190b5780601f106118e05761010080835404028352916020019161190b565b820191906000526020600020905b8154815290600101906020018083116118ee57829003601f168201915b505050505081526020016005820154815260200160068201548152505081526020019060010190611827565b50505050905090565b611948613826565b601a826040516119589190614088565b9081526040805160209281900383018120805460026001821615610100026000190190911604601f81018590049094028201606090810184529282018481529193909284929184918401828280156119f15780601f106119c6576101008083540402835291602001916119f1565b820191906000526020600020905b8154815290600101906020018083116119d457829003601f168201915b505050505081526020016001820154815250509050919050565b6000611a168b612b37565b9050611a206136d3565b6040518061016001604052808b840281526020018a81526020018b8152602001868152602001858152602001888a02815260200189815260200188815260200187815260200160008152602001600081525090508060128d604051611a859190614088565b9081526020016040518091039020600082015181600001556020820151816001015560408201518160020155606082015181600301556080820151816004015560a0820151816005015560c0820151816006015560e082015181600701556101008201518160080155610120820151816009015561014082015181600a01559050508a60158d604051611b189190614088565b90815260405190819003602001902055611b328c84610967565b505050505050505050505050565b6002546001600160a01b039081166000908152601b6020908152604080832093851683529290529081206003015460ff1615611b7e57506001610962565b506000610962565b611b8e613826565b5060408051808201825283815260208082018490526001600160a01b0386166000908152601982529283208054600181018255908452928190208251805193948594600290910290920192611be892849290910190613647565b5060208201518160010155505080601a84604051611c069190614088565b90815260200160405180910390206000820151816000019080519060200190611c30929190613647565b506020820151816001015590505050505050565b600080546001019055611c55613840565b506040805160e08101825260005481523360208201526001600160a01b0386811682840152851660608201526080810184905260a081018390524260c08201529051600d90611ca5908590614088565b90815260408051602092819003830190206006015460a08401518451600090815260188552838120919092029055835181526011835281902083518155838301516001820180546001600160a01b03199081166001600160a01b03938416179091559285015160028301805485169183169190911790556060850151600383018054909416911617909155608083015180518493611d4a926004850192910190613647565b5060a0820151600582015560c0909101516006909101553360009081526010602090815260408083208054600180820183559185529383902085516007909502019384558483015190840180546001600160a01b03199081166001600160a01b03938416179091559185015160028501805484169183169190911790556060850151600385018054909316911617905560808301518051849392611df5926004850192910190613647565b5060a0820151816005015560c08201518160060155505042336001600160a01b03167f530abb16f843103fba748c032a23827a5140b72d210f41d8bbbc183708de5240604051611e4490614413565b60405180910390a35050505050565b600081604051602001611e669190614088565b6040516020818303038152906040528051906020012083604051602001611e8d9190614088565b6040516020818303038152906040528051906020012014905092915050565b6002546001600160a01b031690565b611ec36137e0565b506040805160e0810182523380825260208083018a81528385018a9052606084018990526080840188905260a0840187905260c084018690526000928352600c825293822080546001808201835591845292829020845160079094020180546001600160a01b0319166001600160a01b039094169390931783559351805193948594611f56939185019290910190613647565b5060408201518051611f72916002840191602090910190613647565b506060820151600382015560808201518051611f98916004840191602090910190613647565b5060a0820151816005015560c08201518160060155505080600d88604051611fc09190614088565b90815260405160209181900382019020825181546001600160a01b0319166001600160a01b03909116178155828201518051919261200692600185019290910190613647565b5060408201518051612022916002840191602090910190613647565b506060820151600382015560808201518051612048916004840191602090910190613647565b5060a0820151600582015560c0909101516006909101556003805460018101825560009190915281517fc2575a0e9e593c00f959f8c92f12db2869c3395a3b0502d05e2516446f71f85b600790920291820180546001600160a01b0319166001600160a01b03909216919091178155602080840151805185946120f1937fc2575a0e9e593c00f959f8c92f12db2869c3395a3b0502d05e2516446f71f85c909101920190613647565b506040820151805161210d916002840191602090910190613647565b506060820151600382015560808201518051612133916004840191602090910190613647565b5060a0820151816005015560c082015181600601555050612155338885611b86565b50505050505050565b6121666136d3565b601282604051610aa99190614088565b60606007826040516121889190614088565b9081526020016040518091039020805480602002602001604051908101604052809291908181526020016000905b8282101561095b5760008481526020908190206040805160058602909201805460026001821615610100026000190190911604601f8101859004909402830160c090810190925260a083018481529293909284929091849184018282801561225f5780601f106122345761010080835404028352916020019161225f565b820191906000526020600020905b81548152906001019060200180831161224257829003601f168201915b50505050508152602001600182018054600181600116156101000203166002900480601f0160208091040260200160405190810160405280929190818152602001828054600181600116156101000203166002900480156123015780601f106122d657610100808354040283529160200191612301565b820191906000526020600020905b8154815290600101906020018083116122e457829003601f168201915b505050918352505060028281015460208084019190915260038401805460408051601f600019610100600186161502019093169590950491820184900484028501840181528185529094019390918301828280156123a05780601f10612375576101008083540402835291602001916123a0565b820191906000526020600020905b81548152906001019060200180831161238357829003601f168201915b505050918352505060048201805460408051602060026001851615610100026000190190941693909304601f81018490048402820184019092528181529382019392918301828280156124345780601f1061240957610100808354040283529160200191612434565b820191906000526020600020905b81548152906001019060200180831161241757829003601f168201915b505050505081525050815260200190600101906121b6565b60606003805480602002602001604051908101604052809291908181526020016000905b828210156119375760008481526020908190206040805160e0810182526007860290920180546001600160a01b03168352600180820180548451600261010094831615949094026000190190911692909204601f8101879004870283018701909452838252939491938583019391929091908301828280156125335780601f1061250857610100808354040283529160200191612533565b820191906000526020600020905b81548152906001019060200180831161251657829003601f168201915b5050509183525050600282810180546040805160206001841615610100026000190190931694909404601f810183900483028501830190915280845293810193908301828280156125c55780601f1061259a576101008083540402835291602001916125c5565b820191906000526020600020905b8154815290600101906020018083116125a857829003601f168201915b5050509183525050600382015460208083019190915260048301805460408051601f600260001961010060018716150201909416939093049283018590048502810185018252828152940193928301828280156126635780601f1061263857610100808354040283529160200191612663565b820191906000526020600020905b81548152906001019060200180831161264657829003601f168201915b505050505081526020016005820154815260200160068201548152505081526020019060010190612470565b6000600982604051610e099190614088565b6001600160a01b0381166000908152601960209081526040808320805482518185028101850190935280835260609492939192909184015b8282101561095b5760008481526020908190206040805160028681029093018054600181161561010002600019011693909304601f81018590049094028101606090810183529181018481529093849284919084018282801561277d5780601f106127525761010080835404028352916020019161277d565b820191906000526020600020905b81548152906001019060200180831161276057829003601f168201915b50505050508152602001600182015481525050815260200190600101906126d9565b336000908152600e60209081526040808320805482518185028101850190935280835260609492939192909184015b828210156119375760008481526020908190206040805160c08101825260068602909201805483526001808201546001600160a01b03908116858701526002808401549091168585015260038301805485516101009482161594909402600019011691909104601f810187900487028301870190945283825293949193606086019391929091908301828280156128a65780601f1061287b576101008083540402835291602001916128a6565b820191906000526020600020905b81548152906001019060200180831161288957829003601f168201915b5050505050815260200160048201548152602001600582015481525050815260200190600101906127ce565b6001600160a01b03831660009081526019602052604081208054612961928592916128f957fe5b60009182526020918290206002918202018054604080516001831615610100026000190190921693909304601f810185900485028201850190935282815292909190830182828015610a2a5780601f106109ff57610100808354040283529160200191610a2a565b156106ff576001600160a01b0383166000908152601960205260408120805483929061298957fe5b90600052602060002090600202016001018190555080601a836040516129af9190614088565b90815260405190819003602001902060010155505050565b6000601782604051610e099190614088565b60006129e48a61268f565b90506129ee6136d3565b60405180610160016040528089840281526020018a8152602001898152602001858152602001848152602001878902815260200188815260200187815260200186815260200160008152602001600081525090508060138c604051612a539190614088565b9081526020016040518091039020600082015181600001556020820151816001015560408201518160020155606082015181600301556080820151816004015560a0820151816005015560c0820151816006015560e082015181600701556101008201518160080155610120820151816009015561014082015181600a01559050508960168c604051612ae69190614088565b908152602001604051809103902081905550612b2a8b6040518060400160405280601081526020016f50524f44554354494f4e2d524541445960801b8152506106ba565b5050505050505050505050565b6000600882604051610e099190614088565b6060600b82604051612b5b9190614088565b9081526020016040518091039020805480602002602001604051908101604052809291908181526020016000905b8282101561095b5760008481526020908190208301805460408051601f6002600019610100600187161502019094169390930492830185900485028101850190915281815292830182828015612c205780601f10612bf557610100808354040283529160200191612c20565b820191906000526020600020905b815481529060010190602001808311612c0357829003601f168201915b505050505081526020019060010190612b89565b600280546001600160a01b039081166000908152601b60209081526040808320938816835292905290812090910154821115612c825760405162461bcd60e51b81526004016117209061447c565b6002546001600160a01b039081166000908152601b60209081526040808320848916808552925290912054909116148015612ced57506002546001600160a01b039081166000908152601b602090815260408083209387168352929052206003015460ff1615156001145b15612da157600280546001600160a01b039081166000908152601b602081815260408084208a8616808652818452828620880180548c89168089529386528488208a0154908c90039182905589549098168752948452828620918652925292839020938701939094018390559051909242917f11cccc9b3fbc8fd163c4dbf6c7afdce1433c5cf351f29596a006f3720f648c2090612d8e90899089906144dc565b60405180910390a3600192505050612da5565b5060005b9392505050565b60606004805480602002602001604051908101604052809291908181526020016000905b828210156119375760008481526020908190206040805160a0810182526005860290920180546001600160a01b03168352600180820180548451600261010094831615949094026000190190911692909204601f810187900487028301870190945283825293949193858301939192909190830182828015612e935780601f10612e6857610100808354040283529160200191612e93565b820191906000526020600020905b815481529060010190602001808311612e7657829003601f168201915b5050509183525050600282810180546040805160206001841615610100026000190190931694909404601f81018390048302850183019091528084529381019390830182828015612f255780601f10612efa57610100808354040283529160200191612f25565b820191906000526020600020905b815481529060010190602001808311612f0857829003601f168201915b505050918352505060038201805460408051602060026001851615610100026000190190941693909304601f8101849004840282018401909252818152938201939291830182828015612fb95780601f10612f8e57610100808354040283529160200191612fb9565b820191906000526020600020905b815481529060010190602001808311612f9c57829003601f168201915b5050505050815260200160048201548152505081526020019060010190612dd0565b60009081526018602052604090205490565b80600983604051612ffe9190614088565b908152604051908190036020019020555050565b6001600160a01b0381166000908152600660209081526040808320805482518185028101850190935280835260609492939192909184015b8282101561095b5760008481526020908190206040805160a0810182526005860290920180546001600160a01b03168352600180820180548451600261010094831615949094026000190190911692909204601f81018790048702830187019094528382529394919385830193919290919083018282801561310d5780601f106130e25761010080835404028352916020019161310d565b820191906000526020600020905b8154815290600101906020018083116130f057829003601f168201915b5050509183525050600282810180546040805160206001841615610100026000190190931694909404601f8101839004830285018301909152808452938101939083018282801561319f5780601f106131745761010080835404028352916020019161319f565b820191906000526020600020905b81548152906001019060200180831161318257829003601f168201915b505050918352505060038201805460408051602060026001851615610100026000190190941693909304601f81018490048402820184019092528181529382019392918301828280156132335780601f1061320857610100808354040283529160200191613233565b820191906000526020600020905b81548152906001019060200180831161321657829003601f168201915b505050505081526020016004820154815250508152602001906001019061304a565b6007816040516132659190614088565b908152602001604051809103902060008154811061327f57fe5b9060005260206000209060050201600201546008826040516132a19190614088565b9081526040519081900360200190205550565b60006132bf8a612b37565b90506132c96136d3565b60405180610160016040528089840281526020018a8152602001898152602001858152602001848152602001878902815260200188815260200187815260200186815260200160008152602001600081525090508060148c60405161332e9190614088565b9081526020016040518091039020600082015181600001556020820151816001015560408201518160020155606082015181600301556080820151816004015560a0820151816005015560c0820151816006015560e082015181600701556101008201518160080155610120820151816009015561014082015181600a01559050508960178c6040516133c19190614088565b908152604051908190036020019020555050505050505050505050565b600280546001600160a01b039081166000908152601b60209081526040808320938716835292905290812090910154821061342b5760405162461bcd60e51b81526004016117209061447c565b6002546001600160a01b039081166000908152601b6020908152604080832084881680855292529091205490911614156117dc57600280546001600160a01b039081166000908152601b60209081526040808320938816808452939091529081902090920180548590039081905591514291907f11cccc9b3fbc8fd163c4dbf6c7afdce1433c5cf351f29596a006f3720f648c20906117ca9088908890614442565b6002546001600160a01b039081166000908152601b60209081526040808320848616808552925282205491929190911614156109625750600280546001600160a01b039081166000908152601b602090815260408083209386168352929052200154610962565b61353c613898565b6040518060a001604052808781526020018681526020018381526020018581526020018481525090506007876040516135759190614088565b9081526040516020918190038201902080546001810182556000918252908290208351805185946005909402909201926135b492849290910190613647565b5060208281015180516135cd9260018501920190613647565b5060408201516002820155606082015180516135f3916003840191602090910190613647565b506080820151805161360f916004840191602090910190613647565b50505061361b87613255565b612155876040518060400160405280600a815260200169149151d254d51154915160b21b8152506106ba565b828054600181600116156101000203166002900490600052602060002090601f01602090048101928261367d57600085556136c3565b82601f1061369657805160ff19168380011785556136c3565b828001600101855582156136c3579182015b828111156136c35782518255916020019190600101906136a8565b506136cf9291506138c7565b5090565b60405180610160016040528060008152602001600081526020016000815260200160008152602001600081526020016000815260200160008152602001600081526020016000815260200160008152602001600081525090565b6040518060a0016040528060006001600160a01b03168152602001606081526020016060815260200160608152602001600081525090565b6040518060c001604052806000815260200160006001600160a01b0316815260200160006001600160a01b031681526020016060815260200160008152602001600081525090565b604051806080016040528060006001600160a01b0316815260200160608152602001600081526020016000151581525090565b6040518060e0016040528060006001600160a01b031681526020016060815260200160608152602001600081526020016060815260200160008152602001600081525090565b604051806040016040528060608152602001600081525090565b6040518060e001604052806000815260200160006001600160a01b0316815260200160006001600160a01b0316815260200160006001600160a01b031681526020016060815260200160008152602001600081525090565b6040518060a0016040528060608152602001606081526020016000815260200160608152602001606081525090565b5b808211156136cf57600081556001016138c8565b80356001600160a01b038116811461096257600080fd5b600082601f830112613903578081fd5b813567ffffffffffffffff8082111561391857fe5b604051601f8301601f19168101602001828111828210171561393657fe5b60405282815292508284830160200186101561395157600080fd5b8260208601602083013760006020848301015250505092915050565b60006020828403121561397e578081fd5b612da5826138dc565b6000806000806080858703121561399c578283fd5b6139a5856138dc565b93506139b3602086016138dc565b9250604085013567ffffffffffffffff8111156139ce578283fd5b6139da878288016138f3565b949793965093946060013593505050565b6000806000606084860312156139ff578283fd5b613a08846138dc565b9250613a16602085016138dc565b9150604084013590509250925092565b60008060408385031215613a38578182fd5b613a41836138dc565b9150602083013567ffffffffffffffff811115613a5c578182fd5b613a68858286016138f3565b9150509250929050565b600080600060608486031215613a86578283fd5b613a8f846138dc565b9250602084013567ffffffffffffffff811115613aaa578283fd5b613ab6868287016138f3565b925050604084013590509250925092565b60008060408385031215613ad9578182fd5b613ae2836138dc565b946020939093013593505050565b600060208284031215613b01578081fd5b813567ffffffffffffffff811115613b17578182fd5b613b23848285016138f3565b949350505050565b60008060408385031215613b3d578182fd5b823567ffffffffffffffff80821115613b54578384fd5b613b60868387016138f3565b93506020850135915080821115613b75578283fd5b50613a68858286016138f3565b600080600060608486031215613b96578283fd5b833567ffffffffffffffff80821115613bad578485fd5b613bb9878388016138f3565b94506020860135915080821115613bce578384fd5b613bda878388016138f3565b93506040860135915080821115613bef578283fd5b50613bfc868287016138f3565b9150509250925092565b60008060008060008060c08789031215613c1e578182fd5b863567ffffffffffffffff80821115613c35578384fd5b613c418a838b016138f3565b97506020890135915080821115613c56578384fd5b613c628a838b016138f3565b96506040890135915080821115613c77578384fd5b613c838a838b016138f3565b95506060890135915080821115613c98578384fd5b613ca48a838b016138f3565b94506080890135915080821115613cb9578384fd5b50613cc689828a016138f3565b92505060a087013590509295509295509295565b60008060008060008060c08789031215613cf2578182fd5b863567ffffffffffffffff80821115613d09578384fd5b613d158a838b016138f3565b97506020890135915080821115613d2a578384fd5b613d368a838b016138f3565b9650604089013595506060890135915080821115613d52578384fd5b50613d5f89828a016138f3565b9350506080870135915060a087013590509295509295509295565b60008060408385031215613d8c578182fd5b823567ffffffffffffffff811115613da2578283fd5b613dae858286016138f3565b95602094909401359450505050565b60008060008060008060008060006101208a8c031215613ddb578283fd5b893567ffffffffffffffff811115613df1578384fd5b613dfd8c828d016138f3565b9c60208c01359c5060408c01359b60608101359b5060808101359a5060a0810135995060c0810135985060e08101359750610100013595509350505050565b6000806000806000806000806000806101408b8d031215613e5b578384fd5b8a3567ffffffffffffffff811115613e71578485fd5b613e7d8d828e016138f3565b9d60208d01359d5060408d01359c60608101359c5060808101359b5060a08101359a5060c0810135995060e081013598506101008101359750610120013595509350505050565b600060208284031215613ed5578081fd5b5035919050565b60008151808452613ef481602086016020860161465f565b601f01601f19169290920160200192915050565b6000815160408452613f1d6040850182613edc565b602093840151949093019390935250919050565b600060018060a01b038251168352602082015160e06020850152613f5860e0850182613edc565b905060408301518482036040860152613f718282613edc565b9150506060830151606085015260808301518482036080860152613f958282613edc565b91505060a083015160a085015260c083015160c08501528091505092915050565b600060018060a01b038251168352602082015160a06020850152613fdd60a0850182613edc565b905060408301518482036040860152613ff68282613edc565b915050606083015184820360608601526140108282613edc565b915050608083015160808501528091505092915050565b600081518352602082015160018060a01b0380821660208601528060408501511660408601525050606082015160c0606085015261406860c0850182613edc565b90506080830151608085015260a083015160a08501528091505092915050565b6000825161409a81846020870161465f565b9190910192915050565b6001600160a01b0391909116815260200190565b6000602080830181845280855180835260408601915060408482028701019250838701855b8281101561410b57603f198886030184526140f9858351613edc565b945092850192908501906001016140dd565b5092979650505050505050565b60208082528251828201819052600091906040908185019080840286018301878501865b838110156141c457888303603f19018552815180518452878101516001600160a01b0390811689860152878201518116888601526060808301519091169085015260808082015160e0828701819052919061419983880182613edc565b60a0858101519089015260c0948501519490970193909352505050938601939086019060010161413c565b509098975050505050505050565b6000602080830181845280855180835260408601915060408482028701019250838701855b8281101561410b57603f19888603018452614213858351613f08565b945092850192908501906001016141f7565b6000602080830181845280855180835260408601915060408482028701019250838701855b8281101561410b57603f19888603018452614266858351613f31565b9450928501929085019060010161424a565b6000602080830181845280855180835260408601915060408482028701019250838701855b8281101561410b57603f198886030184526142b9858351613fb6565b9450928501929085019060010161429d565b6000602080830181845280855180835260408601915060408482028701019250838701855b8281101561410b57603f1988860301845261430c858351614027565b945092850192908501906001016142f0565b60208082528251828201819052600091906040908185019080840286018301878501865b838110156141c457603f19898403018552815160a0815181865261436882870182613edc565b915050888201518582038a8701526143808282613edc565b9150508782015188860152606080830151868303828801526143a28382613edc565b92505050608080830151925085820381870152506143c08183613edc565b968901969450505090860190600101614342565b901515815260200190565b600060208252612da56020830184613edc565b6020808252600790820152661253959053125160ca1b604082015260600190565b60208082526015908201527410905510d208149154555154d50810d49150551151605a1b604082015260600190565b6060808252600a908201526915d2551211149055d05360b21b60808201526001600160a01b03929092166020830152604082015260a00190565b6020808252600f908201526e125394d551919250d2515395109053608a1b604082015260600190565b60608082526007908201526611115413d4d25560ca1b60808201526001600160a01b03929092166020830152604082015260a00190565b6060808252600890820152672a2920a729a322a960c11b60808201526001600160a01b03929092166020830152604082015260a00190565b6020808252600f908201526e149154555154d50810d49150551151608a1b604082015260600190565b602080825282516001600160a01b0316828201528201516080604083015260009061456b60a0840182613edc565b9050604084015160608401526060840151151560808401528091505092915050565b600061016082019050825182526020830151602083015260408301516040830152606083015160608301526080830151608083015260a083015160a083015260c083015160c083015260e083015160e083015261010080840151818401525061012080840151818401525061014080840151818401525092915050565b600060208252612da56020830184613f08565b600060208252612da56020830184613f31565b600060208252612da56020830184613fb6565b600060208252612da56020830184614027565b90815260200190565b60005b8381101561467a578181015183820152602001614662565b83811115610dac575050600091015256fea264697066735822122084068c27fce2829d561f0a727a38f6a3d5f91cc21b8fd634c5f93f62a12a837164736f6c63430007040033",
  "immutableReferences": {},
  "source": "// \"SPDX-License-Identifier: UNLICENSED\"\n// EVERYTHING EXCEPT TRACKING GOES HERE\npragma solidity >=0.6.2;\npragma experimental ABIEncoderV2;  \n\n  interface PharmaChainInterface {\n         function   strComp(string memory x , string memory y ) external pure returns (bool);\n         event      requestStateUpdate  (address indexed who, uint indexed timestamp , string  state);\n         event      BankTransact        (string txName, address indexed _from , address  _to , uint _amount , uint indexed timestamp);\n    }\n\n\ncontract PharmaChain {\n    \n  \n// CONTRACT CONTENT GOES HERE\n    \n    // UTILS\n    \n    function strComp(string memory x , string memory y ) public pure returns (bool){\n        \n        return (keccak256(abi.encodePacked((x))) == keccak256(abi.encodePacked((y))));\n        \n    }\n    \n    // END OF UTILS\n\n    \n    uint        trackNoCount = 0;\n    address     admin;\n    address     bank;\n    Material[]  materialArr;\n    Product[]   productArr;\n    mapping (address => bool)               participants;\n    mapping (address => Product[])          products;    // manufacturer and product\n    mapping (string => Specs[])             productSpecs; // productID and material \n    mapping (string => uint)                stdMaterialQty; // std mateiral qty used in product (id) unit\n    mapping (string => uint)                actMaterialQty; //  actual material qty used in product (id) unit \n    mapping (string => Product)             productList; // product by id\n    mapping (string => string[])            productPhase; // product id and phases;\n    mapping (address => Material[])         materials;   //Participant(supplier) and material\n    mapping (string => Material)            materialList; // materials by id\n    mapping (address => Request[])          requests;   // participant and requests\n    mapping (uint => Request)               requestList; // requests by id\n    mapping (address => BatchRequest[])     batchRequests; //participant and batch requests\n    mapping (uint => BatchRequest)          batchRequestsList; // request id\n    mapping (string => Cost)                standardProductCosts;\n    mapping (string => Cost)                actualProductCosts;\n    mapping (string => Cost)                flexibleProductCosts;\n    mapping (string => uint)                standardBudgetUnits;\n    mapping (string => uint)                actualBudgetUnits;\n    mapping (string => uint)                flexibleBudgetUnits;\n    mapping (uint => uint)                  requestCost;    // requestId and Cost\n    mapping (address => InventoryItem[])    inventory;   // participant and items inventory\n    mapping (string => InventoryItem)       inventoryList;   // inventory item by item id\n    mapping (address => mapping (address => BankAccount) ) userBankAccounts; // bankAddr -> userAddr -> userAcc\n    event   requestStateUpdate  (address indexed who, uint indexed timestamp , string  state);\n    event   BankTransact        (string txName, address indexed _from , address  _to , uint _amount , uint indexed timestamp);\n    \n    struct BankAccount {\n    \n        address userId;\n        string  userName;\n        uint    userBalance;\n        bool    isActive;\n    }\n    \n    struct Product {\n        \n        address manufacturer;\n        string  productId; //registration no.\n        string  productName;\n        string  productForm; // tablets or capsules\n        uint    productBudget;\n        \n    }\n    \n    struct Material {\n        address supplier;\n        string  materialID;\n        string  materialName;\n        uint    materialStrength;\n        string  materialForm;\n        uint    createdAmount;\n        uint    unitCost;\n    }\n    \n    \n    struct Specs {\n        string  materialName;\n        string  materialType;\n        uint    materialAmount;\n        string  materialStrength;\n        string  materialForm;\n        \n    }\n\n    struct Request {\n        uint    requestId;\n        address fromParti;\n        address toParti;\n        string  materialID;\n        uint    amount;\n        uint    issueTime;\n    }\n    \n    struct BatchRequest {\n        uint    requestId;\n        address fromParti1;\n        address fromParti2;\n        address toParti;\n        string  materialID;\n        uint    amount;\n        uint    issueTime;\n    }\n    \n    // Cost Per Product Unit \n    struct Cost {\n        uint directMaterialCost;\n        uint packagingMaterialCost;\n        uint materialCostPerUnit; // cost per unit material\n        uint marketingCost;\n        uint researchCost;\n        uint directLaborCost;\n        uint ratePerWorkHr; // rate per work hour\n        uint workHrs;       // no of work hours\n        uint totalIndirectCost; // indirect manufacturing costs\n        uint totalDirectCost;\n        uint CostTOT; // direct material + direct labor + total indirect\n    }\n    \n    \n    struct Location {\n        string Latitude;\n        string Longitude;\n    }\n    \n    struct InventoryItem {\n      string itemId;\n      uint   amount;\n    }\n    \n    // FUNCTIONS\n    \n    function emitRequestStateEvent(string memory _state) public {\n         emit requestStateUpdate(msg.sender, block.timestamp , _state);\n    }\n    // MANUFACTURING STUFF GOES HERE\n    \n    function addProduct(\n    \n    string memory _id,\n    string memory _name,\n    string memory _pForm\n    \n    ) public {\n        \n        Product memory pro = Product({\n            productId: _id,\n            productName: _name,\n            productForm: _pForm,\n            productBudget: 0,\n            manufacturer: msg.sender\n        });\n        \n        products[msg.sender].push(pro);\n        productList[_id] = pro;\n        productArr.push(pro);\n        setProductPhase(_id, 'UNDER-RESEARCH');\n    \n        \n    }\n    \n    function addProductSpecs(\n    \n    string memory _productID,\n    string memory _name,\n    string memory _type,\n    string memory _strength,\n    string memory _form,\n    uint          _amount\n    \n    ) public {\n    \n        Specs memory spec = Specs({\n            materialName: _name,\n            materialType: _type,\n            materialForm: _form,\n            materialAmount: _amount,\n            materialStrength: _strength\n            \n        });      \n        \n        productSpecs[_productID].push(spec);\n        setStdMaterialQty(_productID);\n        setProductPhase(_productID , 'REGISTERED');\n        \n    }\n    \n      \n    function getProductsByManu(address _manufacturer) public view returns(Product[] memory) {\n        return products[_manufacturer];\n    }\n    \n    function getProducts() public view returns(Product[] memory) {\n        return productArr;\n    }\n    \n    function getProductById(string memory _id) public view returns(Product memory) {\n        return productList[_id];\n    }\n    \n    function getProductSpecs(string memory _product) public view returns(Specs[] memory) {\n        return productSpecs[_product];\n    }\n    \n    function setProductPhase(string memory _product , string memory _phase) public {\n        productPhase[_product].push(_phase);\n    }\n    \n    function getProductPhase(string memory _product) public view returns (string[] memory phases) {\n       return productPhase[_product];\n    }\n    \n    // END OF MANUFACTURING STUFF\n    // COST ACCOUNTING STUFF GOES HERE\n    \n    function setStdCostPlan(\n    \n    string  memory _product,\n    uint    _unitsNo,\n    uint    _unitMaterialCost,\n    uint    _pkgMatCost,\n    uint    _ratePerHr,\n    uint    _workHrsNo,\n    uint    _totIndirectCosts,\n    uint    _mrkCost,\n    uint    _rsrchCost,\n    uint    _productBudget\n    \n        ) public {\n    \n    // uint directTotal =  _directMatCost + _pkgMatCost +  _directLaborCost;\n    uint matAmount = getStdMaterialQty(_product);\n    // uint total = _directMatCost + _pkgMatCost +  _directLaborCost + _totIndirectCosts + _mrkCost  + _rsrchCost;\n    Cost memory stdCosts = Cost({\n        directMaterialCost: matAmount * _unitMaterialCost,\n        ratePerWorkHr: _ratePerHr,\n        materialCostPerUnit: _unitMaterialCost,\n        workHrs: _workHrsNo,\n        directLaborCost: _ratePerHr * _workHrsNo,\n        totalIndirectCost: _totIndirectCosts,\n        totalDirectCost: 0,\n        packagingMaterialCost: _pkgMatCost,\n        marketingCost: _mrkCost,\n        researchCost: _rsrchCost,\n        CostTOT: 0\n       \n    });\n    \n    standardProductCosts[_product] = stdCosts;\n    standardBudgetUnits[_product] = _unitsNo;\n    setProductBudget(_product, _productBudget);\n    }\n    \n    function setProductBudget(string memory _product, uint _budget) public {\n        if(strComp(_product, products[msg.sender][0].productId)) {\n            products[msg.sender][0].productBudget = _budget;\n            productList[_product].productBudget = _budget;\n        }\n       \n    }\n    \n    function setStdMaterialQty(string memory _product) public {\n        stdMaterialQty[_product] = productSpecs[_product][0].materialAmount;\n    }\n    \n    \n    function getStdCostPlan(string memory _product) public view returns(Cost memory) {\n        return standardProductCosts[_product];\n    }\n    \n    function getStdBudgetUnits(string memory _product) public view returns (uint units ) {\n        return standardBudgetUnits[_product];\n    }\n    \n    function getStdMaterialQty(string memory _product) public view returns (uint) {\n        return stdMaterialQty[_product];\n    }\n    \n    function setActualCost(\n    \n    string memory _product,\n    uint _unitsNo,\n    uint _actualPkgMatCost,\n    uint _unitMaterialCost,\n    uint _actualRatePerHr,\n    uint _actualWorkHrsNo,\n    uint _actualIndirectCost,\n    uint _actualMrkCost,\n    uint _actualRsrchCost\n    \n    ) public {\n         uint matAmount = getActualMaterialQty(_product);\n        // uint actDirectTotal =  _actualMatCost + _actualPkgMatCost + _actualLaborCost;\n        // uint actTotal =  _actualMatCost + _actualPkgMatCost + _actualLaborCost + _actualIndirectCost + _actualMrkCost + _actualRsrchCost;\n        Cost memory actualCosts = Cost({\n            directMaterialCost: matAmount * _unitMaterialCost,\n            packagingMaterialCost: _actualPkgMatCost,\n            materialCostPerUnit: _unitMaterialCost,\n            totalDirectCost: 0,\n            ratePerWorkHr: _actualRatePerHr,\n            workHrs: _actualWorkHrsNo,\n            marketingCost: _actualMrkCost,\n            researchCost: _actualRsrchCost,\n            directLaborCost: _actualRatePerHr * _actualWorkHrsNo,\n            totalIndirectCost: _actualIndirectCost,\n            CostTOT: 0\n        });\n        \n        actualProductCosts[_product] = actualCosts;\n        actualBudgetUnits[_product] = _unitsNo;\n        setProductPhase(_product, 'PRODUCTION-READY');\n    }\n    \n    \n    function getActualCost(string memory _product) public view returns(Cost memory) {\n        \n        return actualProductCosts[_product];\n    }\n    \n    function setActualMaterialQty (string memory _product , uint _amount) public {\n        actMaterialQty[_product] = _amount;\n    }\n    \n    function getActualMaterialQty (string memory _product) public view returns (uint) {\n        return actMaterialQty[_product];\n    }\n    \n    function getActualBudgetUnits(string memory _product) public view returns(uint units ) {\n        return actualBudgetUnits[_product];\n    }\n    \n    function setFlexibleCosts(\n    string memory _product,\n    uint _unitsNo,\n    uint _pkgUnitCost,\n    uint _unitMaterialCost,\n    uint _ratePerHr,\n    uint _workHrsNo,\n    uint _indirectManuUnitCost,\n    uint _flexibleMrkCost,\n    uint _flexibleRsrchCost)\n    public {\n        \n         uint matAmount = getStdMaterialQty(_product);\n        // uint directTotal =  _matUnitCost + _pkgUnitCost +  _laborUnitCost;\n        // uint total = _matUnitCost + _pkgUnitCost +  _laborUnitCost + _indirectManuUnitCost + _flexibleMrkCost  + _flexibleRsrchCost;\n        Cost memory flex = Cost ({\n            directMaterialCost: matAmount * _unitMaterialCost,\n            packagingMaterialCost: _pkgUnitCost,\n            totalDirectCost: 0,\n            ratePerWorkHr: _ratePerHr,\n            workHrs: _workHrsNo,\n            materialCostPerUnit: _unitMaterialCost,\n            marketingCost: _flexibleMrkCost,\n            researchCost: _flexibleRsrchCost,\n            directLaborCost:  _ratePerHr * _workHrsNo,\n            totalIndirectCost: _indirectManuUnitCost,\n            CostTOT: 0\n        });\n        \n        flexibleProductCosts[_product] = flex;\n        flexibleBudgetUnits[_product] = _unitsNo;\n        \n    }\n    \n    function getFlexibleCosts(string memory _product) public view returns (Cost memory) {\n        return flexibleProductCosts[_product];\n    }\n    \n    function getFlexibleBudgetUnits(string memory _product) public view returns(uint units) {\n        return flexibleBudgetUnits[_product];\n    }\n    \n    // END OF  COST ACCOUNTING STUF\n    // SUPPLYING STUFF GOES HERE\n    \n    // Creation of Material By Supplier\n    \n    function createMaterial(\n    \n    string memory _id,\n    string memory _name,\n    uint          _str,\n    string memory _form,\n    uint          _amount,\n    uint          _unitCost\n    \n    ) public {\n        \n        Material memory mat = Material({\n           supplier: msg.sender,\n           materialID:   _id,\n           materialName: _name,\n           materialForm: _form,\n           materialStrength: _str,\n           createdAmount: _amount,\n           unitCost:      _unitCost\n        });\n\n        materials[msg.sender].push(mat);\n        materialList[_id] = mat;\n        materialArr.push(mat);\n        addToInventory(msg.sender, _id , _amount);\n        \n    }\n    \n    \n    function getMaterialsBySupplier(address _supplier) public view returns(Material[] memory ) {\n        return materials[_supplier];\n    }\n    \n    \n    // Materials to filter through\n    \n    function getMaterials() public view returns(Material[] memory) {\n        return materialArr;\n    }\n    \n    function getMaterialById (string memory _materialId) public view returns(Material memory) {\n        return materialList[_materialId];\n    }\n    \n\n    function createRequest(\n    \n    address _to ,\n    string memory _materialId,\n    uint _amount \n    )\n    public {\n        trackNoCount += 1;\n        Request memory req = Request({\n           requestId: trackNoCount,\n           fromParti: msg.sender,\n           toParti: _to,\n           materialID : _materialId,\n           amount: _amount,\n           issueTime: block.timestamp\n        });\n        \n        requestCost[req.requestId] = req.amount * materialList[_materialId].unitCost; \n        requests[msg.sender].push(req);\n        requestList[req.requestId] = req;\n        emit requestStateUpdate(msg.sender, block.timestamp , 'REQUEST CREATED');\n    }\n    \n    function createBatchRequest(\n    address _fromParti2,\n    address _to,\n    string memory _materialId,\n    uint _amount\n    ) \n    public {\n        trackNoCount += 1;\n        BatchRequest memory batchReq = BatchRequest({\n            requestId: trackNoCount,\n            fromParti1: msg.sender,\n            fromParti2: _fromParti2,\n            toParti: _to,\n            materialID: _materialId,\n            amount: _amount,\n            issueTime: block.timestamp\n        });\n        \n        requestCost[batchReq.requestId] = batchReq.amount * materialList[_materialId].unitCost;\n        batchRequestsList[batchReq.requestId] = batchReq;\n        batchRequests[msg.sender].push(batchReq);\n        emit requestStateUpdate(msg.sender, block.timestamp , 'BATCH REQUEST CREATED');\n        \n    }\n    \n    function getRequestCost(uint _id) public view returns(uint) {\n        return requestCost[_id];\n    }\n    \n    function getMyRequests() public view returns (Request[] memory) {\n        \n        return requests[msg.sender];\n    }\n    \n    function getMyBatchRequests() public view returns (BatchRequest[] memory) {\n        return batchRequests[msg.sender];\n    }\n    \n    function getRequestById(uint _id) public view returns (Request memory) {\n        return requestList[_id];\n    }\n    \n    function addToInventory(address _participant , string memory _item , uint _amount) public {\n        InventoryItem memory itm = InventoryItem({\n            itemId: _item,\n            amount: _amount\n        });\n        \n        inventory[_participant].push(itm);\n        inventoryList[_item] = itm;\n    }\n    \n    function updateInventory(address _participant , string memory _item , uint _amount) public {\n        \n        if(strComp(_item, inventory[_participant][0].itemId) ) {\n            inventory[_participant][0].amount = _amount;\n            inventoryList[_item].amount = _amount;\n            \n        }\n    }\n    \n    function getInventory(address _participant) public view returns (InventoryItem[] memory) {\n        return inventory[_participant];\n    }\n    \n    function getInventoryItemById(string memory _item) public view returns (InventoryItem memory) {\n        return inventoryList[_item];\n    }\n    \n    // END OF SUPPLYING STUFF\n    // BANKING STUFF GOES HERE\n    \n    function setAsBank(address _addr) public {\n        bank = _addr;\n        \n    }\n    \n    function getBank() public view returns (address) {\n        return bank;\n    }\n    \n    function createBankAccount(address _userAddr, string memory _userName) public {\n        \n        BankAccount memory account = BankAccount({\n            \n            userId:  _userAddr,\n            userName: _userName,\n            userBalance: 0,\n            isActive: true\n            \n        });\n        \n        userBankAccounts[bank][_userAddr] = account;\n        \n    }\n    \n    function hasBankAccount(address _userAddr) public view returns (bool) {\n        if (userBankAccounts[bank][_userAddr].isActive != false) {\n            return true;\n        }\n        else {\n            return false;\n        }\n    }\n    \n    function deposit (address _userAddr, uint _amount) public returns (bool) {\n        \n        require (_amount > 0, 'INVALID');\n        if ( userBankAccounts[bank][_userAddr].userId == _userAddr) {\n            uint balance = userBankAccounts[bank][_userAddr].userBalance;\n            balance += _amount;\n            userBankAccounts[bank][_userAddr].userBalance = balance;\n            emit BankTransact ('DEPOSIT', _userAddr , _userAddr , _amount , block.timestamp);\n            return true;\n        }\n        else {\n            return false;\n        }\n        \n    }\n    \n    function withdraw (address _userAddr, uint _amount) public returns (bool) {\n        \n        require(userBankAccounts[bank][_userAddr].userBalance > _amount , 'INSUFFICIENTBAL' );\n        if (userBankAccounts[bank][_userAddr].userId == _userAddr) {\n            \n            uint balance = userBankAccounts[bank][_userAddr].userBalance;\n            balance -= _amount;\n            userBankAccounts[bank][_userAddr].userBalance = balance;\n            emit BankTransact ('WITHDRAWAL', _userAddr , _userAddr , _amount , block.timestamp);\n            return true;\n        }\n        else {\n            return false;\n        }\n    }\n\n    function getBalance (address _userAddr) public view returns (uint x) {\n        \n         if (userBankAccounts[bank][_userAddr].userId == _userAddr) {\n             uint balance = userBankAccounts[bank][_userAddr].userBalance;\n             return balance;\n        }\n    }\n\n    \n    function transfer (address _from, address _to , uint _amount) public returns (bool) {\n        \n         require(userBankAccounts[bank][_from].userBalance >= _amount ,\n         'INSUFFICIENTBAL' );\n         \n        if (userBankAccounts[bank][_from].userId == _from && userBankAccounts[bank][_to].isActive == true) {\n            \n            uint fromBalance = userBankAccounts[bank][_from].userBalance;\n            uint toBalance = userBankAccounts[bank][_to].userBalance;\n            fromBalance -= _amount;\n            toBalance += _amount;\n            userBankAccounts[bank][_from].userBalance = fromBalance;\n            userBankAccounts[bank][_to].userBalance = toBalance;\n            emit BankTransact ('TRANSFER', _from , _to , _amount , block.timestamp);\n            return true;\n        }\n        else {\n            return false;\n        }\n        \n    }\n    \n    function getAccountDetails(address _account) public view returns (BankAccount memory) {\n        return userBankAccounts[bank][_account];\n    }\n    \n    \n    // END OF BANKING STUFF\n// END OF CONTRACT\n\n}",
  "sourcePath": "/home/mohamedkaram/Documents/Demo-sandbox/contracts/PharmaChain.sol",
  "compiler": {
    "name": "solc",
    "version": "0.7.4+commit.3f05b770.Emscripten.clang"
  },
  "schemaVersion": "3.3.3",
  "updatedAt": "2021-04-16T23:41:49.685Z",
  "networkType": "ethereum",
  "devdoc": {
    "kind": "dev",
    "methods": {},
    "version": 1
  },
  "userdoc": {
    "kind": "user",
    "methods": {},
    "version": 1
  }
}