{
  "contractName": "PharmaChain",
  "abi": [
    {
      "anonymous": false,
      "inputs": [
        {
          "indexed": false,
          "internalType": "string",
          "name": "txName",
          "type": "string"
        },
        {
          "indexed": true,
          "internalType": "address",
          "name": "_from",
          "type": "address"
        },
        {
          "indexed": false,
          "internalType": "address",
          "name": "_to",
          "type": "address"
        },
        {
          "indexed": false,
          "internalType": "uint256",
          "name": "_amount",
          "type": "uint256"
        },
        {
          "indexed": true,
          "internalType": "uint256",
          "name": "timestamp",
          "type": "uint256"
        }
      ],
      "name": "BankTransact",
      "type": "event"
    },
    {
      "anonymous": false,
      "inputs": [
        {
          "indexed": true,
          "internalType": "address",
          "name": "who",
          "type": "address"
        },
        {
          "indexed": true,
          "internalType": "uint256",
          "name": "timestamp",
          "type": "uint256"
        },
        {
          "indexed": false,
          "internalType": "string",
          "name": "state",
          "type": "string"
        }
      ],
      "name": "requestStateUpdate",
      "type": "event"
    },
    {
      "inputs": [
        {
          "internalType": "string",
          "name": "x",
          "type": "string"
        },
        {
          "internalType": "string",
          "name": "y",
          "type": "string"
        }
      ],
      "name": "strComp",
      "outputs": [
        {
          "internalType": "bool",
          "name": "",
          "type": "bool"
        }
      ],
      "stateMutability": "pure",
      "type": "function",
      "constant": true
    },
    {
      "inputs": [
        {
          "internalType": "string",
          "name": "_state",
          "type": "string"
        }
      ],
      "name": "emitRequestStateEvent",
      "outputs": [],
      "stateMutability": "nonpayable",
      "type": "function"
    },
    {
      "inputs": [
        {
          "internalType": "string",
          "name": "_id",
          "type": "string"
        },
        {
          "internalType": "string",
          "name": "_name",
          "type": "string"
        },
        {
          "internalType": "string",
          "name": "_pForm",
          "type": "string"
        }
      ],
      "name": "addProduct",
      "outputs": [],
      "stateMutability": "nonpayable",
      "type": "function"
    },
    {
      "inputs": [
        {
          "internalType": "string",
          "name": "_productID",
          "type": "string"
        },
        {
          "internalType": "string",
          "name": "_name",
          "type": "string"
        },
        {
          "internalType": "string",
          "name": "_type",
          "type": "string"
        },
        {
          "internalType": "string",
          "name": "_strength",
          "type": "string"
        },
        {
          "internalType": "string",
          "name": "_form",
          "type": "string"
        },
        {
          "internalType": "uint256",
          "name": "_amount",
          "type": "uint256"
        }
      ],
      "name": "addProductSpecs",
      "outputs": [],
      "stateMutability": "nonpayable",
      "type": "function"
    },
    {
      "inputs": [
        {
          "internalType": "address",
          "name": "_manufacturer",
          "type": "address"
        }
      ],
      "name": "getProductsByManu",
      "outputs": [
        {
          "components": [
            {
              "internalType": "address",
              "name": "manufacturer",
              "type": "address"
            },
            {
              "internalType": "string",
              "name": "productId",
              "type": "string"
            },
            {
              "internalType": "string",
              "name": "productName",
              "type": "string"
            },
            {
              "internalType": "string",
              "name": "productForm",
              "type": "string"
            }
          ],
          "internalType": "struct PharmaChain.Product[]",
          "name": "",
          "type": "tuple[]"
        }
      ],
      "stateMutability": "view",
      "type": "function",
      "constant": true
    },
    {
      "inputs": [],
      "name": "getProducts",
      "outputs": [
        {
          "components": [
            {
              "internalType": "address",
              "name": "manufacturer",
              "type": "address"
            },
            {
              "internalType": "string",
              "name": "productId",
              "type": "string"
            },
            {
              "internalType": "string",
              "name": "productName",
              "type": "string"
            },
            {
              "internalType": "string",
              "name": "productForm",
              "type": "string"
            }
          ],
          "internalType": "struct PharmaChain.Product[]",
          "name": "",
          "type": "tuple[]"
        }
      ],
      "stateMutability": "view",
      "type": "function",
      "constant": true
    },
    {
      "inputs": [
        {
          "internalType": "string",
          "name": "_id",
          "type": "string"
        }
      ],
      "name": "getProductById",
      "outputs": [
        {
          "components": [
            {
              "internalType": "address",
              "name": "manufacturer",
              "type": "address"
            },
            {
              "internalType": "string",
              "name": "productId",
              "type": "string"
            },
            {
              "internalType": "string",
              "name": "productName",
              "type": "string"
            },
            {
              "internalType": "string",
              "name": "productForm",
              "type": "string"
            }
          ],
          "internalType": "struct PharmaChain.Product",
          "name": "",
          "type": "tuple"
        }
      ],
      "stateMutability": "view",
      "type": "function",
      "constant": true
    },
    {
      "inputs": [
        {
          "internalType": "string",
          "name": "_product",
          "type": "string"
        }
      ],
      "name": "getProductSpecs",
      "outputs": [
        {
          "components": [
            {
              "internalType": "string",
              "name": "materialName",
              "type": "string"
            },
            {
              "internalType": "string",
              "name": "materialType",
              "type": "string"
            },
            {
              "internalType": "uint256",
              "name": "materialAmount",
              "type": "uint256"
            },
            {
              "internalType": "string",
              "name": "materialStrength",
              "type": "string"
            },
            {
              "internalType": "string",
              "name": "materialForm",
              "type": "string"
            }
          ],
          "internalType": "struct PharmaChain.Specs[]",
          "name": "",
          "type": "tuple[]"
        }
      ],
      "stateMutability": "view",
      "type": "function",
      "constant": true
    },
    {
      "inputs": [
        {
          "internalType": "string",
          "name": "_product",
          "type": "string"
        },
        {
          "internalType": "string",
          "name": "_phase",
          "type": "string"
        }
      ],
      "name": "setProductPhase",
      "outputs": [],
      "stateMutability": "nonpayable",
      "type": "function"
    },
    {
      "inputs": [
        {
          "internalType": "string",
          "name": "_product",
          "type": "string"
        }
      ],
      "name": "getProductPhase",
      "outputs": [
        {
          "internalType": "string[]",
          "name": "phases",
          "type": "string[]"
        }
      ],
      "stateMutability": "view",
      "type": "function",
      "constant": true
    },
    {
      "inputs": [
        {
          "internalType": "string",
          "name": "_product",
          "type": "string"
        },
        {
          "internalType": "uint256",
          "name": "_unitsNo",
          "type": "uint256"
        },
        {
          "internalType": "uint256",
          "name": "_pkgMatCost",
          "type": "uint256"
        },
        {
          "internalType": "uint256",
          "name": "_unitMaterialCost",
          "type": "uint256"
        },
        {
          "internalType": "uint256",
          "name": "_unitPkgCost",
          "type": "uint256"
        },
        {
          "internalType": "uint256",
          "name": "_ratePerHr",
          "type": "uint256"
        },
        {
          "internalType": "uint256",
          "name": "_workHrsNo",
          "type": "uint256"
        },
        {
          "internalType": "uint256",
          "name": "_mrkCost",
          "type": "uint256"
        },
        {
          "internalType": "uint256",
          "name": "_rsrchCost",
          "type": "uint256"
        },
        {
          "internalType": "uint256",
          "name": "_shipCost",
          "type": "uint256"
        }
      ],
      "name": "setStdCostPlan",
      "outputs": [],
      "stateMutability": "nonpayable",
      "type": "function"
    },
    {
      "inputs": [
        {
          "internalType": "string",
          "name": "_product",
          "type": "string"
        }
      ],
      "name": "setStdMaterialQty",
      "outputs": [],
      "stateMutability": "nonpayable",
      "type": "function"
    },
    {
      "inputs": [
        {
          "internalType": "string",
          "name": "_product",
          "type": "string"
        }
      ],
      "name": "getStdCostPlan",
      "outputs": [
        {
          "components": [
            {
              "internalType": "uint256",
              "name": "directMaterialCost",
              "type": "uint256"
            },
            {
              "internalType": "uint256",
              "name": "packagingMaterialCost",
              "type": "uint256"
            },
            {
              "internalType": "uint256",
              "name": "materialCostPerUnit",
              "type": "uint256"
            },
            {
              "internalType": "uint256",
              "name": "pkgCostPerUnit",
              "type": "uint256"
            },
            {
              "internalType": "uint256",
              "name": "marketingCost",
              "type": "uint256"
            },
            {
              "internalType": "uint256",
              "name": "researchCost",
              "type": "uint256"
            },
            {
              "internalType": "uint256",
              "name": "directLaborCost",
              "type": "uint256"
            },
            {
              "internalType": "uint256",
              "name": "ratePerWorkHr",
              "type": "uint256"
            },
            {
              "internalType": "uint256",
              "name": "workHrs",
              "type": "uint256"
            },
            {
              "internalType": "uint256",
              "name": "totalDirectCost",
              "type": "uint256"
            },
            {
              "internalType": "uint256",
              "name": "CostTOT",
              "type": "uint256"
            },
            {
              "internalType": "uint256",
              "name": "shippingCost",
              "type": "uint256"
            }
          ],
          "internalType": "struct PharmaChain.Cost",
          "name": "",
          "type": "tuple"
        }
      ],
      "stateMutability": "view",
      "type": "function",
      "constant": true
    },
    {
      "inputs": [
        {
          "internalType": "string",
          "name": "_product",
          "type": "string"
        }
      ],
      "name": "getStdBudgetUnits",
      "outputs": [
        {
          "internalType": "uint256",
          "name": "units",
          "type": "uint256"
        }
      ],
      "stateMutability": "view",
      "type": "function",
      "constant": true
    },
    {
      "inputs": [
        {
          "internalType": "string",
          "name": "_product",
          "type": "string"
        }
      ],
      "name": "getStdMaterialQty",
      "outputs": [
        {
          "internalType": "uint256",
          "name": "",
          "type": "uint256"
        }
      ],
      "stateMutability": "view",
      "type": "function",
      "constant": true
    },
    {
      "inputs": [
        {
          "internalType": "string",
          "name": "_product",
          "type": "string"
        },
        {
          "internalType": "uint256",
          "name": "_unitsNo",
          "type": "uint256"
        },
        {
          "internalType": "uint256",
          "name": "_actualPkgMatCost",
          "type": "uint256"
        },
        {
          "internalType": "uint256",
          "name": "_unitMaterialCost",
          "type": "uint256"
        },
        {
          "internalType": "uint256",
          "name": "_actualRatePerHr",
          "type": "uint256"
        },
        {
          "internalType": "uint256",
          "name": "_actualPkgUnitCost",
          "type": "uint256"
        },
        {
          "internalType": "uint256",
          "name": "_actualWorkHrsNo",
          "type": "uint256"
        },
        {
          "internalType": "uint256",
          "name": "_actualMrkCost",
          "type": "uint256"
        },
        {
          "internalType": "uint256",
          "name": "_actualRsrchCost",
          "type": "uint256"
        },
        {
          "internalType": "uint256",
          "name": "_actualMatQty",
          "type": "uint256"
        },
        {
          "internalType": "uint256",
          "name": "_actualShipCost",
          "type": "uint256"
        }
      ],
      "name": "setActualCost",
      "outputs": [],
      "stateMutability": "nonpayable",
      "type": "function"
    },
    {
      "inputs": [
        {
          "internalType": "string",
          "name": "_product",
          "type": "string"
        }
      ],
      "name": "getActualCost",
      "outputs": [
        {
          "components": [
            {
              "internalType": "uint256",
              "name": "directMaterialCost",
              "type": "uint256"
            },
            {
              "internalType": "uint256",
              "name": "packagingMaterialCost",
              "type": "uint256"
            },
            {
              "internalType": "uint256",
              "name": "materialCostPerUnit",
              "type": "uint256"
            },
            {
              "internalType": "uint256",
              "name": "pkgCostPerUnit",
              "type": "uint256"
            },
            {
              "internalType": "uint256",
              "name": "marketingCost",
              "type": "uint256"
            },
            {
              "internalType": "uint256",
              "name": "researchCost",
              "type": "uint256"
            },
            {
              "internalType": "uint256",
              "name": "directLaborCost",
              "type": "uint256"
            },
            {
              "internalType": "uint256",
              "name": "ratePerWorkHr",
              "type": "uint256"
            },
            {
              "internalType": "uint256",
              "name": "workHrs",
              "type": "uint256"
            },
            {
              "internalType": "uint256",
              "name": "totalDirectCost",
              "type": "uint256"
            },
            {
              "internalType": "uint256",
              "name": "CostTOT",
              "type": "uint256"
            },
            {
              "internalType": "uint256",
              "name": "shippingCost",
              "type": "uint256"
            }
          ],
          "internalType": "struct PharmaChain.Cost",
          "name": "",
          "type": "tuple"
        }
      ],
      "stateMutability": "view",
      "type": "function",
      "constant": true
    },
    {
      "inputs": [
        {
          "internalType": "string",
          "name": "_product",
          "type": "string"
        },
        {
          "internalType": "uint256",
          "name": "_amount",
          "type": "uint256"
        }
      ],
      "name": "setActualMaterialQty",
      "outputs": [],
      "stateMutability": "nonpayable",
      "type": "function"
    },
    {
      "inputs": [
        {
          "internalType": "string",
          "name": "_product",
          "type": "string"
        }
      ],
      "name": "getActualMaterialQty",
      "outputs": [
        {
          "internalType": "uint256",
          "name": "",
          "type": "uint256"
        }
      ],
      "stateMutability": "view",
      "type": "function",
      "constant": true
    },
    {
      "inputs": [
        {
          "internalType": "string",
          "name": "_product",
          "type": "string"
        }
      ],
      "name": "getActualBudgetUnits",
      "outputs": [
        {
          "internalType": "uint256",
          "name": "units",
          "type": "uint256"
        }
      ],
      "stateMutability": "view",
      "type": "function",
      "constant": true
    },
    {
      "inputs": [
        {
          "internalType": "string",
          "name": "_product",
          "type": "string"
        },
        {
          "internalType": "uint256",
          "name": "_unitsNo",
          "type": "uint256"
        },
        {
          "internalType": "uint256",
          "name": "_pkgUnitCost",
          "type": "uint256"
        },
        {
          "internalType": "uint256",
          "name": "_unitMaterialCost",
          "type": "uint256"
        },
        {
          "internalType": "uint256",
          "name": "_unitPkgCost",
          "type": "uint256"
        },
        {
          "internalType": "uint256",
          "name": "_ratePerHr",
          "type": "uint256"
        },
        {
          "internalType": "uint256",
          "name": "_workHrsNo",
          "type": "uint256"
        },
        {
          "internalType": "uint256",
          "name": "_flexibleMrkCost",
          "type": "uint256"
        },
        {
          "internalType": "uint256",
          "name": "_flexibleRsrchCost",
          "type": "uint256"
        },
        {
          "internalType": "uint256",
          "name": "_flexibleShipCost",
          "type": "uint256"
        }
      ],
      "name": "setFlexibleCosts",
      "outputs": [],
      "stateMutability": "nonpayable",
      "type": "function"
    },
    {
      "inputs": [
        {
          "internalType": "string",
          "name": "_product",
          "type": "string"
        }
      ],
      "name": "getFlexibleCosts",
      "outputs": [
        {
          "components": [
            {
              "internalType": "uint256",
              "name": "directMaterialCost",
              "type": "uint256"
            },
            {
              "internalType": "uint256",
              "name": "packagingMaterialCost",
              "type": "uint256"
            },
            {
              "internalType": "uint256",
              "name": "materialCostPerUnit",
              "type": "uint256"
            },
            {
              "internalType": "uint256",
              "name": "pkgCostPerUnit",
              "type": "uint256"
            },
            {
              "internalType": "uint256",
              "name": "marketingCost",
              "type": "uint256"
            },
            {
              "internalType": "uint256",
              "name": "researchCost",
              "type": "uint256"
            },
            {
              "internalType": "uint256",
              "name": "directLaborCost",
              "type": "uint256"
            },
            {
              "internalType": "uint256",
              "name": "ratePerWorkHr",
              "type": "uint256"
            },
            {
              "internalType": "uint256",
              "name": "workHrs",
              "type": "uint256"
            },
            {
              "internalType": "uint256",
              "name": "totalDirectCost",
              "type": "uint256"
            },
            {
              "internalType": "uint256",
              "name": "CostTOT",
              "type": "uint256"
            },
            {
              "internalType": "uint256",
              "name": "shippingCost",
              "type": "uint256"
            }
          ],
          "internalType": "struct PharmaChain.Cost",
          "name": "",
          "type": "tuple"
        }
      ],
      "stateMutability": "view",
      "type": "function",
      "constant": true
    },
    {
      "inputs": [
        {
          "internalType": "string",
          "name": "_product",
          "type": "string"
        }
      ],
      "name": "getFlexibleBudgetUnits",
      "outputs": [
        {
          "internalType": "uint256",
          "name": "units",
          "type": "uint256"
        }
      ],
      "stateMutability": "view",
      "type": "function",
      "constant": true
    },
    {
      "inputs": [
        {
          "internalType": "string",
          "name": "_id",
          "type": "string"
        },
        {
          "internalType": "string",
          "name": "_name",
          "type": "string"
        },
        {
          "internalType": "uint256",
          "name": "_str",
          "type": "uint256"
        },
        {
          "internalType": "string",
          "name": "_form",
          "type": "string"
        },
        {
          "internalType": "uint256",
          "name": "_amount",
          "type": "uint256"
        },
        {
          "internalType": "uint256",
          "name": "_unitCost",
          "type": "uint256"
        },
        {
          "internalType": "string",
          "name": "_storageConditions",
          "type": "string"
        },
        {
          "internalType": "bool",
          "name": "_stability",
          "type": "bool"
        },
        {
          "internalType": "uint256",
          "name": "_stabilityPeriod",
          "type": "uint256"
        }
      ],
      "name": "createMaterial",
      "outputs": [],
      "stateMutability": "nonpayable",
      "type": "function"
    },
    {
      "inputs": [
        {
          "internalType": "address",
          "name": "_supplier",
          "type": "address"
        }
      ],
      "name": "getMaterialsBySupplier",
      "outputs": [
        {
          "components": [
            {
              "internalType": "address",
              "name": "supplier",
              "type": "address"
            },
            {
              "internalType": "string",
              "name": "materialID",
              "type": "string"
            },
            {
              "internalType": "string",
              "name": "materialName",
              "type": "string"
            },
            {
              "internalType": "uint256",
              "name": "materialStrength",
              "type": "uint256"
            },
            {
              "internalType": "string",
              "name": "materialForm",
              "type": "string"
            },
            {
              "internalType": "uint256",
              "name": "createdAmount",
              "type": "uint256"
            },
            {
              "internalType": "uint256",
              "name": "unitCost",
              "type": "uint256"
            },
            {
              "internalType": "string",
              "name": "storageConditions",
              "type": "string"
            },
            {
              "internalType": "bool",
              "name": "materialStability",
              "type": "bool"
            },
            {
              "internalType": "uint256",
              "name": "materialManuDate",
              "type": "uint256"
            },
            {
              "internalType": "uint256",
              "name": "materialStabilityPeriod",
              "type": "uint256"
            }
          ],
          "internalType": "struct PharmaChain.Material[]",
          "name": "",
          "type": "tuple[]"
        }
      ],
      "stateMutability": "view",
      "type": "function",
      "constant": true
    },
    {
      "inputs": [],
      "name": "getMaterials",
      "outputs": [
        {
          "components": [
            {
              "internalType": "address",
              "name": "supplier",
              "type": "address"
            },
            {
              "internalType": "string",
              "name": "materialID",
              "type": "string"
            },
            {
              "internalType": "string",
              "name": "materialName",
              "type": "string"
            },
            {
              "internalType": "uint256",
              "name": "materialStrength",
              "type": "uint256"
            },
            {
              "internalType": "string",
              "name": "materialForm",
              "type": "string"
            },
            {
              "internalType": "uint256",
              "name": "createdAmount",
              "type": "uint256"
            },
            {
              "internalType": "uint256",
              "name": "unitCost",
              "type": "uint256"
            },
            {
              "internalType": "string",
              "name": "storageConditions",
              "type": "string"
            },
            {
              "internalType": "bool",
              "name": "materialStability",
              "type": "bool"
            },
            {
              "internalType": "uint256",
              "name": "materialManuDate",
              "type": "uint256"
            },
            {
              "internalType": "uint256",
              "name": "materialStabilityPeriod",
              "type": "uint256"
            }
          ],
          "internalType": "struct PharmaChain.Material[]",
          "name": "",
          "type": "tuple[]"
        }
      ],
      "stateMutability": "view",
      "type": "function",
      "constant": true
    },
    {
      "inputs": [
        {
          "internalType": "string",
          "name": "_materialId",
          "type": "string"
        }
      ],
      "name": "getMaterialById",
      "outputs": [
        {
          "components": [
            {
              "internalType": "address",
              "name": "supplier",
              "type": "address"
            },
            {
              "internalType": "string",
              "name": "materialID",
              "type": "string"
            },
            {
              "internalType": "string",
              "name": "materialName",
              "type": "string"
            },
            {
              "internalType": "uint256",
              "name": "materialStrength",
              "type": "uint256"
            },
            {
              "internalType": "string",
              "name": "materialForm",
              "type": "string"
            },
            {
              "internalType": "uint256",
              "name": "createdAmount",
              "type": "uint256"
            },
            {
              "internalType": "uint256",
              "name": "unitCost",
              "type": "uint256"
            },
            {
              "internalType": "string",
              "name": "storageConditions",
              "type": "string"
            },
            {
              "internalType": "bool",
              "name": "materialStability",
              "type": "bool"
            },
            {
              "internalType": "uint256",
              "name": "materialManuDate",
              "type": "uint256"
            },
            {
              "internalType": "uint256",
              "name": "materialStabilityPeriod",
              "type": "uint256"
            }
          ],
          "internalType": "struct PharmaChain.Material",
          "name": "",
          "type": "tuple"
        }
      ],
      "stateMutability": "view",
      "type": "function",
      "constant": true
    },
    {
      "inputs": [
        {
          "internalType": "address",
          "name": "_to",
          "type": "address"
        },
        {
          "internalType": "string",
          "name": "_materialId",
          "type": "string"
        },
        {
          "internalType": "uint256",
          "name": "_amount",
          "type": "uint256"
        }
      ],
      "name": "createRequest",
      "outputs": [],
      "stateMutability": "nonpayable",
      "type": "function"
    },
    {
      "inputs": [
        {
          "internalType": "address",
          "name": "_fromParti2",
          "type": "address"
        },
        {
          "internalType": "address",
          "name": "_to",
          "type": "address"
        },
        {
          "internalType": "string",
          "name": "_materialId",
          "type": "string"
        },
        {
          "internalType": "uint256",
          "name": "_amount",
          "type": "uint256"
        }
      ],
      "name": "createBatchRequest",
      "outputs": [],
      "stateMutability": "nonpayable",
      "type": "function"
    },
    {
      "inputs": [
        {
          "internalType": "uint256",
          "name": "_id",
          "type": "uint256"
        }
      ],
      "name": "getRequestCost",
      "outputs": [
        {
          "internalType": "uint256",
          "name": "",
          "type": "uint256"
        }
      ],
      "stateMutability": "view",
      "type": "function",
      "constant": true
    },
    {
      "inputs": [],
      "name": "getMyRequests",
      "outputs": [
        {
          "components": [
            {
              "internalType": "uint256",
              "name": "requestId",
              "type": "uint256"
            },
            {
              "internalType": "address",
              "name": "fromParti",
              "type": "address"
            },
            {
              "internalType": "address",
              "name": "toParti",
              "type": "address"
            },
            {
              "internalType": "string",
              "name": "materialID",
              "type": "string"
            },
            {
              "internalType": "uint256",
              "name": "amount",
              "type": "uint256"
            },
            {
              "internalType": "uint256",
              "name": "issueTime",
              "type": "uint256"
            }
          ],
          "internalType": "struct PharmaChain.Request[]",
          "name": "",
          "type": "tuple[]"
        }
      ],
      "stateMutability": "view",
      "type": "function",
      "constant": true
    },
    {
      "inputs": [],
      "name": "getMyBatchRequests",
      "outputs": [
        {
          "components": [
            {
              "internalType": "uint256",
              "name": "requestId",
              "type": "uint256"
            },
            {
              "internalType": "address",
              "name": "fromParti1",
              "type": "address"
            },
            {
              "internalType": "address",
              "name": "fromParti2",
              "type": "address"
            },
            {
              "internalType": "address",
              "name": "toParti",
              "type": "address"
            },
            {
              "internalType": "string",
              "name": "materialID",
              "type": "string"
            },
            {
              "internalType": "uint256",
              "name": "amount",
              "type": "uint256"
            },
            {
              "internalType": "uint256",
              "name": "issueTime",
              "type": "uint256"
            }
          ],
          "internalType": "struct PharmaChain.BatchRequest[]",
          "name": "",
          "type": "tuple[]"
        }
      ],
      "stateMutability": "view",
      "type": "function",
      "constant": true
    },
    {
      "inputs": [
        {
          "internalType": "uint256",
          "name": "_id",
          "type": "uint256"
        }
      ],
      "name": "getRequestById",
      "outputs": [
        {
          "components": [
            {
              "internalType": "uint256",
              "name": "requestId",
              "type": "uint256"
            },
            {
              "internalType": "address",
              "name": "fromParti",
              "type": "address"
            },
            {
              "internalType": "address",
              "name": "toParti",
              "type": "address"
            },
            {
              "internalType": "string",
              "name": "materialID",
              "type": "string"
            },
            {
              "internalType": "uint256",
              "name": "amount",
              "type": "uint256"
            },
            {
              "internalType": "uint256",
              "name": "issueTime",
              "type": "uint256"
            }
          ],
          "internalType": "struct PharmaChain.Request",
          "name": "",
          "type": "tuple"
        }
      ],
      "stateMutability": "view",
      "type": "function",
      "constant": true
    },
    {
      "inputs": [
        {
          "internalType": "address",
          "name": "_participant",
          "type": "address"
        },
        {
          "internalType": "string",
          "name": "_item",
          "type": "string"
        },
        {
          "internalType": "uint256",
          "name": "_amount",
          "type": "uint256"
        }
      ],
      "name": "addToInventory",
      "outputs": [],
      "stateMutability": "nonpayable",
      "type": "function"
    },
    {
      "inputs": [
        {
          "internalType": "address",
          "name": "_participant",
          "type": "address"
        },
        {
          "internalType": "string",
          "name": "_item",
          "type": "string"
        },
        {
          "internalType": "uint256",
          "name": "_amount",
          "type": "uint256"
        }
      ],
      "name": "updateInventory",
      "outputs": [],
      "stateMutability": "nonpayable",
      "type": "function"
    },
    {
      "inputs": [
        {
          "internalType": "address",
          "name": "_participant",
          "type": "address"
        }
      ],
      "name": "getInventory",
      "outputs": [
        {
          "components": [
            {
              "internalType": "string",
              "name": "itemId",
              "type": "string"
            },
            {
              "internalType": "uint256",
              "name": "amount",
              "type": "uint256"
            }
          ],
          "internalType": "struct PharmaChain.InventoryItem[]",
          "name": "",
          "type": "tuple[]"
        }
      ],
      "stateMutability": "view",
      "type": "function",
      "constant": true
    },
    {
      "inputs": [
        {
          "internalType": "string",
          "name": "_item",
          "type": "string"
        }
      ],
      "name": "getInventoryItemById",
      "outputs": [
        {
          "components": [
            {
              "internalType": "string",
              "name": "itemId",
              "type": "string"
            },
            {
              "internalType": "uint256",
              "name": "amount",
              "type": "uint256"
            }
          ],
          "internalType": "struct PharmaChain.InventoryItem",
          "name": "",
          "type": "tuple"
        }
      ],
      "stateMutability": "view",
      "type": "function",
      "constant": true
    },
    {
      "inputs": [
        {
          "internalType": "address",
          "name": "_addr",
          "type": "address"
        }
      ],
      "name": "setAsBank",
      "outputs": [],
      "stateMutability": "nonpayable",
      "type": "function"
    },
    {
      "inputs": [],
      "name": "getBank",
      "outputs": [
        {
          "internalType": "address",
          "name": "",
          "type": "address"
        }
      ],
      "stateMutability": "view",
      "type": "function",
      "constant": true
    },
    {
      "inputs": [
        {
          "internalType": "address",
          "name": "_userAddr",
          "type": "address"
        },
        {
          "internalType": "string",
          "name": "_userName",
          "type": "string"
        }
      ],
      "name": "createBankAccount",
      "outputs": [],
      "stateMutability": "nonpayable",
      "type": "function"
    },
    {
      "inputs": [
        {
          "internalType": "address",
          "name": "_userAddr",
          "type": "address"
        }
      ],
      "name": "hasBankAccount",
      "outputs": [
        {
          "internalType": "bool",
          "name": "",
          "type": "bool"
        }
      ],
      "stateMutability": "view",
      "type": "function",
      "constant": true
    },
    {
      "inputs": [
        {
          "internalType": "address",
          "name": "_userAddr",
          "type": "address"
        },
        {
          "internalType": "uint256",
          "name": "_amount",
          "type": "uint256"
        }
      ],
      "name": "deposit",
      "outputs": [
        {
          "internalType": "bool",
          "name": "",
          "type": "bool"
        }
      ],
      "stateMutability": "nonpayable",
      "type": "function"
    },
    {
      "inputs": [
        {
          "internalType": "address",
          "name": "_userAddr",
          "type": "address"
        },
        {
          "internalType": "uint256",
          "name": "_amount",
          "type": "uint256"
        }
      ],
      "name": "withdraw",
      "outputs": [
        {
          "internalType": "bool",
          "name": "",
          "type": "bool"
        }
      ],
      "stateMutability": "nonpayable",
      "type": "function"
    },
    {
      "inputs": [
        {
          "internalType": "address",
          "name": "_userAddr",
          "type": "address"
        }
      ],
      "name": "getBalance",
      "outputs": [
        {
          "internalType": "uint256",
          "name": "x",
          "type": "uint256"
        }
      ],
      "stateMutability": "view",
      "type": "function",
      "constant": true
    },
    {
      "inputs": [
        {
          "internalType": "address",
          "name": "_from",
          "type": "address"
        },
        {
          "internalType": "address",
          "name": "_to",
          "type": "address"
        },
        {
          "internalType": "uint256",
          "name": "_amount",
          "type": "uint256"
        }
      ],
      "name": "transfer",
      "outputs": [
        {
          "internalType": "bool",
          "name": "",
          "type": "bool"
        }
      ],
      "stateMutability": "nonpayable",
      "type": "function"
    },
    {
      "inputs": [
        {
          "internalType": "address",
          "name": "_account",
          "type": "address"
        }
      ],
      "name": "getAccountDetails",
      "outputs": [
        {
          "components": [
            {
              "internalType": "address",
              "name": "userId",
              "type": "address"
            },
            {
              "internalType": "string",
              "name": "userName",
              "type": "string"
            },
            {
              "internalType": "uint256",
              "name": "userBalance",
              "type": "uint256"
            },
            {
              "internalType": "bool",
              "name": "isActive",
              "type": "bool"
            }
          ],
          "internalType": "struct PharmaChain.BankAccount",
          "name": "",
          "type": "tuple"
        }
      ],
      "stateMutability": "view",
      "type": "function",
      "constant": true
    }
  ],
  "bytecode": "0x60806040526000805534801561001457600080fd5b506149b9806100246000396000f3fe608060405234801561001057600080fd5b50600436106102895760003560e01c806360d704db1161015c578063b26338b0116100ce578063d8059e8b11610087578063d8059e8b1461062a578063de67ef8a1461063d578063def1ca3814610650578063f3fef3a314610663578063f8b2cb4f14610676578063fd91dcca1461068957610289565b8063b26338b0146105a9578063bbf5f774146105bc578063beabacc8146105dc578063c29b2f20146105ef578063c933a2ad14610604578063d7abaee31461061757610289565b8063881de0de11610120578063881de0de146105285780638b87c5441461053b57806391eace8b1461055b5780639366c6411461057057806398de5cef146105835780639ef0ad891461059657610289565b806360d704db146104c55780636eac3eb8146104da5780637635eabe146104ed5780637f5cf16e1461050057806380dfedcd1461052057610289565b80633f201978116102005780635028f1d0116101b95780635028f1d014610446578063502f1807146104665780635280ae1d14610479578063531963631461048c5780635518cad01461049f57806359c8351f146104b257610289565b80633f201978146103b857806343ffb9a6146103d8578063477dec5d146103eb57806347e7ef24146103fe57806348c18e231461041e5780634cd9cc3d1461043157610289565b8063130ff11d11610252578063130ff11d146103125780631f94d0e7146103325780632352d4aa1461034557806326757b73146103655780632aceb534146103855780632fc81916146103a557610289565b8062df68121461028e57806306177b4e146102a3578063096a71e2146102cc5780630e34b00e146102ec5780630e96e437146102ff575b600080fd5b6102a161029c366004613d84565b61069c565b005b6102b66102b1366004613bc6565b6106e6565b6040516102c3919061451a565b60405180910390f35b6102df6102da366004613d49565b610a15565b6040516102c39190614882565b6102a16102fa366004613ddb565b610ac6565b6102a161030d366004613d49565b610d1a565b610325610320366004613d49565b610d5f565b6040516102c3919061494e565b6102df610340366004613d49565b610d87565b610358610353366004613d49565b610d9f565b6040516102c39190614928565b610378610373366004614170565b610fa0565b6040516102c3919061493b565b610398610393366004613bc6565b611099565b6040516102c39190614832565b6102a16103b3366004613c7f565b61118f565b6103cb6103c6366004613d49565b611239565b6040516102c39190614915565b6102a16103e6366004613ccb565b61151e565b6102a16103f9366004613bc6565b611701565b61041161040c366004613d20565b611723565b6040516102c391906146c9565b61032561042c366004613d49565b61180a565b61043961181c565b6040516102c3919061440d565b610459610454366004613d49565b611964565b6040516102c39190614902565b6102a1610474366004614056565b611a2f565b610411610487366004613bc6565b611b6b565b6102a161049a366004613ccb565b611bb1565b6102a16104ad366004613be0565b611c6f565b6104116104c0366004613d84565b611e7e565b6104cd611ed7565b6040516102c39190614399565b6102df6104e8366004613d49565b611ee6565b6102a16104fb366004613f33565b611efe565b61051361050e366004613d49565b6122a7565b6040516102c39190614613565b6102b661257d565b610325610536366004613d49565b61288c565b61054e610549366004613bc6565b61289e565b6040516102c391906144c7565b61056361299c565b6040516102c391906145c0565b6102a161057e366004613ccb565b612acf565b610325610591366004613d49565b612bf9565b6102a16105a4366004614056565b612c0b565b6103256105b7366004613d49565b612d29565b6105cf6105ca366004613d49565b612d3b565b6040516102c391906143ad565b6104116105ea366004613c44565b612e26565b6105f7612f9e565b6040516102c3919061456d565b610325610612366004614170565b6131c3565b6102a16106253660046140de565b6131d5565b6102a1610638366004614013565b613342565b6105f761064b366004613bc6565b613367565b6102a161065e366004613d49565b6135a0565b610411610671366004613d20565b6135ff565b610325610684366004613bc6565b6136ee565b6102a1610697366004613e5f565b613755565b600b826040516106ac919061437d565b90815260405160209181900382019020805460018101825560009182529082902083516106e193919092019190840190613871565b505050565b6001600160a01b0381166000908152600c60209081526040808320805482518185028101850190935280835260609492939192909184015b82821015610a095760008481526020908190206040805161016081018252600b860290920180546001600160a01b03168352600180820180548451600261010094831615949094026000190190911692909204601f8101879004870283018701909452838252939491938583019391929091908301828280156107e25780601f106107b7576101008083540402835291602001916107e2565b820191906000526020600020905b8154815290600101906020018083116107c557829003601f168201915b5050509183525050600282810180546040805160206001841615610100026000190190931694909404601f810183900483028501830190915280845293810193908301828280156108745780601f1061084957610100808354040283529160200191610874565b820191906000526020600020905b81548152906001019060200180831161085757829003601f168201915b5050509183525050600382015460208083019190915260048301805460408051601f600260001961010060018716150201909416939093049283018590048502810185018252828152940193928301828280156109125780601f106108e757610100808354040283529160200191610912565b820191906000526020600020905b8154815290600101906020018083116108f557829003601f168201915b505050505081526020016005820154815260200160068201548152602001600782018054600181600116156101000203166002900480601f0160208091040260200160405190810160405280929190818152602001828054600181600116156101000203166002900480156109c85780601f1061099d576101008083540402835291602001916109c8565b820191906000526020600020905b8154815290600101906020018083116109ab57829003601f168201915b5050509183525050600882015460ff16151560208083019190915260098301546040830152600a90920154606090910152908252600192909201910161071e565b5050505090505b919050565b610a1d6138fd565b601382604051610a2d919061437d565b90815260200160405180910390206040518061018001604052908160008201548152602001600182015481526020016002820154815260200160038201548152602001600482015481526020016005820154815260200160068201548152602001600782015481526020016008820154815260200160098201548152602001600a8201548152602001600b820154815250509050919050565b610ace61395e565b50604080516080810182523380825260208083018781528385018790526060840186905260009283526006825293822080546001808201835591845292829020845160049094020180546001600160a01b0319166001600160a01b039094169390931783559351805193948594610b4c939185019290910190613871565b5060408201518051610b68916002840191602090910190613871565b5060608201518051610b84916003840191602090910190613871565b50505080600a85604051610b98919061437d565b90815260405160209181900382019020825181546001600160a01b0319166001600160a01b039091161781558282015180519192610bde92600185019290910190613871565b5060408201518051610bfa916002840191602090910190613871565b5060608201518051610c16916003840191602090910190613871565b5050600480546001810182556000829052835191027f8a35acfbc15ff81a39ae7d344fd709f28e8600b4aa8c65c6b64bfe7fe36bd19b810180546001600160a01b039093166001600160a01b03199093169290921782556020808501518051869550610ca9937f8a35acfbc15ff81a39ae7d344fd709f28e8600b4aa8c65c6b64bfe7fe36bd19c01929190910190613871565b5060408201518051610cc5916002840191602090910190613871565b5060608201518051610ce1916003840191602090910190613871565b505050610d14846040518060400160405280600e81526020016d0aa9c888aa45aa48aa68a82a486960931b81525061069c565b50505050565b42336001600160a01b03167f530abb16f843103fba748c032a23827a5140b72d210f41d8bbbc183708de524083604051610d5491906146d4565b60405180910390a350565b6000601582604051610d71919061437d565b9081526020016040518091039020549050919050565b610d8f6138fd565b601482604051610a2d919061437d565b610da761395e565b600a82604051610db7919061437d565b908152604080516020928190038301812060808201835280546001600160a01b03168252600180820180548551600261010094831615949094026000190190911692909204601f810187900487028301870190955284825292949193828601939192830182828015610e6a5780601f10610e3f57610100808354040283529160200191610e6a565b820191906000526020600020905b815481529060010190602001808311610e4d57829003601f168201915b5050509183525050600282810180546040805160206001841615610100026000190190931694909404601f81018390048302850183019091528084529381019390830182828015610efc5780601f10610ed157610100808354040283529160200191610efc565b820191906000526020600020905b815481529060010190602001808311610edf57829003601f168201915b505050918352505060038201805460408051602060026001851615610100026000190190941693909304601f8101849004840282018401909252818152938201939291830182828015610f905780601f10610f6557610100808354040283529160200191610f90565b820191906000526020600020905b815481529060010190602001808311610f7357829003601f168201915b5050505050815250509050919050565b610fa861398f565b6000828152600f6020908152604091829020825160c081018452815481526001808301546001600160a01b03908116838601526002808501549091168387015260038401805487516101009482161594909402600019011691909104601f8101869004860283018601909652858252919492936060860193919291908301828280156110755780601f1061104a57610100808354040283529160200191611075565b820191906000526020600020905b81548152906001019060200180831161105857829003601f168201915b50505050508152602001600482015481526020016005820154815250509050919050565b6110a16139d7565b600280546001600160a01b039081166000908152601b6020908152604080832087851684528252918290208251608081018452815490941684526001808201805485516101009382161593909302600019011696909604601f8101849004840282018401909452838152939490938583019390928301828280156111665780601f1061113b57610100808354040283529160200191611166565b820191906000526020600020905b81548152906001019060200180831161114957829003601f168201915b50505091835250506002820154602082015260039091015460ff16151560409091015292915050565b6111976139d7565b50604080516080810182526001600160a01b038481168083526020808401868152600085870181905260016060870181905260025486168252601b845287822094825293835295909520845181546001600160a01b0319169416939093178355935180519394859461120f9385019290910190613871565b50604082015160028201556060909101516003909101805460ff1916911515919091179055505050565b611241613a0a565b600d82604051611251919061437d565b90815260408051602092819003830181206101608201835280546001600160a01b03168252600180820180548551600261010094831615949094026000190190911692909204601f8101879004870283018701909552848252929491938286019391928301828280156113055780601f106112da57610100808354040283529160200191611305565b820191906000526020600020905b8154815290600101906020018083116112e857829003601f168201915b5050509183525050600282810180546040805160206001841615610100026000190190931694909404601f810183900483028501830190915280845293810193908301828280156113975780601f1061136c57610100808354040283529160200191611397565b820191906000526020600020905b81548152906001019060200180831161137a57829003601f168201915b5050509183525050600382015460208083019190915260048301805460408051601f600260001961010060018716150201909416939093049283018590048502810185018252828152940193928301828280156114355780601f1061140a57610100808354040283529160200191611435565b820191906000526020600020905b81548152906001019060200180831161141857829003601f168201915b505050505081526020016005820154815260200160068201548152602001600782018054600181600116156101000203166002900480601f0160208091040260200160405190810160405280929190818152602001828054600181600116156101000203166002900480156114eb5780601f106114c0576101008083540402835291602001916114eb565b820191906000526020600020905b8154815290600101906020018083116114ce57829003601f168201915b5050509183525050600882015460ff161515602082015260098201546040820152600a9091015460609091015292915050565b60008054600101905561152f61398f565b506040805160c08101825260005481523360208201526001600160a01b0385168183015260608101849052608081018390524260a08201529051600d9061157790859061437d565b908152604080516020928190038301902060069081015460808501518551600090815260188652848120919092029055338152600e8452828120805460018082018355918352918590208651929093029092019081558484015191810180546001600160a01b03199081166001600160a01b039485161790915592850151600282018054909416921691909117909155606083015180518493611621926003850192910190613871565b506080820151600482015560a09091015160059091015580516000908152600f602090815260409182902083518155818401516001820180546001600160a01b03199081166001600160a01b039384161790915593850151600283018054909516911617909255606083015180518493926116a3926003850192910190613871565b506080820151816004015560a0820151816005015590505042336001600160a01b03167f530abb16f843103fba748c032a23827a5140b72d210f41d8bbbc183708de52406040516116f390614809565b60405180910390a350505050565b600280546001600160a01b0319166001600160a01b0392909216919091179055565b600080821161174d5760405162461bcd60e51b8152600401611744906146e7565b60405180910390fd5b6002546001600160a01b039081166000908152601b60209081526040808320848816808552925290912054909116141561180057600280546001600160a01b039081166000908152601b602090815260408083209388168084529390915290819020909201805485019081905591514291907f11cccc9b3fbc8fd163c4dbf6c7afdce1433c5cf351f29596a006f3720f648c20906117ee908890889061479a565b60405180910390a36001915050611804565b5060005b92915050565b6000601682604051610d71919061437d565b336000908152601060209081526040808320805482518185028101850190935280835260609492939192909184015b8282101561195b5760008481526020908190206040805160e08101825260078602909201805483526001808201546001600160a01b03908116858701526002808401548216868601526003840154909116606086015260048301805485516101009482161594909402600019011691909104601f8101879004870283018701909452838252939491936080860193919290919083018282801561192f5780601f106119045761010080835404028352916020019161192f565b820191906000526020600020905b81548152906001019060200180831161191257829003601f168201915b50505050508152602001600582015481526020016006820154815250508152602001906001019061184b565b50505050905090565b61196c613a6f565b601a8260405161197c919061437d565b9081526040805160209281900383018120805460026001821615610100026000190190911604601f8101859004909402820160609081018452928201848152919390928492918491840182828015611a155780601f106119ea57610100808354040283529160200191611a15565b820191906000526020600020905b8154815290600101906020018083116119f857829003601f168201915b505050505081526020016001820154815250509050919050565b6000611a3a8b612d29565b9050611a446138fd565b6040518061018001604052808a840281526020018b81526020018a8152602001898152602001868152602001858152602001878902815260200188815260200187815260200160008152602001600081526020018481525090508060128d604051611aaf919061437d565b9081526020016040518091039020600082015181600001556020820151816001015560408201518160020155606082015181600301556080820151816004015560a0820151816005015560c0820151816006015560e082015181600701556101008201518160080155610120820151816009015561014082015181600a015561016082015181600b01559050508a60158d604051611b4d919061437d565b90815260405190819003602001902055505050505050505050505050565b6002546001600160a01b039081166000908152601b6020908152604080832093851683529290529081206003015460ff1615611ba957506001610a10565b506000610a10565b611bb9613a6f565b5060408051808201825283815260208082018490526001600160a01b0386166000908152601982529283208054600181018255908452928190208251805193948594600290910290920192611c1392849290910190613871565b5060208201518160010155505080601a84604051611c31919061437d565b90815260200160405180910390206000820151816000019080519060200190611c5b929190613871565b506020820151816001015590505050505050565b600080546001019055611c80613a89565b506040805160e08101825260005481523360208201526001600160a01b0386811682840152851660608201526080810184905260a081018390524260c08201529051600d90611cd090859061437d565b90815260408051602092819003830190206006015460a08401518451600090815260188552838120919092029055835181526011835281902083518155838301516001820180546001600160a01b03199081166001600160a01b03938416179091559285015160028301805485169183169190911790556060850151600383018054909416911617909155608083015180518493611d75926004850192910190613871565b5060a0820151600582015560c0909101516006909101553360009081526010602090815260408083208054600180820183559185529383902085516007909502019384558483015190840180546001600160a01b03199081166001600160a01b03938416179091559185015160028501805484169183169190911790556060850151600385018054909316911617905560808301518051849392611e20926004850192910190613871565b5060a0820151816005015560c08201518160060155505042336001600160a01b03167f530abb16f843103fba748c032a23827a5140b72d210f41d8bbbc183708de5240604051611e6f90614708565b60405180910390a35050505050565b600081604051602001611e91919061437d565b6040516020818303038152906040528051906020012083604051602001611eb8919061437d565b6040516020818303038152906040528051906020012014905092915050565b6002546001600160a01b031690565b611eee6138fd565b601282604051610a2d919061437d565b611f06613a0a565b5060408051610160810182523380825260208083018d81528385018d9052606084018c9052608084018b905260a084018a905260c0840189905260e084018890528615156101008501524261012085015261014084018690526000928352600c8252938220805460018082018355918452928290208451600b9094020180546001600160a01b0319166001600160a01b039094169390931783559351805193948594611fb9939185019290910190613871565b5060408201518051611fd5916002840191602090910190613871565b506060820151600382015560808201518051611ffb916004840191602090910190613871565b5060a0820151600582015560c0820151600682015560e0820151805161202b916007840191602090910190613871565b5061010082015160088201805460ff1916911515919091179055610120820151600982015561014090910151600a909101556040518190600d90612070908d9061437d565b90815260405160209181900382019020825181546001600160a01b0319166001600160a01b0390911617815582820151805191926120b692600185019290910190613871565b50604082015180516120d2916002840191602090910190613871565b5060608201516003820155608082015180516120f8916004840191602090910190613871565b5060a0820151600582015560c0820151600682015560e08201518051612128916007840191602090910190613871565b5061010082015160088201805460ff1916911515919091179055610120820151600982015561014090910151600a909101556003805460018101825560009190915281517fc2575a0e9e593c00f959f8c92f12db2869c3395a3b0502d05e2516446f71f85b600b90920291820180546001600160a01b0319166001600160a01b03909216919091178155602080840151805185946121ec937fc2575a0e9e593c00f959f8c92f12db2869c3395a3b0502d05e2516446f71f85c909101920190613871565b5060408201518051612208916002840191602090910190613871565b50606082015160038201556080820151805161222e916004840191602090910190613871565b5060a0820151600582015560c0820151600682015560e0820151805161225e916007840191602090910190613871565b5061010082015160088201805460ff1916911515919091179055610120820151600982015561014090910151600a9091015561229b338b88611bb1565b50505050505050505050565b60606007826040516122b9919061437d565b9081526020016040518091039020805480602002602001604051908101604052809291908181526020016000905b82821015610a095760008481526020908190206040805160058602909201805460026001821615610100026000190190911604601f8101859004909402830160c090810190925260a08301848152929390928492909184918401828280156123905780601f1061236557610100808354040283529160200191612390565b820191906000526020600020905b81548152906001019060200180831161237357829003601f168201915b50505050508152602001600182018054600181600116156101000203166002900480601f0160208091040260200160405190810160405280929190818152602001828054600181600116156101000203166002900480156124325780601f1061240757610100808354040283529160200191612432565b820191906000526020600020905b81548152906001019060200180831161241557829003601f168201915b505050918352505060028281015460208084019190915260038401805460408051601f600019610100600186161502019093169590950491820184900484028501840181528185529094019390918301828280156124d15780601f106124a6576101008083540402835291602001916124d1565b820191906000526020600020905b8154815290600101906020018083116124b457829003601f168201915b505050918352505060048201805460408051602060026001851615610100026000190190941693909304601f81018490048402820184019092528181529382019392918301828280156125655780601f1061253a57610100808354040283529160200191612565565b820191906000526020600020905b81548152906001019060200180831161254857829003601f168201915b505050505081525050815260200190600101906122e7565b60606003805480602002602001604051908101604052809291908181526020016000905b8282101561195b5760008481526020908190206040805161016081018252600b860290920180546001600160a01b03168352600180820180548451600261010094831615949094026000190190911692909204601f8101879004870283018701909452838252939491938583019391929091908301828280156126655780601f1061263a57610100808354040283529160200191612665565b820191906000526020600020905b81548152906001019060200180831161264857829003601f168201915b5050509183525050600282810180546040805160206001841615610100026000190190931694909404601f810183900483028501830190915280845293810193908301828280156126f75780601f106126cc576101008083540402835291602001916126f7565b820191906000526020600020905b8154815290600101906020018083116126da57829003601f168201915b5050509183525050600382015460208083019190915260048301805460408051601f600260001961010060018716150201909416939093049283018590048502810185018252828152940193928301828280156127955780601f1061276a57610100808354040283529160200191612795565b820191906000526020600020905b81548152906001019060200180831161277857829003601f168201915b505050505081526020016005820154815260200160068201548152602001600782018054600181600116156101000203166002900480601f01602080910402602001604051908101604052809291908181526020018280546001816001161561010002031660029004801561284b5780601f106128205761010080835404028352916020019161284b565b820191906000526020600020905b81548152906001019060200180831161282e57829003601f168201915b5050509183525050600882015460ff16151560208083019190915260098301546040830152600a9092015460609091015290825260019290920191016125a1565b6000600982604051610d71919061437d565b6001600160a01b0381166000908152601960209081526040808320805482518185028101850190935280835260609492939192909184015b82821015610a095760008481526020908190206040805160028681029093018054600181161561010002600019011693909304601f81018590049094028101606090810183529181018481529093849284919084018282801561297a5780601f1061294f5761010080835404028352916020019161297a565b820191906000526020600020905b81548152906001019060200180831161295d57829003601f168201915b50505050508152602001600182015481525050815260200190600101906128d6565b336000908152600e60209081526040808320805482518185028101850190935280835260609492939192909184015b8282101561195b5760008481526020908190206040805160c08101825260068602909201805483526001808201546001600160a01b03908116858701526002808401549091168585015260038301805485516101009482161594909402600019011691909104601f81018790048702830187019094528382529394919360608601939192909190830182828015612aa35780601f10612a7857610100808354040283529160200191612aa3565b820191906000526020600020905b815481529060010190602001808311612a8657829003601f168201915b5050505050815260200160048201548152602001600582015481525050815260200190600101906129cb565b6001600160a01b03831660009081526019602052604081208054612b9392859291612af657fe5b60009182526020918290206002918202018054604080516001831615610100026000190190921693909304601f810185900485028201850190935282815292909190830182828015612b895780601f10612b5e57610100808354040283529160200191612b89565b820191906000526020600020905b815481529060010190602001808311612b6c57829003601f168201915b5050505050611e7e565b156106e1576001600160a01b03831660009081526019602052604081208054839290612bbb57fe5b90600052602060002090600202016001018190555080601a83604051612be1919061437d565b90815260405190819003602001902060010155505050565b6000601782604051610d71919061437d565b6000612c168b612d29565b9050612c206138fd565b6040518061018001604052808a840281526020018b81526020018a8152602001898152602001868152602001858152602001878902815260200188815260200187815260200160008152602001600081526020018481525090508060148d604051612c8b919061437d565b9081526020016040518091039020600082015181600001556020820151816001015560408201518160020155606082015181600301556080820151816004015560a0820151816005015560c0820151816006015560e082015181600701556101008201518160080155610120820151816009015561014082015181600a015561016082015181600b01559050508a60178d604051611b4d919061437d565b6000600882604051610d71919061437d565b6060600b82604051612d4d919061437d565b9081526020016040518091039020805480602002602001604051908101604052809291908181526020016000905b82821015610a095760008481526020908190208301805460408051601f6002600019610100600187161502019094169390930492830185900485028101850190915281815292830182828015612e125780601f10612de757610100808354040283529160200191612e12565b820191906000526020600020905b815481529060010190602001808311612df557829003601f168201915b505050505081526020019060010190612d7b565b600280546001600160a01b039081166000908152601b60209081526040808320938816835292905290812090910154821115612e745760405162461bcd60e51b815260040161174490614771565b6002546001600160a01b039081166000908152601b60209081526040808320848916808552925290912054909116148015612edf57506002546001600160a01b039081166000908152601b602090815260408083209387168352929052206003015460ff1615156001145b15612f9357600280546001600160a01b039081166000908152601b602081815260408084208a8616808652818452828620880180548c89168089529386528488208a0154908c90039182905589549098168752948452828620918652925292839020938701939094018390559051909242917f11cccc9b3fbc8fd163c4dbf6c7afdce1433c5cf351f29596a006f3720f648c2090612f8090899089906147d1565b60405180910390a3600192505050612f97565b5060005b9392505050565b60606004805480602002602001604051908101604052809291908181526020016000905b8282101561195b576000848152602090819020604080516080810182526004860290920180546001600160a01b03168352600180820180548451600261010094831615949094026000190190911692909204601f8101879004870283018701909452838252939491938583019391929091908301828280156130855780601f1061305a57610100808354040283529160200191613085565b820191906000526020600020905b81548152906001019060200180831161306857829003601f168201915b5050509183525050600282810180546040805160206001841615610100026000190190931694909404601f810183900483028501830190915280845293810193908301828280156131175780601f106130ec57610100808354040283529160200191613117565b820191906000526020600020905b8154815290600101906020018083116130fa57829003601f168201915b505050918352505060038201805460408051602060026001851615610100026000190190941693909304601f81018490048402820184019092528181529382019392918301828280156131ab5780601f10613180576101008083540402835291602001916131ab565b820191906000526020600020905b81548152906001019060200180831161318e57829003601f168201915b50505050508152505081526020019060010190612fc2565b60009081526018602052604090205490565b6131df8b83613342565b6131e76138fd565b6040518061018001604052808a850281526020018b81526020018a8152602001888152602001868152602001858152602001878a02815260200189815260200187815260200160008152602001600081526020018381525090508060138d604051613252919061437d565b9081526020016040518091039020600082015181600001556020820151816001015560408201518160020155606082015181600301556080820151816004015560a0820151816005015560c0820151816006015560e082015181600701556101008201518160080155610120820151816009015561014082015181600a015561016082015181600b01559050508a60168d6040516132f0919061437d565b9081526020016040518091039020819055506133348c6040518060400160405280601081526020016f50524f44554354494f4e2d524541445960801b81525061069c565b505050505050505050505050565b80600983604051613353919061437d565b908152604051908190036020019020555050565b6001600160a01b0381166000908152600660209081526040808320805482518185028101850190935280835260609492939192909184015b82821015610a09576000848152602090819020604080516080810182526004860290920180546001600160a01b03168352600180820180548451600261010094831615949094026000190190911692909204601f8101879004870283018701909452838252939491938583019391929091908301828280156134625780601f1061343757610100808354040283529160200191613462565b820191906000526020600020905b81548152906001019060200180831161344557829003601f168201915b5050509183525050600282810180546040805160206001841615610100026000190190931694909404601f810183900483028501830190915280845293810193908301828280156134f45780601f106134c9576101008083540402835291602001916134f4565b820191906000526020600020905b8154815290600101906020018083116134d757829003601f168201915b505050918352505060038201805460408051602060026001851615610100026000190190941693909304601f81018490048402820184019092528181529382019392918301828280156135885780601f1061355d57610100808354040283529160200191613588565b820191906000526020600020905b81548152906001019060200180831161356b57829003601f168201915b5050505050815250508152602001906001019061339f565b6007816040516135b0919061437d565b90815260200160405180910390206000815481106135ca57fe5b9060005260206000209060050201600201546008826040516135ec919061437d565b9081526040519081900360200190205550565b600280546001600160a01b039081166000908152601b60209081526040808320938716835292905290812090910154821061364c5760405162461bcd60e51b815260040161174490614771565b6002546001600160a01b039081166000908152601b60209081526040808320848816808552925290912054909116141561180057600280546001600160a01b039081166000908152601b60209081526040808320938816808452939091529081902090920180548590039081905591514291907f11cccc9b3fbc8fd163c4dbf6c7afdce1433c5cf351f29596a006f3720f648c20906117ee9088908890614737565b6002546001600160a01b039081166000908152601b6020908152604080832084861680855292528220549192919091161415610a105750600280546001600160a01b039081166000908152601b602090815260408083209386168352929052200154610a10565b61375d613ae1565b6040518060a00160405280878152602001868152602001838152602001858152602001848152509050600787604051613796919061437d565b9081526040516020918190038201902080546001810182556000918252908290208351805185946005909402909201926137d592849290910190613871565b5060208281015180516137ee9260018501920190613871565b506040820151600282015560608201518051613814916003840191602090910190613871565b5060808201518051613830916004840191602090910190613871565b50505061383c876135a0565b613868876040518060400160405280600a815260200169149151d254d51154915160b21b81525061069c565b50505050505050565b828054600181600116156101000203166002900490600052602060002090601f0160209004810192826138a757600085556138ed565b82601f106138c057805160ff19168380011785556138ed565b828001600101855582156138ed579182015b828111156138ed5782518255916020019190600101906138d2565b506138f9929150613b10565b5090565b6040518061018001604052806000815260200160008152602001600081526020016000815260200160008152602001600081526020016000815260200160008152602001600081526020016000815260200160008152602001600081525090565b604051806080016040528060006001600160a01b031681526020016060815260200160608152602001606081525090565b6040518060c001604052806000815260200160006001600160a01b0316815260200160006001600160a01b031681526020016060815260200160008152602001600081525090565b604051806080016040528060006001600160a01b0316815260200160608152602001600081526020016000151581525090565b60405180610160016040528060006001600160a01b031681526020016060815260200160608152602001600081526020016060815260200160008152602001600081526020016060815260200160001515815260200160008152602001600081525090565b604051806040016040528060608152602001600081525090565b6040518060e001604052806000815260200160006001600160a01b0316815260200160006001600160a01b0316815260200160006001600160a01b031681526020016060815260200160008152602001600081525090565b6040518060a0016040528060608152602001606081526020016000815260200160608152602001606081525090565b5b808211156138f95760008155600101613b11565b80356001600160a01b0381168114610a1057600080fd5b80358015158114610a1057600080fd5b600082601f830112613b5c578081fd5b813567ffffffffffffffff80821115613b7157fe5b604051601f8301601f191681016020018281118282101715613b8f57fe5b604052828152925082848301602001861015613baa57600080fd5b8260208601602083013760006020848301015250505092915050565b600060208284031215613bd7578081fd5b612f9782613b25565b60008060008060808587031215613bf5578283fd5b613bfe85613b25565b9350613c0c60208601613b25565b9250604085013567ffffffffffffffff811115613c27578283fd5b613c3387828801613b4c565b949793965093946060013593505050565b600080600060608486031215613c58578283fd5b613c6184613b25565b9250613c6f60208501613b25565b9150604084013590509250925092565b60008060408385031215613c91578182fd5b613c9a83613b25565b9150602083013567ffffffffffffffff811115613cb5578182fd5b613cc185828601613b4c565b9150509250929050565b600080600060608486031215613cdf578283fd5b613ce884613b25565b9250602084013567ffffffffffffffff811115613d03578283fd5b613d0f86828701613b4c565b925050604084013590509250925092565b60008060408385031215613d32578182fd5b613d3b83613b25565b946020939093013593505050565b600060208284031215613d5a578081fd5b813567ffffffffffffffff811115613d70578182fd5b613d7c84828501613b4c565b949350505050565b60008060408385031215613d96578182fd5b823567ffffffffffffffff80821115613dad578384fd5b613db986838701613b4c565b93506020850135915080821115613dce578283fd5b50613cc185828601613b4c565b600080600060608486031215613def578283fd5b833567ffffffffffffffff80821115613e06578485fd5b613e1287838801613b4c565b94506020860135915080821115613e27578384fd5b613e3387838801613b4c565b93506040860135915080821115613e48578283fd5b50613e5586828701613b4c565b9150509250925092565b60008060008060008060c08789031215613e77578182fd5b863567ffffffffffffffff80821115613e8e578384fd5b613e9a8a838b01613b4c565b97506020890135915080821115613eaf578384fd5b613ebb8a838b01613b4c565b96506040890135915080821115613ed0578384fd5b613edc8a838b01613b4c565b95506060890135915080821115613ef1578384fd5b613efd8a838b01613b4c565b94506080890135915080821115613f12578384fd5b50613f1f89828a01613b4c565b92505060a087013590509295509295509295565b60008060008060008060008060006101208a8c031215613f51578283fd5b893567ffffffffffffffff80821115613f68578485fd5b613f748d838e01613b4c565b9a5060208c0135915080821115613f89578485fd5b613f958d838e01613b4c565b995060408c0135985060608c0135915080821115613fb1578485fd5b613fbd8d838e01613b4c565b975060808c0135965060a08c0135955060c08c0135915080821115613fe0578485fd5b50613fed8c828d01613b4c565b935050613ffc60e08b01613b3c565b91506101008a013590509295985092959850929598565b60008060408385031215614025578182fd5b823567ffffffffffffffff81111561403b578283fd5b61404785828601613b4c565b95602094909401359450505050565b6000806000806000806000806000806101408b8d031215614075578384fd5b8a3567ffffffffffffffff81111561408b578485fd5b6140978d828e01613b4c565b9d60208d01359d5060408d01359c60608101359c5060808101359b5060a08101359a5060c0810135995060e081013598506101008101359750610120013595509350505050565b60008060008060008060008060008060006101608c8e0312156140ff578485fd5b8b3567ffffffffffffffff811115614115578586fd5b6141218e828f01613b4c565b9e60208e01359e5060408e01359d60608101359d5060808101359c5060a08101359b5060c08101359a5060e0810135995061010081013598506101208101359750610140013595509350505050565b600060208284031215614181578081fd5b5035919050565b6001600160a01b03169052565b15159052565b600081518084526141b3816020860160208601614957565b601f01601f19169290920160200192915050565b60008151604084526141dc604085018261419b565b602093840151949093019390935250919050565b6000610160614200848451614188565b60208301518160208601526142178286018261419b565b91505060408301518482036040860152614231828261419b565b9150506060830151606085015260808301518482036080860152614255828261419b565b91505060a083015160a085015260c083015160c085015260e083015184820360e0860152614283828261419b565b9150506101008084015161429982870182614195565b505061012083810151908501526101409283015192909301919091525090565b600060018060a01b0382511683526020820151608060208501526142e0608085018261419b565b9050604083015184820360408601526142f9828261419b565b91505060608301518482036060860152614313828261419b565b95945050505050565b600081518352602082015160018060a01b0380821660208601528060408501511660408601525050606082015160c0606085015261435d60c085018261419b565b90506080830151608085015260a083015160a08501528091505092915050565b6000825161438f818460208701614957565b9190910192915050565b6001600160a01b0391909116815260200190565b6000602080830181845280855180835260408601915060408482028701019250838701855b8281101561440057603f198886030184526143ee85835161419b565b945092850192908501906001016143d2565b5092979650505050505050565b60208082528251828201819052600091906040908185019080840286018301878501865b838110156144b957888303603f19018552815180518452878101516001600160a01b0390811689860152878201518116888601526060808301519091169085015260808082015160e0828701819052919061448e8388018261419b565b60a0858101519089015260c09485015194909701939093525050509386019390860190600101614431565b509098975050505050505050565b6000602080830181845280855180835260408601915060408482028701019250838701855b8281101561440057603f198886030184526145088583516141c7565b945092850192908501906001016144ec565b6000602080830181845280855180835260408601915060408482028701019250838701855b8281101561440057603f1988860301845261455b8583516141f0565b9450928501929085019060010161453f565b6000602080830181845280855180835260408601915060408482028701019250838701855b8281101561440057603f198886030184526145ae8583516142b9565b94509285019290850190600101614592565b6000602080830181845280855180835260408601915060408482028701019250838701855b8281101561440057603f1988860301845261460185835161431c565b945092850192908501906001016145e5565b60208082528251828201819052600091906040908185019080840286018301878501865b838110156144b957603f19898403018552815160a0815181865261465d8287018261419b565b915050888201518582038a870152614675828261419b565b915050878201518886015260608083015186830382880152614697838261419b565b92505050608080830151925085820381870152506146b5818361419b565b968901969450505090860190600101614637565b901515815260200190565b600060208252612f97602083018461419b565b6020808252600790820152661253959053125160ca1b604082015260600190565b60208082526015908201527410905510d208149154555154d50810d49150551151605a1b604082015260600190565b6060808252600a908201526915d2551211149055d05360b21b60808201526001600160a01b03929092166020830152604082015260a00190565b6020808252600f908201526e125394d551919250d2515395109053608a1b604082015260600190565b60608082526007908201526611115413d4d25560ca1b60808201526001600160a01b03929092166020830152604082015260a00190565b6060808252600890820152672a2920a729a322a960c11b60808201526001600160a01b03929092166020830152604082015260a00190565b6020808252600f908201526e149154555154d50810d49150551151608a1b604082015260600190565b602080825282516001600160a01b0316828201528201516080604083015260009061486060a084018261419b565b9050604084015160608401526060840151151560808401528091505092915050565b815181526020808301519082015260408083015190820152606080830151908201526080808301519082015260a0808301519082015260c0808301519082015260e0808301519082015261010080830151908201526101208083015190820152610140808301519082015261016091820151918101919091526101800190565b600060208252612f9760208301846141c7565b600060208252612f9760208301846141f0565b600060208252612f9760208301846142b9565b600060208252612f97602083018461431c565b90815260200190565b60005b8381101561497257818101518382015260200161495a565b83811115610d14575050600091015256fea2646970667358221220f55c727d88c6e6989a64804407be54d5d0a3e89dcfbb6dbe3cb909cf0fe9d0bd64736f6c63430007040033",
  "immutableReferences": {},
  "source": "// \"SPDX-License-Identifier: UNLICENSED\"\n// PRODUCT MANAGEMENT AND COST MANAGEMENT GOES HERE\npragma solidity >=0.6.2;\npragma experimental ABIEncoderV2;  \n\n  interface PharmaChainInterface {\n         function   strComp(string memory x , string memory y ) external pure returns (bool);\n         event      requestStateUpdate  (address indexed who, uint indexed timestamp , string  state);\n         event      BankTransact        (string txName, address indexed _from , address  _to , uint _amount , uint indexed timestamp);\n    }\n\n\ncontract PharmaChain {\n    \n  \n// CONTRACT CONTENT GOES HERE\n    \n    // UTILS\n    \n    function strComp(string memory x , string memory y ) public pure returns (bool){\n        \n        return (keccak256(abi.encodePacked((x))) == keccak256(abi.encodePacked((y))));\n        \n    }\n    \n    // END OF UTILS\n\n    \n    uint        trackNoCount = 0;\n    address     admin;\n    address     bank;\n    Material[]  materialArr;\n    Product[]   productArr;\n    mapping (address => bool)               participants;\n    mapping (address => Product[])          products;    // manufacturer and product\n    mapping (string => Specs[])             productSpecs; // productID and material \n    mapping (string => uint)                stdMaterialQty; // std mateiral qty used in product (id) unit\n    mapping (string => uint)                actMaterialQty; //  actual material qty used in product (id) unit \n    mapping (string => Product)             productList; // product by id\n    mapping (string => string[])            productPhase; // product id and phases;\n    mapping (address => Material[])         materials;   //Participant(supplier) and material\n    mapping (string => Material)            materialList; // materials by id\n    mapping (address => Request[])          requests;   // participant and requests\n    mapping (uint => Request)               requestList; // requests by id\n    mapping (address => BatchRequest[])     batchRequests; //participant and batch requests\n    mapping (uint => BatchRequest)          batchRequestsList; // request id\n    mapping (string => Cost)                standardProductCosts;\n    mapping (string => Cost)                actualProductCosts;\n    mapping (string => Cost)                flexibleProductCosts;\n    mapping (string => uint)                standardBudgetUnits;\n    mapping (string => uint)                actualBudgetUnits;\n    mapping (string => uint)                flexibleBudgetUnits;\n    mapping (uint => uint)                  requestCost;    // requestId and Cost\n    mapping (address => InventoryItem[])    inventory;   // participant and items inventory\n    mapping (string => InventoryItem)       inventoryList;   // inventory item by item id\n    mapping (address => mapping (address => BankAccount) ) userBankAccounts; // bankAddr -> userAddr -> userAcc\n    event   requestStateUpdate  (address indexed who, uint indexed timestamp , string  state);\n    event   BankTransact        (string txName, address indexed _from , address  _to , uint _amount , uint indexed timestamp);\n    \n    struct BankAccount {\n    \n        address userId;\n        string  userName;\n        uint    userBalance;\n        bool    isActive;\n    }\n    \n    struct Product {\n        \n        address manufacturer;\n        string  productId; //registration no.\n        string  productName;\n        string  productForm; // tablets or capsules\n        \n    }\n    \n    struct Material {\n        address supplier;\n        string  materialID;\n        string  materialName;\n        uint    materialStrength;\n        string  materialForm;\n        uint    createdAmount;\n        uint    unitCost;\n        string  storageConditions;\n        bool    materialStability;\n        uint    materialManuDate;\n        uint    materialStabilityPeriod; // example 3 years\n    }\n    \n    \n    struct Specs {\n        string  materialName;\n        string  materialType;\n        uint    materialAmount;\n        string  materialStrength;\n        string  materialForm;\n        \n    }\n\n    struct Request {\n        uint    requestId;\n        address fromParti;\n        address toParti;\n        string  materialID;\n        uint    amount;\n        uint    issueTime;\n    }\n    \n    struct BatchRequest {\n        uint    requestId;\n        address fromParti1;\n        address fromParti2;\n        address toParti;\n        string  materialID;\n        uint    amount;\n        uint    issueTime;\n    }\n    \n    // Cost Per Product Unit \n    struct Cost {\n        uint directMaterialCost;\n        uint packagingMaterialCost;\n        uint materialCostPerUnit; // cost per unit material\n        uint pkgCostPerUnit; // cost per unit packaging material\n        uint marketingCost;\n        uint researchCost;\n        uint directLaborCost;\n        uint ratePerWorkHr; // rate per work hour\n        uint workHrs;       // no of work hours\n        uint totalDirectCost;\n        uint CostTOT; // direct material + direct labor + total indirect\n        uint shippingCost; // shipping method cost \n    }\n    \n    \n    struct Location {\n        string Latitude;\n        string Longitude;\n    }\n    \n    struct InventoryItem {\n      string itemId;\n      uint   amount;\n    }\n    \n    // FUNCTIONS\n    \n    function emitRequestStateEvent(string memory _state) public {\n         emit requestStateUpdate(msg.sender, block.timestamp , _state);\n    }\n    // MANUFACTURING STUFF GOES HERE\n    \n    function addProduct(\n    \n    string memory _id,\n    string memory _name,\n    string memory _pForm\n    \n    ) public {\n        \n        Product memory pro = Product({\n            productId: _id,\n            productName: _name,\n            productForm: _pForm,\n            manufacturer: msg.sender\n        });\n        \n        products[msg.sender].push(pro);\n        productList[_id] = pro;\n        productArr.push(pro);\n        setProductPhase(_id, 'UNDER-RESEARCH');\n    \n        \n    }\n    \n    function addProductSpecs(\n    \n    string memory _productID,\n    string memory _name,\n    string memory _type,\n    string memory _strength,\n    string memory _form,\n    uint          _amount\n    \n    ) public {\n    \n        Specs memory spec = Specs({\n            materialName: _name,\n            materialType: _type,\n            materialForm: _form,\n            materialAmount: _amount,\n            materialStrength: _strength\n            \n        });      \n        \n        productSpecs[_productID].push(spec);\n        setStdMaterialQty(_productID);\n        setProductPhase(_productID , 'REGISTERED');\n        \n    }\n    \n      \n    function getProductsByManu(address _manufacturer) public view returns(Product[] memory) {\n        return products[_manufacturer];\n    }\n    \n    function getProducts() public view returns(Product[] memory) {\n        return productArr;\n    }\n    \n    function getProductById(string memory _id) public view returns(Product memory) {\n        return productList[_id];\n    }\n    \n    function getProductSpecs(string memory _product) public view returns(Specs[] memory) {\n        return productSpecs[_product];\n    }\n    \n    function setProductPhase(string memory _product , string memory _phase) public {\n        productPhase[_product].push(_phase);\n    }\n    \n    function getProductPhase(string memory _product) public view returns (string[] memory phases) {\n       return productPhase[_product];\n    }\n    \n    // END OF MANUFACTURING STUFF\n    // COST ACCOUNTING STUFF GOES HERE\n    \n    function setStdCostPlan(\n    \n    string  memory _product,\n    uint    _unitsNo,\n    uint    _pkgMatCost,\n    uint    _unitMaterialCost,\n    uint    _unitPkgCost,\n    uint    _ratePerHr,\n    uint    _workHrsNo,\n    uint    _mrkCost,\n    uint    _rsrchCost,\n    uint    _shipCost\n        ) public {\n    \n    uint matAmount = getStdMaterialQty(_product);\n    Cost memory stdCosts = Cost({\n        directMaterialCost: matAmount * _unitMaterialCost,\n        ratePerWorkHr: _ratePerHr,\n        materialCostPerUnit: _unitMaterialCost,\n        pkgCostPerUnit: _unitPkgCost,\n        workHrs: _workHrsNo,\n        directLaborCost: _ratePerHr * _workHrsNo,\n        totalDirectCost: 0,\n        packagingMaterialCost: _pkgMatCost,\n        marketingCost: _mrkCost,\n        researchCost: _rsrchCost,\n        shippingCost: _shipCost,\n        CostTOT: 0\n       \n    });\n    \n    standardProductCosts[_product] = stdCosts;\n    standardBudgetUnits[_product] = _unitsNo;\n    }\n    \n    \n    function setStdMaterialQty(string memory _product) public {\n        stdMaterialQty[_product] = productSpecs[_product][0].materialAmount;\n    }\n    \n    \n    function getStdCostPlan(string memory _product) public view returns(Cost memory) {\n        return standardProductCosts[_product];\n    }\n    \n    function getStdBudgetUnits(string memory _product) public view returns (uint units ) {\n        return standardBudgetUnits[_product];\n    }\n    \n    function getStdMaterialQty(string memory _product) public view returns (uint) {\n        return stdMaterialQty[_product];\n    }\n    \n    function setActualCost(\n    \n    string memory _product,\n    uint _unitsNo,\n    uint _actualPkgMatCost,\n    uint _unitMaterialCost,\n    uint _actualRatePerHr,\n    uint _actualPkgUnitCost,\n    uint _actualWorkHrsNo,\n    uint _actualMrkCost,\n    uint _actualRsrchCost,\n    uint _actualMatQty,\n    uint _actualShipCost\n    \n    ) public {\n        \n        setActualMaterialQty(_product,_actualMatQty);\n        Cost memory actualCosts = Cost({\n            directMaterialCost: _actualMatQty * _unitMaterialCost,\n            packagingMaterialCost: _actualPkgMatCost,\n            materialCostPerUnit: _unitMaterialCost,\n            pkgCostPerUnit: _actualPkgUnitCost,\n            totalDirectCost: 0,\n            ratePerWorkHr: _actualRatePerHr,\n            workHrs: _actualWorkHrsNo,\n            marketingCost: _actualMrkCost,\n            researchCost: _actualRsrchCost,\n            directLaborCost: _actualRatePerHr * _actualWorkHrsNo,\n            shippingCost: _actualShipCost,\n            CostTOT: 0\n        });\n        \n        actualProductCosts[_product] = actualCosts;\n        actualBudgetUnits[_product] = _unitsNo;\n        setProductPhase(_product, 'PRODUCTION-READY');\n    }\n    \n    \n    function getActualCost(string memory _product) public view returns(Cost memory) {\n        \n        return actualProductCosts[_product];\n    }\n    \n    function setActualMaterialQty (string memory _product , uint _amount) public {\n        actMaterialQty[_product] = _amount;\n    }\n    \n    function getActualMaterialQty (string memory _product) public view returns (uint) {\n        return actMaterialQty[_product];\n    }\n    \n    function getActualBudgetUnits(string memory _product) public view returns(uint units ) {\n        return actualBudgetUnits[_product];\n    }\n    \n    function setFlexibleCosts(\n    string memory _product,\n    uint _unitsNo,\n    uint _pkgUnitCost,\n    uint _unitMaterialCost,\n    uint _unitPkgCost,\n    uint _ratePerHr,\n    uint _workHrsNo,\n    uint _flexibleMrkCost,\n    uint _flexibleRsrchCost,\n    uint _flexibleShipCost\n    )\n    public {\n        \n        uint matAmount = getStdMaterialQty(_product);\n        Cost memory flex = Cost ({\n            directMaterialCost: matAmount * _unitMaterialCost,\n            packagingMaterialCost: _pkgUnitCost,\n            totalDirectCost: 0,\n            ratePerWorkHr: _ratePerHr,\n            workHrs: _workHrsNo,\n            materialCostPerUnit: _unitMaterialCost,\n            pkgCostPerUnit: _unitPkgCost,\n            marketingCost: _flexibleMrkCost,\n            researchCost: _flexibleRsrchCost,\n            directLaborCost:  _ratePerHr * _workHrsNo,\n            shippingCost: _flexibleShipCost,\n            CostTOT: 0\n        });\n        \n        flexibleProductCosts[_product] = flex;\n        flexibleBudgetUnits[_product] = _unitsNo;\n        \n    }\n    \n    function getFlexibleCosts(string memory _product) public view returns (Cost memory) {\n        return flexibleProductCosts[_product];\n    }\n    \n    function getFlexibleBudgetUnits(string memory _product) public view returns(uint units) {\n        return flexibleBudgetUnits[_product];\n    }\n    \n    // END OF  COST ACCOUNTING STUF\n    // SUPPLYING STUFF GOES HERE\n    \n    // Creation of Material By Supplier\n    \n    function createMaterial(\n    \n    string memory _id,\n    string memory _name,\n    uint          _str,\n    string memory _form,\n    uint          _amount,\n    uint          _unitCost,\n    string memory _storageConditions,\n    bool          _stability,\n    uint          _stabilityPeriod\n    \n    ) public {\n        \n        Material memory mat = Material({\n           supplier: msg.sender,\n           materialID:   _id,\n           materialName: _name,\n           materialForm: _form,\n           materialStrength: _str,\n           createdAmount: _amount,\n           unitCost:      _unitCost,\n           storageConditions: _storageConditions,\n           materialStability: _stability,\n           materialStabilityPeriod: _stabilityPeriod,\n           materialManuDate: block.timestamp\n        });\n\n        materials[msg.sender].push(mat);\n        materialList[_id] = mat;\n        materialArr.push(mat);\n        addToInventory(msg.sender, _id , _amount);\n        \n    }\n    \n    \n    function getMaterialsBySupplier(address _supplier) public view returns(Material[] memory ) {\n        return materials[_supplier];\n    }\n    \n    \n    // Materials to filter through\n    \n    function getMaterials() public view returns(Material[] memory) {\n        return materialArr;\n    }\n    \n    function getMaterialById (string memory _materialId) public view returns(Material memory) {\n        return materialList[_materialId];\n    }\n    \n\n    function createRequest(\n    \n    address _to ,\n    string memory _materialId,\n    uint _amount \n    )\n    public {\n        trackNoCount += 1;\n        Request memory req = Request({\n           requestId: trackNoCount,\n           fromParti: msg.sender,\n           toParti: _to,\n           materialID : _materialId,\n           amount: _amount,\n           issueTime: block.timestamp\n        });\n        \n        requestCost[req.requestId] = req.amount * materialList[_materialId].unitCost; \n        requests[msg.sender].push(req);\n        requestList[req.requestId] = req;\n        emit requestStateUpdate(msg.sender, block.timestamp , 'REQUEST CREATED');\n    }\n    \n    function createBatchRequest(\n    address _fromParti2,\n    address _to,\n    string memory _materialId,\n    uint _amount\n    ) \n    public {\n        trackNoCount += 1;\n        BatchRequest memory batchReq = BatchRequest({\n            requestId: trackNoCount,\n            fromParti1: msg.sender,\n            fromParti2: _fromParti2,\n            toParti: _to,\n            materialID: _materialId,\n            amount: _amount,\n            issueTime: block.timestamp\n        });\n        \n        requestCost[batchReq.requestId] = batchReq.amount * materialList[_materialId].unitCost;\n        batchRequestsList[batchReq.requestId] = batchReq;\n        batchRequests[msg.sender].push(batchReq);\n        emit requestStateUpdate(msg.sender, block.timestamp , 'BATCH REQUEST CREATED');\n        \n    }\n    \n    function getRequestCost(uint _id) public view returns(uint) {\n        return requestCost[_id];\n    }\n    \n    function getMyRequests() public view returns (Request[] memory) {\n        \n        return requests[msg.sender];\n    }\n    \n    function getMyBatchRequests() public view returns (BatchRequest[] memory) {\n        return batchRequests[msg.sender];\n    }\n    \n    function getRequestById(uint _id) public view returns (Request memory) {\n        return requestList[_id];\n    }\n    \n    function addToInventory(address _participant , string memory _item , uint _amount) public {\n        InventoryItem memory itm = InventoryItem({\n            itemId: _item,\n            amount: _amount\n        });\n        \n        inventory[_participant].push(itm);\n        inventoryList[_item] = itm;\n    }\n    \n    function updateInventory(address _participant , string memory _item , uint _amount) public {\n        \n        if(strComp(_item, inventory[_participant][0].itemId) ) {\n            inventory[_participant][0].amount = _amount;\n            inventoryList[_item].amount = _amount;\n            \n        }\n    }\n    \n    function getInventory(address _participant) public view returns (InventoryItem[] memory) {\n        return inventory[_participant];\n    }\n    \n    function getInventoryItemById(string memory _item) public view returns (InventoryItem memory) {\n        return inventoryList[_item];\n    }\n    \n    // END OF SUPPLYING STUFF\n    // BANKING STUFF GOES HERE\n    \n    function setAsBank(address _addr) public {\n        bank = _addr;\n        \n    }\n    \n    function getBank() public view returns (address) {\n        return bank;\n    }\n    \n    function createBankAccount(address _userAddr, string memory _userName) public {\n        \n        BankAccount memory account = BankAccount({\n            \n            userId:  _userAddr,\n            userName: _userName,\n            userBalance: 0,\n            isActive: true\n            \n        });\n        \n        userBankAccounts[bank][_userAddr] = account;\n        \n    }\n    \n    function hasBankAccount(address _userAddr) public view returns (bool) {\n        if (userBankAccounts[bank][_userAddr].isActive != false) {\n            return true;\n        }\n        else {\n            return false;\n        }\n    }\n    \n    function deposit (address _userAddr, uint _amount) public returns (bool) {\n        \n        require (_amount > 0, 'INVALID');\n        if ( userBankAccounts[bank][_userAddr].userId == _userAddr) {\n            uint balance = userBankAccounts[bank][_userAddr].userBalance;\n            balance += _amount;\n            userBankAccounts[bank][_userAddr].userBalance = balance;\n            emit BankTransact ('DEPOSIT', _userAddr , _userAddr , _amount , block.timestamp);\n            return true;\n        }\n        else {\n            return false;\n        }\n        \n    }\n    \n    function withdraw (address _userAddr, uint _amount) public returns (bool) {\n        \n        require(userBankAccounts[bank][_userAddr].userBalance > _amount , 'INSUFFICIENTBAL' );\n        if (userBankAccounts[bank][_userAddr].userId == _userAddr) {\n            \n            uint balance = userBankAccounts[bank][_userAddr].userBalance;\n            balance -= _amount;\n            userBankAccounts[bank][_userAddr].userBalance = balance;\n            emit BankTransact ('WITHDRAWAL', _userAddr , _userAddr , _amount , block.timestamp);\n            return true;\n        }\n        else {\n            return false;\n        }\n    }\n\n    function getBalance (address _userAddr) public view returns (uint x) {\n        \n         if (userBankAccounts[bank][_userAddr].userId == _userAddr) {\n             uint balance = userBankAccounts[bank][_userAddr].userBalance;\n             return balance;\n        }\n    }\n\n    \n    function transfer (address _from, address _to , uint _amount) public returns (bool) {\n        \n         require(userBankAccounts[bank][_from].userBalance >= _amount ,\n         'INSUFFICIENTBAL' );\n         \n        if (userBankAccounts[bank][_from].userId == _from && userBankAccounts[bank][_to].isActive == true) {\n            \n            uint fromBalance = userBankAccounts[bank][_from].userBalance;\n            uint toBalance = userBankAccounts[bank][_to].userBalance;\n            fromBalance -= _amount;\n            toBalance += _amount;\n            userBankAccounts[bank][_from].userBalance = fromBalance;\n            userBankAccounts[bank][_to].userBalance = toBalance;\n            emit BankTransact ('TRANSFER', _from , _to , _amount , block.timestamp);\n            return true;\n        }\n        else {\n            return false;\n        }\n        \n    }\n    \n    function getAccountDetails(address _account) public view returns (BankAccount memory) {\n        return userBankAccounts[bank][_account];\n    }\n    \n    \n    // END OF BANKING STUFF\n// END OF CONTRACT\n\n}",
  "sourcePath": "/home/mohamedkaram/Documents/Demo-sandbox/contracts/PharmaChain.sol",
  "compiler": {
    "name": "solc",
    "version": "0.7.4+commit.3f05b770.Emscripten.clang"
  },
  "schemaVersion": "3.3.3",
  "updatedAt": "2021-05-22T20:28:01.315Z",
  "networkType": "ethereum",
  "devdoc": {
    "kind": "dev",
    "methods": {},
    "version": 1
  },
  "userdoc": {
    "kind": "user",
    "methods": {},
    "version": 1
  }
}