{
  "contractName": "PreProduction",
  "abi": [
    {
      "inputs": [],
      "stateMutability": "nonpayable",
      "type": "constructor"
    },
    {
      "anonymous": false,
      "inputs": [
        {
          "indexed": false,
          "internalType": "address",
          "name": "_from",
          "type": "address"
        },
        {
          "indexed": false,
          "internalType": "address",
          "name": "_to",
          "type": "address"
        },
        {
          "indexed": false,
          "internalType": "string",
          "name": "_item",
          "type": "string"
        },
        {
          "indexed": false,
          "internalType": "uint256",
          "name": "_cost",
          "type": "uint256"
        }
      ],
      "name": "Purchase",
      "type": "event"
    },
    {
      "anonymous": false,
      "inputs": [
        {
          "indexed": false,
          "internalType": "string",
          "name": "actionName",
          "type": "string"
        },
        {
          "indexed": false,
          "internalType": "address",
          "name": "actionTaker",
          "type": "address"
        },
        {
          "indexed": false,
          "internalType": "uint256",
          "name": "timestamp",
          "type": "uint256"
        }
      ],
      "name": "SupplyAction",
      "type": "event"
    },
    {
      "inputs": [
        {
          "internalType": "address",
          "name": "_id",
          "type": "address"
        },
        {
          "internalType": "string",
          "name": "_name",
          "type": "string"
        }
      ],
      "name": "addManufacturer",
      "outputs": [
        {
          "internalType": "bool",
          "name": "",
          "type": "bool"
        }
      ],
      "stateMutability": "nonpayable",
      "type": "function"
    },
    {
      "inputs": [
        {
          "internalType": "address",
          "name": "_id",
          "type": "address"
        },
        {
          "internalType": "string",
          "name": "_name",
          "type": "string"
        }
      ],
      "name": "addSupplier",
      "outputs": [
        {
          "internalType": "bool",
          "name": "",
          "type": "bool"
        }
      ],
      "stateMutability": "nonpayable",
      "type": "function"
    },
    {
      "inputs": [
        {
          "internalType": "address",
          "name": "_id",
          "type": "address"
        }
      ],
      "name": "getManufacturer",
      "outputs": [
        {
          "components": [
            {
              "internalType": "address",
              "name": "manuID",
              "type": "address"
            },
            {
              "internalType": "string",
              "name": "manuName",
              "type": "string"
            },
            {
              "internalType": "enum PreProduction.participantStatus",
              "name": "manuStatus",
              "type": "uint8"
            }
          ],
          "internalType": "struct PreProduction.Manufacturer",
          "name": "",
          "type": "tuple"
        }
      ],
      "stateMutability": "view",
      "type": "function"
    },
    {
      "inputs": [
        {
          "internalType": "address",
          "name": "_id",
          "type": "address"
        }
      ],
      "name": "getSupplier",
      "outputs": [
        {
          "components": [
            {
              "internalType": "address",
              "name": "suppID",
              "type": "address"
            },
            {
              "internalType": "string",
              "name": "suppName",
              "type": "string"
            },
            {
              "internalType": "enum PreProduction.participantStatus",
              "name": "suppStatus",
              "type": "uint8"
            }
          ],
          "internalType": "struct PreProduction.Supplier",
          "name": "",
          "type": "tuple"
        }
      ],
      "stateMutability": "view",
      "type": "function"
    }
  ],
  "bytecode": "0x608060405234801561001057600080fd5b506040805180820190915260058152644d414e303160d81b602082015261004c9073b38795a83e8771ccf023dae4870f47a405dfb712906100e0565b5061009373f333028b8fc7a030f1186db50bcef0c0607c2cf26040518060400160405280600a815260200169535550504c494552303160b01b81525061017660201b60201c565b506100da73c3fab39340bcd389f7571c74405e7f8c1a5e201f6040518060400160405280600a81526020016929aaa8282624a2a9181960b11b81525061017660201b60201c565b50610274565b604080516060810182526001600160a01b03848116808352602080840186815260018587018190526000938452808352958320855181546001600160a01b03191695169490941784555180519295949392610140928487019201906101d3565b5060408201518160020160006101000a81548160ff0219169083600281111561016557fe5b021790555060019695505050505050565b604080516060810182526001600160a01b0384811680835260208084018681526001858701819052600093845260028352958320855181546001600160a01b03191695169490941784555180519295949392610140928487019201905b828054600181600116156101000203166002900490600052602060002090601f016020900481019282610209576000855561024f565b82601f1061022257805160ff191683800117855561024f565b8280016001018555821561024f579182015b8281111561024f578251825591602001919060010190610234565b5061025b92915061025f565b5090565b5b8082111561025b5760008155600101610260565b6105d1806102836000396000f3fe608060405234801561001057600080fd5b506004361061004c5760003560e01c8063191bcef6146100515780631c933a3e1461007a5780638a8e0a2e1461009a578063fe7009f2146100ad575b600080fd5b61006461005f36600461042a565b6100c0565b6040516100719190610588565b60405180910390f35b61008d61008836600461044b565b6101b5565b604051610071919061057d565b61008d6100a836600461044b565b61024c565b6100646100bb36600461042a565b6102ac565b6100c861033e565b6001600160a01b0382811660009081526001602081815260409283902083516060810185528154909516855280830180548551600261010096831615969096026000190190911694909404601f81018490048402850184019095528484529093858301939283018282801561017e5780601f106101535761010080835404028352916020019161017e565b820191906000526020600020905b81548152906001019060200180831161016157829003601f168201915b505050918352505060028281015460209092019160ff169081111561019f57fe5b60028111156101aa57fe5b90525090505b919050565b604080516060810182526001600160a01b0384811680835260208084018681526001858701819052600093845260028352958320855181546001600160a01b0319169516949094178455518051929594939261021692848701920190610372565b5060408201518160020160006101000a81548160ff0219169083600281111561023b57fe5b021790555060019695505050505050565b604080516060810182526001600160a01b03848116808352602080840186815260018587018190526000938452808352958320855181546001600160a01b0319169516949094178455518051929594939261021692848701920190610372565b6102b461033e565b6001600160a01b038281166000908152600260208181526040928390208351606081018552815490951685526001808201805486516101009382161593909302600019011694909404601f8101849004840282018401909552848152909385830193919283018282801561017e5780601f106101535761010080835404028352916020019161017e565b604051806060016040528060006001600160a01b03168152602001606081526020016000600281111561036d57fe5b905290565b828054600181600116156101000203166002900490600052602060002090601f0160209004810192826103a857600085556103ee565b82601f106103c157805160ff19168380011785556103ee565b828001600101855582156103ee579182015b828111156103ee5782518255916020019190600101906103d3565b506103fa9291506103fe565b5090565b5b808211156103fa57600081556001016103ff565b80356001600160a01b03811681146101b057600080fd5b60006020828403121561043b578081fd5b61044482610413565b9392505050565b6000806040838503121561045d578081fd5b61046683610413565b915060208084013567ffffffffffffffff80821115610483578384fd5b818601915086601f830112610496578384fd5b8135818111156104a257fe5b604051601f8201601f19168101850183811182821017156104bf57fe5b60405281815283820185018910156104d5578586fd5b81858501868301378585838301015280955050505050509250929050565b600381106104fd57fe5b9052565b600060018060a01b0382511683526020808301516060828601528051806060870152835b8181101561054157828101840151878201608001528301610525565b818111156105525784608083890101525b506040850151925061056760408701846104f3565b601f01601f191694909401608001949350505050565b901515815260200190565b600060208252610444602083018461050156fea264697066735822122039c8de8bc590b972cb6b9d0ef07af95257d5d88a016f3856fee84a97bdc857ad64736f6c63430007040033",
  "immutableReferences": {},
  "source": "// \"SPDX-License-Identifier: UNLICENSED\"\npragma solidity >=0.6.2;\npragma experimental ABIEncoderV2;\n\ncontract PreProduction {\n\n    //DATATYPES AND VARIABLES\n\n    enum participantStatus {PENDING, VERIFIED, BLACKLISTED}\n    enum materialStatus { CREATED, REQUESTED, SENT, DELIVERED , TERMINATED}\n    enum productStatus {REGISTERED, UNREGISTERED}\n\n    address        admin;\n\n    //MAPPINGS\n    mapping (address => Manufacturer) manufacturerList;\n    mapping (address => Supplier) supplierList;\n    mapping (string => Material) materialList;\n    mapping (string => Product) productList;\n    \n\n\n    //EVENTS\n    event Purchase (address _from , address _to , string _item, uint _cost );\n    event SupplyAction (string actionName, address actionTaker , uint timestamp);\n\n\n \n\n    // STRUCTURES\n    struct Manufacturer {\n        address  manuID;\n        string manuName;\n        participantStatus manuStatus;\n    }\n\n    struct Supplier {\n        address  suppID;\n        string suppName;\n        participantStatus suppStatus;\n    }\n\n    struct Material {\n        address creator;\n        string materialID;\n        string materialType;\n        string materialName;\n        string materialForm;\n        materialStatus currentMaterialStatus;\n    }\n\n    struct Product {\n        address manufacturer;\n        string registerNo;\n        string productName;\n        string manuDate;\n        string expDate;\n        productStatus currentProductStatus;\n    }\n\n\n    // FUNCTIONS AND MODIFIERS\n    constructor() {\n        admin == msg.sender;\n        addManufacturer(0xB38795a83e8771ccF023DaE4870F47A405dfB712,'MAN01');\n        addSupplier(0xf333028b8Fc7a030F1186Db50BceF0C0607c2CF2,'SUPPLIER01');\n        addSupplier(0xc3FAb39340BcD389f7571C74405E7F8C1a5E201F,'SUPPLIER02');\n    }\n\n    modifier onlyAdmin {\n        require (msg.sender == admin);\n        _;\n    }\n\n       function addManufacturer(\n        address _id,\n        string memory _name\n    ) public returns (bool) {\n        participantStatus defaultState = participantStatus.VERIFIED;\n        manufacturerList[_id] = Manufacturer(_id, _name, defaultState);\n        return true;\n    }\n\n     function addSupplier(\n        address _id,\n        string memory _name\n    ) public returns (bool) {\n        participantStatus defaultState = participantStatus.VERIFIED;\n        supplierList[_id] = Supplier(_id, _name, defaultState);\n        return true;\n    }\n    \n    // function verifyManufacturer(address _id) public onlyAdmin returns (bool ) {\n    //     manufacturerList[_id].manuStatus = participantStatus.VERIFIED;\n    //     return true;\n    // }\n\n    function getManufacturer(address _id) public view returns (Manufacturer memory) {\n        return manufacturerList[_id];\n    }\n\n     function getSupplier(address _id) public view returns (Supplier memory) {\n        return supplierList[_id];\n    }\n\n    // function getManuStatus(address _id) public view returns (participantStatus) {\n    //     return manufacturerList[_id].manuStatus;\n    // }\n\n\n    // function getSupplierStatus(address _id) public view returns (participantStatus) {\n    //     return supplierList[_id].suppStatus;\n    // }\n    \n\n\n\n\n}",
  "sourcePath": "/home/mohamedkaram/Documents/Demo-sandbox/contracts/PreProduction.sol",
  "compiler": {
    "name": "solc",
    "version": "0.7.4+commit.3f05b770.Emscripten.clang"
  },
  "schemaVersion": "3.3.3",
  "updatedAt": "2021-02-04T00:49:53.485Z",
  "devdoc": {
    "kind": "dev",
    "methods": {},
    "version": 1
  },
  "userdoc": {
    "kind": "user",
    "methods": {},
    "version": 1
  }
}