{
  "contractName": "Sandbox",
  "abi": [
    {
      "inputs": [],
      "stateMutability": "nonpayable",
      "type": "constructor"
    },
    {
      "anonymous": false,
      "inputs": [
        {
          "indexed": false,
          "internalType": "string",
          "name": "phaseName",
          "type": "string"
        },
        {
          "indexed": false,
          "internalType": "string",
          "name": "productDoneTo",
          "type": "string"
        },
        {
          "indexed": false,
          "internalType": "uint256",
          "name": "cost",
          "type": "uint256"
        }
      ],
      "name": "PhaseDone",
      "type": "event"
    },
    {
      "anonymous": false,
      "inputs": [
        {
          "indexed": false,
          "internalType": "string",
          "name": "eventName",
          "type": "string"
        },
        {
          "indexed": false,
          "internalType": "address",
          "name": "eventMaker",
          "type": "address"
        },
        {
          "indexed": false,
          "internalType": "uint256",
          "name": "timestamp",
          "type": "uint256"
        }
      ],
      "name": "SupplyEvent",
      "type": "event"
    },
    {
      "inputs": [
        {
          "internalType": "string",
          "name": "_id",
          "type": "string"
        },
        {
          "internalType": "string",
          "name": "_name",
          "type": "string"
        }
      ],
      "name": "addProduct",
      "outputs": [
        {
          "internalType": "bool",
          "name": "",
          "type": "bool"
        }
      ],
      "stateMutability": "nonpayable",
      "type": "function"
    },
    {
      "inputs": [
        {
          "internalType": "string",
          "name": "_product",
          "type": "string"
        }
      ],
      "name": "getProductDetails",
      "outputs": [
        {
          "internalType": "string",
          "name": "",
          "type": "string"
        },
        {
          "internalType": "enum Sandbox.SupplyStatus",
          "name": "",
          "type": "uint8"
        }
      ],
      "stateMutability": "view",
      "type": "function",
      "constant": true
    }
  ],
  "bytecode": "0x608060405268015af1d78b58c4000060005534801561001d57600080fd5b506105cc8061002d6000396000f3fe608060405234801561001057600080fd5b50600436106100365760003560e01c8063198c59b01461003b578063ca2efb5514610065575b600080fd5b61004e6100493660046103d8565b610085565b60405161005c9291906104c7565b60405180910390f35b610078610073366004610413565b610160565b60405161005c91906104bc565b6060600060048360405161009991906104a0565b90815260200160405180910390206003016004846040516100ba91906104a0565b908152604080516020928190038301812060040154845460026101006001831615026000190190911604601f810185900485028301850190935282825260ff1692909184918301828280156101505780601f1061012557610100808354040283529160200191610150565b820191906000526020600020905b81548152906001019060200180831161013357829003601f168201915b5050505050915091509150915091565b6040805160a0810182523380825260208201528082018490526060810183905260006080820181905291516004906101999086906104a0565b90815260408051918290036020908101909220835181546001600160a01b039182166001600160a01b03199182161783558585015160018401805491909316911617905590830151805191926101f7926002850192909101906102bd565b50606082015180516102139160038401916020909101906102bd565b5060808201518160040160006101000a81548160ff0219169083600481111561023857fe5b02179055509050507f1fd843833c3a264557557cefc5b5d0abcb59c595f95ca33e1be608dfdb5b4e26334260405161027192919061052f565b60405180910390a17fb848a88394b71f37e4e111ba7d9748452e99231e0c69fd460bc4e8d7b1d3dcb5836000546040516102ac9291906104f3565b60405180910390a150600192915050565b828054600181600116156101000203166002900490600052602060002090601f0160209004810192826102f35760008555610339565b82601f1061030c57805160ff1916838001178555610339565b82800160010185558215610339579182015b8281111561033957825182559160200191906001019061031e565b50610345929150610349565b5090565b5b80821115610345576000815560010161034a565b600082601f83011261036e578081fd5b813567ffffffffffffffff8082111561038357fe5b604051601f8301601f1916810160200182811182821017156103a157fe5b6040528281529250828483016020018610156103bc57600080fd5b8260208601602083013760006020848301015250505092915050565b6000602082840312156103e9578081fd5b813567ffffffffffffffff8111156103ff578182fd5b61040b8482850161035e565b949350505050565b60008060408385031215610425578081fd5b823567ffffffffffffffff8082111561043c578283fd5b6104488683870161035e565b9350602085013591508082111561045d578283fd5b5061046a8582860161035e565b9150509250929050565b6000815180845261048c816020860160208601610566565b601f01601f19169290920160200192915050565b600082516104b2818460208701610566565b9190910192915050565b901515815260200190565b6000604082526104da6040830185610474565b9050600583106104e657fe5b8260208301529392505050565b600060608252600360608301526214899160ea1b608083015260a0602083015261052060a0830185610474565b90508260408301529392505050565b60608082526007908201526610d4915055115160ca1b60808201526001600160a01b03929092166020830152604082015260a00190565b60005b83811015610581578181015183820152602001610569565b83811115610590576000848401525b5050505056fea2646970667358221220149e507eb4a07075d965eae1ce9249cd60fd71df5719856fefa437761655041364736f6c63430007040033",
  "immutableReferences": {},
  "source": "// \"SPDX-License-Identifier: UNLICENSED\"\npragma solidity >=0.6.2;\npragma experimental ABIEncoderV2;\n\ncontract Sandbox {\n    \n    // DATATYPES AND VARIABLES\n    uint phaseCost = 25 ether;\n    enum Status { LICENSED , UNLICENSED }\n    enum SupplyStatus {CREATED , REQUESTED , SENT , DELIVERED , TERMINATED}\n    \n    //EVENTS\n    event SupplyEvent (string eventName , address eventMaker , uint timestamp);\n    event PhaseDone (string phaseName, string productDoneTo , uint cost );\n    \n    \n    // MAPPINGS\n    mapping (address => Manufacturer) manufacturerList;\n    mapping (address => Supplier) supplierList;\n    mapping (string => Material[]) materialList;\n    mapping (string => Product) productList;\n    mapping (string => Material[]) productMaterials;\n    \n    // STRUCTURES \n    \n    struct Manufacturer {\n        address manufacturerID;\n        string  manufacturerName;\n        Status  manufacturerStatus;\n    }\n    \n    struct Supplier {\n        address supplierID;\n        string  supplierName;\n        Status  supplierStatus;\n    }\n    \n    struct Product {\n        address creator;\n        address currentOwner;\n        string  productID;\n        string  productName;\n        SupplyStatus  currentStatus;\n    }\n    \n    struct Material {\n        uint materialID;\n        string materialType;\n        string materialName;\n        string materialStrength;\n    }\n   \n \n    // FUNCTIONS \n    \n    constructor() {\n        \n    }\n    \n    function addProduct(string memory _id , string memory _name) public returns (bool) {\n        productList[_id] = Product (msg.sender, msg.sender , _id , _name , SupplyStatus.CREATED);\n        emit SupplyEvent ('CREATED', msg.sender , block.timestamp);\n        emit PhaseDone ('R&D' , _id , phaseCost );\n        return true;\n    }\n    \n    function getProductDetails (string memory _product) public view returns (string memory , SupplyStatus) {\n        return (productList[_product].productName, productList[_product].currentStatus);\n    }\n \n}",
  "sourcePath": "/home/mohamedkaram/Documents/Demo-sandbox/contracts/Sandbox.sol",
  "compiler": {
    "name": "solc",
    "version": "0.7.4+commit.3f05b770.Emscripten.clang"
  },
  "schemaVersion": "3.3.3",
  "updatedAt": "2021-02-04T00:50:27.611Z",
  "networkType": "ethereum",
  "devdoc": {
    "kind": "dev",
    "methods": {},
    "version": 1
  },
  "userdoc": {
    "kind": "user",
    "methods": {},
    "version": 1
  }
}