{
  "contractName": "test",
  "abi": [
    {
      "anonymous": false,
      "inputs": [
        {
          "indexed": false,
          "internalType": "string",
          "name": "txName",
          "type": "string"
        },
        {
          "indexed": true,
          "internalType": "address",
          "name": "_from",
          "type": "address"
        },
        {
          "indexed": false,
          "internalType": "address",
          "name": "_to",
          "type": "address"
        },
        {
          "indexed": false,
          "internalType": "uint256",
          "name": "_amount",
          "type": "uint256"
        },
        {
          "indexed": true,
          "internalType": "uint256",
          "name": "timestamp",
          "type": "uint256"
        }
      ],
      "name": "BankTransact",
      "type": "event"
    },
    {
      "anonymous": false,
      "inputs": [
        {
          "indexed": true,
          "internalType": "uint256",
          "name": "requestNo",
          "type": "uint256"
        },
        {
          "indexed": false,
          "internalType": "string",
          "name": "DataCategory",
          "type": "string"
        },
        {
          "indexed": false,
          "internalType": "string",
          "name": "dataValues",
          "type": "string"
        },
        {
          "indexed": true,
          "internalType": "uint256",
          "name": "timestamp",
          "type": "uint256"
        }
      ],
      "name": "DataSent",
      "type": "event"
    },
    {
      "anonymous": false,
      "inputs": [
        {
          "indexed": false,
          "internalType": "string",
          "name": "productId",
          "type": "string"
        },
        {
          "indexed": false,
          "internalType": "string",
          "name": "productName",
          "type": "string"
        },
        {
          "indexed": true,
          "internalType": "address",
          "name": "manufacturer",
          "type": "address"
        },
        {
          "indexed": false,
          "internalType": "string",
          "name": "state",
          "type": "string"
        },
        {
          "indexed": true,
          "internalType": "uint256",
          "name": "timestamp",
          "type": "uint256"
        }
      ],
      "name": "ProductStateUpdate",
      "type": "event"
    },
    {
      "anonymous": false,
      "inputs": [
        {
          "indexed": true,
          "internalType": "uint256",
          "name": "requestNo",
          "type": "uint256"
        },
        {
          "indexed": false,
          "internalType": "string",
          "name": "state",
          "type": "string"
        },
        {
          "indexed": true,
          "internalType": "uint256",
          "name": "timestamp",
          "type": "uint256"
        }
      ],
      "name": "ShipmentStateUpdate",
      "type": "event"
    },
    {
      "anonymous": false,
      "inputs": [
        {
          "indexed": true,
          "internalType": "address",
          "name": "who",
          "type": "address"
        },
        {
          "indexed": true,
          "internalType": "uint256",
          "name": "timestamp",
          "type": "uint256"
        },
        {
          "indexed": false,
          "internalType": "string",
          "name": "state",
          "type": "string"
        }
      ],
      "name": "requestStateUpdate",
      "type": "event"
    },
    {
      "inputs": [
        {
          "internalType": "string",
          "name": "x",
          "type": "string"
        },
        {
          "internalType": "string",
          "name": "y",
          "type": "string"
        }
      ],
      "name": "strComp",
      "outputs": [
        {
          "internalType": "bool",
          "name": "",
          "type": "bool"
        }
      ],
      "stateMutability": "pure",
      "type": "function",
      "constant": true
    },
    {
      "inputs": [
        {
          "internalType": "string",
          "name": "_id",
          "type": "string"
        },
        {
          "internalType": "string",
          "name": "_name",
          "type": "string"
        },
        {
          "internalType": "string",
          "name": "_pForm",
          "type": "string"
        }
      ],
      "name": "addProduct",
      "outputs": [],
      "stateMutability": "nonpayable",
      "type": "function"
    },
    {
      "inputs": [
        {
          "internalType": "string",
          "name": "_productID",
          "type": "string"
        },
        {
          "internalType": "string",
          "name": "_name",
          "type": "string"
        },
        {
          "internalType": "string",
          "name": "_type",
          "type": "string"
        },
        {
          "internalType": "string",
          "name": "_strength",
          "type": "string"
        },
        {
          "internalType": "string",
          "name": "_form",
          "type": "string"
        },
        {
          "internalType": "uint256",
          "name": "_amount",
          "type": "uint256"
        }
      ],
      "name": "addProductSpecs",
      "outputs": [],
      "stateMutability": "nonpayable",
      "type": "function"
    },
    {
      "inputs": [
        {
          "internalType": "address",
          "name": "_manufacturer",
          "type": "address"
        }
      ],
      "name": "getProductsByManu",
      "outputs": [
        {
          "components": [
            {
              "internalType": "address",
              "name": "manufacturer",
              "type": "address"
            },
            {
              "internalType": "string",
              "name": "productId",
              "type": "string"
            },
            {
              "internalType": "string",
              "name": "productName",
              "type": "string"
            },
            {
              "internalType": "string",
              "name": "productForm",
              "type": "string"
            },
            {
              "internalType": "uint256",
              "name": "productBudget",
              "type": "uint256"
            }
          ],
          "internalType": "struct test.Product[]",
          "name": "",
          "type": "tuple[]"
        }
      ],
      "stateMutability": "view",
      "type": "function",
      "constant": true
    },
    {
      "inputs": [],
      "name": "getProducts",
      "outputs": [
        {
          "components": [
            {
              "internalType": "address",
              "name": "manufacturer",
              "type": "address"
            },
            {
              "internalType": "string",
              "name": "productId",
              "type": "string"
            },
            {
              "internalType": "string",
              "name": "productName",
              "type": "string"
            },
            {
              "internalType": "string",
              "name": "productForm",
              "type": "string"
            },
            {
              "internalType": "uint256",
              "name": "productBudget",
              "type": "uint256"
            }
          ],
          "internalType": "struct test.Product[]",
          "name": "",
          "type": "tuple[]"
        }
      ],
      "stateMutability": "view",
      "type": "function",
      "constant": true
    },
    {
      "inputs": [
        {
          "internalType": "string",
          "name": "_id",
          "type": "string"
        }
      ],
      "name": "getProductById",
      "outputs": [
        {
          "components": [
            {
              "internalType": "address",
              "name": "manufacturer",
              "type": "address"
            },
            {
              "internalType": "string",
              "name": "productId",
              "type": "string"
            },
            {
              "internalType": "string",
              "name": "productName",
              "type": "string"
            },
            {
              "internalType": "string",
              "name": "productForm",
              "type": "string"
            },
            {
              "internalType": "uint256",
              "name": "productBudget",
              "type": "uint256"
            }
          ],
          "internalType": "struct test.Product",
          "name": "",
          "type": "tuple"
        }
      ],
      "stateMutability": "view",
      "type": "function",
      "constant": true
    },
    {
      "inputs": [
        {
          "internalType": "string",
          "name": "_product",
          "type": "string"
        }
      ],
      "name": "getProductSpecs",
      "outputs": [
        {
          "components": [
            {
              "internalType": "string",
              "name": "materialName",
              "type": "string"
            },
            {
              "internalType": "string",
              "name": "materialType",
              "type": "string"
            },
            {
              "internalType": "uint256",
              "name": "materialAmount",
              "type": "uint256"
            },
            {
              "internalType": "string",
              "name": "materialStrength",
              "type": "string"
            },
            {
              "internalType": "string",
              "name": "materialForm",
              "type": "string"
            }
          ],
          "internalType": "struct test.Specs[]",
          "name": "",
          "type": "tuple[]"
        }
      ],
      "stateMutability": "view",
      "type": "function",
      "constant": true
    },
    {
      "inputs": [
        {
          "internalType": "string",
          "name": "_product",
          "type": "string"
        },
        {
          "internalType": "uint256",
          "name": "_unitsNo",
          "type": "uint256"
        },
        {
          "internalType": "uint256",
          "name": "_directMatCost",
          "type": "uint256"
        },
        {
          "internalType": "uint256",
          "name": "_pkgMatCost",
          "type": "uint256"
        },
        {
          "internalType": "uint256",
          "name": "_directLaborCost",
          "type": "uint256"
        },
        {
          "internalType": "uint256",
          "name": "_totIndirectCosts",
          "type": "uint256"
        },
        {
          "internalType": "uint256",
          "name": "_mrkCost",
          "type": "uint256"
        },
        {
          "internalType": "uint256",
          "name": "_rsrchCost",
          "type": "uint256"
        },
        {
          "internalType": "uint256",
          "name": "_productBudget",
          "type": "uint256"
        }
      ],
      "name": "setStdCostPlan",
      "outputs": [],
      "stateMutability": "nonpayable",
      "type": "function"
    },
    {
      "inputs": [
        {
          "internalType": "string",
          "name": "_product",
          "type": "string"
        },
        {
          "internalType": "uint256",
          "name": "_budget",
          "type": "uint256"
        }
      ],
      "name": "setProductBudget",
      "outputs": [],
      "stateMutability": "nonpayable",
      "type": "function"
    },
    {
      "inputs": [
        {
          "internalType": "string",
          "name": "_product",
          "type": "string"
        }
      ],
      "name": "getStdCostPlan",
      "outputs": [
        {
          "components": [
            {
              "internalType": "uint256",
              "name": "directMaterialCost",
              "type": "uint256"
            },
            {
              "internalType": "uint256",
              "name": "packagingMaterialCost",
              "type": "uint256"
            },
            {
              "internalType": "uint256",
              "name": "marketingCost",
              "type": "uint256"
            },
            {
              "internalType": "uint256",
              "name": "researchCost",
              "type": "uint256"
            },
            {
              "internalType": "uint256",
              "name": "directLaborCost",
              "type": "uint256"
            },
            {
              "internalType": "uint256",
              "name": "totalIndirectCost",
              "type": "uint256"
            },
            {
              "internalType": "uint256",
              "name": "totalDirectCost",
              "type": "uint256"
            },
            {
              "internalType": "uint256",
              "name": "CostTOT",
              "type": "uint256"
            }
          ],
          "internalType": "struct test.Cost",
          "name": "",
          "type": "tuple"
        }
      ],
      "stateMutability": "view",
      "type": "function",
      "constant": true
    },
    {
      "inputs": [
        {
          "internalType": "string",
          "name": "_product",
          "type": "string"
        }
      ],
      "name": "getStdBudgetUnits",
      "outputs": [
        {
          "internalType": "uint256",
          "name": "units",
          "type": "uint256"
        }
      ],
      "stateMutability": "view",
      "type": "function",
      "constant": true
    },
    {
      "inputs": [
        {
          "internalType": "string",
          "name": "_product",
          "type": "string"
        },
        {
          "internalType": "uint256",
          "name": "_unitsNo",
          "type": "uint256"
        },
        {
          "internalType": "uint256",
          "name": "_actualMatCost",
          "type": "uint256"
        },
        {
          "internalType": "uint256",
          "name": "_actualPkgMatCost",
          "type": "uint256"
        },
        {
          "internalType": "uint256",
          "name": "_actualLaborCost",
          "type": "uint256"
        },
        {
          "internalType": "uint256",
          "name": "_actualIndirectCost",
          "type": "uint256"
        },
        {
          "internalType": "uint256",
          "name": "_actualMrkCost",
          "type": "uint256"
        },
        {
          "internalType": "uint256",
          "name": "_actualRsrchCost",
          "type": "uint256"
        }
      ],
      "name": "setActualCost",
      "outputs": [],
      "stateMutability": "nonpayable",
      "type": "function"
    },
    {
      "inputs": [
        {
          "internalType": "string",
          "name": "_product",
          "type": "string"
        }
      ],
      "name": "getActualCost",
      "outputs": [
        {
          "components": [
            {
              "internalType": "uint256",
              "name": "directMaterialCost",
              "type": "uint256"
            },
            {
              "internalType": "uint256",
              "name": "packagingMaterialCost",
              "type": "uint256"
            },
            {
              "internalType": "uint256",
              "name": "marketingCost",
              "type": "uint256"
            },
            {
              "internalType": "uint256",
              "name": "researchCost",
              "type": "uint256"
            },
            {
              "internalType": "uint256",
              "name": "directLaborCost",
              "type": "uint256"
            },
            {
              "internalType": "uint256",
              "name": "totalIndirectCost",
              "type": "uint256"
            },
            {
              "internalType": "uint256",
              "name": "totalDirectCost",
              "type": "uint256"
            },
            {
              "internalType": "uint256",
              "name": "CostTOT",
              "type": "uint256"
            }
          ],
          "internalType": "struct test.Cost",
          "name": "",
          "type": "tuple"
        }
      ],
      "stateMutability": "view",
      "type": "function",
      "constant": true
    },
    {
      "inputs": [
        {
          "internalType": "string",
          "name": "_product",
          "type": "string"
        }
      ],
      "name": "getActualBudgetUnits",
      "outputs": [
        {
          "internalType": "uint256",
          "name": "units",
          "type": "uint256"
        }
      ],
      "stateMutability": "view",
      "type": "function",
      "constant": true
    },
    {
      "inputs": [
        {
          "internalType": "string",
          "name": "_product",
          "type": "string"
        },
        {
          "internalType": "uint256",
          "name": "_unitsNo",
          "type": "uint256"
        }
      ],
      "name": "setFlexibleBudgetUnits",
      "outputs": [],
      "stateMutability": "nonpayable",
      "type": "function"
    },
    {
      "inputs": [
        {
          "internalType": "string",
          "name": "_product",
          "type": "string"
        }
      ],
      "name": "getFlexibleBudgetUnits",
      "outputs": [
        {
          "internalType": "uint256",
          "name": "units",
          "type": "uint256"
        }
      ],
      "stateMutability": "view",
      "type": "function",
      "constant": true
    },
    {
      "inputs": [
        {
          "internalType": "string",
          "name": "_product",
          "type": "string"
        },
        {
          "internalType": "uint256",
          "name": "_avgMatUnitCost",
          "type": "uint256"
        },
        {
          "internalType": "uint256",
          "name": "_avgPkgUnitCost",
          "type": "uint256"
        },
        {
          "internalType": "uint256",
          "name": "_avgLaborUnitCost",
          "type": "uint256"
        },
        {
          "internalType": "uint256",
          "name": "_avgIndirectManuUnitCost",
          "type": "uint256"
        },
        {
          "internalType": "uint256",
          "name": "_flexibleMrkCost",
          "type": "uint256"
        },
        {
          "internalType": "uint256",
          "name": "_flexibleRsrchCost",
          "type": "uint256"
        }
      ],
      "name": "setFlexibleCosts",
      "outputs": [],
      "stateMutability": "nonpayable",
      "type": "function"
    },
    {
      "inputs": [
        {
          "internalType": "string",
          "name": "_product",
          "type": "string"
        }
      ],
      "name": "getFlexibleCosts",
      "outputs": [
        {
          "components": [
            {
              "internalType": "uint256",
              "name": "directMaterialCost",
              "type": "uint256"
            },
            {
              "internalType": "uint256",
              "name": "packagingMaterialCost",
              "type": "uint256"
            },
            {
              "internalType": "uint256",
              "name": "marketingCost",
              "type": "uint256"
            },
            {
              "internalType": "uint256",
              "name": "researchCost",
              "type": "uint256"
            },
            {
              "internalType": "uint256",
              "name": "directLaborCost",
              "type": "uint256"
            },
            {
              "internalType": "uint256",
              "name": "totalIndirectCost",
              "type": "uint256"
            },
            {
              "internalType": "uint256",
              "name": "totalDirectCost",
              "type": "uint256"
            },
            {
              "internalType": "uint256",
              "name": "CostTOT",
              "type": "uint256"
            }
          ],
          "internalType": "struct test.Cost",
          "name": "",
          "type": "tuple"
        }
      ],
      "stateMutability": "view",
      "type": "function",
      "constant": true
    },
    {
      "inputs": [
        {
          "internalType": "string",
          "name": "_id",
          "type": "string"
        },
        {
          "internalType": "string",
          "name": "_name",
          "type": "string"
        },
        {
          "internalType": "uint256",
          "name": "_str",
          "type": "uint256"
        },
        {
          "internalType": "string",
          "name": "_form",
          "type": "string"
        },
        {
          "internalType": "uint256",
          "name": "_amount",
          "type": "uint256"
        },
        {
          "internalType": "uint256",
          "name": "_unitCost",
          "type": "uint256"
        }
      ],
      "name": "createMaterial",
      "outputs": [],
      "stateMutability": "nonpayable",
      "type": "function"
    },
    {
      "inputs": [
        {
          "internalType": "address",
          "name": "_supplier",
          "type": "address"
        }
      ],
      "name": "getMaterialsBySupplier",
      "outputs": [
        {
          "components": [
            {
              "internalType": "address",
              "name": "supplier",
              "type": "address"
            },
            {
              "internalType": "string",
              "name": "materialID",
              "type": "string"
            },
            {
              "internalType": "string",
              "name": "materialName",
              "type": "string"
            },
            {
              "internalType": "uint256",
              "name": "materialStrength",
              "type": "uint256"
            },
            {
              "internalType": "string",
              "name": "materialForm",
              "type": "string"
            },
            {
              "internalType": "uint256",
              "name": "createdAmount",
              "type": "uint256"
            },
            {
              "internalType": "uint256",
              "name": "unitCost",
              "type": "uint256"
            }
          ],
          "internalType": "struct test.Material[]",
          "name": "",
          "type": "tuple[]"
        }
      ],
      "stateMutability": "view",
      "type": "function",
      "constant": true
    },
    {
      "inputs": [],
      "name": "getMaterials",
      "outputs": [
        {
          "components": [
            {
              "internalType": "address",
              "name": "supplier",
              "type": "address"
            },
            {
              "internalType": "string",
              "name": "materialID",
              "type": "string"
            },
            {
              "internalType": "string",
              "name": "materialName",
              "type": "string"
            },
            {
              "internalType": "uint256",
              "name": "materialStrength",
              "type": "uint256"
            },
            {
              "internalType": "string",
              "name": "materialForm",
              "type": "string"
            },
            {
              "internalType": "uint256",
              "name": "createdAmount",
              "type": "uint256"
            },
            {
              "internalType": "uint256",
              "name": "unitCost",
              "type": "uint256"
            }
          ],
          "internalType": "struct test.Material[]",
          "name": "",
          "type": "tuple[]"
        }
      ],
      "stateMutability": "view",
      "type": "function",
      "constant": true
    },
    {
      "inputs": [
        {
          "internalType": "string",
          "name": "_materialId",
          "type": "string"
        }
      ],
      "name": "getMaterialById",
      "outputs": [
        {
          "components": [
            {
              "internalType": "address",
              "name": "supplier",
              "type": "address"
            },
            {
              "internalType": "string",
              "name": "materialID",
              "type": "string"
            },
            {
              "internalType": "string",
              "name": "materialName",
              "type": "string"
            },
            {
              "internalType": "uint256",
              "name": "materialStrength",
              "type": "uint256"
            },
            {
              "internalType": "string",
              "name": "materialForm",
              "type": "string"
            },
            {
              "internalType": "uint256",
              "name": "createdAmount",
              "type": "uint256"
            },
            {
              "internalType": "uint256",
              "name": "unitCost",
              "type": "uint256"
            }
          ],
          "internalType": "struct test.Material",
          "name": "",
          "type": "tuple"
        }
      ],
      "stateMutability": "view",
      "type": "function",
      "constant": true
    },
    {
      "inputs": [
        {
          "internalType": "address",
          "name": "_to",
          "type": "address"
        },
        {
          "internalType": "string",
          "name": "_materialId",
          "type": "string"
        },
        {
          "internalType": "uint256",
          "name": "_amount",
          "type": "uint256"
        }
      ],
      "name": "createRequest",
      "outputs": [],
      "stateMutability": "nonpayable",
      "type": "function"
    },
    {
      "inputs": [
        {
          "internalType": "address",
          "name": "_fromParti2",
          "type": "address"
        },
        {
          "internalType": "address",
          "name": "_to",
          "type": "address"
        },
        {
          "internalType": "string",
          "name": "_materialId",
          "type": "string"
        },
        {
          "internalType": "uint256",
          "name": "_amount",
          "type": "uint256"
        }
      ],
      "name": "createBatchRequest",
      "outputs": [],
      "stateMutability": "nonpayable",
      "type": "function"
    },
    {
      "inputs": [
        {
          "internalType": "uint256",
          "name": "_id",
          "type": "uint256"
        }
      ],
      "name": "getRequestCost",
      "outputs": [
        {
          "internalType": "uint256",
          "name": "",
          "type": "uint256"
        }
      ],
      "stateMutability": "view",
      "type": "function",
      "constant": true
    },
    {
      "inputs": [],
      "name": "getMyRequests",
      "outputs": [
        {
          "components": [
            {
              "internalType": "uint256",
              "name": "requestId",
              "type": "uint256"
            },
            {
              "internalType": "address",
              "name": "fromParti",
              "type": "address"
            },
            {
              "internalType": "address",
              "name": "toParti",
              "type": "address"
            },
            {
              "internalType": "string",
              "name": "materialID",
              "type": "string"
            },
            {
              "internalType": "uint256",
              "name": "amount",
              "type": "uint256"
            },
            {
              "internalType": "uint256",
              "name": "issueTime",
              "type": "uint256"
            }
          ],
          "internalType": "struct test.Request[]",
          "name": "",
          "type": "tuple[]"
        }
      ],
      "stateMutability": "view",
      "type": "function",
      "constant": true
    },
    {
      "inputs": [],
      "name": "getMyBatchRequests",
      "outputs": [
        {
          "components": [
            {
              "internalType": "uint256",
              "name": "requestId",
              "type": "uint256"
            },
            {
              "internalType": "address",
              "name": "fromParti1",
              "type": "address"
            },
            {
              "internalType": "address",
              "name": "fromParti2",
              "type": "address"
            },
            {
              "internalType": "address",
              "name": "toParti",
              "type": "address"
            },
            {
              "internalType": "string",
              "name": "materialID",
              "type": "string"
            },
            {
              "internalType": "uint256",
              "name": "amount",
              "type": "uint256"
            },
            {
              "internalType": "uint256",
              "name": "issueTime",
              "type": "uint256"
            }
          ],
          "internalType": "struct test.BatchRequest[]",
          "name": "",
          "type": "tuple[]"
        }
      ],
      "stateMutability": "view",
      "type": "function",
      "constant": true
    },
    {
      "inputs": [
        {
          "internalType": "uint256",
          "name": "_id",
          "type": "uint256"
        }
      ],
      "name": "getRequestById",
      "outputs": [
        {
          "components": [
            {
              "internalType": "uint256",
              "name": "requestId",
              "type": "uint256"
            },
            {
              "internalType": "address",
              "name": "fromParti",
              "type": "address"
            },
            {
              "internalType": "address",
              "name": "toParti",
              "type": "address"
            },
            {
              "internalType": "string",
              "name": "materialID",
              "type": "string"
            },
            {
              "internalType": "uint256",
              "name": "amount",
              "type": "uint256"
            },
            {
              "internalType": "uint256",
              "name": "issueTime",
              "type": "uint256"
            }
          ],
          "internalType": "struct test.Request",
          "name": "",
          "type": "tuple"
        }
      ],
      "stateMutability": "view",
      "type": "function",
      "constant": true
    },
    {
      "inputs": [
        {
          "internalType": "address",
          "name": "_participant",
          "type": "address"
        },
        {
          "internalType": "string",
          "name": "_item",
          "type": "string"
        },
        {
          "internalType": "uint256",
          "name": "_amount",
          "type": "uint256"
        }
      ],
      "name": "addToInventory",
      "outputs": [],
      "stateMutability": "nonpayable",
      "type": "function"
    },
    {
      "inputs": [
        {
          "internalType": "address",
          "name": "_participant",
          "type": "address"
        },
        {
          "internalType": "string",
          "name": "_item",
          "type": "string"
        },
        {
          "internalType": "uint256",
          "name": "_amount",
          "type": "uint256"
        }
      ],
      "name": "updateInventory",
      "outputs": [],
      "stateMutability": "nonpayable",
      "type": "function"
    },
    {
      "inputs": [
        {
          "internalType": "address",
          "name": "_participant",
          "type": "address"
        }
      ],
      "name": "getInventory",
      "outputs": [
        {
          "components": [
            {
              "internalType": "string",
              "name": "itemId",
              "type": "string"
            },
            {
              "internalType": "uint256",
              "name": "amount",
              "type": "uint256"
            }
          ],
          "internalType": "struct test.InventoryItem[]",
          "name": "",
          "type": "tuple[]"
        }
      ],
      "stateMutability": "view",
      "type": "function",
      "constant": true
    },
    {
      "inputs": [
        {
          "internalType": "address",
          "name": "_addr",
          "type": "address"
        }
      ],
      "name": "setAsBank",
      "outputs": [],
      "stateMutability": "nonpayable",
      "type": "function"
    },
    {
      "inputs": [],
      "name": "getBank",
      "outputs": [
        {
          "internalType": "address",
          "name": "",
          "type": "address"
        }
      ],
      "stateMutability": "view",
      "type": "function",
      "constant": true
    },
    {
      "inputs": [
        {
          "internalType": "address",
          "name": "_userAddr",
          "type": "address"
        },
        {
          "internalType": "string",
          "name": "_userName",
          "type": "string"
        }
      ],
      "name": "createBankAccount",
      "outputs": [],
      "stateMutability": "nonpayable",
      "type": "function"
    },
    {
      "inputs": [
        {
          "internalType": "address",
          "name": "_userAddr",
          "type": "address"
        }
      ],
      "name": "hasBankAccount",
      "outputs": [
        {
          "internalType": "bool",
          "name": "",
          "type": "bool"
        }
      ],
      "stateMutability": "view",
      "type": "function",
      "constant": true
    },
    {
      "inputs": [
        {
          "internalType": "address",
          "name": "_userAddr",
          "type": "address"
        },
        {
          "internalType": "uint256",
          "name": "_amount",
          "type": "uint256"
        }
      ],
      "name": "deposit",
      "outputs": [
        {
          "internalType": "bool",
          "name": "",
          "type": "bool"
        }
      ],
      "stateMutability": "nonpayable",
      "type": "function"
    },
    {
      "inputs": [
        {
          "internalType": "address",
          "name": "_userAddr",
          "type": "address"
        },
        {
          "internalType": "uint256",
          "name": "_amount",
          "type": "uint256"
        }
      ],
      "name": "withdraw",
      "outputs": [
        {
          "internalType": "bool",
          "name": "",
          "type": "bool"
        }
      ],
      "stateMutability": "nonpayable",
      "type": "function"
    },
    {
      "inputs": [
        {
          "internalType": "address",
          "name": "_userAddr",
          "type": "address"
        }
      ],
      "name": "getBalance",
      "outputs": [
        {
          "internalType": "uint256",
          "name": "x",
          "type": "uint256"
        }
      ],
      "stateMutability": "view",
      "type": "function",
      "constant": true
    },
    {
      "inputs": [
        {
          "internalType": "address",
          "name": "_from",
          "type": "address"
        },
        {
          "internalType": "address",
          "name": "_to",
          "type": "address"
        },
        {
          "internalType": "uint256",
          "name": "_amount",
          "type": "uint256"
        }
      ],
      "name": "transfer",
      "outputs": [
        {
          "internalType": "bool",
          "name": "",
          "type": "bool"
        }
      ],
      "stateMutability": "nonpayable",
      "type": "function"
    },
    {
      "inputs": [
        {
          "internalType": "address",
          "name": "_account",
          "type": "address"
        }
      ],
      "name": "getAccountDetails",
      "outputs": [
        {
          "components": [
            {
              "internalType": "address",
              "name": "userId",
              "type": "address"
            },
            {
              "internalType": "string",
              "name": "userName",
              "type": "string"
            },
            {
              "internalType": "uint256",
              "name": "userBalance",
              "type": "uint256"
            },
            {
              "internalType": "bool",
              "name": "isActive",
              "type": "bool"
            }
          ],
          "internalType": "struct test.BankAccount",
          "name": "",
          "type": "tuple"
        }
      ],
      "stateMutability": "view",
      "type": "function",
      "constant": true
    },
    {
      "inputs": [
        {
          "internalType": "uint256",
          "name": "_requestId",
          "type": "uint256"
        }
      ],
      "name": "approveRequest",
      "outputs": [],
      "stateMutability": "nonpayable",
      "type": "function"
    },
    {
      "inputs": [
        {
          "internalType": "uint256",
          "name": "_id",
          "type": "uint256"
        }
      ],
      "name": "verifyShipmentState",
      "outputs": [
        {
          "internalType": "string",
          "name": "",
          "type": "string"
        }
      ],
      "stateMutability": "nonpayable",
      "type": "function"
    },
    {
      "inputs": [
        {
          "internalType": "uint256",
          "name": "_requestId",
          "type": "uint256"
        }
      ],
      "name": "sendShipment",
      "outputs": [],
      "stateMutability": "nonpayable",
      "type": "function"
    },
    {
      "inputs": [
        {
          "internalType": "uint256",
          "name": "_requestId",
          "type": "uint256"
        }
      ],
      "name": "globalTransitShipment",
      "outputs": [],
      "stateMutability": "nonpayable",
      "type": "function"
    },
    {
      "inputs": [
        {
          "internalType": "uint256",
          "name": "_requestId",
          "type": "uint256"
        }
      ],
      "name": "localTransitShipment",
      "outputs": [],
      "stateMutability": "nonpayable",
      "type": "function"
    },
    {
      "inputs": [
        {
          "internalType": "uint256",
          "name": "_requestId",
          "type": "uint256"
        }
      ],
      "name": "receiveShipment",
      "outputs": [],
      "stateMutability": "nonpayable",
      "type": "function"
    },
    {
      "inputs": [
        {
          "internalType": "uint256",
          "name": "_requestId",
          "type": "uint256"
        },
        {
          "internalType": "string",
          "name": "_requestStatus",
          "type": "string"
        },
        {
          "internalType": "string",
          "name": "_shipmentStatus",
          "type": "string"
        },
        {
          "internalType": "string",
          "name": "_description",
          "type": "string"
        }
      ],
      "name": "createLog",
      "outputs": [],
      "stateMutability": "nonpayable",
      "type": "function"
    },
    {
      "inputs": [
        {
          "internalType": "uint256",
          "name": "_id",
          "type": "uint256"
        },
        {
          "internalType": "uint256",
          "name": "_temp",
          "type": "uint256"
        },
        {
          "internalType": "uint256",
          "name": "_humid",
          "type": "uint256"
        }
      ],
      "name": "setShipmentTrackData",
      "outputs": [],
      "stateMutability": "nonpayable",
      "type": "function"
    },
    {
      "inputs": [
        {
          "internalType": "uint256",
          "name": "_id",
          "type": "uint256"
        }
      ],
      "name": "getShipmentTrackData",
      "outputs": [
        {
          "internalType": "uint256[]",
          "name": "temp",
          "type": "uint256[]"
        },
        {
          "internalType": "uint256[]",
          "name": "humid",
          "type": "uint256[]"
        }
      ],
      "stateMutability": "view",
      "type": "function",
      "constant": true
    },
    {
      "inputs": [
        {
          "internalType": "uint256",
          "name": "_request",
          "type": "uint256"
        }
      ],
      "name": "getTrackLogs",
      "outputs": [
        {
          "components": [
            {
              "internalType": "address",
              "name": "logger",
              "type": "address"
            },
            {
              "internalType": "string",
              "name": "requestStatus",
              "type": "string"
            },
            {
              "internalType": "string",
              "name": "description",
              "type": "string"
            },
            {
              "internalType": "string",
              "name": "shipmentStatus",
              "type": "string"
            },
            {
              "internalType": "uint256",
              "name": "logTime",
              "type": "uint256"
            }
          ],
          "internalType": "struct test.Log[]",
          "name": "",
          "type": "tuple[]"
        }
      ],
      "stateMutability": "view",
      "type": "function",
      "constant": true
    },
    {
      "inputs": [
        {
          "internalType": "uint256",
          "name": "_id",
          "type": "uint256"
        },
        {
          "internalType": "string",
          "name": "_lat",
          "type": "string"
        },
        {
          "internalType": "string",
          "name": "_long",
          "type": "string"
        }
      ],
      "name": "setShipmentLocation",
      "outputs": [],
      "stateMutability": "nonpayable",
      "type": "function"
    },
    {
      "inputs": [
        {
          "internalType": "uint256",
          "name": "_id",
          "type": "uint256"
        }
      ],
      "name": "getShipmentLocation",
      "outputs": [
        {
          "components": [
            {
              "internalType": "string",
              "name": "Latitude",
              "type": "string"
            },
            {
              "internalType": "string",
              "name": "Longitude",
              "type": "string"
            }
          ],
          "internalType": "struct test.Location[]",
          "name": "",
          "type": "tuple[]"
        }
      ],
      "stateMutability": "view",
      "type": "function",
      "constant": true
    },
    {
      "inputs": [
        {
          "internalType": "uint256",
          "name": "_id",
          "type": "uint256"
        },
        {
          "internalType": "string",
          "name": "_method",
          "type": "string"
        }
      ],
      "name": "setShipmentMethod",
      "outputs": [],
      "stateMutability": "nonpayable",
      "type": "function"
    },
    {
      "inputs": [
        {
          "internalType": "uint256",
          "name": "_id",
          "type": "uint256"
        }
      ],
      "name": "getShipmentMethod",
      "outputs": [
        {
          "internalType": "string",
          "name": "",
          "type": "string"
        }
      ],
      "stateMutability": "view",
      "type": "function",
      "constant": true
    }
  ],
  "bytecode": "0x60806040526201c4c86002556028600355603260045534801561002157600080fd5b50615f9580620000326000396000f3fe608060405234801561001057600080fd5b50600436106103425760003560e01c80635280ae1d116101b857806391eace8b11610104578063c29b2f20116100a2578063de67ef8a1161007c578063de67ef8a146107bc578063f3fef3a3146107cf578063f8b2cb4f146107e2578063fd91dcca146107f557610342565b8063c29b2f2014610781578063c933a2ad14610796578063d7d1bbdb146107a957610342565b806398de5cef116100de57806398de5cef146107275780639a5328891461073a578063a45aebfe1461075b578063beabacc81461076e57610342565b806391eace8b146106df5780639366c641146106f45780639684447b1461070757610342565b80636e3162a7116101715780637fe54a101161014b5780637fe54a101461069157806380dfedcd146106a45780638b87c544146106ac5780638c0c2568146106cc57610342565b80636e3162a71461064b5780636eac3eb81461065e5780637f5cf16e1461067157610342565b80635280ae1d146105d757806353196363146105ea5780635518cad0146105fd57806359c8351f1461061057806360d704db14610623578063692546211461063857610342565b806326757b731161029257806343ffb9a61161023057806347e7ef241161020a57806347e7ef241461057c57806348c18e231461059c5780634cd9cc3d146105af578063502bdedd146105c457610342565b806343ffb9a614610543578063460d729a14610556578063477dec5d1461056957610342565b80632ff0c8df1161026c5780632ff0c8df146104ea5780633c0b276c146104fd5780633f20197814610510578063420777de1461053057610342565b806326757b73146104975780632aceb534146104b75780632fc81916146104d757610342565b806312917b8e116102ff5780631f94d0e7116102d95780631f94d0e71461043e5780632031947f146104515780632352d4aa1461046457806324d295131461048457610342565b806312917b8e146103eb578063130ff11d1461040b5780631799e0391461042b57610342565b806306177b4e146103475780630828009314610370578063096a71e2146103855780630b4fb06d146103a55780630e34b00e146103b8578063126a403b146103cb575b600080fd5b61035a610355366004614b59565b610808565b6040516103679190615742565b60405180910390f35b61038361037e366004614f5e565b610a6b565b005b610398610393366004614cd9565b610b95565b6040516103679190615d58565b6103836103b33660046150fd565b610c1e565b6103836103c6366004614d69565b610f79565b6103de6103d93660046150fd565b611249565b604051610367919061592a565b6103fe6103f93660046150fd565b61133d565b60405161036791906156e2565b61041e610419366004614cd9565b61157d565b6040516103679190615dea565b6103de6104393660046150fd565b6115a5565b61039861044c366004614cd9565b611646565b61038361045f36600461507f565b61165e565b610477610472366004614cd9565b611759565b6040516103679190615dc4565b610383610492366004615174565b611964565b6104aa6104a53660046150fd565b611a6a565b6040516103679190615dd7565b6104ca6104c5366004614b59565b611b63565b6040516103679190615d08565b6103836104e5366004614c11565b611c5e565b6103836104f8366004614f5e565b611d07565b61038361050b3660046150fd565b611d2c565b61052361051e366004614cd9565b6120e7565b6040516103679190615db1565b61038361053e3660046150fd565b612306565b610383610551366004614c5c565b612391565b610383610564366004614fa0565b612555565b610383610577366004614b59565b61264c565b61058f61058a366004614cb0565b61266e565b604051610367919061591f565b61041e6105aa366004614cd9565b612754565b6105b7612766565b604051610367919061554f565b6103836105d2366004615201565b6128ae565b61058f6105e5366004614b59565b612a0e565b6103836105f8366004614c5c565b612a54565b61038361060b366004614b73565b612b12565b61058f61061e366004614d13565b612d01565b61062b612d5a565b604051610367919061553b565b61038361064636600461500b565b612d69565b610383610659366004614ebf565b612edf565b61039861066c366004614cd9565b613184565b61068461067f366004614cd9565b61319c565b604051610367919061583b565b61038361069f3660046150fd565b613472565b61035a6134f3565b6106bf6106ba366004614b59565b613736565b6040516103679190615609565b6103836106da366004615143565b613834565b6106e76138a5565b60405161036791906157e8565b610383610702366004614c5c565b6139d8565b61071a6107153660046150fd565b613acd565b604051610367919061566e565b61041e610735366004614cd9565b613c60565b61074d6107483660046150fd565b613c72565b6040516103679291906158f1565b610383610769366004615115565b613d37565b61058f61077c366004614bd6565b613d56565b610789613ece565b6040516103679190615795565b61041e6107a43660046150fd565b6140fd565b6103836107b73660046150fd565b61410f565b6107896107ca366004614b59565b6141fc565b61058f6107dd366004614cb0565b61443f565b61041e6107f0366004614b59565b61452d565b610383610803366004614dec565b614595565b6001600160a01b0381166000908152600d60209081526040808320805482518185028101850190935280835260609492939192909184015b82821015610a5f5760008481526020908190206040805160e0810182526007860290920180546001600160a01b03168352600180820180548451600261010094831615949094026000190190911692909204601f8101879004870283018701909452838252939491938583019391929091908301828280156109035780601f106108d857610100808354040283529160200191610903565b820191906000526020600020905b8154815290600101906020018083116108e657829003601f168201915b5050509183525050600282810180546040805160206001841615610100026000190190931694909404601f810183900483028501830190915280845293810193908301828280156109955780601f1061096a57610100808354040283529160200191610995565b820191906000526020600020905b81548152906001019060200180831161097857829003601f168201915b5050509183525050600382015460208083019190915260048301805460408051601f60026000196101006001871615020190941693909304928301859004850281018501825282815294019392830182828015610a335780601f10610a0857610100808354040283529160200191610a33565b820191906000526020600020905b815481529060010190602001808311610a1657829003601f168201915b505050505081526020016005820154815260200160068201548152505081526020019060010190610840565b5050505090505b919050565b336000908152600a602052604081208054610b3892859291610a8957fe5b90600052602060002090600502016001018054600181600116156101000203166002900480601f016020809104026020016040519081016040528092919081815260200182805460018160011615610100020316600290048015610b2e5780601f10610b0357610100808354040283529160200191610b2e565b820191906000526020600020905b815481529060010190602001808311610b1157829003601f168201915b5050505050612d01565b15610b9157336000908152600a602052604081208054839290610b5757fe5b90600052602060002090600502016004018190555080600c83604051610b7d919061546c565b908152604051908190036020019020600401555b5050565b610b9d61482f565b601782604051610bad919061546c565b908152602001604051809103902060405180610100016040529081600082015481526020016001820154815260200160028201548152602001600382015481526020016004820154815260200160058201548152602001600682015481526020016007820154815250509050919050565b6060602060106000848152602001908152602001600020600301604051610c4591906154cb565b9081526040805160209281900383018120805460026001821615610100026000190190911604601f81018590048502830185019093528282529092909190830182828015610cd45780601f10610ca957610100808354040283529160200191610cd4565b820191906000526020600020905b815481529060010190602001808311610cb757829003601f168201915b5050506000858152601060209081526040918290206003018054835160026001831615610100026000190190921691909104601f810184900484028201840190945283815295965060609594509250830182828015610d745780601f10610d4957610100808354040283529160200191610d74565b820191906000526020600020905b815481529060010190602001808311610d5757829003601f168201915b5050506000868152601060209081526040808320600481015491519697509295909450909250610da791600301906154cb565b9081526020016040518091039020600101540390506060610dc785611249565b9050610e14856040518060400160405280600f81526020016e141050d2d051d14810d49150551151608a1b815250836040518060600160405280603e8152602001615e99603e9139611964565b42336001600160a01b0316600080516020615e30833981519152604051610e3a90615b2b565b60405180910390a3610e8e856040518060400160405280601081526020016f4f555420464f52205348495050494e4760801b81525083604051806060016040528060228152602001615e7760229139611964565b42336001600160a01b0316600080516020615e30833981519152604051610eb490615caf565b60405180910390a3610ec68484612d01565b15610f72576000858152601060209081526040918290206003018054835160026001831615610100026000190190921691909104601f8101849004840282018401909452838152610f72933393919291830182828015610f675780601f10610f3c57610100808354040283529160200191610f67565b820191906000526020600020905b815481529060010190602001808311610f4a57829003601f168201915b5050505050846139d8565b5050505050565b610f81614874565b506040805160a08101825233808252602080830187815283850187905260608401869052600060808501819052928352600a825293822080546001808201835591845292829020845160059094020180546001600160a01b0319166001600160a01b0390941693909317835593518051939485946110069391850192909101906148ac565b50604082015180516110229160028401916020909101906148ac565b506060820151805161103e9160038401916020909101906148ac565b5060808201518160040155505080600c8560405161105c919061546c565b90815260405160209181900382019020825181546001600160a01b0319166001600160a01b0390911617815582820151805191926110a2926001850192909101906148ac565b50604082015180516110be9160028401916020909101906148ac565b50606082015180516110da9160038401916020909101906148ac565b50608091909101516004909101556006805460018101825560009190915281517ff652222313e28459528d920b65115c16c04f3efc82aaedc97be59f3f377c0d3f600590920291820180546001600160a01b0319166001600160a01b039092169190911781556020808401518051859461117a937ff652222313e28459528d920b65115c16c04f3efc82aaedc97be59f3f377c0d409091019201906148ac565b50604082015180516111969160028401916020909101906148ac565b50606082015180516111b29160038401916020909101906148ac565b5060808201518160040155505042600c856040516111d0919061546c565b908152604051908190036020018120546001600160a01b0316907fab3ffcc3d1502cb968fba2d1de4bd32afdcf99aaa6c3f52f50d0da2466159cc9908790600c9061121c90839061546c565b908152602001604051809103902060020160405161123b92919061593d565b60405180910390a350505050565b60608060035460076001600780549050038154811061126457fe5b906000526020600020015410158061129a575060045460088054600019810190811061128c57fe5b906000526020600020015410155b156112ee576040518060400160405280600881526020016710509393d493505360c21b81525090504283600080516020615f40833981519152836040516112e1919061592a565b60405180910390a3611337565b604051806040016040528060068152602001651393d493505360d21b81525090504283600080516020615f408339815191528360405161132e919061592a565b60405180910390a35b92915050565b606060136000838152602001908152602001600020805480602002602001604051908101604052809291908181526020016000905b82821015610a5f5760008481526020908190206040805160a0810182526005860290920180546001600160a01b03168352600180820180548451600261010094831615949094026000190190911692909204601f8101879004870283018701909452838252939491938583019391929091908301828280156114355780601f1061140a57610100808354040283529160200191611435565b820191906000526020600020905b81548152906001019060200180831161141857829003601f168201915b5050509183525050600282810180546040805160206001841615610100026000190190931694909404601f810183900483028501830190915280845293810193908301828280156114c75780601f1061149c576101008083540402835291602001916114c7565b820191906000526020600020905b8154815290600101906020018083116114aa57829003601f168201915b505050918352505060038201805460408051602060026001851615610100026000190190941693909304601f810184900484028201840190925281815293820193929183018282801561155b5780601f106115305761010080835404028352916020019161155b565b820191906000526020600020905b81548152906001019060200180831161153e57829003601f168201915b5050505050815260200160048201548152505081526020019060010190611372565b600060198260405161158f919061546c565b9081526020016040518091039020549050919050565b6000818152601e602090815260409182902080548351601f600260001961010060018616150201909316929092049182018490048402810184019094528084526060939283018282801561163a5780601f1061160f5761010080835404028352916020019161163a565b820191906000526020600020905b81548152906001019060200180831161161d57829003601f168201915b50505050509050919050565b61164e61482f565b601882604051610bad919061546c565b61166661482f565b60405180610100016040528089815260200188815260200185815260200184815260200187815260200186815260200187898b010181526020018486888a8c8e010101010181525090508060168b6040516116c1919061546c565b9081526020016040518091039020600082015181600001556020820151816001015560408201518160020155606082015181600301556080820151816004015560a0820151816005015560c0820151816006015560e082015181600701559050508860198b604051611733919061546c565b9081526040519081900360200190205561174d8a83610a6b565b50505050505050505050565b611761614874565b600c82604051611771919061546c565b908152604080516020928190038301812060a08201835280546001600160a01b03168252600180820180548551600261010094831615949094026000190190911692909204601f8101879004870283018701909552848252929491938286019391928301828280156118245780601f106117f957610100808354040283529160200191611824565b820191906000526020600020905b81548152906001019060200180831161180757829003601f168201915b5050509183525050600282810180546040805160206001841615610100026000190190931694909404601f810183900483028501830190915280845293810193908301828280156118b65780601f1061188b576101008083540402835291602001916118b6565b820191906000526020600020905b81548152906001019060200180831161189957829003601f168201915b505050918352505060038201805460408051602060026001851615610100026000190190941693909304601f810184900484028201840190925281815293820193929183018282801561194a5780601f1061191f5761010080835404028352916020019161194a565b820191906000526020600020905b81548152906001019060200180831161192d57829003601f168201915b505050505081526020016004820154815250509050919050565b61196c614874565b506040805160a08101825233815260208082018681528284018590526060830186905242608084015260008881526013835293842080546001808201835591865294839020845160059096020180546001600160a01b0319166001600160a01b03909616959095178555905180519394859490936119ee9385019201906148ac565b5060408201518051611a0a9160028401916020909101906148ac565b5060608201518051611a269160038401916020909101906148ac565b5060808201518160040155505042336001600160a01b0316600080516020615e3083398151915286604051611a5b919061592a565b60405180910390a35050505050565b611a72614938565b600082815260106020908152604091829020825160c081018452815481526001808301546001600160a01b03908116838601526002808501549091168387015260038401805487516101009482161594909402600019011691909104601f810186900486028301860190965285825291949293606086019391929190830182828015611b3f5780601f10611b1457610100808354040283529160200191611b3f565b820191906000526020600020905b815481529060010190602001808311611b2257829003601f168201915b50505050508152602001600482015481526020016005820154815250509050919050565b611b6b614980565b600180546001600160a01b039081166000908152602160209081526040808320878516845282529182902082516080810184528154909416845280850180548451600261010098831615989098026000190190911696909604601f810184900484028701840190945283865293949093858301939192909190830182828015611c355780601f10611c0a57610100808354040283529160200191611c35565b820191906000526020600020905b815481529060010190602001808311611c1857829003601f168201915b50505091835250506002820154602082015260039091015460ff16151560409091015292915050565b611c66614980565b50604080516080810182526001600160a01b03848116808352602080840186815260008587018190526001606087018190528054861682526021845287822094825293835295909520845181546001600160a01b03191694169390931783559351805193948594611cdd93850192909101906148ac565b50604082015160028201556060909101516003909101805460ff1916911515919091179055505050565b80601b83604051611d18919061546c565b908152604051908190036020019020555050565b336000908152601f60205260408120805460609290611d4757fe5b60009182526020918290206002918202018054604080516001831615610100026000190190921693909304601f810185900485028201850190935282815292909190830182828015611dda5780601f10611daf57610100808354040283529160200191611dda565b820191906000526020600020905b815481529060010190602001808311611dbd57829003601f168201915b5050506000858152601060209081526040918290206003018054835160026001831615610100026000190190921691909104601f810184900484028201840190945283815295965060609594509250830182828015611e7a5780601f10611e4f57610100808354040283529160200191611e7a565b820191906000526020600020905b815481529060010190602001808311611e5d57829003601f168201915b5050506000868152601060209081526040808320600481015491519697509295909450909250611ead91600301906154cb565b9081526020016040518091039020600101540190506060611ecd85611249565b9050611f14856040518060400160405280600981526020016811115312559154915160ba1b81525083604051806060016040528060288152602001615ed760289139611964565b42336001600160a01b0316600080516020615e30833981519152604051611f3a90615aa6565b60405180910390a36000858152601c60209081526040808320546010909252909120600101546002820490910390611f7c906001600160a01b03163383613d56565b50611f878585612d01565b15612038576000868152601060209081526040918290206003018054835160026001831615610100026000190190921691909104601f81018490048402820184019094528381526120339333939192918301828280156120285780601f10611ffd57610100808354040283529160200191612028565b820191906000526020600020905b81548152906001019060200180831161200b57829003601f168201915b5050505050856139d8565b6120df565b6000868152601060209081526040918290206003018054835160026001831615610100026000190190921691909104601f81018490048402820184019094528381526120df9333939192918301828280156120d45780601f106120a9576101008083540402835291602001916120d4565b820191906000526020600020905b8154815290600101906020018083116120b757829003601f168201915b505050505085612a54565b505050505050565b6120ef6149b3565b600e826040516120ff919061546c565b908152604080516020928190038301812060e08201835280546001600160a01b03168252600180820180548551600261010094831615949094026000190190911692909204601f8101879004870283018701909552848252929491938286019391928301828280156121b25780601f10612187576101008083540402835291602001916121b2565b820191906000526020600020905b81548152906001019060200180831161219557829003601f168201915b5050509183525050600282810180546040805160206001841615610100026000190190931694909404601f810183900483028501830190915280845293810193908301828280156122445780601f1061221957610100808354040283529160200191612244565b820191906000526020600020905b81548152906001019060200180831161222757829003601f168201915b5050509183525050600382015460208083019190915260048301805460408051601f600260001961010060018716150201909416939093049283018590048502810185018252828152940193928301828280156122e25780601f106122b7576101008083540402835291602001916122e2565b820191906000526020600020905b8154815290600101906020018083116122c557829003601f168201915b50505050508152602001600582015481526020016006820154815250509050919050565b606061231182611249565b905061235f826040518060400160405280601081526020016f5348495050494e47205041434b41474560801b81525083604051806060016040528060278152602001615e5060279139611964565b42336001600160a01b0316600080516020615e3083398151915260405161238590615a3a565b60405180910390a35050565b600280546106250190556123a3614938565b506040805160c08101825260025481523360208201526001600160a01b0385168183015260608101849052608081018390524260a08201529051600e906123eb90859061546c565b9081526040805160209281900383019020600690810154608085015185516000908152601c8652848120919092029055338152600f8452828120805460018082018355918352918590208651929093029092019081558484015191810180546001600160a01b03199081166001600160a01b0394851617909155928501516002820180549094169216919091179091556060830151805184936124959260038501929101906148ac565b506080820151600482015560a090910151600590910155805160009081526010602090815260409182902083518155818401516001820180546001600160a01b03199081166001600160a01b039384161790915593850151600283018054909516911617909255606083015180518493926125179260038501929101906148ac565b506080820151816004015560a0820151816005015590505042336001600160a01b0316600080516020615e3083398151915260405161123b90615c86565b6000601b88604051612567919061546c565b908152602001604051809103902054905061258061482f565b50604080516101008101825288830280825288840260208301819052828401879052606083018690528885026080840181905288860260a085018190529190920190910160c08301819052018501840160e0820152905181906018906125e7908c9061546c565b9081526040805160209281900383019020835181559183015160018301558201516002820155606082015160038201556080820151600482015560a0820151600582015560c0820151600682015560e090910151600790910155505050505050505050565b600180546001600160a01b0319166001600160a01b0392909216919091179055565b60008082116126985760405162461bcd60e51b815260040161268f90615a65565b60405180910390fd5b6001546001600160a01b039081166000908152602160209081526040808320848816808552925290912054909116141561274b576001546001600160a01b039081166000908152602160209081526040808320938716808452939091529081902060020180548501908190559051909142917f11cccc9b3fbc8fd163c4dbf6c7afdce1433c5cf351f29596a006f3720f648c20906127399088908890615bed565b60405180910390a36001915050611337565b50600092915050565b6000601a8260405161158f919061546c565b336000908152601160209081526040808320805482518185028101850190935280835260609492939192909184015b828210156128a55760008481526020908190206040805160e08101825260078602909201805483526001808201546001600160a01b03908116858701526002808401548216868601526003840154909116606086015260048301805485516101009482161594909402600019011691909104601f810187900487028301870190945283825293949193608086019391929091908301828280156128795780601f1061284e57610100808354040283529160200191612879565b820191906000526020600020905b81548152906001019060200180831161285c57829003601f168201915b505050505081526020016005820154815260200160068201548152505081526020019060010190612795565b50505050905090565b600083815260146020908152604080832080546001818101835591855283852001869055600780548083019091557fa66cc928b5edb82af9bd49922954155ab7b0942694bea4ce44661d9a8736c6880186905586845260158352908320805480830182559084529183209091018390556008805491820181559091527ff3f7a9fe364faab93b216da50a3214154f22a0a2b415b23a84c8169e8b636ee30181905542837fc24fbc7c79d304f65a1b1b66e3853d937b8c0d27f0bf19d25f0fed26de016a8761298c61297e86614700565b61298786614700565b6147e1565b6040516129999190615b54565b60405180910390a3600354821015806129b457506004548110155b156129e3574283600080516020615f408339815191526040516129d690615ce6565b60405180910390a3612a09565b4283600080516020615f40833981519152604051612a0090615a86565b60405180910390a35b505050565b6001546001600160a01b03908116600090815260216020908152604080832093851683529290529081206003015460ff1615612a4c57506001610a66565b506000610a66565b612a5c6149f9565b5060408051808201825283815260208082018490526001600160a01b0386166000908152601f82529283208054600181018255908452928190208251805193948594600290910290920192612ab6928492909101906148ac565b5060208201518160010155505080602084604051612ad4919061546c565b90815260200160405180910390206000820151816000019080519060200190612afe9291906148ac565b506020820151816001015590505050505050565b600280546108d0019055612b24614a13565b506040805160e08101825260025481523360208201526001600160a01b0386811682840152851660608201526080810184905260a081018390524260c08201529051600e90612b7490859061546c565b90815260408051602092819003830190206006015460a084015184516000908152601c8552838120919092029055835181526012835281902083518155838301516001820180546001600160a01b03199081166001600160a01b03938416179091559285015160028301805485169183169190911790556060850151600383018054909416911617909155608083015180518493612c199260048501929101906148ac565b5060a0820151600582015560c0909101516006909101553360009081526011602090815260408083208054600180820183559185529383902085516007909502019384558483015190840180546001600160a01b03199081166001600160a01b03938416179091559185015160028501805484169183169190911790556060850151600385018054909316911617905560808301518051849392612cc49260048501929101906148ac565b5060a0820151816005015560c08201518160060155505042336001600160a01b0316600080516020615e30833981519152604051611a5b90615ad2565b600081604051602001612d14919061546c565b6040516020818303038152906040528051906020012083604051602001612d3b919061546c565b6040516020818303038152906040528051906020012014905092915050565b6001546001600160a01b031690565b612d7161482f565b60405180610100016040528088815260200187815260200184815260200183815260200186815260200185815260200186888a01018152602001838587898b8d010101010181525090508060178a604051612dcc919061546c565b9081526020016040518091039020600082015181600001556020820151816001015560408201518160020155606082015181600301556080820151816004015560a0820151816005015560c0820151816006015560e0820151816007015590505087601a8a604051612e3e919061546c565b90815260200160405180910390208190555042600c8a604051612e61919061546c565b908152604051908190036020018120546001600160a01b0316907fab3ffcc3d1502cb968fba2d1de4bd32afdcf99aaa6c3f52f50d0da2466159cc9908c90600c90612ead90839061546c565b9081526020016040518091039020600201604051612ecc929190615992565b60405180910390a3505050505050505050565b612ee76149b3565b506040805160e0810182523380825260208083018a81528385018a9052606084018990526080840188905260a0840187905260c084018690526000928352600d825293822080546001808201835591845292829020845160079094020180546001600160a01b0319166001600160a01b039094169390931783559351805193948594612f7a9391850192909101906148ac565b5060408201518051612f969160028401916020909101906148ac565b506060820151600382015560808201518051612fbc9160048401916020909101906148ac565b5060a0820151816005015560c08201518160060155505080600e88604051612fe4919061546c565b90815260405160209181900382019020825181546001600160a01b0319166001600160a01b03909116178155828201518051919261302a926001850192909101906148ac565b50604082015180516130469160028401916020909101906148ac565b50606082015160038201556080820151805161306c9160048401916020909101906148ac565b5060a082015160058281019190915560c090920151600690910155805460018101825560009190915281517f036b6384b5eca791c62761152d0c79bb0604c104a5fb6f4eb0703f3154bb3db0600790920291820180546001600160a01b0319166001600160a01b0390921691909117815560208084015180518594613117937f036b6384b5eca791c62761152d0c79bb0604c104a5fb6f4eb0703f3154bb3db19091019201906148ac565b50604082015180516131339160028401916020909101906148ac565b5060608201516003820155608082015180516131599160048401916020909101906148ac565b5060a0820151816005015560c08201518160060155505061317b338885612a54565b50505050505050565b61318c61482f565b601682604051610bad919061546c565b6060600b826040516131ae919061546c565b9081526020016040518091039020805480602002602001604051908101604052809291908181526020016000905b82821015610a5f5760008481526020908190206040805160058602909201805460026001821615610100026000190190911604601f8101859004909402830160c090810190925260a08301848152929390928492909184918401828280156132855780601f1061325a57610100808354040283529160200191613285565b820191906000526020600020905b81548152906001019060200180831161326857829003601f168201915b50505050508152602001600182018054600181600116156101000203166002900480601f0160208091040260200160405190810160405280929190818152602001828054600181600116156101000203166002900480156133275780601f106132fc57610100808354040283529160200191613327565b820191906000526020600020905b81548152906001019060200180831161330a57829003601f168201915b505050918352505060028281015460208084019190915260038401805460408051601f600019610100600186161502019093169590950491820184900484028501840181528185529094019390918301828280156133c65780601f1061339b576101008083540402835291602001916133c6565b820191906000526020600020905b8154815290600101906020018083116133a957829003601f168201915b505050918352505060048201805460408051602060026001851615610100026000190190941693909304601f810184900484028201840190925281815293820193929183018282801561345a5780601f1061342f5761010080835404028352916020019161345a565b820191906000526020600020905b81548152906001019060200180831161343d57829003601f168201915b505050505081525050815260200190600101906131dc565b606061347d82611249565b90506134cd8260405180604001604052806012815260200171524541445920464f522044454c495645525960701b81525083604051806080016040528060418152602001615eff60419139611964565b42336001600160a01b0316600080516020615e3083398151915260405161238590615c5c565b60606005805480602002602001604051908101604052809291908181526020016000905b828210156128a55760008481526020908190206040805160e0810182526007860290920180546001600160a01b03168352600180820180548451600261010094831615949094026000190190911692909204601f8101879004870283018701909452838252939491938583019391929091908301828280156135da5780601f106135af576101008083540402835291602001916135da565b820191906000526020600020905b8154815290600101906020018083116135bd57829003601f168201915b5050509183525050600282810180546040805160206001841615610100026000190190931694909404601f8101839004830285018301909152808452938101939083018282801561366c5780601f106136415761010080835404028352916020019161366c565b820191906000526020600020905b81548152906001019060200180831161364f57829003601f168201915b5050509183525050600382015460208083019190915260048301805460408051601f6002600019610100600187161502019094169390930492830185900485028101850182528281529401939283018282801561370a5780601f106136df5761010080835404028352916020019161370a565b820191906000526020600020905b8154815290600101906020018083116136ed57829003601f168201915b505050505081526020016005820154815260200160068201548152505081526020019060010190613517565b6001600160a01b0381166000908152601f60209081526040808320805482518185028101850190935280835260609492939192909184015b82821015610a5f5760008481526020908190206040805160028681029093018054600181161561010002600019011693909304601f8101859004909402810160609081018352918101848152909384928491908401828280156138125780601f106137e757610100808354040283529160200191613812565b820191906000526020600020905b8154815290600101906020018083116137f557829003601f168201915b505050505081526020016001820154815250508152602001906001019061376e565b61383c614a6b565b5060408051808201825283815260208082018490526000868152601d8252928320805460018101825590845292819020825180519394859460029091029092019261388c928492909101906148ac565b50602082810151805161317b92600185019201906148ac565b336000908152600f60209081526040808320805482518185028101850190935280835260609492939192909184015b828210156128a55760008481526020908190206040805160c08101825260068602909201805483526001808201546001600160a01b03908116858701526002808401549091168585015260038301805485516101009482161594909402600019011691909104601f810187900487028301870190945283825293949193606086019391929091908301828280156139ac5780601f10613981576101008083540402835291602001916139ac565b820191906000526020600020905b81548152906001019060200180831161398f57829003601f168201915b5050505050815260200160048201548152602001600582015481525050815260200190600101906138d4565b6001600160a01b0383166000908152601f602052604081208054613a67928592916139ff57fe5b60009182526020918290206002918202018054604080516001831615610100026000190190921693909304601f810185900485028201850190935282815292909190830182828015610b2e5780601f10610b0357610100808354040283529160200191610b2e565b15612a09576001600160a01b0383166000908152601f602052604081208054839290613a8f57fe5b90600052602060002090600202016001018190555080602083604051613ab5919061546c565b90815260405190819003602001902060010155505050565b6060601d6000838152602001908152602001600020805480602002602001604051908101604052809291908181526020016000905b82821015610a5f5760008481526020908190206040805160028681029093018054600181161561010002600019011693909304601f810185900490940281016060908101835291810184815290938492849190840182828015613ba65780601f10613b7b57610100808354040283529160200191613ba6565b820191906000526020600020905b815481529060010190602001808311613b8957829003601f168201915b50505050508152602001600182018054600181600116156101000203166002900480601f016020809104026020016040519081016040528092919081815260200182805460018160011615610100020316600290048015613c485780601f10613c1d57610100808354040283529160200191613c48565b820191906000526020600020905b815481529060010190602001808311613c2b57829003601f168201915b50505050508152505081526020019060010190613b02565b6000601b8260405161158f919061546c565b60008181526014602090815260408083206015835292819020835482518185028101850190935280835260609485949093918491830182828015613cd557602002820191906000526020600020905b815481526020019060010190808311613cc1575b5050505050915080805480602002602001604051908101604052809291908181526020018280548015613d2757602002820191906000526020600020905b815481526020019060010190808311613d13575b5050505050905091509150915091565b6000828152601e602090815260409091208251612a09928401906148ac565b6001546001600160a01b039081166000908152602160209081526040808320938716835292905290812060020154821115613da35760405162461bcd60e51b815260040161268f90615bc4565b6001546001600160a01b039081166000908152602160209081526040808320848916808552925290912054909116148015613e0d5750600180546001600160a01b0390811660009081526021602090815260408083209388168352929052206003015460ff161515145b15613ec357600180546001600160a01b0390811660009081526021602081815260408084208a8616808652908352818520600290810180548c8916808952858920840154918d900392839055995490981687529484528286209786529690925292839020938701939094018390559051909242917f11cccc9b3fbc8fd163c4dbf6c7afdce1433c5cf351f29596a006f3720f648c2090613eb09089908990615c24565b60405180910390a3600192505050613ec7565b5060005b9392505050565b60606006805480602002602001604051908101604052809291908181526020016000905b828210156128a55760008481526020908190206040805160a0810182526005860290920180546001600160a01b03168352600180820180548451600261010094831615949094026000190190911692909204601f810187900487028301870190945283825293949193858301939192909190830182828015613fb55780601f10613f8a57610100808354040283529160200191613fb5565b820191906000526020600020905b815481529060010190602001808311613f9857829003601f168201915b5050509183525050600282810180546040805160206001841615610100026000190190931694909404601f810183900483028501830190915280845293810193908301828280156140475780601f1061401c57610100808354040283529160200191614047565b820191906000526020600020905b81548152906001019060200180831161402a57829003601f168201915b505050918352505060038201805460408051602060026001851615610100026000190190941693909304601f81018490048402820184019092528181529382019392918301828280156140db5780601f106140b0576101008083540402835291602001916140db565b820191906000526020600020905b8154815290600101906020018083116140be57829003601f168201915b5050505050815260200160048201548152505081526020019060010190613ef2565b6000908152601c602052604090205490565b614196816040518060400160405280601081526020016f149154555154d5081054141493d5915160821b815250604051806040016040528060068152602001651393d493505360d21b8152506040518060400160405280602081526020017f594f55522052455155455354204953204245494e472050524f4345535345442e815250611964565b42336001600160a01b0316600080516020615e308339815191526040516141bc90615b01565b60405180910390a36000818152601c6020908152604080832054601090925290912060010154600290910490612a09906001600160a01b03163383613d56565b6001600160a01b0381166000908152600a60209081526040808320805482518185028101850190935280835260609492939192909184015b82821015610a5f5760008481526020908190206040805160a0810182526005860290920180546001600160a01b03168352600180820180548451600261010094831615949094026000190190911692909204601f8101879004870283018701909452838252939491938583019391929091908301828280156142f75780601f106142cc576101008083540402835291602001916142f7565b820191906000526020600020905b8154815290600101906020018083116142da57829003601f168201915b5050509183525050600282810180546040805160206001841615610100026000190190931694909404601f810183900483028501830190915280845293810193908301828280156143895780601f1061435e57610100808354040283529160200191614389565b820191906000526020600020905b81548152906001019060200180831161436c57829003601f168201915b505050918352505060038201805460408051602060026001851615610100026000190190941693909304601f810184900484028201840190925281815293820193929183018282801561441d5780601f106143f25761010080835404028352916020019161441d565b820191906000526020600020905b81548152906001019060200180831161440057829003601f168201915b5050505050815260200160048201548152505081526020019060010190614234565b6001546001600160a01b039081166000908152602160209081526040808320938616835292905290812060020154821061448b5760405162461bcd60e51b815260040161268f90615bc4565b6001546001600160a01b039081166000908152602160209081526040808320848816808552925290912054909116141561274b576001546001600160a01b03908116600090815260216020908152604080832093871680845293909152908190206002018054859003908190559051909142917f11cccc9b3fbc8fd163c4dbf6c7afdce1433c5cf351f29596a006f3720f648c20906127399088908890615b8a565b6001546001600160a01b03908116600090815260216020908152604080832084861680855292528220549192919091161415610a6657506001546001600160a01b03908116600090815260216020908152604080832093851683529290522060020154610a66565b61459d614a85565b6040518060a00160405280878152602001868152602001838152602001858152602001848152509050600b876040516145d6919061546c565b908152604051602091819003820190208054600181018255600091825290829020835180518594600590940290920192614615928492909101906148ac565b50602082810151805161462e92600185019201906148ac565b5060408201516002820155606082015180516146549160038401916020909101906148ac565b50608082015180516146709160048401916020909101906148ac565b50505042600c88604051614684919061546c565b908152604051908190036020018120546001600160a01b0316907fab3ffcc3d1502cb968fba2d1de4bd32afdcf99aaa6c3f52f50d0da2466159cc9908a90600c906146d090839061546c565b90815260200160405180910390206002016040516146ef9291906159e9565b60405180910390a350505050505050565b60608161472557506040805180820190915260018152600360fc1b6020820152610a66565b8160005b811561473d57600101600a82049150614729565b6060816001600160401b038111801561475557600080fd5b506040519080825280601f01601f191660200182016040528015614780576020820181803683370190505b509050815b85156147d857600019016000600a8704600a028703603001905060008160f81b9050808484815181106147b457fe5b60200101906001600160f81b031916908160001a905350600a880497505050614785565b50949350505050565b6060806040518060400160405280600381526020016201016160ed1b815250905083818460405160200161481793929190615488565b60405160208183030381529060405291505092915050565b60405180610100016040528060008152602001600081526020016000815260200160008152602001600081526020016000815260200160008152602001600081525090565b6040518060a0016040528060006001600160a01b03168152602001606081526020016060815260200160608152602001600081525090565b828054600181600116156101000203166002900490600052602060002090601f0160209004810192826148e25760008555614928565b82601f106148fb57805160ff1916838001178555614928565b82800160010185558215614928579182015b8281111561492857825182559160200191906001019061490d565b50614934929150614ab4565b5090565b6040518060c001604052806000815260200160006001600160a01b0316815260200160006001600160a01b031681526020016060815260200160008152602001600081525090565b604051806080016040528060006001600160a01b0316815260200160608152602001600081526020016000151581525090565b6040518060e0016040528060006001600160a01b031681526020016060815260200160608152602001600081526020016060815260200160008152602001600081525090565b604051806040016040528060608152602001600081525090565b6040518060e001604052806000815260200160006001600160a01b0316815260200160006001600160a01b0316815260200160006001600160a01b031681526020016060815260200160008152602001600081525090565b604051806040016040528060608152602001606081525090565b6040518060a0016040528060608152602001606081526020016000815260200160608152602001606081525090565b5b808211156149345760008155600101614ab5565b80356001600160a01b0381168114610a6657600080fd5b600082601f830112614af0578081fd5b81356001600160401b0380821115614b0457fe5b604051601f8301601f191681016020018281118282101715614b2257fe5b604052828152925082848301602001861015614b3d57600080fd5b8260208601602083013760006020848301015250505092915050565b600060208284031215614b6a578081fd5b613ec782614ac9565b60008060008060808587031215614b88578283fd5b614b9185614ac9565b9350614b9f60208601614ac9565b925060408501356001600160401b03811115614bb9578283fd5b614bc587828801614ae0565b949793965093946060013593505050565b600080600060608486031215614bea578283fd5b614bf384614ac9565b9250614c0160208501614ac9565b9150604084013590509250925092565b60008060408385031215614c23578182fd5b614c2c83614ac9565b915060208301356001600160401b03811115614c46578182fd5b614c5285828601614ae0565b9150509250929050565b600080600060608486031215614c70578283fd5b614c7984614ac9565b925060208401356001600160401b03811115614c93578283fd5b614c9f86828701614ae0565b925050604084013590509250925092565b60008060408385031215614cc2578182fd5b614ccb83614ac9565b946020939093013593505050565b600060208284031215614cea578081fd5b81356001600160401b03811115614cff578182fd5b614d0b84828501614ae0565b949350505050565b60008060408385031215614d25578182fd5b82356001600160401b0380821115614d3b578384fd5b614d4786838701614ae0565b93506020850135915080821115614d5c578283fd5b50614c5285828601614ae0565b600080600060608486031215614d7d578283fd5b83356001600160401b0380821115614d93578485fd5b614d9f87838801614ae0565b94506020860135915080821115614db4578384fd5b614dc087838801614ae0565b93506040860135915080821115614dd5578283fd5b50614de286828701614ae0565b9150509250925092565b60008060008060008060c08789031215614e04578182fd5b86356001600160401b0380821115614e1a578384fd5b614e268a838b01614ae0565b97506020890135915080821115614e3b578384fd5b614e478a838b01614ae0565b96506040890135915080821115614e5c578384fd5b614e688a838b01614ae0565b95506060890135915080821115614e7d578384fd5b614e898a838b01614ae0565b94506080890135915080821115614e9e578384fd5b50614eab89828a01614ae0565b92505060a087013590509295509295509295565b60008060008060008060c08789031215614ed7578182fd5b86356001600160401b0380821115614eed578384fd5b614ef98a838b01614ae0565b97506020890135915080821115614f0e578384fd5b614f1a8a838b01614ae0565b9650604089013595506060890135915080821115614f36578384fd5b50614f4389828a01614ae0565b9350506080870135915060a087013590509295509295509295565b60008060408385031215614f70578182fd5b82356001600160401b03811115614f85578283fd5b614f9185828601614ae0565b95602094909401359450505050565b600080600080600080600060e0888a031215614fba578081fd5b87356001600160401b03811115614fcf578182fd5b614fdb8a828b01614ae0565b9a60208a01359a5060408a013599606081013599506080810135985060a0810135975060c0013595509350505050565b600080600080600080600080610100898b031215615027578182fd5b88356001600160401b0381111561503c578283fd5b6150488b828c01614ae0565b9b60208b01359b5060408b01359a60608101359a506080810135995060a0810135985060c0810135975060e0013595509350505050565b60008060008060008060008060006101208a8c03121561509d578283fd5b89356001600160401b038111156150b2578384fd5b6150be8c828d01614ae0565b9c60208c01359c5060408c01359b60608101359b5060808101359a5060a0810135995060c0810135985060e08101359750610100013595509350505050565b60006020828403121561510e578081fd5b5035919050565b60008060408385031215615127578182fd5b8235915060208301356001600160401b03811115614c46578182fd5b600080600060608486031215615157578081fd5b8335925060208401356001600160401b0380821115614db4578283fd5b60008060008060808587031215615189578182fd5b8435935060208501356001600160401b03808211156151a6578384fd5b6151b288838901614ae0565b945060408701359150808211156151c7578384fd5b6151d388838901614ae0565b935060608701359150808211156151e8578283fd5b506151f587828801614ae0565b91505092959194509250565b600080600060608486031215615215578081fd5b505081359360208301359350604090920135919050565b6000815180845260208085019450808401835b8381101561525b5781518752958201959082019060010161523f565b509495945050505050565b6000815180845261527e816020860160208601615dff565b601f01601f19169290920160200192915050565b600081546001808216600081146152b057600181146152ce5761530c565b60028304607f16865260ff198316602087015260408601935061530c565b600283048087526152de86615df3565b60005b828110156153025781546020828b01015284820191506020810190506152e1565b8801602001955050505b50505092915050565b600060018060a01b038251168352602082015160a0602085015261533c60a0850182615266565b9050604083015184820360408601526153558282615266565b9150506060830151848203606086015261536f8282615266565b915050608083015160808501528091505092915050565b600060018060a01b038251168352602082015160e060208501526153ad60e0850182615266565b9050604083015184820360408601526153c68282615266565b91505060608301516060850152608083015184820360808601526153ea8282615266565b91505060a083015160a085015260c083015160c08501528091505092915050565b600081518352602082015160018060a01b0380821660208601528060408501511660408601525050606082015160c0606085015261544c60c0850182615266565b90506080830151608085015260a083015160a08501528091505092915050565b6000825161547e818460208701615dff565b9190910192915050565b6000845161549a818460208901615dff565b8451908301906154ae818360208901615dff565b84519101906154c1818360208801615dff565b0195945050505050565b60008083546001808216600081146154ea576001811461550157615530565b60ff198316865260028304607f1686019350615530565b600283048786526020808720875b838110156155285781548a82015290850190820161550f565b505050860193505b509195945050505050565b6001600160a01b0391909116815260200190565b60208082528251828201819052600091906040908185019080840286018301878501865b838110156155fb57888303603f19018552815180518452878101516001600160a01b0390811689860152878201518116888601526060808301519091169085015260808082015160e082870181905291906155d083880182615266565b60a0858101519089015260c09485015194909701939093525050509386019390860190600101615573565b509098975050505050505050565b60208082528251828201819052600091906040908185019080840286018301878501865b838110156155fb57888303603f190185528151805187855261565188860182615266565b91890151948901949094529487019492509086019060010161562d565b60208082528251828201819052600091906040908185019080840286018301878501865b838110156155fb57888303603f19018552815180518785526156b688860182615266565b91890151858303868b01529190506156ce8183615266565b968901969450505090860190600101615692565b6000602080830181845280855180835260408601915060408482028701019250838701855b8281101561573557603f19888603018452615723858351615315565b94509285019290850190600101615707565b5092979650505050505050565b6000602080830181845280855180835260408601915060408482028701019250838701855b8281101561573557603f19888603018452615783858351615386565b94509285019290850190600101615767565b6000602080830181845280855180835260408601915060408482028701019250838701855b8281101561573557603f198886030184526157d6858351615315565b945092850192908501906001016157ba565b6000602080830181845280855180835260408601915060408482028701019250838701855b8281101561573557603f1988860301845261582985835161540b565b9450928501929085019060010161580d565b60208082528251828201819052600091906040908185019080840286018301878501865b838110156155fb57603f19898403018552815160a0815181865261588582870182615266565b915050888201518582038a87015261589d8282615266565b9150508782015188860152606080830151868303828801526158bf8382615266565b92505050608080830151925085820381870152506158dd8183615266565b96890196945050509086019060010161585f565b600060408252615904604083018561522c565b8281036020840152615916818561522c565b95945050505050565b901515815260200190565b600060208252613ec76020830184615266565b6000606082526159506060830185615266565b82810360208401526159628185615292565b838103604094850152600e81526d0aa9c888aa45aa48aa68a82a486960931b602082015292909201949350505050565b6000606082526159a56060830185615266565b82810360208401526159b78185615292565b838103604094850152601081526f50524f44554354494f4e2d524541445960801b602082015292909201949350505050565b6000606082526159fc6060830185615266565b8281036020840152615a0e8185615292565b838103604094850152600a815269149151d254d51154915160b21b602082015292909201949350505050565b60208082526011908201527012538811d313d09053081514905394d255607a1b604082015260600190565b6020808252600790820152661253959053125160ca1b604082015260600190565b6020808252600690820152651393d493505360d21b604082015260600190565b60208082526012908201527114d21254135153950811115312559154915160721b604082015260600190565b60208082526015908201527410905510d208149154555154d50810d49150551151605a1b604082015260600190565b60208082526010908201526f149154555154d5081054141493d5915160821b604082015260600190565b6020808252600f908201526e141050d2d051d14810d49150551151608a1b604082015260600190565b600060408252600c60408301526b53656e736f7273204461746160a01b606083015260806020830152613ec76080830184615266565b6060808252600a908201526915d2551211149055d05360b21b60808201526001600160a01b03929092166020830152604082015260a00190565b6020808252600f908201526e125394d551919250d2515395109053608a1b604082015260600190565b60608082526007908201526611115413d4d25560ca1b60808201526001600160a01b03929092166020830152604082015260a00190565b6060808252600890820152672a2920a729a322a960c11b60808201526001600160a01b03929092166020830152604082015260a00190565b60208082526010908201526f1253881313d0d053081514905394d25560821b604082015260600190565b6020808252600f908201526e149154555154d50810d49150551151608a1b604082015260600190565b6020808252601b908201527f5041434b414745204953204f555420464f52205348495050494e470000000000604082015260600190565b60208082526008908201526710509393d493505360c21b604082015260600190565b602080825282516001600160a01b03168282015282015160806040830152600090615d3660a0840182615266565b9050604084015160608401526060840151151560808401528091505092915050565b600061010082019050825182526020830151602083015260408301516040830152606083015160608301526080830151608083015260a083015160a083015260c083015160c083015260e083015160e083015292915050565b600060208252613ec76020830184615386565b600060208252613ec76020830184615315565b600060208252613ec7602083018461540b565b90815260200190565b60009081526020902090565b60005b83811015615e1a578181015183820152602001615e02565b83811115615e29576000848401525b5050505056fe530abb16f843103fba748c032a23827a5140b72d210f41d8bbbc183708de524020594f555220534849504d454e542049532043555252454e544c5920494e205452414e5349542e20594f555220534849504d454e54204953204f555420464f52205348495050494e475041434b414745204953204352454154454420414e4420534849504d454e5420495320524541445920544f204c4541564520464f522053485050494e472e594f555220534849504d454e542049532044454c495645524544205355434345535346554c4c592e594f555220534849504d454e542049532053455420464f522044454c495645525920414e4420495320455850454354454420544f2041525249564520534f4f4e2ea5c6f15554bc8ce0c037ba8151c192afe39c97efe0dee46b4b19f486e3a6d3bda2646970667358221220cb9796d25ce79df9194028416d36245e91e097491ea6d5175c84afd76b5e8ca964736f6c63430007040033",
  "immutableReferences": {},
  "source": "// \"SPDX-License-Identifier: UNLICENSED\"\npragma solidity >=0.6.2;\npragma experimental ABIEncoderV2;  \n\ncontract test {\n\n// CONTRACT CONTENT GOES HERE\n    \n    // UTILS\n    \n    function strComp(string memory x , string memory y ) public pure returns (bool){\n        \n        return (keccak256(abi.encodePacked((x))) == keccak256(abi.encodePacked((y))));\n        \n    }\n    \n    function toString(uint _i) internal pure returns (string memory _uintAsString) {\n        \n        if (_i == 0) {\n            return \"0\";\n        }\n        uint j = _i;\n        uint len;\n        while (j != 0) {\n            len++;\n            j /= 10;\n        }\n        bytes memory bstr = new bytes(len);\n        uint k = len;\n        while (_i != 0) {\n            k = k-1;\n            uint8 temp = (48 + uint8(_i - _i / 10 * 10));\n            bytes1 b1 = bytes1(temp);\n            bstr[k] = b1;\n            _i /= 10;\n        }\n        return string(bstr);\n    }\n    \n    function concat(string memory a, string memory b) internal pure returns (string memory) {\n    string memory c = ' , ';\n    return string(abi.encodePacked( a, c, b));\n\n    }\n\n    // END OF UTILS\n\n    \n    \n    address     admin;\n    address     bank;\n    uint        trackNoCount = 115912;\n    uint        tempThreshold = 40;\n    uint        humidityThreshold = 50;\n    Material[]  materialArr;\n    Product[]   productArr;\n    uint[]      tempArr;\n    uint[]      humidArr;\n    enum        Role                        {MANUFACTURER, SUPPLIER, DISTRIBUTOR, DRUG_AUTHORITY , BANK}\n    mapping (address => bool)               participants;\n    mapping (address => Product[])          products;    // manufacturer and product\n    mapping (string => Specs[])             productSpecs; // productID and material \n    mapping (string => Product)             productList; // product by id\n    mapping (address => Material[])         materials;   //Participant(supplier) and material\n    mapping (string => Material)            materialList; // materials by id\n    mapping (address => Request[])          requests;   // participant and requests\n    mapping (uint => Request)               requestList; // requests by id\n    mapping (address => BatchRequest[])     batchRequests; //participant and batch requests\n    mapping (uint => BatchRequest)          batchRequestsList; // request id\n    mapping (uint => Log[])                 trackLogs; //requestId and Log\n    mapping (uint => uint[])                tempDataLogs; // requestId and temp data\n    mapping (uint => uint[])                humidDataLogs; // requestId and humid data\n    mapping (string => Cost)                standardProductCosts;\n    mapping (string => Cost)                actualProductCosts;\n    mapping (string => Cost)                flexibleProductCosts;\n    mapping (string => uint)                standardBudgetUnits;\n    mapping (string => uint)                actualBudgetUnits;\n    mapping (string => uint)                flexibleBudgetUnits;\n    mapping (uint => uint)                  requestCost;    // requestId and Cost\n    mapping (uint => Location[])            requestLocations; //request id and locations\n    mapping (uint => string)                requestShipmentMethod; //request Id and shipment method  \n    mapping (address => InventoryItem[])    inventory;   // participant and items inventory\n    mapping (string => InventoryItem)       inventoryList;   // inventory item by item id\n    mapping (address => mapping (address => BankAccount) ) userBankAccounts; // bankAddr -> userAddr -> userAcc\n    event   DataSent            (uint indexed requestNo, string DataCategory ,string dataValues , uint indexed timestamp);\n    event   ShipmentStateUpdate (uint indexed requestNo, string  state, uint indexed timestamp);\n    event   requestStateUpdate  (address indexed who, uint indexed timestamp , string  state);\n    event   BankTransact        (string txName, address indexed _from , address  _to , uint _amount , uint indexed timestamp);\n    event   ProductStateUpdate  (string productId, string productName , address indexed manufacturer , string state , uint indexed timestamp);\n    \n    struct BankAccount {\n    \n        address userId;\n        string  userName;\n        uint    userBalance;\n        bool    isActive;\n    }\n    \n    struct Participant {\n        \n        address particId;\n        Role    particRole;\n    }\n    \n    struct Product {\n        \n        address manufacturer;\n        string  productId; //registration no.\n        string  productName;\n        string  productForm; // tablets or capsules\n        uint    productBudget;\n        \n    }\n    \n    struct Material {\n        address supplier;\n        string  materialID;\n        string  materialName;\n        uint  materialStrength;\n        string  materialForm;\n        uint    createdAmount;\n        uint    unitCost;\n    }\n    \n    struct Specs {\n        string  materialName;\n        string  materialType;\n        uint    materialAmount;\n        string  materialStrength;\n        string  materialForm;\n        \n    }\n\n    struct Request {\n        uint    requestId;\n        address fromParti;\n        address toParti;\n        string  materialID;\n        uint    amount;\n        uint    issueTime;\n    }\n    \n    struct BatchRequest {\n        uint requestId;\n        address fromParti1;\n        address fromParti2;\n        address toParti;\n        string materialID;\n        uint amount;\n        uint issueTime;\n    }\n    \n       struct Log {\n        address logger;\n        string  requestStatus;\n        string  description;\n        string  shipmentStatus;\n        uint    logTime;\n    }\n    \n    struct Cost {\n        uint directMaterialCost;\n        uint packagingMaterialCost;\n        uint marketingCost;\n        uint researchCost;\n        uint directLaborCost;\n        uint totalIndirectCost; // indirect manufacturing costs\n        uint totalDirectCost;\n        uint CostTOT; // direct material + direct labor + total indirect\n    }\n    \n    struct Location {\n        string Latitude;\n        string Longitude;\n    }\n    \n    struct InventoryItem {\n      string itemId;\n      uint   amount;\n    }\n    \n    // FUNCTIONS\n    // MANUFACTURING STUFF GOES HERE\n    \n    function addProduct(\n    \n    string memory _id,\n    string memory _name,\n    string memory _pForm\n    \n    ) public {\n        \n        Product memory pro = Product({\n            productId: _id,\n            productName: _name,\n            productForm: _pForm,\n            productBudget: 0,\n            manufacturer: msg.sender\n        });\n        \n        products[msg.sender].push(pro);\n        productList[_id] = pro;\n        productArr.push(pro);\n         emit ProductStateUpdate(\n        _id,\n        productList[_id].productName,\n        productList[_id].manufacturer,\n        'UNDER-RESEARCH',\n        block.timestamp\n        );\n    \n        \n    }\n    \n    function addProductSpecs(\n    \n    string memory _productID,\n    string memory _name,\n    string memory _type,\n    string memory _strength,\n    string memory _form,\n    uint          _amount\n    \n    ) public {\n    \n        Specs memory spec = Specs({\n            materialName: _name,\n            materialType: _type,\n            materialForm: _form,\n            materialAmount: _amount,\n            materialStrength: _strength\n            \n        });      \n        \n        productSpecs[_productID].push(spec);\n         emit ProductStateUpdate(\n        _productID,\n        productList[_productID].productName,\n        productList[_productID].manufacturer,\n        'REGISTERED',\n        block.timestamp\n        );\n    \n        \n    }\n    \n      \n    function getProductsByManu(address _manufacturer) public view returns(Product[] memory) {\n        return products[_manufacturer];\n    }\n    \n    function getProducts() public view returns(Product[] memory) {\n        return productArr;\n    }\n    \n    function getProductById(string memory _id) public view returns(Product memory) {\n        return productList[_id];\n    }\n    \n    function getProductSpecs(string memory _product) public view returns(Specs[] memory) {\n        return productSpecs[_product];\n    }\n    \n    // END OF MANUFACTURING STUFF\n    // COST ACCOUNTING STUFF GOES HERE\n    \n    function setStdCostPlan(\n    \n    string memory _product,\n    uint    _unitsNo,\n    uint    _directMatCost,\n    uint    _pkgMatCost,\n    uint    _directLaborCost,\n    uint    _totIndirectCosts,\n    uint    _mrkCost,\n    uint    _rsrchCost,\n    uint    _productBudget\n    \n        ) public {\n    \n    Cost memory stdCosts = Cost({\n        directMaterialCost: _directMatCost,\n        directLaborCost: _directLaborCost,\n        totalIndirectCost: _totIndirectCosts,\n        totalDirectCost: _directMatCost + _pkgMatCost +  _directLaborCost,\n        packagingMaterialCost: _pkgMatCost,\n        marketingCost: _mrkCost,\n        researchCost: _rsrchCost,\n        CostTOT: _directMatCost + _pkgMatCost +  _directLaborCost + _totIndirectCosts + _mrkCost  + _rsrchCost\n       \n    });\n    \n    standardProductCosts[_product] = stdCosts;\n    standardBudgetUnits[_product] = _unitsNo;\n    setProductBudget(_product, _productBudget);\n    }\n    \n    function setProductBudget(string memory _product, uint _budget) public {\n        if(strComp(_product, products[msg.sender][0].productId)) {\n            products[msg.sender][0].productBudget = _budget;\n            productList[_product].productBudget = _budget;\n        }\n       \n    }\n    \n    \n    function getStdCostPlan(string memory _product) public view returns(Cost memory) {\n        return standardProductCosts[_product];\n    }\n    \n    function getStdBudgetUnits(string memory _product) public view returns (uint units ) {\n        return standardBudgetUnits[_product];\n    }\n    \n    function setActualCost(\n    \n    string memory _product,\n    uint _unitsNo,\n    uint _actualMatCost,\n    uint _actualPkgMatCost,\n    uint _actualLaborCost,\n    uint _actualIndirectCost,\n    uint _actualMrkCost,\n    uint _actualRsrchCost\n    \n    ) public {\n        Cost memory actualCosts = Cost({\n            directMaterialCost: _actualMatCost,\n            packagingMaterialCost: _actualPkgMatCost,\n            totalDirectCost: _actualMatCost + _actualPkgMatCost + _actualLaborCost,\n            marketingCost: _actualMrkCost,\n            researchCost: _actualRsrchCost,\n            directLaborCost: _actualLaborCost,\n            totalIndirectCost: _actualIndirectCost,\n            CostTOT: _actualMatCost + _actualPkgMatCost + _actualLaborCost + _actualIndirectCost\n                     + _actualMrkCost + _actualRsrchCost\n        });\n        \n        actualProductCosts[_product] = actualCosts;\n        actualBudgetUnits[_product] = _unitsNo;\n        emit ProductStateUpdate(\n        _product,\n        productList[_product].productName,\n        productList[_product].manufacturer,\n        'PRODUCTION-READY',\n        block.timestamp\n        );\n    }\n    \n    function getActualCost(string memory _product) public view returns(Cost memory) {\n        \n        return actualProductCosts[_product];\n    }\n    \n    function getActualBudgetUnits(string memory _product) public view returns(uint units ) {\n        return actualBudgetUnits[_product];\n    }\n    \n    \n    function setFlexibleBudgetUnits(string memory _product, uint _unitsNo) public {\n        flexibleBudgetUnits[_product] = _unitsNo;\n    }\n    \n    function getFlexibleBudgetUnits(string memory _product) public view returns(uint units) {\n        return flexibleBudgetUnits[_product];\n    }\n    \n    function setFlexibleCosts(\n    string memory _product,\n    uint _avgMatUnitCost,\n    uint _avgPkgUnitCost,\n    uint _avgLaborUnitCost,\n    uint _avgIndirectManuUnitCost,\n    uint _flexibleMrkCost,\n    uint _flexibleRsrchCost)\n    public {\n        uint flexibleUnits = flexibleBudgetUnits[_product];\n        Cost memory flex = Cost ({\n            directMaterialCost: _avgMatUnitCost*flexibleUnits,\n            packagingMaterialCost: _avgPkgUnitCost*flexibleUnits,\n            totalDirectCost: (_avgMatUnitCost*flexibleUnits) +(_avgPkgUnitCost*flexibleUnits) + (_avgLaborUnitCost*flexibleUnits),\n            marketingCost: _flexibleMrkCost,\n            researchCost: _flexibleRsrchCost,\n            directLaborCost:  _avgLaborUnitCost*flexibleUnits,\n            totalIndirectCost: _avgIndirectManuUnitCost*flexibleUnits,\n            CostTOT: (_avgMatUnitCost*flexibleUnits) +(_avgPkgUnitCost*flexibleUnits) + (_avgLaborUnitCost*flexibleUnits)\n                     + (_avgIndirectManuUnitCost*flexibleUnits)\n                     + _flexibleMrkCost + _flexibleRsrchCost\n        });\n        \n        flexibleProductCosts[_product] = flex;\n        \n    }\n    \n    function getFlexibleCosts(string memory _product) public view returns (Cost memory) {\n        return flexibleProductCosts[_product];\n    }\n    \n    // END OF  COST ACCOUNTING STUF\n    // SUPPLYING STUFF GOES HERE\n    \n    // Creation of Material By Supplier\n    \n    function createMaterial(\n    \n    string memory _id,\n    string memory _name,\n    uint          _str,\n    string memory _form,\n    uint          _amount,\n    uint          _unitCost\n    \n    ) public {\n        \n        Material memory mat = Material({\n           supplier: msg.sender,\n           materialID:   _id,\n           materialName: _name,\n           materialForm: _form,\n           materialStrength: _str,\n           createdAmount: _amount,\n           unitCost:      _unitCost\n        });\n\n        materials[msg.sender].push(mat);\n        materialList[_id] = mat;\n        materialArr.push(mat);\n        addToInventory(msg.sender, _id , _amount);\n        \n    }\n    \n    \n    function getMaterialsBySupplier(address _supplier) public view returns(Material[] memory ) {\n        return materials[_supplier];\n    }\n    \n    \n    // Materials to filter through\n    \n    function getMaterials() public view returns(Material[] memory) {\n        return materialArr;\n    }\n    \n    function getMaterialById (string memory _materialId) public view returns(Material memory) {\n        return materialList[_materialId];\n    }\n    \n\n    function createRequest(\n    \n    address _to ,\n    string memory _materialId,\n    uint _amount \n    )\n    public {\n        trackNoCount += 1573;\n        Request memory req = Request({\n           requestId: trackNoCount,\n           fromParti: msg.sender,\n           toParti: _to,\n           materialID : _materialId,\n           amount: _amount,\n           issueTime: block.timestamp\n        });\n        \n        requestCost[req.requestId] = req.amount * materialList[_materialId].unitCost; \n        requests[msg.sender].push(req);\n        requestList[req.requestId] = req;\n        emit requestStateUpdate(msg.sender, block.timestamp , 'REQUEST CREATED');\n    }\n    \n    function createBatchRequest(\n    address _fromParti2,\n    address _to,\n    string memory _materialId,\n    uint _amount\n    ) \n    public {\n        trackNoCount += 2256;\n        BatchRequest memory batchReq = BatchRequest({\n            requestId: trackNoCount,\n            fromParti1: msg.sender,\n            fromParti2: _fromParti2,\n            toParti: _to,\n            materialID: _materialId,\n            amount: _amount,\n            issueTime: block.timestamp\n        });\n        \n        requestCost[batchReq.requestId] = batchReq.amount * materialList[_materialId].unitCost;\n        batchRequestsList[batchReq.requestId] = batchReq;\n        batchRequests[msg.sender].push(batchReq);\n        emit requestStateUpdate(msg.sender, block.timestamp , 'BATCH REQUEST CREATED');\n        \n    }\n    \n    function getRequestCost(uint _id) public view returns(uint) {\n        return requestCost[_id];\n    }\n    \n    function getMyRequests() public view returns (Request[] memory) {\n        \n        return requests[msg.sender];\n    }\n    \n    function getMyBatchRequests() public view returns (BatchRequest[] memory) {\n        return batchRequests[msg.sender];\n    }\n    \n    function getRequestById(uint _id) public view returns (Request memory) {\n        return requestList[_id];\n    }\n    \n    function addToInventory(address _participant , string memory _item , uint _amount) public {\n        InventoryItem memory itm = InventoryItem({\n            itemId: _item,\n            amount: _amount\n        });\n        \n        inventory[_participant].push(itm);\n        inventoryList[_item] = itm;\n    }\n    \n    function updateInventory(address _participant , string memory _item , uint _amount) public {\n        \n        if(strComp(_item, inventory[_participant][0].itemId) ) {\n            inventory[_participant][0].amount = _amount;\n            inventoryList[_item].amount = _amount;\n            \n        }\n    }\n    \n    function getInventory(address _participant) public view returns (InventoryItem[] memory) {\n        return inventory[_participant];\n    }\n    \n    // function getInventoryList(string memory _item) public view returns (InventoryItem memory) {\n    //     return inventoryList[_item];\n    // }\n    \n    // END OF SUPPLYING STUFF\n    // BANKING STUFF GOES HERE\n    // functions that has 'self' word are invokable by msg.sender\n    // other functions should require admin / bank control of execution\n    \n    function setAsBank(address _addr) public {\n        bank = _addr;\n        \n    }\n    \n    function getBank() public view returns (address) {\n        return bank;\n    }\n    \n    function createBankAccount(address _userAddr, string memory _userName) public {\n        \n        BankAccount memory account = BankAccount({\n            \n            userId:  _userAddr,\n            userName: _userName,\n            userBalance: 0,\n            isActive: true\n            \n        });\n        \n        userBankAccounts[bank][_userAddr] = account;\n        \n    }\n    \n    function hasBankAccount(address _userAddr) public view returns (bool) {\n        if (userBankAccounts[bank][_userAddr].isActive != false) {\n            return true;\n        }\n        else {\n            return false;\n        }\n    }\n    \n    function deposit (address _userAddr, uint _amount) public returns (bool) {\n        \n        require (_amount > 0, 'INVALID');\n        if ( userBankAccounts[bank][_userAddr].userId == _userAddr) {\n            uint balance = userBankAccounts[bank][_userAddr].userBalance;\n            balance += _amount;\n            userBankAccounts[bank][_userAddr].userBalance = balance;\n            emit BankTransact ('DEPOSIT', _userAddr , _userAddr , _amount , block.timestamp);\n            return true;\n        }\n        else {\n            return false;\n        }\n        \n    }\n    \n    function withdraw (address _userAddr, uint _amount) public returns (bool) {\n        \n        require(userBankAccounts[bank][_userAddr].userBalance > _amount , 'INSUFFICIENTBAL' );\n        if (userBankAccounts[bank][_userAddr].userId == _userAddr) {\n            \n            uint balance = userBankAccounts[bank][_userAddr].userBalance;\n            balance -= _amount;\n            userBankAccounts[bank][_userAddr].userBalance = balance;\n            emit BankTransact ('WITHDRAWAL', _userAddr , _userAddr , _amount , block.timestamp);\n            return true;\n        }\n        else {\n            return false;\n        }\n    }\n\n    function getBalance (address _userAddr) public view returns (uint x) {\n        \n         if (userBankAccounts[bank][_userAddr].userId == _userAddr) {\n             uint balance = userBankAccounts[bank][_userAddr].userBalance;\n             return balance;\n        }\n    }\n\n    \n    function transfer (address _from, address _to , uint _amount) public returns (bool) {\n        \n         require(userBankAccounts[bank][_from].userBalance >= _amount ,\n         'INSUFFICIENTBAL' );\n         \n        if (userBankAccounts[bank][_from].userId == _from && userBankAccounts[bank][_to].isActive == true) {\n            \n            uint fromBalance = userBankAccounts[bank][_from].userBalance;\n            uint toBalance = userBankAccounts[bank][_to].userBalance;\n            fromBalance -= _amount;\n            toBalance += _amount;\n            userBankAccounts[bank][_from].userBalance = fromBalance;\n            userBankAccounts[bank][_to].userBalance = toBalance;\n            emit BankTransact ('TRANSFER', _from , _to , _amount , block.timestamp);\n            return true;\n        }\n        else {\n            return false;\n        }\n        \n    }\n    \n    function getAccountDetails(address _account) public view returns (BankAccount memory) {\n        return userBankAccounts[bank][_account];\n    }\n    \n    \n    // END OF BANKING STUFF\n    // TRACKING STUFF GOES HERE\n    // TRACKING STEPS:\n    // 1- REQUEST IS CREATED\n    // 2- SUPPLIER APPROVE REQUEST AND ASSIGNS SHIPMENT LOCATION \n    // 3- SUPPLIER CREATE AND SEND SHIPMENT FOR GLOBAL TRANSMISSION\n    // 4- GLOBAL TRANSMISSION SHIPS PACKAGE FOR LOCAL TRANSMISSION\n    // 5- LOCAL TRANSMISSION SHIPS PACKAGE TO FINAL DESTINATION (MANUFACTURER)\n    // TEMP AND HUMIDITY READINGS ARE SET DURING ALL PHASES OF SHIPMENT TRANSMISSION.\n    \n    //supplier\n    function approveRequest(uint _requestId) public {\n        createLog(_requestId, 'REQUEST APPROVED', 'NORMAL' , 'YOUR REQUEST IS BEING PROCESSED.' );\n        emit requestStateUpdate(msg.sender, block.timestamp , 'REQUEST APPROVED');\n        uint payment = requestCost[_requestId]/2;\n        transfer(requestList[_requestId].fromParti, msg.sender, payment);\n    }\n    \n \n    function verifyShipmentState(uint _id) public returns (string memory) {\n        \n        string memory status;\n        \n        if(tempArr[tempArr.length-1] >= tempThreshold || humidArr[humidArr.length-1] >= humidityThreshold) {\n            \n            status = 'ABNORMAL';\n             emit ShipmentStateUpdate (_id, status , block.timestamp);\n            \n        } else {\n            \n            status = 'NORMAL';\n             emit ShipmentStateUpdate (_id, status , block.timestamp);\n        }\n          return status;\n    }\n    \n \n    // supplier \n    function sendShipment(uint _requestId) public {\n        string memory x = inventoryList[requestList[_requestId].materialID].itemId;\n        string memory y = requestList[_requestId].materialID;\n        uint newAmount = inventoryList[requestList[_requestId].materialID].amount - requestList[_requestId].amount;\n        string memory result = verifyShipmentState(_requestId);\n        \n        createLog(_requestId, 'PACKAGE CREATED',  result , 'PACKAGE IS CREATED AND SHIPMENT IS READY TO LEAVE FOR SHPPING.' );\n        emit requestStateUpdate(msg.sender, block.timestamp , 'PACKAGE CREATED');\n        \n        createLog (_requestId, 'OUT FOR SHIPPING', result , ' YOUR SHIPMENT IS OUT FOR SHIPPING'); \n        emit requestStateUpdate(msg.sender, block.timestamp , 'PACKAGE IS OUT FOR SHIPPING');\n        \n        if(strComp(x,y)) {\n            updateInventory(msg.sender,requestList[_requestId].materialID, newAmount);\n        }\n        \n    }\n    \n    // global distributor\n    function globalTransitShipment(uint _requestId) public {\n        \n        string memory result = verifyShipmentState(_requestId);\n        \n        createLog (_requestId, 'SHIPPING PACKAGE', result , ' YOUR SHIPMENT IS CURRENTLY IN TRANSIT.');\n        emit requestStateUpdate(msg.sender, block.timestamp , 'IN GLOBAL TRANSIT');\n        \n    }\n    \n    //local distributor\n    function localTransitShipment(uint _requestId) public {\n        \n         string memory result = verifyShipmentState(_requestId);\n         \n        createLog (_requestId, 'READY FOR DELIVERY', result , 'YOUR SHIPMENT IS SET FOR DELIVERY AND IS EXPECTED TO ARRIVE SOON.');\n        emit requestStateUpdate(msg.sender, block.timestamp , 'IN LOCAL TRANSIT');\n        \n    }\n     \n    //manufacturer\n    \n    function receiveShipment(uint _requestId) public {\n        string memory x = inventory[msg.sender][0].itemId;\n        string memory y = requestList[_requestId].materialID;\n        uint newAmount = inventoryList[requestList[_requestId].materialID].amount + requestList[_requestId].amount;\n        \n        string memory result = verifyShipmentState(_requestId);\n        createLog(_requestId, 'DELIVERED' , result , 'YOUR SHIPMENT IS DELIVERED SUCCESSFULLY.');\n        emit requestStateUpdate(msg.sender, block.timestamp , 'SHIPMENT DELIVERED');\n        \n        uint payment = requestCost[_requestId] - requestCost[_requestId]/2;\n        transfer(requestList[_requestId].fromParti, msg.sender, payment);\n        \n       \n        if(strComp(x,y)) {\n            updateInventory(msg.sender,requestList[_requestId].materialID, newAmount);\n        } else {\n             addToInventory(msg.sender,requestList[_requestId].materialID, newAmount);\n        }\n    }\n    \n    \n    function createLog(\n    uint _requestId,\n    string memory _requestStatus,\n    string memory _shipmentStatus,\n    string memory _description\n    \n    ) public  {\n        \n        Log memory myLog = Log({\n            logger: msg.sender,\n            requestStatus: _requestStatus,\n            shipmentStatus: _shipmentStatus,\n            description: _description,\n            logTime: block.timestamp\n        });\n        \n        trackLogs[_requestId].push(myLog);\n        emit requestStateUpdate(msg.sender, block.timestamp , _requestStatus);\n    }\n    \n    function setShipmentTrackData (uint _id, uint _temp , uint _humid) public {\n        \n        tempDataLogs[_id].push(_temp);\n        tempArr.push(_temp);\n        humidDataLogs[_id].push(_humid);\n        humidArr.push(_humid);\n        emit DataSent(_id ,'Sensors Data', concat(toString(_temp),toString(_humid)), block.timestamp);\n        if(_temp >= tempThreshold || _humid >= humidityThreshold) {\n            emit ShipmentStateUpdate (_id, 'ABNORMAL' , block.timestamp);\n        } else {\n             emit ShipmentStateUpdate (_id, 'NORMAL' , block.timestamp);\n        }\n    }\n    \n    function getShipmentTrackData (uint _id) public view returns (uint[] memory temp, uint[] memory humid) {\n        return (tempDataLogs[_id],humidDataLogs[_id]);\n        \n    }\n    \n    function getTrackLogs(uint _request) public view returns(Log[] memory) {\n        return trackLogs[_request];\n    }\n    \n    \n    function setShipmentLocation (uint _id, string memory _lat , string memory _long) public {\n        Location memory loc = Location({\n            Latitude: _lat,\n            Longitude: _long\n        });\n        \n        requestLocations[_id].push(loc);\n    }\n    \n    function getShipmentLocation (uint _id) public view returns (Location[] memory) {\n        return requestLocations[_id];\n    }\n    \n    function setShipmentMethod(uint _id , string memory _method) public {\n        requestShipmentMethod[_id] = _method;\n    }\n    \n    function getShipmentMethod(uint _id) public view returns (string memory) {\n        return requestShipmentMethod[_id];\n    }\n    \n    // END OF TRACKING STUFF\n// END OF CONTRACT\n\n}",
  "sourcePath": "/home/mohamedkaram/Documents/Demo-sandbox/contracts/test.sol",
  "compiler": {
    "name": "solc",
    "version": "0.7.4+commit.3f05b770.Emscripten.clang"
  },
  "schemaVersion": "3.3.3",
  "updatedAt": "2021-03-25T15:15:31.742Z",
  "networkType": "ethereum",
  "devdoc": {
    "kind": "dev",
    "methods": {},
    "version": 1
  },
  "userdoc": {
    "kind": "user",
    "methods": {},
    "version": 1
  }
}